{
  "contracts/DXswapFactory.sol": {
    "DXswapFactory": {
      "abi": [
        {
          "inputs": [
            {
              "internalType": "address",
              "name": "_feeToSetter",
              "type": "address"
            }
          ],
          "stateMutability": "nonpayable",
          "type": "constructor"
        },
        {
          "anonymous": false,
          "inputs": [
            {
              "indexed": true,
              "internalType": "address",
              "name": "token0",
              "type": "address"
            },
            {
              "indexed": true,
              "internalType": "address",
              "name": "token1",
              "type": "address"
            },
            {
              "indexed": false,
              "internalType": "address",
              "name": "pair",
              "type": "address"
            },
            {
              "indexed": false,
              "internalType": "uint256",
              "name": "",
              "type": "uint256"
            }
          ],
          "name": "PairCreated",
          "type": "event"
        },
        {
          "inputs": [],
          "name": "INIT_CODE_PAIR_HASH",
          "outputs": [
            {
              "internalType": "bytes32",
              "name": "",
              "type": "bytes32"
            }
          ],
          "stateMutability": "view",
          "type": "function"
        },
        {
          "inputs": [
            {
              "internalType": "uint256",
              "name": "",
              "type": "uint256"
            }
          ],
          "name": "allPairs",
          "outputs": [
            {
              "internalType": "address",
              "name": "",
              "type": "address"
            }
          ],
          "stateMutability": "view",
          "type": "function"
        },
        {
          "inputs": [],
          "name": "allPairsLength",
          "outputs": [
            {
              "internalType": "uint256",
              "name": "",
              "type": "uint256"
            }
          ],
          "stateMutability": "view",
          "type": "function"
        },
        {
          "inputs": [
            {
              "internalType": "address",
              "name": "tokenA",
              "type": "address"
            },
            {
              "internalType": "address",
              "name": "tokenB",
              "type": "address"
            }
          ],
          "name": "createPair",
          "outputs": [
            {
              "internalType": "address",
              "name": "pair",
              "type": "address"
            }
          ],
          "stateMutability": "nonpayable",
          "type": "function"
        },
        {
          "inputs": [],
          "name": "feeTo",
          "outputs": [
            {
              "internalType": "address",
              "name": "",
              "type": "address"
            }
          ],
          "stateMutability": "view",
          "type": "function"
        },
        {
          "inputs": [],
          "name": "feeToSetter",
          "outputs": [
            {
              "internalType": "address",
              "name": "",
              "type": "address"
            }
          ],
          "stateMutability": "view",
          "type": "function"
        },
        {
          "inputs": [
            {
              "internalType": "address",
              "name": "",
              "type": "address"
            },
            {
              "internalType": "address",
              "name": "",
              "type": "address"
            }
          ],
          "name": "getPair",
          "outputs": [
            {
              "internalType": "address",
              "name": "",
              "type": "address"
            }
          ],
          "stateMutability": "view",
          "type": "function"
        },
        {
          "inputs": [],
          "name": "protocolFeeDenominator",
          "outputs": [
            {
              "internalType": "uint8",
              "name": "",
              "type": "uint8"
            }
          ],
          "stateMutability": "view",
          "type": "function"
        },
        {
          "inputs": [
            {
              "internalType": "address",
              "name": "_feeTo",
              "type": "address"
            }
          ],
          "name": "setFeeTo",
          "outputs": [],
          "stateMutability": "nonpayable",
          "type": "function"
        },
        {
          "inputs": [
            {
              "internalType": "address",
              "name": "_feeToSetter",
              "type": "address"
            }
          ],
          "name": "setFeeToSetter",
          "outputs": [],
          "stateMutability": "nonpayable",
          "type": "function"
        },
        {
          "inputs": [
            {
              "internalType": "uint8",
              "name": "_protocolFeeDenominator",
              "type": "uint8"
            }
          ],
          "name": "setProtocolFee",
          "outputs": [],
          "stateMutability": "nonpayable",
          "type": "function"
        },
        {
          "inputs": [
            {
              "internalType": "address",
              "name": "_pair",
              "type": "address"
            },
            {
              "internalType": "uint32",
              "name": "_swapFee",
              "type": "uint32"
            }
          ],
          "name": "setSwapFee",
          "outputs": [],
          "stateMutability": "nonpayable",
          "type": "function"
        }
      ],
      "evm": {
        "bytecode": {
          "object": "0c0000040004000000010000000000000000ffffffffffffffff0000000000000c000004000400000000ffffffffffffffffffffffffffffffff0000000000000e000000000200000001000000000000000000000000000000000000000000001a020004000800000002000000000000000000000000000000000000000000000c000010001000000001000000000000000001000000000000000000000000000c000010001000000000000000000000000000000000000000000000000000000c000020002000000001010000000000000000000000000000000000000000000c000020002000000000000000000000000000000000000000000000000000000c000004000400000001010000000000000000000000000000000000000000000c0000040004000000000000000000000000000000000000000000000000000004080010000000000000000000000000000000000000000000000000000000000a0000000000000000040e000c000000000000000000000000000000000000000c000004000400000001000000000000000000000000000000000000000000000c000004000400000000000000000000000000000000000000000000000000000c0000100010000000017c7ee91ae51bb0ed9b9e413333bf74f70000000000000c000010001000000000b75ee1170f6b7c3ce4583c65d82198c400000000000005100000004000000001000000000000000000000000000000000000000000000c000010001000000001010000000000000000000000000000000000000000000c0000100010000000000000000000000000000000000000000000000000000004400000000000000000000000000000000000000000000000000000000000000a000000000000000004170015000000000000000000000000000000000000000c000010001000000001000000000000000000000000000000000000000000000c0000100010000000000000000000000000000000000000000000000000000004400020000000000000000000000000000000000000000000000000000000000a00000000000000000419001f000000000000000000000000000000000000000c000020002000000001000000000000000000000000000000000000000000000c00002000200000000000000000000000000000000083bbcae30000000000000c000080008000000001000000000000000001000000000000000000000000000c0000800080000000000000000000000000000000000000000000000000000004080080000000000000000000000000000000000000000000000000000000000a00000000000000000427001f0000000000000000000000000000000000000004400000000000000000000000000000000000000000000000000000000000000a000000000000000004210031000000000000000000000000000000000000000c000020002000000001000000000000000000000000000000000000000000000c000020002000000000000000000000000000000000c9a6bc8e0000000000000c000008000800000001000000000000000001000000000000000000000000000c0000080008000000000000000000000000000000000000000000000000000004020008000000000000000000000000000000000000000000000000000000000a000000000000000002270031000000000000000000000000000000000000000c000002000200000001040000000000000000000000000000000000000000000c000002000200000000000000000000000000000000000000000000000000000e000002000000000000000000000000000000000000000000000000000000000e000020000000000000010000000000000000000000000000000000000000000c000002000200000001010000000000000000000000000000000000000000000c000002000200000000000000000000000000000000000000000000000000000e0000000004000000210300000000000000000000000000000000000000000004040002000000000000000000000000000000000000000000000000000000000a0000000000000000043000470000000000000000000000000000000000000007000000000000000000000000000000000000000000000000000000000000001a100004000200000002000000000000000000000000000000000000000000001a000002000200000002010000000000000000000000000000000000000000000c000004000400000001010000000000000000000000000000000000000000000c0000040004000000000000000000000000000000000000000000000000000004020004000000000000000000000000000000000000000000000000000000000a00000000000000000437003f0000000000000000000000000000000000000007000000000000000003480000000000000000000000000000000000000000000a000000000000000002410039000000000000000000000000000000000000000c0000020002000000017c7ee91ae51bb0ed9b9e413333bf74f70000000000000c000002000200000000b75ee1170f6b7c3ce4583c65d82198c40000000000000c000004000400000001010000000000000000000000000000000000000000000c0000040004000000000000000000000000000000000000000000000000000005020004000000000000000000000000000000000000000000000000000000000a0000000000000000013000300000000000000000000000000000000000000007000000000000000003950000000000000000000000000000000000000000000a000000000000000002410030000000000000000000000000000000000000000c000002000200000001010000000000000000000000000000000000000000000c000002000200000000000000000000000000000000000000000000000000000e0000000004000000210300000000000000000000000000000000000000000004040002000000000000000000000000000000000000000000000000000000000a00000000000000000430004600000000000000000000000000000000000000070000000000000000040000000000000000000000000000000000000000000007000000000000000004000000000000000000000000000000000000000000000c000002000200000001800000000000000000000000000000000000000000000c000002000200000000000000000000000000000000000000000000000000000e000002000000000020020000000000000000000000000000000000000000000e000000000400000001000000000000000000000000000000000000000000001a000004000200000002ffffffff000000000000000000000000000000000000020000020008000000001f0000000000000000000000000000000000000000001a000008000800000002e0ffffff01000000000000000000000000000000000002000008000800000000800000000000000000000000000000000000000000000e000008000000000020020000000000000000000000000000000000000000000c000010001000000001000000000000000000000000000000000000000000000c000010001000000000000000000000000000000000000000000000000000001a0000040008000000021f000000000000000000000000000000000000000000180000020020000000020500000000000000000000000000000000000000000004200000000000000000000000000000000000000000000000000000000000000a0000000000000000046000570000000000000000000000000000000000000018000010004000000000050000000000000000000000000000000000000000000c000080008000000001200000000000000000000000000000000000000000000c0000800080000000000000000000000000000000000000000000000000000008400080004000000000000000000000000000000000000000000000000000000e400000008000000001010000000000000000000000000000000000000000000e40008000000000002004000000000000000000000000000000000000000000020000100010000000000100000000000000000000000000000000000000000004100020000000000000000000000000000000000000000000000000000000000a0000000000000000025700600000000000000000000000000000000000000004080000000000000000000000000000000000000000000000000000000000000a000000000000000004740062000000000000000000000000000000000000001a000004000400000002e0ffffff0000000000000000000000000000000000000c000010001000000001200000000000000000000000000000000000000000000c00001000100000000000000000000000000000000000000000000000000000080400100004000000000000000000000000000000000000000000000000000018000008000800000000030000000000000000000000000000000000000000000c000010001000000001ffffffffffffffffffffffffffffffff0000000000000c000010001000000000ffffffffffffffffffffffffffffffff00000000000018080010002000000002000000000000000000000000000000000000000000000e040000004000000021040000000000000000000000000000000000000000001a400020002000000002000000000000000000000000000000000000000000000c000040004000000001000100000000000000000000000000000000000000000c00004000400000000000000000000000000000000000000000000000000000044000080008000000000000000000000000000000000000000000000000000018080010000800000000000000000000000000000000000000000000000000000e040000001000000001010000000000000000000000000000000000000000001a100008000800000002000000000000000000000000000000000000000000001a080020000800000004000000000000000000000000000000000000000000000e040008000000000020040000000000000000000000000000000000000000000c000004000400000001200000000000000000000000000000000000000000000c0000040004000000000000000000000000000000000000000000000000000004020004000000000000000000000000000000000000000000000000000000000a00000000000000000c780091000000000000000000000000000000000000000e000000000200000021040000000000000000000000000000000000000000000c000004000400000001ffffffffffffffffffffffffffffffff0000000000000c000004000400000000ffffffff00000000000000000000000000000000000004020004000000000000000000000000000000000000000000000000000000000a00000000000000000891007d000000000000000000000000000000000000000c000004000400000001010000000000000000000000000000000000000000000c0000040004000000000000000000000000000000000000000000000000000005040000000800000001000000000000000000000000000000000000000000000c000010001000000001ffffffffffffffffffffffffffffffff0000000000000c000010001000000000ffffffff00ffffffffffffffffffffff0000000000001a080010002000000002000000000000000000000000000000000000000000000c000010001000000001000000000000000000000000000000000000000000000c000010001000000000000000000900000000000000000000000000000000001a2000100020000000040000000000000000000000000000000000000000000005040020000000000000000000000000000000000000000000000000000000000c000020002000000001000000000000000000000000000000000000000000000c0000200020000000000000000000ffffffffffffffffffffff0000000000001a080020000800000002000000000000000000000000000000000000000000001a020008000200000004000000000000000000000000000000000000000000001a0200100002000000040000000000000000000000000000000000000000000005040002000000000000000000000000000000000000000000000000000000000c000002000200000001000000000000000000000000000000000000000000000c000002000200000000000000000000000000000000000000000000000000000e0000020000000000000000000000000000000000000000000000000000000007000000000000000000000000000000000000000000000000000000000000000c000002000200000001000000000000000000000000000000000000000000000c000002000200000000000000000000000000000000000000000000000000000e0000020000000000000000000000000000000000000000000000000000000007000000000000000004000000000000000000000000000000000000000000000e0000000000000000e0080000000000000000000000000000000000000000000c000002000200000001800000000000000000000000000000000000000000000c000002000200000000000000000000000000000000000000000000000000000e000002000000000020020000000000000000000000000000000000000000000e000000000200000001000000000000000000000000000000000000000000001a000002000800000002fcffffff00000000000000000000000000000000000004080000000000000000000000000000000000000000000000000000000000000a000000000000000004a3029d000000000000000000000000000000000000000c000004000400000001000000000000000000000000000000000000000000000c000004000400000000000000000000000000000000ffffffff0000000000000e000000001000000001010000000000000000000000000000000000000000001a100004000400000002000000000000000000000000000000000000000000000c000010001000000001000000000000000000000000000000000000000000000c000010001000000000000000000000000000000000587e7e0100000000000004040010000000000000000000000000000000000000000000000000000000000a000000000000000004a500bf000000000000000000000000000000000000000c000004000400000001000000000000000000000000000000000000000000000c0000040004000000000000000000000000000000000000000000000000000005040000000200000001000000000000000000000000000000000000000000000c000008000800000001ffffffffffffffffffffffffffffffff0000000000000c000008000800000000ffffffff0000000000000000000000000000000000001a020008000200000002000000000000000000000000000000000000000000000e000002000000000020040000000000000000000000000000000000000000000c000002000200000001200000000000000000000000000000000000000000000c000002000200000000000000000000000000000000000000000000000000000e000002000000000000000000000000000000000000000000000000000000000a000000000000000001b300b300000000000000000000000000000000000000020800000004000000000000000000000000000000000000000000000000000004100000000000000000000000000000000000000000000000000000000000000a00000000000000000ab3004901000000000000000000000000000000000000180000040008000000000500000000000000000000000000000000000000000008080002000800000000000000000000000000000000000000000000000000000e080000001000000021040000000000000000000000000000000000000000000e0800100000000000000100000000000000000000000000000000000000000002000004000800000000010000000000000000000000000000000000000000000c000010001000000001010000000000000000000000000000000000000000000c0000100010000000000000000000000000000000000000000000000000000004080004000000000000000000000000000000000000000000000000000000000a000000000000000002b000bc000000000000000000000000000000000000000c000010001000000001000000000000000000000000000000000000000000000c000010001000000000000000000000000000000000000000000000000000000a000000000000000001b000b0000000000000000000000000000000000000000c000010001000000001000000000000000000000000000000000000000000000c00001000100000000000000000000000000000000015744b0900000000000004040010000000000000000000000000000000000000000000000000000000000a000000000000000004c300df000000000000000000000000000000000000000c000002000200000001010000000000000000000000000000000000000000000c0000020002000000000000000000000000000000000000000000000000000005020000000200000001000000000000000000000000000000000000000000000c000004000400000001ffffffffffffffffffffffffffffffff0000000000000c000004000400000000ffffffff0000000000000000000000000000000000001a020004000200000002000000000000000000000000000000000000000000000e000002000000000020040000000000000000000000000000000000000000000c000002000200000001200000000000000000000000000000000000000000000c000002000200000000000000000000000000000000000000000000000000000e000002000000000000000000000000000000000000000000000000000000000c000004000400000001000000000000000000000000000000000000000000000c000004000400000000000000000000000000000000000000000000000000000a000000000000000001d300d300000000000000000000000000000000000000020800000004000000000000000000000000000000000000000000000000000004100000000000000000000000000000000000000000000000000000000000000a00000000000000000ad3004901000000000000000000000000000000000000180000040008000000000500000000000000000000000000000000000000000008080002000800000000000000000000000000000000000000000000000000000e080000001000000021040000000000000000000000000000000000000000000e0800100000000000000100000000000000000000000000000000000000000002000004000800000000010000000000000000000000000000000000000000000c000010001000000001010000000000000000000000000000000000000000000c0000100010000000000000000000000000000000000000000000000000000004080004000000000000000000000000000000000000000000000000000000000a000000000000000002d000dc000000000000000000000000000000000000000c000010001000000001000000000000000000000000000000000000000000000c000010001000000000000000000000000000000000000000000000000000000a000000000000000001d000d0000000000000000000000000000000000000000c000010001000000001000000000000000000000000000000000000000000000c0000100010000000000000000000000000000000008bd13d1e00000000000004040010000000000000000000000000000000000000000000000000000000000a000000000000000004e30016010000000000000000000000000000000000000c000002000200000001240000000000000000000000000000000000000000000c0000020002000000000000000000000000000000000000000000000000000004080002000000000000000000000000000000000000000000000000000000000a00000000000000000ce700a8020000000000000000000000000000000000000c000001000100000001240000000000000000000000000000000000000000000c0000010001000000000000000000000000000000000000000000000000000007000000000000000003590a00000000000000000000000000000000000000000c000002000200000001030000000000000000000000000000000000000000000c00000200020000000000000000000000000000000000000000000000000000050200000004000000010000000000000000000000000000000000000000000004040001000000000000000000000000000000000000000000000000000000000a000000000000000008ef00ac020000000000000000000000000000000000000e000002000000000020000000000000000000000000000000000000000000000c0000020002000000015bf8716f4416255ed002053b5a39c3690000000000000c00000200020000000028db122fc9f859f9003c599e0e5a57c2000000000000020100020002000000000000000000000000000000000000000000000000000005020000000200000001000000000000000000000000000000000000000000000c000004000400000001ffffffffffffffffffffffffffffffff0000000000000c000004000400000000ffffffff0000000000000000000000000000000000001a020004000100000002000000000000000000000000000000000000000000000e000000000200000021020000000000000000000000000000000000000000000e0000020000000000600100000000000000000000000000000000000000000007000000000000000003810a00000000000000000000000000000000000000000c000002000200000001200000000000000000000000000000000000000000000c000002000200000000000000000000000000000000000000000000000000000e000002000000000000000000000000000000000000000000000000000000000c000002000200000001000000000000000000000000000000000000000000000c000002000200000000000000000000000000000000000000000000000000000a0000000000000000010201020100000000000000000000000000000000000004040000000000000000000000000000000000000000000000000000000000000a00000000000000000a020149010000000000000000000000000000000000000e0000020000000000600300000000000000000000000000000000000000000018000002000400000000050000000000000000000000000000000000000000000e000004000000000060020000000000000000000000000000000000000000000e00000000020000006101000000000000000000000000000000000000000000020200040001000000000000000000000000000000000000000000000000000007000000000000000003450a00000000000000000000000000000000000000000c000002000200000001200000000000000000000000000000000000000000000c000002000200000000000000000000000000000000000000000000000000000e0000000004000000610200000000000000000000000000000000000000000008040002000200000000000000000000000000000000000000000000000000000e020001000000000000010000000000000000000000000000000000000000000e0000000008000000610300000000000000000000000000000000000000000002000008000200000000010000000000000000000000000000000000000000000c000004000400000001010000000000000000000000000000000000000000000c0000040004000000000000000000000000000000000000000000000000000004020008000000000000000000000000000000000000000000000000000000000a000000000000000002000113010000000000000000000000000000000000000c000004000400000001000000000000000000000000000000000000000000000c000004000400000000000000000000000000000000000000000000000000000a000000000000000001000100010000000000000000000000000000000000000c000010001000000001000000000000000000000000000000000000000000000c0000100010000000000000000000000000000000002a04f72f00000000000004040010000000000000000000000000000000000000000000000000000000000a0000000000000000041a0135010000000000000000000000000000000000000c000002000200000001010000000000000000000000000000000000000000000c00000200020000000000000000000000000000000000000000000000000000050200000002000000010000000000000000000000000000000000000000000018000002000200000002a00000000000000000000000000000000000000000001a000002000200000002ff0000000000000000000000000000000000000000000e000002000000000020040000000000000000000000000000000000000000000c000002000200000001200000000000000000000000000000000000000000000c000002000200000000000000000000000000000000000000000000000000000e000002000000000000000000000000000000000000000000000000000000000c000004000400000001000000000000000000000000000000000000000000000c000004000400000000000000000000000000000000000000000000000000000a00000000000000000129012901000000000000000000000000000000000000020800000004000000000000000000000000000000000000000000000000000004100000000000000000000000000000000000000000000000000000000000000a00000000000000000a29014901000000000000000000000000000000000000180000040008000000000500000000000000000000000000000000000000000008080002000800000000000000000000000000000000000000000000000000000e080000001000000021040000000000000000000000000000000000000000000e0800100000000000000100000000000000000000000000000000000000000002000004000800000000010000000000000000000000000000000000000000000c000010001000000001010000000000000000000000000000000000000000000c0000100010000000000000000000000000000000000000000000000000000004080004000000000000000000000000000000000000000000000000000000000a000000000000000002260132010000000000000000000000000000000000000c000010001000000001000000000000000000000000000000000000000000000c000010001000000000000000000000000000000000000000000000000000000a000000000000000001260126010000000000000000000000000000000000000c000010001000000001000000000000000000000000000000000000000000000c00001000100000000000000000000000000000000011f8914e00000000000004040010000000000000000000000000000000000000000000000000000000000a00000000000000000439014b010000000000000000000000000000000000000c000002000200000001240000000000000000000000000000000000000000000c0000020002000000000000000000000000000000000000000000000000000004080002000000000000000000000000000000000000000000000000000000000a00000000000000000c3d01b0020000000000000000000000000000000000000c000001000100000001240000000000000000000000000000000000000000000c0000010001000000000000000000000000000000000000000000000000000007000000000000000003590a00000000000000000000000000000000000000000c000002000200000001ff0000000000000000000000000000000000000000000c0000020002000000000000000000000000000000000000000000000000000004010002000000000000000000000000000000000000000000000000000000000a000000000000000008b002440100000000000000000000000000000000000007000000000000000003e00800000000000000000000000000000000000000000a000000000000000002b30246010000000000000000000000000000000000000c000002000200000001000000000000000000000000000000000000000000000c000002000200000000000000000000000000000000000000000000000000000e000002000000000000000000000000000000000000000000000000000000000e0000000000000000e10800000000000000000000000000000000000000000007000000000000000000000000000000000000000000000000000000000000000c000008000800000001000000000000000000000000000000000000000000000c000008000800000000000000000000000000000000a32b4f5700000000000004040008000000000000000000000000000000000000000000000000000000000a0000000000000000044f0168010000000000000000000000000000000000000c000002000200000001030000000000000000000000000000000000000000000c0000020002000000000000000000000000000000000000000000000000000005020000000200000001000000000000000000000000000000000000000000000e000002000000000020040000000000000000000000000000000000000000000c000002000200000001200000000000000000000000000000000000000000000c000002000200000000000000000000000000000000000000000000000000000e000002000000000000000000000000000000000000000000000000000000000c000004000400000001000000000000000000000000000000000000000000000c000004000400000000000000000000000000000000000000000000000000000a0000000000000000015c015c01000000000000000000000000000000000000020800000004000000000000000000000000000000000000000000000000000004100000000000000000000000000000000000000000000000000000000000000a00000000000000000a5c014901000000000000000000000000000000000000180000040008000000000500000000000000000000000000000000000000000008080002000800000000000000000000000000000000000000000000000000000e080000001000000021040000000000000000000000000000000000000000000e0800100000000000000100000000000000000000000000000000000000000002000004000800000000010000000000000000000000000000000000000000000c000010001000000001010000000000000000000000000000000000000000000c0000100010000000000000000000000000000000000000000000000000000004080004000000000000000000000000000000000000000000000000000000000a000000000000000002590165010000000000000000000000000000000000000c000010001000000001000000000000000000000000000000000000000000000c000010001000000000000000000000000000000000000000000000000000000a000000000000000001590159010000000000000000000000000000000000000c000008000800000001000000000000000000000000000000000000000000000c0000080008000000000000000000000000000000005aa2555800000000000004040008000000000000000000000000000000000000000000000000000000000a0000000000000000046c018d0100000000000000000000000000000000000007000000000000000003b50200000000000000000000000000000000000000000a000000000000000002b3026e010000000000000000000000000000000000000e000000000200000021020000000000000000000000000000000000000000000e0000020000000000600100000000000000000000000000000000000000000007000000000000000003810a00000000000000000000000000000000000000000c000002000200000001200000000000000000000000000000000000000000000c000002000200000000000000000000000000000000000000000000000000000e000002000000000000000000000000000000000000000000000000000000000c000002000200000001000000000000000000000000000000000000000000000c000002000200000000000000000000000000000000000000000000000000000a0000000000000000017901790100000000000000000000000000000000000004040000000000000000000000000000000000000000000000000000000000000a00000000000000000a790149010000000000000000000000000000000000000e0000020000000000600300000000000000000000000000000000000000000018000002000400000000050000000000000000000000000000000000000000000e000004000000000060020000000000000000000000000000000000000000000e00000000020000006101000000000000000000000000000000000000000000020200040001000000000000000000000000000000000000000000000000000007000000000000000003450a00000000000000000000000000000000000000000c000002000200000001200000000000000000000000000000000000000000000c000002000200000000000000000000000000000000000000000000000000000e0000000004000000610200000000000000000000000000000000000000000008040002000200000000000000000000000000000000000000000000000000000e020001000000000000010000000000000000000000000000000000000000000e0000000008000000610300000000000000000000000000000000000000000002000008000200000000010000000000000000000000000000000000000000000c000004000400000001010000000000000000000000000000000000000000000c0000040004000000000000000000000000000000000000000000000000000004020008000000000000000000000000000000000000000000000000000000000a00000000000000000277018a010000000000000000000000000000000000000c000004000400000001000000000000000000000000000000000000000000000c000004000400000000000000000000000000000000000000000000000000000a000000000000000001770177010000000000000000000000000000000000001a000002000200000002ffffffff0000000000000000000000000000000000000c000008000800000001000000000000000000000000000000000000000000000c000008000800000000000000000000000000000000b8ce689e00000000000004040008000000000000000000000000000000000000000000000000000000000a0000000000000000049201aa010000000000000000000000000000000000000c000004000400000001000000000000000000000000000000000000000000000c000004000400000000000000000000000000000000000000000000000000000e000004000000000060090000000000000000000000000000000000000000000e000004000000000060080000000000000000000000000000000000000000000c000000000400000001e00000000000000000000000000000000000000000000e00000400000000006003000000000000000000000000000000000000000000020400000001000000000000000000000000000000000000000000000000000007000000000000000003a20300000000000000000000000000000000000000000a0000000000000000029b019c010000000000000000000000000000000000000a000000000000000001b302b3020000000000000000000000000000000000000e0000000002000000610300000000000000000000000000000000000000000002000002000200000000200000000000000000000000000000000000000000000c000004000400000001200000000000000000000000000000000000000000000c0000040004000000000000000000000000000000000000000000000000000008020004000200000000000000000000000000000000000000000000000000000e020000000200000061010000000000000000000000000000000000000000000e00000000010000006108000000000000000000000000000000000000000000070000000000000000033d0900000000000000000000000000000000000000000a000000000000000002a501a6010000000000000000000000000000000000000a000000000000000001b302b3020000000000000000000000000000000000000c000002000200000001000000000000000000000000000000000000000000000c000002000200000000000000000000000000000000000000000000000000000e000002000000000000000000000000000000000000000000000000000000000a000000000000000001490149010000000000000000000000000000000000000c000008000800000001000000000000000000000000000000000000000000000c000008000800000000000000000000000000000000f64ae7a200000000000004040008000000000000000000000000000000000000000000000000000000000a000000000000000004ae01d501000000000000000000000000000000000000020200000001000000000000000000000000000000000000000000000000000007000000000000000003dd0300000000000000000000000000000000000000000a000000000000000002b101b30100000000000000000000000000000000000002010000000200000000000000000000000000000000000000000000000000000a000000000000000001b302b30200000000000000000000000000000000000002010000000200000000000000000000000000000000000000000000000000000e000002000000000060030000000000000000000000000000000000000000000c000002000200000001010000000000000000000000000000000000000000000c0000020002000000000000000000000000000000000000000000000000000005020000000800000001000000000000000000000000000000000000000000000c000004000400000001ffffffffffffffffffffffffffffffff0000000000000c000004000400000000ffffffff0000000000000000000000000000000000000e000008000000000060020000000000000000000000000000000000000000001a08000400040000000200000000000000000000000000000000000000000000140000000008000000000000000000000000000000000000000000000000000004080004000000000000000000000000000000000000000000000000000000000a000000000000000004c101bf010000000000000000000000000000000000000c000002000200000001000000000000000000000000000000000000000000000c000002000200000000000000000000000000000000000000000000000000001a0000020001000000020100000000000000000000000000000000000000000007000000000000000003a30800000000000000000000000000000000000000000a000000000000000002c401c5010000000000000000000000000000000000000a000000000000000001b302b3020000000000000000000000000000000000000c000002000200000001ffffffffffffffffffffffffffffffff0000000000000c000002000200000000ffffffff0000000000000000000000000000000000000e000000000400000061030000000000000000000000000000000000000000001a040002000200000002000000000000000000000000000000000000000000000c000004000400000001000000000000000000000000000000000000000000000c00000400040000000000000000ffffffffffffffffffffffff0000000000000e000000000800000061020000000000000000000000000000000000000000001a080004000400000002000000000000000000000000000000000000000000001a040002000200000004000000000000000000000000000000000000000000000c000004000400000001010000000000000000000000000000000000000000000c0000040004000000000000000000000000000000000000000000000000000005040002000000000000000000000000000000000000000000000000000000000c000002000200000001000000000000000000000000000000000000000000000c000002000200000000000000000000000000000000000000000000000000000e000002000000000000000000000000000000000000000000000000000000000a000000000000000001490149010000000000000000000000000000000000000c000008000800000001000000000000000000000000000000000000000000000c0000080008000000000000000000000000000000009653c6c900000000000004040008000000000000000000000000000000000000000000000000000000000a000000000000000004d9010f020000000000000000000000000000000000000c000004000400000001000000000000000000000000000000000000000000000c000004000400000000000000000000000000000000000000000000000000000e000004000000000060070000000000000000000000000000000000000000000e000004000000000060060000000000000000000000000000000000000000000c000000000400000001a00000000000000000000000000000000000000000000e00000400000000006003000000000000000000000000000000000000000000020400000001000000000000000000000000000000000000000000000000000007000000000000000003020400000000000000000000000000000000000000000a000000000000000002e201e3010000000000000000000000000000000000000a000000000000000001b302b3020000000000000000000000000000000000000e0000000002000000610300000000000000000000000000000000000000000002000002000200000000200000000000000000000000000000000000000000000c000004000400000001200000000000000000000000000000000000000000000c0000040004000000000000000000000000000000000000000000000000000008020004000200000000000000000000000000000000000000000000000000000e020000000200000061010000000000000000000000000000000000000000000e0000000001000000610600000000000000000000000000000000000000000007000000000000000003f90400000000000000000000000000000000000000000a000000000000000002ec01ed010000000000000000000000000000000000000a000000000000000001b302b3020000000000000000000000000000000000000c000002000200000001ffffffffffffffffffffffffffffffff0000000000000c000002000200000000ffffffff0000000000000000000000000000000000001a010002000100000002000000000000000000000000000000000000000000000e000000000200000021020000000000000000000000000000000000000000000e0000020000000000600100000000000000000000000000000000000000000007000000000000000003810a00000000000000000000000000000000000000000c000002000200000001200000000000000000000000000000000000000000000c000002000200000000000000000000000000000000000000000000000000000e000002000000000000000000000000000000000000000000000000000000000c000002000200000001000000000000000000000000000000000000000000000c000002000200000000000000000000000000000000000000000000000000000a000000000000000001fb01fb0100000000000000000000000000000000000004040000000000000000000000000000000000000000000000000000000000000a00000000000000000afb0149010000000000000000000000000000000000000e0000020000000000600300000000000000000000000000000000000000000018000002000400000000050000000000000000000000000000000000000000000e000004000000000060020000000000000000000000000000000000000000000e00000000020000006101000000000000000000000000000000000000000000020200040001000000000000000000000000000000000000000000000000000007000000000000000003450a00000000000000000000000000000000000000000c000002000200000001200000000000000000000000000000000000000000000c000002000200000000000000000000000000000000000000000000000000000e0000000004000000610200000000000000000000000000000000000000000008040002000200000000000000000000000000000000000000000000000000000e020001000000000000010000000000000000000000000000000000000000000e0000000008000000610300000000000000000000000000000000000000000002000008000200000000010000000000000000000000000000000000000000000c000004000400000001010000000000000000000000000000000000000000000c0000040004000000000000000000000000000000000000000000000000000004020008000000000000000000000000000000000000000000000000000000000a000000000000000002f9010c020000000000000000000000000000000000000c000004000400000001000000000000000000000000000000000000000000000c000004000400000000000000000000000000000000000000000000000000000a000000000000000001f901f9010000000000000000000000000000000000000c000008000800000001000000000000000000000000000000000000000000000c0000080008000000000000000000000000000000000539a4e600000000000004040008000000000000000000000000000000000000000000000000000000000a00000000000000000413027b020000000000000000000000000000000000000c000004000400000001000000000000000000000000000000000000000000000c000004000400000000000000000000000000000000000000000000000000000e000004000000000060050000000000000000000000000000000000000000000e000004000000000060040000000000000000000000000000000000000000000c000000000400000001600000000000000000000000000000000000000000000e00000400000000006003000000000000000000000000000000000000000000020400000001000000000000000000000000000000000000000000000000000007000000000000000003020400000000000000000000000000000000000000000a0000000000000000021c021d020000000000000000000000000000000000000a000000000000000001b302b3020000000000000000000000000000000000000e0000000002000000610300000000000000000000000000000000000000000002000002000400000000200000000000000000000000000000000000000000000c000002000200000001ffffffffffffffffffffffffffffffff0000000000000c000002000200000000ffffffff0000000000000000000000000000000000000e000000000800000061040000000000000000000000000000000000000000001a080002000800000002000000000000000000000000000000000000000000000c000002000200000001200000000000000000000000000000000000000000000c0000020002000000000000000000000000000000000000000000000000000008040002000400000000000000000000000000000000000000000000000000000e040000000400000061010000000000000000000000000000000000000000000e000004000000000060030000000000000000000000000000000000000000000e000008000000000020000000000000000000000000000000000000000000000c000004000400000001020000000000000000000000000000000000000000000c000004000400000000000000000000000000000000000000000000000000000e0000040000000000200100000000000000000000000000000000000000000010000000000000000000000000000000000000000000000000000000000000000c000008000800000001400000000000000000000000000000000000000000000c000008000800000000000000000000000000000000000000000000000000000e000008000000000040000000000000000000000000000000000000000000000c000020002000000001000000000000000000000000000000000000000000000c00002000200000000000000000000000000000000000000000000000000000180000200008000000000500000000000000000000000000000000000000000008080002000800000000000000000000000000000000000000000000000000000e080000001000000021000000000000000000000000000000000000000000000e08001000000000004001000000000000000000000000000000000000000000020000200020000000000100000000000000000000000000000000000000000004200004000000000000000000000000000000000000000000000000000000000a000000000000000002320239020000000000000000000000000000000000000c00000100010000000100000000ff03000000000000000000000000000000000c0000010001000000000000000000000000000000000000000000000000000007000000000000000003bf0a00000000000000000000000000000000000000000c000002000200000001ffffffffffffffffffffffffffffffff0000000000000c000002000200000000ffffffff0000000000000000000000000000000000000e000000000400000061030000000000000000000000000000000000000000001a040002000200000002000000000000000000000000000000000000000000000e000000000400000041010000000000000000000000000000000000000000000e000002000000000020000000000000000000000000000000000000000000000e0000040000000000200100000000000000000000000000000000000000000010000000000000000000000000000000000000000000000000000000000000000c000002000200000001400000000000000000000000000000000000000000000c000002000200000000000000000000000000000000000000000000000000000e000002000000000040000000000000000000000000000000000000000000000c000002000200000001000000000000000000000000000000000000000000000c000002000200000000000000000000000000000000000000000000000000000c000004000400000001200000000000000000000000000000000000000000000c000004000400000000000000000000000000000000000000000000000000000c000008000800000001020000000000000000000000000000000000000000000c00000800080000000000000000000000000000000000000000000000000000180000020010000000000500000000000000000000000000000000000000000008100004001000000000000000000000000000000000000000000000000000000e100000002000000021000000000000000000000000000000000000000000000e10002000000000004001000000000000000000000000000000000000000000020000020002000000000100000000000000000000000000000000000000000004020008000000000000000000000000000000000000000000000000000000000a0000000000000000024d0254020000000000000000000000000000000000000c00000100010000000100000000ff03000000000000000000000000000000000c0000010001000000000000000000000000000000000000000000000000000007000000000000000003bf0a00000000000000000000000000000000000000000e0000000002000000410100000000000000000000000000000000000000000005020000000200000001000000000000000000000000000000000000000000000c000004000400000001ffffffffffffffffffffffffffffffff0000000000000c000004000400000000ffffffff0000000000000000000000000000000000001a020004000100000002000000000000000000000000000000000000000000000e000000000200000021020000000000000000000000000000000000000000000e0000020000000000600100000000000000000000000000000000000000000007000000000000000003810a00000000000000000000000000000000000000000c000002000200000001200000000000000000000000000000000000000000000c000002000200000000000000000000000000000000000000000000000000000e000002000000000000000000000000000000000000000000000000000000000c000002000200000001000000000000000000000000000000000000000000000c000002000200000000000000000000000000000000000000000000000000000a0000000000000000016702670200000000000000000000000000000000000004040000000000000000000000000000000000000000000000000000000000000a00000000000000000a670249010000000000000000000000000000000000000e0000020000000000600300000000000000000000000000000000000000000018000002000400000000050000000000000000000000000000000000000000000e000004000000000060020000000000000000000000000000000000000000000e00000000020000006101000000000000000000000000000000000000000000020200040001000000000000000000000000000000000000000000000000000007000000000000000003450a00000000000000000000000000000000000000000c000002000200000001200000000000000000000000000000000000000000000c000002000200000000000000000000000000000000000000000000000000000e0000000004000000610200000000000000000000000000000000000000000008040002000200000000000000000000000000000000000000000000000000000e020001000000000000010000000000000000000000000000000000000000000e0000000008000000610300000000000000000000000000000000000000000002000008000200000000010000000000000000000000000000000000000000000c000004000400000001010000000000000000000000000000000000000000000c0000040004000000000000000000000000000000000000000000000000000004020008000000000000000000000000000000000000000000000000000000000a000000000000000002650278020000000000000000000000000000000000000c000004000400000001000000000000000000000000000000000000000000000c000004000400000000000000000000000000000000000000000000000000000a000000000000000001650265020000000000000000000000000000000000000c000008000800000001000000000000000000000000000000000000000000000c000008000800000000000000000000000000000000ed0169f400000000000004040008000000000000000000000000000000000000000000000000000000000a0000000000000000047f02a302000000000000000000000000000000000000020200000001000000000000000000000000000000000000000000000000000007000000000000000003dd0300000000000000000000000000000000000000000a0000000000000000028202840200000000000000000000000000000000000002010000000200000000000000000000000000000000000000000000000000000a000000000000000001b302b30200000000000000000000000000000000000002010000000200000000000000000000000000000000000000000000000000000e000002000000000060030000000000000000000000000000000000000000000c000002000200000001010000000000000000000000000000000000000000000c0000020002000000000000000000000000000000000000000000000000000005020000000400000001000000000000000000000000000000000000000000000c000008000800000001ffffffffffffffffffffffffffffffff0000000000000c000008000800000000ffffffff0000000000000000000000000000000000001a04000800040000000200000000000000000000000000000000000000000000140000000008000000000000000000000000000000000000000000000000000004080004000000000000000000000000000000000000000000000000000000000a00000000000000000491028f020000000000000000000000000000000000000c000002000200000001000000000000000000000000000000000000000000000c000002000200000000000000000000000000000000000000000000000000001a0000020001000000020100000000000000000000000000000000000000000007000000000000000003a30800000000000000000000000000000000000000000a000000000000000002940295020000000000000000000000000000000000000a000000000000000001b302b3020000000000000000000000000000000000000c000002000200000001ffffffffffffffffffffffffffffffff0000000000000c000002000200000000ffffffff0000000000000000000000000000000000000e000000000400000061030000000000000000000000000000000000000000001a040002000400000002000000000000000000000000000000000000000000000c000002000200000001000000000000000000000000000000000000000000000c0000020002000000000000000000000000000000000000000000000000000005020000000800000001000000000000000000000000000000000000000000000c000010001000000001000000000000000000000000000000000000000000000c00001000100000000000000000ffffffffffffffffffffffff0000000000001a080010000800000002000000000000000000000000000000000000000000001a0800040004000000040000000000000000000000000000000000000000000005020004000000000000000000000000000000000000000000000000000000000e000002000000000000000000000000000000000000000000000000000000000a000000000000000001490149010000000000000000000000000000000000000c000002000200000001000000000000000000000000000000000000000000000c000002000200000000000000000000000000000000000000000000000000000e000002000000000000000000000000000000000000000000000000000000000e0000000000000000e10800000000000000000000000000000000000000000007000000000000000004000000000000000000000000000000000000000000000c000002000200000001000000000000000000000000000000000000000000000c000002000200000000000000000000000000000000000000000000000000000e000002000000000000000000000000000000000000000000000000000000000a000000000000000001b302b3020000000000000000000000000000000000000c000002000200000001000000000000000000000000000000000000000000000c000002000200000000000000000000000000000000000000000000000000000e000002000000000000000000000000000000000000000000000000000000000a000000000000000001b302b3020000000000000000000000000000000000000c000002000200000001000000000000000000000000000000000000000000000c000002000200000000000000000000000000000000000000000000000000000e000002000000000000000000000000000000000000000000000000000000000e0000000000000000e10800000000000000000000000000000000000000000007000000000000000004000000000000000000000000000000000000000000000e0000000000000000e0050000000000000000000000000000000000000000000e000000000400000021020000000000000000000000000000000000000000000c000002000200000001bfffffffffffffffffffffffffffffff0000000000000c000002000200000000ffffffffffffffffffffffffffffffff0000000000000e0000040000000000600300000000000000000000000000000000000000000004040002000000000000000000000000000000000000000000000000000000000a0000000000000000084d03bc020000000000000000000000000000000000000e0000000002000000610300000000000000000000000000000000000000000002000002000200000000400000000000000000000000000000000000000000000c000004000400000001ffffffffffffffff00000000000000000000000000000c0000040004000000000000000000000000000000000000000000000000000004020004000000000000000000000000000000000000000000000000000000000a0000000000000000084d03c2020000000000000000000000000000000000000e000002000000000020020000000000000000000000000000000000000000000c000001000100000001200000000000000000000000000000000000000000000c000001000100000000000000000000000000000000000000000000000000000e0000000002000000610300000000000000000000000000000000000000000007000000000000000003810a00000000000000000000000000000000000000000e0000000002000000610300000000000000000000000000000000000000000002000002000200000000200000000000000000000000000000000000000000000c000001000100000001048dcbea7a3e6e123c8150f52b08d82a0000000000000c000001000100000000e252e879765398c2cfdf26cd93837aca00000000000007000000000000000003810a00000000000000000000000000000000000000000e000000000200000021020000000000000000000000000000000000000000000e000002000000000060010000000000000000000000000000000000000000000e0000000001000000610300000000000000000000000000000000000000000007000000000000000003450a00000000000000000000000000000000000000000c000004000400000001000000000000000000000000000000000000000000000c000004000400000000000000000000000000000000000000000000000000000e0000000002000000610100000000000000000000000000000000000000000002000002000200000000200000000000000000000000000000000000000000000e0000020000000000600600000000000000000000000000000000000000000002010000000200000000000000000000000000000000000000000000000000000e0000020000000000600200000000000000000000000000000000000000000004020000000000000000000000000000000000000000000000000000000000000a000000000000000004f102d9020000000000000000000000000000000000000e0000040000000000600400000000000000000000000000000000000000000002000004000800000000200000000000000000000000000000000000000000000e000008000000000060050000000000000000000000000000000000000000000e00000000020000006103000000000000000000000000000000000000000000020800020001000000000000000000000000000000000000000000000000000007000000000000000003450a00000000000000000000000000000000000000000e000000000200000061060000000000000000000000000000000000000000000e00000000040000006104000000000000000000000000000000000000000000020200040002000000000000000000000000000000000000000000000000000007000000000000000003810a00000000000000000000000000000000000000000e0000000008000000610500000000000000000000000000000000000000000002080000000400000000000000000000000000000000000000000000000000000e0000000002000000610200000000000000000000000000000000000000000004080002000000000000000000000000000000000000000000000000000000000a000000000000000002d902e8020000000000000000000000000000000000000e0000000002000000610200000000000000000000000000000000000000000004080002000000000000000000000000000000000000000000000000000000000a000000000000000006f102eb020000000000000000000000000000000000000e000000000200000061020000000000000000000000000000000000000000000e0000000004000000610600000000000000000000000000000000000000000002040002000200000000000000000000000000000000000000000000000000000c000001000100000001000000000000000000000000000000000000000000000c0000010001000000000000000000000000000000000000000000000000000007000000000000000003810a00000000000000000000000000000000000000000e000000000200000061060000000000000000000000000000000000000000000e00000000080000006102000000000000000000000000000000000000000000020000080002000000003f0000000000000000000000000000000000000000000c000004000400000001e0ffffffffffffffffffffffffffffff0000000000000c000004000400000000ffffffffffffffffffffffffffffffff0000000000001a020004000200000002000000000000000000000000000000000000000000000e0000020000000000600500000000000000000000000000000000000000000002080000000100000000000000000000000000000000000000000000000000000e0000000002000000610100000000000000000000000000000000000000000007000000000000000003810a00000000000000000000000000000000000000000e000000000800000061050000000000000000000000000000000000000000000e0000000002000000610100000000000000000000000000000000000000000002080002000200000000000000000000000000000000000000000000000000000c000004000400000001010000000000000000000000000000000000000000000c0000040004000000000000000000000000000000000000000000000000000004020008000000000000000000000000000000000000000000000000000000000a000000000000000002040302030000000000000000000000000000000000000c000004000400000001000000000000000000000000000000000000000000000c000004000400000000000000000000000000000000000000000000000000000c000008000800000001ffffffffffffffff00000000000000000000000000000c0000080008000000000000000000000000000000000000000000000000000004020008000000000000000000000000000000000000000000000000000000000a0000000000000000087703080300000000000000000000000000000000000004040000000000000000000000000000000000000000000000000000000000000a00000000000000000a77030a030000000000000000000000000000000000000e000002000000000020020000000000000000000000000000000000000000000e0000000001000000610100000000000000000000000000000000000000000007000000000000000003450a00000000000000000000000000000000000000000c000008000800000001000000000000000000000000000000000000000000000c0000080008000000000000000000000000000000000000000000000000000002010000000400000000000000000000000000000000000000000000000000001a0000040002000000021f0000000000000000000000000000000000000000000e0000020000000000600200000000000000000000000000000000000000000010000000000000000000000000000000000000000000000000000000000000000e000004000000000040000000000000000000000000000000000000000000000e0000040000000000600100000000000000000000000000000000000000000018000004000200000002050000000000000000000000000000000000000000000e000000000400000061060000000000000000000000000000000000000000000e0000020000000000600300000000000000000000000000000000000000000004020000000000000000000000000000000000000000000000000000000000000a0000000000000000042a031a030000000000000000000000000000000000000e0000080000000000600500000000000000000000000000000000000000000018000008000400000000050000000000000000000000000000000000000000000e000004000000000060040000000000000000000000000000000000000000000e00000000020000006106000000000000000000000000000000000000000000020200040001000000000000000000000000000000000000000000000000000007000000000000000003450a00000000000000000000000000000000000000000e000000000800000061050000000000000000000000000000000000000000000c000002000200000001200000000000000000000000000000000000000000000c000002000200000000000000000000000000000000000000000000000000000e0000000004000000610400000000000000000000000000000000000000000008040002000200000000000000000000000000000000000000000000000000000e0200010000000000400100000000000000000000000000000000000000000002000008000800000000010000000000000000000000000000000000000000000e0000000002000000610300000000000000000000000000000000000000000004080002000000000000000000000000000000000000000000000000000000000a0000000000000000021a032a030000000000000000000000000000000000000e000000000400000061060000000000000000000000000000000000000000000e0000000002000000610200000000000000000000000000000000000000000004020000000000000000000000000000000000000000000000000000000000000a00000000000000000447032e030000000000000000000000000000000000000c000002000200000001e0ffffffffffffffffffffffffffffff0000000000000c000002000200000000ffffffffffffffffffffffffffffffff0000000000000e000000000800000061010000000000000000000000000000000000000000001a080002000200000002000000000000000000000000000000000000000000000e00000200000000006005000000000000000000000000000000000000000000020400020001000000000000000000000000000000000000000000000000000007000000000000000003450a00000000000000000000000000000000000000000c000002000200000001200000000000000000000000000000000000000000000c000002000200000000000000000000000000000000000000000000000000000e0000000004000000610500000000000000000000000000000000000000000008040002000200000000000000000000000000000000000000000000000000000e0000000004000000610200000000000000000000000000000000000000000018000004000400000000030000000000000000000000000000000000000000000c000008000800000001ffffffffffffffffffffffffffffffff0000000000000c000008000800000000ffffffffffffffffffffffffffffffff00000000000018040008001000000002000000000000000000000000000000000000000000000e020000002000000041010000000000000000000000000000000000000000001a200010001000000002000000000000000000000000000000000000000000000c000020002000000001000100000000000000000000000000000000000000000c00002000200000000000000000000000000000000000000000000000000000042000040004000000000000000000000000000000000000000000000000000018040008000400000000000000000000000000000000000000000000000000001a010004000400000002000000000000000000000000000000000000000000001a040010000400000004000000000000000000000000000000000000000000000e020004000000000040010000000000000000000000000000000000000000000c00000100010000000100000000ff03000000000000000000000000000000000c0000010001000000000000000000000000000000000000000000000000000007000000000000000003bf0a00000000000000000000000000000000000000000e000000000100000041010000000000000000000000000000000000000000000e0000000000000000e10500000000000000000000000000000000000000000007000000000000000000000000000000000000000000000000000000000000000c000002000200000001000000000000000000000000000000000000000000000c000002000200000000000000000000000000000000717b484e0000000000000e000002000000000020000000000000000000000000000000000000000000000c000001000100000001410000000000000000000000000000000000000000000c000001000100000000000000000000000000000000000000000000000000000c000002000200000001040000000000000000000000000000000000000000000c0000020002000000000000000000000000000000000000000000000000000007000000000000000003810a00000000000000000000000000000000000000000c000002000200000001240000000000000000000000000000000000000000000c000002000200000000000000000000000000000000000000000000000000000e000002000000000000000000000000000000000000000000000000000000000c000004000400000001000000000000000000000000000000000000000000000c000004000400000000000000000000000000000000000000000000000000000c000002000200000001200000000000000000000000000000000000000000000c000002000200000000000000000000000000000000000000000000000000000a00000000000000000160036003000000000000000000000000000000000000020800000004000000000000000000000000000000000000000000000000000004100000000000000000000000000000000000000000000000000000000000000a00000000000000000a60036c03000000000000000000000000000000000000180000040008000000000500000000000000000000000000000000000000000008080002000800000000000000000000000000000000000000000000000000000e080000001000000021000000000000000000000000000000000000000000000e0800100000000000000100000000000000000000000000000000000000000002000004000800000000010000000000000000000000000000000000000000000c000010001000000001010000000000000000000000000000000000000000000c0000100010000000000000000000000000000000000000000000000000000004080004000000000000000000000000000000000000000000000000000000000a0000000000000000025d0369030000000000000000000000000000000000000c000010001000000001000000000000000000000000000000000000000000000c000010001000000000000000000000000000000000000000000000000000000a0000000000000000015d035d030000000000000000000000000000000000000c000002000200000001ffffffffffffffffffffffffffffffff0000000000000c000002000200000000ffffffffffffffffffffffff000000000000000000000e000000000400000001020000000000000000000000000000000000000000001a040002000200000002000000000000000000000000000000000000000000000c000004000400000001000000000000000000000000000000000000000000000c000004000400000000000000000000000000000000ffffffff0000000000000e000000000800000021010000000000000000000000000000000000000000001a080004000400000002000000000000000000000000000000000000000000001a040002000200000004000000000000000000000000000000000000000000000e000002000000000000020000000000000000000000000000000000000000000a000000000000000001a003a0030000000000000000000000000000000000000c000002000200000001000000000000000000000000000000000000000000000c000002000200000000000000000000000000000000717b484e0000000000000e000002000000000020000000000000000000000000000000000000000000000c000001000100000001410000000000000000000000000000000000000000000c000001000100000000000000000000000000000000000000000000000000000c000002000200000001040000000000000000000000000000000000000000000c0000020002000000000000000000000000000000000000000000000000000007000000000000000003810a00000000000000000000000000000000000000000c000002000200000001240000000000000000000000000000000000000000000c000002000200000000000000000000000000000000000000000000000000000e000002000000000000000000000000000000000000000000000000000000000c000004000400000001000000000000000000000000000000000000000000000c000004000400000000000000000000000000000000000000000000000000000c000002000200000001200000000000000000000000000000000000000000000c000002000200000000000000000000000000000000000000000000000000000a0000000000000000018a038a03000000000000000000000000000000000000020800000004000000000000000000000000000000000000000000000000000004100000000000000000000000000000000000000000000000000000000000000a00000000000000000a8a039603000000000000000000000000000000000000180000040008000000000500000000000000000000000000000000000000000008080002000800000000000000000000000000000000000000000000000000000e080000001000000021000000000000000000000000000000000000000000000e0800100000000000000100000000000000000000000000000000000000000002000004000800000000010000000000000000000000000000000000000000000c000010001000000001010000000000000000000000000000000000000000000c0000100010000000000000000000000000000000000000000000000000000004080004000000000000000000000000000000000000000000000000000000000a000000000000000002870393030000000000000000000000000000000000000c000010001000000001000000000000000000000000000000000000000000000c000010001000000000000000000000000000000000000000000000000000000a000000000000000001870387030000000000000000000000000000000000000c000002000200000001ffffffffffffffffffffffffffffffff0000000000000c000002000200000000ffffffffffffffffffffffff000000000000000000000e000000000400000001020000000000000000000000000000000000000000001a040002000200000002000000000000000000000000000000000000000000000c000004000400000001000000000000000000000000000000000000000000000c000004000400000000000000000000000000000000ffffffff0000000000000e000000000800000021010000000000000000000000000000000000000000001a080004000400000002000000000000000000000000000000000000000000001a040002000200000004000000000000000000000000000000000000000000000e000002000000000000020000000000000000000000000000000000000000000e0000000000000000e10500000000000000000000000000000000000000000007000000000000000004000000000000000000000000000000000000000000000e0000000000000000e0010000000000000000000000000000000000000000000c000004000400000001fcffffffffffffffffffffffffffffff0000000000000c000004000400000000ffffffffffffffffffffffffffffffff00000000000002020004000800000000000000000000000000000000000000000000000000000c000010001000000001400000000000000000000000000000000000000000000c000010001000000000000000000000000000000000000000000000000000000c000004000400000001000000000000000000000000000000000000000000000c000004000400000000000000000000000000000000000000800000000000000c000002000200000001000000000000000000000000000000000000000000000c0000020002000000000000000000000000000000000000008000000000000004080010000000000000000000000000000000000000000000000000000000000a00000000000000000cb003ae030000000000000000000000000000000000000c000002000200000001000000000000000000000000000000000000000000000c000002000200000000000000000000000000000000000000000000000000001a080004001000000002000000000000000000000000000000000000000000000c000008000800000001000000000000000000000000000000000000000000000c0000080008000000000000000000000000000000000000008000000000000004100000000000000000000000000000000000000000000000000000000000000a000000000000000002b703b5030000000000000000000000000000000000000c000008000800000001000000000000000000000000000000000000000000000c0000080008000000000000000000000000000000000000000000000000000004100004000000000000000000000000000000000000000000000000000000000a000000000000000004ba03b903000000000000000000000000000000000000020200000008000000000000000000000000000000000000000000000000000002000001000200000000400000000000000000000000000000000000000000000e0000020000000000600200000000000000000000000000000000000000000004080000000000000000000000000000000000000000000000000000000000000a00000000000000000abe03d8030000000000000000000000000000000000000c000001000100000001240000000000000000000000000000000000000000000c0000010001000000000000000000000000000000000000000000000000000007000000000000000003590a00000000000000000000000000000000000000000c000002000200000001ffffffffffffffffffffffffffffffff0000000000000c000002000200000000ffffffff00000000000000000000000000000000000004010002000000000000000000000000000000000000000000000000000000000a000000000000000008d803c5030000000000000000000000000000000000000c000002000200000001200000000000000000000000000000000000000000000c000002000200000000000000000000000000000000000000000000000000000e0000000004000000610200000000000000000000000000000000000000000008040002000200000000000000000000000000000000000000000000000000000e000002000000000060010000000000000000000000000000000000000000000e020001000000000060010000000000000000000000000000000000000000000c000001000100000001440000000000000000000000000000000000000000000c0000010001000000000000000000000000000000000000000000000000000007000000000000000003590a00000000000000000000000000000000000000000c000002000200000001ffffffff0000000000000000000000000000000000000c0000020002000000000000000000000000000000000000000000000000000004010002000000000000000000000000000000000000000000000000000000000a000000000000000008d803d2030000000000000000000000000000000000000e000000000200000061010000000000000000000000000000000000000000000e020001000000000060020000000000000000000000000000000000000000000e0000000002000000610200000000000000000000000000000000000000000004000002000100000001400000000000000000000000000000000000000000000e0000000000000000e10100000000000000000000000000000000000000000007000000000000000000000000000000000000000000000000000000000000000c000002000200000001000000000000000000000000000000000000000000000c000002000200000000000000000000000000000000000000000000000000000e000002000000000000000000000000000000000000000000000000000000000e0000000000000000e10100000000000000000000000000000000000000000007000000000000000004000000000000000000000000000000000000000000000c000002000200000001fcffffffffffffffffffffffffffffff0000000000000c000002000200000000ffffffffffffffffffffffffffffffff00000000000002010002000800000000000000000000000000000000000000000000000000000c000010001000000001200000000000000000000000000000000000000000000c000010001000000000000000000000000000000000000000000000000000000c000004000400000001000000000000000000000000000000000000000000000c000004000400000000000000000000000000000000000000800000000000000c000002000200000001000000000000000000000000000000000000000000000c0000020002000000000000000000000000000000000000008000000000000004080010000000000000000000000000000000000000000000000000000000000a00000000000000000cea03e8030000000000000000000000000000000000000c000002000200000001000000000000000000000000000000000000000000000c000002000200000000000000000000000000000000000000000000000000001a080004001000000002000000000000000000000000000000000000000000000c000008000800000001000000000000000000000000000000000000000000000c0000080008000000000000000000000000000000000000008000000000000004100000000000000000000000000000000000000000000000000000000000000a000000000000000002f103ef030000000000000000000000000000000000000c000008000800000001000000000000000000000000000000000000000000000c0000080008000000000000000000000000000000000000000000000000000004100004000000000000000000000000000000000000000000000000000000000a000000000000000004f403f303000000000000000000000000000000000000020200000008000000000000000000000000000000000000000000000000000004080000000000000000000000000000000000000000000000000000000000000a00000000000000000af603fe030000000000000000000000000000000000000c000001000100000001240000000000000000000000000000000000000000000c0000010001000000000000000000000000000000000000000000000000000007000000000000000003590a00000000000000000000000000000000000000000c000002000200000001ffffffffffffffffffffffffffffffff0000000000000c000002000200000000ffffffff00000000000000000000000000000000000004010002000000000000000000000000000000000000000000000000000000000a000000000000000008fe03fd0300000000000000000000000000000000000007000000000000000000000000000000000000000000000000000000000000000c000002000200000001000000000000000000000000000000000000000000000c000002000200000000000000000000000000000000000000000000000000000e0000020000000000000000000000000000000000000000000000000000000007000000000000000004000000000000000000000000000000000000000000000e0000000000000000e0010000000000000000000000000000000000000000000c000004000400000001fcffffffffffffffffffffffffffffff0000000000000c000004000400000000ffffffffffffffffffffffffffffffff00000000000002020004000800000000000000000000000000000000000000000000000000000c000010001000000001400000000000000000000000000000000000000000000c000010001000000000000000000000000000000000000000000000000000000c000004000400000001000000000000000000000000000000000000000000000c000004000400000000000000000000000000000000000000800000000000000c000002000200000001000000000000000000000000000000000000000000000c0000020002000000000000000000000000000000000000008000000000000004080010000000000000000000000000000000000000000000000000000000000a00000000000000000c10040e040000000000000000000000000000000000000c000002000200000001000000000000000000000000000000000000000000000c000002000200000000000000000000000000000000000000000000000000001a080004001000000002000000000000000000000000000000000000000000000c000008000800000001000000000000000000000000000000000000000000000c0000080008000000000000000000000000000000000000008000000000000004100000000000000000000000000000000000000000000000000000000000000a000000000000000002170415040000000000000000000000000000000000000c000008000800000001000000000000000000000000000000000000000000000c0000080008000000000000000000000000000000000000000000000000000004100004000000000000000000000000000000000000000000000000000000000a0000000000000000041a041904000000000000000000000000000000000000020200000008000000000000000000000000000000000000000000000000000002000001000200000000400000000000000000000000000000000000000000000e0000020000000000600200000000000000000000000000000000000000000004080000000000000000000000000000000000000000000000000000000000000a00000000000000000a1e0438040000000000000000000000000000000000000c000001000100000001240000000000000000000000000000000000000000000c0000010001000000000000000000000000000000000000000000000000000007000000000000000003590a00000000000000000000000000000000000000000c000002000200000001ffffffffffffffffffffffffffffffff0000000000000c000002000200000000ffffffff00000000000000000000000000000000000004010002000000000000000000000000000000000000000000000000000000000a000000000000000008380425040000000000000000000000000000000000000c000002000200000001200000000000000000000000000000000000000000000c000002000200000000000000000000000000000000000000000000000000000e0000000004000000610200000000000000000000000000000000000000000008040002000200000000000000000000000000000000000000000000000000000e000002000000000060010000000000000000000000000000000000000000000e020001000000000060010000000000000000000000000000000000000000000c000001000100000001440000000000000000000000000000000000000000000c0000010001000000000000000000000000000000000000000000000000000007000000000000000003590a00000000000000000000000000000000000000000c000002000200000001000000000000000000000000000000000000000000000c0000020002000000000000000001000000000000000000000000000000000004010002000000000000000000000000000000000000000000000000000000000a00000000000000000c380432040000000000000000000000000000000000000e000000000200000061010000000000000000000000000000000000000000000e020001000000000060020000000000000000000000000000000000000000000e0000000002000000610200000000000000000000000000000000000000000004000002000100000001400000000000000000000000000000000000000000000e0000000000000000e10100000000000000000000000000000000000000000007000000000000000000000000000000000000000000000000000000000000000c000002000200000001000000000000000000000000000000000000000000000c000002000200000000000000000000000000000000000000000000000000000e000002000000000000000000000000000000000000000000000000000000000e0000000000000000e10100000000000000000000000000000000000000000007000000000000000004000000000000000000000000000000000000000000000e0000000000000000e00200000000000000000000000000000000000000000004010000000000000000000000000000000000000000000000000000000000000a000000000000000004420440040000000000000000000000000000000000000e0000000000000000e10200000000000000000000000000000000000000000007000000000000000000000000000000000000000000000000000000000000000c000001000100000001000000000000000000000000000000000000000000000c000001000100000000000000000000000000000000a079c3080000000000000e000000000200000021020000000000000000000000000000000000000000000e0000020000000000600100000000000000000000000000000000000000000007000000000000000003810a00000000000000000000000000000000000000000e0000000002000000610100000000000000000000000000000000000000000002000002000200000000040000000000000000000000000000000000000000000c000001000100000001200000000000000000000000000000000000000000000c0000010001000000000000000000000000000000000000000000000000000007000000000000000003810a00000000000000000000000000000000000000000e0000000002000000610100000000000000000000000000000000000000000002000002000200000000240000000000000000000000000000000000000000000c000001000100000001220000000000000000000000000000000000000000000c0000010001000000000000000000000000000000000000000000000000000007000000000000000003810a00000000000000000000000000000000000000000e0000000002000000610100000000000000000000000000000000000000000002000002000200000000440000000000000000000000000000000000000000000c000001000100000001535345524444415f4c414349544e45440000000000000c00000100010000000049203a79726f7463614670617773584400000000000007000000000000000003810a00000000000000000000000000000000000000000e0000000002000000610100000000000000000000000000000000000000000002000002000200000000640000000000000000000000000000000000000000000c000001000100000001000000000000000000000000000000000000000000000c0000010001000000000000000000000000000000000000534500000000000007000000000000000003810a00000000000000000000000000000000000000000c000002000200000001840000000000000000000000000000000000000000000c000002000200000000000000000000000000000000000000000000000000000e000002000000000000000000000000000000000000000000000000000000000c000002000200000001000000000000000000000000000000000000000000000c000002000200000000000000000000000000000000000000000000000000000e0000020000000000600300000000000000000000000000000000000000000018000002000400000000050000000000000000000000000000000000000000000e000004000000000060020000000000000000000000000000000000000000000e00000000020000006101000000000000000000000000000000000000000000020200040001000000000000000000000000000000000000000000000000000007000000000000000003450a00000000000000000000000000000000000000000c000002000200000001200000000000000000000000000000000000000000000c000002000200000000000000000000000000000000000000000000000000000e0000000004000000610200000000000000000000000000000000000000000008040002000200000000000000000000000000000000000000000000000000000e020001000000000000010000000000000000000000000000000000000000000e0000000002000000610300000000000000000000000000000000000000000002000002000200000000010000000000000000000000000000000000000000000c000004000400000001040000000000000000000000000000000000000000000c0000040004000000000000000000000000000000000000000000000000000004020004000000000000000000000000000000000000000000000000000000000a000000000000000002600471040000000000000000000000000000000000000e00000000020000006101000000000000000000000000000000000000000000020000020001000000008000000000000000000000000000000000000000000007000000000000000003450a00000000000000000000000000000000000000000c000002000200000001ffffffffffffffffffffffffffffffff0000000000000c000002000200000000ffffffffffffffffffffffff000000000000000000000e000000000400000001050000000000000000000000000000000000000000001a040002000200000002000000000000000000000000000000000000000000000c000004000400000001000000000000000000000000000000000000000000000c000004000400000000000000000000000000000000ffffffff0000000000001a010004000400000002000000000000000000000000000000000000000000001a040002000200000004000000000000000000000000000000000000000000000e000002000000000000050000000000000000000000000000000000000000000e0000000000000000e10200000000000000000000000000000000000000000007000000000000000004000000000000000000000000000000000000000000000e0000000000000000e00200000000000000000000000000000000000000000004010000000000000000000000000000000000000000000000000000000000000a000000000000000004840482040000000000000000000000000000000000000e0000000000000000e10200000000000000000000000000000000000000000007000000000000000000000000000000000000000000000000000000000000000c000001000100000001000000000000000000000000000000000000000000000c000001000100000000000000000000000000000000a079c3080000000000000e000000000200000021020000000000000000000000000000000000000000000e0000020000000000600100000000000000000000000000000000000000000007000000000000000003810a00000000000000000000000000000000000000000e0000000002000000610100000000000000000000000000000000000000000002000002000200000000040000000000000000000000000000000000000000000c000001000100000001200000000000000000000000000000000000000000000c0000010001000000000000000000000000000000000000000000000000000007000000000000000003810a00000000000000000000000000000000000000000e0000000002000000610100000000000000000000000000000000000000000002000002000200000000240000000000000000000000000000000000000000000c0000010001000000011b0000000000000000000000000000000000000000000c0000010001000000000000000000000000000000000000000000000000000007000000000000000003810a00000000000000000000000000000000000000000e0000000002000000610100000000000000000000000000000000000000000002000002000200000000440000000000000000000000000000000000000000000c0000010001000000010000000000535345524444415f4f52450000000000000c0000010001000000005a203a79726f7463614670617773584400000000000007000000000000000003810a00000000000000000000000000000000000000000c000002000200000001640000000000000000000000000000000000000000000c000002000200000000000000000000000000000000000000000000000000000e000002000000000000000000000000000000000000000000000000000000000c000002000200000001000000000000000000000000000000000000000000000c000002000200000000000000000000000000000000000000000000000000000e0000020000000000600300000000000000000000000000000000000000000018000002000400000000050000000000000000000000000000000000000000000e000004000000000060020000000000000000000000000000000000000000000e00000000020000006101000000000000000000000000000000000000000000020200040001000000000000000000000000000000000000000000000000000007000000000000000003450a00000000000000000000000000000000000000000c000002000200000001200000000000000000000000000000000000000000000c000002000200000000000000000000000000000000000000000000000000000e0000000004000000610200000000000000000000000000000000000000000008040002000200000000000000000000000000000000000000000000000000000e020001000000000000010000000000000000000000000000000000000000000e0000000002000000610300000000000000000000000000000000000000000002000002000200000000010000000000000000000000000000000000000000000c000004000400000001030000000000000000000000000000000000000000000c0000040004000000000000000000000000000000000000000000000000000004020004000000000000000000000000000000000000000000000000000000000a0000000000000000029d04ae040000000000000000000000000000000000000e00000000020000006101000000000000000000000000000000000000000000020000020001000000006000000000000000000000000000000000000000000007000000000000000003450a00000000000000000000000000000000000000000c000002000200000001ffffffffffffffffffffffffffffffff0000000000000c000002000200000000ffffffffffffffffffffffff000000000000000000000e000000000400000001040000000000000000000000000000000000000000001a040002000200000002000000000000000000000000000000000000000000000c000004000400000001000000000000000000000000000000000000000000000c000004000400000000000000000000000000000000ffffffff0000000000001a010004000400000002000000000000000000000000000000000000000000001a040002000200000004000000000000000000000000000000000000000000000e000002000000000000040000000000000000000000000000000000000000000e0000000000000000e10200000000000000000000000000000000000000000007000000000000000004000000000000000000000000000000000000000000000e0000000000000000e00200000000000000000000000000000000000000000004010000000000000000000000000000000000000000000000000000000000000a000000000000000004c104bf040000000000000000000000000000000000000e0000000000000000e10200000000000000000000000000000000000000000007000000000000000000000000000000000000000000000000000000000000000c000001000100000001000000000000000000000000000000000000000000000c000001000100000000000000000000000000000000a079c3080000000000000e000000000200000021020000000000000000000000000000000000000000000e0000020000000000600100000000000000000000000000000000000000000007000000000000000003810a00000000000000000000000000000000000000000e0000000002000000610100000000000000000000000000000000000000000002000002000200000000040000000000000000000000000000000000000000000c000001000100000001200000000000000000000000000000000000000000000c0000010001000000000000000000000000000000000000000000000000000007000000000000000003810a00000000000000000000000000000000000000000e0000000002000000610100000000000000000000000000000000000000000002000002000200000000240000000000000000000000000000000000000000000c0000010001000000011a0000000000000000000000000000000000000000000c0000010001000000000000000000000000000000000000000000000000000007000000000000000003810a00000000000000000000000000000000000000000e0000000002000000610100000000000000000000000000000000000000000002000002000200000000440000000000000000000000000000000000000000000c0000010001000000010000000000005354534958455f5249410000000000000c00000100010000000050203a79726f7463614670617773584400000000000007000000000000000003810a00000000000000000000000000000000000000000c000002000200000001640000000000000000000000000000000000000000000c000002000200000000000000000000000000000000000000000000000000000e000002000000000000000000000000000000000000000000000000000000000c000002000200000001000000000000000000000000000000000000000000000c000002000200000000000000000000000000000000000000000000000000000e0000020000000000600300000000000000000000000000000000000000000018000002000400000000050000000000000000000000000000000000000000000e000004000000000060020000000000000000000000000000000000000000000e00000000020000006101000000000000000000000000000000000000000000020200040001000000000000000000000000000000000000000000000000000007000000000000000003450a00000000000000000000000000000000000000000c000002000200000001200000000000000000000000000000000000000000000c000002000200000000000000000000000000000000000000000000000000000e0000000004000000610200000000000000000000000000000000000000000008040002000200000000000000000000000000000000000000000000000000000e020001000000000000010000000000000000000000000000000000000000000e0000000002000000610300000000000000000000000000000000000000000002000002000200000000010000000000000000000000000000000000000000000c000004000400000001030000000000000000000000000000000000000000000c0000040004000000000000000000000000000000000000000000000000000004020004000000000000000000000000000000000000000000000000000000000a000000000000000002da04eb040000000000000000000000000000000000000e00000000020000006101000000000000000000000000000000000000000000020000020001000000006000000000000000000000000000000000000000000007000000000000000003450a00000000000000000000000000000000000000000c000002000200000001ffffffffffffffffffffffffffffffff0000000000000c000002000200000000ffffffffffffffffffffffff000000000000000000000e000000000400000001040000000000000000000000000000000000000000001a040002000200000002000000000000000000000000000000000000000000000c000004000400000001000000000000000000000000000000000000000000000c000004000400000000000000000000000000000000ffffffff0000000000001a010004000400000002000000000000000000000000000000000000000000001a040002000200000004000000000000000000000000000000000000000000000e000002000000000000040000000000000000000000000000000000000000000e0000000000000000e10200000000000000000000000000000000000000000007000000000000000004000000000000000000000000000000000000000000000e0000000000000000e00c00000000000000000000000000000000000000000002010000000400000000000000000000000000000000000000000000000000000c000010001000000001ffffffffffffffffffffffffffffffff0000000000000c000010001000000000ffffffff0000000000000000000000000000000000000e0000020000000000600a0000000000000000000000000000000000000000001a020010000800000002000000000000000000000000000000000000000000000e0000040000000000600c0000000000000000000000000000000000000000001a040010000400000002000000000000000000000000000000000000000000000c000002000200000001010000000000000000000000000000000000000000000c000002000200000000000000000000000000000000000000000000000000000e000004000000000060080000000000000000000000000000000000000000000e0000080000000000600d00000000000000000000000000000000000000000004040008000000000000000000000000000000000000000000000000000000000a00000000000000000a090507050000000000000000000000000000000000000c000002000200000001000000000000000000000000000000000000000000000c000002000200000000000000000000000000000000000000000000000000001a00000200010000000201000000000000000000000000000000000000000000070000000000000000033d0400000000000000000000000000000000000000000a0000000000000000020c050d050000000000000000000000000000000000000a000000000000000001a108a1080000000000000000000000000000000000000e0000000010000000610a0000000000000000000000000000000000000000000e0000100000000000600b0000000000000000000000000000000000000000000e000000000400000061080000000000000000000000000000000000000000000e0000000008000000610d00000000000000000000000000000000000000000004040008000000000000000000000000000000000000000000000000000000000a000000000000000002150513050000000000000000000000000000000000000e0000000002000000610c0000000000000000000000000000000000000000000e0000020000000000600b00000000000000000000000000000000000000000004040008000000000000000000000000000000000000000000000000000000000a000000000000000002180517050000000000000000000000000000000000000e0000100000000000600c00000000000000000000000000000000000000000004040008000000000000000000000000000000000000000000000000000000000a0000000000000000021b051a0500000000000000000000000000000000000002080000000400000000000000000000000000000000000000000000000000000c000002000200000001010000000000000000000000000000000000000000000c000002000200000000000000000000000000000000000000000000000000000e0000040000000000600800000000000000000000000000000000000000000004040000000000000000000000000000000000000000000000000000000000000a00000000000000000a220520050000000000000000000000000000000000000c000002000200000001000000000000000000000000000000000000000000000c000002000200000000000000000000000000000000000000000000000000001a00000200010000000201000000000000000000000000000000000000000000070000000000000000037f0400000000000000000000000000000000000000000a000000000000000002250526050000000000000000000000000000000000000a000000000000000001a108a1080000000000000000000000000000000000000e000000000200000061080000000000000000000000000000000000000000000e000002000000000020000000000000000000000000000000000000000000000c000002000200000001020000000000000000000000000000000000000000000c000002000200000000000000000000000000000000000000000000000000000e0000020000000000200100000000000000000000000000000000000000000010000000000000000000000000000000000000000000000000000000000000000c000004000400000001400000000000000000000000000000000000000000000c000004000400000000000000000000000000000000000000000000000000000e000004000000000040000000000000000000000000000000000000000000000c000004000400000001000000000000000000000000000000000000000000000c000004000400000000000000000000000000000000000000000000000000000c000008000800000001200000000000000000000000000000000000000000000c00000800080000000000000000000000000000000000000000000000000000180000040010000000000500000000000000000000000000000000000000000008100008001000000000000000000000000000000000000000000000000000000e100000002000000021000000000000000000000000000000000000000000000e10002000000000004001000000000000000000000000000000000000000000020000040004000000000100000000000000000000000000000000000000000004040002000000000000000000000000000000000000000000000000000000000a00000000000000000233053a050000000000000000000000000000000000000c00000100010000000100000000ff03000000000000000000000000000000000c0000010001000000000000000000000000000000000000000000000000000007000000000000000003bf0a00000000000000000000000000000000000000000c000002000200000001ffffffffffffffffffffffffffffffff0000000000000c000002000200000000ffffffff0000000000000000000000000000000000000e0000000004000000610b0000000000000000000000000000000000000000001a040002000400000002000000000000000000000000000000000000000000000e000000000200000041010000000000000000000000000000000000000000000e000004000000000060070000000000000000000000000000000000000000000e000004000000000020000000000000000000000000000000000000000000000e0000020000000000200100000000000000000000000000000000000000000010000000000000000000000000000000000000000000000000000000000000000c000002000200000001400000000000000000000000000000000000000000000c000002000200000000000000000000000000000000000000000000000000000e000002000000000040000000000000000000000000000000000000000000000c000002000200000001000000000000000000000000000000000000000000000c000002000200000000000000000000000000000000000000000000000000000c000004000400000001200000000000000000000000000000000000000000000c000004000400000000000000000000000000000000000000000000000000000c000008000800000001020000000000000000000000000000000000000000000c00000800080000000000000000000000000000000000000000000000000000180000020010000000000500000000000000000000000000000000000000000008100004001000000000000000000000000000000000000000000000000000000e100000002000000021000000000000000000000000000000000000000000000e10002000000000004001000000000000000000000000000000000000000000020000020002000000000100000000000000000000000000000000000000000004020008000000000000000000000000000000000000000000000000000000000a0000000000000000024f0556050000000000000000000000000000000000000c00000100010000000100000000ff03000000000000000000000000000000000c0000010001000000000000000000000000000000000000000000000000000007000000000000000003bf0a00000000000000000000000000000000000000000e0000000002000000410100000000000000000000000000000000000000000005020000000200000001000000000000000000000000000000000000000000000c000004000400000001ffffffffffffffffffffffffffffffff0000000000000c000004000400000000ffffffff0000000000000000000000000000000000001a020004000400000002000000000000000000000000000000000000000000000c000002000200000001010000000000000000000000000000000000000000000c0000020002000000000000000000000000000000000000000000000000000004040000000000000000000000000000000000000000000000000000000000000a000000000000000004640562050000000000000000000000000000000000000c000002000200000001000000000000000000000000000000000000000000000c000002000200000000000000000000000000000000000000000000000000001a0000020001000000020100000000000000000000000000000000000000000007000000000000000003bc0400000000000000000000000000000000000000000a000000000000000002670568050000000000000000000000000000000000000a000000000000000001a108a1080000000000000000000000000000000000000e000000000200000021020000000000000000000000000000000000000000000c000004000400000001bfffffffffffffffffffffffffffffff0000000000000c000004000400000000ffffffffffffffffffffffffffffffff00000000000004020004000000000000000000000000000000000000000000000000000000000a00000000000000000886076d0500000000000000000000000000000000000002000002000400000000400000000000000000000000000000000000000000000c000008000800000001ffffffffffffffff00000000000000000000000000000c0000080008000000000000000000000000000000000000000000000000000004040008000000000000000000000000000000000000000000000000000000000a000000000000000008860772050000000000000000000000000000000000000e0000040000000000600d0000000000000000000000000000000000000000000e000004000000000020020000000000000000000000000000000000000000000c000001000100000001200000000000000000000000000000000000000000000c000001000100000000000000000000000000000000000000000000000000000e0000020000000000600900000000000000000000000000000000000000000007000000000000000003810a00000000000000000000000000000000000000000e0000000002000000610900000000000000000000000000000000000000000002000002000200000000200000000000000000000000000000000000000000000c000001000100000001048dcbea7a3e6e123c8150f52b08d82a0000000000000c000001000100000000e252e879765398c2cfdf26cd93837aca0000000000000e0000020000000000600500000000000000000000000000000000000000000007000000000000000003810a00000000000000000000000000000000000000000e0000000002000000610c00000000000000000000000000000000000000000018000002000100000000600000000000000000000000000000000000000000000e000000000200000021020000000000000000000000000000000000000000000e0000020000000000600c00000000000000000000000000000000000000000002000002000200000000200000000000000000000000000000000000000000000e0000020000000000600a00000000000000000000000000000000000000000007000000000000000003810a00000000000000000000000000000000000000000e0000000002000000610b00000000000000000000000000000000000000000018000002000100000000600000000000000000000000000000000000000000000e0000000002000000610c000000000000000000000000000000000000000000020000020002000000003400000000000000000000000000000000000000000007000000000000000003810a00000000000000000000000000000000000000000c000001000100000001280000000000000000000000000000000000000000000c000001000100000000000000000000000000000000000000000000000000000e0000000002000000610c00000000000000000000000000000000000000000007000000000000000003810a00000000000000000000000000000000000000000e0000000008000000610c0000000000000000000000000000000000000000000c0000020002000000019fffffffffffffffffffffffffffffff0000000000000c000002000200000000ffffffffffffffffffffffffffffffff00000000000004080002000000000000000000000000000000000000000000000000000000000a000000000000000008a507930500000000000000000000000000000000000002000008000200000000600000000000000000000000000000000000000000000c000004000400000001ffffffffffffffff00000000000000000000000000000c0000040004000000000000000000000000000000000000000000000000000004020004000000000000000000000000000000000000000000000000000000000a000000000000000008a50798050000000000000000000000000000000000000e000002000000000020020000000000000000000000000000000000000000000e0000000001000000610900000000000000000000000000000000000000000007000000000000000003450a00000000000000000000000000000000000000000e000001000000000060040000000000000000000000000000000000000000000e0000000001000000610c00000000000000000000000000000000000000000007000000000000000003450a00000000000000000000000000000000000000000c000008000800000001000000000000000000000000000000000000000000000c0000080008000000000000000000000000000000000000000000000000000002010000000400000000000000000000000000000000000000000000000000001a0000040002000000021f0000000000000000000000000000000000000000000e0000020000000000600600000000000000000000000000000000000000000010000000000000000000000000000000000000000000000000000000000000000e000004000000000040000000000000000000000000000000000000000000000e0000040000000000600300000000000000000000000000000000000000000018000004000200000002050000000000000000000000000000000000000000000e0000000004000000610a0000000000000000000000000000000000000000000e0000020000000000600900000000000000000000000000000000000000000004020000000000000000000000000000000000000000000000000000000000000a000000000000000004bb05ab050000000000000000000000000000000000000e0000080000000000600c00000000000000000000000000000000000000000018000008000400000000050000000000000000000000000000000000000000000e0000040000000000600b0000000000000000000000000000000000000000000e0000000002000000610a000000000000000000000000000000000000000000020200040001000000000000000000000000000000000000000000000000000007000000000000000003450a00000000000000000000000000000000000000000e0000000008000000610c0000000000000000000000000000000000000000000c000002000200000001200000000000000000000000000000000000000000000c000002000200000000000000000000000000000000000000000000000000000e0000000004000000610b00000000000000000000000000000000000000000008040002000200000000000000000000000000000000000000000000000000000e0200010000000000400100000000000000000000000000000000000000000002000008000800000000010000000000000000000000000000000000000000000e0000000002000000610900000000000000000000000000000000000000000004080002000000000000000000000000000000000000000000000000000000000a000000000000000002ab05bb050000000000000000000000000000000000000e0000000004000000610a0000000000000000000000000000000000000000000e0000000002000000610600000000000000000000000000000000000000000004020000000000000000000000000000000000000000000000000000000000000a000000000000000004d805bf050000000000000000000000000000000000000c000002000200000001e0ffffffffffffffffffffffffffffff0000000000000c000002000200000000ffffffffffffffffffffffffffffffff0000000000000e000000000800000061030000000000000000000000000000000000000000001a080002000200000002000000000000000000000000000000000000000000000e0000020000000000600c000000000000000000000000000000000000000000020400020001000000000000000000000000000000000000000000000000000007000000000000000003450a00000000000000000000000000000000000000000c000002000200000001200000000000000000000000000000000000000000000c000002000200000000000000000000000000000000000000000000000000000e0000000004000000610c00000000000000000000000000000000000000000008040002000200000000000000000000000000000000000000000000000000000e0000000004000000610600000000000000000000000000000000000000000018000004000400000000030000000000000000000000000000000000000000000c000008000800000001ffffffffffffffffffffffffffffffff0000000000000c000008000800000000ffffffffffffffffffffffffffffffff00000000000018040008001000000002000000000000000000000000000000000000000000000e020000002000000041010000000000000000000000000000000000000000001a200010001000000002000000000000000000000000000000000000000000000c000020002000000001000100000000000000000000000000000000000000000c00002000200000000000000000000000000000000000000000000000000000042000040004000000000000000000000000000000000000000000000000000018040008000400000000000000000000000000000000000000000000000000001a010004000400000002000000000000000000000000000000000000000000001a040010000400000004000000000000000000000000000000000000000000000e020004000000000040010000000000000000000000000000000000000000000c00000100010000000100000000ff03000000000000000000000000000000000c0000010001000000000000000000000000000000000000000000000000000007000000000000000003bf0a00000000000000000000000000000000000000000e000000000200000041010000000000000000000000000000000000000000000e000002000000000060020000000000000000000000000000000000000000000e0000000001000000610500000000000000000000000000000000000000000007000000000000000003450a00000000000000000000000000000000000000000c000008000800000001000000000000000000000000000000000000000000000c000008000800000000000000000000000000000000000000000000000000000e000001000000000060030000000000000000000000000000000000000000000c000002000200000001b72baa2f6882c7ab6b4fe86e343b541a0000000000000c000002000200000000d21d0df3871200f744cd98d41400698a00000000000005020000000200000001000000000000000000000000000000000000000000000e0000020000000000600500000000000000000000000000000000000000000010000000000000000000000000000000000000000000000000000000000000000e0000000002000000610400000000000000000000000000000000000000000002000002000400000000200000000000000000000000000000000000000000000e000004000000000060010000000000000000000000000000000000000000000e000004000000000040000000000000000000000000000000000000000000000c000004000400000001e0ffffffffffffffffffffffffffffff0000000000000c000004000400000000ffffffffffffffffffffffffffffffff00000000000002020004000400000000000000000000000000000000000000000000000000001a0000040002000000021f0000000000000000000000000000000000000000000e000002000000000060090000000000000000000000000000000000000000000e0000040000000000600600000000000000000000000000000000000000000018000004000200000002050000000000000000000000000000000000000000000e0000000004000000610d0000000000000000000000000000000000000000000e0000020000000000600c00000000000000000000000000000000000000000004020000000000000000000000000000000000000000000000000000000000000a0000000000000000040606f6050000000000000000000000000000000000000e0000080000000000600b00000000000000000000000000000000000000000018000008000400000000050000000000000000000000000000000000000000000e0000040000000000600a0000000000000000000000000000000000000000000e0000000002000000610d000000000000000000000000000000000000000000020200040001000000000000000000000000000000000000000000000000000007000000000000000003450a00000000000000000000000000000000000000000e0000000008000000610b0000000000000000000000000000000000000000000c000002000200000001200000000000000000000000000000000000000000000c000002000200000000000000000000000000000000000000000000000000000e0000000004000000610a00000000000000000000000000000000000000000008040002000200000000000000000000000000000000000000000000000000000e0200010000000000400100000000000000000000000000000000000000000002000008000800000000010000000000000000000000000000000000000000000e0000000002000000610c00000000000000000000000000000000000000000004080002000000000000000000000000000000000000000000000000000000000a000000000000000002f60506060000000000000000000000000000000000000e000000000400000061090000000000000000000000000000000000000000000e0000000002000000610600000000000000000000000000000000000000000004040000000000000000000000000000000000000000000000000000000000000a00000000000000000424060a060000000000000000000000000000000000000e000000000200000061060000000000000000000000000000000000000000000c000004000400000001e0ffffffffffffffffffffffffffffff0000000000000c000004000400000000ffffffffffffffffffffffffffffffff0000000000001a020004000400000002000000000000000000000000000000000000000000000e0000040000000000600b0000000000000000000000000000000000000000000e0000000002000000610d000000000000000000000000000000000000000000020200040001000000000000000000000000000000000000000000000000000007000000000000000003450a00000000000000000000000000000000000000000c000002000200000001200000000000000000000000000000000000000000000c000002000200000000000000000000000000000000000000000000000000000e0000000004000000610b00000000000000000000000000000000000000000008040002000200000000000000000000000000000000000000000000000000000e0000000004000000610900000000000000000000000000000000000000000018000004000400000000030000000000000000000000000000000000000000000c000008000800000001ffffffffffffffffffffffffffffffff0000000000000c000008000800000000ffffffffffffffffffffffffffffffff00000000000018040008001000000002000000000000000000000000000000000000000000000e020000002000000041010000000000000000000000000000000000000000001a200010001000000002000000000000000000000000000000000000000000000c000020002000000001000100000000000000000000000000000000000000000c00002000200000000000000000000000000000000000000000000000000000042000040004000000000000000000000000000000000000000000000000000018040008000400000000000000000000000000000000000000000000000000001a010004000400000002000000000000000000000000000000000000000000001a040010000400000004000000000000000000000000000000000000000000000e020004000000000040010000000000000000000000000000000000000000000e000000000100000061050000000000000000000000000000000000000000000e0000000002000000610400000000000000000000000000000000000000000007000000000000000003a00a00000000000000000000000000000000000000000e000000000100000061020000000000000000000000000000000000000000000e0000000002000000610100000000000000000000000000000000000000000007000000000000000003a00a00000000000000000000000000000000000000000c00000100010000000100000000ff03000000000000000000000000000000000c0000010001000000000000000000000000000000000000000000000000000007000000000000000003bf0a00000000000000000000000000000000000000000e0000000002000000410100000000000000000000000000000000000000000010000000000000000000000000000000000000000000000000000000000000000c000004000400000001400000000000000000000000000000000000000000000c000004000400000000000000000000000000000000000000000000000000000e000004000000000040000000000000000000000000000000000000000000000e000000000400000061030000000000000000000000000000000000000000000e000004000000000040010000000000000000000000000000000000000000000e000002000000000040020000000000000000000000000000000000000000000c00000100010000000100000000fe03000000000000000000000000000000000c0000010001000000000000000000000000000000000000000000000000000007000000000000000003c70a00000000000000000000000000000000000000000e000000000200000041010000000000000000000000000000000000000000000e0000020000000000600400000000000000000000000000000000000000000010000000000000000000000000000000000000000000000000000000000000000e000000000200000061060000000000000000000000000000000000000000001a000002000200000004000000000000000001000000000000000000000000000e000002000000000040000000000000000000000000000000000000000000000c000004000400000001000000000000000000000000000000000000000000000c000004000400000000000000000000000000000000000000000000000000000e0000000002000000610d0000000000000000000000000000000000000000000e0000000002000000610c00000000000000000000000000000000000000000004020000000000000000000000000000000000000000000000000000000000000a000000000000000004540644060000000000000000000000000000000000000e0000040000000000600b00000000000000000000000000000000000000000018000004000400000000050000000000000000000000000000000000000000000e0000040000000000600a0000000000000000000000000000000000000000000e0000000002000000610d000000000000000000000000000000000000000000020200040001000000000000000000000000000000000000000000000000000007000000000000000003450a00000000000000000000000000000000000000000e0000000004000000610b0000000000000000000000000000000000000000000c000002000200000001200000000000000000000000000000000000000000000c000002000200000000000000000000000000000000000000000000000000000e0000000008000000610a00000000000000000000000000000000000000000008080002000200000000000000000000000000000000000000000000000000000e0200010000000000400100000000000000000000000000000000000000000002000004000400000000010000000000000000000000000000000000000000000e0000000002000000610c00000000000000000000000000000000000000000004040002000000000000000000000000000000000000000000000000000000000a000000000000000002440654060000000000000000000000000000000000000e0000000004000000610d0000000000000000000000000000000000000000000e0000000002000000610900000000000000000000000000000000000000000004020000000000000000000000000000000000000000000000000000000000000a000000000000000004710658060000000000000000000000000000000000000c000002000200000001e0ffffffffffffffffffffffffffffff0000000000000c000002000200000000ffffffffffffffffffffffffffffffff0000000000000e000000000800000061060000000000000000000000000000000000000000001a080002000200000002000000000000000000000000000000000000000000000e0000020000000000600c000000000000000000000000000000000000000000020400020001000000000000000000000000000000000000000000000000000007000000000000000003450a00000000000000000000000000000000000000000c000002000200000001200000000000000000000000000000000000000000000c000002000200000000000000000000000000000000000000000000000000000e0000000004000000610c00000000000000000000000000000000000000000008040002000200000000000000000000000000000000000000000000000000000e0000000004000000610900000000000000000000000000000000000000000018000004000400000000030000000000000000000000000000000000000000000c000008000800000001ffffffffffffffffffffffffffffffff0000000000000c000008000800000000ffffffffffffffffffffffffffffffff00000000000018040008001000000002000000000000000000000000000000000000000000000e020000002000000041010000000000000000000000000000000000000000001a200010001000000002000000000000000000000000000000000000000000000c000020002000000001000100000000000000000000000000000000000000000c00002000200000000000000000000000000000000000000000000000000000042000040004000000000000000000000000000000000000000000000000000018040008000400000000000000000000000000000000000000000000000000001a010004000400000002000000000000000000000000000000000000000000001a040010000400000004000000000000000000000000000000000000000000000e020004000000000040010000000000000000000000000000000000000000000e00000000020000006104000000000000000000000000000000000000000000180000020001000000002000000000000000000000000000000000000000000007000000000000000003c70a00000000000000000000000000000000000000000e0000000002000000610500000000000000000000000000000000000000000002000002000200000000010000000000000000000000000000000000000000000e0000010000000000600d0000000000000000000000000000000000000000000c000004000400000001b72baa2f6882c7ab6b4fe86e343b541a0000000000000c000004000400000000d21d0df3871200f744cd98d41400698a00000000000005040002000000000000000000000000000000000000000000000000000000000c000001000100000001000000000000000000000000000000000000000000000c00000100010000000000000000000000000000000055c95c480000000000000e000000000200000021020000000000000000000000000000000000000000000e0000020000000000600b00000000000000000000000000000000000000000007000000000000000003810a00000000000000000000000000000000000000000e0000000002000000610b00000000000000000000000000000000000000000002000002000200000000040000000000000000000000000000000000000000000e0000000001000000610800000000000000000000000000000000000000000007000000000000000003810a00000000000000000000000000000000000000000e0000000002000000610b00000000000000000000000000000000000000000002000002000200000000240000000000000000000000000000000000000000000e0000000001000000610700000000000000000000000000000000000000000007000000000000000003810a00000000000000000000000000000000000000000e000000000200000061040000000000000000000000000000000000000000000e0000000004000000610d00000000000000000000000000000000000000000006040002000400000000000000000000000000000000000000000000000000000c000002000200000001ffffffffffffffffffffffffffffffff0000000000000c000002000200000000ffffffff0000000000000000000000000000000000000e000004000000000060090000000000000000000000000000000000000000001a040002000400000002000000000000000000000000000000000000000000000c000002000200000001040000000000000000000000000000000000000000000c000002000200000000000000000000000000000000000000000000000000000e0000040000000000600a00000000000000000000000000000000000000000004040002000000000000000000000000000000000000000000000000000000000a000000000000000004bb06930600000000000000000000000000000000000010000000000000000000000000000000000000000000000000000000000000000c000002000200000001440000000000000000000000000000000000000000000c000002000200000000000000000000000000000000000000000000000000000e000002000000000040000000000000000000000000000000000000000000000c000002000200000001000000000000000000000000000000000000000000000c000002000200000000000000000000000000000000000000000000000000000e0000020000000000600d00000000000000000000000000000000000000000018000002000400000000050000000000000000000000000000000000000000000e0000040000000000600c0000000000000000000000000000000000000000000e0000000002000000610b000000000000000000000000000000000000000000020200040001000000000000000000000000000000000000000000000000000007000000000000000003450a00000000000000000000000000000000000000000c000002000200000001200000000000000000000000000000000000000000000c000002000200000000000000000000000000000000000000000000000000000e0000000004000000610c00000000000000000000000000000000000000000008040002000200000000000000000000000000000000000000000000000000000e020001000000000040010000000000000000000000000000000000000000000e0000000002000000610d00000000000000000000000000000000000000000002000002000200000000010000000000000000000000000000000000000000000c000004000400000001020000000000000000000000000000000000000000000c0000040004000000000000000000000000000000000000000000000000000004020004000000000000000000000000000000000000000000000000000000000a0000000000000000029906aa060000000000000000000000000000000000000e0000000002000000610b000000000000000000000000000000000000000000020000020001000000004000000000000000000000000000000000000000000007000000000000000003450a00000000000000000000000000000000000000000c000002000200000001ffffffffffffffffffffffffffffffff0000000000000c000002000200000000ffffffffffffffffffffffff000000000000000000000e000000000400000041030000000000000000000000000000000000000000001a040002000200000002000000000000000000000000000000000000000000000c000004000400000001000000000000000000000000000000000000000000000c000004000400000000000000000000000000000000ffffffff0000000000001a010004000400000002000000000000000000000000000000000000000000001a040002000200000004000000000000000000000000000000000000000000000e000002000000000040030000000000000000000000000000000000000000000e0000000002000000610a000000000000000000000000000000000000000000180000020001000000002000000000000000000000000000000000000000000007000000000000000003c70a000000000000000000000000000000000000000004010000000000000000000000000000000000000000000000000000000000000a0000000000000000042e08bb060000000000000000000000000000000000000e000000000200000041000000000000000000000000000000000000000000001a000002000200000002ffffffff000000000000000000000000000000000000020000020002000000001f0000000000000000000000000000000000000000001a000002000800000002e0ffffff0100000000000000000000000000000000000e0000000002000000610b00000000000000000000000000000000000000000002080002000200000000000000000000000000000000000000000000000000000c000004000400000001010000000000000000000000000000000000000000000c0000040004000000000000000000000000000000000000000000000000000004020008000000000000000000000000000000000000000000000000000000000a000000000000000002c706c5060000000000000000000000000000000000000c000004000400000001000000000000000000000000000000000000000000000c000004000400000000000000000000000000000000000000000000000000000c000008000800000001ffffffffffffffff00000000000000000000000000000c0000080008000000000000000000000000000000000000000000000000000004020008000000000000000000000000000000000000000000000000000000000a000000000000000008da07cb0600000000000000000000000000000000000004040000000000000000000000000000000000000000000000000000000000000a00000000000000000ada07cd060000000000000000000000000000000000000e000002000000000020020000000000000000000000000000000000000000000e000000000200000061080000000000000000000000000000000000000000000e000002000000000020000000000000000000000000000000000000000000000c000002000200000001020000000000000000000000000000000000000000000c000002000200000000000000000000000000000000000000000000000000000e0000020000000000200100000000000000000000000000000000000000000010000000000000000000000000000000000000000000000000000000000000000c000004000400000001400000000000000000000000000000000000000000000c000004000400000000000000000000000000000000000000000000000000000e000004000000000040000000000000000000000000000000000000000000000c000004000400000001000000000000000000000000000000000000000000000c000004000400000000000000000000000000000000000000000000000000000c000008000800000001200000000000000000000000000000000000000000000c00000800080000000000000000000000000000000000000000000000000000180000040010000000000500000000000000000000000000000000000000000008100008001000000000000000000000000000000000000000000000000000000e100000002000000021000000000000000000000000000000000000000000000e10002000000000004001000000000000000000000000000000000000000000020000040004000000000100000000000000000000000000000000000000000004040002000000000000000000000000000000000000000000000000000000000a000000000000000002db06e2060000000000000000000000000000000000000c00000100010000000100000000ff03000000000000000000000000000000000c0000010001000000000000000000000000000000000000000000000000000007000000000000000003bf0a00000000000000000000000000000000000000000e000000000200000041010000000000000000000000000000000000000000000e000000000400000061070000000000000000000000000000000000000000000e000004000000000020000000000000000000000000000000000000000000000e0000020000000000200100000000000000000000000000000000000000000010000000000000000000000000000000000000000000000000000000000000000c000002000200000001400000000000000000000000000000000000000000000c000002000200000000000000000000000000000000000000000000000000000e000002000000000040000000000000000000000000000000000000000000000c000002000200000001000000000000000000000000000000000000000000000c000002000200000000000000000000000000000000000000000000000000000c000004000400000001200000000000000000000000000000000000000000000c000004000400000000000000000000000000000000000000000000000000000c000008000800000001020000000000000000000000000000000000000000000c00000800080000000000000000000000000000000000000000000000000000180000020010000000000500000000000000000000000000000000000000000008100004001000000000000000000000000000000000000000000000000000000e100000002000000021000000000000000000000000000000000000000000000e10002000000000004001000000000000000000000000000000000000000000020000020002000000000100000000000000000000000000000000000000000004020008000000000000000000000000000000000000000000000000000000000a000000000000000002f306fa060000000000000000000000000000000000000c00000100010000000100000000ff03000000000000000000000000000000000c0000010001000000000000000000000000000000000000000000000000000007000000000000000003bf0a00000000000000000000000000000000000000000e0000000002000000410100000000000000000000000000000000000000000005020000000400000001000000000000000000000000000000000000000000000c000008000800000001000000000000000000000000000000000000000000000c00000800080000000000000000ffffffffffffffffffffffff0000000000001a040008000400000002000000000000000000000000000000000000000000000e0000000008000000610a0000000000000000000000000000000000000000001a0400080004000000040000000000000000000000000000000000000000000005020004000000000000000000000000000000000000000000000000000000000e000000000200000061070000000000000000000000000000000000000000000e000002000000000020000000000000000000000000000000000000000000000c000002000200000001020000000000000000000000000000000000000000000c000002000200000000000000000000000000000000000000000000000000000e0000020000000000200100000000000000000000000000000000000000000010000000000000000000000000000000000000000000000000000000000000000c000004000400000001400000000000000000000000000000000000000000000c000004000400000000000000000000000000000000000000000000000000000e000004000000000040000000000000000000000000000000000000000000000c000004000400000001000000000000000000000000000000000000000000000c000004000400000000000000000000000000000000000000000000000000000c000008000800000001200000000000000000000000000000000000000000000c00000800080000000000000000000000000000000000000000000000000000180000040010000000000500000000000000000000000000000000000000000008100008001000000000000000000000000000000000000000000000000000000e100000002000000021000000000000000000000000000000000000000000000e10002000000000004001000000000000000000000000000000000000000000020000040004000000000100000000000000000000000000000000000000000004040002000000000000000000000000000000000000000000000000000000000a000000000000000002120719070000000000000000000000000000000000000c00000100010000000100000000ff03000000000000000000000000000000000c0000010001000000000000000000000000000000000000000000000000000007000000000000000003bf0a00000000000000000000000000000000000000000e000000000200000041010000000000000000000000000000000000000000000e000000000400000061080000000000000000000000000000000000000000000e000004000000000020000000000000000000000000000000000000000000000e0000020000000000200100000000000000000000000000000000000000000010000000000000000000000000000000000000000000000000000000000000000c000002000200000001400000000000000000000000000000000000000000000c000002000200000000000000000000000000000000000000000000000000000e000002000000000040000000000000000000000000000000000000000000000c000002000200000001000000000000000000000000000000000000000000000c000002000200000000000000000000000000000000000000000000000000000c000004000400000001200000000000000000000000000000000000000000000c000004000400000000000000000000000000000000000000000000000000000c000008000800000001020000000000000000000000000000000000000000000c00000800080000000000000000000000000000000000000000000000000000180000020010000000000500000000000000000000000000000000000000000008100004001000000000000000000000000000000000000000000000000000000e100000002000000021000000000000000000000000000000000000000000000e10002000000000004001000000000000000000000000000000000000000000020000020002000000000100000000000000000000000000000000000000000004020008000000000000000000000000000000000000000000000000000000000a0000000000000000022a0731070000000000000000000000000000000000000c00000100010000000100000000ff03000000000000000000000000000000000c0000010001000000000000000000000000000000000000000000000000000007000000000000000003bf0a00000000000000000000000000000000000000000e0000000002000000410100000000000000000000000000000000000000000005020000000400000001000000000000000000000000000000000000000000000c000008000800000001000000000000000000000000000000000000000000000c00000800080000000000000000ffffffffffffffffffffffff0000000000001a040008000400000002000000000000000000000000000000000000000000000e0000000020000000610a0000000000000000000000000000000000000000001a0400200004000000040000000000000000000000000000000000000000000005020004000000000000000000000000000000000000000000000000000000000c000004000400000001030000000000000000000000000000000000000000000c0000040004000000000000000000000000000000000000000000000000000005040000000200000001000000000000000000000000000000000000000000000c000008000800000001ffffffffffffffff00000000000000000000000000000c0000080008000000000000000000000000000000000000000000000000000004020008000000000000000000000000000000000000000000000000000000000a000000000000000008f9074307000000000000000000000000000000000000020000020008000000000100000000000000000000000000000000000000000005040008000000000000000000000000000000000000000000000000000000000c000004000400000001030000000000000000000000000000000000000000000c000004000400000000000000000000000000000000000000000000000000000e000004000000000020000000000000000000000000000000000000000000000c0000080008000000015bf8716f4416255ed002053b5a39c3690000000000000c00000800080000000028db122fc9f859f9003c599e0e5a57c2000000000000020200080002000000000000000000000000000000000000000000000000000005020000000800000001000000000000000000000000000000000000000000000c000010001000000001000000000000000000000000000000000000000000000c00001000100000000000000000ffffffffffffffffffffffff0000000000001a080010000800000002000000000000000000000000000000000000000000001a08002000080000000400000000000000000000000000000000000000000000050200080000000000000000000000000000000000000000000000000000000005040000000200000001000000000000000000000000000000000000000000000e0000020000000000600c0000000000000000000000000000000000000000000e000000000200000021020000000000000000000000000000000000000000000e0000020000000000600d000000000000000000000000000000000000000000022000000001000000000000000000000000000000000000000000000000000007000000000000000003810a00000000000000000000000000000000000000000e0000000002000000610d00000000000000000000000000000000000000000002000002000200000000200000000000000000000000000000000000000000000e0000000001000000610c00000000000000000000000000000000000000000007000000000000000003810a00000000000000000000000000000000000000000e0000000008000000610d0000000000000000000000000000000000000000000c000002000200000001e9d028fa1ae3fddecd5583adf015d3d90000000000000c00000200020000000085c55a27a93ba33401a86b0fbd48360d0000000000000c000004000400000001030000004000000000000000000000000000000000000c000004000400000000000000000000000000000000000000000000000000000504000200000000000a000000000000000000000000000000000000000000000e000000000200000061080000000000000000000000000000000000000000000e00000000040000006107000000000000000000000000000000000000000000050200040000000000020000000000000000000000000000000000000000000002000008001000000000400000000000000000000000000000000000000000000c000002000200000001c0ffffffffffffffffffffffffffffff0000000000000c000002000200000000ffffffffffffffffffffffffffffffff0000000000000e0000100000000000600c00000000000000000000000000000000000000000004080002000000000000000000000000000000000000000000000000000000000a00000000000000000c6a0773070000000000000000000000000000000000000e000000000100000061090000000000000000000000000000000000000000000e0000000000000000e10c00000000000000000000000000000000000000000007000000000000000000000000000000000000000000000000000000000000000c000002000200000001000000000000000000000000000000000000000000000c000002000200000000000000000000000000000000000000000000000000000520000200000000000200000000000000000000000000000000000000000000020000080008000000004000000000000000000000000000000000000000000004100008000000000000000000000000000000000000000000000000000000000a00000000000000000873076a070000000000000000000000000000000000000e0000080000000000600d000000000000000000000000000000000000000000020800000001000000000000000000000000000000000000000000000000000007000000000000000003450a00000000000000000000000000000000000000000e0000000010000000610c0000000000000000000000000000000000000000000e0000000008000000610d000000000000000000000000000000000000000000041000080002000000000000000000000000000000000000000000000000000002010000002000000000000000000000000000000000000000000000000000000c0000040004000000013f0000000000000000000000000000000000000000000c0000040004000000000000000000000000000000000000000000000000000004020004000000000000000000000000000000000000000000000000000000000a0000000000000000087e076d0700000000000000000000000000000000000002000008000100000000200000000000000000000000000000000000000000000e0000200000000000600b00000000000000000000000000000000000000000007000000000000000003450a00000000000000000000000000000000000000000e0000000010000000610c0000000000000000000000000000000000000000000e0000000008000000610d0000000000000000000000000000000000000000000e0000000002000000610b00000000000000000000000000000000000000000005020001000000000002000000000000000000000000000000000000000000000a000000000000000001700770070000000000000000000000000000000000000c000002000200000001000000000000000000000000000000000000000000000c000002000200000000000000000000000000000000717b484e0000000000000e000002000000000020000000000000000000000000000000000000000000000c000001000100000001410000000000000000000000000000000000000000000c000001000100000000000000000000000000000000000000000000000000000c000002000200000001040000000000000000000000000000000000000000000c0000020002000000000000000000000000000000000000000000000000000007000000000000000003810a00000000000000000000000000000000000000000c000002000200000001240000000000000000000000000000000000000000000c000002000200000000000000000000000000000000000000000000000000000e000002000000000000000000000000000000000000000000000000000000000c000004000400000001000000000000000000000000000000000000000000000c000004000400000000000000000000000000000000000000000000000000000c000002000200000001200000000000000000000000000000000000000000000c000002000200000000000000000000000000000000000000000000000000000a00000000000000000199079907000000000000000000000000000000000000020800000004000000000000000000000000000000000000000000000000000004100000000000000000000000000000000000000000000000000000000000000a00000000000000000a9907c407000000000000000000000000000000000000180000040008000000000500000000000000000000000000000000000000000008080002000800000000000000000000000000000000000000000000000000000e080000001000000021000000000000000000000000000000000000000000000e0800100000000000000100000000000000000000000000000000000000000002000004000800000000010000000000000000000000000000000000000000000c000010001000000001010000000000000000000000000000000000000000000c0000100010000000000000000000000000000000000000000000000000000004080004000000000000000000000000000000000000000000000000000000000a0000000000000000029607a2070000000000000000000000000000000000000c000010001000000001000000000000000000000000000000000000000000000c000010001000000000000000000000000000000000000000000000000000000a000000000000000001960796070000000000000000000000000000000000000c000002000200000001000000000000000000000000000000000000000000000c000002000200000000000000000000000000000000717b484e0000000000000e000002000000000020000000000000000000000000000000000000000000000c000001000100000001410000000000000000000000000000000000000000000c000001000100000000000000000000000000000000000000000000000000000c000002000200000001040000000000000000000000000000000000000000000c0000020002000000000000000000000000000000000000000000000000000007000000000000000003810a00000000000000000000000000000000000000000c000002000200000001240000000000000000000000000000000000000000000c000002000200000000000000000000000000000000000000000000000000000e000002000000000000000000000000000000000000000000000000000000000c000002000200000001000000000000000000000000000000000000000000000c000002000200000000000000000000000000000000000000000000000000000c000010001000000001200000000000000000000000000000000000000000000c000010001000000000000000000000000000000000000000000000000000000a000000000000000001b807b807000000000000000000000000000000000000020400000002000000000000000000000000000000000000000000000000000004080000000000000000000000000000000000000000000000000000000000000a00000000000000000ab807cf07000000000000000000000000000000000000180000020004000000000500000000000000000000000000000000000000000008040010000400000000000000000000000000000000000000000000000000000e040000000800000021000000000000000000000000000000000000000000000e0400080000000000000100000000000000000000000000000000000000000002000002000400000000010000000000000000000000000000000000000000000c000008000800000001010000000000000000000000000000000000000000000c0000080008000000000000000000000000000000000000000000000000000004040002000000000000000000000000000000000000000000000000000000000a000000000000000002b507c1070000000000000000000000000000000000000c000008000800000001000000000000000000000000000000000000000000000c000008000800000000000000000000000000000000000000000000000000000a000000000000000001b507b5070000000000000000000000000000000000000c000002000200000001ffffffffffffffffffffffffffffffff0000000000000c000002000200000000ffffffffffffffffffffffff000000000000000000000e000000000400000001020000000000000000000000000000000000000000001a040002000200000002000000000000000000000000000000000000000000000c000004000400000001000000000000000000000000000000000000000000000c000004000400000000000000000000000000000000ffffffff0000000000000e000000000800000021010000000000000000000000000000000000000000001a080004000400000002000000000000000000000000000000000000000000001a040002000200000004000000000000000000000000000000000000000000000e000002000000000000020000000000000000000000000000000000000000000a000000000000000001a108a1080000000000000000000000000000000000000c000002000200000001ffffffffffffffffffffffffffffffff0000000000000c000002000200000000ffffffffffffffffffffffff000000000000000000000e000000000400000001020000000000000000000000000000000000000000001a040002000200000002000000000000000000000000000000000000000000000c000004000400000001000000000000000000000000000000000000000000000c000004000400000000000000000000000000000000ffffffff0000000000000e000000000800000021010000000000000000000000000000000000000000001a080004000400000002000000000000000000000000000000000000000000001a040002000200000004000000000000000000000000000000000000000000000e000002000000000000020000000000000000000000000000000000000000000a000000000000000001a108a1080000000000000000000000000000000000000c000002000200000001000000000000000000000000000000000000000000000c000002000200000000000000000000000000000000717b484e0000000000000e000002000000000020000000000000000000000000000000000000000000000c000001000100000001410000000000000000000000000000000000000000000c000001000100000000000000000000000000000000000000000000000000000c000002000200000001040000000000000000000000000000000000000000000c0000020002000000000000000000000000000000000000000000000000000007000000000000000003810a00000000000000000000000000000000000000000c000002000200000001240000000000000000000000000000000000000000000c000002000200000000000000000000000000000000000000000000000000000e000002000000000000000000000000000000000000000000000000000000000c000004000400000001000000000000000000000000000000000000000000000c000004000400000000000000000000000000000000000000000000000000000c000002000200000001200000000000000000000000000000000000000000000c000002000200000000000000000000000000000000000000000000000000000a000000000000000001ed07ed07000000000000000000000000000000000000020800000004000000000000000000000000000000000000000000000000000004100000000000000000000000000000000000000000000000000000000000000a00000000000000000aed071808000000000000000000000000000000000000180000040008000000000500000000000000000000000000000000000000000008080002000800000000000000000000000000000000000000000000000000000e080000001000000021000000000000000000000000000000000000000000000e0800100000000000000100000000000000000000000000000000000000000002000004000800000000010000000000000000000000000000000000000000000c000010001000000001010000000000000000000000000000000000000000000c0000100010000000000000000000000000000000000000000000000000000004080004000000000000000000000000000000000000000000000000000000000a000000000000000002ea07f6070000000000000000000000000000000000000c000010001000000001000000000000000000000000000000000000000000000c000010001000000000000000000000000000000000000000000000000000000a000000000000000001ea07ea070000000000000000000000000000000000000c000002000200000001000000000000000000000000000000000000000000000c000002000200000000000000000000000000000000717b484e0000000000000e000002000000000020000000000000000000000000000000000000000000000c000001000100000001410000000000000000000000000000000000000000000c000001000100000000000000000000000000000000000000000000000000000c000002000200000001040000000000000000000000000000000000000000000c0000020002000000000000000000000000000000000000000000000000000007000000000000000003810a00000000000000000000000000000000000000000c000002000200000001240000000000000000000000000000000000000000000c000002000200000000000000000000000000000000000000000000000000000e000002000000000000000000000000000000000000000000000000000000000c000004000400000001000000000000000000000000000000000000000000000c000004000400000000000000000000000000000000000000000000000000000c000002000200000001200000000000000000000000000000000000000000000c000002000200000000000000000000000000000000000000000000000000000a0000000000000000010c080c08000000000000000000000000000000000000020800000004000000000000000000000000000000000000000000000000000004100000000000000000000000000000000000000000000000000000000000000a00000000000000000a0c082308000000000000000000000000000000000000180000040008000000000500000000000000000000000000000000000000000008080002000800000000000000000000000000000000000000000000000000000e080000001000000021000000000000000000000000000000000000000000000e0800100000000000000100000000000000000000000000000000000000000002000004000800000000010000000000000000000000000000000000000000000c000010001000000001010000000000000000000000000000000000000000000c0000100010000000000000000000000000000000000000000000000000000004080004000000000000000000000000000000000000000000000000000000000a000000000000000002090815080000000000000000000000000000000000000c000010001000000001000000000000000000000000000000000000000000000c000010001000000000000000000000000000000000000000000000000000000a000000000000000001090809080000000000000000000000000000000000000c000002000200000001ffffffffffffffffffffffffffffffff0000000000000c000002000200000000ffffffffffffffffffffffff000000000000000000000e000000000400000001020000000000000000000000000000000000000000001a040002000200000002000000000000000000000000000000000000000000000c000004000400000001000000000000000000000000000000000000000000000c000004000400000000000000000000000000000000ffffffff0000000000000e000000000800000021010000000000000000000000000000000000000000001a080004000400000002000000000000000000000000000000000000000000001a040002000200000004000000000000000000000000000000000000000000000e000002000000000000020000000000000000000000000000000000000000000a000000000000000001a108a1080000000000000000000000000000000000000c000002000200000001ffffffffffffffffffffffffffffffff0000000000000c000002000200000000ffffffffffffffffffffffff000000000000000000000e000000000400000001020000000000000000000000000000000000000000001a040002000200000002000000000000000000000000000000000000000000000c000004000400000001000000000000000000000000000000000000000000000c000004000400000000000000000000000000000000ffffffff0000000000000e000000000800000021010000000000000000000000000000000000000000001a080004000400000002000000000000000000000000000000000000000000001a040002000200000004000000000000000000000000000000000000000000000e000002000000000000020000000000000000000000000000000000000000000a000000000000000001a108a1080000000000000000000000000000000000000c000008000800000001000000000000000000000000000000000000000000000c000008000800000000000000000000000000000000000000000000000000000e000000000200000021020000000000000000000000000000000000000000000e0000020000000000600d0000000000000000000000000000000000000000000e000000000200000041000000000000000000000000000000000000000000001a0000020004000000021f0000000000000000000000000000000000000000000e0000040000000000600a0000000000000000000000000000000000000000001a000002000200000002e0ffffff0000000000000000000000000000000000000e0000020000000000600900000000000000000000000000000000000000000018000002000200000002050000000000000000000000000000000000000000000e0000020000000000600b00000000000000000000000000000000000000000004020000000000000000000000000000000000000000000000000000000000000a00000000000000000449083b080000000000000000000000000000000000000e0000080000000000600c00000000000000000000000000000000000000000018000008000400000000050000000000000000000000000000000000000000000e0000000002000000610d00000000000000000000000000000000000000000002020004000200000000000000000000000000000000000000000000000000000c000008000800000001200000000000000000000000000000000000000000000c0000080008000000000000000000000000000000000000000000000000000008040008000400000000000000000000000000000000000000000000000000000e0400000001000000410100000000000000000000000000000000000000000007000000000000000003810a00000000000000000000000000000000000000000e0000000008000000610c00000000000000000000000000000000000000000002000008000800000000010000000000000000000000000000000000000000000e0000000002000000610b00000000000000000000000000000000000000000004080002000000000000000000000000000000000000000000000000000000000a0000000000000000023b0849080000000000000000000000000000000000000e0000000002000000610d0000000000000000000000000000000000000000000e0000000002000000610a00000000000000000000000000000000000000000004020000000000000000000000000000000000000000000000000000000000000a00000000000000000469084d080000000000000000000000000000000000000e0000000002000000610a00000000000000000000000000000000000000000018000002000200000000030000000000000000000000000000000000000000000c000004000400000001000100000000000000000000000000000000000000000c0000040004000000000000000000000000000000000000000000000000000004040002000400000000000000000000000000000000000000000000000000000c000008000800000001ffffffffffffffffffffffffffffffff0000000000000c000008000800000000ffffffffffffffffffffffffffffffff00000000000018040008000400000000000000000000000000000000000000000000000000000c000010001000000001200000000000000000000000000000000000000000000c000010001000000000000000000000000000000000000000000000000000000e0000000020000000610900000000000000000000000000000000000000000008200010001000000000000000000000000000000000000000000000000000000e100000001000000041010000000000000000000000000000000000000000001a100004000400000002000000000000000000000000000000000000000000000e0000040000000000600c00000000000000000000000000000000000000000018020008000200000002000000000000000000000000000000000000000000000e0000020000000000600a0000000000000000000000000000000000000000000e0000000002000000610d00000000000000000000000000000000000000000002020020000200000000000000000000000000000000000000000000000000000e0000020000000000600b000000000000000000000000000000000000000000020200000001000000000000000000000000000000000000000000000000000007000000000000000003450a00000000000000000000000000000000000000000e0000000002000000610a0000000000000000000000000000000000000000001a010002000200000002000000000000000000000000000000000000000000000e0000000004000000610c0000000000000000000000000000000000000000001a040002000100000004000000000000000000000000000000000000000000000e0000000002000000610b00000000000000000000000000000000000000000007000000000000000003810a00000000000000000000000000000000000000000c000008000800000001000000000000000000000000000000000000000000000c000008000800000000000000000000000000000000000000000000000000000e000000000400000041000000000000000000000000000000000000000000001a0000040002000000021f0000000000000000000000000000000000000000000e000002000000000060090000000000000000000000000000000000000000000e000004000000000060080000000000000000000000000000000000000000001a000004000200000002ffffffff0000000000000000000000000000000000000e0000020000000000000000000000000000000000000000000000000000000018000002000200000002050000000000000000000000000000000000000000000e0000000004000000610d0000000000000000000000000000000000000000000e0000020000000000600a00000000000000000000000000000000000000000004020000000000000000000000000000000000000000000000000000000000000a000000000000000004860876080000000000000000000000000000000000000e0000080000000000600c00000000000000000000000000000000000000000018000008000400000000050000000000000000000000000000000000000000000e0000040000000000600b0000000000000000000000000000000000000000000e0000000002000000610d000000000000000000000000000000000000000000020200040001000000000000000000000000000000000000000000000000000007000000000000000003450a00000000000000000000000000000000000000000e0000000008000000610c0000000000000000000000000000000000000000000c000002000200000001200000000000000000000000000000000000000000000c000002000200000000000000000000000000000000000000000000000000000e0000000004000000610b00000000000000000000000000000000000000000008040002000200000000000000000000000000000000000000000000000000000e0200010000000000000100000000000000000000000000000000000000000002000008000800000000010000000000000000000000000000000000000000000e0000000002000000610a00000000000000000000000000000000000000000004080002000000000000000000000000000000000000000000000000000000000a000000000000000002760886080000000000000000000000000000000000000e0000000002000000610900000000000000000000000000000000000000000004020000000000000000000000000000000000000000000000000000000000000a000000000000000004a10889080000000000000000000000000000000000000e000000000200000061080000000000000000000000000000000000000000001a000002000400000002e0ffffff0000000000000000000000000000000000000e0000040000000000600c0000000000000000000000000000000000000000000e0000000002000000610d000000000000000000000000000000000000000000020200040001000000000000000000000000000000000000000000000000000007000000000000000003450a00000000000000000000000000000000000000000c000002000200000001200000000000000000000000000000000000000000000c000002000200000000000000000000000000000000000000000000000000000e0000000004000000610c00000000000000000000000000000000000000000008040002000200000000000000000000000000000000000000000000000000000e0000000004000000610900000000000000000000000000000000000000000018000004000400000000030000000000000000000000000000000000000000000c000008000800000001ffffffffffffffffffffffffffffffff0000000000000c000008000800000000ffffffffffffffffffffffffffffffff00000000000018040008001000000002000000000000000000000000000000000000000000000e020000002000000001010000000000000000000000000000000000000000001a200010001000000002000000000000000000000000000000000000000000000c000020002000000001000100000000000000000000000000000000000000000c00002000200000000000000000000000000000000000000000000000000000042000040004000000000000000000000000000000000000000000000000000018040008000400000000000000000000000000000000000000000000000000001a010004000400000002000000000000000000000000000000000000000000001a040010000400000004000000000000000000000000000000000000000000000e020004000000000000010000000000000000000000000000000000000000000e0000000000000000e10c00000000000000000000000000000000000000000007000000000000000004000000000000000000000000000000000000000000000e0000000000000000e00200000000000000000000000000000000000000000004010000000000000000000000000000000000000000000000000000000000000a000000000000000004a808a6080000000000000000000000000000000000000e0000000000000000e10200000000000000000000000000000000000000000007000000000000000000000000000000000000000000000000000000000000000c000001000100000001000000000000000000000000000000000000000000000c000001000100000000000000000000000000000000a079c3080000000000000e000000000200000021020000000000000000000000000000000000000000000e0000020000000000600100000000000000000000000000000000000000000007000000000000000003810a00000000000000000000000000000000000000000e0000000002000000610100000000000000000000000000000000000000000002000002000200000000040000000000000000000000000000000000000000000c000001000100000001200000000000000000000000000000000000000000000c0000010001000000000000000000000000000000000000000000000000000007000000000000000003810a00000000000000000000000000000000000000000e0000000002000000610100000000000000000000000000000000000000000002000002000200000000240000000000000000000000000000000000000000000c000001000100000001180000000000000000000000000000000000000000000c0000010001000000000000000000000000000000000000000000000000000007000000000000000003810a00000000000000000000000000000000000000000e0000000002000000610100000000000000000000000000000000000000000002000002000200000000440000000000000000000000000000000000000000000c00000100010000000100000000000000004e4544444942524f0000000000000c00000100010000000046203a79726f7463614670617773584400000000000007000000000000000003810a00000000000000000000000000000000000000000c000002000200000001640000000000000000000000000000000000000000000c000002000200000000000000000000000000000000000000000000000000000e000002000000000000000000000000000000000000000000000000000000000c000002000200000001000000000000000000000000000000000000000000000c000002000200000000000000000000000000000000000000000000000000000e0000020000000000600300000000000000000000000000000000000000000018000002000400000000050000000000000000000000000000000000000000000e000004000000000060020000000000000000000000000000000000000000000e00000000020000006101000000000000000000000000000000000000000000020200040001000000000000000000000000000000000000000000000000000007000000000000000003450a00000000000000000000000000000000000000000c000002000200000001200000000000000000000000000000000000000000000c000002000200000000000000000000000000000000000000000000000000000e0000000004000000610200000000000000000000000000000000000000000008040002000200000000000000000000000000000000000000000000000000000e020001000000000000010000000000000000000000000000000000000000000e0000000002000000610300000000000000000000000000000000000000000002000002000200000000010000000000000000000000000000000000000000000c000004000400000001030000000000000000000000000000000000000000000c0000040004000000000000000000000000000000000000000000000000000004020004000000000000000000000000000000000000000000000000000000000a000000000000000002c108d2080000000000000000000000000000000000000e00000000020000006101000000000000000000000000000000000000000000020000020001000000006000000000000000000000000000000000000000000007000000000000000003450a00000000000000000000000000000000000000000c000002000200000001ffffffffffffffffffffffffffffffff0000000000000c000002000200000000ffffffffffffffffffffffff000000000000000000000e000000000400000001040000000000000000000000000000000000000000001a040002000200000002000000000000000000000000000000000000000000000c000004000400000001000000000000000000000000000000000000000000000c000004000400000000000000000000000000000000ffffffff0000000000001a010004000400000002000000000000000000000000000000000000000000001a040002000200000004000000000000000000000000000000000000000000000e000002000000000000040000000000000000000000000000000000000000000e0000000000000000e10200000000000000000000000000000000000000000007000000000000000004000000000000000000000000000000000000000000000e0000000000000000e0020000000000000000000000000000000000000000000e000001000000000060030000000000000000000000000000000000000000000c000002000200000001010000000000000000000000000000000000000000000c0000020002000000000000000000000000000000000000000000000000000005020000000800000001000000000000000000000000000000000000000000000c000004000400000001ffffffffffffffffffffffffffffffff0000000000000c000004000400000000ffffffff0000000000000000000000000000000000000e000008000000000060020000000000000000000000000000000000000000001a08000400040000000200000000000000000000000000000000000000000000140000000008000000000000000000000000000000000000000000000000000004080004000000000000000000000000000000000000000000000000000000000a000000000000000004ee08ec080000000000000000000000000000000000000c000002000200000001000000000000000000000000000000000000000000000c000002000200000000000000000000000000000000000000000000000000001a0000020001000000020100000000000000000000000000000000000000000007000000000000000003a30800000000000000000000000000000000000000000a0000000000000000020309f1080000000000000000000000000000000000000e000000000400000061030000000000000000000000000000000000000000001a000004000200000002ff00000000000000000000000000000000000000000004020000000000000000000000000000000000000000000000000000000000000a0000000000000000040509f5080000000000000000000000000000000000000c000002000200000001ffffffffffffffffffffffffffffffff0000000000000c000002000200000000ffffffff00ffffffffffffffffffffff0000000000000e000000000800000061020000000000000000000000000000000000000000001a0800020002000000020000000000000000000000000000000000000000000018000004000400000000a00000000000000000000000000000000000000000000c000008000800000001000000000000000000000000000000000000000000000c00000800080000000000000000ff00000000000000000000000000000000001a040008000400000002000000000000000000000000000000000000000000001a020004000200000004000000000000000000000000000000000000000000000c000004000400000001010000000000000000000000000000000000000000000c0000040004000000000000000000000000000000000000000000000000000005040002000000000000000000000000000000000000000000000000000000000e0000000000000000e10200000000000000000000000000000000000000000007000000000000000000000000000000000000000000000000000000000000000e0000000000000000e10200000000000000000000000000000000000000000007000000000000000004000000000000000000000000000000000000000000000c000001000100000001000000000000000000000000000000000000000000000c000001000100000000000000000000000000000000a079c3080000000000000e000000000200000021020000000000000000000000000000000000000000000e0000020000000000600100000000000000000000000000000000000000000007000000000000000003810a00000000000000000000000000000000000000000e0000000002000000610100000000000000000000000000000000000000000002000002000200000000040000000000000000000000000000000000000000000c000001000100000001200000000000000000000000000000000000000000000c0000010001000000000000000000000000000000000000000000000000000007000000000000000003810a00000000000000000000000000000000000000000e0000000002000000610100000000000000000000000000000000000000000002000002000200000000240000000000000000000000000000000000000000000c0000010001000000011c0000000000000000000000000000000000000000000c0000010001000000000000000000000000000000000000000000000000000007000000000000000003810a00000000000000000000000000000000000000000e0000000002000000610100000000000000000000000000000000000000000002000002000200000000440000000000000000000000000000000000000000000c000001000100000001000000004545465f4e4544444942524f0000000000000c00000100010000000046203a79726f7463614670617773584400000000000007000000000000000003810a00000000000000000000000000000000000000000c000002000200000001640000000000000000000000000000000000000000000c000002000200000000000000000000000000000000000000000000000000000e000002000000000000000000000000000000000000000000000000000000000c000002000200000001000000000000000000000000000000000000000000000c000002000200000000000000000000000000000000000000000000000000000e0000020000000000600300000000000000000000000000000000000000000018000002000400000000050000000000000000000000000000000000000000000e000004000000000060020000000000000000000000000000000000000000000e00000000020000006101000000000000000000000000000000000000000000020200040001000000000000000000000000000000000000000000000000000007000000000000000003450a00000000000000000000000000000000000000000c000002000200000001200000000000000000000000000000000000000000000c000002000200000000000000000000000000000000000000000000000000000e0000000004000000610200000000000000000000000000000000000000000008040002000200000000000000000000000000000000000000000000000000000e020001000000000000010000000000000000000000000000000000000000000e0000000002000000610300000000000000000000000000000000000000000002000002000200000000010000000000000000000000000000000000000000000c000004000400000001030000000000000000000000000000000000000000000c0000040004000000000000000000000000000000000000000000000000000004020004000000000000000000000000000000000000000000000000000000000a0000000000000000021e092f090000000000000000000000000000000000000e00000000020000006101000000000000000000000000000000000000000000020000020001000000006000000000000000000000000000000000000000000007000000000000000003450a00000000000000000000000000000000000000000c000002000200000001ffffffffffffffffffffffffffffffff0000000000000c000002000200000000ffffffffffffffffffffffff000000000000000000000e000000000400000001040000000000000000000000000000000000000000001a040002000200000002000000000000000000000000000000000000000000000c000004000400000001000000000000000000000000000000000000000000000c000004000400000000000000000000000000000000ffffffff0000000000001a010004000400000002000000000000000000000000000000000000000000001a040002000200000004000000000000000000000000000000000000000000000e000002000000000000040000000000000000000000000000000000000000000e0000000000000000e10200000000000000000000000000000000000000000007000000000000000004000000000000000000000000000000000000000000000e0000000000000000e0050000000000000000000000000000000000000000000e000002000000000060050000000000000000000000000000000000000000000e000001000000000060060000000000000000000000000000000000000000000c000002000200000001010000000000000000000000000000000000000000000c0000020002000000000000000000000000000000000000000000000000000005020000000400000001000000000000000000000000000000000000000000000c000008000800000001ffffffffffffffffffffffffffffffff0000000000000c000008000800000000ffffffff0000000000000000000000000000000000001a04000800040000000200000000000000000000000000000000000000000000140000000008000000000000000000000000000000000000000000000000000004080004000000000000000000000000000000000000000000000000000000000a0000000000000000044b0949090000000000000000000000000000000000000c000002000200000001000000000000000000000000000000000000000000000c000002000200000000000000000000000000000000000000000000000000001a0000020001000000020100000000000000000000000000000000000000000007000000000000000003a30800000000000000000000000000000000000000000a0000000000000000024e094f090000000000000000000000000000000000000a000000000000000001430a430a0000000000000000000000000000000000000c000001000100000001000000000000000000000000000000000000000000000c000001000100000000000000000000000000000000c388d7d60000000000000e000000000200000021020000000000000000000000000000000000000000000e0000020000000000600400000000000000000000000000000000000000000007000000000000000003810a00000000000000000000000000000000000000000e000000000200000061050000000000000000000000000000000000000000001a000002000100000002ffffffff0000000000000000000000000000000000000e00000000020000006104000000000000000000000000000000000000000000020000020002000000000400000000000000000000000000000000000000000007000000000000000003810a00000000000000000000000000000000000000000c000002000200000001ffffffffffffffffffffffffffffffff0000000000000c000002000200000000ffffffff0000000000000000000000000000000000000e000000000400000061060000000000000000000000000000000000000000001a040002000400000002000000000000000000000000000000000000000000000c000002000200000001040000000000000000000000000000000000000000000c0000020002000000000000000000000000000000000000000000000000000004040002000000000000000000000000000000000000000000000000000000000a000000000000000004910961090000000000000000000000000000000000000e0000040000000000600300000000000000000000000000000000000000000010000000000000000000000000000000000000000000000000000000000000000c000002000200000001240000000000000000000000000000000000000000000c000002000200000000000000000000000000000000000000000000000000000e000002000000000040000000000000000000000000000000000000000000000c000008000800000001000000000000000000000000000000000000000000000c000008000800000000000000000000000000000000000000000000000000000e000000000200000061040000000000000000000000000000000000000000000a0000000000000000016e096e0900000000000000000000000000000000000002020000000800000000000000000000000000000000000000000000000000000e0000000002000000610400000000000000000000000000000000000000000004040000000000000000000000000000000000000000000000000000000000000a00000000000000000a6e0981090000000000000000000000000000000000000e0000080000000000600600000000000000000000000000000000000000000018000008000400000000050000000000000000000000000000000000000000000e00000400000000006005000000000000000000000000000000000000000000020200040001000000000000000000000000000000000000000000000000000007000000000000000003450a00000000000000000000000000000000000000000c000002000200000001200000000000000000000000000000000000000000000c000002000200000000000000000000000000000000000000000000000000000e0000000004000000610500000000000000000000000000000000000000000008040002000200000000000000000000000000000000000000000000000000000e020001000000000040010000000000000000000000000000000000000000000e0000000008000000610600000000000000000000000000000000000000000002000008000200000000010000000000000000000000000000000000000000000c000004000400000001010000000000000000000000000000000000000000000c0000040004000000000000000000000000000000000000000000000000000004020008000000000000000000000000000000000000000000000000000000000a0000000000000000026a097e090000000000000000000000000000000000000c000004000400000001000000000000000000000000000000000000000000000c000004000400000000000000000000000000000000000000000000000000000a0000000000000000016a096a09000000000000000000000000000000000000020000020001000000002000000000000000000000000000000000000000000007000000000000000003450a00000000000000000000000000000000000000000c000002000200000001ffffffffffffffffffffffffffffffff0000000000000c000002000200000000ffffffffffffffffffffffff000000000000000000000e000000000400000041020000000000000000000000000000000000000000001a040002000200000002000000000000000000000000000000000000000000000c000004000400000001000000000000000000000000000000000000000000000c000004000400000000000000000000000000000000ffffffff0000000000001a010004000400000002000000000000000000000000000000000000000000001a040002000200000004000000000000000000000000000000000000000000000e000002000000000040020000000000000000000000000000000000000000000e00000000020000006103000000000000000000000000000000000000000000180000020001000000002000000000000000000000000000000000000000000007000000000000000003c70a000000000000000000000000000000000000000004010000000000000000000000000000000000000000000000000000000000000a000000000000000004d00991090000000000000000000000000000000000000e000000000200000041000000000000000000000000000000000000000000001a000002000200000002ffffffff000000000000000000000000000000000000020000020002000000001f0000000000000000000000000000000000000000001a000002000800000002e0ffffff0100000000000000000000000000000000000e0000000002000000610400000000000000000000000000000000000000000002080002000200000000000000000000000000000000000000000000000000000c000004000400000001010000000000000000000000000000000000000000000c0000040004000000000000000000000000000000000000000000000000000004020008000000000000000000000000000000000000000000000000000000000a0000000000000000029d099b090000000000000000000000000000000000000c000004000400000001000000000000000000000000000000000000000000000c000004000400000000000000000000000000000000000000000000000000000c000008000800000001ffffffffffffffff00000000000000000000000000000c0000080008000000000000000000000000000000000000000000000000000004020008000000000000000000000000000000000000000000000000000000000a000000000000000008a609a10900000000000000000000000000000000000004040000000000000000000000000000000000000000000000000000000000000a00000000000000000aa609a3090000000000000000000000000000000000000e000002000000000020020000000000000000000000000000000000000000000e0000000000000000e10500000000000000000000000000000000000000000007000000000000000000000000000000000000000000000000000000000000000c000002000200000001000000000000000000000000000000000000000000000c000002000200000000000000000000000000000000717b484e0000000000000e000002000000000020000000000000000000000000000000000000000000000c000001000100000001410000000000000000000000000000000000000000000c000001000100000000000000000000000000000000000000000000000000000c000002000200000001040000000000000000000000000000000000000000000c0000020002000000000000000000000000000000000000000000000000000007000000000000000003810a00000000000000000000000000000000000000000c000002000200000001240000000000000000000000000000000000000000000c000002000200000000000000000000000000000000000000000000000000000e000002000000000000000000000000000000000000000000000000000000000c000004000400000001000000000000000000000000000000000000000000000c000004000400000000000000000000000000000000000000000000000000000c000002000200000001200000000000000000000000000000000000000000000c000002000200000000000000000000000000000000000000000000000000000a000000000000000001b909b909000000000000000000000000000000000000020800000004000000000000000000000000000000000000000000000000000004100000000000000000000000000000000000000000000000000000000000000a00000000000000000ab909c509000000000000000000000000000000000000180000040008000000000500000000000000000000000000000000000000000008080002000800000000000000000000000000000000000000000000000000000e080000001000000021000000000000000000000000000000000000000000000e0800100000000000000100000000000000000000000000000000000000000002000004000800000000010000000000000000000000000000000000000000000c000010001000000001010000000000000000000000000000000000000000000c0000100010000000000000000000000000000000000000000000000000000004080004000000000000000000000000000000000000000000000000000000000a000000000000000002b609c2090000000000000000000000000000000000000c000010001000000001000000000000000000000000000000000000000000000c000010001000000000000000000000000000000000000000000000000000000a000000000000000001b609b6090000000000000000000000000000000000000c000002000200000001ffffffffffffffffffffffffffffffff0000000000000c000002000200000000ffffffffffffffffffffffff000000000000000000000e000000000400000001020000000000000000000000000000000000000000001a040002000200000002000000000000000000000000000000000000000000000c000004000400000001000000000000000000000000000000000000000000000c000004000400000000000000000000000000000000ffffffff0000000000000e000000000800000021010000000000000000000000000000000000000000001a080004000400000002000000000000000000000000000000000000000000001a040002000200000004000000000000000000000000000000000000000000000e000002000000000000020000000000000000000000000000000000000000000a000000000000000001430a430a0000000000000000000000000000000000000c000008000800000001000000000000000000000000000000000000000000000c000008000800000000000000000000000000000000000000000000000000000e000000000200000021020000000000000000000000000000000000000000000e000002000000000060060000000000000000000000000000000000000000000e000000000200000041000000000000000000000000000000000000000000001a0000020004000000021f0000000000000000000000000000000000000000000e000004000000000060030000000000000000000000000000000000000000001a000002000200000002e0ffffff0000000000000000000000000000000000000e0000020000000000600200000000000000000000000000000000000000000018000002000200000002050000000000000000000000000000000000000000000e0000020000000000600400000000000000000000000000000000000000000004020000000000000000000000000000000000000000000000000000000000000a000000000000000004eb09dd090000000000000000000000000000000000000e0000080000000000600500000000000000000000000000000000000000000018000008000400000000050000000000000000000000000000000000000000000e0000000002000000610600000000000000000000000000000000000000000002020004000200000000000000000000000000000000000000000000000000000c000008000800000001200000000000000000000000000000000000000000000c0000080008000000000000000000000000000000000000000000000000000008040008000400000000000000000000000000000000000000000000000000000e0400000001000000410100000000000000000000000000000000000000000007000000000000000003810a00000000000000000000000000000000000000000e0000000008000000610500000000000000000000000000000000000000000002000008000800000000010000000000000000000000000000000000000000000e0000000002000000610400000000000000000000000000000000000000000004080002000000000000000000000000000000000000000000000000000000000a000000000000000002dd09eb090000000000000000000000000000000000000e000000000200000061060000000000000000000000000000000000000000000e0000000002000000610300000000000000000000000000000000000000000004020000000000000000000000000000000000000000000000000000000000000a0000000000000000040b0aef090000000000000000000000000000000000000e0000000002000000610300000000000000000000000000000000000000000018000002000200000000030000000000000000000000000000000000000000000c000004000400000001000100000000000000000000000000000000000000000c0000040004000000000000000000000000000000000000000000000000000004040002000400000000000000000000000000000000000000000000000000000c000008000800000001ffffffffffffffffffffffffffffffff0000000000000c000008000800000000ffffffffffffffffffffffffffffffff00000000000018040008000400000000000000000000000000000000000000000000000000000c000010001000000001200000000000000000000000000000000000000000000c000010001000000000000000000000000000000000000000000000000000000e0000000020000000610200000000000000000000000000000000000000000008200010001000000000000000000000000000000000000000000000000000000e100000001000000041010000000000000000000000000000000000000000001a100004000400000002000000000000000000000000000000000000000000000e0000040000000000600500000000000000000000000000000000000000000018020008000200000002000000000000000000000000000000000000000000000e000002000000000060030000000000000000000000000000000000000000000e0000000002000000610600000000000000000000000000000000000000000002020020000200000000000000000000000000000000000000000000000000000e00000200000000006004000000000000000000000000000000000000000000020200000001000000000000000000000000000000000000000000000000000007000000000000000003450a00000000000000000000000000000000000000000e000000000200000061030000000000000000000000000000000000000000001a010002000200000002000000000000000000000000000000000000000000000e000000000400000061050000000000000000000000000000000000000000001a040002000100000004000000000000000000000000000000000000000000000e0000000002000000610400000000000000000000000000000000000000000007000000000000000003810a00000000000000000000000000000000000000000c000008000800000001000000000000000000000000000000000000000000000c000008000800000000000000000000000000000000000000000000000000000e000000000400000041000000000000000000000000000000000000000000001a0000040002000000021f0000000000000000000000000000000000000000000e000002000000000060020000000000000000000000000000000000000000000e000004000000000060010000000000000000000000000000000000000000001a000004000200000002ffffffff0000000000000000000000000000000000000e0000020000000000000000000000000000000000000000000000000000000018000002000200000002050000000000000000000000000000000000000000000e000000000400000061060000000000000000000000000000000000000000000e0000020000000000600300000000000000000000000000000000000000000004020000000000000000000000000000000000000000000000000000000000000a000000000000000004280a180a0000000000000000000000000000000000000e0000080000000000600500000000000000000000000000000000000000000018000008000400000000050000000000000000000000000000000000000000000e000004000000000060040000000000000000000000000000000000000000000e00000000020000006106000000000000000000000000000000000000000000020200040001000000000000000000000000000000000000000000000000000007000000000000000003450a00000000000000000000000000000000000000000e000000000800000061050000000000000000000000000000000000000000000c000002000200000001200000000000000000000000000000000000000000000c000002000200000000000000000000000000000000000000000000000000000e0000000004000000610400000000000000000000000000000000000000000008040002000200000000000000000000000000000000000000000000000000000e0200010000000000000100000000000000000000000000000000000000000002000008000800000000010000000000000000000000000000000000000000000e0000000002000000610300000000000000000000000000000000000000000004080002000000000000000000000000000000000000000000000000000000000a000000000000000002180a280a0000000000000000000000000000000000000e0000000002000000610200000000000000000000000000000000000000000004020000000000000000000000000000000000000000000000000000000000000a000000000000000004430a2b0a0000000000000000000000000000000000000e000000000200000061010000000000000000000000000000000000000000001a000002000400000002e0ffffff0000000000000000000000000000000000000e000004000000000060050000000000000000000000000000000000000000000e00000000020000006106000000000000000000000000000000000000000000020200040001000000000000000000000000000000000000000000000000000007000000000000000003450a00000000000000000000000000000000000000000c000002000200000001200000000000000000000000000000000000000000000c000002000200000000000000000000000000000000000000000000000000000e0000000004000000610500000000000000000000000000000000000000000008040002000200000000000000000000000000000000000000000000000000000e0000000004000000610200000000000000000000000000000000000000000018000004000400000000030000000000000000000000000000000000000000000c000008000800000001ffffffffffffffffffffffffffffffff0000000000000c000008000800000000ffffffffffffffffffffffffffffffff00000000000018040008001000000002000000000000000000000000000000000000000000000e020000002000000001010000000000000000000000000000000000000000001a200010001000000002000000000000000000000000000000000000000000000c000020002000000001000100000000000000000000000000000000000000000c00002000200000000000000000000000000000000000000000000000000000042000040004000000000000000000000000000000000000000000000000000018040008000400000000000000000000000000000000000000000000000000001a010004000400000002000000000000000000000000000000000000000000001a040010000400000004000000000000000000000000000000000000000000000e020004000000000000010000000000000000000000000000000000000000000e0000000000000000e10500000000000000000000000000000000000000000007000000000000000004000000000000000000000000000000000000000000000c000002000200000001e0ffffffffffffffffffffffffffffff0000000000000c000002000200000000ffffffffffffffffffffffffffffffff0000000000001a010002000200000002000000000000000000000000000000000000000000000c000004000400000001200000000000000000000000000000000000000000000c0000040004000000000000000000000000000000000000000000000000000008020004000400000000000000000000000000000000000000000000000000001a0000010002000000021f00000000000000000000000000000000000000000018000002000800000000030000000000000000000000000000000000000000000e0400000002000000210000000000000000000000000000000000000000000004080000000000000000000000000000000000000000000000000000000000000a000000000000000004570a500a0000000000000000000000000000000000000c000010001000000001000100000000000000000000000000000000000000000c0000100010000000000000000000000000000000000000000000000000000004100008001000000000000000000000000000000000000000000000000000000e04000000040000002101000000000000000000000000000000000000000000181000040004000000020000000000000000000000000000000000000000000018080002000200000000000000000000000000000000000000000000000000001a04000200020000000400000000000000000000000000000000000000000000020200000001000000000000000000000000000000000000000000000000000007000000000000000000000000000000000000000000000000000000000000000c000002000200000001e0ffffffffffffffffffffffffffffff0000000000000c000002000200000000ffffffffffffffffffffffffffffffff0000000000001a010002000200000002000000000000000000000000000000000000000000000c000004000400000001200000000000000000000000000000000000000000000c0000040004000000000000000000000000000000000000000000000000000008020004000400000000000000000000000000000000000000000000000000001a0000010002000000021f00000000000000000000000000000000000000000018000002000800000000030000000000000000000000000000000000000000000e0400000002000000010000000000000000000000000000000000000000000004080000000000000000000000000000000000000000000000000000000000000a0000000000000000046b0a640a0000000000000000000000000000000000000c000010001000000001000100000000000000000000000000000000000000000c0000100010000000000000000000000000000000000000000000000000000004100008001000000000000000000000000000000000000000000000000000000e04000000040000000101000000000000000000000000000000000000000000181000040004000000020000000000000000000000000000000000000000000018080002000200000000000000000000000000000000000000000000000000001a04000200020000000400000000000000000000000000000000000000000000020200000001000000000000000000000000000000000000000000000000000007000000000000000000000000000000000000000000000000000000000000000c000002000200000001e0ffffffffffffffffffffffffffffff0000000000000c000002000200000000ffffffffffffffffffffffffffffffff0000000000001a010002000200000002000000000000000000000000000000000000000000000c000004000400000001200000000000000000000000000000000000000000000c0000040004000000000000000000000000000000000000000000000000000008020004000400000000000000000000000000000000000000000000000000001a0000010002000000021f00000000000000000000000000000000000000000018000002000800000000030000000000000000000000000000000000000000000e0400000002000000410000000000000000000000000000000000000000000004080000000000000000000000000000000000000000000000000000000000000a0000000000000000047f0a780a0000000000000000000000000000000000000c000010001000000001000100000000000000000000000000000000000000000c0000100010000000000000000000000000000000000000000000000000000004100008001000000000000000000000000000000000000000000000000000000e04000000040000004101000000000000000000000000000000000000000000181000040004000000020000000000000000000000000000000000000000000018080002000200000000000000000000000000000000000000000000000000001a04000200020000000400000000000000000000000000000000000000000000020200000001000000000000000000000000000000000000000000000000000007000000000000000000000000000000000000000000000000000000000000000c000004000400000001e0ffffffffffffffffffffffffffffff0000000000000c000004000400000000ffffffffffffffffffffffffffffffff0000000000001a020004000400000002000000000000000000000000000000000000000000000c000008000800000001200000000000000000000000000000000000000000000c0000080008000000000000000000000000000000000000000000000000000008040008000400000000000000000000000000000000000000000000000000001a0000020002000000021f00000000000000000000000000000000000000000018000002000200000000030000000000000000000000000000000000000000000c000008000800000001000100000000000000000000000000000000000000000c0000080008000000000000000000000000000000000000000000000000000004080002001000000000000000000000000000000000000000000000000000000c000020002000000001ffffffffffffffffffffffffffffffff0000000000000c000020002000000000ffffffffffffffffffffffffffffffff000000000000020100000008000000000000000000000000000000000000000000000000000004020000000000000000000000000000000000000000000000000000000000000a000000000000000004960a910a00000000000000000000000000000000000018100020000800000000000000000000000000000000000000000000000000000e040000004000000021000000000000000000000000000000000000000000001a4000080008000000020000000000000000000000000000000000000000000018020001004000000002000000000000000000000000000000000000000000001a400008000800000004000000000000000000000000000000000000000000000e0400000040000000210100000000000000000000000000000000000000000004020000000000000000000000000000000000000000000000000000000000000a0000000000000000049d0a990a000000000000000000000000000000000000181000010010000000000000000000000000000000000000000000000000000018020020000200000002000000000000000000000000000000000000000000001a400002000200000002000000000000000000000000000000000000000000001a100002004000000004000000000000000000000000000000000000000000000e040040000000000020010000000000000000000000000000000000000000000e0400080000000000200000000000000000000000000000000000000000000007000000000000000000000000000000000000000000000000000000000000000c000004000400000001e0ffffffffffffffffffffffffffffff0000000000000c000004000400000000ffffffffffffffffffffffffffffffff0000000000001a020004000400000002000000000000000000000000000000000000000000000c000008000800000001200000000000000000000000000000000000000000000c0000080008000000000000000000000000000000000000000000000000000008040008000400000000000000000000000000000000000000000000000000001a0000020002000000021f00000000000000000000000000000000000000000018000002000200000000030000000000000000000000000000000000000000000c000008000800000001000100000000000000000000000000000000000000000c0000080008000000000000000000000000000000000000000000000000000004080002001000000000000000000000000000000000000000000000000000000c000020002000000001ffffffffffffffffffffffffffffffff0000000000000c000020002000000000ffffffffffffffffffffffffffffffff000000000000020100000008000000000000000000000000000000000000000000000000000004020000000000000000000000000000000000000000000000000000000000000a000000000000000004b50ab00a00000000000000000000000000000000000018100020000800000000000000000000000000000000000000000000000000000e040000004000000041000000000000000000000000000000000000000000001a4000080008000000020000000000000000000000000000000000000000000018020001004000000002000000000000000000000000000000000000000000001a400008000800000004000000000000000000000000000000000000000000000e0400000040000000410100000000000000000000000000000000000000000004020000000000000000000000000000000000000000000000000000000000000a000000000000000004bc0ab80a000000000000000000000000000000000000181000010010000000000000000000000000000000000000000000000000000018020020000200000002000000000000000000000000000000000000000000001a400002000200000002000000000000000000000000000000000000000000001a100002004000000004000000000000000000000000000000000000000000000e040040000000000040010000000000000000000000000000000000000000000e04000800000000004000000000000000000000000000000000000000000000070000000000000000000000000000000000000000000000000000000000000007010000000000000005000000000000000000000000000000000000000000000a000000000000000002c10ac40a0000000000000000000000000000000000000c000001000100000001000000000000000000000000000000000000000000000c0000010001000000000000000000000000000000000000000000000000000007000000000000000000000000000000000000000000000000000000000000000c000001000100000001010000000000000000000000000000000000000000000c00000100010000000000000000000000000000000000000000000000000000070000000000000000000000000000000000000000000000000000000000000007010000000000000001000000000000000000000000000000000000000000000a000000000000000002c90acc0a0000000000000000000000000000000000000c000001000100000001000000000000000000000000000000000000000000000c0000010001000000000000000000000000000000000000000000000000000007000000000000000000000000000000000000000000000000000000000000000c000001000100000001010000000000000000000000000000000000000000000c000001000100000000000000000000000000000000000000000000000000000700000000000000000000000000000000000000000000000000000000000000"
        }
      },
      "factoryDependencies": {
        "ca7a8393cd26dfcfc298537679e852e22ad8082bf550813c126e3e7aeacb8d04": "contracts/DXswapPair.sol:DXswapPair"
      },
      "hash": "3302feaefd64fb1efe833c2065bab036af33a6646c7404793f9b223563fbb265"
    }
  }
}