{
  "contracts/DXswapFeeSetter.sol": {
    "DXswapFeeSetter": {
      "abi": [
        {
          "inputs": [
            {
              "internalType": "address",
              "name": "_owner",
              "type": "address"
            },
            {
              "internalType": "address",
              "name": "_factory",
              "type": "address"
            }
          ],
          "stateMutability": "nonpayable",
          "type": "constructor"
        },
        {
          "inputs": [],
          "name": "factory",
          "outputs": [
            {
              "internalType": "contract IDXswapFactory",
              "name": "",
              "type": "address"
            }
          ],
          "stateMutability": "view",
          "type": "function"
        },
        {
          "inputs": [],
          "name": "owner",
          "outputs": [
            {
              "internalType": "address",
              "name": "",
              "type": "address"
            }
          ],
          "stateMutability": "view",
          "type": "function"
        },
        {
          "inputs": [
            {
              "internalType": "address",
              "name": "",
              "type": "address"
            }
          ],
          "name": "pairOwners",
          "outputs": [
            {
              "internalType": "address",
              "name": "",
              "type": "address"
            }
          ],
          "stateMutability": "view",
          "type": "function"
        },
        {
          "inputs": [
            {
              "internalType": "address",
              "name": "feeTo",
              "type": "address"
            }
          ],
          "name": "setFeeTo",
          "outputs": [],
          "stateMutability": "nonpayable",
          "type": "function"
        },
        {
          "inputs": [
            {
              "internalType": "address",
              "name": "feeToSetter",
              "type": "address"
            }
          ],
          "name": "setFeeToSetter",
          "outputs": [],
          "stateMutability": "nonpayable",
          "type": "function"
        },
        {
          "inputs": [
            {
              "internalType": "uint8",
              "name": "protocolFeeDenominator",
              "type": "uint8"
            }
          ],
          "name": "setProtocolFee",
          "outputs": [],
          "stateMutability": "nonpayable",
          "type": "function"
        },
        {
          "inputs": [
            {
              "internalType": "address",
              "name": "pair",
              "type": "address"
            },
            {
              "internalType": "uint32",
              "name": "swapFee",
              "type": "uint32"
            }
          ],
          "name": "setSwapFee",
          "outputs": [],
          "stateMutability": "nonpayable",
          "type": "function"
        },
        {
          "inputs": [
            {
              "internalType": "address",
              "name": "newOwner",
              "type": "address"
            }
          ],
          "name": "transferOwnership",
          "outputs": [],
          "stateMutability": "nonpayable",
          "type": "function"
        },
        {
          "inputs": [
            {
              "internalType": "address",
              "name": "pair",
              "type": "address"
            },
            {
              "internalType": "address",
              "name": "newOwner",
              "type": "address"
            }
          ],
          "name": "transferPairOwnership",
          "outputs": [],
          "stateMutability": "nonpayable",
          "type": "function"
        }
      ],
      "evm": {
        "bytecode": {
          "object": "0c0000040004000000010000000000000000ffffffffffffffff0000000000000c000004000400000000ffffffffffffffffffffffffffffffff0000000000000e000000000200000001000000000000000000000000000000000000000000001a020004000800000002000000000000000000000000000000000000000000000c000010001000000001000000000000000001000000000000000000000000000c000010001000000000000000000000000000000000000000000000000000000c000020002000000001010000000000000000000000000000000000000000000c000020002000000000000000000000000000000000000000000000000000000c000004000400000001010000000000000000000000000000000000000000000c0000040004000000000000000000000000000000000000000000000000000004080010000000000000000000000000000000000000000000000000000000000a0000000000000000040e000c000000000000000000000000000000000000000c000004000400000001000000000000000000000000000000000000000000000c000004000400000000000000000000000000000000000000000000000000000c0000100010000000017c7ee91ae51bb0ed9b9e413333bf74f70000000000000c000010001000000000b75ee1170f6b7c3ce4583c65d82198c400000000000005100000004000000001000000000000000000000000000000000000000000000c000010001000000001010000000000000000000000000000000000000000000c0000100010000000000000000000000000000000000000000000000000000004400000000000000000000000000000000000000000000000000000000000000a000000000000000004170015000000000000000000000000000000000000000c000010001000000001000000000000000000000000000000000000000000000c0000100010000000000000000000000000000000000000000000000000000004400020000000000000000000000000000000000000000000000000000000000a00000000000000000419001f000000000000000000000000000000000000000c000020002000000001000000000000000000000000000000000000000000000c00002000200000000000000000000000000000000083bbcae30000000000000c000080008000000001000000000000000001000000000000000000000000000c0000800080000000000000000000000000000000000000000000000000000004080080000000000000000000000000000000000000000000000000000000000a00000000000000000427001f0000000000000000000000000000000000000004400000000000000000000000000000000000000000000000000000000000000a000000000000000004210031000000000000000000000000000000000000000c000020002000000001000000000000000000000000000000000000000000000c000020002000000000000000000000000000000000c9a6bc8e0000000000000c000008000800000001000000000000000001000000000000000000000000000c0000080008000000000000000000000000000000000000000000000000000004020008000000000000000000000000000000000000000000000000000000000a000000000000000002270031000000000000000000000000000000000000000c000002000200000001040000000000000000000000000000000000000000000c000002000200000000000000000000000000000000000000000000000000000e000002000000000000000000000000000000000000000000000000000000000e000020000000000000010000000000000000000000000000000000000000000c000002000200000001010000000000000000000000000000000000000000000c000002000200000000000000000000000000000000000000000000000000000e0000000004000000210300000000000000000000000000000000000000000004040002000000000000000000000000000000000000000000000000000000000a0000000000000000043000990000000000000000000000000000000000000007000000000000000000000000000000000000000000000000000000000000001a100004000200000002000000000000000000000000000000000000000000001a000002000200000002010000000000000000000000000000000000000000000c000004000400000001010000000000000000000000000000000000000000000c0000040004000000000000000000000000000000000000000000000000000004020004000000000000000000000000000000000000000000000000000000000a00000000000000000437006b000000000000000000000000000000000000000c000002000200000001800000000000000000000000000000000000000000000c000002000200000000000000000000000000000000000000000000000000000e000002000000000020020000000000000000000000000000000000000000000e000000000400000001000000000000000000000000000000000000000000001a000004000200000002ffffffff000000000000000000000000000000000000020000020008000000001f0000000000000000000000000000000000000000001a000008000800000002e0ffffff01000000000000000000000000000000000002000008000800000000800000000000000000000000000000000000000000000e000008000000000020020000000000000000000000000000000000000000000c000010001000000001000000000000000000000000000000000000000000000c000010001000000000000000000000000000000000000000000000000000001a0000040008000000021f000000000000000000000000000000000000000000180000020020000000020500000000000000000000000000000000000000000004200000000000000000000000000000000000000000000000000000000000000a0000000000000000044f00460000000000000000000000000000000000000018000010004000000000050000000000000000000000000000000000000000000c000080008000000001200000000000000000000000000000000000000000000c0000800080000000000000000000000000000000000000000000000000000008400080004000000000000000000000000000000000000000000000000000000e400000008000000001010000000000000000000000000000000000000000000e40008000000000002004000000000000000000000000000000000000000000020000100010000000000100000000000000000000000000000000000000000004100020000000000000000000000000000000000000000000000000000000000a00000000000000000246004f0000000000000000000000000000000000000004080000000000000000000000000000000000000000000000000000000000000a000000000000000004630051000000000000000000000000000000000000001a000004000400000002e0ffffff0000000000000000000000000000000000000c000010001000000001200000000000000000000000000000000000000000000c00001000100000000000000000000000000000000000000000000000000000080400100004000000000000000000000000000000000000000000000000000018000008000800000000030000000000000000000000000000000000000000000c000010001000000001ffffffffffffffffffffffffffffffff0000000000000c000010001000000000ffffffffffffffffffffffffffffffff00000000000018080010002000000002000000000000000000000000000000000000000000000e040000004000000021040000000000000000000000000000000000000000001a400020002000000002000000000000000000000000000000000000000000000c000040004000000001000100000000000000000000000000000000000000000c00004000400000000000000000000000000000000000000000000000000000044000080008000000000000000000000000000000000000000000000000000018080010000800000000000000000000000000000000000000000000000000000e040000001000000001010000000000000000000000000000000000000000001a100008000800000002000000000000000000000000000000000000000000001a080020000800000004000000000000000000000000000000000000000000000e040008000000000020040000000000000000000000000000000000000000000c000004000400000001400000000000000000000000000000000000000000000c0000040004000000000000000000000000000000000000000000000000000004020004000000000000000000000000000000000000000000000000000000000a00000000000000000267006d000000000000000000000000000000000000000c000002000200000001000000000000000000000000000000000000000000000c000002000200000000000000000000000000000000000000000000000000000e000002000000000000000000000000000000000000000000000000000000000a0000000000000000017c007c00000000000000000000000000000000000000070000000000000000039a0000000000000000000000000000000000000000000a0000000000000000027c0030000000000000000000000000000000000000000e000000000400000021040000000000000000000000000000000000000000000c000008000800000001ffffffffffffffffffffffffffffffff0000000000000c000008000800000000ffffffff00000000000000000000000000000000000004040008000000000000000000000000000000000000000000000000000000000a000000000000000006760072000000000000000000000000000000000000000c000002000200000001000000000000000000000000000000000000000000000c000002000200000000000000000000000000000000000000000000000000000e000002000000000000000000000000000000000000000000000000000000000a0000000000000000017c007c000000000000000000000000000000000000000e0000000002000000210500000000000000000000000000000000000000000004020008000000000000000000000000000000000000000000000000000000000a000000000000000006820079000000000000000000000000000000000000000c000002000200000001000000000000000000000000000000000000000000000c000002000200000000000000000000000000000000000000000000000000000e000002000000000000000000000000000000000000000000000000000000000c000002000200000001010000000000000000000000000000000000000000000c000002000200000000000000000000000000000000000000000000000000000e0000000004000000210300000000000000000000000000000000000000000004040002000000000000000000000000000000000000000000000000000000000a0000000000000000043000810000000000000000000000000000000000000007000000000000000004000000000000000000000000000000000000000000000c000010001000000001000000000000000000000000000000000000000000000c0000100010000000000000000000000000000000000000000000000000000005100000002000000001000000000000000000000000000000000000000000000c000008000800000001000000000000000000000000000000000000000000000c00000800080000000000000000ffffffffffffffffffffffff0000000000001a200008002000000002000000000000000000000000000000000000000000001a2000040004000000040000000000000000000000000000000000000000000005100004000000000000000000000000000000000000000000000000000000000c000004000400000001020000000000000000000000000000000000000000000c0000040004000000000000000000000000000000000000000000000000000005040000001000000001000000000000000000000000000000000000000000001a100008000800000002000000000000000000000000000000000000000000001a0800020002000000040000000000000000000000000000000000000000000005040002000000000000000000000000000000000000000000000000000000000c000002000200000001000000000000000000000000000000000000000000000c000002000200000000000000000000000000000000000000000000000000000e000002000000000000000000000000000000000000000000000000000000000c0000020002000000017c7ee91ae51bb0ed9b9e413333bf74f70000000000000c000002000200000000b75ee1170f6b7c3ce4583c65d82198c40000000000000c000004000400000001010000000000000000000000000000000000000000000c0000040004000000000000000000000000000000000000000000000000000005020004000000000000000000000000000000000000000000000000000000000a0000000000000000013000300000000000000000000000000000000000000007000000000000000004000000000000000000000000000000000000000000000e0000000000000000e0060000000000000000000000000000000000000000000c000002000200000001800000000000000000000000000000000000000000000c000002000200000000000000000000000000000000000000000000000000000e000002000000000020020000000000000000000000000000000000000000000e000000000200000001000000000000000000000000000000000000000000001a000002000800000002fcffffff00000000000000000000000000000000000004080000000000000000000000000000000000000000000000000000000000000a000000000000000004f801a2000000000000000000000000000000000000001a000002000200000002ffffffff0000000000000000000000000000000000000c000004000400000001000000000000000000000000000000000000000000000c000004000400000000000000000000000000000000ffffffff0000000000000e000000001000000001010000000000000000000000000000000000000000001a100004000400000002000000000000000000000000000000000000000000000c000010001000000001000000000000000000000000000000000000000000000c000010001000000000000000000000000000000000346bc01700000000000004040010000000000000000000000000000000000000000000000000000000000a000000000000000004ab00ee00000000000000000000000000000000000000020200000001000000000000000000000000000000000000000000000000000007000000000000000003020200000000000000000000000000000000000000000a000000000000000002ae00af000000000000000000000000000000000000000a000000000000000001000200020000000000000000000000000000000000000c000002000200000001ffffffffffffffffffffffffffffffff0000000000000c000002000200000000ffffffff0000000000000000000000000000000000001a010002000200000002000000000000000000000000000000000000000000000e000002000000000020000000000000000000000000000000000000000000000c000002000200000001010000000000000000000000000000000000000000000c000002000200000000000000000000000000000000000000000000000000000e0000020000000000200100000000000000000000000000000000000000000010000000000000000000000000000000000000000000000000000000000000000c000002000200000001400000000000000000000000000000000000000000000c000002000200000000000000000000000000000000000000000000000000000e000002000000000040000000000000000000000000000000000000000000000c000002000200000001000000000000000000000000000000000000000000000c000002000200000000000000000000000000000000000000000000000000000c000004000400000001200000000000000000000000000000000000000000000c000004000400000000000000000000000000000000000000000000000000000c000008000800000001020000000000000000000000000000000000000000000c00000800080000000000000000000000000000000000000000000000000000180000020010000000000500000000000000000000000000000000000000000008100004001000000000000000000000000000000000000000000000000000000e100000002000000021000000000000000000000000000000000000000000000e10002000000000004001000000000000000000000000000000000000000000020000020002000000000100000000000000000000000000000000000000000004020008000000000000000000000000000000000000000000000000000000000a000000000000000002c000c7000000000000000000000000000000000000000c00000100010000000100000000ff03000000000000000000000000000000000c0000010001000000000000000000000000000000000000000000000000000007000000000000000003890700000000000000000000000000000000000000000e0000000002000000410100000000000000000000000000000000000000000005020000000200000001000000000000000000000000000000000000000000000c000004000400000001ffffffffffffffffffffffffffffffff0000000000000c000004000400000000ffffffff0000000000000000000000000000000000001a020004000100000002000000000000000000000000000000000000000000000e000000000200000021020000000000000000000000000000000000000000000e00000200000000006001000000000000000000000000000000000000000000070000000000000000036a0700000000000000000000000000000000000000000c000002000200000001200000000000000000000000000000000000000000000c000002000200000000000000000000000000000000000000000000000000000e000002000000000000000000000000000000000000000000000000000000000c000002000200000001000000000000000000000000000000000000000000000c000002000200000000000000000000000000000000000000000000000000000a000000000000000001da00da0000000000000000000000000000000000000004040000000000000000000000000000000000000000000000000000000000000a00000000000000000ada009d010000000000000000000000000000000000000e0000020000000000600300000000000000000000000000000000000000000018000002000400000000050000000000000000000000000000000000000000000e000004000000000060020000000000000000000000000000000000000000000e00000000020000006101000000000000000000000000000000000000000000020200040001000000000000000000000000000000000000000000000000000007000000000000000003420700000000000000000000000000000000000000000c000002000200000001200000000000000000000000000000000000000000000c000002000200000000000000000000000000000000000000000000000000000e0000000004000000610200000000000000000000000000000000000000000008040002000200000000000000000000000000000000000000000000000000000e020001000000000000010000000000000000000000000000000000000000000e0000000008000000610300000000000000000000000000000000000000000002000008000200000000010000000000000000000000000000000000000000000c000004000400000001010000000000000000000000000000000000000000000c0000040004000000000000000000000000000000000000000000000000000004020008000000000000000000000000000000000000000000000000000000000a000000000000000002d800eb000000000000000000000000000000000000000c000004000400000001000000000000000000000000000000000000000000000c000004000400000000000000000000000000000000000000000000000000000a000000000000000001d800d8000000000000000000000000000000000000000c000010001000000001000000000000000000000000000000000000000000000c00001000100000000000000000000000000000000011f8914e00000000000004040010000000000000000000000000000000000000000000000000000000000a000000000000000004f20003010000000000000000000000000000000000000c000002000200000001240000000000000000000000000000000000000000000c0000020002000000000000000000000000000000000000000000000000000004080002000000000000000000000000000000000000000000000000000000000a00000000000000000cf600fd010000000000000000000000000000000000000c000001000100000001240000000000000000000000000000000000000000000c0000010001000000000000000000000000000000000000000000000000000007000000000000000003560700000000000000000000000000000000000000000c000002000200000001ff0000000000000000000000000000000000000000000c0000020002000000000000000000000000000000000000000000000000000004010002000000000000000000000000000000000000000000000000000000000a000000000000000008fd01fd0000000000000000000000000000000000000007000000000000000003fe0400000000000000000000000000000000000000000a0000000000000000020002ff000000000000000000000000000000000000000c000002000200000001000000000000000000000000000000000000000000000c000002000200000000000000000000000000000000000000000000000000000e000002000000000000000000000000000000000000000000000000000000000a0000000000000000019d019d010000000000000000000000000000000000000c000008000800000001000000000000000000000000000000000000000000000c0000080008000000000000000000000000000000005bcba58d00000000000004040008000000000000000000000000000000000000000000000000000000000a000000000000000004070121010000000000000000000000000000000000000c000004000400000001000000000000000000000000000000000000000000000c0000040004000000000000000000000000000000000000000000000000000005040000000200000001000000000000000000000000000000000000000000000c000008000800000001ffffffffffffffffffffffffffffffff0000000000000c000008000800000000ffffffff0000000000000000000000000000000000001a020008000200000002000000000000000000000000000000000000000000000e000002000000000020040000000000000000000000000000000000000000000c000002000200000001200000000000000000000000000000000000000000000c000002000200000000000000000000000000000000000000000000000000000e000002000000000000000000000000000000000000000000000000000000000a00000000000000000115011501000000000000000000000000000000000000020800000004000000000000000000000000000000000000000000000000000004100000000000000000000000000000000000000000000000000000000000000a00000000000000000a15019d01000000000000000000000000000000000000180000040008000000000500000000000000000000000000000000000000000008080002000800000000000000000000000000000000000000000000000000000e080000001000000021040000000000000000000000000000000000000000000e0800100000000000000100000000000000000000000000000000000000000002000004000800000000010000000000000000000000000000000000000000000c000010001000000001010000000000000000000000000000000000000000000c0000100010000000000000000000000000000000000000000000000000000004080004000000000000000000000000000000000000000000000000000000000a00000000000000000212011e010000000000000000000000000000000000000c000010001000000001000000000000000000000000000000000000000000000c000010001000000000000000000000000000000000000000000000000000000a000000000000000001120112010000000000000000000000000000000000000c000008000800000001000000000000000000000000000000000000000000000c000008000800000000000000000000000000000000b8ce689e00000000000004040008000000000000000000000000000000000000000000000000000000000a00000000000000000425013d010000000000000000000000000000000000000c000004000400000001000000000000000000000000000000000000000000000c000004000400000000000000000000000000000000000000000000000000000e000004000000000060070000000000000000000000000000000000000000000e000004000000000060060000000000000000000000000000000000000000000c000000000400000001a00000000000000000000000000000000000000000000e00000400000000006003000000000000000000000000000000000000000000020400000001000000000000000000000000000000000000000000000000000007000000000000000003270200000000000000000000000000000000000000000a0000000000000000022e012f010000000000000000000000000000000000000a000000000000000001000200020000000000000000000000000000000000000e0000000002000000610300000000000000000000000000000000000000000002000002000200000000200000000000000000000000000000000000000000000c000004000400000001200000000000000000000000000000000000000000000c0000040004000000000000000000000000000000000000000000000000000008020004000200000000000000000000000000000000000000000000000000000e020000000200000061010000000000000000000000000000000000000000000e00000000010000006106000000000000000000000000000000000000000000070000000000000000030e0600000000000000000000000000000000000000000a000000000000000002380139010000000000000000000000000000000000000a000000000000000001000200020000000000000000000000000000000000000c000002000200000001000000000000000000000000000000000000000000000c000002000200000000000000000000000000000000000000000000000000000e000002000000000000000000000000000000000000000000000000000000000a0000000000000000019d019d010000000000000000000000000000000000000c000008000800000001000000000000000000000000000000000000000000000c000008000800000000000000000000000000000000f64ae7a200000000000004040008000000000000000000000000000000000000000000000000000000000a00000000000000000441014b01000000000000000000000000000000000000020200000001000000000000000000000000000000000000000000000000000007000000000000000003020200000000000000000000000000000000000000000a000000000000000002440145010000000000000000000000000000000000000a0000000000000000010002000200000000000000000000000000000000000007000000000000000003ec0300000000000000000000000000000000000000000a000000000000000002000247010000000000000000000000000000000000000c000002000200000001000000000000000000000000000000000000000000000c000002000200000000000000000000000000000000000000000000000000000e000002000000000000000000000000000000000000000000000000000000000a0000000000000000019d019d010000000000000000000000000000000000000c000008000800000001000000000000000000000000000000000000000000000c0000080008000000000000000000000000000000003fb9daa600000000000004040008000000000000000000000000000000000000000000000000000000000a0000000000000000044f019f010000000000000000000000000000000000000c000004000400000001000000000000000000000000000000000000000000000c000004000400000000000000000000000000000000000000000000000000000e000004000000000060050000000000000000000000000000000000000000000e000004000000000060040000000000000000000000000000000000000000000c000000000400000001600000000000000000000000000000000000000000000e00000400000000006003000000000000000000000000000000000000000000020400000001000000000000000000000000000000000000000000000000000007000000000000000003620200000000000000000000000000000000000000000a000000000000000002580159010000000000000000000000000000000000000a000000000000000001000200020000000000000000000000000000000000000e0000000002000000610300000000000000000000000000000000000000000002000002000200000000200000000000000000000000000000000000000000000c000004000400000001000000000000000000000000000000000000000000000c0000040004000000000000000000000000000000000000000000000000000005040000000400000001000000000000000000000000000000000000000000000c000008000800000001ffffffffffffffffffffffffffffffff0000000000000c000008000800000000ffffffff0000000000000000000000000000000000001a0400080008000000020000000000000000000000000000000000000000000014000000001000000000000000000000000000000000000000000000000000000c000004000400000001010000000000000000000000000000000000000000000c0000040004000000000000000000000000000000000000000000000000000004100008000000000000000000000000000000000000000000000000000000000a000000000000000004680166010000000000000000000000000000000000000c000004000400000001000000000000000000000000000000000000000000000c000004000400000000000000000000000000000000000000000000000000000c000008000800000001200000000000000000000000000000000000000000000c0000080008000000000000000000000000000000000000000000000000000008020008000200000000000000000000000000000000000000000000000000000e020000000200000061010000000000000000000000000000000000000000000e000002000000000060030000000000000000000000000000000000000000001a000004000100000002010000000000000000000000000000000000000000000e000000000200000061040000000000000000000000000000000000000000000e00000200000000006002000000000000000000000000000000000000000000070000000000000000039d0200000000000000000000000000000000000000000a000000000000000002720173010000000000000000000000000000000000000a000000000000000001000200020000000000000000000000000000000000000c000002000200000001ffffffffffffffffffffffffffffffff0000000000000c000002000200000000ffffffff0000000000000000000000000000000000000e000000000400000061020000000000000000000000000000000000000000001a040002000200000002000000000000000000000000000000000000000000000e000002000000000020000000000000000000000000000000000000000000000c000002000200000001010000000000000000000000000000000000000000000c000002000200000000000000000000000000000000000000000000000000000e0000020000000000200100000000000000000000000000000000000000000010000000000000000000000000000000000000000000000000000000000000000c000002000200000001400000000000000000000000000000000000000000000c000002000200000000000000000000000000000000000000000000000000000e000002000000000040000000000000000000000000000000000000000000000c000002000200000001000000000000000000000000000000000000000000000c000002000200000000000000000000000000000000000000000000000000000c000004000400000001020000000000000000000000000000000000000000000c000004000400000000000000000000000000000000000000000000000000000c000020002000000001200000000000000000000000000000000000000000000c00002000200000000000000000000000000000000000000000000000000000180000020008000000000500000000000000000000000000000000000000000008080020000800000000000000000000000000000000000000000000000000000e080000001000000021000000000000000000000000000000000000000000000e08001000000000004001000000000000000000000000000000000000000000020000020002000000000100000000000000000000000000000000000000000004020004000000000000000000000000000000000000000000000000000000000a00000000000000000285018c010000000000000000000000000000000000000c00000100010000000100000000ff03000000000000000000000000000000000c0000010001000000000000000000000000000000000000000000000000000007000000000000000003890700000000000000000000000000000000000000000c000002000200000001ffffffffffffffffffffffffffffffff0000000000000c000002000200000000ffffffff0000000000000000000000000000000000000e000000000400000061030000000000000000000000000000000000000000001a040002000200000002000000000000000000000000000000000000000000000e0000000004000000410100000000000000000000000000000000000000000005040000000800000001000000000000000000000000000000000000000000000c000010001000000001000000000000000000000000000000000000000000000c00001000100000000000000000ffffffffffffffffffffffff0000000000001a080010000800000002000000000000000000000000000000000000000000001a0800020002000000040000000000000000000000000000000000000000000005040002000000000000000000000000000000000000000000000000000000000c000002000200000001000000000000000000000000000000000000000000000c000002000200000000000000000000000000000000000000000000000000000e000002000000000000000000000000000000000000000000000000000000000e0000000000000000e10600000000000000000000000000000000000000000007000000000000000000000000000000000000000000000000000000000000000c000008000800000001000000000000000000000000000000000000000000000c00000800080000000000000000000000000000000055015ac400000000000004040008000000000000000000000000000000000000000000000000000000000a000000000000000004a301bf010000000000000000000000000000000000000c000002000200000001020000000000000000000000000000000000000000000c0000020002000000000000000000000000000000000000000000000000000005020000000200000001000000000000000000000000000000000000000000000c000004000400000001ffffffffffffffffffffffffffffffff0000000000000c000004000400000000ffffffff0000000000000000000000000000000000001a020004000200000002000000000000000000000000000000000000000000000e000002000000000020040000000000000000000000000000000000000000000c000002000200000001200000000000000000000000000000000000000000000c000002000200000000000000000000000000000000000000000000000000000e000002000000000000000000000000000000000000000000000000000000000c000004000400000001000000000000000000000000000000000000000000000c000004000400000000000000000000000000000000000000000000000000000a000000000000000001b301b301000000000000000000000000000000000000020800000004000000000000000000000000000000000000000000000000000004100000000000000000000000000000000000000000000000000000000000000a00000000000000000ab3019d01000000000000000000000000000000000000180000040008000000000500000000000000000000000000000000000000000008080002000800000000000000000000000000000000000000000000000000000e080000001000000021040000000000000000000000000000000000000000000e0800100000000000000100000000000000000000000000000000000000000002000004000800000000010000000000000000000000000000000000000000000c000010001000000001010000000000000000000000000000000000000000000c0000100010000000000000000000000000000000000000000000000000000004080004000000000000000000000000000000000000000000000000000000000a000000000000000002b001bc010000000000000000000000000000000000000c000010001000000001000000000000000000000000000000000000000000000c000010001000000000000000000000000000000000000000000000000000000a000000000000000001b001b0010000000000000000000000000000000000000c000008000800000001000000000000000000000000000000000000000000000c0000080008000000000000000000000000000000008be3fdf200000000000004040008000000000000000000000000000000000000000000000000000000000a000000000000000004c301ea01000000000000000000000000000000000000020200000001000000000000000000000000000000000000000000000000000007000000000000000003020200000000000000000000000000000000000000000a000000000000000002c601c80100000000000000000000000000000000000002010000000200000000000000000000000000000000000000000000000000000a0000000000000000010002000200000000000000000000000000000000000002010000000200000000000000000000000000000000000000000000000000000e000002000000000060030000000000000000000000000000000000000000000c000002000200000001000000000000000000000000000000000000000000000c0000020002000000000000000000000000000000000000000000000000000005020000000400000001000000000000000000000000000000000000000000000c000002000200000001ffffffffffffffffffffffffffffffff0000000000000c000002000200000000ffffffff0000000000000000000000000000000000000e000004000000000060020000000000000000000000000000000000000000001a0400020004000000020000000000000000000000000000000000000000000014000000000800000000000000000000000000000000000000000000000000000c000002000200000001010000000000000000000000000000000000000000000c0000020002000000000000000000000000000000000000000000000000000004080004000000000000000000000000000000000000000000000000000000000a000000000000000004d801d6010000000000000000000000000000000000000c000002000200000001000000000000000000000000000000000000000000000c000002000200000000000000000000000000000000000000000000000000001a00000200010000000201000000000000000000000000000000000000000000070000000000000000039d0200000000000000000000000000000000000000000a000000000000000002db01dc010000000000000000000000000000000000000a000000000000000001000200020000000000000000000000000000000000000c000002000200000001ffffffffffffffffffffffffffffffff0000000000000c000002000200000000ffffffff0000000000000000000000000000000000000e000000000400000061030000000000000000000000000000000000000000001a040002000200000002000000000000000000000000000000000000000000000c000004000400000001000000000000000000000000000000000000000000000c00000400040000000000000000ffffffffffffffffffffffff0000000000000e000000000800000061020000000000000000000000000000000000000000001a080004000400000002000000000000000000000000000000000000000000001a040002000400000004000000000000000000000000000000000000000000000c000002000200000001000000000000000000000000000000000000000000000c0000020002000000000000000000000000000000000000000000000000000005020004000000000000000000000000000000000000000000000000000000000e000002000000000000000000000000000000000000000000000000000000000a0000000000000000019d019d010000000000000000000000000000000000000c000008000800000001000000000000000000000000000000000000000000000c000008000800000000000000000000000000000000ed0169f400000000000004040008000000000000000000000000000000000000000000000000000000000a000000000000000004ee01f801000000000000000000000000000000000000020200000001000000000000000000000000000000000000000000000000000007000000000000000003020200000000000000000000000000000000000000000a000000000000000002f101f2010000000000000000000000000000000000000a0000000000000000010002000200000000000000000000000000000000000007000000000000000003da0200000000000000000000000000000000000000000a0000000000000000020002f4010000000000000000000000000000000000000c000002000200000001000000000000000000000000000000000000000000000c000002000200000000000000000000000000000000000000000000000000000e000002000000000000000000000000000000000000000000000000000000000a0000000000000000019d019d010000000000000000000000000000000000000c000002000200000001000000000000000000000000000000000000000000000c000002000200000000000000000000000000000000000000000000000000000e000002000000000000000000000000000000000000000000000000000000000e0000000000000000e10600000000000000000000000000000000000000000007000000000000000004000000000000000000000000000000000000000000000c000002000200000001000000000000000000000000000000000000000000000c000002000200000000000000000000000000000000000000000000000000000e000002000000000000000000000000000000000000000000000000000000000e0000000000000000e10600000000000000000000000000000000000000000007000000000000000004000000000000000000000000000000000000000000000c000002000200000001fcffffffffffffffffffffffffffffff0000000000000c000002000200000000ffffffffffffffffffffffffffffffff00000000000002010002000800000000000000000000000000000000000000000000000000000c000010001000000001200000000000000000000000000000000000000000000c000010001000000000000000000000000000000000000000000000000000000c000004000400000001000000000000000000000000000000000000000000000c000004000400000000000000000000000000000000000000800000000000000c000002000200000001000000000000000000000000000000000000000000000c0000020002000000000000000000000000000000000000008000000000000004080010000000000000000000000000000000000000000000000000000000000a00000000000000000c0f020d020000000000000000000000000000000000000c000002000200000001000000000000000000000000000000000000000000000c000002000200000000000000000000000000000000000000000000000000001a080004001000000002000000000000000000000000000000000000000000000c000008000800000001000000000000000000000000000000000000000000000c0000080008000000000000000000000000000000000000008000000000000004100000000000000000000000000000000000000000000000000000000000000a000000000000000002160214020000000000000000000000000000000000000c000008000800000001000000000000000000000000000000000000000000000c0000080008000000000000000000000000000000000000000000000000000004100004000000000000000000000000000000000000000000000000000000000a00000000000000000419021802000000000000000000000000000000000000020200000008000000000000000000000000000000000000000000000000000004080000000000000000000000000000000000000000000000000000000000000a00000000000000000a1b0223020000000000000000000000000000000000000c000001000100000001240000000000000000000000000000000000000000000c0000010001000000000000000000000000000000000000000000000000000007000000000000000003560700000000000000000000000000000000000000000c000002000200000001ffffffffffffffffffffffffffffffff0000000000000c000002000200000000ffffffff00000000000000000000000000000000000004010002000000000000000000000000000000000000000000000000000000000a0000000000000000082302220200000000000000000000000000000000000007000000000000000000000000000000000000000000000000000000000000000c000002000200000001000000000000000000000000000000000000000000000c000002000200000000000000000000000000000000000000000000000000000e0000020000000000000000000000000000000000000000000000000000000007000000000000000004000000000000000000000000000000000000000000000e0000000000000000e0010000000000000000000000000000000000000000000c000004000400000001fcffffffffffffffffffffffffffffff0000000000000c000004000400000000ffffffffffffffffffffffffffffffff00000000000002020004000800000000000000000000000000000000000000000000000000000c000010001000000001400000000000000000000000000000000000000000000c000010001000000000000000000000000000000000000000000000000000000c000004000400000001000000000000000000000000000000000000000000000c000004000400000000000000000000000000000000000000800000000000000c000002000200000001000000000000000000000000000000000000000000000c0000020002000000000000000000000000000000000000008000000000000004080010000000000000000000000000000000000000000000000000000000000a00000000000000000c350233020000000000000000000000000000000000000c000002000200000001000000000000000000000000000000000000000000000c000002000200000000000000000000000000000000000000000000000000001a080004001000000002000000000000000000000000000000000000000000000c000008000800000001000000000000000000000000000000000000000000000c0000080008000000000000000000000000000000000000008000000000000004100000000000000000000000000000000000000000000000000000000000000a0000000000000000023c023a020000000000000000000000000000000000000c000008000800000001000000000000000000000000000000000000000000000c0000080008000000000000000000000000000000000000000000000000000004100004000000000000000000000000000000000000000000000000000000000a0000000000000000043f023e02000000000000000000000000000000000000020200000008000000000000000000000000000000000000000000000000000002000001000200000000400000000000000000000000000000000000000000000e0000020000000000600200000000000000000000000000000000000000000004080000000000000000000000000000000000000000000000000000000000000a00000000000000000a43025d020000000000000000000000000000000000000c000001000100000001240000000000000000000000000000000000000000000c0000010001000000000000000000000000000000000000000000000000000007000000000000000003560700000000000000000000000000000000000000000c000002000200000001ffffffffffffffffffffffffffffffff0000000000000c000002000200000000ffffffff00000000000000000000000000000000000004010002000000000000000000000000000000000000000000000000000000000a0000000000000000085d024a020000000000000000000000000000000000000c000002000200000001200000000000000000000000000000000000000000000c000002000200000000000000000000000000000000000000000000000000000e0000000004000000610200000000000000000000000000000000000000000008040002000200000000000000000000000000000000000000000000000000000e000002000000000060010000000000000000000000000000000000000000000e020001000000000060010000000000000000000000000000000000000000000c000001000100000001440000000000000000000000000000000000000000000c0000010001000000000000000000000000000000000000000000000000000007000000000000000003560700000000000000000000000000000000000000000c000002000200000001ffffffff0000000000000000000000000000000000000c0000020002000000000000000000000000000000000000000000000000000004010002000000000000000000000000000000000000000000000000000000000a0000000000000000085d0257020000000000000000000000000000000000000e000000000200000061010000000000000000000000000000000000000000000e020001000000000060020000000000000000000000000000000000000000000e0000000002000000610200000000000000000000000000000000000000000004000002000100000001400000000000000000000000000000000000000000000e0000000000000000e10100000000000000000000000000000000000000000007000000000000000000000000000000000000000000000000000000000000000c000002000200000001000000000000000000000000000000000000000000000c000002000200000000000000000000000000000000000000000000000000000e000002000000000000000000000000000000000000000000000000000000000e0000000000000000e10100000000000000000000000000000000000000000007000000000000000004000000000000000000000000000000000000000000000e0000000000000000e0010000000000000000000000000000000000000000000c000004000400000001fcffffffffffffffffffffffffffffff0000000000000c000004000400000000ffffffffffffffffffffffffffffffff00000000000002020004000800000000000000000000000000000000000000000000000000000c000010001000000001400000000000000000000000000000000000000000000c000010001000000000000000000000000000000000000000000000000000000c000004000400000001000000000000000000000000000000000000000000000c000004000400000000000000000000000000000000000000800000000000000c000002000200000001000000000000000000000000000000000000000000000c0000020002000000000000000000000000000000000000008000000000000004080010000000000000000000000000000000000000000000000000000000000a00000000000000000c70026e020000000000000000000000000000000000000c000002000200000001000000000000000000000000000000000000000000000c000002000200000000000000000000000000000000000000000000000000001a080004001000000002000000000000000000000000000000000000000000000c000008000800000001000000000000000000000000000000000000000000000c0000080008000000000000000000000000000000000000008000000000000004100000000000000000000000000000000000000000000000000000000000000a000000000000000002770275020000000000000000000000000000000000000c000008000800000001000000000000000000000000000000000000000000000c0000080008000000000000000000000000000000000000000000000000000004100004000000000000000000000000000000000000000000000000000000000a0000000000000000047a027902000000000000000000000000000000000000020200000008000000000000000000000000000000000000000000000000000002000001000200000000400000000000000000000000000000000000000000000e0000020000000000600200000000000000000000000000000000000000000004080000000000000000000000000000000000000000000000000000000000000a00000000000000000a7e0298020000000000000000000000000000000000000c000001000100000001240000000000000000000000000000000000000000000c0000010001000000000000000000000000000000000000000000000000000007000000000000000003560700000000000000000000000000000000000000000c000002000200000001ffffffffffffffffffffffffffffffff0000000000000c000002000200000000ffffffff00000000000000000000000000000000000004010002000000000000000000000000000000000000000000000000000000000a000000000000000008980285020000000000000000000000000000000000000c000002000200000001200000000000000000000000000000000000000000000c000002000200000000000000000000000000000000000000000000000000000e0000000004000000610200000000000000000000000000000000000000000008040002000200000000000000000000000000000000000000000000000000000e000002000000000060010000000000000000000000000000000000000000000e020001000000000060010000000000000000000000000000000000000000000c000001000100000001440000000000000000000000000000000000000000000c0000010001000000000000000000000000000000000000000000000000000007000000000000000003560700000000000000000000000000000000000000000c000002000200000001000000000000000000000000000000000000000000000c0000020002000000000000000001000000000000000000000000000000000004010002000000000000000000000000000000000000000000000000000000000a00000000000000000c980292020000000000000000000000000000000000000e000000000200000061010000000000000000000000000000000000000000000e020001000000000060020000000000000000000000000000000000000000000e0000000002000000610200000000000000000000000000000000000000000004000002000100000001400000000000000000000000000000000000000000000e0000000000000000e10100000000000000000000000000000000000000000007000000000000000000000000000000000000000000000000000000000000000c000002000200000001000000000000000000000000000000000000000000000c000002000200000000000000000000000000000000000000000000000000000e000002000000000000000000000000000000000000000000000000000000000e0000000000000000e10100000000000000000000000000000000000000000007000000000000000004000000000000000000000000000000000000000000000e0000000000000000e00200000000000000000000000000000000000000000004010000000000000000000000000000000000000000000000000000000000000a000000000000000004a202a0020000000000000000000000000000000000000e0000000000000000e10200000000000000000000000000000000000000000007000000000000000000000000000000000000000000000000000000000000000c000001000100000001000000000000000000000000000000000000000000000c000001000100000000000000000000000000000000a079c3080000000000000e000000000200000021020000000000000000000000000000000000000000000e00000200000000006001000000000000000000000000000000000000000000070000000000000000036a0700000000000000000000000000000000000000000e0000000002000000610100000000000000000000000000000000000000000002000002000200000000040000000000000000000000000000000000000000000c000001000100000001200000000000000000000000000000000000000000000c00000100010000000000000000000000000000000000000000000000000000070000000000000000036a0700000000000000000000000000000000000000000e0000000002000000610100000000000000000000000000000000000000000002000002000200000000240000000000000000000000000000000000000000000c0000010001000000011a0000000000000000000000000000000000000000000c00000100010000000000000000000000000000000000000000000000000000070000000000000000036a0700000000000000000000000000000000000000000e0000000002000000610100000000000000000000000000000000000000000002000002000200000000440000000000000000000000000000000000000000000c0000010001000000010000000000004e4544444942524f46200000000000000c0000010001000000003a726574746553656546706177735844000000000000070000000000000000036a0700000000000000000000000000000000000000000c000002000200000001640000000000000000000000000000000000000000000c000002000200000000000000000000000000000000000000000000000000000e000002000000000000000000000000000000000000000000000000000000000c000002000200000001000000000000000000000000000000000000000000000c000002000200000000000000000000000000000000000000000000000000000e0000020000000000600300000000000000000000000000000000000000000018000002000400000000050000000000000000000000000000000000000000000e000004000000000060020000000000000000000000000000000000000000000e00000000020000006101000000000000000000000000000000000000000000020200040001000000000000000000000000000000000000000000000000000007000000000000000003420700000000000000000000000000000000000000000c000002000200000001200000000000000000000000000000000000000000000c000002000200000000000000000000000000000000000000000000000000000e0000000004000000610200000000000000000000000000000000000000000008040002000200000000000000000000000000000000000000000000000000000e020001000000000000010000000000000000000000000000000000000000000e0000000002000000610300000000000000000000000000000000000000000002000002000200000000010000000000000000000000000000000000000000000c000004000400000001030000000000000000000000000000000000000000000c0000040004000000000000000000000000000000000000000000000000000004020004000000000000000000000000000000000000000000000000000000000a000000000000000002bb02cc020000000000000000000000000000000000000e00000000020000006101000000000000000000000000000000000000000000020000020001000000006000000000000000000000000000000000000000000007000000000000000003420700000000000000000000000000000000000000000c000002000200000001ffffffffffffffffffffffffffffffff0000000000000c000002000200000000ffffffffffffffffffffffff000000000000000000000e000000000400000001040000000000000000000000000000000000000000001a040002000200000002000000000000000000000000000000000000000000000c000004000400000001000000000000000000000000000000000000000000000c000004000400000000000000000000000000000000ffffffff0000000000001a010004000400000002000000000000000000000000000000000000000000001a040002000200000004000000000000000000000000000000000000000000000e000002000000000000040000000000000000000000000000000000000000000e0000000000000000e10200000000000000000000000000000000000000000007000000000000000004000000000000000000000000000000000000000000000e0000000000000000e0050000000000000000000000000000000000000000000e000001000000000060060000000000000000000000000000000000000000000c000002000200000001000000000000000000000000000000000000000000000c0000020002000000000000000000000000000000000000000000000000000005020000000200000001000000000000000000000000000000000000000000000c000004000400000001ffffffffffffffffffffffffffffffff0000000000000c000004000400000000ffffffff0000000000000000000000000000000000001a0200040004000000020000000000000000000000000000000000000000000014000000000800000000000000000000000000000000000000000000000000000c000002000200000001010000000000000000000000000000000000000000000c0000020002000000000000000000000000000000000000000000000000000004080004000000000000000000000000000000000000000000000000000000000a000000000000000004e902e7020000000000000000000000000000000000000c000002000200000001000000000000000000000000000000000000000000000c000002000200000000000000000000000000000000000000000000000000001a00000200010000000201000000000000000000000000000000000000000000070000000000000000039d0200000000000000000000000000000000000000000a000000000000000002ec02ed020000000000000000000000000000000000000a000000000000000001ea03ea030000000000000000000000000000000000000c000002000200000001020000000000000000000000000000000000000000000c0000020002000000000000000000000000000000000000000000000000000005020000000200000001000000000000000000000000000000000000000000000e000002000000000060050000000000000000000000000000000000000000000e000000000200000021020000000000000000000000000000000000000000000e000002000000000060040000000000000000000000000000000000000000000c000001000100000001000000000000000000000000000000000000000000000c000001000100000000000000000000000000000000ed0169f4000000000000070000000000000000036a0700000000000000000000000000000000000000000c000004000400000001ffffffffffffffffffffffffffffffff0000000000000c000004000400000000ffffffff0000000000000000000000000000000000000e000000000200000061060000000000000000000000000000000000000000001a020004000100000002000000000000000000000000000000000000000000000e000000000200000061040000000000000000000000000000000000000000000200000200020000000004000000000000000000000000000000000000000000070000000000000000036a0700000000000000000000000000000000000000000e000000000200000061050000000000000000000000000000000000000000000c000004000400000001ffffffffffffffffffffffffffffffff0000000000000c000004000400000000ffffffff0000000000000000000000000000000000001a020004000400000002000000000000000000000000000000000000000000000c000002000200000001040000000000000000000000000000000000000000000c0000020002000000000000000000000000000000000000000000000000000004040002000000000000000000000000000000000000000000000000000000000a000000000000000004350305030000000000000000000000000000000000000e0000040000000000600300000000000000000000000000000000000000000010000000000000000000000000000000000000000000000000000000000000000c000002000200000001240000000000000000000000000000000000000000000c000002000200000000000000000000000000000000000000000000000000000e000002000000000040000000000000000000000000000000000000000000000c000008000800000001000000000000000000000000000000000000000000000c000008000800000000000000000000000000000000000000000000000000000e000000000200000061040000000000000000000000000000000000000000000a0000000000000000011203120300000000000000000000000000000000000002020000000800000000000000000000000000000000000000000000000000000e0000000002000000610400000000000000000000000000000000000000000004040000000000000000000000000000000000000000000000000000000000000a00000000000000000a120325030000000000000000000000000000000000000e0000080000000000600600000000000000000000000000000000000000000018000008000400000000050000000000000000000000000000000000000000000e00000400000000006005000000000000000000000000000000000000000000020200040001000000000000000000000000000000000000000000000000000007000000000000000003420700000000000000000000000000000000000000000c000002000200000001200000000000000000000000000000000000000000000c000002000200000000000000000000000000000000000000000000000000000e0000000004000000610500000000000000000000000000000000000000000008040002000200000000000000000000000000000000000000000000000000000e020001000000000040010000000000000000000000000000000000000000000e0000000008000000610600000000000000000000000000000000000000000002000008000200000000010000000000000000000000000000000000000000000c000004000400000001010000000000000000000000000000000000000000000c0000040004000000000000000000000000000000000000000000000000000004020008000000000000000000000000000000000000000000000000000000000a0000000000000000020e0322030000000000000000000000000000000000000c000004000400000001000000000000000000000000000000000000000000000c000004000400000000000000000000000000000000000000000000000000000a0000000000000000010e030e03000000000000000000000000000000000000020000020001000000002000000000000000000000000000000000000000000007000000000000000003420700000000000000000000000000000000000000000c000002000200000001ffffffffffffffffffffffffffffffff0000000000000c000002000200000000ffffffffffffffffffffffff000000000000000000000e000000000400000041020000000000000000000000000000000000000000001a040002000200000002000000000000000000000000000000000000000000000c000004000400000001000000000000000000000000000000000000000000000c000004000400000000000000000000000000000000ffffffff0000000000001a010004000400000002000000000000000000000000000000000000000000001a040002000200000004000000000000000000000000000000000000000000000e000002000000000040020000000000000000000000000000000000000000000e000000000200000061030000000000000000000000000000000000000000001800000200010000000020000000000000000000000000000000000000000000070000000000000000039107000000000000000000000000000000000000000004010000000000000000000000000000000000000000000000000000000000000a000000000000000004770335030000000000000000000000000000000000000e000000000200000041000000000000000000000000000000000000000000001a000002000200000002ffffffff000000000000000000000000000000000000020000020002000000001f0000000000000000000000000000000000000000001a000002000800000002e0ffffff0100000000000000000000000000000000000e0000000002000000610400000000000000000000000000000000000000000002080002000200000000000000000000000000000000000000000000000000000c000004000400000001010000000000000000000000000000000000000000000c0000040004000000000000000000000000000000000000000000000000000004020008000000000000000000000000000000000000000000000000000000000a00000000000000000241033f030000000000000000000000000000000000000c000004000400000001000000000000000000000000000000000000000000000c000004000400000000000000000000000000000000000000000000000000000c000008000800000001ffffffffffffffff00000000000000000000000000000c0000080008000000000000000000000000000000000000000000000000000004020008000000000000000000000000000000000000000000000000000000000a0000000000000000084d0345030000000000000000000000000000000000001a000004000400000002010000000000000000000000000000000000000000000c000008000800000001010000000000000000000000000000000000000000000c0000080008000000000000000000000000000000000000000000000000000004040008000000000000000000000000000000000000000000000000000000000a0000000000000000044d034a030000000000000000000000000000000000000e000002000000000020020000000000000000000000000000000000000000000e0000000000000000e10500000000000000000000000000000000000000000007000000000000000000000000000000000000000000000000000000000000000c000002000200000001000000000000000000000000000000000000000000000c000002000200000000000000000000000000000000717b484e0000000000000e000002000000000020000000000000000000000000000000000000000000000c000001000100000001410000000000000000000000000000000000000000000c000001000100000000000000000000000000000000000000000000000000000c000002000200000001040000000000000000000000000000000000000000000c00000200020000000000000000000000000000000000000000000000000000070000000000000000036a0700000000000000000000000000000000000000000c000002000200000001240000000000000000000000000000000000000000000c000002000200000000000000000000000000000000000000000000000000000e000002000000000000000000000000000000000000000000000000000000000c000004000400000001000000000000000000000000000000000000000000000c000004000400000000000000000000000000000000000000000000000000000c000002000200000001200000000000000000000000000000000000000000000c000002000200000000000000000000000000000000000000000000000000000a00000000000000000160036003000000000000000000000000000000000000020800000004000000000000000000000000000000000000000000000000000004100000000000000000000000000000000000000000000000000000000000000a00000000000000000a60036c03000000000000000000000000000000000000180000040008000000000500000000000000000000000000000000000000000008080002000800000000000000000000000000000000000000000000000000000e080000001000000021000000000000000000000000000000000000000000000e0800100000000000000100000000000000000000000000000000000000000002000004000800000000010000000000000000000000000000000000000000000c000010001000000001010000000000000000000000000000000000000000000c0000100010000000000000000000000000000000000000000000000000000004080004000000000000000000000000000000000000000000000000000000000a0000000000000000025d0369030000000000000000000000000000000000000c000010001000000001000000000000000000000000000000000000000000000c000010001000000000000000000000000000000000000000000000000000000a0000000000000000015d035d030000000000000000000000000000000000000c000002000200000001ffffffffffffffffffffffffffffffff0000000000000c000002000200000000ffffffffffffffffffffffff000000000000000000000e000000000400000001020000000000000000000000000000000000000000001a040002000200000002000000000000000000000000000000000000000000000c000004000400000001000000000000000000000000000000000000000000000c000004000400000000000000000000000000000000ffffffff0000000000000e000000000800000021010000000000000000000000000000000000000000001a080004000400000002000000000000000000000000000000000000000000001a040002000200000004000000000000000000000000000000000000000000000e000002000000000000020000000000000000000000000000000000000000000a000000000000000001ea03ea030000000000000000000000000000000000000c000008000800000001000000000000000000000000000000000000000000000c000008000800000000000000000000000000000000000000000000000000000e000000000200000021020000000000000000000000000000000000000000000e000002000000000060060000000000000000000000000000000000000000000e000000000200000041000000000000000000000000000000000000000000001a0000020004000000021f0000000000000000000000000000000000000000000e000004000000000060030000000000000000000000000000000000000000001a000002000200000002e0ffffff0000000000000000000000000000000000000e0000020000000000600200000000000000000000000000000000000000000018000002000200000002050000000000000000000000000000000000000000000e0000020000000000600400000000000000000000000000000000000000000004020000000000000000000000000000000000000000000000000000000000000a000000000000000004920384030000000000000000000000000000000000000e0000080000000000600500000000000000000000000000000000000000000018000008000400000000050000000000000000000000000000000000000000000e0000000002000000610600000000000000000000000000000000000000000002020004000200000000000000000000000000000000000000000000000000000c000008000800000001200000000000000000000000000000000000000000000c0000080008000000000000000000000000000000000000000000000000000008040008000400000000000000000000000000000000000000000000000000000e04000000010000004101000000000000000000000000000000000000000000070000000000000000036a0700000000000000000000000000000000000000000e0000000008000000610500000000000000000000000000000000000000000002000008000800000000010000000000000000000000000000000000000000000e0000000002000000610400000000000000000000000000000000000000000004080002000000000000000000000000000000000000000000000000000000000a000000000000000002840392030000000000000000000000000000000000000e000000000200000061060000000000000000000000000000000000000000000e0000000002000000610300000000000000000000000000000000000000000004020000000000000000000000000000000000000000000000000000000000000a000000000000000004b20396030000000000000000000000000000000000000e0000000002000000610300000000000000000000000000000000000000000018000002000200000000030000000000000000000000000000000000000000000c000004000400000001000100000000000000000000000000000000000000000c0000040004000000000000000000000000000000000000000000000000000004040002000400000000000000000000000000000000000000000000000000000c000008000800000001ffffffffffffffffffffffffffffffff0000000000000c000008000800000000ffffffffffffffffffffffffffffffff00000000000018040008000400000000000000000000000000000000000000000000000000000c000010001000000001200000000000000000000000000000000000000000000c000010001000000000000000000000000000000000000000000000000000000e0000000020000000610200000000000000000000000000000000000000000008200010001000000000000000000000000000000000000000000000000000000e100000001000000041010000000000000000000000000000000000000000001a100004000400000002000000000000000000000000000000000000000000000e0000040000000000600500000000000000000000000000000000000000000018020008000200000002000000000000000000000000000000000000000000000e000002000000000060030000000000000000000000000000000000000000000e0000000002000000610600000000000000000000000000000000000000000002020020000200000000000000000000000000000000000000000000000000000e00000200000000006004000000000000000000000000000000000000000000020200000001000000000000000000000000000000000000000000000000000007000000000000000003420700000000000000000000000000000000000000000e000000000200000061030000000000000000000000000000000000000000001a010002000200000002000000000000000000000000000000000000000000000e000000000400000061050000000000000000000000000000000000000000001a040002000100000004000000000000000000000000000000000000000000000e00000000020000006104000000000000000000000000000000000000000000070000000000000000036a0700000000000000000000000000000000000000000c000008000800000001000000000000000000000000000000000000000000000c000008000800000000000000000000000000000000000000000000000000000e000000000400000041000000000000000000000000000000000000000000001a0000040002000000021f0000000000000000000000000000000000000000000e000002000000000060020000000000000000000000000000000000000000000e000004000000000060010000000000000000000000000000000000000000001a000004000200000002ffffffff0000000000000000000000000000000000000e0000020000000000000000000000000000000000000000000000000000000018000002000200000002050000000000000000000000000000000000000000000e000000000400000061060000000000000000000000000000000000000000000e0000020000000000600300000000000000000000000000000000000000000004020000000000000000000000000000000000000000000000000000000000000a000000000000000004cf03bf030000000000000000000000000000000000000e0000080000000000600500000000000000000000000000000000000000000018000008000400000000050000000000000000000000000000000000000000000e000004000000000060040000000000000000000000000000000000000000000e00000000020000006106000000000000000000000000000000000000000000020200040001000000000000000000000000000000000000000000000000000007000000000000000003420700000000000000000000000000000000000000000e000000000800000061050000000000000000000000000000000000000000000c000002000200000001200000000000000000000000000000000000000000000c000002000200000000000000000000000000000000000000000000000000000e0000000004000000610400000000000000000000000000000000000000000008040002000200000000000000000000000000000000000000000000000000000e0200010000000000000100000000000000000000000000000000000000000002000008000800000000010000000000000000000000000000000000000000000e0000000002000000610300000000000000000000000000000000000000000004080002000000000000000000000000000000000000000000000000000000000a000000000000000002bf03cf030000000000000000000000000000000000000e0000000002000000610200000000000000000000000000000000000000000004020000000000000000000000000000000000000000000000000000000000000a000000000000000004ea03d2030000000000000000000000000000000000000e000000000200000061010000000000000000000000000000000000000000001a000002000400000002e0ffffff0000000000000000000000000000000000000e000004000000000060050000000000000000000000000000000000000000000e00000000020000006106000000000000000000000000000000000000000000020200040001000000000000000000000000000000000000000000000000000007000000000000000003420700000000000000000000000000000000000000000c000002000200000001200000000000000000000000000000000000000000000c000002000200000000000000000000000000000000000000000000000000000e0000000004000000610500000000000000000000000000000000000000000008040002000200000000000000000000000000000000000000000000000000000e0000000004000000610200000000000000000000000000000000000000000018000004000400000000030000000000000000000000000000000000000000000c000008000800000001ffffffffffffffffffffffffffffffff0000000000000c000008000800000000ffffffffffffffffffffffffffffffff00000000000018040008001000000002000000000000000000000000000000000000000000000e020000002000000001010000000000000000000000000000000000000000001a200010001000000002000000000000000000000000000000000000000000000c000020002000000001000100000000000000000000000000000000000000000c00002000200000000000000000000000000000000000000000000000000000042000040004000000000000000000000000000000000000000000000000000018040008000400000000000000000000000000000000000000000000000000001a010004000400000002000000000000000000000000000000000000000000001a040010000400000004000000000000000000000000000000000000000000000e020004000000000000010000000000000000000000000000000000000000000e0000000000000000e10500000000000000000000000000000000000000000007000000000000000004000000000000000000000000000000000000000000000e0000000000000000e0050000000000000000000000000000000000000000000e000001000000000060060000000000000000000000000000000000000000000c000002000200000001000000000000000000000000000000000000000000000c0000020002000000000000000000000000000000000000000000000000000005020000000200000001000000000000000000000000000000000000000000000c000004000400000001ffffffffffffffffffffffffffffffff0000000000000c000004000400000000ffffffff0000000000000000000000000000000000001a0200040004000000020000000000000000000000000000000000000000000014000000000800000000000000000000000000000000000000000000000000000c000002000200000001010000000000000000000000000000000000000000000c0000020002000000000000000000000000000000000000000000000000000004080004000000000000000000000000000000000000000000000000000000000a000000000000000004fb03f9030000000000000000000000000000000000000c000002000200000001000000000000000000000000000000000000000000000c000002000200000000000000000000000000000000000000000000000000001a00000200010000000201000000000000000000000000000000000000000000070000000000000000039d0200000000000000000000000000000000000000000a000000000000000002fe03ff030000000000000000000000000000000000000a000000000000000001fc04fc040000000000000000000000000000000000000c000002000200000001020000000000000000000000000000000000000000000c0000020002000000000000000000000000000000000000000000000000000005020000000200000001000000000000000000000000000000000000000000000e000002000000000060050000000000000000000000000000000000000000000e000000000200000021020000000000000000000000000000000000000000000e000002000000000060040000000000000000000000000000000000000000000c000001000100000001000000000000000000000000000000000000000000000c000001000100000000000000000000000000000000f64ae7a2000000000000070000000000000000036a0700000000000000000000000000000000000000000c000004000400000001ffffffffffffffffffffffffffffffff0000000000000c000004000400000000ffffffff0000000000000000000000000000000000000e000000000200000061060000000000000000000000000000000000000000001a020004000100000002000000000000000000000000000000000000000000000e000000000200000061040000000000000000000000000000000000000000000200000200020000000004000000000000000000000000000000000000000000070000000000000000036a0700000000000000000000000000000000000000000e000000000200000061050000000000000000000000000000000000000000000c000004000400000001ffffffffffffffffffffffffffffffff0000000000000c000004000400000000ffffffff0000000000000000000000000000000000001a020004000400000002000000000000000000000000000000000000000000000c000002000200000001040000000000000000000000000000000000000000000c0000020002000000000000000000000000000000000000000000000000000004040002000000000000000000000000000000000000000000000000000000000a000000000000000004470417040000000000000000000000000000000000000e0000040000000000600300000000000000000000000000000000000000000010000000000000000000000000000000000000000000000000000000000000000c000002000200000001240000000000000000000000000000000000000000000c000002000200000000000000000000000000000000000000000000000000000e000002000000000040000000000000000000000000000000000000000000000c000008000800000001000000000000000000000000000000000000000000000c000008000800000000000000000000000000000000000000000000000000000e000000000200000061040000000000000000000000000000000000000000000a0000000000000000012404240400000000000000000000000000000000000002020000000800000000000000000000000000000000000000000000000000000e0000000002000000610400000000000000000000000000000000000000000004040000000000000000000000000000000000000000000000000000000000000a00000000000000000a240437040000000000000000000000000000000000000e0000080000000000600600000000000000000000000000000000000000000018000008000400000000050000000000000000000000000000000000000000000e00000400000000006005000000000000000000000000000000000000000000020200040001000000000000000000000000000000000000000000000000000007000000000000000003420700000000000000000000000000000000000000000c000002000200000001200000000000000000000000000000000000000000000c000002000200000000000000000000000000000000000000000000000000000e0000000004000000610500000000000000000000000000000000000000000008040002000200000000000000000000000000000000000000000000000000000e020001000000000040010000000000000000000000000000000000000000000e0000000008000000610600000000000000000000000000000000000000000002000008000200000000010000000000000000000000000000000000000000000c000004000400000001010000000000000000000000000000000000000000000c0000040004000000000000000000000000000000000000000000000000000004020008000000000000000000000000000000000000000000000000000000000a000000000000000002200434040000000000000000000000000000000000000c000004000400000001000000000000000000000000000000000000000000000c000004000400000000000000000000000000000000000000000000000000000a00000000000000000120042004000000000000000000000000000000000000020000020001000000002000000000000000000000000000000000000000000007000000000000000003420700000000000000000000000000000000000000000c000002000200000001ffffffffffffffffffffffffffffffff0000000000000c000002000200000000ffffffffffffffffffffffff000000000000000000000e000000000400000041020000000000000000000000000000000000000000001a040002000200000002000000000000000000000000000000000000000000000c000004000400000001000000000000000000000000000000000000000000000c000004000400000000000000000000000000000000ffffffff0000000000001a010004000400000002000000000000000000000000000000000000000000001a040002000200000004000000000000000000000000000000000000000000000e000002000000000040020000000000000000000000000000000000000000000e000000000200000061030000000000000000000000000000000000000000001800000200010000000020000000000000000000000000000000000000000000070000000000000000039107000000000000000000000000000000000000000004010000000000000000000000000000000000000000000000000000000000000a000000000000000004890447040000000000000000000000000000000000000e000000000200000041000000000000000000000000000000000000000000001a000002000200000002ffffffff000000000000000000000000000000000000020000020002000000001f0000000000000000000000000000000000000000001a000002000800000002e0ffffff0100000000000000000000000000000000000e0000000002000000610400000000000000000000000000000000000000000002080002000200000000000000000000000000000000000000000000000000000c000004000400000001010000000000000000000000000000000000000000000c0000040004000000000000000000000000000000000000000000000000000004020008000000000000000000000000000000000000000000000000000000000a000000000000000002530451040000000000000000000000000000000000000c000004000400000001000000000000000000000000000000000000000000000c000004000400000000000000000000000000000000000000000000000000000c000008000800000001ffffffffffffffff00000000000000000000000000000c0000080008000000000000000000000000000000000000000000000000000004020008000000000000000000000000000000000000000000000000000000000a0000000000000000085f0457040000000000000000000000000000000000001a000004000400000002010000000000000000000000000000000000000000000c000008000800000001010000000000000000000000000000000000000000000c0000080008000000000000000000000000000000000000000000000000000004040008000000000000000000000000000000000000000000000000000000000a0000000000000000045f045c040000000000000000000000000000000000000e000002000000000020020000000000000000000000000000000000000000000e0000000000000000e10500000000000000000000000000000000000000000007000000000000000000000000000000000000000000000000000000000000000c000002000200000001000000000000000000000000000000000000000000000c000002000200000000000000000000000000000000717b484e0000000000000e000002000000000020000000000000000000000000000000000000000000000c000001000100000001410000000000000000000000000000000000000000000c000001000100000000000000000000000000000000000000000000000000000c000002000200000001040000000000000000000000000000000000000000000c00000200020000000000000000000000000000000000000000000000000000070000000000000000036a0700000000000000000000000000000000000000000c000002000200000001240000000000000000000000000000000000000000000c000002000200000000000000000000000000000000000000000000000000000e000002000000000000000000000000000000000000000000000000000000000c000004000400000001000000000000000000000000000000000000000000000c000004000400000000000000000000000000000000000000000000000000000c000002000200000001200000000000000000000000000000000000000000000c000002000200000000000000000000000000000000000000000000000000000a00000000000000000172047204000000000000000000000000000000000000020800000004000000000000000000000000000000000000000000000000000004100000000000000000000000000000000000000000000000000000000000000a00000000000000000a72047e04000000000000000000000000000000000000180000040008000000000500000000000000000000000000000000000000000008080002000800000000000000000000000000000000000000000000000000000e080000001000000021000000000000000000000000000000000000000000000e0800100000000000000100000000000000000000000000000000000000000002000004000800000000010000000000000000000000000000000000000000000c000010001000000001010000000000000000000000000000000000000000000c0000100010000000000000000000000000000000000000000000000000000004080004000000000000000000000000000000000000000000000000000000000a0000000000000000026f047b040000000000000000000000000000000000000c000010001000000001000000000000000000000000000000000000000000000c000010001000000000000000000000000000000000000000000000000000000a0000000000000000016f046f040000000000000000000000000000000000000c000002000200000001ffffffffffffffffffffffffffffffff0000000000000c000002000200000000ffffffffffffffffffffffff000000000000000000000e000000000400000001020000000000000000000000000000000000000000001a040002000200000002000000000000000000000000000000000000000000000c000004000400000001000000000000000000000000000000000000000000000c000004000400000000000000000000000000000000ffffffff0000000000000e000000000800000021010000000000000000000000000000000000000000001a080004000400000002000000000000000000000000000000000000000000001a040002000200000004000000000000000000000000000000000000000000000e000002000000000000020000000000000000000000000000000000000000000a000000000000000001fc04fc040000000000000000000000000000000000000c000008000800000001000000000000000000000000000000000000000000000c000008000800000000000000000000000000000000000000000000000000000e000000000200000021020000000000000000000000000000000000000000000e000002000000000060060000000000000000000000000000000000000000000e000000000200000041000000000000000000000000000000000000000000001a0000020004000000021f0000000000000000000000000000000000000000000e000004000000000060030000000000000000000000000000000000000000001a000002000200000002e0ffffff0000000000000000000000000000000000000e0000020000000000600200000000000000000000000000000000000000000018000002000200000002050000000000000000000000000000000000000000000e0000020000000000600400000000000000000000000000000000000000000004020000000000000000000000000000000000000000000000000000000000000a000000000000000004a40496040000000000000000000000000000000000000e0000080000000000600500000000000000000000000000000000000000000018000008000400000000050000000000000000000000000000000000000000000e0000000002000000610600000000000000000000000000000000000000000002020004000200000000000000000000000000000000000000000000000000000c000008000800000001200000000000000000000000000000000000000000000c0000080008000000000000000000000000000000000000000000000000000008040008000400000000000000000000000000000000000000000000000000000e04000000010000004101000000000000000000000000000000000000000000070000000000000000036a0700000000000000000000000000000000000000000e0000000008000000610500000000000000000000000000000000000000000002000008000800000000010000000000000000000000000000000000000000000e0000000002000000610400000000000000000000000000000000000000000004080002000000000000000000000000000000000000000000000000000000000a0000000000000000029604a4040000000000000000000000000000000000000e000000000200000061060000000000000000000000000000000000000000000e0000000002000000610300000000000000000000000000000000000000000004020000000000000000000000000000000000000000000000000000000000000a000000000000000004c404a8040000000000000000000000000000000000000e0000000002000000610300000000000000000000000000000000000000000018000002000200000000030000000000000000000000000000000000000000000c000004000400000001000100000000000000000000000000000000000000000c0000040004000000000000000000000000000000000000000000000000000004040002000400000000000000000000000000000000000000000000000000000c000008000800000001ffffffffffffffffffffffffffffffff0000000000000c000008000800000000ffffffffffffffffffffffffffffffff00000000000018040008000400000000000000000000000000000000000000000000000000000c000010001000000001200000000000000000000000000000000000000000000c000010001000000000000000000000000000000000000000000000000000000e0000000020000000610200000000000000000000000000000000000000000008200010001000000000000000000000000000000000000000000000000000000e100000001000000041010000000000000000000000000000000000000000001a100004000400000002000000000000000000000000000000000000000000000e0000040000000000600500000000000000000000000000000000000000000018020008000200000002000000000000000000000000000000000000000000000e000002000000000060030000000000000000000000000000000000000000000e0000000002000000610600000000000000000000000000000000000000000002020020000200000000000000000000000000000000000000000000000000000e00000200000000006004000000000000000000000000000000000000000000020200000001000000000000000000000000000000000000000000000000000007000000000000000003420700000000000000000000000000000000000000000e000000000200000061030000000000000000000000000000000000000000001a010002000200000002000000000000000000000000000000000000000000000e000000000400000061050000000000000000000000000000000000000000001a040002000100000004000000000000000000000000000000000000000000000e00000000020000006104000000000000000000000000000000000000000000070000000000000000036a0700000000000000000000000000000000000000000c000008000800000001000000000000000000000000000000000000000000000c000008000800000000000000000000000000000000000000000000000000000e000000000400000041000000000000000000000000000000000000000000001a0000040002000000021f0000000000000000000000000000000000000000000e000002000000000060020000000000000000000000000000000000000000000e000004000000000060010000000000000000000000000000000000000000001a000004000200000002ffffffff0000000000000000000000000000000000000e0000020000000000000000000000000000000000000000000000000000000018000002000200000002050000000000000000000000000000000000000000000e000000000400000061060000000000000000000000000000000000000000000e0000020000000000600300000000000000000000000000000000000000000004020000000000000000000000000000000000000000000000000000000000000a000000000000000004e104d1040000000000000000000000000000000000000e0000080000000000600500000000000000000000000000000000000000000018000008000400000000050000000000000000000000000000000000000000000e000004000000000060040000000000000000000000000000000000000000000e00000000020000006106000000000000000000000000000000000000000000020200040001000000000000000000000000000000000000000000000000000007000000000000000003420700000000000000000000000000000000000000000e000000000800000061050000000000000000000000000000000000000000000c000002000200000001200000000000000000000000000000000000000000000c000002000200000000000000000000000000000000000000000000000000000e0000000004000000610400000000000000000000000000000000000000000008040002000200000000000000000000000000000000000000000000000000000e0200010000000000000100000000000000000000000000000000000000000002000008000800000000010000000000000000000000000000000000000000000e0000000002000000610300000000000000000000000000000000000000000004080002000000000000000000000000000000000000000000000000000000000a000000000000000002d104e1040000000000000000000000000000000000000e0000000002000000610200000000000000000000000000000000000000000004020000000000000000000000000000000000000000000000000000000000000a000000000000000004fc04e4040000000000000000000000000000000000000e000000000200000061010000000000000000000000000000000000000000001a000002000400000002e0ffffff0000000000000000000000000000000000000e000004000000000060050000000000000000000000000000000000000000000e00000000020000006106000000000000000000000000000000000000000000020200040001000000000000000000000000000000000000000000000000000007000000000000000003420700000000000000000000000000000000000000000c000002000200000001200000000000000000000000000000000000000000000c000002000200000000000000000000000000000000000000000000000000000e0000000004000000610500000000000000000000000000000000000000000008040002000200000000000000000000000000000000000000000000000000000e0000000004000000610200000000000000000000000000000000000000000018000004000400000000030000000000000000000000000000000000000000000c000008000800000001ffffffffffffffffffffffffffffffff0000000000000c000008000800000000ffffffffffffffffffffffffffffffff00000000000018040008001000000002000000000000000000000000000000000000000000000e020000002000000001010000000000000000000000000000000000000000001a200010001000000002000000000000000000000000000000000000000000000c000020002000000001000100000000000000000000000000000000000000000c00002000200000000000000000000000000000000000000000000000000000042000040004000000000000000000000000000000000000000000000000000018040008000400000000000000000000000000000000000000000000000000001a010004000400000002000000000000000000000000000000000000000000001a040010000400000004000000000000000000000000000000000000000000000e020004000000000000010000000000000000000000000000000000000000000e0000000000000000e10500000000000000000000000000000000000000000007000000000000000004000000000000000000000000000000000000000000000e0000000000000000e0050000000000000000000000000000000000000000000e000001000000000060060000000000000000000000000000000000000000000c000002000200000001000000000000000000000000000000000000000000000c0000020002000000000000000000000000000000000000000000000000000005020000000200000001000000000000000000000000000000000000000000000c000004000400000001ffffffffffffffffffffffffffffffff0000000000000c000004000400000000ffffffff0000000000000000000000000000000000001a0200040004000000020000000000000000000000000000000000000000000014000000000800000000000000000000000000000000000000000000000000000c000002000200000001010000000000000000000000000000000000000000000c0000020002000000000000000000000000000000000000000000000000000004080004000000000000000000000000000000000000000000000000000000000a0000000000000000040d050b050000000000000000000000000000000000000c000002000200000001000000000000000000000000000000000000000000000c000002000200000000000000000000000000000000000000000000000000001a00000200010000000201000000000000000000000000000000000000000000070000000000000000039d0200000000000000000000000000000000000000000a000000000000000002100511050000000000000000000000000000000000000a0000000000000000010c060c060000000000000000000000000000000000000c000002000200000001020000000000000000000000000000000000000000000c0000020002000000000000000000000000000000000000000000000000000005020000000200000001000000000000000000000000000000000000000000000e000002000000000060050000000000000000000000000000000000000000000e000000000200000021020000000000000000000000000000000000000000000e000002000000000060040000000000000000000000000000000000000000000c000001000100000001000000000000000000000000000000000000000000000c00000100010000000000000000000000000000000011f8914e000000000000070000000000000000036a0700000000000000000000000000000000000000000e000000000200000061060000000000000000000000000000000000000000001a000002000100000002ff0000000000000000000000000000000000000000000e000000000200000061040000000000000000000000000000000000000000000200000200020000000004000000000000000000000000000000000000000000070000000000000000036a0700000000000000000000000000000000000000000c000002000200000001ffffffffffffffffffffffffffffffff0000000000000c000002000200000000ffffffff0000000000000000000000000000000000000e000000000400000061050000000000000000000000000000000000000000001a040002000400000002000000000000000000000000000000000000000000000c000002000200000001040000000000000000000000000000000000000000000c0000020002000000000000000000000000000000000000000000000000000004040002000000000000000000000000000000000000000000000000000000000a000000000000000004570527050000000000000000000000000000000000000e0000040000000000600300000000000000000000000000000000000000000010000000000000000000000000000000000000000000000000000000000000000c000002000200000001240000000000000000000000000000000000000000000c000002000200000000000000000000000000000000000000000000000000000e000002000000000040000000000000000000000000000000000000000000000c000008000800000001000000000000000000000000000000000000000000000c000008000800000000000000000000000000000000000000000000000000000e000000000200000061040000000000000000000000000000000000000000000a0000000000000000013405340500000000000000000000000000000000000002020000000800000000000000000000000000000000000000000000000000000e0000000002000000610400000000000000000000000000000000000000000004040000000000000000000000000000000000000000000000000000000000000a00000000000000000a340547050000000000000000000000000000000000000e0000080000000000600600000000000000000000000000000000000000000018000008000400000000050000000000000000000000000000000000000000000e00000400000000006005000000000000000000000000000000000000000000020200040001000000000000000000000000000000000000000000000000000007000000000000000003420700000000000000000000000000000000000000000c000002000200000001200000000000000000000000000000000000000000000c000002000200000000000000000000000000000000000000000000000000000e0000000004000000610500000000000000000000000000000000000000000008040002000200000000000000000000000000000000000000000000000000000e020001000000000040010000000000000000000000000000000000000000000e0000000008000000610600000000000000000000000000000000000000000002000008000200000000010000000000000000000000000000000000000000000c000004000400000001010000000000000000000000000000000000000000000c0000040004000000000000000000000000000000000000000000000000000004020008000000000000000000000000000000000000000000000000000000000a000000000000000002300544050000000000000000000000000000000000000c000004000400000001000000000000000000000000000000000000000000000c000004000400000000000000000000000000000000000000000000000000000a00000000000000000130053005000000000000000000000000000000000000020000020001000000002000000000000000000000000000000000000000000007000000000000000003420700000000000000000000000000000000000000000c000002000200000001ffffffffffffffffffffffffffffffff0000000000000c000002000200000000ffffffffffffffffffffffff000000000000000000000e000000000400000041020000000000000000000000000000000000000000001a040002000200000002000000000000000000000000000000000000000000000c000004000400000001000000000000000000000000000000000000000000000c000004000400000000000000000000000000000000ffffffff0000000000001a010004000400000002000000000000000000000000000000000000000000001a040002000200000004000000000000000000000000000000000000000000000e000002000000000040020000000000000000000000000000000000000000000e000000000200000061030000000000000000000000000000000000000000001800000200010000000020000000000000000000000000000000000000000000070000000000000000039107000000000000000000000000000000000000000004010000000000000000000000000000000000000000000000000000000000000a000000000000000004990557050000000000000000000000000000000000000e000000000200000041000000000000000000000000000000000000000000001a000002000200000002ffffffff000000000000000000000000000000000000020000020002000000001f0000000000000000000000000000000000000000001a000002000800000002e0ffffff0100000000000000000000000000000000000e0000000002000000610400000000000000000000000000000000000000000002080002000200000000000000000000000000000000000000000000000000000c000004000400000001010000000000000000000000000000000000000000000c0000040004000000000000000000000000000000000000000000000000000004020008000000000000000000000000000000000000000000000000000000000a000000000000000002630561050000000000000000000000000000000000000c000004000400000001000000000000000000000000000000000000000000000c000004000400000000000000000000000000000000000000000000000000000c000008000800000001ffffffffffffffff00000000000000000000000000000c0000080008000000000000000000000000000000000000000000000000000004020008000000000000000000000000000000000000000000000000000000000a0000000000000000086f0567050000000000000000000000000000000000001a000004000400000002010000000000000000000000000000000000000000000c000008000800000001010000000000000000000000000000000000000000000c0000080008000000000000000000000000000000000000000000000000000004040008000000000000000000000000000000000000000000000000000000000a0000000000000000046f056c050000000000000000000000000000000000000e000002000000000020020000000000000000000000000000000000000000000e0000000000000000e10500000000000000000000000000000000000000000007000000000000000000000000000000000000000000000000000000000000000c000002000200000001000000000000000000000000000000000000000000000c000002000200000000000000000000000000000000717b484e0000000000000e000002000000000020000000000000000000000000000000000000000000000c000001000100000001410000000000000000000000000000000000000000000c000001000100000000000000000000000000000000000000000000000000000c000002000200000001040000000000000000000000000000000000000000000c00000200020000000000000000000000000000000000000000000000000000070000000000000000036a0700000000000000000000000000000000000000000c000002000200000001240000000000000000000000000000000000000000000c000002000200000000000000000000000000000000000000000000000000000e000002000000000000000000000000000000000000000000000000000000000c000004000400000001000000000000000000000000000000000000000000000c000004000400000000000000000000000000000000000000000000000000000c000002000200000001200000000000000000000000000000000000000000000c000002000200000000000000000000000000000000000000000000000000000a00000000000000000182058205000000000000000000000000000000000000020800000004000000000000000000000000000000000000000000000000000004100000000000000000000000000000000000000000000000000000000000000a00000000000000000a82058e05000000000000000000000000000000000000180000040008000000000500000000000000000000000000000000000000000008080002000800000000000000000000000000000000000000000000000000000e080000001000000021000000000000000000000000000000000000000000000e0800100000000000000100000000000000000000000000000000000000000002000004000800000000010000000000000000000000000000000000000000000c000010001000000001010000000000000000000000000000000000000000000c0000100010000000000000000000000000000000000000000000000000000004080004000000000000000000000000000000000000000000000000000000000a0000000000000000027f058b050000000000000000000000000000000000000c000010001000000001000000000000000000000000000000000000000000000c000010001000000000000000000000000000000000000000000000000000000a0000000000000000017f057f050000000000000000000000000000000000000c000002000200000001ffffffffffffffffffffffffffffffff0000000000000c000002000200000000ffffffffffffffffffffffff000000000000000000000e000000000400000001020000000000000000000000000000000000000000001a040002000200000002000000000000000000000000000000000000000000000c000004000400000001000000000000000000000000000000000000000000000c000004000400000000000000000000000000000000ffffffff0000000000000e000000000800000021010000000000000000000000000000000000000000001a080004000400000002000000000000000000000000000000000000000000001a040002000200000004000000000000000000000000000000000000000000000e000002000000000000020000000000000000000000000000000000000000000a0000000000000000010c060c060000000000000000000000000000000000000c000008000800000001000000000000000000000000000000000000000000000c000008000800000000000000000000000000000000000000000000000000000e000000000200000021020000000000000000000000000000000000000000000e000002000000000060060000000000000000000000000000000000000000000e000000000200000041000000000000000000000000000000000000000000001a0000020004000000021f0000000000000000000000000000000000000000000e000004000000000060030000000000000000000000000000000000000000001a000002000200000002e0ffffff0000000000000000000000000000000000000e0000020000000000600200000000000000000000000000000000000000000018000002000200000002050000000000000000000000000000000000000000000e0000020000000000600400000000000000000000000000000000000000000004020000000000000000000000000000000000000000000000000000000000000a000000000000000004b405a6050000000000000000000000000000000000000e0000080000000000600500000000000000000000000000000000000000000018000008000400000000050000000000000000000000000000000000000000000e0000000002000000610600000000000000000000000000000000000000000002020004000200000000000000000000000000000000000000000000000000000c000008000800000001200000000000000000000000000000000000000000000c0000080008000000000000000000000000000000000000000000000000000008040008000400000000000000000000000000000000000000000000000000000e04000000010000004101000000000000000000000000000000000000000000070000000000000000036a0700000000000000000000000000000000000000000e0000000008000000610500000000000000000000000000000000000000000002000008000800000000010000000000000000000000000000000000000000000e0000000002000000610400000000000000000000000000000000000000000004080002000000000000000000000000000000000000000000000000000000000a000000000000000002a605b4050000000000000000000000000000000000000e000000000200000061060000000000000000000000000000000000000000000e0000000002000000610300000000000000000000000000000000000000000004020000000000000000000000000000000000000000000000000000000000000a000000000000000004d405b8050000000000000000000000000000000000000e0000000002000000610300000000000000000000000000000000000000000018000002000200000000030000000000000000000000000000000000000000000c000004000400000001000100000000000000000000000000000000000000000c0000040004000000000000000000000000000000000000000000000000000004040002000400000000000000000000000000000000000000000000000000000c000008000800000001ffffffffffffffffffffffffffffffff0000000000000c000008000800000000ffffffffffffffffffffffffffffffff00000000000018040008000400000000000000000000000000000000000000000000000000000c000010001000000001200000000000000000000000000000000000000000000c000010001000000000000000000000000000000000000000000000000000000e0000000020000000610200000000000000000000000000000000000000000008200010001000000000000000000000000000000000000000000000000000000e100000001000000041010000000000000000000000000000000000000000001a100004000400000002000000000000000000000000000000000000000000000e0000040000000000600500000000000000000000000000000000000000000018020008000200000002000000000000000000000000000000000000000000000e000002000000000060030000000000000000000000000000000000000000000e0000000002000000610600000000000000000000000000000000000000000002020020000200000000000000000000000000000000000000000000000000000e00000200000000006004000000000000000000000000000000000000000000020200000001000000000000000000000000000000000000000000000000000007000000000000000003420700000000000000000000000000000000000000000e000000000200000061030000000000000000000000000000000000000000001a010002000200000002000000000000000000000000000000000000000000000e000000000400000061050000000000000000000000000000000000000000001a040002000100000004000000000000000000000000000000000000000000000e00000000020000006104000000000000000000000000000000000000000000070000000000000000036a0700000000000000000000000000000000000000000c000008000800000001000000000000000000000000000000000000000000000c000008000800000000000000000000000000000000000000000000000000000e000000000400000041000000000000000000000000000000000000000000001a0000040002000000021f0000000000000000000000000000000000000000000e000002000000000060020000000000000000000000000000000000000000000e000004000000000060010000000000000000000000000000000000000000001a000004000200000002ffffffff0000000000000000000000000000000000000e0000020000000000000000000000000000000000000000000000000000000018000002000200000002050000000000000000000000000000000000000000000e000000000400000061060000000000000000000000000000000000000000000e0000020000000000600300000000000000000000000000000000000000000004020000000000000000000000000000000000000000000000000000000000000a000000000000000004f105e1050000000000000000000000000000000000000e0000080000000000600500000000000000000000000000000000000000000018000008000400000000050000000000000000000000000000000000000000000e000004000000000060040000000000000000000000000000000000000000000e00000000020000006106000000000000000000000000000000000000000000020200040001000000000000000000000000000000000000000000000000000007000000000000000003420700000000000000000000000000000000000000000e000000000800000061050000000000000000000000000000000000000000000c000002000200000001200000000000000000000000000000000000000000000c000002000200000000000000000000000000000000000000000000000000000e0000000004000000610400000000000000000000000000000000000000000008040002000200000000000000000000000000000000000000000000000000000e0200010000000000000100000000000000000000000000000000000000000002000008000800000000010000000000000000000000000000000000000000000e0000000002000000610300000000000000000000000000000000000000000004080002000000000000000000000000000000000000000000000000000000000a000000000000000002e105f1050000000000000000000000000000000000000e0000000002000000610200000000000000000000000000000000000000000004020000000000000000000000000000000000000000000000000000000000000a0000000000000000040c06f4050000000000000000000000000000000000000e000000000200000061010000000000000000000000000000000000000000001a000002000400000002e0ffffff0000000000000000000000000000000000000e000004000000000060050000000000000000000000000000000000000000000e00000000020000006106000000000000000000000000000000000000000000020200040001000000000000000000000000000000000000000000000000000007000000000000000003420700000000000000000000000000000000000000000c000002000200000001200000000000000000000000000000000000000000000c000002000200000000000000000000000000000000000000000000000000000e0000000004000000610500000000000000000000000000000000000000000008040002000200000000000000000000000000000000000000000000000000000e0000000004000000610200000000000000000000000000000000000000000018000004000400000000030000000000000000000000000000000000000000000c000008000800000001ffffffffffffffffffffffffffffffff0000000000000c000008000800000000ffffffffffffffffffffffffffffffff00000000000018040008001000000002000000000000000000000000000000000000000000000e020000002000000001010000000000000000000000000000000000000000001a200010001000000002000000000000000000000000000000000000000000000c000020002000000001000100000000000000000000000000000000000000000c00002000200000000000000000000000000000000000000000000000000000042000040004000000000000000000000000000000000000000000000000000018040008000400000000000000000000000000000000000000000000000000001a010004000400000002000000000000000000000000000000000000000000001a040010000400000004000000000000000000000000000000000000000000000e020004000000000000010000000000000000000000000000000000000000000e0000000000000000e10500000000000000000000000000000000000000000007000000000000000004000000000000000000000000000000000000000000000e0000000000000000e0050000000000000000000000000000000000000000000e000002000000000060050000000000000000000000000000000000000000000e000001000000000060060000000000000000000000000000000000000000000c000002000200000001000000000000000000000000000000000000000000000c0000020002000000000000000000000000000000000000000000000000000005020000000400000001000000000000000000000000000000000000000000000c000008000800000001ffffffffffffffffffffffffffffffff0000000000000c000008000800000000ffffffff0000000000000000000000000000000000001a040008001000000002000000000000000000000000000000000000000000000c000004000400000001010000000000000000000000000000000000000000000c00000400040000000000000000000000000000000000000000000000000000140000000020000000000000000000000000000000000000000000000000000004200010000000000000000000000000000000000000000000000000000000000a00000000000000000441061c060000000000000000000000000000000000000e000020000000000060040000000000000000000000000000000000000000000e000000000400000061060000000000000000000000000000000000000000001a040008000400000002000000000000000000000000000000000000000000000e000004000000000020000000000000000000000000000000000000000000000c000004000400000001010000000000000000000000000000000000000000000c000004000400000000000000000000000000000000000000000000000000000e0000040000000000200100000000000000000000000000000000000000000010000000000000000000000000000000000000000000000000000000000000000c000004000400000001400000000000000000000000000000000000000000000c000004000400000000000000000000000000000000000000000000000000000e000004000000000040000000000000000000000000000000000000000000000c000004000400000001200000000000000000000000000000000000000000000c000004000400000000000000000000000000000000000000000000000000000c000008000800000001020000000000000000000000000000000000000000000c00000800080000000000000000000000000000000000000000000000000000180000020010000000000500000000000000000000000000000000000000000008100004001000000000000000000000000000000000000000000000000000000e100000002000000021000000000000000000000000000000000000000000000e10002000000000004001000000000000000000000000000000000000000000020000020002000000000100000000000000000000000000000000000000000004020008000000000000000000000000000000000000000000000000000000000a0000000000000000022b0632060000000000000000000000000000000000000c00000100010000000100000000ff03000000000000000000000000000000000c0000010001000000000000000000000000000000000000000000000000000007000000000000000003890700000000000000000000000000000000000000000e0000000002000000410100000000000000000000000000000000000000000005020000000200000001000000000000000000000000000000000000000000000c000004000400000001ffffffffffffffffffffffffffffffff0000000000000c000004000400000000ffffffff0000000000000000000000000000000000001a020004000200000002000000000000000000000000000000000000000000000c000004000400000001010000000000000000000000000000000000000000000c000004000400000000000000000000000000000000000000000000000000000e0000000008000000610400000000000000000000000000000000000000000004080002000000000000000000000000000000000000000000000000000000000a00000000000000000441063f060000000000000000000000000000000000000c000004000400000001000000000000000000000000000000000000000000000c000004000400000000000000000000000000000000000000000000000000001a00000400010000000201000000000000000000000000000000000000000000070000000000000000039d0200000000000000000000000000000000000000000a000000000000000002440645060000000000000000000000000000000000000a000000000000000001400740070000000000000000000000000000000000000c000002000200000001020000000000000000000000000000000000000000000c0000020002000000000000000000000000000000000000000000000000000005020000000200000001000000000000000000000000000000000000000000000e000002000000000060030000000000000000000000000000000000000000000e000000000200000021020000000000000000000000000000000000000000000e000002000000000060040000000000000000000000000000000000000000000c000001000100000001000000000000000000000000000000000000000000000c000001000100000000000000000000000000000000b8ce689e000000000000070000000000000000036a0700000000000000000000000000000000000000000c000004000400000001ffffffffffffffffffffffffffffffff0000000000000c000004000400000000ffffffff0000000000000000000000000000000000000e000000000200000061060000000000000000000000000000000000000000001a020004000100000002000000000000000000000000000000000000000000000e000000000200000061040000000000000000000000000000000000000000000200000200020000000004000000000000000000000000000000000000000000070000000000000000036a0700000000000000000000000000000000000000000e000000000200000061050000000000000000000000000000000000000000001a000002000100000002ffffffff0000000000000000000000000000000000000e000000000200000061040000000000000000000000000000000000000000000200000200020000000024000000000000000000000000000000000000000000070000000000000000036a0700000000000000000000000000000000000000000e000000000200000061030000000000000000000000000000000000000000000c000004000400000001ffffffffffffffffffffffffffffffff0000000000000c000004000400000000ffffffff0000000000000000000000000000000000001a020004000400000002000000000000000000000000000000000000000000000c000002000200000001040000000000000000000000000000000000000000000c0000020002000000000000000000000000000000000000000000000000000004040002000000000000000000000000000000000000000000000000000000000a0000000000000000048b0662060000000000000000000000000000000000000e0000040000000000600300000000000000000000000000000000000000000010000000000000000000000000000000000000000000000000000000000000000c000002000200000001440000000000000000000000000000000000000000000c000002000200000000000000000000000000000000000000000000000000000e000002000000000040000000000000000000000000000000000000000000000c000002000200000001000000000000000000000000000000000000000000000c000002000200000000000000000000000000000000000000000000000000000e0000020000000000600600000000000000000000000000000000000000000018000002000400000000050000000000000000000000000000000000000000000e000004000000000060050000000000000000000000000000000000000000000e00000000020000006104000000000000000000000000000000000000000000020200040001000000000000000000000000000000000000000000000000000007000000000000000003420700000000000000000000000000000000000000000c000002000200000001200000000000000000000000000000000000000000000c000002000200000000000000000000000000000000000000000000000000000e0000000004000000610500000000000000000000000000000000000000000008040002000200000000000000000000000000000000000000000000000000000e020001000000000040010000000000000000000000000000000000000000000e0000000002000000610600000000000000000000000000000000000000000002000002000200000000010000000000000000000000000000000000000000000c000004000400000001020000000000000000000000000000000000000000000c0000040004000000000000000000000000000000000000000000000000000004020004000000000000000000000000000000000000000000000000000000000a00000000000000000269067a060000000000000000000000000000000000000e00000000020000006104000000000000000000000000000000000000000000020000020001000000004000000000000000000000000000000000000000000007000000000000000003420700000000000000000000000000000000000000000c000002000200000001ffffffffffffffffffffffffffffffff0000000000000c000002000200000000ffffffffffffffffffffffff000000000000000000000e000000000400000041030000000000000000000000000000000000000000001a040002000200000002000000000000000000000000000000000000000000000c000004000400000001000000000000000000000000000000000000000000000c000004000400000000000000000000000000000000ffffffff0000000000001a010004000400000002000000000000000000000000000000000000000000001a040002000200000004000000000000000000000000000000000000000000000e000002000000000040030000000000000000000000000000000000000000000e000000000200000061030000000000000000000000000000000000000000001800000200010000000020000000000000000000000000000000000000000000070000000000000000039107000000000000000000000000000000000000000004010000000000000000000000000000000000000000000000000000000000000a000000000000000004cd068b060000000000000000000000000000000000000e000000000200000041000000000000000000000000000000000000000000001a000002000200000002ffffffff000000000000000000000000000000000000020000020002000000001f0000000000000000000000000000000000000000001a000002000800000002e0ffffff0100000000000000000000000000000000000e0000000002000000610400000000000000000000000000000000000000000002080002000200000000000000000000000000000000000000000000000000000c000004000400000001010000000000000000000000000000000000000000000c0000040004000000000000000000000000000000000000000000000000000004020008000000000000000000000000000000000000000000000000000000000a000000000000000002970695060000000000000000000000000000000000000c000004000400000001000000000000000000000000000000000000000000000c000004000400000000000000000000000000000000000000000000000000000c000008000800000001ffffffffffffffff00000000000000000000000000000c0000080008000000000000000000000000000000000000000000000000000004020008000000000000000000000000000000000000000000000000000000000a000000000000000008a3069b060000000000000000000000000000000000001a000004000400000002010000000000000000000000000000000000000000000c000008000800000001010000000000000000000000000000000000000000000c0000080008000000000000000000000000000000000000000000000000000004040008000000000000000000000000000000000000000000000000000000000a000000000000000004a306a0060000000000000000000000000000000000000e000002000000000020020000000000000000000000000000000000000000000e0000000000000000e10500000000000000000000000000000000000000000007000000000000000000000000000000000000000000000000000000000000000c000002000200000001000000000000000000000000000000000000000000000c000002000200000000000000000000000000000000717b484e0000000000000e000002000000000020000000000000000000000000000000000000000000000c000001000100000001410000000000000000000000000000000000000000000c000001000100000000000000000000000000000000000000000000000000000c000002000200000001040000000000000000000000000000000000000000000c00000200020000000000000000000000000000000000000000000000000000070000000000000000036a0700000000000000000000000000000000000000000c000002000200000001240000000000000000000000000000000000000000000c000002000200000000000000000000000000000000000000000000000000000e000002000000000000000000000000000000000000000000000000000000000c000004000400000001000000000000000000000000000000000000000000000c000004000400000000000000000000000000000000000000000000000000000c000002000200000001200000000000000000000000000000000000000000000c000002000200000000000000000000000000000000000000000000000000000a000000000000000001b606b606000000000000000000000000000000000000020800000004000000000000000000000000000000000000000000000000000004100000000000000000000000000000000000000000000000000000000000000a00000000000000000ab606c206000000000000000000000000000000000000180000040008000000000500000000000000000000000000000000000000000008080002000800000000000000000000000000000000000000000000000000000e080000001000000021000000000000000000000000000000000000000000000e0800100000000000000100000000000000000000000000000000000000000002000004000800000000010000000000000000000000000000000000000000000c000010001000000001010000000000000000000000000000000000000000000c0000100010000000000000000000000000000000000000000000000000000004080004000000000000000000000000000000000000000000000000000000000a000000000000000002b306bf060000000000000000000000000000000000000c000010001000000001000000000000000000000000000000000000000000000c000010001000000000000000000000000000000000000000000000000000000a000000000000000001b306b3060000000000000000000000000000000000000c000002000200000001ffffffffffffffffffffffffffffffff0000000000000c000002000200000000ffffffffffffffffffffffff000000000000000000000e000000000400000001020000000000000000000000000000000000000000001a040002000200000002000000000000000000000000000000000000000000000c000004000400000001000000000000000000000000000000000000000000000c000004000400000000000000000000000000000000ffffffff0000000000000e000000000800000021010000000000000000000000000000000000000000001a080004000400000002000000000000000000000000000000000000000000001a040002000200000004000000000000000000000000000000000000000000000e000002000000000000020000000000000000000000000000000000000000000a000000000000000001400740070000000000000000000000000000000000000c000008000800000001000000000000000000000000000000000000000000000c000008000800000000000000000000000000000000000000000000000000000e000000000200000021020000000000000000000000000000000000000000000e000002000000000060060000000000000000000000000000000000000000000e000000000200000041000000000000000000000000000000000000000000001a0000020004000000021f0000000000000000000000000000000000000000000e000004000000000060030000000000000000000000000000000000000000001a000002000200000002e0ffffff0000000000000000000000000000000000000e0000020000000000600200000000000000000000000000000000000000000018000002000200000002050000000000000000000000000000000000000000000e0000020000000000600400000000000000000000000000000000000000000004020000000000000000000000000000000000000000000000000000000000000a000000000000000004e806da060000000000000000000000000000000000000e0000080000000000600500000000000000000000000000000000000000000018000008000400000000050000000000000000000000000000000000000000000e0000000002000000610600000000000000000000000000000000000000000002020004000200000000000000000000000000000000000000000000000000000c000008000800000001200000000000000000000000000000000000000000000c0000080008000000000000000000000000000000000000000000000000000008040008000400000000000000000000000000000000000000000000000000000e04000000010000004101000000000000000000000000000000000000000000070000000000000000036a0700000000000000000000000000000000000000000e0000000008000000610500000000000000000000000000000000000000000002000008000800000000010000000000000000000000000000000000000000000e0000000002000000610400000000000000000000000000000000000000000004080002000000000000000000000000000000000000000000000000000000000a000000000000000002da06e8060000000000000000000000000000000000000e000000000200000061060000000000000000000000000000000000000000000e0000000002000000610300000000000000000000000000000000000000000004020000000000000000000000000000000000000000000000000000000000000a0000000000000000040807ec060000000000000000000000000000000000000e0000000002000000610300000000000000000000000000000000000000000018000002000200000000030000000000000000000000000000000000000000000c000004000400000001000100000000000000000000000000000000000000000c0000040004000000000000000000000000000000000000000000000000000004040002000400000000000000000000000000000000000000000000000000000c000008000800000001ffffffffffffffffffffffffffffffff0000000000000c000008000800000000ffffffffffffffffffffffffffffffff00000000000018040008000400000000000000000000000000000000000000000000000000000c000010001000000001200000000000000000000000000000000000000000000c000010001000000000000000000000000000000000000000000000000000000e0000000020000000610200000000000000000000000000000000000000000008200010001000000000000000000000000000000000000000000000000000000e100000001000000041010000000000000000000000000000000000000000001a100004000400000002000000000000000000000000000000000000000000000e0000040000000000600500000000000000000000000000000000000000000018020008000200000002000000000000000000000000000000000000000000000e000002000000000060030000000000000000000000000000000000000000000e0000000002000000610600000000000000000000000000000000000000000002020020000200000000000000000000000000000000000000000000000000000e00000200000000006004000000000000000000000000000000000000000000020200000001000000000000000000000000000000000000000000000000000007000000000000000003420700000000000000000000000000000000000000000e000000000200000061030000000000000000000000000000000000000000001a010002000200000002000000000000000000000000000000000000000000000e000000000400000061050000000000000000000000000000000000000000001a040002000100000004000000000000000000000000000000000000000000000e00000000020000006104000000000000000000000000000000000000000000070000000000000000036a0700000000000000000000000000000000000000000c000008000800000001000000000000000000000000000000000000000000000c000008000800000000000000000000000000000000000000000000000000000e000000000400000041000000000000000000000000000000000000000000001a0000040002000000021f0000000000000000000000000000000000000000000e000002000000000060020000000000000000000000000000000000000000000e000004000000000060010000000000000000000000000000000000000000001a000004000200000002ffffffff0000000000000000000000000000000000000e0000020000000000000000000000000000000000000000000000000000000018000002000200000002050000000000000000000000000000000000000000000e000000000400000061060000000000000000000000000000000000000000000e0000020000000000600300000000000000000000000000000000000000000004020000000000000000000000000000000000000000000000000000000000000a000000000000000004250715070000000000000000000000000000000000000e0000080000000000600500000000000000000000000000000000000000000018000008000400000000050000000000000000000000000000000000000000000e000004000000000060040000000000000000000000000000000000000000000e00000000020000006106000000000000000000000000000000000000000000020200040001000000000000000000000000000000000000000000000000000007000000000000000003420700000000000000000000000000000000000000000e000000000800000061050000000000000000000000000000000000000000000c000002000200000001200000000000000000000000000000000000000000000c000002000200000000000000000000000000000000000000000000000000000e0000000004000000610400000000000000000000000000000000000000000008040002000200000000000000000000000000000000000000000000000000000e0200010000000000000100000000000000000000000000000000000000000002000008000800000000010000000000000000000000000000000000000000000e0000000002000000610300000000000000000000000000000000000000000004080002000000000000000000000000000000000000000000000000000000000a000000000000000002150725070000000000000000000000000000000000000e0000000002000000610200000000000000000000000000000000000000000004020000000000000000000000000000000000000000000000000000000000000a000000000000000004400728070000000000000000000000000000000000000e000000000200000061010000000000000000000000000000000000000000001a000002000400000002e0ffffff0000000000000000000000000000000000000e000004000000000060050000000000000000000000000000000000000000000e00000000020000006106000000000000000000000000000000000000000000020200040001000000000000000000000000000000000000000000000000000007000000000000000003420700000000000000000000000000000000000000000c000002000200000001200000000000000000000000000000000000000000000c000002000200000000000000000000000000000000000000000000000000000e0000000004000000610500000000000000000000000000000000000000000008040002000200000000000000000000000000000000000000000000000000000e0000000004000000610200000000000000000000000000000000000000000018000004000400000000030000000000000000000000000000000000000000000c000008000800000001ffffffffffffffffffffffffffffffff0000000000000c000008000800000000ffffffffffffffffffffffffffffffff00000000000018040008001000000002000000000000000000000000000000000000000000000e020000002000000001010000000000000000000000000000000000000000001a200010001000000002000000000000000000000000000000000000000000000c000020002000000001000100000000000000000000000000000000000000000c00002000200000000000000000000000000000000000000000000000000000042000040004000000000000000000000000000000000000000000000000000018040008000400000000000000000000000000000000000000000000000000001a010004000400000002000000000000000000000000000000000000000000001a040010000400000004000000000000000000000000000000000000000000000e020004000000000000010000000000000000000000000000000000000000000e0000000000000000e10500000000000000000000000000000000000000000007000000000000000004000000000000000000000000000000000000000000000c000002000200000001e0ffffffffffffffffffffffffffffff0000000000000c000002000200000000ffffffffffffffffffffffffffffffff0000000000001a010002000200000002000000000000000000000000000000000000000000000c000004000400000001200000000000000000000000000000000000000000000c0000040004000000000000000000000000000000000000000000000000000008020004000400000000000000000000000000000000000000000000000000001a0000010002000000021f00000000000000000000000000000000000000000018000002000800000000030000000000000000000000000000000000000000000e0400000002000000210000000000000000000000000000000000000000000004080000000000000000000000000000000000000000000000000000000000000a00000000000000000454074d070000000000000000000000000000000000000c000010001000000001000100000000000000000000000000000000000000000c0000100010000000000000000000000000000000000000000000000000000004100008001000000000000000000000000000000000000000000000000000000e04000000040000002101000000000000000000000000000000000000000000181000040004000000020000000000000000000000000000000000000000000018080002000200000000000000000000000000000000000000000000000000001a04000200020000000400000000000000000000000000000000000000000000020200000001000000000000000000000000000000000000000000000000000007000000000000000000000000000000000000000000000000000000000000000c000002000200000001e0ffffffffffffffffffffffffffffff0000000000000c000002000200000000ffffffffffffffffffffffffffffffff0000000000001a010002000200000002000000000000000000000000000000000000000000000c000004000400000001200000000000000000000000000000000000000000000c0000040004000000000000000000000000000000000000000000000000000008020004000400000000000000000000000000000000000000000000000000001a0000010002000000021f00000000000000000000000000000000000000000018000002000800000000030000000000000000000000000000000000000000000e0400000002000000010000000000000000000000000000000000000000000004080000000000000000000000000000000000000000000000000000000000000a000000000000000004680761070000000000000000000000000000000000000c000010001000000001000100000000000000000000000000000000000000000c0000100010000000000000000000000000000000000000000000000000000004100008001000000000000000000000000000000000000000000000000000000e04000000040000000101000000000000000000000000000000000000000000181000040004000000020000000000000000000000000000000000000000000018080002000200000000000000000000000000000000000000000000000000001a04000200020000000400000000000000000000000000000000000000000000020200000001000000000000000000000000000000000000000000000000000007000000000000000000000000000000000000000000000000000000000000000c000004000400000001e0ffffffffffffffffffffffffffffff0000000000000c000004000400000000ffffffffffffffffffffffffffffffff0000000000001a020004000400000002000000000000000000000000000000000000000000000c000008000800000001200000000000000000000000000000000000000000000c0000080008000000000000000000000000000000000000000000000000000008040008000400000000000000000000000000000000000000000000000000001a0000020002000000021f00000000000000000000000000000000000000000018000002000200000000030000000000000000000000000000000000000000000c000008000800000001000100000000000000000000000000000000000000000c0000080008000000000000000000000000000000000000000000000000000004080002001000000000000000000000000000000000000000000000000000000c000020002000000001ffffffffffffffffffffffffffffffff0000000000000c000020002000000000ffffffffffffffffffffffffffffffff000000000000020100000008000000000000000000000000000000000000000000000000000004020000000000000000000000000000000000000000000000000000000000000a0000000000000000047f077a0700000000000000000000000000000000000018100020000800000000000000000000000000000000000000000000000000000e040000004000000021000000000000000000000000000000000000000000001a4000080008000000020000000000000000000000000000000000000000000018020001004000000002000000000000000000000000000000000000000000001a400008000800000004000000000000000000000000000000000000000000000e0400000040000000210100000000000000000000000000000000000000000004020000000000000000000000000000000000000000000000000000000000000a00000000000000000486078207000000000000000000000000000000000000181000010010000000000000000000000000000000000000000000000000000018020020000200000002000000000000000000000000000000000000000000001a400002000200000002000000000000000000000000000000000000000000001a100002004000000004000000000000000000000000000000000000000000000e040040000000000020010000000000000000000000000000000000000000000e04000800000000002000000000000000000000000000000000000000000000070000000000000000000000000000000000000000000000000000000000000007010000000000000005000000000000000000000000000000000000000000000a0000000000000000028b078e070000000000000000000000000000000000000c000001000100000001000000000000000000000000000000000000000000000c0000010001000000000000000000000000000000000000000000000000000007000000000000000000000000000000000000000000000000000000000000000c000001000100000001010000000000000000000000000000000000000000000c00000100010000000000000000000000000000000000000000000000000000070000000000000000000000000000000000000000000000000000000000000007010000000000000001000000000000000000000000000000000000000000000a000000000000000002930796070000000000000000000000000000000000000c000001000100000001000000000000000000000000000000000000000000000c0000010001000000000000000000000000000000000000000000000000000007000000000000000000000000000000000000000000000000000000000000000c000001000100000001010000000000000000000000000000000000000000000c000001000100000000000000000000000000000000000000000000000000000700000000000000000000000000000000000000000000000000000000000000"
        }
      },
      "factoryDependencies": {},
      "hash": "498fa032d8fb3073b28ce153c4436fe1d86156852b6448607a945bdae5ed78b1"
    }
  }
}