{
  "contracts/DXswapPair.sol": {
    "DXswapPair": {
      "abi": [
        {
          "inputs": [],
          "stateMutability": "nonpayable",
          "type": "constructor"
        },
        {
          "anonymous": false,
          "inputs": [
            {
              "indexed": true,
              "internalType": "address",
              "name": "owner",
              "type": "address"
            },
            {
              "indexed": true,
              "internalType": "address",
              "name": "spender",
              "type": "address"
            },
            {
              "indexed": false,
              "internalType": "uint256",
              "name": "value",
              "type": "uint256"
            }
          ],
          "name": "Approval",
          "type": "event"
        },
        {
          "anonymous": false,
          "inputs": [
            {
              "indexed": true,
              "internalType": "address",
              "name": "sender",
              "type": "address"
            },
            {
              "indexed": false,
              "internalType": "uint256",
              "name": "amount0",
              "type": "uint256"
            },
            {
              "indexed": false,
              "internalType": "uint256",
              "name": "amount1",
              "type": "uint256"
            },
            {
              "indexed": true,
              "internalType": "address",
              "name": "to",
              "type": "address"
            }
          ],
          "name": "Burn",
          "type": "event"
        },
        {
          "anonymous": false,
          "inputs": [
            {
              "indexed": true,
              "internalType": "address",
              "name": "sender",
              "type": "address"
            },
            {
              "indexed": false,
              "internalType": "uint256",
              "name": "amount0",
              "type": "uint256"
            },
            {
              "indexed": false,
              "internalType": "uint256",
              "name": "amount1",
              "type": "uint256"
            }
          ],
          "name": "Mint",
          "type": "event"
        },
        {
          "anonymous": false,
          "inputs": [
            {
              "indexed": true,
              "internalType": "address",
              "name": "sender",
              "type": "address"
            },
            {
              "indexed": false,
              "internalType": "uint256",
              "name": "amount0In",
              "type": "uint256"
            },
            {
              "indexed": false,
              "internalType": "uint256",
              "name": "amount1In",
              "type": "uint256"
            },
            {
              "indexed": false,
              "internalType": "uint256",
              "name": "amount0Out",
              "type": "uint256"
            },
            {
              "indexed": false,
              "internalType": "uint256",
              "name": "amount1Out",
              "type": "uint256"
            },
            {
              "indexed": true,
              "internalType": "address",
              "name": "to",
              "type": "address"
            }
          ],
          "name": "Swap",
          "type": "event"
        },
        {
          "anonymous": false,
          "inputs": [
            {
              "indexed": false,
              "internalType": "uint112",
              "name": "reserve0",
              "type": "uint112"
            },
            {
              "indexed": false,
              "internalType": "uint112",
              "name": "reserve1",
              "type": "uint112"
            }
          ],
          "name": "Sync",
          "type": "event"
        },
        {
          "anonymous": false,
          "inputs": [
            {
              "indexed": true,
              "internalType": "address",
              "name": "from",
              "type": "address"
            },
            {
              "indexed": true,
              "internalType": "address",
              "name": "to",
              "type": "address"
            },
            {
              "indexed": false,
              "internalType": "uint256",
              "name": "value",
              "type": "uint256"
            }
          ],
          "name": "Transfer",
          "type": "event"
        },
        {
          "inputs": [],
          "name": "DOMAIN_SEPARATOR",
          "outputs": [
            {
              "internalType": "bytes32",
              "name": "",
              "type": "bytes32"
            }
          ],
          "stateMutability": "view",
          "type": "function"
        },
        {
          "inputs": [],
          "name": "MINIMUM_LIQUIDITY",
          "outputs": [
            {
              "internalType": "uint256",
              "name": "",
              "type": "uint256"
            }
          ],
          "stateMutability": "view",
          "type": "function"
        },
        {
          "inputs": [],
          "name": "PERMIT_TYPEHASH",
          "outputs": [
            {
              "internalType": "bytes32",
              "name": "",
              "type": "bytes32"
            }
          ],
          "stateMutability": "view",
          "type": "function"
        },
        {
          "inputs": [
            {
              "internalType": "address",
              "name": "",
              "type": "address"
            },
            {
              "internalType": "address",
              "name": "",
              "type": "address"
            }
          ],
          "name": "allowance",
          "outputs": [
            {
              "internalType": "uint256",
              "name": "",
              "type": "uint256"
            }
          ],
          "stateMutability": "view",
          "type": "function"
        },
        {
          "inputs": [
            {
              "internalType": "address",
              "name": "spender",
              "type": "address"
            },
            {
              "internalType": "uint256",
              "name": "value",
              "type": "uint256"
            }
          ],
          "name": "approve",
          "outputs": [
            {
              "internalType": "bool",
              "name": "",
              "type": "bool"
            }
          ],
          "stateMutability": "nonpayable",
          "type": "function"
        },
        {
          "inputs": [
            {
              "internalType": "address",
              "name": "",
              "type": "address"
            }
          ],
          "name": "balanceOf",
          "outputs": [
            {
              "internalType": "uint256",
              "name": "",
              "type": "uint256"
            }
          ],
          "stateMutability": "view",
          "type": "function"
        },
        {
          "inputs": [
            {
              "internalType": "address",
              "name": "to",
              "type": "address"
            }
          ],
          "name": "burn",
          "outputs": [
            {
              "internalType": "uint256",
              "name": "amount0",
              "type": "uint256"
            },
            {
              "internalType": "uint256",
              "name": "amount1",
              "type": "uint256"
            }
          ],
          "stateMutability": "nonpayable",
          "type": "function"
        },
        {
          "inputs": [],
          "name": "decimals",
          "outputs": [
            {
              "internalType": "uint8",
              "name": "",
              "type": "uint8"
            }
          ],
          "stateMutability": "view",
          "type": "function"
        },
        {
          "inputs": [],
          "name": "factory",
          "outputs": [
            {
              "internalType": "address",
              "name": "",
              "type": "address"
            }
          ],
          "stateMutability": "view",
          "type": "function"
        },
        {
          "inputs": [],
          "name": "getReserves",
          "outputs": [
            {
              "internalType": "uint112",
              "name": "_reserve0",
              "type": "uint112"
            },
            {
              "internalType": "uint112",
              "name": "_reserve1",
              "type": "uint112"
            },
            {
              "internalType": "uint32",
              "name": "_blockTimestampLast",
              "type": "uint32"
            }
          ],
          "stateMutability": "view",
          "type": "function"
        },
        {
          "inputs": [
            {
              "internalType": "address",
              "name": "_token0",
              "type": "address"
            },
            {
              "internalType": "address",
              "name": "_token1",
              "type": "address"
            }
          ],
          "name": "initialize",
          "outputs": [],
          "stateMutability": "nonpayable",
          "type": "function"
        },
        {
          "inputs": [],
          "name": "kLast",
          "outputs": [
            {
              "internalType": "uint256",
              "name": "",
              "type": "uint256"
            }
          ],
          "stateMutability": "view",
          "type": "function"
        },
        {
          "inputs": [
            {
              "internalType": "address",
              "name": "to",
              "type": "address"
            }
          ],
          "name": "mint",
          "outputs": [
            {
              "internalType": "uint256",
              "name": "liquidity",
              "type": "uint256"
            }
          ],
          "stateMutability": "nonpayable",
          "type": "function"
        },
        {
          "inputs": [],
          "name": "name",
          "outputs": [
            {
              "internalType": "string",
              "name": "",
              "type": "string"
            }
          ],
          "stateMutability": "view",
          "type": "function"
        },
        {
          "inputs": [
            {
              "internalType": "address",
              "name": "",
              "type": "address"
            }
          ],
          "name": "nonces",
          "outputs": [
            {
              "internalType": "uint256",
              "name": "",
              "type": "uint256"
            }
          ],
          "stateMutability": "view",
          "type": "function"
        },
        {
          "inputs": [
            {
              "internalType": "address",
              "name": "owner",
              "type": "address"
            },
            {
              "internalType": "address",
              "name": "spender",
              "type": "address"
            },
            {
              "internalType": "uint256",
              "name": "value",
              "type": "uint256"
            },
            {
              "internalType": "uint256",
              "name": "deadline",
              "type": "uint256"
            },
            {
              "internalType": "uint8",
              "name": "v",
              "type": "uint8"
            },
            {
              "internalType": "bytes32",
              "name": "r",
              "type": "bytes32"
            },
            {
              "internalType": "bytes32",
              "name": "s",
              "type": "bytes32"
            }
          ],
          "name": "permit",
          "outputs": [],
          "stateMutability": "nonpayable",
          "type": "function"
        },
        {
          "inputs": [],
          "name": "price0CumulativeLast",
          "outputs": [
            {
              "internalType": "uint256",
              "name": "",
              "type": "uint256"
            }
          ],
          "stateMutability": "view",
          "type": "function"
        },
        {
          "inputs": [],
          "name": "price1CumulativeLast",
          "outputs": [
            {
              "internalType": "uint256",
              "name": "",
              "type": "uint256"
            }
          ],
          "stateMutability": "view",
          "type": "function"
        },
        {
          "inputs": [
            {
              "internalType": "uint32",
              "name": "_swapFee",
              "type": "uint32"
            }
          ],
          "name": "setSwapFee",
          "outputs": [],
          "stateMutability": "nonpayable",
          "type": "function"
        },
        {
          "inputs": [
            {
              "internalType": "address",
              "name": "to",
              "type": "address"
            }
          ],
          "name": "skim",
          "outputs": [],
          "stateMutability": "nonpayable",
          "type": "function"
        },
        {
          "inputs": [
            {
              "internalType": "uint256",
              "name": "amount0Out",
              "type": "uint256"
            },
            {
              "internalType": "uint256",
              "name": "amount1Out",
              "type": "uint256"
            },
            {
              "internalType": "address",
              "name": "to",
              "type": "address"
            },
            {
              "internalType": "bytes",
              "name": "data",
              "type": "bytes"
            }
          ],
          "name": "swap",
          "outputs": [],
          "stateMutability": "nonpayable",
          "type": "function"
        },
        {
          "inputs": [],
          "name": "swapFee",
          "outputs": [
            {
              "internalType": "uint32",
              "name": "",
              "type": "uint32"
            }
          ],
          "stateMutability": "view",
          "type": "function"
        },
        {
          "inputs": [],
          "name": "symbol",
          "outputs": [
            {
              "internalType": "string",
              "name": "",
              "type": "string"
            }
          ],
          "stateMutability": "view",
          "type": "function"
        },
        {
          "inputs": [],
          "name": "sync",
          "outputs": [],
          "stateMutability": "nonpayable",
          "type": "function"
        },
        {
          "inputs": [],
          "name": "token0",
          "outputs": [
            {
              "internalType": "address",
              "name": "",
              "type": "address"
            }
          ],
          "stateMutability": "view",
          "type": "function"
        },
        {
          "inputs": [],
          "name": "token1",
          "outputs": [
            {
              "internalType": "address",
              "name": "",
              "type": "address"
            }
          ],
          "stateMutability": "view",
          "type": "function"
        },
        {
          "inputs": [],
          "name": "totalSupply",
          "outputs": [
            {
              "internalType": "uint256",
              "name": "",
              "type": "uint256"
            }
          ],
          "stateMutability": "view",
          "type": "function"
        },
        {
          "inputs": [
            {
              "internalType": "address",
              "name": "to",
              "type": "address"
            },
            {
              "internalType": "uint256",
              "name": "value",
              "type": "uint256"
            }
          ],
          "name": "transfer",
          "outputs": [
            {
              "internalType": "bool",
              "name": "",
              "type": "bool"
            }
          ],
          "stateMutability": "nonpayable",
          "type": "function"
        },
        {
          "inputs": [
            {
              "internalType": "address",
              "name": "from",
              "type": "address"
            },
            {
              "internalType": "address",
              "name": "to",
              "type": "address"
            },
            {
              "internalType": "uint256",
              "name": "value",
              "type": "uint256"
            }
          ],
          "name": "transferFrom",
          "outputs": [
            {
              "internalType": "bool",
              "name": "",
              "type": "bool"
            }
          ],
          "stateMutability": "nonpayable",
          "type": "function"
        }
      ],
      "evm": {
        "bytecode": {
          "object": "0c0000040004000000010000000000000000ffffffffffffffff0000000000000c000004000400000000ffffffffffffffffffffffffffffffff0000000000000e000000000200000001000000000000000000000000000000000000000000001a020004000800000002000000000000000000000000000000000000000000000c000010001000000001000000000000000001000000000000000000000000000c000010001000000000000000000000000000000000000000000000000000000c000020002000000001010000000000000000000000000000000000000000000c000020002000000000000000000000000000000000000000000000000000000c000004000400000001010000000000000000000000000000000000000000000c0000040004000000000000000000000000000000000000000000000000000004080010000000000000000000000000000000000000000000000000000000000a0000000000000000040e000c000000000000000000000000000000000000000c000004000400000001000000000000000000000000000000000000000000000c000004000400000000000000000000000000000000000000000000000000000c0000100010000000017c7ee91ae51bb0ed9b9e413333bf74f70000000000000c000010001000000000b75ee1170f6b7c3ce4583c65d82198c400000000000005100000004000000001000000000000000000000000000000000000000000000c000010001000000001010000000000000000000000000000000000000000000c0000100010000000000000000000000000000000000000000000000000000004400000000000000000000000000000000000000000000000000000000000000a000000000000000004170015000000000000000000000000000000000000000c000010001000000001000000000000000000000000000000000000000000000c0000100010000000000000000000000000000000000000000000000000000004400020000000000000000000000000000000000000000000000000000000000a00000000000000000419001f000000000000000000000000000000000000000c000020002000000001000000000000000000000000000000000000000000000c00002000200000000000000000000000000000000083bbcae30000000000000c000080008000000001000000000000000001000000000000000000000000000c0000800080000000000000000000000000000000000000000000000000000004080080000000000000000000000000000000000000000000000000000000000a00000000000000000427001f0000000000000000000000000000000000000004400000000000000000000000000000000000000000000000000000000000000a000000000000000004210031000000000000000000000000000000000000000c000020002000000001000000000000000000000000000000000000000000000c000020002000000000000000000000000000000000c9a6bc8e0000000000000c000008000800000001000000000000000001000000000000000000000000000c0000080008000000000000000000000000000000000000000000000000000004020008000000000000000000000000000000000000000000000000000000000a000000000000000002270031000000000000000000000000000000000000000c000002000200000001040000000000000000000000000000000000000000000c000002000200000000000000000000000000000000000000000000000000000e000002000000000000000000000000000000000000000000000000000000000e000020000000000000010000000000000000000000000000000000000000000c000002000200000001010000000000000000000000000000000000000000000c000002000200000000000000000000000000000000000000000000000000000e0000000004000000210300000000000000000000000000000000000000000004040002000000000000000000000000000000000000000000000000000000000a0000000000000000043000470000000000000000000000000000000000000007000000000000000000000000000000000000000000000000000000000000001a100004000200000002000000000000000000000000000000000000000000001a000002000200000002010000000000000000000000000000000000000000000c000004000400000001010000000000000000000000000000000000000000000c0000040004000000000000000000000000000000000000000000000000000004020004000000000000000000000000000000000000000000000000000000000a00000000000000000437003f0000000000000000000000000000000000000007000000000000000003480000000000000000000000000000000000000000000a000000000000000002410039000000000000000000000000000000000000000c0000020002000000017c7ee91ae51bb0ed9b9e413333bf74f70000000000000c000002000200000000b75ee1170f6b7c3ce4583c65d82198c40000000000000c000004000400000001010000000000000000000000000000000000000000000c0000040004000000000000000000000000000000000000000000000000000005020004000000000000000000000000000000000000000000000000000000000a0000000000000000013000300000000000000000000000000000000000000007000000000000000003810100000000000000000000000000000000000000000a000000000000000002410030000000000000000000000000000000000000000c000002000200000001010000000000000000000000000000000000000000000c000002000200000000000000000000000000000000000000000000000000000e0000000004000000210300000000000000000000000000000000000000000004040002000000000000000000000000000000000000000000000000000000000a00000000000000000430004600000000000000000000000000000000000000070000000000000000040000000000000000000000000000000000000000000007000000000000000004000000000000000000000000000000000000000000000e0000000000000000e0060000000000000000000000000000000000000000000c000002000200000001c00000000000000000000000000000000000000000000c000002000200000000000000000000000000000000000000000000000000000e000002000000000020020000000000000000000000000000000000000000000c000002000200000001060000000000000000000000000000000000000000000c000002000200000000000000000000000000000000000000000000000000000e000002000000000020040000000000000000000000000000000000000000000c000002000200000001000000000000000000000000000000000000000000000c000002000200000000000000000000000000007061777358440000000000000e000002000000000020050000000000000000000000000000000000000000000c000008000800000001000000000000000000000000000000000000000000000c000008000800000000000000000000000000000000000000000000000000000e000000000400000021040000000000000000000000000000000000000000001a0000040002000000021f00000000000000000000000000000000000000000010000000000000000000000000000000000000000000000000000000000000000e00000400000000004000000000000000000000000000000000000000000000180000040010000000020500000000000000000000000000000000000000000004100000000000000000000000000000000000000000000000000000000000000a00000000000000000464005b0000000000000000000000000000000000000018000008002000000000050000000000000000000000000000000000000000000c000040004000000001200000000000000000000000000000000000000000000c0000400040000000000000000000000000000000000000000000000000000008200040002000000000000000000000000000000000000000000000000000000e200000004000000021050000000000000000000000000000000000000000000e20004000000000004001000000000000000000000000000000000000000000020000080008000000000100000000000000000000000000000000000000000004080010000000000000000000000000000000000000000000000000000000000a0000000000000000025b00640000000000000000000000000000000000000004020000000000000000000000000000000000000000000000000000000000000a0000000000000000047a0066000000000000000000000000000000000000000c000008000800000001e0ffffffffffffffffffffffffffffff0000000000000c000008000800000000ffffffffffffffffffffffffffffffff0000000000001a040008000400000002000000000000000000000000000000000000000000000c000008000800000001200000000000000000000000000000000000000000000c00000800080000000000000000000000000000000000000000000000000000080400080004000000000000000000000000000000000000000000000000000018000002000200000000030000000000000000000000000000000000000000000c000008000800000001ffffffffffffffffffffffffffffffff0000000000000c000008000800000000ffffffffffffffffffffffffffffffff00000000000018020008001000000002000000000000000000000000000000000000000000000e040000002000000041010000000000000000000000000000000000000000001a200010001000000002000000000000000000000000000000000000000000000c000020002000000001000100000000000000000000000000000000000000000c00002000200000000000000000000000000000000000000000000000000000042000020002000000000000000000000000000000000000000000000000000018020008000200000000000000000000000000000000000000000000000000000e040000000800000021050000000000000000000000000000000000000000001a080002000200000002000000000000000000000000000000000000000000001a020010000200000004000000000000000000000000000000000000000000000e040002000000000040010000000000000000000000000000000000000000000c00000100010000000100000000ff03000000000000000000000000000000000c0000010001000000000000000000000000000000000000000000000000000007000000000000000003432c00000000000000000000000000000000000000000e000000000200000021020000000000000000000000000000000000000000000c000004000400000001bfffffffffffffffffffffffffffffff0000000000000c000004000400000000ffffffffffffffffffffffffffffffff00000000000004020004000000000000000000000000000000000000000000000000000000000a0000000000000000085601820000000000000000000000000000000000000002000002000800000000400000000000000000000000000000000000000000000c000004000400000001ffffffffffffffff00000000000000000000000000000c0000040004000000000000000000000000000000000000000000000000000004080004000000000000000000000000000000000000000000000000000000000a000000000000000008560187000000000000000000000000000000000000000e000000000400000041010000000000000000000000000000000000000000000e000004000000000060020000000000000000000000000000000000000000000e000008000000000020020000000000000000000000000000000000000000000c000001000100000001010000000000000000000000000000000000000000000c000001000100000000000000000000000000000000000000000000000000000e0000020000000000600700000000000000000000000000000000000000000007000000000000000003242c00000000000000000000000000000000000000000e0000000002000000610700000000000000000000000000000000000000000002000002000200000000200000000000000000000000000000000000000000000c000001000100000001000000000000000000000000000000000000000000000c000001000100000000000000000000000000000000000000310000000000000e0000020000000000600500000000000000000000000000000000000000000007000000000000000003242c00000000000000000000000000000000000000000e0000000001000000610700000000000000000000000000000000000000000007000000000000000003fc2b00000000000000000000000000000000000000000c000008000800000001000000000000000000000000000000000000000000000c0000080008000000000000000000000000000000000000000000000000000002010000000400000000000000000000000000000000000000000000000000001a0000040002000000021f0000000000000000000000000000000000000000000e0000020000000000600300000000000000000000000000000000000000000010000000000000000000000000000000000000000000000000000000000000000e000004000000000040000000000000000000000000000000000000000000000e0000040000000000600100000000000000000000000000000000000000000018000004000200000002050000000000000000000000000000000000000000000e0000020000000000600400000000000000000000000000000000000000000004020000000000000000000000000000000000000000000000000000000000000a000000000000000004b200a2000000000000000000000000000000000000000e0000080000000000600700000000000000000000000000000000000000000018000008000400000000050000000000000000000000000000000000000000000e000004000000000060060000000000000000000000000000000000000000000e00000000020000006105000000000000000000000000000000000000000000020200040001000000000000000000000000000000000000000000000000000007000000000000000003fc2b00000000000000000000000000000000000000000e000000000800000061070000000000000000000000000000000000000000000c000002000200000001200000000000000000000000000000000000000000000c000002000200000000000000000000000000000000000000000000000000000e0000000004000000610600000000000000000000000000000000000000000008040002000200000000000000000000000000000000000000000000000000000e0200010000000000400100000000000000000000000000000000000000000002000008000800000000010000000000000000000000000000000000000000000e0000000002000000610400000000000000000000000000000000000000000004080002000000000000000000000000000000000000000000000000000000000a000000000000000002a200b2000000000000000000000000000000000000000e000000000400000061050000000000000000000000000000000000000000000e0000000002000000610300000000000000000000000000000000000000000004020000000000000000000000000000000000000000000000000000000000000a000000000000000004cf00b6000000000000000000000000000000000000000c000002000200000001e0ffffffffffffffffffffffffffffff0000000000000c000002000200000000ffffffffffffffffffffffffffffffff0000000000000e000000000800000061010000000000000000000000000000000000000000001a080002000200000002000000000000000000000000000000000000000000000e00000200000000006007000000000000000000000000000000000000000000020400020001000000000000000000000000000000000000000000000000000007000000000000000003fc2b00000000000000000000000000000000000000000c000002000200000001200000000000000000000000000000000000000000000c000002000200000000000000000000000000000000000000000000000000000e0000000004000000610700000000000000000000000000000000000000000008040002000200000000000000000000000000000000000000000000000000000e0000000004000000610300000000000000000000000000000000000000000018000004000400000000030000000000000000000000000000000000000000000c000008000800000001ffffffffffffffffffffffffffffffff0000000000000c000008000800000000ffffffffffffffffffffffffffffffff00000000000018040008001000000002000000000000000000000000000000000000000000000e020000002000000041010000000000000000000000000000000000000000001a200010001000000002000000000000000000000000000000000000000000000c000020002000000001000100000000000000000000000000000000000000000c00002000200000000000000000000000000000000000000000000000000000042000040004000000000000000000000000000000000000000000000000000018040008000400000000000000000000000000000000000000000000000000001a010004000400000002000000000000000000000000000000000000000000001a040010000400000004000000000000000000000000000000000000000000000e020004000000000040010000000000000000000000000000000000000000000c00000100010000000100000000ff03000000000000000000000000000000000c0000010001000000000000000000000000000000000000000000000000000007000000000000000003432c00000000000000000000000000000000000000000e000000000200000021020000000000000000000000000000000000000000000e0000020000000000600700000000000000000000000000000000000000000002000002000200000000200000000000000000000000000000000000000000000e000000000400000041010000000000000000000000000000000000000000000e000004000000000060060000000000000000000000000000000000000000000c0000010001000000010f40392b525da7a9cafa0f9b177b9f230000000000000c00000100010000000079cc59f74ccc2e513dfeb89bc6c3738b0000000000000e0000020000000000600500000000000000000000000000000000000000000007000000000000000003242c00000000000000000000000000000000000000000e0000000002000000610700000000000000000000000000000000000000000002000002000200000000400000000000000000000000000000000000000000000e0000000001000000610200000000000000000000000000000000000000000007000000000000000003242c00000000000000000000000000000000000000000e0000000002000000610700000000000000000000000000000000000000000002000002000200000000600000000000000000000000000000000000000000000e0000000001000000610600000000000000000000000000000000000000000007000000000000000003242c00000000000000000000000000000000000000000e0000000002000000610700000000000000000000000000000000000000000002000002000200000000800000000000000000000000000000000000000000000c000001000100000001000000000000000000000000000000000000000000000c0000010001000000000000000000000000000000000000000000000000000007000000000000000003242c00000000000000000000000000000000000000000e0000000002000000610700000000000000000000000000000000000000000002000002000200000000a0000000000000000000000000000000000000000000140000000001000000000500000000000000000000000000000000000000000007000000000000000003242c00000000000000000000000000000000000000000c000001000100000001a00000000000000000000000000000000000000000000c000001000100000000000000000000000000000000000000000000000000000e0000000002000000610700000000000000000000000000000000000000000007000000000000000003242c00000000000000000000000000000000000000000e000000000200000061070000000000000000000000000000000000000000000202000000010000000000000000000000000000000000000000000000000000070000000000000000037e0600000000000000000000000000000000000000000a000000000000000002f400f5000000000000000000000000000000000000000a0000000000000000017f017f010000000000000000000000000000000000000e0000000001000000610700000000000000000000000000000000000000000007000000000000000003fc2b000000000000000000000000000000000000000002010000000400000000000000000000000000000000000000000000000000001a0000040002000000021f0000000000000000000000000000000000000000000e0000020000000000600300000000000000000000000000000000000000000010000000000000000000000000000000000000000000000000000000000000000e000004000000000040000000000000000000000000000000000000000000000e0000040000000000600200000000000000000000000000000000000000000018000004000400000002050000000000000000000000000000000000000000000e000000000200000061050000000000000000000000000000000000000000000c000002000200000001000000000000000000000000000000000000000000000c000002000200000000000000000000000000000000000000000000000000000e0000040000000000600400000000000000000000000000000000000000000004040000000000000000000000000000000000000000000000000000000000000a000000000000000004140104010000000000000000000000000000000000000e0000020000000000600700000000000000000000000000000000000000000018000002000400000000050000000000000000000000000000000000000000000e000004000000000060060000000000000000000000000000000000000000000e00000000020000006105000000000000000000000000000000000000000000020200040001000000000000000000000000000000000000000000000000000007000000000000000003fc2b00000000000000000000000000000000000000000c000002000200000001200000000000000000000000000000000000000000000c000002000200000000000000000000000000000000000000000000000000000e0000000004000000610600000000000000000000000000000000000000000008040002000200000000000000000000000000000000000000000000000000000e020001000000000040010000000000000000000000000000000000000000000e0000000002000000610700000000000000000000000000000000000000000002000002000200000000010000000000000000000000000000000000000000000e0000000004000000610400000000000000000000000000000000000000000004020004000000000000000000000000000000000000000000000000000000000a000000000000000002040114010000000000000000000000000000000000000e000000000400000061050000000000000000000000000000000000000000000e0000000002000000610300000000000000000000000000000000000000000004020000000000000000000000000000000000000000000000000000000000000a000000000000000004310118010000000000000000000000000000000000000c000002000200000001e0ffffffffffffffffffffffffffffff0000000000000c000002000200000000ffffffffffffffffffffffffffffffff0000000000000e000000000800000061020000000000000000000000000000000000000000001a080002000200000002000000000000000000000000000000000000000000000e00000200000000006007000000000000000000000000000000000000000000020400020001000000000000000000000000000000000000000000000000000007000000000000000003fc2b00000000000000000000000000000000000000000c000002000200000001200000000000000000000000000000000000000000000c000002000200000000000000000000000000000000000000000000000000000e0000000004000000610700000000000000000000000000000000000000000008040002000200000000000000000000000000000000000000000000000000000e0000000004000000610300000000000000000000000000000000000000000018000004000400000000030000000000000000000000000000000000000000000c000008000800000001ffffffffffffffffffffffffffffffff0000000000000c000008000800000000ffffffffffffffffffffffffffffffff00000000000018040008001000000002000000000000000000000000000000000000000000000e020000002000000041010000000000000000000000000000000000000000001a200010001000000002000000000000000000000000000000000000000000000c000020002000000001000100000000000000000000000000000000000000000c00002000200000000000000000000000000000000000000000000000000000042000040004000000000000000000000000000000000000000000000000000018040008000400000000000000000000000000000000000000000000000000001a010004000400000002000000000000000000000000000000000000000000001a040010000400000004000000000000000000000000000000000000000000000e020004000000000040010000000000000000000000000000000000000000000c00000100010000000100000000ff03000000000000000000000000000000000c0000010001000000000000000000000000000000000000000000000000000007000000000000000003432c00000000000000000000000000000000000000000e000000000200000041010000000000000000000000000000000000000000000c000004000400000001030000000000000000000000000000000000000000000c0000040004000000000000000000000000000000000000000000000000000005040002000000000000000000000000000000000000000000000000000000000c0000020002000000010c0000000000000000000000000000000000000000000c0000020002000000000000000000000000000000000000000000000000000005020000000400000001000000000000000000000000000000000000000000000c00000800080000000100000000ffffffffffffffffffffffff0000000000000c000008000800000000ffffffffffffffffffffffffffffffff0000000000001a040008000400000002000000000000000000000000000000000000000000001a0000040004000000041900000000000000000000000000000000000000000005020004000000000000000000000000000000000000000000000000000000000c0000020002000000010d0000000000000000000000000000000000000000000c000002000200000000000000000000000000000000000000000000000000000c000004000400000001010000000000000000000000000000000000000000000c0000040004000000000000000000000000000000000000000000000000000005020004000000000000000000000000000000000000000000000000000000000c000002000200000001ffffffffffffffffffffffffffffffff0000000000000c000002000200000000ffffffff00000000000000000000000000000000000014000000000400000000000000000000000000000000000000000000000000001a040002000200000002000000000000000000000000000000000000000000000c000004000400000001050000000000000000000000000000000000000000000c0000040004000000000000000000000000000000000000000000000000000005040000000800000001000000000000000000000000000000000000000000000c000010001000000001000000000000000000000000000000000000000000000c00001000100000000000000000ffffffffffffffffffffffff0000000000001a080010000800000002000000000000000000000000000000000000000000001a0800020002000000040000000000000000000000000000000000000000000005040002000000000000000000000000000000000000000000000000000000000c000002000200000001000000000000000000000000000000000000000000000c000002000200000000000000000000000000000000000000000000000000000e000002000000000000000000000000000000000000000000000000000000000e0000000000000000e10600000000000000000000000000000000000000000007000000000000000000000000000000000000000000000000000000000000000c000002000200000001000000000000000000000000000000000000000000000c000002000200000000000000000000000000000000717b484e0000000000000e000002000000000020000000000000000000000000000000000000000000000c000001000100000001410000000000000000000000000000000000000000000c000001000100000000000000000000000000000000000000000000000000000c000002000200000001040000000000000000000000000000000000000000000c0000020002000000000000000000000000000000000000000000000000000007000000000000000003242c00000000000000000000000000000000000000000c000002000200000001240000000000000000000000000000000000000000000c000002000200000000000000000000000000000000000000000000000000000e000002000000000000000000000000000000000000000000000000000000000c000004000400000001000000000000000000000000000000000000000000000c000004000400000000000000000000000000000000000000000000000000000c000002000200000001200000000000000000000000000000000000000000000c000002000200000000000000000000000000000000000000000000000000000a00000000000000000169016901000000000000000000000000000000000000020800000004000000000000000000000000000000000000000000000000000004100000000000000000000000000000000000000000000000000000000000000a00000000000000000a69017501000000000000000000000000000000000000180000040008000000000500000000000000000000000000000000000000000008080002000800000000000000000000000000000000000000000000000000000e080000001000000021000000000000000000000000000000000000000000000e0800100000000000000100000000000000000000000000000000000000000002000004000800000000010000000000000000000000000000000000000000000c000010001000000001010000000000000000000000000000000000000000000c0000100010000000000000000000000000000000000000000000000000000004080004000000000000000000000000000000000000000000000000000000000a000000000000000002660172010000000000000000000000000000000000000c000010001000000001000000000000000000000000000000000000000000000c000010001000000000000000000000000000000000000000000000000000000a000000000000000001660166010000000000000000000000000000000000000c000002000200000001ffffffffffffffffffffffffffffffff0000000000000c000002000200000000ffffffffffffffffffffffff000000000000000000000e000000000400000001020000000000000000000000000000000000000000001a040002000200000002000000000000000000000000000000000000000000000c000004000400000001000000000000000000000000000000000000000000000c000004000400000000000000000000000000000000ffffffff0000000000000e000000000800000021010000000000000000000000000000000000000000001a080004000400000002000000000000000000000000000000000000000000001a040002000200000004000000000000000000000000000000000000000000000e000002000000000000020000000000000000000000000000000000000000000e0000000000000000e10600000000000000000000000000000000000000000007000000000000000004000000000000000000000000000000000000000000000e0000000000000000e01d0000000000000000000000000000000000000000000c000002000200000001800000000000000000000000000000000000000000000c000002000200000000000000000000000000000000000000000000000000000e000002000000000020020000000000000000000000000000000000000000000e000000000200000001000000000000000000000000000000000000000000001a000002000400000002fcffffff00000000000000000000000000000000000004040000000000000000000000000000000000000000000000000000000000000a000000000000000004740689010000000000000000000000000000000000001a000002000200000002ffffffff0000000000000000000000000000000000000c000008000800000001000000000000000000000000000000000000000000000c000008000800000000000000000000000000000000ffffffff0000000000000e000000001000000001010000000000000000000000000000000000000000001a100008000800000002000000000000000000000000000000000000000000000c000010001000000001000000000000000000000000000000000000000000000c0000100010000000000000000000000000000000009f0d2c0200000000000004080010000000000000000000000000000000000000000000000000000000000a0000000000000000049201b6010000000000000000000000000000000000000c000004000400000001000000000000000000000000000000000000000000000c000004000400000000000000000000000000000000000000000000000000000e0000040000000000601e0000000000000000000000000000000000000000000e0000040000000000601d0000000000000000000000000000000000000000000e0000040000000000601c0000000000000000000000000000000000000000000e0000040000000000601b0000000000000000000000000000000000000000000e0000040000000000601a0000000000000000000000000000000000000000000c000000000400000001200300000000000000000000000000000000000000000e00000400000000006005000000000000000000000000000000000000000000020400000001000000000000000000000000000000000000000000000000000007000000000000000003b30600000000000000000000000000000000000000000a0000000000000000029e019f010000000000000000000000000000000000000a0000000000000000017c067c060000000000000000000000000000000000000e0000000010000000610500000000000000000000000000000000000000000002000010000200000000800000000000000000000000000000000000000000000200001000040000000060000000000000000000000000000000000000000000020000100008000000004000000000000000000000000000000000000000000002000010001000000000200000000000000000000000000000000000000000000c000020002000000001200000000000000000000000000000000000000000000c0000200020000000000000000000000000000000000000000000000000000008100020004000000000000000000000000000000000000000000000000000000808002000800000000000000000000000000000000000000000000000000000080400200004000000000000000000000000000000000000000000000000000008020020000200000000000000000000000000000000000000000000000000000e020000001000000061010000000000000000000000000000000000000000000e040000000800000061010000000000000000000000000000000000000000000e800000000400000061010000000000000000000000000000000000000000000e400000000200000061010000000000000000000000000000000000000000000e0000000001000000611a00000000000000000000000000000000000000000007000000000000000003a11e00000000000000000000000000000000000000000a000000000000000002b101b2010000000000000000000000000000000000000a0000000000000000017c067c060000000000000000000000000000000000000c000002000200000001000000000000000000000000000000000000000000000c000002000200000000000000000000000000000000000000000000000000000e000002000000000000000000000000000000000000000000000000000000000a000000000000000001300230020000000000000000000000000000000000000c000010001000000001000000000000000000000000000000000000000000000c00001000100000000000000000000000000000000003defd0600000000000004080010000000000000000000000000000000000000000000000000000000000a000000000000000004ba0112020000000000000000000000000000000000000c000002000200000001c00000000000000000000000000000000000000000000c000002000200000000000000000000000000000000000000000000000000000e000002000000000020020000000000000000000000000000000000000000000c000002000200000001060000000000000000000000000000000000000000000c000002000200000000000000000000000000000000000000000000000000000e000002000000000020040000000000000000000000000000000000000000000c000002000200000001000000000000000000000000000000000000000000000c000002000200000000000000000000000000007061777358440000000000000e000002000000000020050000000000000000000000000000000000000000000e000000000200000021020000000000000000000000000000000000000000000e000002000000000060030000000000000000000000000000000000000000000c000001000100000001200000000000000000000000000000000000000000000c0000010001000000000000000000000000000000000000000000000000000007000000000000000003242c00000000000000000000000000000000000000000e0000000002000000610300000000000000000000000000000000000000000002000002000200000000200000000000000000000000000000000000000000000e000000000400000021040000000000000000000000000000000000000000000e00000400000000006004000000000000000000000000000000000000000000020400000001000000000000000000000000000000000000000000000000000007000000000000000003242c00000000000000000000000000000000000000000c000008000800000001000000000000000000000000000000000000000000000c000008000800000000000000000000000000000000000000000000000000000e0000000002000000610300000000000000000000000000000000000000000002000002000400000000400000000000000000000000000000000000000000000e000000000200000061040000000000000000000000000000000000000000000e0000040000000000600200000000000000000000000000000000000000000004020000000000000000000000000000000000000000000000000000000000000a000000000000000004eb01d6010000000000000000000000000000000000000e0000080000000000600500000000000000000000000000000000000000000002040008000200000000000000000000000000000000000000000000000000000c000004000400000001200000000000000000000000000000000000000000000c0000040004000000000000000000000000000000000000000000000000000008080004000400000000000000000000000000000000000000000000000000000e0400000001000000210500000000000000000000000000000000000000000007000000000000000003242c00000000000000000000000000000000000000000e000000000800000061050000000000000000000000000000000000000000000e0000000004000000610200000000000000000000000000000000000000000002000008000800000000200000000000000000000000000000000000000000000e0000000002000000610400000000000000000000000000000000000000000004080002000000000000000000000000000000000000000000000000000000000a000000000000000002d601e3010000000000000000000000000000000000000e0000000002000000610400000000000000000000000000000000000000000004080002000000000000000000000000000000000000000000000000000000000a000000000000000006eb01e6010000000000000000000000000000000000000e0000000002000000610400000000000000000000000000000000000000000002040002000200000000000000000000000000000000000000000000000000000c000001000100000001000000000000000000000000000000000000000000000c0000010001000000000000000000000000000000000000000000000000000007000000000000000003242c00000000000000000000000000000000000000000e00000000020000006104000000000000000000000000000000000000000000020000020002000000005f0000000000000000000000000000000000000000000c000004000400000001e0ffffffffffffffffffffffffffffff0000000000000c000004000400000000ffffffffffffffffffffffffffffffff0000000000001a020004000200000002000000000000000000000000000000000000000000000e000002000000000000000000000000000000000000000000000000000000000e0000020000000000600100000000000000000000000000000000000000000018000002000200000002050000000000000000000000000000000000000000000c000008000800000001000000000000000000000000000000000000000000000c000008000800000000000000000000000000000000000000000000000000000e000000000400000061030000000000000000000000000000000000000000000e0000020000000000600200000000000000000000000000000000000000000004020000000000000000000000000000000000000000000000000000000000000a0000000000000000040902f9010000000000000000000000000000000000000e0000080000000000600500000000000000000000000000000000000000000018000008000400000000050000000000000000000000000000000000000000000e000004000000000060040000000000000000000000000000000000000000000e00000000020000006103000000000000000000000000000000000000000000020200040001000000000000000000000000000000000000000000000000000007000000000000000003fc2b00000000000000000000000000000000000000000e000000000800000061050000000000000000000000000000000000000000000c000002000200000001200000000000000000000000000000000000000000000c000002000200000000000000000000000000000000000000000000000000000e0000000004000000610400000000000000000000000000000000000000000008040002000200000000000000000000000000000000000000000000000000000e0200010000000000000100000000000000000000000000000000000000000002000008000800000000010000000000000000000000000000000000000000000e0000000002000000610200000000000000000000000000000000000000000004080002000000000000000000000000000000000000000000000000000000000a000000000000000002f90109020000000000000000000000000000000000000e000000000200000061030000000000000000000000000000000000000000000c000004000400000001000000000000000000000000000000000000000000000c0000040004000000000000000000000000000000000000000000000000000004040000000000000000000000000000000000000000000000000000000000000a00000000000000000a0e0230020000000000000000000000000000000000000e00000000040000006101000000000000000000000000000000000000000000020200040001000000000000000000000000000000000000000000000000000007000000000000000003fc2b00000000000000000000000000000000000000000a000000000000000001300230020000000000000000000000000000000000000c000010001000000001000000000000000000000000000000000000000000000c000010001000000000000000000000000000000000acf1020900000000000004080010000000000000000000000000000000000000000000000000000000000a000000000000000004160232020000000000000000000000000000000000000c000002000200000001080000000000000000000000000000000000000000000c0000020002000000000000000000000000000000000000000000000000000005020000000200000001000000000000000000000000000000000000000000001a000002000400000002ffffffffffffffffffffffffffff00000000000000000e0000040000000000200400000000000000000000000000000000000000000018000002000400000002700000000000000000000000000000000000000000001a000004000400000002ffffffffffffffffffffffffffff00000000000000000e0000040000000000200500000000000000000000000000000000000000000018000002000200000002e00000000000000000000000000000000000000000000e000002000000000020060000000000000000000000000000000000000000000c000002000200000001600000000000000000000000000000000000000000000c000002000200000000000000000000000000000000000000000000000000000e000002000000000000000000000000000000000000000000000000000000000c000002000200000001000000000000000000000000000000000000000000000c000002000200000000000000000000000000000000000000000000000000000c000004000400000001200000000000000000000000000000000000000000000c000004000400000000000000000000000000000000000000000000000000000c000008000800000001030000000000000000000000000000000000000000000c00000800080000000000000000000000000000000000000000000000000000180000020010000000000500000000000000000000000000000000000000000008100004001000000000000000000000000000000000000000000000000000000e100000002000000021040000000000000000000000000000000000000000000e10002000000000000001000000000000000000000000000000000000000000020000020002000000000100000000000000000000000000000000000000000004020008000000000000000000000000000000000000000000000000000000000a000000000000000002290230020000000000000000000000000000000000000e0000000000000000e11d00000000000000000000000000000000000000000007000000000000000000000000000000000000000000000000000000000000000c000010001000000001000000000000000000000000000000000000000000000c000010001000000000000000000000000000000000b3a75e0900000000000004080010000000000000000000000000000000000000000000000000000000000a00000000000000000436026c020000000000000000000000000000000000000c000004000400000001000000000000000000000000000000000000000000000c000004000400000000000000000000000000000000000000000000000000000e000004000000000060190000000000000000000000000000000000000000000e000004000000000060180000000000000000000000000000000000000000000c000000000400000001e00200000000000000000000000000000000000000000e000004000000000060050000000000000000000000000000000000000000000204000000010000000000000000000000000000000000000000000000000000070000000000000000032b0700000000000000000000000000000000000000000a0000000000000000023f0240020000000000000000000000000000000000000a0000000000000000017c067c060000000000000000000000000000000000000e0000000002000000610500000000000000000000000000000000000000000002000002000200000000200000000000000000000000000000000000000000000c000004000400000001200000000000000000000000000000000000000000000c0000040004000000000000000000000000000000000000000000000000000008020004000200000000000000000000000000000000000000000000000000000e020000000400000061010000000000000000000000000000000000000000000e00000000020000006118000000000000000000000000000000000000000000140000000001000000000000000000000000000000000000000000000000000007000000000000000003930800000000000000000000000000000000000000000a0000000000000000024a024b020000000000000000000000000000000000000a0000000000000000017c067c060000000000000000000000000000000000000c000001000100000001010000000000000000000000000000000000000000000c000001000100000000000000000000000000000000000000000000000000000e000000000200000021020000000000000000000000000000000000000000000e0000020000000000600300000000000000000000000000000000000000000007000000000000000003242c00000000000000000000000000000000000000000c000002000200000001200000000000000000000000000000000000000000000c000002000200000000000000000000000000000000000000000000000000000e000002000000000000000000000000000000000000000000000000000000000c000002000200000001000000000000000000000000000000000000000000000c000002000200000000000000000000000000000000000000000000000000000a0000000000000000015802580200000000000000000000000000000000000004040000000000000000000000000000000000000000000000000000000000000a00000000000000000a580230020000000000000000000000000000000000000e0000020000000000600500000000000000000000000000000000000000000018000002000400000000050000000000000000000000000000000000000000000e000004000000000060040000000000000000000000000000000000000000000e00000000020000006103000000000000000000000000000000000000000000020200040001000000000000000000000000000000000000000000000000000007000000000000000003fc2b00000000000000000000000000000000000000000c000002000200000001200000000000000000000000000000000000000000000c000002000200000000000000000000000000000000000000000000000000000e0000000004000000610400000000000000000000000000000000000000000008040002000200000000000000000000000000000000000000000000000000000e020001000000000000010000000000000000000000000000000000000000000e0000000008000000610500000000000000000000000000000000000000000002000008000200000000010000000000000000000000000000000000000000000c000004000400000001010000000000000000000000000000000000000000000c0000040004000000000000000000000000000000000000000000000000000004020008000000000000000000000000000000000000000000000000000000000a000000000000000002560269020000000000000000000000000000000000000c000004000400000001000000000000000000000000000000000000000000000c000004000400000000000000000000000000000000000000000000000000000a000000000000000001560256020000000000000000000000000000000000000c000010001000000001000000000000000000000000000000000000000000000c0000100010000000000000000000000000000000008116fe0d00000000000004080010000000000000000000000000000000000000000000000000000000000a00000000000000000470028c020000000000000000000000000000000000000c000002000200000001060000000000000000000000000000000000000000000c0000020002000000000000000000000000000000000000000000000000000005020000000200000001000000000000000000000000000000000000000000000c000004000400000001ffffffffffffffffffffffffffffffff0000000000000c000004000400000000ffffffff0000000000000000000000000000000000001a020004000200000002000000000000000000000000000000000000000000000e000002000000000020040000000000000000000000000000000000000000000c000002000200000001200000000000000000000000000000000000000000000c000002000200000000000000000000000000000000000000000000000000000e000002000000000000000000000000000000000000000000000000000000000c000004000400000001000000000000000000000000000000000000000000000c000004000400000000000000000000000000000000000000000000000000000a00000000000000000180028002000000000000000000000000000000000000020800000004000000000000000000000000000000000000000000000000000004100000000000000000000000000000000000000000000000000000000000000a00000000000000000a80023002000000000000000000000000000000000000180000040008000000000500000000000000000000000000000000000000000008080002000800000000000000000000000000000000000000000000000000000e080000001000000021040000000000000000000000000000000000000000000e0800100000000000000100000000000000000000000000000000000000000002000004000800000000010000000000000000000000000000000000000000000c000010001000000001010000000000000000000000000000000000000000000c0000100010000000000000000000000000000000000000000000000000000004080004000000000000000000000000000000000000000000000000000000000a0000000000000000027d0289020000000000000000000000000000000000000c000010001000000001000000000000000000000000000000000000000000000c000010001000000000000000000000000000000000000000000000000000000a0000000000000000017d027d020000000000000000000000000000000000000c000010001000000001000000000000000000000000000000000000000000000c000010001000000000000000000000000000000000dd0d161800000000000004080010000000000000000000000000000000000000000000000000000000000a0000000000000000049002a7020000000000000000000000000000000000000c000004000400000001000000000000000000000000000000000000000000000c0000040004000000000000000000000000000000000000000000000000000005040000000200000001000000000000000000000000000000000000000000000e000002000000000020040000000000000000000000000000000000000000000c000002000200000001200000000000000000000000000000000000000000000c000002000200000000000000000000000000000000000000000000000000000e000002000000000000000000000000000000000000000000000000000000000a0000000000000000019b029b02000000000000000000000000000000000000020800000004000000000000000000000000000000000000000000000000000004100000000000000000000000000000000000000000000000000000000000000a00000000000000000a9b023002000000000000000000000000000000000000180000040008000000000500000000000000000000000000000000000000000008080002000800000000000000000000000000000000000000000000000000000e080000001000000021040000000000000000000000000000000000000000000e0800100000000000000100000000000000000000000000000000000000000002000004000800000000010000000000000000000000000000000000000000000c000010001000000001010000000000000000000000000000000000000000000c0000100010000000000000000000000000000000000000000000000000000004080004000000000000000000000000000000000000000000000000000000000a0000000000000000029802a4020000000000000000000000000000000000000c000010001000000001000000000000000000000000000000000000000000000c000010001000000000000000000000000000000000000000000000000000000a000000000000000001980298020000000000000000000000000000000000000c000010001000000001000000000000000000000000000000000000000000000c000010001000000000000000000000000000000000dd72b82300000000000004080010000000000000000000000000000000000000000000000000000000000a000000000000000004ab02e4020000000000000000000000000000000000000c000004000400000001000000000000000000000000000000000000000000000c000004000400000000000000000000000000000000000000000000000000000e000004000000000060170000000000000000000000000000000000000000000e000004000000000060160000000000000000000000000000000000000000000e000004000000000060150000000000000000000000000000000000000000000c000000000400000001800200000000000000000000000000000000000000000e00000400000000006005000000000000000000000000000000000000000000020400000001000000000000000000000000000000000000000000000000000007000000000000000003670700000000000000000000000000000000000000000a000000000000000002b502b6020000000000000000000000000000000000000a0000000000000000017c067c060000000000000000000000000000000000000e00000000040000006105000000000000000000000000000000000000000000020000040002000000004000000000000000000000000000000000000000000002000004000400000000200000000000000000000000000000000000000000000c000010001000000001200000000000000000000000000000000000000000000c00001000100000000000000000000000000000000000000000000000000000080400100008000000000000000000000000000000000000000000000000000008020010000200000000000000000000000000000000000000000000000000000e020000000400000061010000000000000000000000000000000000000000000e080000000200000061010000000000000000000000000000000000000000000e0000000001000000611500000000000000000000000000000000000000000007000000000000000003aa0900000000000000000000000000000000000000000a000000000000000002c202c3020000000000000000000000000000000000000a0000000000000000017c067c060000000000000000000000000000000000000c000001000100000001010000000000000000000000000000000000000000000c000001000100000000000000000000000000000000000000000000000000000e000000000200000021020000000000000000000000000000000000000000000e0000020000000000600300000000000000000000000000000000000000000007000000000000000003242c00000000000000000000000000000000000000000c000002000200000001200000000000000000000000000000000000000000000c000002000200000000000000000000000000000000000000000000000000000e000002000000000000000000000000000000000000000000000000000000000c000002000200000001000000000000000000000000000000000000000000000c000002000200000000000000000000000000000000000000000000000000000a000000000000000001d002d00200000000000000000000000000000000000004040000000000000000000000000000000000000000000000000000000000000a00000000000000000ad00230020000000000000000000000000000000000000e0000020000000000600500000000000000000000000000000000000000000018000002000400000000050000000000000000000000000000000000000000000e000004000000000060040000000000000000000000000000000000000000000e00000000020000006103000000000000000000000000000000000000000000020200040001000000000000000000000000000000000000000000000000000007000000000000000003fc2b00000000000000000000000000000000000000000c000002000200000001200000000000000000000000000000000000000000000c000002000200000000000000000000000000000000000000000000000000000e0000000004000000610400000000000000000000000000000000000000000008040002000200000000000000000000000000000000000000000000000000000e020001000000000000010000000000000000000000000000000000000000000e0000000008000000610500000000000000000000000000000000000000000002000008000200000000010000000000000000000000000000000000000000000c000004000400000001010000000000000000000000000000000000000000000c0000040004000000000000000000000000000000000000000000000000000004020008000000000000000000000000000000000000000000000000000000000a000000000000000002ce02e1020000000000000000000000000000000000000c000004000400000001000000000000000000000000000000000000000000000c000004000400000000000000000000000000000000000000000000000000000a000000000000000001ce02ce020000000000000000000000000000000000000c000010001000000001000000000000000000000000000000000000000000000c0000100010000000000000000000000000000000001ff8ad3000000000000004080010000000000000000000000000000000000000000000000000000000000a000000000000000004e80200030000000000000000000000000000000000000c000002000200000001c926615d84649c164a112601aefaa25f0000000000000c0000020002000000001010ef0f37601f4d7fb9b112aeed716e0000000000000e000002000000000020040000000000000000000000000000000000000000000c000002000200000001200000000000000000000000000000000000000000000c000002000200000000000000000000000000000000000000000000000000000e000002000000000000000000000000000000000000000000000000000000000c000004000400000001000000000000000000000000000000000000000000000c000004000400000000000000000000000000000000000000000000000000000a000000000000000001f402f402000000000000000000000000000000000000020800000004000000000000000000000000000000000000000000000000000004100000000000000000000000000000000000000000000000000000000000000a00000000000000000af4023002000000000000000000000000000000000000180000040008000000000500000000000000000000000000000000000000000008080002000800000000000000000000000000000000000000000000000000000e080000001000000021040000000000000000000000000000000000000000000e0800100000000000000100000000000000000000000000000000000000000002000004000800000000010000000000000000000000000000000000000000000c000010001000000001010000000000000000000000000000000000000000000c0000100010000000000000000000000000000000000000000000000000000004080004000000000000000000000000000000000000000000000000000000000a000000000000000002f102fd020000000000000000000000000000000000000c000010001000000001000000000000000000000000000000000000000000000c000010001000000000000000000000000000000000000000000000000000000a000000000000000001f102f1020000000000000000000000000000000000000c000010001000000001000000000000000000000000000000000000000000000c00001000100000000000000000000000000000000067e53c3100000000000004080010000000000000000000000000000000000000000000000000000000000a00000000000000000404031c030000000000000000000000000000000000000c000002000200000001120000000000000000000000000000000000000000000c000002000200000000000000000000000000000000000000000000000000000e000002000000000020040000000000000000000000000000000000000000000c000002000200000001200000000000000000000000000000000000000000000c000002000200000000000000000000000000000000000000000000000000000e000002000000000000000000000000000000000000000000000000000000000c000004000400000001000000000000000000000000000000000000000000000c000004000400000000000000000000000000000000000000000000000000000a00000000000000000110031003000000000000000000000000000000000000020800000004000000000000000000000000000000000000000000000000000004100000000000000000000000000000000000000000000000000000000000000a00000000000000000a10033002000000000000000000000000000000000000180000040008000000000500000000000000000000000000000000000000000008080002000800000000000000000000000000000000000000000000000000000e080000001000000021040000000000000000000000000000000000000000000e0800100000000000000100000000000000000000000000000000000000000002000004000800000000010000000000000000000000000000000000000000000c000010001000000001010000000000000000000000000000000000000000000c0000100010000000000000000000000000000000000000000000000000000004080004000000000000000000000000000000000000000000000000000000000a0000000000000000020d0319030000000000000000000000000000000000000c000010001000000001000000000000000000000000000000000000000000000c000010001000000000000000000000000000000000000000000000000000000a0000000000000000010d030d030000000000000000000000000000000000000c000010001000000001000000000000000000000000000000000000000000000c00001000100000000000000000000000000000000015e5443600000000000004080010000000000000000000000000000000000000000000000000000000000a000000000000000004200339030000000000000000000000000000000000000c000002000200000001030000000000000000000000000000000000000000000c0000020002000000000000000000000000000000000000000000000000000005020000000200000001000000000000000000000000000000000000000000000e000002000000000020040000000000000000000000000000000000000000000c000002000200000001200000000000000000000000000000000000000000000c000002000200000000000000000000000000000000000000000000000000000e000002000000000000000000000000000000000000000000000000000000000c000004000400000001000000000000000000000000000000000000000000000c000004000400000000000000000000000000000000000000000000000000000a0000000000000000012d032d03000000000000000000000000000000000000020800000004000000000000000000000000000000000000000000000000000004100000000000000000000000000000000000000000000000000000000000000a00000000000000000a2d033002000000000000000000000000000000000000180000040008000000000500000000000000000000000000000000000000000008080002000800000000000000000000000000000000000000000000000000000e080000001000000021040000000000000000000000000000000000000000000e0800100000000000000100000000000000000000000000000000000000000002000004000800000000010000000000000000000000000000000000000000000c000010001000000001010000000000000000000000000000000000000000000c0000100010000000000000000000000000000000000000000000000000000004080004000000000000000000000000000000000000000000000000000000000a0000000000000000022a0336030000000000000000000000000000000000000c000010001000000001000000000000000000000000000000000000000000000c000010001000000000000000000000000000000000000000000000000000000a0000000000000000012a032a030000000000000000000000000000000000000c000010001000000001000000000000000000000000000000000000000000000c00001000100000000000000000000000000000000055c95c4800000000000004080010000000000000000000000000000000000000000000000000000000000a0000000000000000043d0355030000000000000000000000000000000000000c000004000400000001000000000000000000000000000000000000000000000c000004000400000000000000000000000000000000000000000000000000000e000004000000000060140000000000000000000000000000000000000000000e000004000000000060130000000000000000000000000000000000000000000c000000000400000001400200000000000000000000000000000000000000000e00000400000000006005000000000000000000000000000000000000000000020400000001000000000000000000000000000000000000000000000000000007000000000000000003b00700000000000000000000000000000000000000000a000000000000000002460347030000000000000000000000000000000000000a0000000000000000017c067c060000000000000000000000000000000000000e0000000002000000610500000000000000000000000000000000000000000002000002000200000000200000000000000000000000000000000000000000000c000004000400000001200000000000000000000000000000000000000000000c0000040004000000000000000000000000000000000000000000000000000008020004000200000000000000000000000000000000000000000000000000000e020000000200000061010000000000000000000000000000000000000000000e00000000010000006113000000000000000000000000000000000000000000070000000000000000036f0d00000000000000000000000000000000000000000a000000000000000002500351030000000000000000000000000000000000000a0000000000000000017c067c060000000000000000000000000000000000000c000002000200000001000000000000000000000000000000000000000000000c000002000200000000000000000000000000000000000000000000000000000e000002000000000000000000000000000000000000000000000000000000000a000000000000000001300230020000000000000000000000000000000000000c000010001000000001000000000000000000000000000000000000000000000c000010001000000000000000000000000000000000eb2acf5400000000000004080010000000000000000000000000000000000000000000000000000000000a000000000000000004590373030000000000000000000000000000000000000c0000020002000000010c0000000000000000000000000000000000000000000c0000020002000000000000000000000000000000000000000000000000000005020000000200000001000000000000000000000000000000000000000000001a000002000200000002ffffffff0000000000000000000000000000000000000e000002000000000020040000000000000000000000000000000000000000000c000002000200000001200000000000000000000000000000000000000000000c000002000200000000000000000000000000000000000000000000000000000e000002000000000000000000000000000000000000000000000000000000000c000004000400000001000000000000000000000000000000000000000000000c000004000400000000000000000000000000000000000000000000000000000a00000000000000000167036703000000000000000000000000000000000000020800000004000000000000000000000000000000000000000000000000000004100000000000000000000000000000000000000000000000000000000000000a00000000000000000a67033002000000000000000000000000000000000000180000040008000000000500000000000000000000000000000000000000000008080002000800000000000000000000000000000000000000000000000000000e080000001000000021040000000000000000000000000000000000000000000e0800100000000000000100000000000000000000000000000000000000000002000004000800000000010000000000000000000000000000000000000000000c000010001000000001010000000000000000000000000000000000000000000c0000100010000000000000000000000000000000000000000000000000000004080004000000000000000000000000000000000000000000000000000000000a000000000000000002640370030000000000000000000000000000000000000c000010001000000001000000000000000000000000000000000000000000000c000010001000000000000000000000000000000000000000000000000000000a000000000000000001640364030000000000000000000000000000000000000c000010001000000001000000000000000000000000000000000000000000000c000010001000000000000000000000000000000000d5c0095900000000000004080010000000000000000000000000000000000000000000000000000000000a000000000000000004770390030000000000000000000000000000000000000c000002000200000001090000000000000000000000000000000000000000000c0000020002000000000000000000000000000000000000000000000000000005020000000200000001000000000000000000000000000000000000000000000e000002000000000020040000000000000000000000000000000000000000000c000002000200000001200000000000000000000000000000000000000000000c000002000200000000000000000000000000000000000000000000000000000e000002000000000000000000000000000000000000000000000000000000000c000004000400000001000000000000000000000000000000000000000000000c000004000400000000000000000000000000000000000000000000000000000a00000000000000000184038403000000000000000000000000000000000000020800000004000000000000000000000000000000000000000000000000000004100000000000000000000000000000000000000000000000000000000000000a00000000000000000a84033002000000000000000000000000000000000000180000040008000000000500000000000000000000000000000000000000000008080002000800000000000000000000000000000000000000000000000000000e080000001000000021040000000000000000000000000000000000000000000e0800100000000000000100000000000000000000000000000000000000000002000004000800000000010000000000000000000000000000000000000000000c000010001000000001010000000000000000000000000000000000000000000c0000100010000000000000000000000000000000000000000000000000000004080004000000000000000000000000000000000000000000000000000000000a00000000000000000281038d030000000000000000000000000000000000000c000010001000000001000000000000000000000000000000000000000000000c000010001000000000000000000000000000000000000000000000000000000a000000000000000001810381030000000000000000000000000000000000000c000010001000000001000000000000000000000000000000000000000000000c00001000100000000000000000000000000000000093543d5a00000000000004080010000000000000000000000000000000000000000000000000000000000a0000000000000000049403ad030000000000000000000000000000000000000c0000020002000000010a0000000000000000000000000000000000000000000c0000020002000000000000000000000000000000000000000000000000000005020000000200000001000000000000000000000000000000000000000000000e000002000000000020040000000000000000000000000000000000000000000c000002000200000001200000000000000000000000000000000000000000000c000002000200000000000000000000000000000000000000000000000000000e000002000000000000000000000000000000000000000000000000000000000c000004000400000001000000000000000000000000000000000000000000000c000004000400000000000000000000000000000000000000000000000000000a000000000000000001a103a103000000000000000000000000000000000000020800000004000000000000000000000000000000000000000000000000000004100000000000000000000000000000000000000000000000000000000000000a00000000000000000aa1033002000000000000000000000000000000000000180000040008000000000500000000000000000000000000000000000000000008080002000800000000000000000000000000000000000000000000000000000e080000001000000021040000000000000000000000000000000000000000000e0800100000000000000100000000000000000000000000000000000000000002000004000800000000010000000000000000000000000000000000000000000c000010001000000001010000000000000000000000000000000000000000000c0000100010000000000000000000000000000000000000000000000000000004080004000000000000000000000000000000000000000000000000000000000a0000000000000000029e03aa030000000000000000000000000000000000000c000010001000000001000000000000000000000000000000000000000000000c000010001000000000000000000000000000000000000000000000000000000a0000000000000000019e039e030000000000000000000000000000000000000c000010001000000001000000000000000000000000000000000000000000000c0000100010000000000000000000000000000000004278626a00000000000004080010000000000000000000000000000000000000000000000000000000000a000000000000000004b103d603000000000000000000000000000000000000020200000001000000000000000000000000000000000000000000000000000007000000000000000003f40700000000000000000000000000000000000000000a000000000000000002b403b5030000000000000000000000000000000000000a0000000000000000017c067c0600000000000000000000000000000000000007000000000000000003330e00000000000000000000000000000000000000000a0000000000000000027c06b7030000000000000000000000000000000000000e000000000200000021020000000000000000000000000000000000000000000e0000020000000000600300000000000000000000000000000000000000000007000000000000000003242c00000000000000000000000000000000000000000c000002000200000001200000000000000000000000000000000000000000000c000002000200000000000000000000000000000000000000000000000000000e000002000000000000000000000000000000000000000000000000000000000c000002000200000001000000000000000000000000000000000000000000000c000002000200000000000000000000000000000000000000000000000000000a000000000000000001c203c20300000000000000000000000000000000000004040000000000000000000000000000000000000000000000000000000000000a00000000000000000ac20330020000000000000000000000000000000000000e0000020000000000600500000000000000000000000000000000000000000018000002000400000000050000000000000000000000000000000000000000000e000004000000000060040000000000000000000000000000000000000000000e00000000020000006103000000000000000000000000000000000000000000020200040001000000000000000000000000000000000000000000000000000007000000000000000003fc2b00000000000000000000000000000000000000000c000002000200000001200000000000000000000000000000000000000000000c000002000200000000000000000000000000000000000000000000000000000e0000000004000000610400000000000000000000000000000000000000000008040002000200000000000000000000000000000000000000000000000000000e020001000000000000010000000000000000000000000000000000000000000e0000000008000000610500000000000000000000000000000000000000000002000008000200000000010000000000000000000000000000000000000000000c000004000400000001010000000000000000000000000000000000000000000c0000040004000000000000000000000000000000000000000000000000000004020008000000000000000000000000000000000000000000000000000000000a000000000000000002c003d3030000000000000000000000000000000000000c000004000400000001000000000000000000000000000000000000000000000c000004000400000000000000000000000000000000000000000000000000000a000000000000000001c003c0030000000000000000000000000000000000000c000010001000000001000000000000000000000000000000000000000000000c0000100010000000000000000000000000000000003182a07000000000000004080010000000000000000000000000000000000000000000000000000000000a000000000000000004da031a04000000000000000000000000000000000000020200000001000000000000000000000000000000000000000000000000000007000000000000000003f40700000000000000000000000000000000000000000a000000000000000002dd03de030000000000000000000000000000000000000a0000000000000000017c067c060000000000000000000000000000000000000c000002000200000001ffffffffffffffffffffffffffffffff0000000000000c000002000200000000ffffffff0000000000000000000000000000000000001a010002000200000002000000000000000000000000000000000000000000000e000002000000000020000000000000000000000000000000000000000000000c000002000200000001010000000000000000000000000000000000000000000c000002000200000000000000000000000000000000000000000000000000000e0000020000000000200100000000000000000000000000000000000000000010000000000000000000000000000000000000000000000000000000000000000c000002000200000001400000000000000000000000000000000000000000000c000002000200000000000000000000000000000000000000000000000000000e000002000000000040000000000000000000000000000000000000000000000c000002000200000001000000000000000000000000000000000000000000000c000002000200000000000000000000000000000000000000000000000000000c000004000400000001200000000000000000000000000000000000000000000c000004000400000000000000000000000000000000000000000000000000000c000008000800000001020000000000000000000000000000000000000000000c00000800080000000000000000000000000000000000000000000000000000180000020010000000000500000000000000000000000000000000000000000008100004001000000000000000000000000000000000000000000000000000000e100000002000000021000000000000000000000000000000000000000000000e10002000000000004001000000000000000000000000000000000000000000020000020002000000000100000000000000000000000000000000000000000004020008000000000000000000000000000000000000000000000000000000000a000000000000000002ef03f6030000000000000000000000000000000000000c00000100010000000100000000ff03000000000000000000000000000000000c0000010001000000000000000000000000000000000000000000000000000007000000000000000003432c00000000000000000000000000000000000000000e0000000002000000410100000000000000000000000000000000000000000005020000000100000001000000000000000000000000000000000000000000000e000000000200000021020000000000000000000000000000000000000000000e0000020000000000600300000000000000000000000000000000000000000007000000000000000003242c00000000000000000000000000000000000000000c000002000200000001200000000000000000000000000000000000000000000c000002000200000000000000000000000000000000000000000000000000000e000002000000000000000000000000000000000000000000000000000000000c000002000200000001000000000000000000000000000000000000000000000c000002000200000000000000000000000000000000000000000000000000000a0000000000000000010604060400000000000000000000000000000000000004040000000000000000000000000000000000000000000000000000000000000a00000000000000000a060430020000000000000000000000000000000000000e0000020000000000600500000000000000000000000000000000000000000018000002000400000000050000000000000000000000000000000000000000000e000004000000000060040000000000000000000000000000000000000000000e00000000020000006103000000000000000000000000000000000000000000020200040001000000000000000000000000000000000000000000000000000007000000000000000003fc2b00000000000000000000000000000000000000000c000002000200000001200000000000000000000000000000000000000000000c000002000200000000000000000000000000000000000000000000000000000e0000000004000000610400000000000000000000000000000000000000000008040002000200000000000000000000000000000000000000000000000000000e020001000000000000010000000000000000000000000000000000000000000e0000000008000000610500000000000000000000000000000000000000000002000008000200000000010000000000000000000000000000000000000000000c000004000400000001010000000000000000000000000000000000000000000c0000040004000000000000000000000000000000000000000000000000000004020008000000000000000000000000000000000000000000000000000000000a000000000000000002040417040000000000000000000000000000000000000c000004000400000001000000000000000000000000000000000000000000000c000004000400000000000000000000000000000000000000000000000000000a000000000000000001040404040000000000000000000000000000000000000c000010001000000001000000000000000000000000000000000000000000000c0000100010000000000000000000000000000000003dfc647400000000000004080010000000000000000000000000000000000000000000000000000000000a0000000000000000041e0437040000000000000000000000000000000000000c0000020002000000010b0000000000000000000000000000000000000000000c0000020002000000000000000000000000000000000000000000000000000005020000000200000001000000000000000000000000000000000000000000000e000002000000000020040000000000000000000000000000000000000000000c000002000200000001200000000000000000000000000000000000000000000c000002000200000000000000000000000000000000000000000000000000000e000002000000000000000000000000000000000000000000000000000000000c000004000400000001000000000000000000000000000000000000000000000c000004000400000000000000000000000000000000000000000000000000000a0000000000000000012b042b04000000000000000000000000000000000000020800000004000000000000000000000000000000000000000000000000000004100000000000000000000000000000000000000000000000000000000000000a00000000000000000a2b043002000000000000000000000000000000000000180000040008000000000500000000000000000000000000000000000000000008080002000800000000000000000000000000000000000000000000000000000e080000001000000021040000000000000000000000000000000000000000000e0800100000000000000100000000000000000000000000000000000000000002000004000800000000010000000000000000000000000000000000000000000c000010001000000001010000000000000000000000000000000000000000000c0000100010000000000000000000000000000000000000000000000000000004080004000000000000000000000000000000000000000000000000000000000a000000000000000002280434040000000000000000000000000000000000000c000010001000000001000000000000000000000000000000000000000000000c000010001000000000000000000000000000000000000000000000000000000a000000000000000001280428040000000000000000000000000000000000000c000010001000000001000000000000000000000000000000000000000000000c00001000100000000000000000000000000000000000bece7e00000000000004080010000000000000000000000000000000000000000000000000000000000a0000000000000000043b047b04000000000000000000000000000000000000020200000001000000000000000000000000000000000000000000000000000007000000000000000003f40700000000000000000000000000000000000000000a0000000000000000023e043f040000000000000000000000000000000000000a0000000000000000017c067c060000000000000000000000000000000000000c000002000200000001ffffffffffffffffffffffffffffffff0000000000000c000002000200000000ffffffff0000000000000000000000000000000000001a010002000200000002000000000000000000000000000000000000000000000e000002000000000020000000000000000000000000000000000000000000000c000002000200000001040000000000000000000000000000000000000000000c000002000200000000000000000000000000000000000000000000000000000e0000020000000000200100000000000000000000000000000000000000000010000000000000000000000000000000000000000000000000000000000000000c000002000200000001400000000000000000000000000000000000000000000c000002000200000000000000000000000000000000000000000000000000000e000002000000000040000000000000000000000000000000000000000000000c000002000200000001000000000000000000000000000000000000000000000c000002000200000000000000000000000000000000000000000000000000000c000004000400000001200000000000000000000000000000000000000000000c000004000400000000000000000000000000000000000000000000000000000c000008000800000001020000000000000000000000000000000000000000000c00000800080000000000000000000000000000000000000000000000000000180000020010000000000500000000000000000000000000000000000000000008100004001000000000000000000000000000000000000000000000000000000e100000002000000021000000000000000000000000000000000000000000000e10002000000000004001000000000000000000000000000000000000000000020000020002000000000100000000000000000000000000000000000000000004020008000000000000000000000000000000000000000000000000000000000a000000000000000002500457040000000000000000000000000000000000000c00000100010000000100000000ff03000000000000000000000000000000000c0000010001000000000000000000000000000000000000000000000000000007000000000000000003432c00000000000000000000000000000000000000000e0000000002000000410100000000000000000000000000000000000000000005020000000100000001000000000000000000000000000000000000000000000e000000000200000021020000000000000000000000000000000000000000000e0000020000000000600300000000000000000000000000000000000000000007000000000000000003242c00000000000000000000000000000000000000000c000002000200000001200000000000000000000000000000000000000000000c000002000200000000000000000000000000000000000000000000000000000e000002000000000000000000000000000000000000000000000000000000000c000002000200000001000000000000000000000000000000000000000000000c000002000200000000000000000000000000000000000000000000000000000a0000000000000000016704670400000000000000000000000000000000000004040000000000000000000000000000000000000000000000000000000000000a00000000000000000a670430020000000000000000000000000000000000000e0000020000000000600500000000000000000000000000000000000000000018000002000400000000050000000000000000000000000000000000000000000e000004000000000060040000000000000000000000000000000000000000000e00000000020000006103000000000000000000000000000000000000000000020200040001000000000000000000000000000000000000000000000000000007000000000000000003fc2b00000000000000000000000000000000000000000c000002000200000001200000000000000000000000000000000000000000000c000002000200000000000000000000000000000000000000000000000000000e0000000004000000610400000000000000000000000000000000000000000008040002000200000000000000000000000000000000000000000000000000000e020001000000000000010000000000000000000000000000000000000000000e0000000008000000610500000000000000000000000000000000000000000002000008000200000000010000000000000000000000000000000000000000000c000004000400000001010000000000000000000000000000000000000000000c0000040004000000000000000000000000000000000000000000000000000004020008000000000000000000000000000000000000000000000000000000000a000000000000000002650478040000000000000000000000000000000000000c000004000400000001000000000000000000000000000000000000000000000c000004000400000000000000000000000000000000000000000000000000000a000000000000000001650465040000000000000000000000000000000000000c000010001000000001000000000000000000000000000000000000000000000c00001000100000000000000000000000000000000044cbaf8900000000000004080010000000000000000000000000000000000000000000000000000000000a0000000000000000047f04b604000000000000000000000000000000000000020200000001000000000000000000000000000000000000000000000000000007000000000000000003f40700000000000000000000000000000000000000000a000000000000000002820483040000000000000000000000000000000000000a0000000000000000017c067c0600000000000000000000000000000000000002010000000200000000000000000000000000000000000000000000000000000c000008000800000001000000000000000000000000000000000000000000000c000008000800000000000000000000000000000000000000000000000000000e000008000000000060120000000000000000000000000000000000000000000c000004000400000001000000000000000000000000000000000000000000000c000004000400000000000000000000000000000000000000000000000000000e000004000000000060050000000000000000000000000000000000000000000e000008000000000060110000000000000000000000000000000000000000000c000000000400000001000200000000000000000000000000000000000000000e00000400000000006004000000000000000000000000000000000000000000020400000001000000000000000000000000000000000000000000000000000007000000000000000003bb1600000000000000000000000000000000000000000a000000000000000002900491040000000000000000000000000000000000000a0000000000000000017c067c060000000000000000000000000000000000000e0000000002000000610400000000000000000000000000000000000000000002000002000200000000200000000000000000000000000000000000000000000c000004000400000001200000000000000000000000000000000000000000000c0000040004000000000000000000000000000000000000000000000000000008020004000200000000000000000000000000000000000000000000000000000e020000000200000061010000000000000000000000000000000000000000000e000002000000000060040000000000000000000000000000000000000000000e000000000200000021020000000000000000000000000000000000000000000e000002000000000060030000000000000000000000000000000000000000000e0000000001000000611100000000000000000000000000000000000000000007000000000000000003242c00000000000000000000000000000000000000000e0000000002000000610300000000000000000000000000000000000000000002000002000200000000200000000000000000000000000000000000000000000e0000000001000000610400000000000000000000000000000000000000000007000000000000000003242c00000000000000000000000000000000000000000c000002000200000001400000000000000000000000000000000000000000000c000002000200000000000000000000000000000000000000000000000000000e000002000000000000000000000000000000000000000000000000000000000e000000000200000061050000000000000000000000000000000000000000000e0000020000000000600500000000000000000000000000000000000000000018000002000400000000050000000000000000000000000000000000000000000e000004000000000060040000000000000000000000000000000000000000000e00000000020000006103000000000000000000000000000000000000000000020200040001000000000000000000000000000000000000000000000000000007000000000000000003fc2b00000000000000000000000000000000000000000c000002000200000001200000000000000000000000000000000000000000000c000002000200000000000000000000000000000000000000000000000000000e0000000004000000610400000000000000000000000000000000000000000008040002000200000000000000000000000000000000000000000000000000000e020001000000000000010000000000000000000000000000000000000000000e0000000004000000610500000000000000000000000000000000000000000002000004000400000000010000000000000000000000000000000000000000000e000004000000000060050000000000000000000000000000000000000000000c000002000200000001020000000000000000000000000000000000000000000c0000020002000000000000000000000000000000000000000000000000000004040002000000000000000000000000000000000000000000000000000000000a000000000000000002a30430020000000000000000000000000000000000000c000010001000000001000000000000000000000000000000000000000000000c000010001000000000000000000000000000000000419bd89500000000000004080010000000000000000000000000000000000000000000000000000000000a000000000000000004ba0415050000000000000000000000000000000000000c000002000200000001c00000000000000000000000000000000000000000000c000002000200000000000000000000000000000000000000000000000000000e000002000000000020020000000000000000000000000000000000000000000c000002000200000001030000000000000000000000000000000000000000000c000002000200000000000000000000000000000000000000000000000000000e000002000000000020040000000000000000000000000000000000000000000c000002000200000001000000000000000000000000000000000000000000000c000002000200000000000000000000000000000000005358440000000000000e000002000000000020050000000000000000000000000000000000000000000e000000000200000021020000000000000000000000000000000000000000000e000002000000000060030000000000000000000000000000000000000000000c000001000100000001200000000000000000000000000000000000000000000c0000010001000000000000000000000000000000000000000000000000000007000000000000000003242c00000000000000000000000000000000000000000e0000000002000000610300000000000000000000000000000000000000000002000002000200000000200000000000000000000000000000000000000000000e000000000400000021040000000000000000000000000000000000000000000e00000400000000006004000000000000000000000000000000000000000000020400000001000000000000000000000000000000000000000000000000000007000000000000000003242c00000000000000000000000000000000000000000c000004000400000001000000000000000000000000000000000000000000000c000004000400000000000000000000000000000000000000000000000000000e0000000002000000610300000000000000000000000000000000000000000002000002000200000000400000000000000000000000000000000000000000000e000002000000000060020000000000000000000000000000000000000000000e0000000002000000610400000000000000000000000000000000000000000004020000000000000000000000000000000000000000000000000000000000000a000000000000000004ee04d6040000000000000000000000000000000000000e0000000002000000610200000000000000000000000000000000000000000002040000000800000000000000000000000000000000000000000000000000000e0000080000000000600500000000000000000000000000000000000000000002020008000200000000000000000000000000000000000000000000000000000c000004000400000001200000000000000000000000000000000000000000000c0000040004000000000000000000000000000000000000000000000000000008080004000400000000000000000000000000000000000000000000000000000e0400000001000000210500000000000000000000000000000000000000000007000000000000000003242c00000000000000000000000000000000000000000e0000000008000000610500000000000000000000000000000000000000000002000008000800000000200000000000000000000000000000000000000000000e00000000020000006104000000000000000000000000000000000000000000020800000004000000000000000000000000000000000000000000000000000004080002000000000000000000000000000000000000000000000000000000000a000000000000000002d604e5040000000000000000000000000000000000000e0000000002000000610400000000000000000000000000000000000000000004040002000000000000000000000000000000000000000000000000000000000a000000000000000006ee04e8040000000000000000000000000000000000000e000000000200000061040000000000000000000000000000000000000000000e0000000004000000610200000000000000000000000000000000000000000002040002000200000000000000000000000000000000000000000000000000000c000001000100000001000000000000000000000000000000000000000000000c0000010001000000000000000000000000000000000000000000000000000007000000000000000003242c00000000000000000000000000000000000000000e00000000020000006104000000000000000000000000000000000000000000020000020002000000005f0000000000000000000000000000000000000000000c000004000400000001e0ffffffffffffffffffffffffffffff0000000000000c000004000400000000ffffffffffffffffffffffffffffffff0000000000001a020004000200000002000000000000000000000000000000000000000000000e000002000000000000000000000000000000000000000000000000000000000e0000020000000000600100000000000000000000000000000000000000000018000002000200000002050000000000000000000000000000000000000000000c000004000400000001000000000000000000000000000000000000000000000c000004000400000000000000000000000000000000000000000000000000000e0000020000000000600200000000000000000000000000000000000000000004020000000000000000000000000000000000000000000000000000000000000a0000000000000000040c05fb040000000000000000000000000000000000000e0000040000000000600500000000000000000000000000000000000000000018000004000400000000050000000000000000000000000000000000000000000e000004000000000060040000000000000000000000000000000000000000000e00000000020000006103000000000000000000000000000000000000000000020200040001000000000000000000000000000000000000000000000000000007000000000000000003fc2b00000000000000000000000000000000000000000c000002000200000001200000000000000000000000000000000000000000000c000002000200000000000000000000000000000000000000000000000000000e0000000004000000610400000000000000000000000000000000000000000008040002000200000000000000000000000000000000000000000000000000000e020001000000000000010000000000000000000000000000000000000000000e0000000008000000610500000000000000000000000000000000000000000002000008000800000000010000000000000000000000000000000000000000000e00000000020000006102000000000000000000000000000000000000000000020800000004000000000000000000000000000000000000000000000000000004080002000000000000000000000000000000000000000000000000000000000a000000000000000002fb040c050000000000000000000000000000000000000c000002000200000001000000000000000000000000000000000000000000000c0000020002000000000000000000000000000000000000000000000000000004020000000000000000000000000000000000000000000000000000000000000a00000000000000000a100530020000000000000000000000000000000000000e000000000200000061030000000000000000000000000000000000000000000e00000000040000006101000000000000000000000000000000000000000000020200040001000000000000000000000000000000000000000000000000000007000000000000000003fc2b00000000000000000000000000000000000000000a000000000000000001300230020000000000000000000000000000000000000c000010001000000001000000000000000000000000000000000000000000000c000010001000000000000000000000000000000000bb9c05a900000000000004080010000000000000000000000000000000000000000000000000000000000a00000000000000000419054f050000000000000000000000000000000000000c000004000400000001000000000000000000000000000000000000000000000c000004000400000000000000000000000000000000000000000000000000000e000004000000000060100000000000000000000000000000000000000000000e0000040000000000600f0000000000000000000000000000000000000000000c000000000400000001c00100000000000000000000000000000000000000000e000004000000000060050000000000000000000000000000000000000000000204000000010000000000000000000000000000000000000000000000000000070000000000000000032b0700000000000000000000000000000000000000000a000000000000000002220523050000000000000000000000000000000000000a0000000000000000017c067c060000000000000000000000000000000000000e0000000002000000610500000000000000000000000000000000000000000002000002000200000000200000000000000000000000000000000000000000000c000004000400000001200000000000000000000000000000000000000000000c0000040004000000000000000000000000000000000000000000000000000008020004000200000000000000000000000000000000000000000000000000000e020000000400000061010000000000000000000000000000000000000000000e0000000002000000610f000000000000000000000000000000000000000000140000000001000000000000000000000000000000000000000000000000000007000000000000000003fd0800000000000000000000000000000000000000000a0000000000000000022d052e050000000000000000000000000000000000000a0000000000000000017c067c060000000000000000000000000000000000000c000001000100000001010000000000000000000000000000000000000000000c000001000100000000000000000000000000000000000000000000000000000e000000000200000021020000000000000000000000000000000000000000000e0000020000000000600300000000000000000000000000000000000000000007000000000000000003242c00000000000000000000000000000000000000000c000002000200000001200000000000000000000000000000000000000000000c000002000200000000000000000000000000000000000000000000000000000e000002000000000000000000000000000000000000000000000000000000000c000002000200000001000000000000000000000000000000000000000000000c000002000200000000000000000000000000000000000000000000000000000a0000000000000000013b053b0500000000000000000000000000000000000004040000000000000000000000000000000000000000000000000000000000000a00000000000000000a3b0530020000000000000000000000000000000000000e0000020000000000600500000000000000000000000000000000000000000018000002000400000000050000000000000000000000000000000000000000000e000004000000000060040000000000000000000000000000000000000000000e00000000020000006103000000000000000000000000000000000000000000020200040001000000000000000000000000000000000000000000000000000007000000000000000003fc2b00000000000000000000000000000000000000000c000002000200000001200000000000000000000000000000000000000000000c000002000200000000000000000000000000000000000000000000000000000e0000000004000000610400000000000000000000000000000000000000000008040002000200000000000000000000000000000000000000000000000000000e020001000000000000010000000000000000000000000000000000000000000e0000000008000000610500000000000000000000000000000000000000000002000008000200000000010000000000000000000000000000000000000000000c000004000400000001010000000000000000000000000000000000000000000c0000040004000000000000000000000000000000000000000000000000000004020008000000000000000000000000000000000000000000000000000000000a00000000000000000239054c050000000000000000000000000000000000000c000004000400000001000000000000000000000000000000000000000000000c000004000400000000000000000000000000000000000000000000000000000a000000000000000001390539050000000000000000000000000000000000000c000010001000000001000000000000000000000000000000000000000000000c000010001000000000000000000000000000000000567a9aba00000000000004080010000000000000000000000000000000000000000000000000000000000a00000000000000000453056b050000000000000000000000000000000000000c000002000200000001e80300000000000000000000000000000000000000000c000002000200000000000000000000000000000000000000000000000000000e000002000000000020040000000000000000000000000000000000000000000c000002000200000001200000000000000000000000000000000000000000000c000002000200000000000000000000000000000000000000000000000000000e000002000000000000000000000000000000000000000000000000000000000c000004000400000001000000000000000000000000000000000000000000000c000004000400000000000000000000000000000000000000000000000000000a0000000000000000015f055f05000000000000000000000000000000000000020800000004000000000000000000000000000000000000000000000000000004100000000000000000000000000000000000000000000000000000000000000a00000000000000000a5f053002000000000000000000000000000000000000180000040008000000000500000000000000000000000000000000000000000008080002000800000000000000000000000000000000000000000000000000000e080000001000000021040000000000000000000000000000000000000000000e0800100000000000000100000000000000000000000000000000000000000002000004000800000000010000000000000000000000000000000000000000000c000010001000000001010000000000000000000000000000000000000000000c0000100010000000000000000000000000000000000000000000000000000004080004000000000000000000000000000000000000000000000000000000000a0000000000000000025c0568050000000000000000000000000000000000000c000010001000000001000000000000000000000000000000000000000000000c000010001000000000000000000000000000000000000000000000000000000a0000000000000000015c055c050000000000000000000000000000000000000c000010001000000001000000000000000000000000000000000000000000000c00001000100000000000000000000000000000000077cf25bc00000000000004080010000000000000000000000000000000000000000000000000000000000a0000000000000000046f057905000000000000000000000000000000000000020200000001000000000000000000000000000000000000000000000000000007000000000000000003f40700000000000000000000000000000000000000000a000000000000000002720573050000000000000000000000000000000000000a0000000000000000017c067c0600000000000000000000000000000000000007000000000000000003e92400000000000000000000000000000000000000000a0000000000000000027c0675050000000000000000000000000000000000000c000002000200000001000000000000000000000000000000000000000000000c000002000200000000000000000000000000000000000000000000000000000e000002000000000000000000000000000000000000000000000000000000000a000000000000000001300230020000000000000000000000000000000000000c000010001000000001000000000000000000000000000000000000000000000c00001000100000000000000000000000000000000055015ac400000000000004080010000000000000000000000000000000000000000000000000000000000a0000000000000000047d0599050000000000000000000000000000000000000c000002000200000001050000000000000000000000000000000000000000000c0000020002000000000000000000000000000000000000000000000000000005020000000200000001000000000000000000000000000000000000000000000c000004000400000001ffffffffffffffffffffffffffffffff0000000000000c000004000400000000ffffffff0000000000000000000000000000000000001a020004000200000002000000000000000000000000000000000000000000000e000002000000000020040000000000000000000000000000000000000000000c000002000200000001200000000000000000000000000000000000000000000c000002000200000000000000000000000000000000000000000000000000000e000002000000000000000000000000000000000000000000000000000000000c000004000400000001000000000000000000000000000000000000000000000c000004000400000000000000000000000000000000000000000000000000000a0000000000000000018d058d05000000000000000000000000000000000000020800000004000000000000000000000000000000000000000000000000000004100000000000000000000000000000000000000000000000000000000000000a00000000000000000a8d053002000000000000000000000000000000000000180000040008000000000500000000000000000000000000000000000000000008080002000800000000000000000000000000000000000000000000000000000e080000001000000021040000000000000000000000000000000000000000000e0800100000000000000100000000000000000000000000000000000000000002000004000800000000010000000000000000000000000000000000000000000c000010001000000001010000000000000000000000000000000000000000000c0000100010000000000000000000000000000000000000000000000000000004080004000000000000000000000000000000000000000000000000000000000a0000000000000000028a0596050000000000000000000000000000000000000c000010001000000001000000000000000000000000000000000000000000000c000010001000000000000000000000000000000000000000000000000000000a0000000000000000018a058a050000000000000000000000000000000000000c000010001000000001000000000000000000000000000000000000000000000c000010001000000000000000000000000000000000a72012d200000000000004080010000000000000000000000000000000000000000000000000000000000a0000000000000000049d05b9050000000000000000000000000000000000000c000002000200000001070000000000000000000000000000000000000000000c0000020002000000000000000000000000000000000000000000000000000005020000000200000001000000000000000000000000000000000000000000000c000004000400000001ffffffffffffffffffffffffffffffff0000000000000c000004000400000000ffffffff0000000000000000000000000000000000001a020004000200000002000000000000000000000000000000000000000000000e000002000000000020040000000000000000000000000000000000000000000c000002000200000001200000000000000000000000000000000000000000000c000002000200000000000000000000000000000000000000000000000000000e000002000000000000000000000000000000000000000000000000000000000c000004000400000001000000000000000000000000000000000000000000000c000004000400000000000000000000000000000000000000000000000000000a000000000000000001ad05ad05000000000000000000000000000000000000020800000004000000000000000000000000000000000000000000000000000004100000000000000000000000000000000000000000000000000000000000000a00000000000000000aad053002000000000000000000000000000000000000180000040008000000000500000000000000000000000000000000000000000008080002000800000000000000000000000000000000000000000000000000000e080000001000000021040000000000000000000000000000000000000000000e0800100000000000000100000000000000000000000000000000000000000002000004000800000000010000000000000000000000000000000000000000000c000010001000000001010000000000000000000000000000000000000000000c0000100010000000000000000000000000000000000000000000000000000004080004000000000000000000000000000000000000000000000000000000000a000000000000000002aa05b6050000000000000000000000000000000000000c000010001000000001000000000000000000000000000000000000000000000c000010001000000000000000000000000000000000000000000000000000000a000000000000000001aa05aa050000000000000000000000000000000000000c000010001000000001000000000000000000000000000000000000000000000c000010001000000000000000000000000000000000cfac05d500000000000004080010000000000000000000000000000000000000000000000000000000000a000000000000000004bd05e9050000000000000000000000000000000000000c000004000400000001000000000000000000000000000000000000000000000c000004000400000000000000000000000000000000000000000000000000000e0000040000000000600e0000000000000000000000000000000000000000000e0000040000000000600d0000000000000000000000000000000000000000000e0000040000000000600c0000000000000000000000000000000000000000000e0000040000000000600b0000000000000000000000000000000000000000000e0000040000000000600a0000000000000000000000000000000000000000000e000004000000000060090000000000000000000000000000000000000000000e000004000000000060080000000000000000000000000000000000000000000c000000000400000001e00000000000000000000000000000000000000000000e000004000000000060050000000000000000000000000000000000000000000204000000010000000000000000000000000000000000000000000000000000070000000000000000031d0800000000000000000000000000000000000000000a000000000000000002cb05cc050000000000000000000000000000000000000a0000000000000000017c067c060000000000000000000000000000000000000e0000000040000000610500000000000000000000000000000000000000000002000040000200000000c000000000000000000000000000000000000000000002000040000400000000a000000000000000000000000000000000000000000002000040000800000000800000000000000000000000000000000000000000000200004000100000000060000000000000000000000000000000000000000000020000400020000000004000000000000000000000000000000000000000000002000040004000000000200000000000000000000000000000000000000000000c000080008000000001200000000000000000000000000000000000000000000c000080008000000000000000000000000000000000000000000000000000000840008000000100000000000000000000000000000000000000000000000000082000800000020000000000000000000000000000000000000000000000000008100080000004000000000000000000000000000000000000000000000000000808008000080000000000000000000000000000000000000000000000000000080400800004000000000000000000000000000000000000000000000000000008020080000200000000000000000000000000000000000000000000000000000e020000004000000061010000000000000000000000000000000000000000000e040000002000000061010000000000000000000000000000000000000000000e080000001000000061010000000000000000000000000000000000000000000e000400000800000061010000000000000000000000000000000000000000000e000200000400000061010000000000000000000000000000000000000000000e000100000200000061010000000000000000000000000000000000000000000e0000000001000000610800000000000000000000000000000000000000000007000000000000000003d70a00000000000000000000000000000000000000000a000000000000000002e405e5050000000000000000000000000000000000000a0000000000000000017c067c060000000000000000000000000000000000000c000002000200000001000000000000000000000000000000000000000000000c000002000200000000000000000000000000000000000000000000000000000e000002000000000000000000000000000000000000000000000000000000000a000000000000000001300230020000000000000000000000000000000000000c000010001000000001000000000000000000000000000000000000000000000c000010001000000000000000000000000000000000c388d7d600000000000004080010000000000000000000000000000000000000000000000000000000000a000000000000000004ed05fe050000000000000000000000000000000000000c000002000200000001240000000000000000000000000000000000000000000c0000020002000000000000000000000000000000000000000000000000000004040002000000000000000000000000000000000000000000000000000000000a00000000000000000cf10579060000000000000000000000000000000000000c000001000100000001240000000000000000000000000000000000000000000c0000010001000000000000000000000000000000000000000000000000000007000000000000000003102c00000000000000000000000000000000000000000c000002000200000001ffffffff0000000000000000000000000000000000000c0000020002000000000000000000000000000000000000000000000000000004010002000000000000000000000000000000000000000000000000000000000a0000000000000000087906f805000000000000000000000000000000000000070000000000000000039a0d00000000000000000000000000000000000000000a0000000000000000027c06fa050000000000000000000000000000000000000c000002000200000001000000000000000000000000000000000000000000000c000002000200000000000000000000000000000000000000000000000000000e000002000000000000000000000000000000000000000000000000000000000a000000000000000001300230020000000000000000000000000000000000000c000004000400000001000000000000000000000000000000000000000000000c0000040004000000000000000000000000000000003eed62dd00000000000004080004000000000000000000000000000000000000000000000000000000000a00000000000000000402066a060000000000000000000000000000000000000c000008000800000001000000000000000000000000000000000000000000000c000008000800000000000000000000000000000000000000000000000000000e000008000000000060070000000000000000000000000000000000000000000c000004000400000001000000000000000000000000000000000000000000000c000004000400000000000000000000000000000000000000000000000000000e000004000000000060050000000000000000000000000000000000000000000e000008000000000060060000000000000000000000000000000000000000000c000000000400000001a00000000000000000000000000000000000000000000e00000400000000006004000000000000000000000000000000000000000000020400000001000000000000000000000000000000000000000000000000000007000000000000000003b00700000000000000000000000000000000000000000a0000000000000000020e060f060000000000000000000000000000000000000a0000000000000000017c067c060000000000000000000000000000000000000e0000000002000000610400000000000000000000000000000000000000000002000002000400000000200000000000000000000000000000000000000000000c000002000200000001ffffffffffffffffffffffffffffffff0000000000000c000002000200000000ffffffff0000000000000000000000000000000000000e000000000800000061060000000000000000000000000000000000000000001a080002000800000002000000000000000000000000000000000000000000000c000002000200000001200000000000000000000000000000000000000000000c0000020002000000000000000000000000000000000000000000000000000008040002000400000000000000000000000000000000000000000000000000000e040000000400000061010000000000000000000000000000000000000000000e000004000000000060040000000000000000000000000000000000000000000e000008000000000020000000000000000000000000000000000000000000000c000004000400000001020000000000000000000000000000000000000000000c000004000400000000000000000000000000000000000000000000000000000e0000040000000000200100000000000000000000000000000000000000000010000000000000000000000000000000000000000000000000000000000000000c000008000800000001400000000000000000000000000000000000000000000c000008000800000000000000000000000000000000000000000000000000000e000008000000000040000000000000000000000000000000000000000000000e00000000200000006105000000000000000000000000000000000000000000180000200008000000000500000000000000000000000000000000000000000008080002000800000000000000000000000000000000000000000000000000000e080000001000000021000000000000000000000000000000000000000000000e0800100000000000400100000000000000000000000000000000000000000002000020002000000000010000000000000000000000000000000000000000000e0000200000000000600500000000000000000000000000000000000000000004200004000000000000000000000000000000000000000000000000000000000a00000000000000000222062b060000000000000000000000000000000000000c00000100010000000100000000ff03000000000000000000000000000000000c0000010001000000000000000000000000000000000000000000000000000007000000000000000003432c00000000000000000000000000000000000000000c000002000200000001ffffffffffffffffffffffffffffffff0000000000000c000002000200000000ffffffff0000000000000000000000000000000000000e000000000400000061040000000000000000000000000000000000000000001a040002000200000002000000000000000000000000000000000000000000000e000000000400000041010000000000000000000000000000000000000000000e000002000000000020000000000000000000000000000000000000000000000e0000040000000000200100000000000000000000000000000000000000000010000000000000000000000000000000000000000000000000000000000000000c000002000200000001400000000000000000000000000000000000000000000c000002000200000000000000000000000000000000000000000000000000000e000002000000000040000000000000000000000000000000000000000000000c000002000200000001000000000000000000000000000000000000000000000c000002000200000000000000000000000000000000000000000000000000000c000004000400000001200000000000000000000000000000000000000000000c000004000400000000000000000000000000000000000000000000000000000c000008000800000001020000000000000000000000000000000000000000000c00000800080000000000000000000000000000000000000000000000000000180000020010000000000500000000000000000000000000000000000000000008100004001000000000000000000000000000000000000000000000000000000e100000002000000021000000000000000000000000000000000000000000000e10002000000000004001000000000000000000000000000000000000000000020000020002000000000100000000000000000000000000000000000000000004020008000000000000000000000000000000000000000000000000000000000a0000000000000000023f0646060000000000000000000000000000000000000c00000100010000000100000000ff03000000000000000000000000000000000c0000010001000000000000000000000000000000000000000000000000000007000000000000000003432c00000000000000000000000000000000000000000e0000000002000000410100000000000000000000000000000000000000000005020000000100000001000000000000000000000000000000000000000000000e000000000200000021020000000000000000000000000000000000000000000e0000020000000000600300000000000000000000000000000000000000000007000000000000000003242c00000000000000000000000000000000000000000c000002000200000001200000000000000000000000000000000000000000000c000002000200000000000000000000000000000000000000000000000000000e000002000000000000000000000000000000000000000000000000000000000c000002000200000001000000000000000000000000000000000000000000000c000002000200000000000000000000000000000000000000000000000000000a0000000000000000015606560600000000000000000000000000000000000004040000000000000000000000000000000000000000000000000000000000000a00000000000000000a560630020000000000000000000000000000000000000e0000020000000000600500000000000000000000000000000000000000000018000002000400000000050000000000000000000000000000000000000000000e000004000000000060040000000000000000000000000000000000000000000e00000000020000006103000000000000000000000000000000000000000000020200040001000000000000000000000000000000000000000000000000000007000000000000000003fc2b00000000000000000000000000000000000000000c000002000200000001200000000000000000000000000000000000000000000c000002000200000000000000000000000000000000000000000000000000000e0000000004000000610400000000000000000000000000000000000000000008040002000200000000000000000000000000000000000000000000000000000e020001000000000000010000000000000000000000000000000000000000000e0000000008000000610500000000000000000000000000000000000000000002000008000200000000010000000000000000000000000000000000000000000c000004000400000001010000000000000000000000000000000000000000000c0000040004000000000000000000000000000000000000000000000000000004020008000000000000000000000000000000000000000000000000000000000a000000000000000002540667060000000000000000000000000000000000000c000004000400000001000000000000000000000000000000000000000000000c000004000400000000000000000000000000000000000000000000000000000a000000000000000001540654060000000000000000000000000000000000000c000002000200000001000000000000000000000000000000000000000000000c000002000200000000000000000000000000000000e9caf6ff00000000000004080002000000000000000000000000000000000000000000000000000000000a0000000000000000046e06740600000000000000000000000000000000000007000000000000000003562700000000000000000000000000000000000000000a0000000000000000027c0670060000000000000000000000000000000000000c000002000200000001000000000000000000000000000000000000000000000c000002000200000000000000000000000000000000000000000000000000000e000002000000000000000000000000000000000000000000000000000000000a000000000000000001300230020000000000000000000000000000000000000c000002000200000001000000000000000000000000000000000000000000000c000002000200000000000000000000000000000000000000000000000000000e000002000000000000000000000000000000000000000000000000000000000e0000000000000000e11d00000000000000000000000000000000000000000007000000000000000004000000000000000000000000000000000000000000000c000002000200000001000000000000000000000000000000000000000000000c000002000200000000000000000000000000000000000000000000000000000e000002000000000000000000000000000000000000000000000000000000000e0000000000000000e11d00000000000000000000000000000000000000000007000000000000000004000000000000000000000000000000000000000000000c0000020002000000013fffffffffffffffffffffffffffffff0000000000000c000002000200000000ffffffffffffffffffffffffffffffff00000000000004010002000000000000000000000000000000000000000000000000000000000a0000000000000000088906820600000000000000000000000000000000000002000001000200000000c00000000000000000000000000000000000000000000c000004000400000001ffffffffffffffff00000000000000000000000000000c0000040004000000000000000000000000000000000000000000000000000004020004000000000000000000000000000000000000000000000000000000000a000000000000000006870689060000000000000000000000000000000000000e0000020000000000200200000000000000000000000000000000000000000007000000000000000000000000000000000000000000000000000000000000000c000002000200000001000000000000000000000000000000000000000000000c000002000200000000000000000000000000000000717b484e0000000000000e000002000000000020000000000000000000000000000000000000000000000c000001000100000001410000000000000000000000000000000000000000000c000001000100000000000000000000000000000000000000000000000000000c000002000200000001040000000000000000000000000000000000000000000c0000020002000000000000000000000000000000000000000000000000000007000000000000000003242c00000000000000000000000000000000000000000c000002000200000001240000000000000000000000000000000000000000000c000002000200000000000000000000000000000000000000000000000000000e000002000000000000000000000000000000000000000000000000000000000c000004000400000001000000000000000000000000000000000000000000000c000004000400000000000000000000000000000000000000000000000000000c000002000200000001200000000000000000000000000000000000000000000c000002000200000000000000000000000000000000000000000000000000000a0000000000000000019c069c06000000000000000000000000000000000000020800000004000000000000000000000000000000000000000000000000000004100000000000000000000000000000000000000000000000000000000000000a00000000000000000a9c06a806000000000000000000000000000000000000180000040008000000000500000000000000000000000000000000000000000008080002000800000000000000000000000000000000000000000000000000000e080000001000000021000000000000000000000000000000000000000000000e0800100000000000000100000000000000000000000000000000000000000002000004000800000000010000000000000000000000000000000000000000000c000010001000000001010000000000000000000000000000000000000000000c0000100010000000000000000000000000000000000000000000000000000004080004000000000000000000000000000000000000000000000000000000000a0000000000000000029906a5060000000000000000000000000000000000000c000010001000000001000000000000000000000000000000000000000000000c000010001000000000000000000000000000000000000000000000000000000a000000000000000001990699060000000000000000000000000000000000000c000002000200000001ffffffffffffffffffffffffffffffff0000000000000c000002000200000000ffffffffffffffffffffffff000000000000000000000e000000000400000001020000000000000000000000000000000000000000001a040002000200000002000000000000000000000000000000000000000000000c000004000400000001000000000000000000000000000000000000000000000c000004000400000000000000000000000000000000ffffffff0000000000000e000000000800000021010000000000000000000000000000000000000000001a080004000400000002000000000000000000000000000000000000000000001a040002000200000004000000000000000000000000000000000000000000000e0000020000000000000200000000000000000000000000000000000000000007000000000000000004000000000000000000000000000000000000000000000e0000000000000000e0020000000000000000000000000000000000000000000c000004000400000001fcffffffffffffffffffffffffffffff0000000000000c000004000400000000ffffffffffffffffffffffffffffffff0000000000000e0000020000000000600200000000000000000000000000000000000000000002020004000800000000000000000000000000000000000000000000000000000c000010001000000001800000000000000000000000000000000000000000000c000010001000000000000000000000000000000000000000000000000000000c000004000400000001000000000000000000000000000000000000000000000c000004000400000000000000000000000000000000000000800000000000000c000002000200000001000000000000000000000000000000000000000000000c0000020002000000000000000000000000000000000000008000000000000004080010000000000000000000000000000000000000000000000000000000000a00000000000000000cc206c0060000000000000000000000000000000000000c000002000200000001000000000000000000000000000000000000000000000c000002000200000000000000000000000000000000000000000000000000001a080004001000000002000000000000000000000000000000000000000000000c000008000800000001000000000000000000000000000000000000000000000c0000080008000000000000000000000000000000000000008000000000000004100000000000000000000000000000000000000000000000000000000000000a000000000000000002c906c7060000000000000000000000000000000000000c000008000800000001000000000000000000000000000000000000000000000c0000080008000000000000000000000000000000000000000000000000000004100004000000000000000000000000000000000000000000000000000000000a000000000000000004cc06cb06000000000000000000000000000000000000020200000008000000000000000000000000000000000000000000000000000002000001000200000000600000000000000000000000000000000000000000000e0000020000000000600300000000000000000000000000000000000000000004080000000000000000000000000000000000000000000000000000000000000a00000000000000000ad00621070000000000000000000000000000000000000c000001000100000001240000000000000000000000000000000000000000000c0000010001000000000000000000000000000000000000000000000000000007000000000000000003102c00000000000000000000000000000000000000000c000002000200000001200000000000000000000000000000000000000000000c000002000200000000000000000000000000000000000000000000000000000e0000000004000000610300000000000000000000000000000000000000000008040002000200000000000000000000000000000000000000000000000000000e000002000000000060010000000000000000000000000000000000000000000e020001000000000060010000000000000000000000000000000000000000000c000001000100000001440000000000000000000000000000000000000000000c0000010001000000000000000000000000000000000000000000000000000007000000000000000003102c00000000000000000000000000000000000000000e000000000200000061010000000000000000000000000000000000000000000e020001000000000060020000000000000000000000000000000000000000000c000001000100000001640000000000000000000000000000000000000000000c0000010001000000000000000000000000000000000000000000000000000007000000000000000003102c00000000000000000000000000000000000000000c000002000200000001ffffffffffffffffffffffffffffffff0000000000000c000002000200000000ffffffff00000000000000000000000000000000000004010002000000000000000000000000000000000000000000000000000000000a000000000000000006e50626070000000000000000000000000000000000000e0000000002000000610300000000000000000000000000000000000000000002000002000200000000400000000000000000000000000000000000000000000c000004000400000001200000000000000000000000000000000000000000000c0000040004000000000000000000000000000000000000000000000000000008020004000200000000000000000000000000000000000000000000000000000e020001000000000060010000000000000000000000000000000000000000000c000001000100000001840000000000000000000000000000000000000000000c0000010001000000000000000000000000000000000000000000000000000007000000000000000003102c00000000000000000000000000000000000000000c000002000200000001000000000000000001000000000000000000000000000c0000020002000000000000000000000000000000000000000000000000000004010002000000000000000000000000000000000000000000000000000000000a00000000000000000c2107f20600000000000000000000000000000000000002000001000800000000230000000000000000000000000000000000000000000c000004000400000001000000000000000000000000000000000000000000000c000004000400000000000000000000000000000000000000800000000000000c000002000200000001000000000000000000000000000000000000000000000c000002000200000000000000000000000000000000000000800000000000000e0000000010000000610200000000000000000000000000000000000000000004080010000000000000000000000000000000000000000000000000000000000a00000000000000000cfc06fa060000000000000000000000000000000000000c000002000200000001000000000000000000000000000000000000000000000c000002000200000000000000000000000000000000000000000000000000000e000000001000000061020000000000000000000000000000000000000000001a100004001000000002000000000000000000000000000000000000000000001a080004002000000002000000000000000000000000000000000000000000000c000008000800000001000000000000000000000000000000000000000000000c0000080008000000000000000000000000000000000000008000000000000004200010000000000000000000000000000000000000000000000000000000000a000000000000000002050703070000000000000000000000000000000000000c000008000800000001000000000000000000000000000000000000000000000c000008000800000000000000000000000000000000000000000000000000001a2000100010000000080000000000000000000000000000000000000000000004100004000000000000000000000000000000000000000000000000000000000a00000000000000000409070807000000000000000000000000000000000000020200000008000000000000000000000000000000000000000000000000000004080000000000000000000000000000000000000000000000000000000000000a00000000000000000a21070b0700000000000000000000000000000000000002000001000200000000240000000000000000000000000000000000000000000e00000200000000006001000000000000000000000000000000000000000000020200000001000000000000000000000000000000000000000000000000000007000000000000000003102c00000000000000000000000000000000000000000e000000000800000061010000000000000000000000000000000000000000000c000002000200000001ffffffffffffffff00000000000000000000000000000c0000020002000000000000000000000000000000000000000000000000000004010002000000000000000000000000000000000000000000000000000000000a0000000000000000082107140700000000000000000000000000000000000002080001000200000000000000000000000000000000000000000000000000000e0000000004000000610200000000000000000000000000000000000000000004020004000000000000000000000000000000000000000000000000000000000a000000000000000008210718070000000000000000000000000000000000000c000002000200000001200000000000000000000000000000000000000000000c000002000200000000000000000000000000000000000000000000000000000e0000000004000000610300000000000000000000000000000000000000000008040002000200000000000000000000000000000000000000000000000000000e020001000000000060050000000000000000000000000000000000000000000e0200080000000000600400000000000000000000000000000000000000000004000004000100000001600000000000000000000000000000000000000000000e0000000000000000e10200000000000000000000000000000000000000000007000000000000000000000000000000000000000000000000000000000000000c000002000200000001000000000000000000000000000000000000000000000c000002000200000000000000000000000000000000000000000000000000000e000002000000000000000000000000000000000000000000000000000000000e0000000000000000e10200000000000000000000000000000000000000000007000000000000000004000000000000000000000000000000000000000000000c000002000200000001000000000000000000000000000000000000000000000c000002000200000000000000000000000000000000000000000000000000000e000002000000000000000000000000000000000000000000000000000000000e0000000000000000e10200000000000000000000000000000000000000000007000000000000000004000000000000000000000000000000000000000000000e0000000000000000e0010000000000000000000000000000000000000000000c000004000400000001fcffffffffffffffffffffffffffffff0000000000000c000004000400000000ffffffffffffffffffffffffffffffff00000000000002020004000800000000000000000000000000000000000000000000000000000c000010001000000001400000000000000000000000000000000000000000000c000010001000000000000000000000000000000000000000000000000000000c000004000400000001000000000000000000000000000000000000000000000c000004000400000000000000000000000000000000000000800000000000000c000002000200000001000000000000000000000000000000000000000000000c0000020002000000000000000000000000000000000000008000000000000004080010000000000000000000000000000000000000000000000000000000000a000000000000000002390737070000000000000000000000000000000000000c000002000200000001000000000000000000000000000000000000000000000c000002000200000000000000000000000000000000000000000000000000001a080004001000000002000000000000000000000000000000000000000000000c000008000800000001000000000000000000000000000000000000000000000c0000080008000000000000000000000000000000000000008000000000000004100000000000000000000000000000000000000000000000000000000000000a00000000000000000840073e070000000000000000000000000000000000000c000008000800000001000000000000000000000000000000000000000000000c0000080008000000000000000000000000000000000000000000000000000004100004000000000000000000000000000000000000000000000000000000000a00000000000000000443074207000000000000000000000000000000000000020200000008000000000000000000000000000000000000000000000000000002000001000200000000400000000000000000000000000000000000000000000e0000020000000000600200000000000000000000000000000000000000000004080000000000000000000000000000000000000000000000000000000000000a00000000000000000a5d0747070000000000000000000000000000000000000c000001000100000001240000000000000000000000000000000000000000000c0000010001000000000000000000000000000000000000000000000000000007000000000000000003102c00000000000000000000000000000000000000000c000002000200000001ffffffffffffffffffffffffffffffff0000000000000c000002000200000000ffffffff00000000000000000000000000000000000004010002000000000000000000000000000000000000000000000000000000000a0000000000000000064e0762070000000000000000000000000000000000000c000002000200000001200000000000000000000000000000000000000000000c000002000200000000000000000000000000000000000000000000000000000e0000000004000000610200000000000000000000000000000000000000000008040002000200000000000000000000000000000000000000000000000000000e000002000000000060010000000000000000000000000000000000000000000e020001000000000060010000000000000000000000000000000000000000000c000001000100000001440000000000000000000000000000000000000000000c0000010001000000000000000000000000000000000000000000000000000007000000000000000003102c00000000000000000000000000000000000000000e000000000200000061010000000000000000000000000000000000000000000e020001000000000060020000000000000000000000000000000000000000000e0000000002000000610200000000000000000000000000000000000000000004000002000100000001400000000000000000000000000000000000000000000e0000000000000000e10100000000000000000000000000000000000000000007000000000000000000000000000000000000000000000000000000000000000c000002000200000001000000000000000000000000000000000000000000000c000002000200000000000000000000000000000000000000000000000000000e000002000000000000000000000000000000000000000000000000000000000e0000000000000000e10100000000000000000000000000000000000000000007000000000000000004000000000000000000000000000000000000000000000c000002000200000001000000000000000000000000000000000000000000000c000002000200000000000000000000000000000000000000000000000000000e000002000000000000000000000000000000000000000000000000000000000e0000000000000000e10100000000000000000000000000000000000000000007000000000000000004000000000000000000000000000000000000000000000e0000000000000000e0010000000000000000000000000000000000000000000c000004000400000001fcffffffffffffffffffffffffffffff0000000000000c000004000400000000ffffffffffffffffffffffffffffffff00000000000002020004000800000000000000000000000000000000000000000000000000000c000010001000000001600000000000000000000000000000000000000000000c000010001000000000000000000000000000000000000000000000000000000c000004000400000001000000000000000000000000000000000000000000000c000004000400000000000000000000000000000000000000800000000000000c000002000200000001000000000000000000000000000000000000000000000c0000020002000000000000000000000000000000000000008000000000000004080010000000000000000000000000000000000000000000000000000000000a000000000000000002750773070000000000000000000000000000000000000c000002000200000001000000000000000000000000000000000000000000000c000002000200000000000000000000000000000000000000000000000000001a080004001000000002000000000000000000000000000000000000000000000c000008000800000001000000000000000000000000000000000000000000000c0000080008000000000000000000000000000000000000008000000000000004100000000000000000000000000000000000000000000000000000000000000a0000000000000000087c077a070000000000000000000000000000000000000c000008000800000001000000000000000000000000000000000000000000000c0000080008000000000000000000000000000000000000000000000000000004100004000000000000000000000000000000000000000000000000000000000a0000000000000000047f077e07000000000000000000000000000000000000020200000008000000000000000000000000000000000000000000000000000002000001000200000000400000000000000000000000000000000000000000000e0000020000000000600200000000000000000000000000000000000000000004080000000000000000000000000000000000000000000000000000000000000a00000000000000000aa20783070000000000000000000000000000000000000c000001000100000001240000000000000000000000000000000000000000000c0000010001000000000000000000000000000000000000000000000000000007000000000000000003102c00000000000000000000000000000000000000000c000002000200000001ffffffffffffffffffffffffffffffff0000000000000c000002000200000000ffffffff00000000000000000000000000000000000004010002000000000000000000000000000000000000000000000000000000000a0000000000000000068a07a7070000000000000000000000000000000000000c000002000200000001200000000000000000000000000000000000000000000c000002000200000000000000000000000000000000000000000000000000000e0000000004000000610200000000000000000000000000000000000000000008040002000200000000000000000000000000000000000000000000000000000e000002000000000060010000000000000000000000000000000000000000000e020001000000000060010000000000000000000000000000000000000000000c000001000100000001440000000000000000000000000000000000000000000c0000010001000000000000000000000000000000000000000000000000000007000000000000000003102c00000000000000000000000000000000000000000c000002000200000001ffffffffffffffffffffffffffffffff0000000000000c000002000200000000ffffffff00000000000000000000000000000000000004010002000000000000000000000000000000000000000000000000000000000a0000000000000000069707ab070000000000000000000000000000000000000e000000000200000061010000000000000000000000000000000000000000000e020001000000000060020000000000000000000000000000000000000000000c000001000100000001640000000000000000000000000000000000000000000c0000010001000000000000000000000000000000000000000000000000000007000000000000000003102c00000000000000000000000000000000000000000e000000000200000061010000000000000000000000000000000000000000000e020001000000000060030000000000000000000000000000000000000000000e0000000002000000610200000000000000000000000000000000000000000004000002000100000001400000000000000000000000000000000000000000000e0000000000000000e10100000000000000000000000000000000000000000007000000000000000000000000000000000000000000000000000000000000000c000002000200000001000000000000000000000000000000000000000000000c000002000200000000000000000000000000000000000000000000000000000e000002000000000000000000000000000000000000000000000000000000000e0000000000000000e10100000000000000000000000000000000000000000007000000000000000004000000000000000000000000000000000000000000000c000002000200000001000000000000000000000000000000000000000000000c000002000200000000000000000000000000000000000000000000000000000e000002000000000000000000000000000000000000000000000000000000000a000000000000000001ae07ae070000000000000000000000000000000000000c000002000200000001000000000000000000000000000000000000000000000c000002000200000000000000000000000000000000000000000000000000000e000002000000000000000000000000000000000000000000000000000000000e0000000000000000e10100000000000000000000000000000000000000000007000000000000000004000000000000000000000000000000000000000000000e0000000000000000e0010000000000000000000000000000000000000000000c000004000400000001fcffffffffffffffffffffffffffffff0000000000000c000004000400000000ffffffffffffffffffffffffffffffff00000000000002020004000800000000000000000000000000000000000000000000000000000c000010001000000001400000000000000000000000000000000000000000000c000010001000000000000000000000000000000000000000000000000000000c000004000400000001000000000000000000000000000000000000000000000c000004000400000000000000000000000000000000000000800000000000000c000002000200000001000000000000000000000000000000000000000000000c0000020002000000000000000000000000000000000000008000000000000004080010000000000000000000000000000000000000000000000000000000000a000000000000000002be07bc070000000000000000000000000000000000000c000002000200000001000000000000000000000000000000000000000000000c000002000200000000000000000000000000000000000000000000000000001a080004001000000002000000000000000000000000000000000000000000000c000008000800000001000000000000000000000000000000000000000000000c0000080008000000000000000000000000000000000000008000000000000004100000000000000000000000000000000000000000000000000000000000000a000000000000000008c507c3070000000000000000000000000000000000000c000008000800000001000000000000000000000000000000000000000000000c0000080008000000000000000000000000000000000000000000000000000004100004000000000000000000000000000000000000000000000000000000000a000000000000000004c807c707000000000000000000000000000000000000020200000008000000000000000000000000000000000000000000000000000002000001000200000000400000000000000000000000000000000000000000000e0000020000000000600200000000000000000000000000000000000000000004080000000000000000000000000000000000000000000000000000000000000a00000000000000000ae607cc070000000000000000000000000000000000000c000001000100000001240000000000000000000000000000000000000000000c0000010001000000000000000000000000000000000000000000000000000007000000000000000003102c00000000000000000000000000000000000000000c000002000200000001ffffffffffffffffffffffffffffffff0000000000000c000002000200000000ffffffff00000000000000000000000000000000000004010002000000000000000000000000000000000000000000000000000000000a000000000000000006d307eb070000000000000000000000000000000000000c000002000200000001200000000000000000000000000000000000000000000c000002000200000000000000000000000000000000000000000000000000000e0000000004000000610200000000000000000000000000000000000000000008040002000200000000000000000000000000000000000000000000000000000e000002000000000060010000000000000000000000000000000000000000000e020001000000000060010000000000000000000000000000000000000000000c000001000100000001440000000000000000000000000000000000000000000c0000010001000000000000000000000000000000000000000000000000000007000000000000000003102c00000000000000000000000000000000000000000c000002000200000001ffffffffffffffffffffffffffffffff0000000000000c000002000200000000ffffffff00000000000000000000000000000000000004010002000000000000000000000000000000000000000000000000000000000a000000000000000006e007ef070000000000000000000000000000000000000e000000000200000061010000000000000000000000000000000000000000000e020001000000000060020000000000000000000000000000000000000000000e0000000002000000610200000000000000000000000000000000000000000004000002000100000001400000000000000000000000000000000000000000000e0000000000000000e10100000000000000000000000000000000000000000007000000000000000000000000000000000000000000000000000000000000000c000002000200000001000000000000000000000000000000000000000000000c000002000200000000000000000000000000000000000000000000000000000e000002000000000000000000000000000000000000000000000000000000000e0000000000000000e10100000000000000000000000000000000000000000007000000000000000004000000000000000000000000000000000000000000000c000002000200000001000000000000000000000000000000000000000000000c000002000200000000000000000000000000000000000000000000000000000e000002000000000000000000000000000000000000000000000000000000000a000000000000000001f207f2070000000000000000000000000000000000000c000002000200000001000000000000000000000000000000000000000000000c000002000200000000000000000000000000000000000000000000000000000e000002000000000000000000000000000000000000000000000000000000000e0000000000000000e10100000000000000000000000000000000000000000007000000000000000004000000000000000000000000000000000000000000000c000002000200000001fcffffffffffffffffffffffffffffff0000000000000c000002000200000000ffffffffffffffffffffffffffffffff00000000000002010002000800000000000000000000000000000000000000000000000000000c000010001000000001200000000000000000000000000000000000000000000c000010001000000000000000000000000000000000000000000000000000000c000004000400000001000000000000000000000000000000000000000000000c000004000400000000000000000000000000000000000000800000000000000c000002000200000001000000000000000000000000000000000000000000000c0000020002000000000000000000000000000000000000008000000000000004080010000000000000000000000000000000000000000000000000000000000a0000000000000000020108ff070000000000000000000000000000000000000c000002000200000001000000000000000000000000000000000000000000000c000002000200000000000000000000000000000000000000000000000000001a080004001000000002000000000000000000000000000000000000000000000c000008000800000001000000000000000000000000000000000000000000000c0000080008000000000000000000000000000000000000008000000000000004100000000000000000000000000000000000000000000000000000000000000a000000000000000008080806080000000000000000000000000000000000000c000008000800000001000000000000000000000000000000000000000000000c0000080008000000000000000000000000000000000000000000000000000004100004000000000000000000000000000000000000000000000000000000000a0000000000000000040b080a08000000000000000000000000000000000000020200000008000000000000000000000000000000000000000000000000000004080000000000000000000000000000000000000000000000000000000000000a00000000000000000a15080d080000000000000000000000000000000000000c000001000100000001240000000000000000000000000000000000000000000c0000010001000000000000000000000000000000000000000000000000000007000000000000000003102c00000000000000000000000000000000000000000c000002000200000001ffffffffffffffffffffffffffffffff0000000000000c000002000200000000ffffffff00000000000000000000000000000000000004010002000000000000000000000000000000000000000000000000000000000a0000000000000000061408190800000000000000000000000000000000000007000000000000000000000000000000000000000000000000000000000000000c000002000200000001000000000000000000000000000000000000000000000c000002000200000000000000000000000000000000000000000000000000000e0000020000000000000000000000000000000000000000000000000000000007000000000000000004000000000000000000000000000000000000000000000c000002000200000001000000000000000000000000000000000000000000000c000002000200000000000000000000000000000000000000000000000000000e0000020000000000000000000000000000000000000000000000000000000007000000000000000004000000000000000000000000000000000000000000000e0000000000000000e0020000000000000000000000000000000000000000000c000004000400000001fcffffffffffffffffffffffffffffff0000000000000c000004000400000000ffffffffffffffffffffffffffffffff00000000000002020004000800000000000000000000000000000000000000000000000000000c000010001000000001e00000000000000000000000000000000000000000000c000010001000000000000000000000000000000000000000000000000000000c000004000400000001000000000000000000000000000000000000000000000c000004000400000000000000000000000000000000000000800000000000000c000002000200000001000000000000000000000000000000000000000000000c0000020002000000000000000000000000000000000000008000000000000004080010000000000000000000000000000000000000000000000000000000000a0000000000000000022b0829080000000000000000000000000000000000000c000002000200000001000000000000000000000000000000000000000000000c000002000200000000000000000000000000000000000000000000000000001a080004001000000002000000000000000000000000000000000000000000000c000008000800000001000000000000000000000000000000000000000000000c0000080008000000000000000000000000000000000000008000000000000004100000000000000000000000000000000000000000000000000000000000000a000000000000000008320830080000000000000000000000000000000000000c000008000800000001000000000000000000000000000000000000000000000c0000080008000000000000000000000000000000000000000000000000000004100004000000000000000000000000000000000000000000000000000000000a00000000000000000435083408000000000000000000000000000000000000020200000008000000000000000000000000000000000000000000000000000002000001000200000000600000000000000000000000000000000000000000000e0000020000000000600300000000000000000000000000000000000000000004080000000000000000000000000000000000000000000000000000000000000a00000000000000000a810839080000000000000000000000000000000000000c000001000100000001240000000000000000000000000000000000000000000c0000010001000000000000000000000000000000000000000000000000000007000000000000000003102c00000000000000000000000000000000000000000c000002000200000001ffffffffffffffffffffffffffffffff0000000000000c000002000200000000ffffffff00000000000000000000000000000000000004010002000000000000000000000000000000000000000000000000000000000a000000000000000006400886080000000000000000000000000000000000000c000004000400000001200000000000000000000000000000000000000000000c000004000400000000000000000000000000000000000000000000000000000e0000000002000000610300000000000000000000000000000000000000000008020004000200000000000000000000000000000000000000000000000000000e020001000000000060010000000000000000000000000000000000000000000c000001000100000001440000000000000000000000000000000000000000000c0000010001000000000000000000000000000000000000000000000000000007000000000000000003102c00000000000000000000000000000000000000000c000002000200000001ffffffffffffffffffffffffffffffff0000000000000c000002000200000000ffffffff00000000000000000000000000000000000004010002000000000000000000000000000000000000000000000000000000000a0000000000000000064c088a080000000000000000000000000000000000000e0000000002000000610300000000000000000000000000000000000000000002000002000400000000600000000000000000000000000000000000000000000e0000040000000000600200000000000000000000000000000000000000000002000002000400000000400000000000000000000000000000000000000000000e0000040000000000600100000000000000000000000000000000000000000002000002000200000000200000000000000000000000000000000000000000000c000004000400000001200000000000000000000000000000000000000000000c0000040004000000000000000000000000000000000000000000000000000008020004000200000000000000000000000000000000000000000000000000000e020001000000000060010000000000000000000000000000000000000000000c000001000100000001640000000000000000000000000000000000000000000c0000010001000000000000000000000000000000000000000000000000000007000000000000000003102c00000000000000000000000000000000000000000c000002000200000001200000000000000000000000000000000000000000000c000002000200000000000000000000000000000000000000000000000000000e0000000004000000610100000000000000000000000000000000000000000008040002000200000000000000000000000000000000000000000000000000000e020001000000000060010000000000000000000000000000000000000000000c000001000100000001840000000000000000000000000000000000000000000c0000010001000000000000000000000000000000000000000000000000000007000000000000000003102c00000000000000000000000000000000000000000e000000000200000061020000000000000000000000000000000000000000000c000004000400000001200000000000000000000000000000000000000000000c0000040004000000000000000000000000000000000000000000000000000008020004000200000000000000000000000000000000000000000000000000000e020001000000000060010000000000000000000000000000000000000000000c000001000100000001a40000000000000000000000000000000000000000000c0000010001000000000000000000000000000000000000000000000000000007000000000000000003102c00000000000000000000000000000000000000000c000002000200000001ff0000000000000000000000000000000000000000000c0000020002000000000000000000000000000000000000000000000000000004010002000000000000000000000000000000000000000000000000000000000a0000000000000000066d088e080000000000000000000000000000000000000c000002000200000001200000000000000000000000000000000000000000000c000002000200000000000000000000000000000000000000000000000000000e0000000004000000610300000000000000000000000000000000000000000008040002000200000000000000000000000000000000000000000000000000000e000002000000000060020000000000000000000000000000000000000000000e020001000000000060050000000000000000000000000000000000000000000c000001000100000001c40000000000000000000000000000000000000000000c0000010001000000000000000000000000000000000000000000000000000007000000000000000003102c00000000000000000000000000000000000000000e000000000200000061020000000000000000000000000000000000000000000e020001000000000060060000000000000000000000000000000000000000000c000001000100000001e40000000000000000000000000000000000000000000c0000010001000000000000000000000000000000000000000000000000000007000000000000000003102c00000000000000000000000000000000000000000e000000000200000061020000000000000000000000000000000000000000000e020001000000000060070000000000000000000000000000000000000000000e0000000002000000610300000000000000000000000000000000000000000004000002000100000001600000000000000000000000000000000000000000000e0000000000000000e10200000000000000000000000000000000000000000007000000000000000000000000000000000000000000000000000000000000000c000002000200000001000000000000000000000000000000000000000000000c000002000200000000000000000000000000000000000000000000000000000e000002000000000000000000000000000000000000000000000000000000000e0000000000000000e10200000000000000000000000000000000000000000007000000000000000004000000000000000000000000000000000000000000000c000002000200000001000000000000000000000000000000000000000000000c000002000200000000000000000000000000000000000000000000000000000e000002000000000000000000000000000000000000000000000000000000000a000000000000000001910891080000000000000000000000000000000000000c000002000200000001000000000000000000000000000000000000000000000c000002000200000000000000000000000000000000000000000000000000000e000002000000000000000000000000000000000000000000000000000000000a000000000000000001910891080000000000000000000000000000000000000c000002000200000001000000000000000000000000000000000000000000000c000002000200000000000000000000000000000000000000000000000000000e000002000000000000000000000000000000000000000000000000000000000e0000000000000000e10200000000000000000000000000000000000000000007000000000000000004000000000000000000000000000000000000000000000e0000000000000000e0030000000000000000000000000000000000000000000e000004000000000060020000000000000000000000000000000000000000000e000002000000000060040000000000000000000000000000000000000000000c000002000200000001ffffffffffffffffffffffffffffffff0000000000000c000002000200000000ffffffff0000000000000000000000000000000000001a010002000200000002000000000000000000000000000000000000000000000e000002000000000060030000000000000000000000000000000000000000000e000002000000000020000000000000000000000000000000000000000000000c000002000200000001020000000000000000000000000000000000000000000c000002000200000000000000000000000000000000000000000000000000000e0000020000000000200100000000000000000000000000000000000000000010000000000000000000000000000000000000000000000000000000000000000c000004000400000001400000000000000000000000000000000000000000000c000004000400000000000000000000000000000000000000000000000000000e000004000000000040000000000000000000000000000000000000000000000c000004000400000001000000000000000000000000000000000000000000000c000004000400000000000000000000000000000000000000000000000000000c000008000800000001200000000000000000000000000000000000000000000c00000800080000000000000000000000000000000000000000000000000000180000040010000000000500000000000000000000000000000000000000000008100008001000000000000000000000000000000000000000000000000000000e100000002000000021000000000000000000000000000000000000000000000e10002000000000004001000000000000000000000000000000000000000000020000040004000000000100000000000000000000000000000000000000000004040002000000000000000000000000000000000000000000000000000000000a000000000000000002a608ad080000000000000000000000000000000000000c00000100010000000100000000ff03000000000000000000000000000000000c0000010001000000000000000000000000000000000000000000000000000007000000000000000003432c00000000000000000000000000000000000000000c000002000200000001ffffffffffffffffffffffffffffffff0000000000000c000002000200000000ffffffff0000000000000000000000000000000000000e000000000400000061040000000000000000000000000000000000000000001a040002000400000002000000000000000000000000000000000000000000000e000000000200000041010000000000000000000000000000000000000000000e000004000000000060010000000000000000000000000000000000000000000e000004000000000020000000000000000000000000000000000000000000000e0000020000000000200100000000000000000000000000000000000000000010000000000000000000000000000000000000000000000000000000000000000c000002000200000001400000000000000000000000000000000000000000000c000002000200000000000000000000000000000000000000000000000000000e000002000000000040000000000000000000000000000000000000000000000c000002000200000001000000000000000000000000000000000000000000000c000002000200000000000000000000000000000000000000000000000000000c000004000400000001200000000000000000000000000000000000000000000c000004000400000000000000000000000000000000000000000000000000000c000008000800000001020000000000000000000000000000000000000000000c00000800080000000000000000000000000000000000000000000000000000180000020010000000000500000000000000000000000000000000000000000008100004001000000000000000000000000000000000000000000000000000000e100000002000000021000000000000000000000000000000000000000000000e10002000000000004001000000000000000000000000000000000000000000020000020002000000000100000000000000000000000000000000000000000004020008000000000000000000000000000000000000000000000000000000000a000000000000000002c208c9080000000000000000000000000000000000000c00000100010000000100000000ff03000000000000000000000000000000000c0000010001000000000000000000000000000000000000000000000000000007000000000000000003432c00000000000000000000000000000000000000000e000000000200000041010000000000000000000000000000000000000000000e0000000004000000610200000000000000000000000000000000000000000005020004000000000000000000000000000000000000000000000000000000000e000000000200000021020000000000000000000000000000000000000000000e00000200000000006004000000000000000000000000000000000000000000020400000001000000000000000000000000000000000000000000000000000007000000000000000003242c00000000000000000000000000000000000000000e000000000800000061040000000000000000000000000000000000000000000c00000200020000000125b9c3c7c80a205b1e29b2f7c01403dd0000000000000c000002000200000000f3841e7d42714fd15b7decebe5e15b8c0000000000000c000004000400000001030000002000000000000000000000000000000000000c000004000400000000000000000000000000000000000000000000000000000504000200000000000a000000000000000000000000000000000000000000000e000000000200000061030000000000000000000000000000000000000000000e00000000040000006101000000000000000000000000000000000000000000050200040000000000020000000000000000000000000000000000000000000002000008001000000000200000000000000000000000000000000000000000000c000002000200000001e0ffffffffffffffffffffffffffffff0000000000000c000002000200000000ffffffffffffffffffffffffffffffff0000000000000e0000100000000000600300000000000000000000000000000000000000000004080002000000000000000000000000000000000000000000000000000000000a00000000000000000ce208ea080000000000000000000000000000000000000e0000000000000000e10300000000000000000000000000000000000000000007000000000000000000000000000000000000000000000000000000000000000c000002000200000001000000000000000000000000000000000000000000000c000002000200000000000000000000000000000000000000000000000000000520000200000000000200000000000000000000000000000000000000000000020000080008000000004000000000000000000000000000000000000000000004100008000000000000000000000000000000000000000000000000000000000a000000000000000008ea08e2080000000000000000000000000000000000000e00000800000000006004000000000000000000000000000000000000000000020800000001000000000000000000000000000000000000000000000000000007000000000000000003fc2b00000000000000000000000000000000000000000e000000001000000061030000000000000000000000000000000000000000000e00000000080000006104000000000000000000000000000000000000000000041000080002000000000000000000000000000000000000000000000000000002010000002000000000000000000000000000000000000000000000000000000c0000040004000000013f0000000000000000000000000000000000000000000c0000040004000000000000000000000000000000000000000000000000000004020004000000000000000000000000000000000000000000000000000000000a000000000000000008f508e40800000000000000000000000000000000000002000008000100000000200000000000000000000000000000000000000000000e0000200000000000600200000000000000000000000000000000000000000007000000000000000003fc2b00000000000000000000000000000000000000000e000000001000000061030000000000000000000000000000000000000000000e000000000800000061040000000000000000000000000000000000000000000e0000000002000000610200000000000000000000000000000000000000000005020001000000000002000000000000000000000000000000000000000000000a000000000000000001e708e7080000000000000000000000000000000000000e0000000000000000e0030000000000000000000000000000000000000000000e000004000000000060030000000000000000000000000000000000000000000e000002000000000060040000000000000000000000000000000000000000000c000002000200000001ffffffffffffffffffffffffffffffff0000000000000c000002000200000000ffffffff0000000000000000000000000000000000001a010002000200000002000000000000000000000000000000000000000000000e000002000000000060020000000000000000000000000000000000000000000e000002000000000020000000000000000000000000000000000000000000000c000002000200000001010000000000000000000000000000000000000000000c000002000200000000000000000000000000000000000000000000000000000e0000020000000000200100000000000000000000000000000000000000000010000000000000000000000000000000000000000000000000000000000000000c000002000200000001400000000000000000000000000000000000000000000c000002000200000000000000000000000000000000000000000000000000000e000002000000000040000000000000000000000000000000000000000000000c000002000200000001000000000000000000000000000000000000000000000c000002000200000000000000000000000000000000000000000000000000000c000004000400000001200000000000000000000000000000000000000000000c000004000400000000000000000000000000000000000000000000000000000c000008000800000001020000000000000000000000000000000000000000000c00000800080000000000000000000000000000000000000000000000000000180000020010000000000500000000000000000000000000000000000000000008100004001000000000000000000000000000000000000000000000000000000e100000002000000021000000000000000000000000000000000000000000000e10002000000000004001000000000000000000000000000000000000000000020000020002000000000100000000000000000000000000000000000000000004020008000000000000000000000000000000000000000000000000000000000a000000000000000002120919090000000000000000000000000000000000000c00000100010000000100000000ff03000000000000000000000000000000000c0000010001000000000000000000000000000000000000000000000000000007000000000000000003432c00000000000000000000000000000000000000000e0000000002000000410100000000000000000000000000000000000000000005020000000100000001000000000000000000000000000000000000000000000e0000000002000000610300000000000000000000000000000000000000000007000000000000000003f82a00000000000000000000000000000000000000000a000000000000000002210922090000000000000000000000000000000000000a000000000000000001a809a8090000000000000000000000000000000000000e000001000000000060010000000000000000000000000000000000000000000e000000000200000061020000000000000000000000000000000000000000000e000002000000000020000000000000000000000000000000000000000000000c000002000200000001010000000000000000000000000000000000000000000c000002000200000000000000000000000000000000000000000000000000000e0000020000000000200100000000000000000000000000000000000000000010000000000000000000000000000000000000000000000000000000000000000c000002000200000001400000000000000000000000000000000000000000000c000002000200000000000000000000000000000000000000000000000000000e000002000000000040000000000000000000000000000000000000000000000c000002000200000001000000000000000000000000000000000000000000000c000002000200000000000000000000000000000000000000000000000000000c000004000400000001200000000000000000000000000000000000000000000c000004000400000000000000000000000000000000000000000000000000000c000008000800000001020000000000000000000000000000000000000000000c00000800080000000000000000000000000000000000000000000000000000180000020010000000000500000000000000000000000000000000000000000008100004001000000000000000000000000000000000000000000000000000000e100000002000000021000000000000000000000000000000000000000000000e10002000000000004001000000000000000000000000000000000000000000020000020002000000000100000000000000000000000000000000000000000004020008000000000000000000000000000000000000000000000000000000000a000000000000000002320939090000000000000000000000000000000000000c00000100010000000100000000ff03000000000000000000000000000000000c0000010001000000000000000000000000000000000000000000000000000007000000000000000003432c00000000000000000000000000000000000000000e000000000200000041010000000000000000000000000000000000000000000e0000000004000000610100000000000000000000000000000000000000000005020004000000000000000000000000000000000000000000000000000000000c000002000200000001ffffffffffffffffffffffffffffffff0000000000000c000002000200000000ffffffff0000000000000000000000000000000000000e000000000400000061040000000000000000000000000000000000000000001a040002000200000002000000000000000000000000000000000000000000000e000002000000000060010000000000000000000000000000000000000000000e000002000000000020000000000000000000000000000000000000000000000c000002000200000001010000000000000000000000000000000000000000000c000002000200000000000000000000000000000000000000000000000000000e0000020000000000200100000000000000000000000000000000000000000010000000000000000000000000000000000000000000000000000000000000000c000002000200000001400000000000000000000000000000000000000000000c000002000200000000000000000000000000000000000000000000000000000e000002000000000040000000000000000000000000000000000000000000000c000002000200000001000000000000000000000000000000000000000000000c000002000200000000000000000000000000000000000000000000000000000c000004000400000001200000000000000000000000000000000000000000000c000004000400000000000000000000000000000000000000000000000000000c000008000800000001020000000000000000000000000000000000000000000c00000800080000000000000000000000000000000000000000000000000000180000020010000000000500000000000000000000000000000000000000000008100004001000000000000000000000000000000000000000000000000000000e100000002000000021000000000000000000000000000000000000000000000e10002000000000004001000000000000000000000000000000000000000000020000020002000000000100000000000000000000000000000000000000000004020008000000000000000000000000000000000000000000000000000000000a000000000000000002520959090000000000000000000000000000000000000c00000100010000000100000000ff03000000000000000000000000000000000c0000010001000000000000000000000000000000000000000000000000000007000000000000000003432c00000000000000000000000000000000000000000e000000000200000041010000000000000000000000000000000000000000000e0000020000000000600400000000000000000000000000000000000000000010000000000000000000000000000000000000000000000000000000000000000c000002000200000001400000000000000000000000000000000000000000000c000002000200000000000000000000000000000000000000000000000000000e000002000000000040000000000000000000000000000000000000000000000c000002000200000001000000000000000000000000000000000000000000000c000002000200000000000000000000000000000000000000000000000000000c000004000400000001200000000000000000000000000000000000000000000c000004000400000000000000000000000000000000000000000000000000000c000008000800000001020000000000000000000000000000000000000000000c00000800080000000000000000000000000000000000000000000000000000180000020010000000000500000000000000000000000000000000000000000008100004001000000000000000000000000000000000000000000000000000000e100000002000000021000000000000000000000000000000000000000000000e10002000000000004001000000000000000000000000000000000000000000020000020002000000000100000000000000000000000000000000000000000004020008000000000000000000000000000000000000000000000000000000000a00000000000000000268096f090000000000000000000000000000000000000c00000100010000000100000000ff03000000000000000000000000000000000c0000010001000000000000000000000000000000000000000000000000000007000000000000000003432c00000000000000000000000000000000000000000e0000000002000000410100000000000000000000000000000000000000000005020000000100000001000000000000000000000000000000000000000000000e00000000020000006103000000000000000000000000000000000000000000070000000000000000034e2a00000000000000000000000000000000000000000a000000000000000002770978090000000000000000000000000000000000000a000000000000000001a809a8090000000000000000000000000000000000000e0000000002000000610400000000000000000000000000000000000000000005020001000000000000000000000000000000000000000000000000000000000e000000000200000021020000000000000000000000000000000000000000000e000002000000000060040000000000000000000000000000000000000000000e0000000001000000610300000000000000000000000000000000000000000007000000000000000003242c00000000000000000000000000000000000000000e000000000800000061040000000000000000000000000000000000000000000c000002000200000001efb323f54d5af52816a1c463f1a72b950000000000000c000002000200000000aa8d37fc68b0c2699bc8e21bad52f2dd0000000000000c000004000400000001030000002000000000000000000000000000000000000c000004000400000000000000000000000000000000000000000000000000000504000200000000000a000000000000000000000000000000000000000000000e000000000200000061020000000000000000000000000000000000000000000e00000000040000006101000000000000000000000000000000000000000000050200040000000000020000000000000000000000000000000000000000000002000008001000000000200000000000000000000000000000000000000000000c000002000200000001e0ffffffffffffffffffffffffffffff0000000000000c000002000200000000ffffffffffffffffffffffffffffffff0000000000000e0000100000000000600300000000000000000000000000000000000000000004080002000000000000000000000000000000000000000000000000000000000a00000000000000000c8d0995090000000000000000000000000000000000000e0000000000000000e10300000000000000000000000000000000000000000007000000000000000000000000000000000000000000000000000000000000000c000002000200000001000000000000000000000000000000000000000000000c000002000200000000000000000000000000000000000000000000000000000520000200000000000200000000000000000000000000000000000000000000020000080008000000004000000000000000000000000000000000000000000004100008000000000000000000000000000000000000000000000000000000000a00000000000000000895098d090000000000000000000000000000000000000e00000800000000006004000000000000000000000000000000000000000000020800000001000000000000000000000000000000000000000000000000000007000000000000000003fc2b00000000000000000000000000000000000000000e000000001000000061030000000000000000000000000000000000000000000e00000000080000006104000000000000000000000000000000000000000000041000080002000000000000000000000000000000000000000000000000000002010000002000000000000000000000000000000000000000000000000000000c0000040004000000013f0000000000000000000000000000000000000000000c0000040004000000000000000000000000000000000000000000000000000004020004000000000000000000000000000000000000000000000000000000000a000000000000000008a0098f0900000000000000000000000000000000000002000008000100000000200000000000000000000000000000000000000000000e0000200000000000600200000000000000000000000000000000000000000007000000000000000003fc2b00000000000000000000000000000000000000000e000000001000000061030000000000000000000000000000000000000000000e000000000800000061040000000000000000000000000000000000000000000e0000000002000000610200000000000000000000000000000000000000000005020001000000000002000000000000000000000000000000000000000000000a000000000000000001920992090000000000000000000000000000000000000e0000000000000000e10300000000000000000000000000000000000000000007000000000000000004000000000000000000000000000000000000000000000e0000000000000000e0050000000000000000000000000000000000000000000e000004000000000060060000000000000000000000000000000000000000000e0000020000000000600500000000000000000000000000000000000000000002010000000400000000000000000000000000000000000000000000000000000c000002000200000001ffffffffffffffffffffffffffffffff0000000000000c000002000200000000ffffffff0000000000000000000000000000000000000e000004000000000060040000000000000000000000000000000000000000001a040002000200000002000000000000000000000000000000000000000000000e000002000000000060030000000000000000000000000000000000000000000e000002000000000020000000000000000000000000000000000000000000000c000002000200000001020000000000000000000000000000000000000000000c000002000200000000000000000000000000000000000000000000000000000e0000020000000000200100000000000000000000000000000000000000000010000000000000000000000000000000000000000000000000000000000000000c000004000400000001400000000000000000000000000000000000000000000c000004000400000000000000000000000000000000000000000000000000000e000004000000000040000000000000000000000000000000000000000000000c000004000400000001000000000000000000000000000000000000000000000c000004000400000000000000000000000000000000000000000000000000000c000008000800000001200000000000000000000000000000000000000000000c00000800080000000000000000000000000000000000000000000000000000180000040010000000000500000000000000000000000000000000000000000008100008001000000000000000000000000000000000000000000000000000000e100000002000000021000000000000000000000000000000000000000000000e10002000000000004001000000000000000000000000000000000000000000020000040004000000000100000000000000000000000000000000000000000004040002000000000000000000000000000000000000000000000000000000000a000000000000000002bf09c6090000000000000000000000000000000000000c00000100010000000100000000ff03000000000000000000000000000000000c0000010001000000000000000000000000000000000000000000000000000007000000000000000003432c00000000000000000000000000000000000000000c000002000200000001ffffffffffffffffffffffffffffffff0000000000000c000002000200000000ffffffff00000000000000000000000000000000000014000000000400000000000000000000000000000000000000000000000000001a040002000400000002000000000000000000000000000000000000000000000e000000000200000041010000000000000000000000000000000000000000000e000004000000000060020000000000000000000000000000000000000000000e000004000000000020000000000000000000000000000000000000000000000e0000020000000000200100000000000000000000000000000000000000000010000000000000000000000000000000000000000000000000000000000000000c000002000200000001400000000000000000000000000000000000000000000c000002000200000000000000000000000000000000000000000000000000000e000002000000000040000000000000000000000000000000000000000000000c000002000200000001000000000000000000000000000000000000000000000c000002000200000000000000000000000000000000000000000000000000000c000004000400000001200000000000000000000000000000000000000000000c000004000400000000000000000000000000000000000000000000000000000c000008000800000001020000000000000000000000000000000000000000000c00000800080000000000000000000000000000000000000000000000000000180000020010000000000500000000000000000000000000000000000000000008100004001000000000000000000000000000000000000000000000000000000e100000002000000021000000000000000000000000000000000000000000000e10002000000000004001000000000000000000000000000000000000000000020000020002000000000100000000000000000000000000000000000000000004020008000000000000000000000000000000000000000000000000000000000a000000000000000002db09e2090000000000000000000000000000000000000c00000100010000000100000000ff03000000000000000000000000000000000c0000010001000000000000000000000000000000000000000000000000000007000000000000000003432c00000000000000000000000000000000000000000e0000000002000000410100000000000000000000000000000000000000000005020000000200000001000000000000000000000000000000000000000000000c000004000400000001fd0000000000000000000000000000000000000000000c0000040004000000000000000000000000000000000000000000000000000004020004000000000000000000000000000000000000000000000000000000000a000000000000000004530aeb090000000000000000000000000000000000000e000000000200000061030000000000000000000000000000000000000000000e000002000000000020000000000000000000000000000000000000000000000c000002000200000001020000000000000000000000000000000000000000000c000002000200000000000000000000000000000000000000000000000000000e0000020000000000200100000000000000000000000000000000000000000010000000000000000000000000000000000000000000000000000000000000000c000004000400000001400000000000000000000000000000000000000000000c000004000400000000000000000000000000000000000000000000000000000e000004000000000040000000000000000000000000000000000000000000000c000004000400000001000000000000000000000000000000000000000000000c000004000400000000000000000000000000000000000000000000000000000c000008000800000001200000000000000000000000000000000000000000000c00000800080000000000000000000000000000000000000000000000000000180000040010000000000500000000000000000000000000000000000000000008100008001000000000000000000000000000000000000000000000000000000e100000002000000021000000000000000000000000000000000000000000000e10002000000000004001000000000000000000000000000000000000000000020000040004000000000100000000000000000000000000000000000000000004040002000000000000000000000000000000000000000000000000000000000a000000000000000002f809ff090000000000000000000000000000000000000c00000100010000000100000000ff03000000000000000000000000000000000c0000010001000000000000000000000000000000000000000000000000000007000000000000000003432c00000000000000000000000000000000000000000e000000000200000041010000000000000000000000000000000000000000000e000000000400000061020000000000000000000000000000000000000000000e000004000000000020000000000000000000000000000000000000000000000e0000020000000000200100000000000000000000000000000000000000000010000000000000000000000000000000000000000000000000000000000000000c000002000200000001400000000000000000000000000000000000000000000c000002000200000000000000000000000000000000000000000000000000000e000002000000000040000000000000000000000000000000000000000000000c000002000200000001000000000000000000000000000000000000000000000c000002000200000000000000000000000000000000000000000000000000000c000004000400000001200000000000000000000000000000000000000000000c000004000400000000000000000000000000000000000000000000000000000c000008000800000001020000000000000000000000000000000000000000000c00000800080000000000000000000000000000000000000000000000000000180000020010000000000500000000000000000000000000000000000000000008100004001000000000000000000000000000000000000000000000000000000e100000002000000021000000000000000000000000000000000000000000000e10002000000000004001000000000000000000000000000000000000000000020000020002000000000100000000000000000000000000000000000000000004020008000000000000000000000000000000000000000000000000000000000a000000000000000002100a170a0000000000000000000000000000000000000c00000100010000000100000000ff03000000000000000000000000000000000c0000010001000000000000000000000000000000000000000000000000000007000000000000000003432c00000000000000000000000000000000000000000e0000000002000000410100000000000000000000000000000000000000000005020000000100000001000000000000000000000000000000000000000000000e0000000002000000610600000000000000000000000000000000000000000007000000000000000003f82a00000000000000000000000000000000000000000a0000000000000000021f0a200a0000000000000000000000000000000000000a0000000000000000015b0a5b0a0000000000000000000000000000000000000e000001000000000060010000000000000000000000000000000000000000000e000000000200000061030000000000000000000000000000000000000000000e000002000000000020000000000000000000000000000000000000000000000c000002000200000001020000000000000000000000000000000000000000000c000002000200000000000000000000000000000000000000000000000000000e0000020000000000200100000000000000000000000000000000000000000010000000000000000000000000000000000000000000000000000000000000000c000004000400000001400000000000000000000000000000000000000000000c000004000400000000000000000000000000000000000000000000000000000e000004000000000040000000000000000000000000000000000000000000000c000004000400000001000000000000000000000000000000000000000000000c000004000400000000000000000000000000000000000000000000000000000c000008000800000001200000000000000000000000000000000000000000000c00000800080000000000000000000000000000000000000000000000000000180000040010000000000500000000000000000000000000000000000000000008100008001000000000000000000000000000000000000000000000000000000e100000002000000021000000000000000000000000000000000000000000000e10002000000000004001000000000000000000000000000000000000000000020000040004000000000100000000000000000000000000000000000000000004040002000000000000000000000000000000000000000000000000000000000a0000000000000000022e0a350a0000000000000000000000000000000000000c00000100010000000100000000ff03000000000000000000000000000000000c0000010001000000000000000000000000000000000000000000000000000007000000000000000003432c00000000000000000000000000000000000000000e000000000200000041010000000000000000000000000000000000000000000e000000000400000061020000000000000000000000000000000000000000000e000004000000000020000000000000000000000000000000000000000000000e0000020000000000200100000000000000000000000000000000000000000010000000000000000000000000000000000000000000000000000000000000000c000002000200000001400000000000000000000000000000000000000000000c000002000200000000000000000000000000000000000000000000000000000e000002000000000040000000000000000000000000000000000000000000000c000002000200000001000000000000000000000000000000000000000000000c000002000200000000000000000000000000000000000000000000000000000c000004000400000001200000000000000000000000000000000000000000000c000004000400000000000000000000000000000000000000000000000000000c000008000800000001020000000000000000000000000000000000000000000c00000800080000000000000000000000000000000000000000000000000000180000020010000000000500000000000000000000000000000000000000000008100004001000000000000000000000000000000000000000000000000000000e100000002000000021000000000000000000000000000000000000000000000e10002000000000004001000000000000000000000000000000000000000000020000020002000000000100000000000000000000000000000000000000000004020008000000000000000000000000000000000000000000000000000000000a000000000000000002460a4d0a0000000000000000000000000000000000000c00000100010000000100000000ff03000000000000000000000000000000000c0000010001000000000000000000000000000000000000000000000000000007000000000000000003432c00000000000000000000000000000000000000000e000000000200000041010000000000000000000000000000000000000000000e0000000004000000610100000000000000000000000000000000000000000005020004000000000000000000000000000000000000000000000000000000000e000000000100000061040000000000000000000000000000000000000000000e000000000200000061050000000000000000000000000000000000000000000e0000000004000000610600000000000000000000000000000000000000000007000000000000000003fd0800000000000000000000000000000000000000000a000000000000000002580a590a0000000000000000000000000000000000000a0000000000000000015b0a5b0a0000000000000000000000000000000000000e0000000000000000e10500000000000000000000000000000000000000000007000000000000000000000000000000000000000000000000000000000000000e0000000000000000e10500000000000000000000000000000000000000000007000000000000000004000000000000000000000000000000000000000000000e0000000000000000e00200000000000000000000000000000000000000000004010000000000000000000000000000000000000000000000000000000000000a000000000000000004620a600a0000000000000000000000000000000000000e0000000000000000e10200000000000000000000000000000000000000000007000000000000000000000000000000000000000000000000000000000000000c000001000100000001000000000000000000000000000000000000000000000c000001000100000000000000000000000000000000a079c3080000000000000e000000000200000021020000000000000000000000000000000000000000000e0000020000000000600100000000000000000000000000000000000000000007000000000000000003242c00000000000000000000000000000000000000000e0000000002000000610100000000000000000000000000000000000000000002000002000200000000040000000000000000000000000000000000000000000c000001000100000001200000000000000000000000000000000000000000000c0000010001000000000000000000000000000000000000000000000000000007000000000000000003242c00000000000000000000000000000000000000000e0000000002000000610100000000000000000000000000000000000000000002000002000200000000240000000000000000000000000000000000000000000c000001000100000001140000000000000000000000000000000000000000000c0000010001000000000000000000000000000000000000000000000000000007000000000000000003242c00000000000000000000000000000000000000000e0000000002000000610100000000000000000000000000000000000000000002000002000200000000440000000000000000000000000000000000000000000c000001000100000001000000000000000000000000444552490000000000000c000001000100000000505845203a303243524570617773584400000000000007000000000000000003242c00000000000000000000000000000000000000000c000002000200000001640000000000000000000000000000000000000000000c000002000200000000000000000000000000000000000000000000000000000e000002000000000000000000000000000000000000000000000000000000000c000002000200000001000000000000000000000000000000000000000000000c000002000200000000000000000000000000000000000000000000000000000e0000020000000000600300000000000000000000000000000000000000000018000002000400000000050000000000000000000000000000000000000000000e000004000000000060020000000000000000000000000000000000000000000e00000000020000006101000000000000000000000000000000000000000000020200040001000000000000000000000000000000000000000000000000000007000000000000000003fc2b00000000000000000000000000000000000000000c000002000200000001200000000000000000000000000000000000000000000c000002000200000000000000000000000000000000000000000000000000000e0000000004000000610200000000000000000000000000000000000000000008040002000200000000000000000000000000000000000000000000000000000e020001000000000000010000000000000000000000000000000000000000000e0000000002000000610300000000000000000000000000000000000000000002000002000200000000010000000000000000000000000000000000000000000c000004000400000001030000000000000000000000000000000000000000000c0000040004000000000000000000000000000000000000000000000000000004020004000000000000000000000000000000000000000000000000000000000a0000000000000000027b0a8c0a0000000000000000000000000000000000000e00000000020000006101000000000000000000000000000000000000000000020000020001000000006000000000000000000000000000000000000000000007000000000000000003fc2b00000000000000000000000000000000000000000c000002000200000001ffffffffffffffffffffffffffffffff0000000000000c000002000200000000ffffffffffffffffffffffff000000000000000000000e000000000400000001040000000000000000000000000000000000000000001a040002000200000002000000000000000000000000000000000000000000000c000004000400000001000000000000000000000000000000000000000000000c000004000400000000000000000000000000000000ffffffff0000000000001a010004000400000002000000000000000000000000000000000000000000001a040002000200000004000000000000000000000000000000000000000000000e000002000000000000040000000000000000000000000000000000000000000e0000000000000000e10200000000000000000000000000000000000000000007000000000000000004000000000000000000000000000000000000000000000e0000000000000000e00200000000000000000000000000000000000000000004010000000000000000000000000000000000000000000000000000000000000a0000000000000000049f0a9d0a0000000000000000000000000000000000000e0000000000000000e10200000000000000000000000000000000000000000007000000000000000000000000000000000000000000000000000000000000000c000001000100000001000000000000000000000000000000000000000000000c000001000100000000000000000000000000000000a079c3080000000000000e000000000200000021020000000000000000000000000000000000000000000e0000020000000000600100000000000000000000000000000000000000000007000000000000000003242c00000000000000000000000000000000000000000e0000000002000000610100000000000000000000000000000000000000000002000002000200000000040000000000000000000000000000000000000000000c000001000100000001200000000000000000000000000000000000000000000c0000010001000000000000000000000000000000000000000000000000000007000000000000000003242c00000000000000000000000000000000000000000e0000000002000000610100000000000000000000000000000000000000000002000002000200000000240000000000000000000000000000000000000000000c0000010001000000011e0000000000000000000000000000000000000000000c0000010001000000000000000000000000000000000000000000000000000007000000000000000003242c00000000000000000000000000000000000000000e0000000002000000610100000000000000000000000000000000000000000002000002000200000000440000000000000000000000000000000000000000000c000001000100000001000045525554414e4749535f44494c410000000000000c000001000100000000564e49203a303243524570617773584400000000000007000000000000000003242c00000000000000000000000000000000000000000c000002000200000001640000000000000000000000000000000000000000000c000002000200000000000000000000000000000000000000000000000000000e000002000000000000000000000000000000000000000000000000000000000c000002000200000001000000000000000000000000000000000000000000000c000002000200000000000000000000000000000000000000000000000000000e0000020000000000600300000000000000000000000000000000000000000018000002000400000000050000000000000000000000000000000000000000000e000004000000000060020000000000000000000000000000000000000000000e00000000020000006101000000000000000000000000000000000000000000020200040001000000000000000000000000000000000000000000000000000007000000000000000003fc2b00000000000000000000000000000000000000000c000002000200000001200000000000000000000000000000000000000000000c000002000200000000000000000000000000000000000000000000000000000e0000000004000000610200000000000000000000000000000000000000000008040002000200000000000000000000000000000000000000000000000000000e020001000000000000010000000000000000000000000000000000000000000e0000000002000000610300000000000000000000000000000000000000000002000002000200000000010000000000000000000000000000000000000000000c000004000400000001030000000000000000000000000000000000000000000c0000040004000000000000000000000000000000000000000000000000000004020004000000000000000000000000000000000000000000000000000000000a000000000000000002b80ac90a0000000000000000000000000000000000000e00000000020000006101000000000000000000000000000000000000000000020000020001000000006000000000000000000000000000000000000000000007000000000000000003fc2b00000000000000000000000000000000000000000c000002000200000001ffffffffffffffffffffffffffffffff0000000000000c000002000200000000ffffffffffffffffffffffff000000000000000000000e000000000400000001040000000000000000000000000000000000000000001a040002000200000002000000000000000000000000000000000000000000000c000004000400000001000000000000000000000000000000000000000000000c000004000400000000000000000000000000000000ffffffff0000000000001a010004000400000002000000000000000000000000000000000000000000001a040002000200000004000000000000000000000000000000000000000000000e000002000000000000040000000000000000000000000000000000000000000e0000000000000000e10200000000000000000000000000000000000000000007000000000000000004000000000000000000000000000000000000000000000e0000000000000000e00d0000000000000000000000000000000000000000000e000040000000000060050000000000000000000000000000000000000000000e000020000000000060040000000000000000000000000000000000000000000e000010000000000060030000000000000000000000000000000000000000000e000004000000000060090000000000000000000000000000000000000000000e000002000000000060080000000000000000000000000000000000000000000e0000010000000000600a00000000000000000000000000000000000000000014000000000400000000020000000000000000000000000000000000000000000c000002000200000001010000000000000000000000000000000000000000000c000002000200000000000000000000000000000000000000000000000000000e0000080000000000600d00000000000000000000000000000000000000000004040008000000000000000000000000000000000000000000000000000000000a000000000000000006e60ae40a0000000000000000000000000000000000000c000002000200000001000000000000000000000000000000000000000000000c000002000200000000000000000000000000000000000000000000000000001a00000200010000000201000000000000000000000000000000000000000000070000000000000000035d0a00000000000000000000000000000000000000000a000000000000000002e90aea0a0000000000000000000000000000000000000a000000000000000001300d300d0000000000000000000000000000000000000c000002000200000001ffffffffffffffffffffffffffffffff0000000000000c000002000200000000ffffffff0000000000000000000000000000000000000e0000000004000000610a0000000000000000000000000000000000000000001a040002000400000002000000000000000000000000000000000000000000000c000002000200000001030000000000000000000000000000000000000000000c0000020002000000000000000000000000000000000000000000000000000005020000000200000001000000000000000000000000000000000000000000000e000002000000000060020000000000000000000000000000000000000000000e000004000000000060070000000000000000000000000000000000000000000e000004000000000020000000000000000000000000000000000000000000000c000002000200000001040000000000000000000000000000000000000000000c000002000200000000000000000000000000000000000000000000000000000e0000020000000000200100000000000000000000000000000000000000000010000000000000000000000000000000000000000000000000000000000000000c000002000200000001400000000000000000000000000000000000000000000c000002000200000000000000000000000000000000000000000000000000000e000002000000000040000000000000000000000000000000000000000000000c000002000200000001000000000000000000000000000000000000000000000c000002000200000000000000000000000000000000000000000000000000000c000004000400000001200000000000000000000000000000000000000000000c000004000400000000000000000000000000000000000000000000000000000c000008000800000001020000000000000000000000000000000000000000000c00000800080000000000000000000000000000000000000000000000000000180000020010000000000500000000000000000000000000000000000000000008100004001000000000000000000000000000000000000000000000000000000e100000002000000021000000000000000000000000000000000000000000000e10002000000000004001000000000000000000000000000000000000000000020000020002000000000100000000000000000000000000000000000000000004020008000000000000000000000000000000000000000000000000000000000a000000000000000002010b080b0000000000000000000000000000000000000c00000100010000000100000000ff03000000000000000000000000000000000c0000010001000000000000000000000000000000000000000000000000000007000000000000000003432c00000000000000000000000000000000000000000e0000000002000000410100000000000000000000000000000000000000000005020000000800000001000000000000000000000000000000000000000000000c000004000400000001ffffffffffffffffffffffffffffffff0000000000000c000004000400000000ffffffffffffffffffffffffffffffff00000000000004080004000000000000000000000000000000000000000000000000000000000a0000000000000000043f0c110b000000000000000000000000000000000000020000080004000000000100000000000000000000000000000000000000000005020004000000000000000000000000000000000000000000000000000000000e000000000200000021020000000000000000000000000000000000000000000e0000020000000000600e00000000000000000000000000000000000000000002000002000200000000200000000000000000000000000000000000000000000c000001000100000001c926615d84649c164a112601aefaa25f0000000000000c0000010001000000001010ef0f37601f4d7fb9b112aeed716e0000000000000e0000020000000000600c0000000000000000000000000000000000000000000e0000080000000000600b00000000000000000000000000000000000000000007000000000000000003242c00000000000000000000000000000000000000000e0000000002000000610e00000000000000000000000000000000000000000002000002000200000000400000000000000000000000000000000000000000000e0000000001000000610700000000000000000000000000000000000000000007000000000000000003242c00000000000000000000000000000000000000000c000002000200000001ffffffffffffffffffffffffffffffff0000000000000c000002000200000000ffffffff0000000000000000000000000000000000000e000000000400000061080000000000000000000000000000000000000000001a040002000100000002000000000000000000000000000000000000000000000e0000000002000000610e000000000000000000000000000000000000000000020000020002000000006000000000000000000000000000000000000000000007000000000000000003242c00000000000000000000000000000000000000000e0000000002000000610e00000000000000000000000000000000000000000002000002000200000000800000000000000000000000000000000000000000000e0000000001000000610900000000000000000000000000000000000000000007000000000000000003242c00000000000000000000000000000000000000000e0000000002000000610e00000000000000000000000000000000000000000002000002000200000000a00000000000000000000000000000000000000000000e0000000001000000610b00000000000000000000000000000000000000000007000000000000000003242c00000000000000000000000000000000000000000e0000000002000000610e00000000000000000000000000000000000000000002000002000200000000c00000000000000000000000000000000000000000000e0000000001000000610d00000000000000000000000000000000000000000007000000000000000003242c00000000000000000000000000000000000000000c000001000100000001c00000000000000000000000000000000000000000000c000001000100000000000000000000000000000000000000000000000000000e0000000002000000610e00000000000000000000000000000000000000000007000000000000000003242c00000000000000000000000000000000000000000e0000000008000000610e0000000000000000000000000000000000000000000c0000020002000000011fffffffffffffffffffffffffffffff0000000000000c000002000200000000ffffffffffffffffffffffffffffffff00000000000004080002000000000000000000000000000000000000000000000000000000000a0000000000000000085e0c3b0b00000000000000000000000000000000000002000008000200000000e00000000000000000000000000000000000000000000c000004000400000001ffffffffffffffff00000000000000000000000000000c0000040004000000000000000000000000000000000000000000000000000004020004000000000000000000000000000000000000000000000000000000000a0000000000000000085e0c400b0000000000000000000000000000000000000e00000200000000002002000000000000000000000000000000000000000000020800000001000000000000000000000000000000000000000000000000000007000000000000000003fc2b00000000000000000000000000000000000000000c000008000800000001000000000000000000000000000000000000000000000c0000080008000000000000000000000000000000000000000000000000000002010000000400000000000000000000000000000000000000000000000000001a0000040002000000021f0000000000000000000000000000000000000000000e0000020000000000600600000000000000000000000000000000000000000010000000000000000000000000000000000000000000000000000000000000000e000004000000000040000000000000000000000000000000000000000000000e0000040000000000600100000000000000000000000000000000000000000018000004000200000002050000000000000000000000000000000000000000000e0000000004000000610c0000000000000000000000000000000000000000000e0000020000000000600b00000000000000000000000000000000000000000004020000000000000000000000000000000000000000000000000000000000000a000000000000000004600b500b0000000000000000000000000000000000000e0000080000000000600e00000000000000000000000000000000000000000018000008000400000000050000000000000000000000000000000000000000000e0000040000000000600d0000000000000000000000000000000000000000000e0000000002000000610c000000000000000000000000000000000000000000020200040001000000000000000000000000000000000000000000000000000007000000000000000003fc2b00000000000000000000000000000000000000000e0000000008000000610e0000000000000000000000000000000000000000000c000002000200000001200000000000000000000000000000000000000000000c000002000200000000000000000000000000000000000000000000000000000e0000000004000000610d00000000000000000000000000000000000000000008040002000200000000000000000000000000000000000000000000000000000e0200010000000000400100000000000000000000000000000000000000000002000008000800000000010000000000000000000000000000000000000000000e0000000002000000610b00000000000000000000000000000000000000000004080002000000000000000000000000000000000000000000000000000000000a000000000000000002500b600b0000000000000000000000000000000000000e0000000004000000610c0000000000000000000000000000000000000000000e0000000002000000610600000000000000000000000000000000000000000004020000000000000000000000000000000000000000000000000000000000000a0000000000000000047d0b640b0000000000000000000000000000000000000c000002000200000001e0ffffffffffffffffffffffffffffff0000000000000c000002000200000000ffffffffffffffffffffffffffffffff0000000000000e000000000800000061010000000000000000000000000000000000000000001a080002000200000002000000000000000000000000000000000000000000000e0000020000000000600e000000000000000000000000000000000000000000020400020001000000000000000000000000000000000000000000000000000007000000000000000003fc2b00000000000000000000000000000000000000000c000002000200000001200000000000000000000000000000000000000000000c000002000200000000000000000000000000000000000000000000000000000e0000000004000000610e00000000000000000000000000000000000000000008040002000200000000000000000000000000000000000000000000000000000e0000000004000000610600000000000000000000000000000000000000000018000004000400000000030000000000000000000000000000000000000000000c000008000800000001ffffffffffffffffffffffffffffffff0000000000000c000008000800000000ffffffffffffffffffffffffffffffff00000000000018040008001000000002000000000000000000000000000000000000000000000e020000002000000041010000000000000000000000000000000000000000001a200010001000000002000000000000000000000000000000000000000000000c000020002000000001000100000000000000000000000000000000000000000c00002000200000000000000000000000000000000000000000000000000000042000040004000000000000000000000000000000000000000000000000000018040008000400000000000000000000000000000000000000000000000000001a010004000400000002000000000000000000000000000000000000000000001a040010000400000004000000000000000000000000000000000000000000000e020004000000000040010000000000000000000000000000000000000000000c00000100010000000100000000ff03000000000000000000000000000000000c0000010001000000000000000000000000000000000000000000000000000007000000000000000003432c00000000000000000000000000000000000000000e000000000200000021020000000000000000000000000000000000000000000e0000020000000000600e00000000000000000000000000000000000000000002000002000200000000200000000000000000000000000000000000000000000e000000000400000041010000000000000000000000000000000000000000000e0000040000000000600d0000000000000000000000000000000000000000000c000001000100000001000000000000000000000000000000000000000000000c000001000100000000000000000000000000000000000001190000000000000e0000020000000000600c00000000000000000000000000000000000000000007000000000000000003242c00000000000000000000000000000000000000000e0000000002000000610e00000000000000000000000000000000000000000002000002000200000000220000000000000000000000000000000000000000000e0000000001000000610200000000000000000000000000000000000000000007000000000000000003242c00000000000000000000000000000000000000000e0000000002000000610e00000000000000000000000000000000000000000002000002000200000000420000000000000000000000000000000000000000000e0000000001000000610d00000000000000000000000000000000000000000007000000000000000003242c00000000000000000000000000000000000000000c000001000100000001420000000000000000000000000000000000000000000c000001000100000000000000000000000000000000000000000000000000000e0000000002000000610e00000000000000000000000000000000000000000007000000000000000003242c00000000000000000000000000000000000000000e0000000008000000610e0000000000000000000000000000000000000000000c0000020002000000017fffffffffffffffffffffffffffffff0000000000000c000002000200000000ffffffffffffffffffffffffffffffff00000000000004080002000000000000000000000000000000000000000000000000000000000a0000000000000000087d0c9a0b00000000000000000000000000000000000002000008000200000000800000000000000000000000000000000000000000000c000004000400000001ffffffffffffffff00000000000000000000000000000c0000040004000000000000000000000000000000000000000000000000000004020004000000000000000000000000000000000000000000000000000000000a0000000000000000087d0c9f0b0000000000000000000000000000000000000e00000200000000002002000000000000000000000000000000000000000000020800000001000000000000000000000000000000000000000000000000000007000000000000000003fc2b00000000000000000000000000000000000000000c000008000800000001000000000000000000000000000000000000000000000c0000080008000000000000000000000000000000000000000000000000000002010000000400000000000000000000000000000000000000000000000000001a0000040002000000021f0000000000000000000000000000000000000000000e0000020000000000600600000000000000000000000000000000000000000010000000000000000000000000000000000000000000000000000000000000000e000004000000000040000000000000000000000000000000000000000000000e0000040000000000600200000000000000000000000000000000000000000018000004000200000002050000000000000000000000000000000000000000000e0000000004000000610c0000000000000000000000000000000000000000000e0000020000000000600b00000000000000000000000000000000000000000004020000000000000000000000000000000000000000000000000000000000000a000000000000000004bf0baf0b0000000000000000000000000000000000000e0000080000000000600e00000000000000000000000000000000000000000018000008000400000000050000000000000000000000000000000000000000000e0000040000000000600d0000000000000000000000000000000000000000000e0000000002000000610c000000000000000000000000000000000000000000020200040001000000000000000000000000000000000000000000000000000007000000000000000003fc2b00000000000000000000000000000000000000000e0000000008000000610e0000000000000000000000000000000000000000000c000002000200000001200000000000000000000000000000000000000000000c000002000200000000000000000000000000000000000000000000000000000e0000000004000000610d00000000000000000000000000000000000000000008040002000200000000000000000000000000000000000000000000000000000e0200010000000000400100000000000000000000000000000000000000000002000008000800000000010000000000000000000000000000000000000000000e0000000002000000610b00000000000000000000000000000000000000000004080002000000000000000000000000000000000000000000000000000000000a000000000000000002af0bbf0b0000000000000000000000000000000000000e0000000004000000610c0000000000000000000000000000000000000000000e0000000002000000610600000000000000000000000000000000000000000004020000000000000000000000000000000000000000000000000000000000000a000000000000000004dc0bc30b0000000000000000000000000000000000000c000002000200000001e0ffffffffffffffffffffffffffffff0000000000000c000002000200000000ffffffffffffffffffffffffffffffff0000000000000e000000000800000061020000000000000000000000000000000000000000001a080002000200000002000000000000000000000000000000000000000000000e0000020000000000600e000000000000000000000000000000000000000000020400020001000000000000000000000000000000000000000000000000000007000000000000000003fc2b00000000000000000000000000000000000000000c000002000200000001200000000000000000000000000000000000000000000c000002000200000000000000000000000000000000000000000000000000000e0000000004000000610e00000000000000000000000000000000000000000008040002000200000000000000000000000000000000000000000000000000000e0000000004000000610600000000000000000000000000000000000000000018000004000400000000030000000000000000000000000000000000000000000c000008000800000001ffffffffffffffffffffffffffffffff0000000000000c000008000800000000ffffffffffffffffffffffffffffffff00000000000018040008001000000002000000000000000000000000000000000000000000000e020000002000000041010000000000000000000000000000000000000000001a200010001000000002000000000000000000000000000000000000000000000c000020002000000001000100000000000000000000000000000000000000000c00002000200000000000000000000000000000000000000000000000000000042000040004000000000000000000000000000000000000000000000000000018040008000400000000000000000000000000000000000000000000000000001a010004000400000002000000000000000000000000000000000000000000001a040010000400000004000000000000000000000000000000000000000000000e020004000000000040010000000000000000000000000000000000000000000c00000100010000000100000000ff03000000000000000000000000000000000c0000010001000000000000000000000000000000000000000000000000000007000000000000000003432c00000000000000000000000000000000000000000e000000000100000041010000000000000000000000000000000000000000000e000000000200000021020000000000000000000000000000000000000000000e0000020000000000600c00000000000000000000000000000000000000000007000000000000000003242c00000000000000000000000000000000000000000e000000000200000061030000000000000000000000000000000000000000001a000002000100000002ff0000000000000000000000000000000000000000000e0000000002000000610c000000000000000000000000000000000000000000020000020002000000002000000000000000000000000000000000000000000007000000000000000003242c00000000000000000000000000000000000000000e0000000002000000610c00000000000000000000000000000000000000000002000002000200000000400000000000000000000000000000000000000000000e0000000001000000610400000000000000000000000000000000000000000007000000000000000003242c00000000000000000000000000000000000000000e0000000002000000610c00000000000000000000000000000000000000000002000002000200000000600000000000000000000000000000000000000000000e0000000001000000610500000000000000000000000000000000000000000007000000000000000003242c00000000000000000000000000000000000000000c000004000400000001000000000000000000000000000000000000000000000c000004000400000000000000000000000000000000000000000000000000000e0000040000000000200000000000000000000000000000000000000000000010000000000000000000000000000000000000000000000000000000000000000c000002000200000001800000000000000000000000000000000000000000000c000002000200000000000000000000000000000000000000000000000000000e000002000000000040000000000000000000000000000000000000000000000e0000040000000000600e00000000000000000000000000000000000000000018000004000400000000050000000000000000000000000000000000000000000e0000040000000000600d0000000000000000000000000000000000000000000e0000000002000000610c000000000000000000000000000000000000000000020200040001000000000000000000000000000000000000000000000000000007000000000000000003fc2b00000000000000000000000000000000000000000e0000000004000000610e0000000000000000000000000000000000000000000c000002000200000001200000000000000000000000000000000000000000000c000002000200000000000000000000000000000000000000000000000000000e0000000008000000610d00000000000000000000000000000000000000000008080002000200000000000000000000000000000000000000000000000000000e0200010000000000400100000000000000000000000000000000000000000002000004000400000000010000000000000000000000000000000000000000000c000002000200000001040000000000000000000000000000000000000000000c0000020002000000000000000000000000000000000000000000000000000004040002000000000000000000000000000000000000000000000000000000000a000000000000000002f70b080c0000000000000000000000000000000000000c000001000100000001000000000100000000000000000000000000000000000c0000010001000000000000000000000000000000000000000000000000000007000000000000000003432c00000000000000000000000000000000000000000c000004000400000001000000000000000000000000000000000000000000000c000004000400000000000000000000000000000000000000000000000000000c000002000200000001200000000000000000000000000000000000000000000c000002000200000000000000000000000000000000000000000000000000000a000000000000000001130c130c000000000000000000000000000000000000020800000004000000000000000000000000000000000000000000000000000004100000000000000000000000000000000000000000000000000000000000000a00000000000000000a130c1f0c000000000000000000000000000000000000180000040008000000000500000000000000000000000000000000000000000008080002000800000000000000000000000000000000000000000000000000000e080000001000000041010000000000000000000000000000000000000000000e0800100000000000200000000000000000000000000000000000000000000002000004000800000000010000000000000000000000000000000000000000000c000010001000000001010000000000000000000000000000000000000000000c0000100010000000000000000000000000000000000000000000000000000004080004000000000000000000000000000000000000000000000000000000000a000000000000000002100c1c0c0000000000000000000000000000000000000c000010001000000001000000000000000000000000000000000000000000000c000010001000000000000000000000000000000000000000000000000000000a000000000000000001100c100c00000000000000000000000000000000000004010000000000000000000000000000000000000000000000000000000000000a000000000000000004bd0c210c0000000000000000000000000000000000000c000002000200000001ffffffffffffffffffffffffffffffff0000000000000c000002000200000000ffffffff0000000000000000000000000000000000000e000000000400000021000000000000000000000000000000000000000000001a040002000800000002000000000000000000000000000000000000000000000c000002000200000001010000000000000000000000000000000000000000000c000002000200000000000000000000000000000000000000000000000000000c000004000400000001010000000000000000000000000000000000000000000c000004000400000000000000000000000000000000000000000000000000000e0000000010000000610700000000000000000000000000000000000000000004080010000000000000000000000000000000000000000000000000000000000a0000000000000000042e0c2c0c0000000000000000000000000000000000000c000004000400000001000000000000000000000000000000000000000000000c0000040004000000000000000000000000000000000000000000000000000004080000000000000000000000000000000000000000000000000000000000000a00000000000000000a320c300c0000000000000000000000000000000000000c000002000200000001000000000000000000000000000000000000000000000c000002000200000000000000000000000000000000000000000000000000001a020004000200000002000000000000000000000000000000000000000000001a00000200010000000201000000000000000000000000000000000000000000070000000000000000039a0a00000000000000000000000000000000000000000a000000000000000002360c370c0000000000000000000000000000000000000a000000000000000001300d300d0000000000000000000000000000000000000e0000000001000000610a0000000000000000000000000000000000000000000e000000000200000061080000000000000000000000000000000000000000000e0000000004000000610900000000000000000000000000000000000000000007000000000000000003930800000000000000000000000000000000000000000a0000000000000000023c0c3d0c0000000000000000000000000000000000000a000000000000000001300d300d0000000000000000000000000000000000000e0000000000000000e10d00000000000000000000000000000000000000000007000000000000000000000000000000000000000000000000000000000000000c000002000200000001000000000000000000000000000000000000000000000c000002000200000000000000000000000000000000717b484e0000000000000e000002000000000020000000000000000000000000000000000000000000000c000001000100000001110000000000000000000000000000000000000000000c000001000100000000000000000000000000000000000000000000000000000c000002000200000001040000000000000000000000000000000000000000000c0000020002000000000000000000000000000000000000000000000000000007000000000000000003242c00000000000000000000000000000000000000000c000002000200000001240000000000000000000000000000000000000000000c000002000200000000000000000000000000000000000000000000000000000e000002000000000000000000000000000000000000000000000000000000000c000004000400000001000000000000000000000000000000000000000000000c000004000400000000000000000000000000000000000000000000000000000c000002000200000001200000000000000000000000000000000000000000000c000002000200000000000000000000000000000000000000000000000000000a000000000000000001520c520c000000000000000000000000000000000000020800000004000000000000000000000000000000000000000000000000000004100000000000000000000000000000000000000000000000000000000000000a00000000000000000a520c9c0c000000000000000000000000000000000000180000040008000000000500000000000000000000000000000000000000000008080002000800000000000000000000000000000000000000000000000000000e080000001000000021000000000000000000000000000000000000000000000e0800100000000000000100000000000000000000000000000000000000000002000004000800000000010000000000000000000000000000000000000000000c000010001000000001010000000000000000000000000000000000000000000c0000100010000000000000000000000000000000000000000000000000000004080004000000000000000000000000000000000000000000000000000000000a0000000000000000024f0c5b0c0000000000000000000000000000000000000c000010001000000001000000000000000000000000000000000000000000000c000010001000000000000000000000000000000000000000000000000000000a0000000000000000014f0c4f0c0000000000000000000000000000000000000c000002000200000001000000000000000000000000000000000000000000000c000002000200000000000000000000000000000000717b484e0000000000000e000002000000000020000000000000000000000000000000000000000000000c000001000100000001410000000000000000000000000000000000000000000c000001000100000000000000000000000000000000000000000000000000000c000002000200000001040000000000000000000000000000000000000000000c0000020002000000000000000000000000000000000000000000000000000007000000000000000003242c00000000000000000000000000000000000000000c000002000200000001240000000000000000000000000000000000000000000c000002000200000000000000000000000000000000000000000000000000000e000002000000000000000000000000000000000000000000000000000000000c000004000400000001000000000000000000000000000000000000000000000c000004000400000000000000000000000000000000000000000000000000000c000002000200000001200000000000000000000000000000000000000000000c000002000200000000000000000000000000000000000000000000000000000a000000000000000001710c710c000000000000000000000000000000000000020800000004000000000000000000000000000000000000000000000000000004100000000000000000000000000000000000000000000000000000000000000a00000000000000000a710ca70c000000000000000000000000000000000000180000040008000000000500000000000000000000000000000000000000000008080002000800000000000000000000000000000000000000000000000000000e080000001000000021000000000000000000000000000000000000000000000e0800100000000000000100000000000000000000000000000000000000000002000004000800000000010000000000000000000000000000000000000000000c000010001000000001010000000000000000000000000000000000000000000c0000100010000000000000000000000000000000000000000000000000000004080004000000000000000000000000000000000000000000000000000000000a0000000000000000026e0c7a0c0000000000000000000000000000000000000c000010001000000001000000000000000000000000000000000000000000000c000010001000000000000000000000000000000000000000000000000000000a0000000000000000016e0c6e0c0000000000000000000000000000000000000c000002000200000001000000000000000000000000000000000000000000000c000002000200000000000000000000000000000000717b484e0000000000000e000002000000000020000000000000000000000000000000000000000000000c000001000100000001410000000000000000000000000000000000000000000c000001000100000000000000000000000000000000000000000000000000000c000002000200000001040000000000000000000000000000000000000000000c0000020002000000000000000000000000000000000000000000000000000007000000000000000003242c00000000000000000000000000000000000000000c000002000200000001240000000000000000000000000000000000000000000c000002000200000000000000000000000000000000000000000000000000000e000002000000000000000000000000000000000000000000000000000000000c000004000400000001000000000000000000000000000000000000000000000c000004000400000000000000000000000000000000000000000000000000000c000002000200000001200000000000000000000000000000000000000000000c000002000200000000000000000000000000000000000000000000000000000a000000000000000001900c900c000000000000000000000000000000000000020800000004000000000000000000000000000000000000000000000000000004100000000000000000000000000000000000000000000000000000000000000a00000000000000000a900cb20c000000000000000000000000000000000000180000040008000000000500000000000000000000000000000000000000000008080002000800000000000000000000000000000000000000000000000000000e080000001000000021000000000000000000000000000000000000000000000e0800100000000000000100000000000000000000000000000000000000000002000004000800000000010000000000000000000000000000000000000000000c000010001000000001010000000000000000000000000000000000000000000c0000100010000000000000000000000000000000000000000000000000000004080004000000000000000000000000000000000000000000000000000000000a0000000000000000028d0c990c0000000000000000000000000000000000000c000010001000000001000000000000000000000000000000000000000000000c000010001000000000000000000000000000000000000000000000000000000a0000000000000000018d0c8d0c0000000000000000000000000000000000000c000002000200000001ffffffffffffffffffffffffffffffff0000000000000c000002000200000000ffffffffffffffffffffffff000000000000000000000e000000000400000001020000000000000000000000000000000000000000001a040002000200000002000000000000000000000000000000000000000000000c000004000400000001000000000000000000000000000000000000000000000c000004000400000000000000000000000000000000ffffffff0000000000000e000000000800000021010000000000000000000000000000000000000000001a080004000400000002000000000000000000000000000000000000000000001a040002000200000004000000000000000000000000000000000000000000000e000002000000000000020000000000000000000000000000000000000000000a000000000000000001300d300d0000000000000000000000000000000000000c000002000200000001ffffffffffffffffffffffffffffffff0000000000000c000002000200000000ffffffffffffffffffffffff000000000000000000000e000000000400000001020000000000000000000000000000000000000000001a040002000200000002000000000000000000000000000000000000000000000c000004000400000001000000000000000000000000000000000000000000000c000004000400000000000000000000000000000000ffffffff0000000000000e000000000800000021010000000000000000000000000000000000000000001a080004000400000002000000000000000000000000000000000000000000001a040002000200000004000000000000000000000000000000000000000000000e000002000000000000020000000000000000000000000000000000000000000a000000000000000001300d300d0000000000000000000000000000000000000c000002000200000001ffffffffffffffffffffffffffffffff0000000000000c000002000200000000ffffffffffffffffffffffff000000000000000000000e000000000400000001020000000000000000000000000000000000000000001a040002000200000002000000000000000000000000000000000000000000000c000004000400000001000000000000000000000000000000000000000000000c000004000400000000000000000000000000000000ffffffff0000000000000e000000000800000021010000000000000000000000000000000000000000001a080004000400000002000000000000000000000000000000000000000000001a040002000200000004000000000000000000000000000000000000000000000e000002000000000000020000000000000000000000000000000000000000000a000000000000000001300d300d0000000000000000000000000000000000000c000008000800000001000000000000000000000000000000000000000000000c000008000800000000000000000000000000000000000000000000000000000e000000000200000021020000000000000000000000000000000000000000000e0000020000000000600e0000000000000000000000000000000000000000000e000000000200000041000000000000000000000000000000000000000000001a0000020004000000021f0000000000000000000000000000000000000000000e0000040000000000600b0000000000000000000000000000000000000000001a000002000200000002e0ffffff0000000000000000000000000000000000000e0000020000000000600a00000000000000000000000000000000000000000018000002000200000002050000000000000000000000000000000000000000000e0000020000000000600c00000000000000000000000000000000000000000004020000000000000000000000000000000000000000000000000000000000000a000000000000000004d80cca0c0000000000000000000000000000000000000e0000080000000000600d00000000000000000000000000000000000000000018000008000400000000050000000000000000000000000000000000000000000e0000000002000000610e00000000000000000000000000000000000000000002020004000200000000000000000000000000000000000000000000000000000c000008000800000001200000000000000000000000000000000000000000000c0000080008000000000000000000000000000000000000000000000000000008040008000400000000000000000000000000000000000000000000000000000e0400000001000000410100000000000000000000000000000000000000000007000000000000000003242c00000000000000000000000000000000000000000e0000000008000000610d00000000000000000000000000000000000000000002000008000800000000010000000000000000000000000000000000000000000e0000000002000000610c00000000000000000000000000000000000000000004080002000000000000000000000000000000000000000000000000000000000a000000000000000002ca0cd80c0000000000000000000000000000000000000e0000000002000000610e0000000000000000000000000000000000000000000e0000000002000000610b00000000000000000000000000000000000000000004020000000000000000000000000000000000000000000000000000000000000a000000000000000004f80cdc0c0000000000000000000000000000000000000e0000000002000000610b00000000000000000000000000000000000000000018000002000200000000030000000000000000000000000000000000000000000c000004000400000001000100000000000000000000000000000000000000000c0000040004000000000000000000000000000000000000000000000000000004040002000400000000000000000000000000000000000000000000000000000c000008000800000001ffffffffffffffffffffffffffffffff0000000000000c000008000800000000ffffffffffffffffffffffffffffffff00000000000018040008000400000000000000000000000000000000000000000000000000000c000010001000000001200000000000000000000000000000000000000000000c000010001000000000000000000000000000000000000000000000000000000e0000000020000000610a00000000000000000000000000000000000000000008200010001000000000000000000000000000000000000000000000000000000e100000001000000041010000000000000000000000000000000000000000001a100004000400000002000000000000000000000000000000000000000000000e0000040000000000600d00000000000000000000000000000000000000000018020008000200000002000000000000000000000000000000000000000000000e0000020000000000600b0000000000000000000000000000000000000000000e0000000002000000610e00000000000000000000000000000000000000000002020020000200000000000000000000000000000000000000000000000000000e0000020000000000600c000000000000000000000000000000000000000000020200000001000000000000000000000000000000000000000000000000000007000000000000000003fc2b00000000000000000000000000000000000000000e0000000002000000610b0000000000000000000000000000000000000000001a010002000200000002000000000000000000000000000000000000000000000e0000000004000000610d0000000000000000000000000000000000000000001a040002000100000004000000000000000000000000000000000000000000000e0000000002000000610c00000000000000000000000000000000000000000007000000000000000003242c00000000000000000000000000000000000000000c000008000800000001000000000000000000000000000000000000000000000c000008000800000000000000000000000000000000000000000000000000000e000000000400000041000000000000000000000000000000000000000000001a0000040002000000021f0000000000000000000000000000000000000000000e0000020000000000600a0000000000000000000000000000000000000000000e000004000000000060090000000000000000000000000000000000000000001a000004000200000002ffffffff0000000000000000000000000000000000000e0000020000000000000000000000000000000000000000000000000000000018000002000200000002050000000000000000000000000000000000000000000e0000000004000000610e0000000000000000000000000000000000000000000e0000020000000000600b00000000000000000000000000000000000000000004020000000000000000000000000000000000000000000000000000000000000a000000000000000004150d050d0000000000000000000000000000000000000e0000080000000000600d00000000000000000000000000000000000000000018000008000400000000050000000000000000000000000000000000000000000e0000040000000000600c0000000000000000000000000000000000000000000e0000000002000000610e000000000000000000000000000000000000000000020200040001000000000000000000000000000000000000000000000000000007000000000000000003fc2b00000000000000000000000000000000000000000e0000000008000000610d0000000000000000000000000000000000000000000c000002000200000001200000000000000000000000000000000000000000000c000002000200000000000000000000000000000000000000000000000000000e0000000004000000610c00000000000000000000000000000000000000000008040002000200000000000000000000000000000000000000000000000000000e0200010000000000000100000000000000000000000000000000000000000002000008000800000000010000000000000000000000000000000000000000000e0000000002000000610b00000000000000000000000000000000000000000004080002000000000000000000000000000000000000000000000000000000000a000000000000000002050d150d0000000000000000000000000000000000000e0000000002000000610a00000000000000000000000000000000000000000004020000000000000000000000000000000000000000000000000000000000000a000000000000000004300d180d0000000000000000000000000000000000000e000000000200000061090000000000000000000000000000000000000000001a000002000400000002e0ffffff0000000000000000000000000000000000000e0000040000000000600d0000000000000000000000000000000000000000000e0000000002000000610e000000000000000000000000000000000000000000020200040001000000000000000000000000000000000000000000000000000007000000000000000003fc2b00000000000000000000000000000000000000000c000002000200000001200000000000000000000000000000000000000000000c000002000200000000000000000000000000000000000000000000000000000e0000000004000000610d00000000000000000000000000000000000000000008040002000200000000000000000000000000000000000000000000000000000e0000000004000000610a00000000000000000000000000000000000000000018000004000400000000030000000000000000000000000000000000000000000c000008000800000001ffffffffffffffffffffffffffffffff0000000000000c000008000800000000ffffffffffffffffffffffffffffffff00000000000018040008001000000002000000000000000000000000000000000000000000000e020000002000000001010000000000000000000000000000000000000000001a200010001000000002000000000000000000000000000000000000000000000c000020002000000001000100000000000000000000000000000000000000000c00002000200000000000000000000000000000000000000000000000000000042000040004000000000000000000000000000000000000000000000000000018040008000400000000000000000000000000000000000000000000000000001a010004000400000002000000000000000000000000000000000000000000001a040010000400000004000000000000000000000000000000000000000000000e020004000000000000010000000000000000000000000000000000000000000e0000000000000000e10d00000000000000000000000000000000000000000007000000000000000004000000000000000000000000000000000000000000000e0000000000000000e00200000000000000000000000000000000000000000004010000000000000000000000000000000000000000000000000000000000000a000000000000000004370d350d0000000000000000000000000000000000000e0000000000000000e10200000000000000000000000000000000000000000007000000000000000000000000000000000000000000000000000000000000000c000001000100000001000000000000000000000000000000000000000000000c000001000100000000000000000000000000000000a079c3080000000000000e000000000200000021020000000000000000000000000000000000000000000e0000020000000000600100000000000000000000000000000000000000000007000000000000000003242c00000000000000000000000000000000000000000e0000000002000000610100000000000000000000000000000000000000000002000002000200000000040000000000000000000000000000000000000000000c000001000100000001200000000000000000000000000000000000000000000c0000010001000000000000000000000000000000000000000000000000000007000000000000000003242c00000000000000000000000000000000000000000e0000000002000000610100000000000000000000000000000000000000000002000002000200000000240000000000000000000000000000000000000000000c000001000100000001150000000000000000000000000000000000000000000c0000010001000000000000000000000000000000000000000000000000000007000000000000000003242c00000000000000000000000000000000000000000e0000000002000000610100000000000000000000000000000000000000000002000002000200000000440000000000000000000000000000000000000000000c00000100010000000100000000000000000000004e454444490000000000000c00000100010000000042524f46203a7269615070617773584400000000000007000000000000000003242c00000000000000000000000000000000000000000c000002000200000001640000000000000000000000000000000000000000000c000002000200000000000000000000000000000000000000000000000000000e000002000000000000000000000000000000000000000000000000000000000c000002000200000001000000000000000000000000000000000000000000000c000002000200000000000000000000000000000000000000000000000000000e0000020000000000600300000000000000000000000000000000000000000018000002000400000000050000000000000000000000000000000000000000000e000004000000000060020000000000000000000000000000000000000000000e00000000020000006101000000000000000000000000000000000000000000020200040001000000000000000000000000000000000000000000000000000007000000000000000003fc2b00000000000000000000000000000000000000000c000002000200000001200000000000000000000000000000000000000000000c000002000200000000000000000000000000000000000000000000000000000e0000000004000000610200000000000000000000000000000000000000000008040002000200000000000000000000000000000000000000000000000000000e020001000000000000010000000000000000000000000000000000000000000e0000000002000000610300000000000000000000000000000000000000000002000002000200000000010000000000000000000000000000000000000000000c000004000400000001030000000000000000000000000000000000000000000c0000040004000000000000000000000000000000000000000000000000000004020004000000000000000000000000000000000000000000000000000000000a000000000000000002500d610d0000000000000000000000000000000000000e00000000020000006101000000000000000000000000000000000000000000020000020001000000006000000000000000000000000000000000000000000007000000000000000003fc2b00000000000000000000000000000000000000000c000002000200000001ffffffffffffffffffffffffffffffff0000000000000c000002000200000000ffffffffffffffffffffffff000000000000000000000e000000000400000001040000000000000000000000000000000000000000001a040002000200000002000000000000000000000000000000000000000000000c000004000400000001000000000000000000000000000000000000000000000c000004000400000000000000000000000000000000ffffffff0000000000001a010004000400000002000000000000000000000000000000000000000000001a040002000200000004000000000000000000000000000000000000000000000e000002000000000000040000000000000000000000000000000000000000000e0000000000000000e10200000000000000000000000000000000000000000007000000000000000004000000000000000000000000000000000000000000000e0000000000000000e0010000000000000000000000000000000000000000000e000002000000000060020000000000000000000000000000000000000000000e000001000000000060010000000000000000000000000000000000000000000c000002000200000001050000000000000000000000000000000000000000000c0000020002000000000000000000000000000000000000000000000000000005020000000200000001000000000000000000000000000000000000000000000c000004000400000001ffffffffffffffffffffffffffffffff0000000000000c000004000400000000ffffffff0000000000000000000000000000000000001a0200040004000000020000000000000000000000000000000000000000000014000000000800000000000000000000000000000000000000000000000000000c000002000200000001010000000000000000000000000000000000000000000c0000020002000000000000000000000000000000000000000000000000000004080004000000000000000000000000000000000000000000000000000000000a0000000000000000047f0d7d0d0000000000000000000000000000000000000c000002000200000001000000000000000000000000000000000000000000000c000002000200000000000000000000000000000000000000000000000000001a0000020001000000020100000000000000000000000000000000000000000007000000000000000003320d00000000000000000000000000000000000000000a000000000000000002980d820d0000000000000000000000000000000000000c000002000200000001ffffffffffffffffffffffffffffffff0000000000000c000002000200000000ffffffff0000000000000000000000000000000000000e000000000400000061010000000000000000000000000000000000000000001a040002000400000002000000000000000000000000000000000000000000000c000008000800000001060000000000000000000000000000000000000000000c0000080008000000000000000000000000000000000000000000000000000005080000001000000001000000000000000000000000000000000000000000000c000020002000000001000000000000000000000000000000000000000000000c00002000200000000000000000ffffffffffffffffffffffff0000000000001a100020001000000002000000000000000000000000000000000000000000001a1000040004000000040000000000000000000000000000000000000000000005080004000000000000000000000000000000000000000000000000000000000e000000000400000061020000000000000000000000000000000000000000001a040002000200000002000000000000000000000000000000000000000000000c000004000400000001070000000000000000000000000000000000000000000c0000040004000000000000000000000000000000000000000000000000000005040000000800000001000000000000000000000000000000000000000000001a080020000800000002000000000000000000000000000000000000000000001a0800020002000000040000000000000000000000000000000000000000000005040002000000000000000000000000000000000000000000000000000000000e0000000000000000e10100000000000000000000000000000000000000000007000000000000000000000000000000000000000000000000000000000000000e0000000000000000e10100000000000000000000000000000000000000000007000000000000000004000000000000000000000000000000000000000000000e0000000000000000e0020000000000000000000000000000000000000000000e000001000000000060030000000000000000000000000000000000000000000c000002000200000001050000000000000000000000000000000000000000000c0000020002000000000000000000000000000000000000000000000000000005020000000200000001000000000000000000000000000000000000000000000c000004000400000001ffffffffffffffffffffffffffffffff0000000000000c000004000400000000ffffffff0000000000000000000000000000000000001a0200040004000000020000000000000000000000000000000000000000000014000000000800000000000000000000000000000000000000000000000000000c000002000200000001010000000000000000000000000000000000000000000c0000020002000000000000000000000000000000000000000000000000000004080004000000000000000000000000000000000000000000000000000000000a000000000000000004a90da70d0000000000000000000000000000000000000c000002000200000001000000000000000000000000000000000000000000000c000002000200000000000000000000000000000000000000000000000000001a0000020001000000020100000000000000000000000000000000000000000007000000000000000003320d00000000000000000000000000000000000000000a000000000000000002bc0dac0d0000000000000000000000000000000000000e000000000200000061030000000000000000000000000000000000000000001a000002000200000002ffffffff0000000000000000000000000000000000000c000004000400000001e80300000000000000000000000000000000000000000c0000040004000000000000000000000000000000000000000000000000000004020004000000000000000000000000000000000000000000000000000000000a000000000000000006b20dbe0d0000000000000000000000000000000000000c0000040004000000010c0000000000000000000000000000000000000000000c0000040004000000000000000000000000000000000000000000000000000005040000000800000001000000000000000000000000000000000000000000000c00001000100000000100000000ffffffffffffffffffffffff0000000000000c000010001000000000ffffffffffffffffffffffffffffffff0000000000001a080010000800000002000000000000000000000000000000000000000000001a0800020002000000040000000000000000000000000000000000000000000005040002000000000000000000000000000000000000000000000000000000000e0000000000000000e10200000000000000000000000000000000000000000007000000000000000000000000000000000000000000000000000000000000000e0000000000000000e10200000000000000000000000000000000000000000007000000000000000004000000000000000000000000000000000000000000000c000001000100000001000000000000000000000000000000000000000000000c000001000100000000000000000000000000000000a079c3080000000000000e000000000200000021020000000000000000000000000000000000000000000e0000020000000000600100000000000000000000000000000000000000000007000000000000000003242c00000000000000000000000000000000000000000e0000000002000000610100000000000000000000000000000000000000000002000002000200000000040000000000000000000000000000000000000000000c000001000100000001200000000000000000000000000000000000000000000c0000010001000000000000000000000000000000000000000000000000000007000000000000000003242c00000000000000000000000000000000000000000e0000000002000000610100000000000000000000000000000000000000000002000002000200000000240000000000000000000000000000000000000000000c000001000100000001190000000000000000000000000000000000000000000c0000010001000000000000000000000000000000000000000000000000000007000000000000000003242c00000000000000000000000000000000000000000e0000000002000000610100000000000000000000000000000000000000000002000002000200000000440000000000000000000000000000000000000000000c000001000100000001000000000000004545465f4e454444490000000000000c00000100010000000042524f46203a7269615070617773584400000000000007000000000000000003242c00000000000000000000000000000000000000000c000002000200000001640000000000000000000000000000000000000000000c000002000200000000000000000000000000000000000000000000000000000e000002000000000000000000000000000000000000000000000000000000000c000002000200000001000000000000000000000000000000000000000000000c000002000200000000000000000000000000000000000000000000000000000e0000020000000000600300000000000000000000000000000000000000000018000002000400000000050000000000000000000000000000000000000000000e000004000000000060020000000000000000000000000000000000000000000e00000000020000006101000000000000000000000000000000000000000000020200040001000000000000000000000000000000000000000000000000000007000000000000000003fc2b00000000000000000000000000000000000000000c000002000200000001200000000000000000000000000000000000000000000c000002000200000000000000000000000000000000000000000000000000000e0000000004000000610200000000000000000000000000000000000000000008040002000200000000000000000000000000000000000000000000000000000e020001000000000000010000000000000000000000000000000000000000000e0000000002000000610300000000000000000000000000000000000000000002000002000200000000010000000000000000000000000000000000000000000c000004000400000001030000000000000000000000000000000000000000000c0000040004000000000000000000000000000000000000000000000000000004020004000000000000000000000000000000000000000000000000000000000a000000000000000002d70de80d0000000000000000000000000000000000000e00000000020000006101000000000000000000000000000000000000000000020000020001000000006000000000000000000000000000000000000000000007000000000000000003fc2b00000000000000000000000000000000000000000c000002000200000001ffffffffffffffffffffffffffffffff0000000000000c000002000200000000ffffffffffffffffffffffff000000000000000000000e000000000400000001040000000000000000000000000000000000000000001a040002000200000002000000000000000000000000000000000000000000000c000004000400000001000000000000000000000000000000000000000000000c000004000400000000000000000000000000000000ffffffff0000000000001a010004000400000002000000000000000000000000000000000000000000001a040002000200000004000000000000000000000000000000000000000000000e000002000000000000040000000000000000000000000000000000000000000e0000000000000000e10200000000000000000000000000000000000000000007000000000000000004000000000000000000000000000000000000000000000e0000000000000000e00200000000000000000000000000000000000000000004010000000000000000000000000000000000000000000000000000000000000a000000000000000004fb0df90d0000000000000000000000000000000000000e0000000000000000e10200000000000000000000000000000000000000000007000000000000000000000000000000000000000000000000000000000000000c000001000100000001000000000000000000000000000000000000000000000c000001000100000000000000000000000000000000a079c3080000000000000e000000000200000021020000000000000000000000000000000000000000000e0000020000000000600100000000000000000000000000000000000000000007000000000000000003242c00000000000000000000000000000000000000000e0000000002000000610100000000000000000000000000000000000000000002000002000200000000040000000000000000000000000000000000000000000c000001000100000001200000000000000000000000000000000000000000000c0000010001000000000000000000000000000000000000000000000000000007000000000000000003242c00000000000000000000000000000000000000000e0000000002000000610100000000000000000000000000000000000000000002000002000200000000240000000000000000000000000000000000000000000c000001000100000001120000000000000000000000000000000000000000000c0000010001000000000000000000000000000000000000000000000000000007000000000000000003242c00000000000000000000000000000000000000000e0000000002000000610100000000000000000000000000000000000000000002000002000200000000440000000000000000000000000000000000000000000c000001000100000001000000000000000000000000000044450000000000000c0000010001000000004b434f4c203a7269615070617773584400000000000007000000000000000003242c00000000000000000000000000000000000000000c000002000200000001640000000000000000000000000000000000000000000c000002000200000000000000000000000000000000000000000000000000000e000002000000000000000000000000000000000000000000000000000000000c000002000200000001000000000000000000000000000000000000000000000c000002000200000000000000000000000000000000000000000000000000000e0000020000000000600300000000000000000000000000000000000000000018000002000400000000050000000000000000000000000000000000000000000e000004000000000060020000000000000000000000000000000000000000000e00000000020000006101000000000000000000000000000000000000000000020200040001000000000000000000000000000000000000000000000000000007000000000000000003fc2b00000000000000000000000000000000000000000c000002000200000001200000000000000000000000000000000000000000000c000002000200000000000000000000000000000000000000000000000000000e0000000004000000610200000000000000000000000000000000000000000008040002000200000000000000000000000000000000000000000000000000000e020001000000000000010000000000000000000000000000000000000000000e0000000002000000610300000000000000000000000000000000000000000002000002000200000000010000000000000000000000000000000000000000000c000004000400000001030000000000000000000000000000000000000000000c0000040004000000000000000000000000000000000000000000000000000004020004000000000000000000000000000000000000000000000000000000000a000000000000000002140e250e0000000000000000000000000000000000000e00000000020000006101000000000000000000000000000000000000000000020000020001000000006000000000000000000000000000000000000000000007000000000000000003fc2b00000000000000000000000000000000000000000c000002000200000001ffffffffffffffffffffffffffffffff0000000000000c000002000200000000ffffffffffffffffffffffff000000000000000000000e000000000400000001040000000000000000000000000000000000000000001a040002000200000002000000000000000000000000000000000000000000000c000004000400000001000000000000000000000000000000000000000000000c000004000400000000000000000000000000000000ffffffff0000000000001a010004000400000002000000000000000000000000000000000000000000001a040002000200000004000000000000000000000000000000000000000000000e000002000000000000040000000000000000000000000000000000000000000e0000000000000000e10200000000000000000000000000000000000000000007000000000000000004000000000000000000000000000000000000000000000e0000000000000000e0090000000000000000000000000000000000000000000e000001000000000060030000000000000000000000000000000000000000000c0000020002000000010d0000000000000000000000000000000000000000000c0000020002000000000000000000000000000000000000000000000000000005020000000400000001000000000000000000000000000000000000000000000c000002000200000001010000000000000000000000000000000000000000000c0000020002000000000000000000000000000000000000000000000000000004040002000000000000000000000000000000000000000000000000000000000a0000000000000000043e0e3c0e0000000000000000000000000000000000000c000002000200000001000000000000000000000000000000000000000000000c000002000200000000000000000000000000000000000000000000000000001a0000020001000000020100000000000000000000000000000000000000000007000000000000000003f60d00000000000000000000000000000000000000000a000000000000000002410e420e0000000000000000000000000000000000000a000000000000000001751175110000000000000000000000000000000000000c0000020002000000010d0000000000000000000000000000000000000000000c000002000200000000000000000000000000000000000000000000000000000c000004000400000001000000000000000000000000000000000000000000000c0000040004000000000000000000000000000000000000000000000000000005020004000000000000000000000000000000000000000000000000000000000c000002000200000001080000000000000000000000000000000000000000000c0000020002000000000000000000000000000000000000000000000000000005020000000200000001000000000000000000000000000000000000000000000e000002000000000060070000000000000000000000000000000000000000000c000002000200000001060000000000000000000000000000000000000000000c0000020002000000000000000000000000000000000000000000000000000005020000000200000001000000000000000000000000000000000000000000000e000002000000000060090000000000000000000000000000000000000000000e000000000200000021020000000000000000000000000000000000000000000e0000020000000000600a0000000000000000000000000000000000000000000c000001000100000001000000000000000000000000000000000000000000000c0000010001000000000000000000000000000000003182a07000000000000007000000000000000003242c00000000000000000000000000000000000000000c000004000400000001ffffffffffffffffffffffffffffffff0000000000000c000004000400000000ffffffff00000000000000000000000000000000000014000000000200000000050000000000000000000000000000000000000000001a020004000400000002000000000000000000000000000000000000000000000e0000000002000000610a00000000000000000000000000000000000000000002000002000200000000040000000000000000000000000000000000000000000e00000400000000006005000000000000000000000000000000000000000000020400000001000000000000000000000000000000000000000000000000000007000000000000000003242c00000000000000000000000000000000000000000e000000000200000061090000000000000000000000000000000000000000000c000004000400000001ffffffffffffffffffffffffffffffff0000000000000c000004000400000000ffffffff0000000000000000000000000000000000001a020004000400000002000000000000000000000000000000000000000000000c000002000200000001040000000000000000000000000000000000000000000c0000020002000000000000000000000000000000000000000000000000000004040002000000000000000000000000000000000000000000000000000000000a000000000000000004ad0e650e0000000000000000000000000000000000000e0000040000000000600600000000000000000000000000000000000000000010000000000000000000000000000000000000000000000000000000000000000c000002000200000001240000000000000000000000000000000000000000000c000002000200000000000000000000000000000000000000000000000000000e000002000000000040000000000000000000000000000000000000000000000c000002000200000001000000000000000000000000000000000000000000000c000002000200000000000000000000000000000000000000000000000000000a0000000000000000016f0e6f0e00000000000000000000000000000000000004040000000000000000000000000000000000000000000000000000000000000a00000000000000000a6f0e830e0000000000000000000000000000000000000e0000020000000000600900000000000000000000000000000000000000000018000002000400000000050000000000000000000000000000000000000000000e000004000000000060080000000000000000000000000000000000000000000e0000000002000000610a000000000000000000000000000000000000000000020200040001000000000000000000000000000000000000000000000000000007000000000000000003fc2b00000000000000000000000000000000000000000c000002000200000001200000000000000000000000000000000000000000000c000002000200000000000000000000000000000000000000000000000000000e0000000004000000610800000000000000000000000000000000000000000008040002000200000000000000000000000000000000000000000000000000000e020001000000000040010000000000000000000000000000000000000000000e0000000008000000610900000000000000000000000000000000000000000002000008000200000000010000000000000000000000000000000000000000000c000004000400000001010000000000000000000000000000000000000000000c0000040004000000000000000000000000000000000000000000000000000004020008000000000000000000000000000000000000000000000000000000000a0000000000000000026d0e800e0000000000000000000000000000000000000c000004000400000001000000000000000000000000000000000000000000000c000004000400000000000000000000000000000000000000000000000000000a0000000000000000016d0e6d0e0000000000000000000000000000000000000e0000000002000000610a000000000000000000000000000000000000000000020000020001000000002000000000000000000000000000000000000000000007000000000000000003fc2b00000000000000000000000000000000000000000c000002000200000001ffffffffffffffffffffffffffffffff0000000000000c000002000200000000ffffffffffffffffffffffff000000000000000000000e000000000400000041020000000000000000000000000000000000000000001a040002000200000002000000000000000000000000000000000000000000000c000004000400000001000000000000000000000000000000000000000000000c000004000400000000000000000000000000000000ffffffff0000000000001a010004000400000002000000000000000000000000000000000000000000001a040002000200000004000000000000000000000000000000000000000000000e000002000000000040020000000000000000000000000000000000000000000e00000000020000006106000000000000000000000000000000000000000000180000020001000000002000000000000000000000000000000000000000000007000000000000000003432c00000000000000000000000000000000000000000c000002000200000001000000000000000000000000000000000000000000000c000002000200000000000000000000000000000000000000000000000000000e000001000000000060080000000000000000000000000000000000000000000a000000000000000001980e980e00000000000000000000000000000000000004040000000000000000000000000000000000000000000000000000000000000a00000000000000000a980eaa0e0000000000000000000000000000000000000e0000020000000000600900000000000000000000000000000000000000000018000002000400000000050000000000000000000000000000000000000000000e0000000002000000610a00000000000000000000000000000000000000000002020004000200000000000000000000000000000000000000000000000000000c000008000800000001200000000000000000000000000000000000000000000c0000080008000000000000000000000000000000000000000000000000000008040008000400000000000000000000000000000000000000000000000000000e0400000001000000410100000000000000000000000000000000000000000007000000000000000003242c00000000000000000000000000000000000000000e0000000008000000610900000000000000000000000000000000000000000002000008000200000000010000000000000000000000000000000000000000000c000004000400000001010000000000000000000000000000000000000000000c0000040004000000000000000000000000000000000000000000000000000004020008000000000000000000000000000000000000000000000000000000000a000000000000000002960ea70e0000000000000000000000000000000000000c000004000400000001000000000000000000000000000000000000000000000c000004000400000000000000000000000000000000000000000000000000000a000000000000000001960e960e0000000000000000000000000000000000000e0000000002000000610800000000000000000000000000000000000000000004020000000000000000000000000000000000000000000000000000000000000a0000000000000000048e10ad0e0000000000000000000000000000000000000e000000000200000041000000000000000000000000000000000000000000001a000002000200000002ffffffff000000000000000000000000000000000000020000020002000000001f0000000000000000000000000000000000000000001a000002000400000002e0ffffff0100000000000000000000000000000000000e0000000002000000610a00000000000000000000000000000000000000000002040002000800000000000000000000000000000000000000000000000000000c000002000200000001010000000000000000000000000000000000000000000c0000020002000000000000000000000000000000000000000000000000000004080004000000000000000000000000000000000000000000000000000000000a000000000000000002b90eb70e0000000000000000000000000000000000000c000002000200000001000000000000000000000000000000000000000000000c000002000200000000000000000000000000000000000000000000000000000c000004000400000001ffffffffffffffff00000000000000000000000000000c0000040004000000000000000000000000000000000000000000000000000004080004000000000000000000000000000000000000000000000000000000000a000000000000000008de0fbd0e00000000000000000000000000000000000004020000000000000000000000000000000000000000000000000000000000000a00000000000000000ade0fbf0e0000000000000000000000000000000000000e000008000000000020020000000000000000000000000000000000000000000e000000000200000041000000000000000000000000000000000000000000001a000002000200000002e0ffffff0000000000000000000000000000000000000e0000080000000000600900000000000000000000000000000000000000000004020000000000000000000000000000000000000000000000000000000000000a000000000000000004fd0fc50e0000000000000000000000000000000000000e0000000001000000610a00000000000000000000000000000000000000000007000000000000000003fc2b00000000000000000000000000000000000000000e000001000000000060060000000000000000000000000000000000000000000c000002000200000001070000000000000000000000000000000000000000000c0000020002000000000000000000000000000000000000000000000000000005020000000200000001000000000000000000000000000000000000000000000e0000020000000000600a0000000000000000000000000000000000000000000c000001000100000001000000000000000000000000000000000000000000000c0000010001000000000000000000000000000000003182a0700000000000000e0000000002000000610900000000000000000000000000000000000000000007000000000000000003242c00000000000000000000000000000000000000000e0000000002000000610900000000000000000000000000000000000000000002000002000200000000040000000000000000000000000000000000000000000e0000000001000000610500000000000000000000000000000000000000000007000000000000000003242c00000000000000000000000000000000000000000c000002000200000001ffffffffffffffffffffffffffffffff0000000000000c000002000200000000ffffffff0000000000000000000000000000000000000e0000000004000000610a0000000000000000000000000000000000000000001a040002000400000002000000000000000000000000000000000000000000000c000002000200000001040000000000000000000000000000000000000000000c000002000200000000000000000000000000000000000000000000000000000e0000000010000000610900000000000000000000000000000000000000000004040002000000000000000000000000000000000000000000000000000000000a000000000000000004250fdd0e0000000000000000000000000000000000000e0000040000000000600500000000000000000000000000000000000000000010000000000000000000000000000000000000000000000000000000000000000c000002000200000001240000000000000000000000000000000000000000000c000002000200000000000000000000000000000000000000000000000000000e000002000000000040000000000000000000000000000000000000000000000c000002000200000001000000000000000000000000000000000000000000000c000002000200000000000000000000000000000000000000000000000000000a000000000000000001e80ee80e0000000000000000000000000000000000000e0000000010000000610900000000000000000000000000000000000000000004040000000000000000000000000000000000000000000000000000000000000a00000000000000000ae80efb0e0000000000000000000000000000000000000e0000020000000000600a00000000000000000000000000000000000000000018000002000200000000050000000000000000000000000000000000000000000e00000200000000006008000000000000000000000000000000000000000000021000020001000000000000000000000000000000000000000000000000000007000000000000000003fc2b00000000000000000000000000000000000000000c000002000200000001200000000000000000000000000000000000000000000c000002000200000000000000000000000000000000000000000000000000000e0000000004000000610800000000000000000000000000000000000000000008040002000200000000000000000000000000000000000000000000000000000e020001000000000040010000000000000000000000000000000000000000000e0000000008000000610a00000000000000000000000000000000000000000002000008000200000000010000000000000000000000000000000000000000000c000004000400000001010000000000000000000000000000000000000000000c0000040004000000000000000000000000000000000000000000000000000004020008000000000000000000000000000000000000000000000000000000000a000000000000000002e50ef80e0000000000000000000000000000000000000c000004000400000001000000000000000000000000000000000000000000000c000004000400000000000000000000000000000000000000000000000000000a000000000000000001e50ee50e000000000000000000000000000000000000020000100001000000002000000000000000000000000000000000000000000007000000000000000003fc2b00000000000000000000000000000000000000000c000002000200000001ffffffffffffffffffffffffffffffff0000000000000c000002000200000000ffffffffffffffffffffffff000000000000000000000e000000000400000041020000000000000000000000000000000000000000001a040002000200000002000000000000000000000000000000000000000000000c000004000400000001000000000000000000000000000000000000000000000c000004000400000000000000000000000000000000ffffffff0000000000001a010004000400000002000000000000000000000000000000000000000000001a040002000200000004000000000000000000000000000000000000000000000e000002000000000040020000000000000000000000000000000000000000000e00000000020000006105000000000000000000000000000000000000000000180000020001000000002000000000000000000000000000000000000000000007000000000000000003432c00000000000000000000000000000000000000000e000000001000000061090000000000000000000000000000000000000000000c000002000200000001000000000000000000000000000000000000000000000c000002000200000000000000000000000000000000000000000000000000000e000001000000000060080000000000000000000000000000000000000000000a000000000000000001110f110f0000000000000000000000000000000000000e0000000010000000610900000000000000000000000000000000000000000004040000000000000000000000000000000000000000000000000000000000000a00000000000000000a110f220f0000000000000000000000000000000000000e0000020000000000600a000000000000000000000000000000000000000000180000020004000000000500000000000000000000000000000000000000000002100004000200000000000000000000000000000000000000000000000000000c000008000800000001200000000000000000000000000000000000000000000c0000080008000000000000000000000000000000000000000000000000000008040008000400000000000000000000000000000000000000000000000000000e0400000001000000410100000000000000000000000000000000000000000007000000000000000003242c00000000000000000000000000000000000000000e0000000008000000610a00000000000000000000000000000000000000000002000008000200000000010000000000000000000000000000000000000000000c000004000400000001010000000000000000000000000000000000000000000c0000040004000000000000000000000000000000000000000000000000000004020008000000000000000000000000000000000000000000000000000000000a0000000000000000020e0f1f0f0000000000000000000000000000000000000c000004000400000001000000000000000000000000000000000000000000000c000004000400000000000000000000000000000000000000000000000000000a0000000000000000010e0f0e0f0000000000000000000000000000000000000e0000000002000000610800000000000000000000000000000000000000000004020000000000000000000000000000000000000000000000000000000000000a0000000000000000040211250f0000000000000000000000000000000000000e000000000200000041000000000000000000000000000000000000000000001a000002000200000002ffffffff000000000000000000000000000000000000020000020002000000001f0000000000000000000000000000000000000000001a000002000200000002e0ffffff01000000000000000000000000000000000002020010000200000000000000000000000000000000000000000000000000000c000004000400000001ffffffffffffffff00000000000000000000000000000c000004000400000000000000000000000000000000000000000000000000000e0000000008000000610700000000000000000000000000000000000000000004020004000000000000000000000000000000000000000000000000000000000a0000000000000000080c102f0f0000000000000000000000000000000000000e000002000000000020020000000000000000000000000000000000000000000e000000000200000041000000000000000000000000000000000000000000001a000002000200000002e0ffffff00000000000000000000000000000000000004020000000000000000000000000000000000000000000000000000000000000a0000000000000000042b10340f0000000000000000000000000000000000001a000008000200000002ffffffffffffffffffffffffffff00000000000000000e0000020000000000600a000000000000000000000000000000000000000000021000000001000000000000000000000000000000000000000000000000000007000000000000000003fc2b00000000000000000000000000000000000000000e000001000000000060080000000000000000000000000000000000000000000e000000000100000061060000000000000000000000000000000000000000000e0000000002000000610a00000000000000000000000000000000000000000007000000000000000003f82a00000000000000000000000000000000000000000a0000000000000000023d0f3f0f0000000000000000000000000000000000000e000001000000000060050000000000000000000000000000000000000000000a000000000000000001751175110000000000000000000000000000000000000e000001000000000060050000000000000000000000000000000000000000000e0000000002000000610700000000000000000000000000000000000000000018000002000200000002700000000000000000000000000000000000000000001a000002000200000002ffffffffffffffffffffffffffff00000000000000000e000000000100000061080000000000000000000000000000000000000000000e0000020000000000600900000000000000000000000000000000000000000007000000000000000003f82a00000000000000000000000000000000000000000a000000000000000002470f490f0000000000000000000000000000000000000e000001000000000060040000000000000000000000000000000000000000000a000000000000000001751175110000000000000000000000000000000000000e000001000000000060040000000000000000000000000000000000000000000e0000000001000000610a0000000000000000000000000000000000000000000e00000000020000006109000000000000000000000000000000000000000000070000000000000000034c1400000000000000000000000000000000000000000a0000000000000000024e0f500f0000000000000000000000000000000000000e000001000000000060020000000000000000000000000000000000000000000a000000000000000001751175110000000000000000000000000000000000000e000001000000000060020000000000000000000000000000000000000000000c000002000200000001000000000000000000000000000000000000000000000c00000200020000000000000000000000000000000000000000000000000000050200000002000000010000000000000000000000000000000000000000000004020000000000000000000000000000000000000000000000000000000000000a000000000000000004710f560f0000000000000000000000000000000000000e000000000100000061050000000000000000000000000000000000000000000e0000020000000000600700000000000000000000000000000000000000000007000000000000000003862b00000000000000000000000000000000000000000a0000000000000000025a0f5c0f0000000000000000000000000000000000000e000001000000000060010000000000000000000000000000000000000000000a000000000000000001751175110000000000000000000000000000000000000e000001000000000060010000000000000000000000000000000000000000000e0000000002000000610a00000000000000000000000000000000000000000004020000000000000000000000000000000000000000000000000000000000000a0000000000000000043a10600f0000000000000000000000000000000000000e000000000100000061040000000000000000000000000000000000000000000e0000000002000000610700000000000000000000000000000000000000000007000000000000000003862b00000000000000000000000000000000000000000a000000000000000002640f650f0000000000000000000000000000000000000a000000000000000001751175110000000000000000000000000000000000000e0000000008000000610900000000000000000000000000000000000000000004080000000000000000000000000000000000000000000000000000000000000a0000000000000000045910680f0000000000000000000000000000000000000e0000000002000000610a0000000000000000000000000000000000000000000e00000000040000006101000000000000000000000000000000000000000000080400020004000000000000000000000000000000000000000000000000000008010008000200000000000000000000000000000000000000000000000000000e0000040000000000600700000000000000000000000000000000000000000004040002000000000000000000000000000000000000000000000000000000000a0000000000000000027f0f6f0f0000000000000000000000000000000000000e000002000000000060070000000000000000000000000000000000000000000a0000000000000000017f0f7f0f0000000000000000000000000000000000000e000000000100000061050000000000000000000000000000000000000000000e0000000002000000610400000000000000000000000000000000000000000007000000000000000003862b00000000000000000000000000000000000000000a000000000000000002750f760f0000000000000000000000000000000000000a0000000000000000017511751100000000000000000000000000000000000007000000000000000003aa2900000000000000000000000000000000000000000a0000000000000000027511780f00000000000000000000000000000000000007000000000000000003c62a00000000000000000000000000000000000000000a00000000000000000275117a0f0000000000000000000000000000000000000e0000010000000000600700000000000000000000000000000000000000000007000000000000000003b91100000000000000000000000000000000000000000a0000000000000000027d0f7e0f0000000000000000000000000000000000000a000000000000000001751175110000000000000000000000000000000000000a0000000000000000017f0f7f0f0000000000000000000000000000000000000c000002000200000001010000000000000000000000000000000000000000000c000002000200000000000000000000000000000000000000000000000000000e0000000004000000610700000000000000000000000000000000000000000004040000000000000000000000000000000000000000000000000000000000000a00000000000000000a860f840f0000000000000000000000000000000000000c000002000200000001000000000000000000000000000000000000000000000c000002000200000000000000000000000000000000000000000000000000001a0000020001000000020100000000000000000000000000000000000000000007000000000000000003771100000000000000000000000000000000000000000a000000000000000002890f8a0f0000000000000000000000000000000000000a000000000000000001751175110000000000000000000000000000000000000e000000000100000061030000000000000000000000000000000000000000000e00000000020000006107000000000000000000000000000000000000000000070000000000000000032b1200000000000000000000000000000000000000000a0000000000000000028e0f8f0f0000000000000000000000000000000000000a000000000000000001751175110000000000000000000000000000000000000e000000000100000061060000000000000000000000000000000000000000000e000000000200000061080000000000000000000000000000000000000000000e0000000004000000610a0000000000000000000000000000000000000000000e0000000008000000610900000000000000000000000000000000000000000007000000000000000003e31200000000000000000000000000000000000000000a000000000000000002950f960f0000000000000000000000000000000000000a000000000000000001751175110000000000000000000000000000000000000e0000000002000000610200000000000000000000000000000000000000000004020000000000000000000000000000000000000000000000000000000000000a000000000000000004a50f990f0000000000000000000000000000000000000c000002000200000001080000000000000000000000000000000000000000000c0000020002000000000000000000000000000000000000000000000000000005020000000200000001000000000000000000000000000000000000000000001a000002000100000002ffffffffffffffffffffffffffff000000000000000018000002000200000002700000000000000000000000000000000000000000001a000002000200000002ffffffffffffffffffffffffffff000000000000000007000000000000000003862b00000000000000000000000000000000000000000a000000000000000002a10fa20f0000000000000000000000000000000000000a000000000000000001751175110000000000000000000000000000000000000c0000020002000000010b0000000000000000000000000000000000000000000c0000020002000000000000000000000000000000000000000000000000000005020001000000000000000000000000000000000000000000000000000000000e000000000200000021020000000000000000000000000000000000000000000e000002000000000060090000000000000000000000000000000000000000000e0000000001000000610500000000000000000000000000000000000000000007000000000000000003242c00000000000000000000000000000000000000000e0000000002000000610900000000000000000000000000000000000000000002000002000200000000200000000000000000000000000000000000000000000e0000020000000000600a0000000000000000000000000000000000000000000e0000000001000000610400000000000000000000000000000000000000000007000000000000000003242c00000000000000000000000000000000000000000e0000000001000000610900000000000000000000000000000000000000000007000000000000000003fc2b00000000000000000000000000000000000000000e0000000008000000610a0000000000000000000000000000000000000000000c0000020002000000014f1c82034c4f3926ef6f1c0a69ff0d560000000000000c0000020002000000006aa58b08e1e2138f7550adc85f9b204c0000000000000c000004000400000001020000004000000000000000000000000000000000000c000004000400000000000000000000000000000000000000000000000000000504000200000000000a00000000000000000000000000000000000000000000140000000002000000000000000000000000000000000000000000000000000005020001000000000002000000000000000000000000000000000000000000000e0000000002000000610900000000000000000000000000000000000000000002000002001000000000400000000000000000000000000000000000000000000e0000100000000000600900000000000000000000000000000000000000000004100008000000000000000000000000000000000000000000000000000000000a000000000000000006bd0fcb0f0000000000000000000000000000000000000c0000020002000000010d0000000000000000000000000000000000000000000c000002000200000000000000000000000000000000000000000000000000000c000004000400000001010000000000000000000000000000000000000000000c0000040004000000000000000000000000000000000000000000000000000005020004000000000000000000000000000000000000000000000000000000000e000000000100000061070000000000000000000000000000000000000000000e0000000000000000e10900000000000000000000000000000000000000000007000000000000000000000000000000000000000000000000000000000000000c000002000200000001000000000000000000000000000000000000000000000c000002000200000000000000000000000000000000000000000000000000000520000200000000000200000000000000000000000000000000000000000000020000080008000000004000000000000000000000000000000000000000000004100008000000000000000000000000000000000000000000000000000000000a000000000000000008cb0fbd0f0000000000000000000000000000000000000e0000080000000000600a000000000000000000000000000000000000000000020800000001000000000000000000000000000000000000000000000000000007000000000000000003fc2b00000000000000000000000000000000000000000e000000001000000061090000000000000000000000000000000000000000000e0000000008000000610a000000000000000000000000000000000000000000041000080002000000000000000000000000000000000000000000000000000002010000002000000000000000000000000000000000000000000000000000000c0000040004000000013f0000000000000000000000000000000000000000000c0000040004000000000000000000000000000000000000000000000000000004020004000000000000000000000000000000000000000000000000000000000a000000000000000008d60fc50f00000000000000000000000000000000000002000008000100000000200000000000000000000000000000000000000000000e0000200000000000600800000000000000000000000000000000000000000007000000000000000003fc2b00000000000000000000000000000000000000000e000000001000000061090000000000000000000000000000000000000000000e0000000008000000610a0000000000000000000000000000000000000000000e0000000002000000610800000000000000000000000000000000000000000005020001000000000002000000000000000000000000000000000000000000000a000000000000000001c80fc80f0000000000000000000000000000000000000c000002000200000001000000000000000000000000000000000000000000000c000002000200000000000000000000000000000000717b484e0000000000000e000002000000000020000000000000000000000000000000000000000000000c000001000100000001410000000000000000000000000000000000000000000c000001000100000000000000000000000000000000000000000000000000000c000002000200000001040000000000000000000000000000000000000000000c0000020002000000000000000000000000000000000000000000000000000007000000000000000003242c00000000000000000000000000000000000000000c000002000200000001240000000000000000000000000000000000000000000c000002000200000000000000000000000000000000000000000000000000000e000002000000000000000000000000000000000000000000000000000000000c000004000400000001000000000000000000000000000000000000000000000c000004000400000000000000000000000000000000000000000000000000000c000002000200000001200000000000000000000000000000000000000000000c000002000200000000000000000000000000000000000000000000000000000a000000000000000001f10ff10f000000000000000000000000000000000000020800000004000000000000000000000000000000000000000000000000000004100000000000000000000000000000000000000000000000000000000000000a00000000000000000af10f0110000000000000000000000000000000000000180000040008000000000500000000000000000000000000000000000000000008080002000800000000000000000000000000000000000000000000000000000e080000001000000021000000000000000000000000000000000000000000000e0800100000000000000100000000000000000000000000000000000000000002000004000800000000010000000000000000000000000000000000000000000c000010001000000001010000000000000000000000000000000000000000000c0000100010000000000000000000000000000000000000000000000000000004080004000000000000000000000000000000000000000000000000000000000a000000000000000002ee0ffa0f0000000000000000000000000000000000000c000010001000000001000000000000000000000000000000000000000000000c000010001000000000000000000000000000000000000000000000000000000a000000000000000001ee0fee0f0000000000000000000000000000000000000c000002000200000001000000000000000000000000000000000000000000000c000002000200000000000000000000000000000000000000000000000000000e000002000000000000000000000000000000000000000000000000000000000a000000000000000001751175110000000000000000000000000000000000000c000002000200000001ffffffffffffffffffffffffffffffff0000000000000c000002000200000000ffffffffffffffffffffffff000000000000000000000e000000000400000001020000000000000000000000000000000000000000001a040002000200000002000000000000000000000000000000000000000000000c000004000400000001000000000000000000000000000000000000000000000c000004000400000000000000000000000000000000ffffffff0000000000000e000000000800000021010000000000000000000000000000000000000000001a080004000400000002000000000000000000000000000000000000000000001a040002000200000004000000000000000000000000000000000000000000000e000002000000000000020000000000000000000000000000000000000000000a000000000000000001751175110000000000000000000000000000000000000c000002000200000001000000000000000000000000000000000000000000000c000002000200000000000000000000000000000000717b484e0000000000000e000002000000000020000000000000000000000000000000000000000000000c000001000100000001410000000000000000000000000000000000000000000c000001000100000000000000000000000000000000000000000000000000000c000002000200000001040000000000000000000000000000000000000000000c0000020002000000000000000000000000000000000000000000000000000007000000000000000003242c00000000000000000000000000000000000000000c000002000200000001240000000000000000000000000000000000000000000c000002000200000000000000000000000000000000000000000000000000000e000002000000000000000000000000000000000000000000000000000000000c000004000400000001000000000000000000000000000000000000000000000c000004000400000000000000000000000000000000000000000000000000000c000002000200000001200000000000000000000000000000000000000000000c000002000200000000000000000000000000000000000000000000000000000a0000000000000000011f101f10000000000000000000000000000000000000020800000004000000000000000000000000000000000000000000000000000004100000000000000000000000000000000000000000000000000000000000000a00000000000000000a1f102f10000000000000000000000000000000000000180000040008000000000500000000000000000000000000000000000000000008080002000800000000000000000000000000000000000000000000000000000e080000001000000021000000000000000000000000000000000000000000000e0800100000000000000100000000000000000000000000000000000000000002000004000800000000010000000000000000000000000000000000000000000c000010001000000001010000000000000000000000000000000000000000000c0000100010000000000000000000000000000000000000000000000000000004080004000000000000000000000000000000000000000000000000000000000a0000000000000000021c1028100000000000000000000000000000000000000c000010001000000001000000000000000000000000000000000000000000000c000010001000000000000000000000000000000000000000000000000000000a0000000000000000011c101c100000000000000000000000000000000000000c000002000200000001000000000000000000000000000000000000000000000c000002000200000000000000000000000000000000000000000000000000000e000002000000000000000000000000000000000000000000000000000000000a000000000000000001751175110000000000000000000000000000000000000c000002000200000001ffffffffffffffffffffffffffffffff0000000000000c000002000200000000ffffffffffffffffffffffff000000000000000000000e000000000400000001020000000000000000000000000000000000000000001a040002000200000002000000000000000000000000000000000000000000000c000004000400000001000000000000000000000000000000000000000000000c000004000400000000000000000000000000000000ffffffff0000000000000e000000000800000021010000000000000000000000000000000000000000001a080004000400000002000000000000000000000000000000000000000000001a040002000200000004000000000000000000000000000000000000000000000e000002000000000000020000000000000000000000000000000000000000000a000000000000000001751175110000000000000000000000000000000000000c000002000200000001000000000000000000000000000000000000000000000c000002000200000000000000000000000000000000717b484e0000000000000e000002000000000020000000000000000000000000000000000000000000000c000001000100000001120000000000000000000000000000000000000000000c000001000100000000000000000000000000000000000000000000000000000c000002000200000001040000000000000000000000000000000000000000000c0000020002000000000000000000000000000000000000000000000000000007000000000000000003242c00000000000000000000000000000000000000000c000002000200000001240000000000000000000000000000000000000000000c000002000200000000000000000000000000000000000000000000000000000e000002000000000000000000000000000000000000000000000000000000000c000004000400000001000000000000000000000000000000000000000000000c000004000400000000000000000000000000000000000000000000000000000c000002000200000001200000000000000000000000000000000000000000000c000002000200000000000000000000000000000000000000000000000000000a0000000000000000014d104d10000000000000000000000000000000000000020800000004000000000000000000000000000000000000000000000000000004100000000000000000000000000000000000000000000000000000000000000a00000000000000000a4d107810000000000000000000000000000000000000180000040008000000000500000000000000000000000000000000000000000008080002000800000000000000000000000000000000000000000000000000000e080000001000000021000000000000000000000000000000000000000000000e0800100000000000000100000000000000000000000000000000000000000002000004000800000000010000000000000000000000000000000000000000000c000010001000000001010000000000000000000000000000000000000000000c0000100010000000000000000000000000000000000000000000000000000004080004000000000000000000000000000000000000000000000000000000000a0000000000000000024a1056100000000000000000000000000000000000000c000010001000000001000000000000000000000000000000000000000000000c000010001000000000000000000000000000000000000000000000000000000a0000000000000000014a104a100000000000000000000000000000000000000c000002000200000001000000000000000000000000000000000000000000000c000002000200000000000000000000000000000000717b484e0000000000000e000002000000000020000000000000000000000000000000000000000000000c000001000100000001120000000000000000000000000000000000000000000c000001000100000000000000000000000000000000000000000000000000000c000002000200000001040000000000000000000000000000000000000000000c0000020002000000000000000000000000000000000000000000000000000007000000000000000003242c00000000000000000000000000000000000000000c000002000200000001240000000000000000000000000000000000000000000c000002000200000000000000000000000000000000000000000000000000000e000002000000000000000000000000000000000000000000000000000000000c000004000400000001000000000000000000000000000000000000000000000c000004000400000000000000000000000000000000000000000000000000000c000002000200000001200000000000000000000000000000000000000000000c000002000200000000000000000000000000000000000000000000000000000a0000000000000000016c106c10000000000000000000000000000000000000020800000004000000000000000000000000000000000000000000000000000004100000000000000000000000000000000000000000000000000000000000000a00000000000000000a6c108310000000000000000000000000000000000000180000040008000000000500000000000000000000000000000000000000000008080002000800000000000000000000000000000000000000000000000000000e080000001000000021000000000000000000000000000000000000000000000e0800100000000000000100000000000000000000000000000000000000000002000004000800000000010000000000000000000000000000000000000000000c000010001000000001010000000000000000000000000000000000000000000c0000100010000000000000000000000000000000000000000000000000000004080004000000000000000000000000000000000000000000000000000000000a000000000000000002691075100000000000000000000000000000000000000c000010001000000001000000000000000000000000000000000000000000000c000010001000000000000000000000000000000000000000000000000000000a000000000000000001691069100000000000000000000000000000000000000c000002000200000001ffffffffffffffffffffffffffffffff0000000000000c000002000200000000ffffffffffffffffffffffff000000000000000000000e000000000400000001020000000000000000000000000000000000000000001a040002000200000002000000000000000000000000000000000000000000000c000004000400000001000000000000000000000000000000000000000000000c000004000400000000000000000000000000000000ffffffff0000000000000e000000000800000021010000000000000000000000000000000000000000001a080004000400000002000000000000000000000000000000000000000000001a040002000200000004000000000000000000000000000000000000000000000e000002000000000000020000000000000000000000000000000000000000000a000000000000000001751175110000000000000000000000000000000000000c000002000200000001ffffffffffffffffffffffffffffffff0000000000000c000002000200000000ffffffffffffffffffffffff000000000000000000000e000000000400000001020000000000000000000000000000000000000000001a040002000200000002000000000000000000000000000000000000000000000c000004000400000001000000000000000000000000000000000000000000000c000004000400000000000000000000000000000000ffffffff0000000000000e000000000800000021010000000000000000000000000000000000000000001a080004000400000002000000000000000000000000000000000000000000001a040002000200000004000000000000000000000000000000000000000000000e000002000000000000020000000000000000000000000000000000000000000a000000000000000001751175110000000000000000000000000000000000000c000008000800000001000000000000000000000000000000000000000000000c000008000800000000000000000000000000000000000000000000000000000e000000000200000021020000000000000000000000000000000000000000000e0000020000000000600a0000000000000000000000000000000000000000000e000000000200000041000000000000000000000000000000000000000000001a0000020004000000021f0000000000000000000000000000000000000000000e000004000000000060070000000000000000000000000000000000000000001a000002000200000002e0ffffff0000000000000000000000000000000000000e0000020000000000600600000000000000000000000000000000000000000018000002000200000002050000000000000000000000000000000000000000000e0000020000000000600800000000000000000000000000000000000000000004020000000000000000000000000000000000000000000000000000000000000a000000000000000004a9109b100000000000000000000000000000000000000e0000080000000000600900000000000000000000000000000000000000000018000008000400000000050000000000000000000000000000000000000000000e0000000002000000610a00000000000000000000000000000000000000000002020004000200000000000000000000000000000000000000000000000000000c000008000800000001200000000000000000000000000000000000000000000c0000080008000000000000000000000000000000000000000000000000000008040008000400000000000000000000000000000000000000000000000000000e0400000001000000410100000000000000000000000000000000000000000007000000000000000003242c00000000000000000000000000000000000000000e0000000008000000610900000000000000000000000000000000000000000002000008000800000000010000000000000000000000000000000000000000000e0000000002000000610800000000000000000000000000000000000000000004080002000000000000000000000000000000000000000000000000000000000a0000000000000000029b10a9100000000000000000000000000000000000000e0000000002000000610a0000000000000000000000000000000000000000000e0000000002000000610700000000000000000000000000000000000000000004020000000000000000000000000000000000000000000000000000000000000a000000000000000004c910ad100000000000000000000000000000000000000e0000000002000000610700000000000000000000000000000000000000000018000002000200000000030000000000000000000000000000000000000000000c000004000400000001000100000000000000000000000000000000000000000c0000040004000000000000000000000000000000000000000000000000000004040002000400000000000000000000000000000000000000000000000000000c000008000800000001ffffffffffffffffffffffffffffffff0000000000000c000008000800000000ffffffffffffffffffffffffffffffff00000000000018040008000400000000000000000000000000000000000000000000000000000c000010001000000001200000000000000000000000000000000000000000000c000010001000000000000000000000000000000000000000000000000000000e0000000020000000610600000000000000000000000000000000000000000008200010001000000000000000000000000000000000000000000000000000000e100000001000000041010000000000000000000000000000000000000000001a100004000400000002000000000000000000000000000000000000000000000e0000040000000000600900000000000000000000000000000000000000000018020008000200000002000000000000000000000000000000000000000000000e000002000000000060070000000000000000000000000000000000000000000e0000000002000000610a00000000000000000000000000000000000000000002020020000200000000000000000000000000000000000000000000000000000e00000200000000006008000000000000000000000000000000000000000000020200000001000000000000000000000000000000000000000000000000000007000000000000000003fc2b00000000000000000000000000000000000000000e000000000200000061070000000000000000000000000000000000000000001a010002000200000002000000000000000000000000000000000000000000000e000000000400000061090000000000000000000000000000000000000000001a040002000100000004000000000000000000000000000000000000000000000e0000000002000000610800000000000000000000000000000000000000000007000000000000000003242c00000000000000000000000000000000000000000c000008000800000001000000000000000000000000000000000000000000000c000008000800000000000000000000000000000000000000000000000000000e000000000400000041000000000000000000000000000000000000000000001a0000040002000000021f0000000000000000000000000000000000000000000e000002000000000060060000000000000000000000000000000000000000000e000004000000000060050000000000000000000000000000000000000000001a000004000200000002ffffffff0000000000000000000000000000000000000e0000020000000000000000000000000000000000000000000000000000000018000002000200000002050000000000000000000000000000000000000000000e0000000004000000610a0000000000000000000000000000000000000000000e0000020000000000600700000000000000000000000000000000000000000004020000000000000000000000000000000000000000000000000000000000000a000000000000000004e610d6100000000000000000000000000000000000000e0000080000000000600900000000000000000000000000000000000000000018000008000400000000050000000000000000000000000000000000000000000e000004000000000060080000000000000000000000000000000000000000000e0000000002000000610a000000000000000000000000000000000000000000020200040001000000000000000000000000000000000000000000000000000007000000000000000003fc2b00000000000000000000000000000000000000000e000000000800000061090000000000000000000000000000000000000000000c000002000200000001200000000000000000000000000000000000000000000c000002000200000000000000000000000000000000000000000000000000000e0000000004000000610800000000000000000000000000000000000000000008040002000200000000000000000000000000000000000000000000000000000e0200010000000000000100000000000000000000000000000000000000000002000008000800000000010000000000000000000000000000000000000000000e0000000002000000610700000000000000000000000000000000000000000004080002000000000000000000000000000000000000000000000000000000000a000000000000000002d610e6100000000000000000000000000000000000000e0000000002000000610600000000000000000000000000000000000000000004020000000000000000000000000000000000000000000000000000000000000a0000000000000000047511e9100000000000000000000000000000000000000e000000000200000061050000000000000000000000000000000000000000001a000002000400000002e0ffffff0000000000000000000000000000000000000e000004000000000060090000000000000000000000000000000000000000000e0000000002000000610a000000000000000000000000000000000000000000020200040001000000000000000000000000000000000000000000000000000007000000000000000003fc2b00000000000000000000000000000000000000000c000002000200000001200000000000000000000000000000000000000000000c000002000200000000000000000000000000000000000000000000000000000e0000000004000000610900000000000000000000000000000000000000000008040002000200000000000000000000000000000000000000000000000000000e0000000004000000610600000000000000000000000000000000000000000018000004000400000000030000000000000000000000000000000000000000000c000008000800000001ffffffffffffffffffffffffffffffff0000000000000c000008000800000000ffffffffffffffffffffffffffffffff00000000000018040008001000000002000000000000000000000000000000000000000000000e020000002000000001010000000000000000000000000000000000000000001a200010001000000002000000000000000000000000000000000000000000000c000020002000000001000100000000000000000000000000000000000000000c00002000200000000000000000000000000000000000000000000000000000042000040004000000000000000000000000000000000000000000000000000018040008000400000000000000000000000000000000000000000000000000001a010004000400000002000000000000000000000000000000000000000000001a040010000400000004000000000000000000000000000000000000000000000e020004000000000000010000000000000000000000000000000000000000000a000000000000000001751175110000000000000000000000000000000000000c000008000800000001000000000000000000000000000000000000000000000c000008000800000000000000000000000000000000000000000000000000000e000000000200000021020000000000000000000000000000000000000000000e0000020000000000600a0000000000000000000000000000000000000000000e000000000200000041000000000000000000000000000000000000000000001a0000020004000000021f0000000000000000000000000000000000000000000e000004000000000060070000000000000000000000000000000000000000001a000002000200000002e0ffffff0000000000000000000000000000000000000e0000020000000000600600000000000000000000000000000000000000000018000002000200000002050000000000000000000000000000000000000000000e0000020000000000600800000000000000000000000000000000000000000004020000000000000000000000000000000000000000000000000000000000000a0000000000000000041d110f110000000000000000000000000000000000000e0000080000000000600900000000000000000000000000000000000000000018000008000400000000050000000000000000000000000000000000000000000e0000000002000000610a00000000000000000000000000000000000000000002020004000200000000000000000000000000000000000000000000000000000c000008000800000001200000000000000000000000000000000000000000000c0000080008000000000000000000000000000000000000000000000000000008040008000400000000000000000000000000000000000000000000000000000e0400000001000000410100000000000000000000000000000000000000000007000000000000000003242c00000000000000000000000000000000000000000e0000000008000000610900000000000000000000000000000000000000000002000008000800000000010000000000000000000000000000000000000000000e0000000002000000610800000000000000000000000000000000000000000004080002000000000000000000000000000000000000000000000000000000000a0000000000000000020f111d110000000000000000000000000000000000000e0000000002000000610a0000000000000000000000000000000000000000000e0000000002000000610700000000000000000000000000000000000000000004020000000000000000000000000000000000000000000000000000000000000a0000000000000000043d1121110000000000000000000000000000000000000e0000000002000000610700000000000000000000000000000000000000000018000002000200000000030000000000000000000000000000000000000000000c000004000400000001000100000000000000000000000000000000000000000c0000040004000000000000000000000000000000000000000000000000000004040002000400000000000000000000000000000000000000000000000000000c000008000800000001ffffffffffffffffffffffffffffffff0000000000000c000008000800000000ffffffffffffffffffffffffffffffff00000000000018040008000400000000000000000000000000000000000000000000000000000c000010001000000001200000000000000000000000000000000000000000000c000010001000000000000000000000000000000000000000000000000000000e0000000020000000610600000000000000000000000000000000000000000008200010001000000000000000000000000000000000000000000000000000000e100000001000000041010000000000000000000000000000000000000000001a100004000400000002000000000000000000000000000000000000000000000e0000040000000000600900000000000000000000000000000000000000000018020008000200000002000000000000000000000000000000000000000000000e000002000000000060070000000000000000000000000000000000000000000e0000000002000000610a00000000000000000000000000000000000000000002020020000200000000000000000000000000000000000000000000000000000e00000200000000006008000000000000000000000000000000000000000000020200000001000000000000000000000000000000000000000000000000000007000000000000000003fc2b00000000000000000000000000000000000000000e000000000200000061070000000000000000000000000000000000000000001a010002000200000002000000000000000000000000000000000000000000000e000000000400000061090000000000000000000000000000000000000000001a040002000100000004000000000000000000000000000000000000000000000e0000000002000000610800000000000000000000000000000000000000000007000000000000000003242c00000000000000000000000000000000000000000c000008000800000001000000000000000000000000000000000000000000000c000008000800000000000000000000000000000000000000000000000000000e000000000400000041000000000000000000000000000000000000000000001a0000040002000000021f0000000000000000000000000000000000000000000e000002000000000060060000000000000000000000000000000000000000000e000004000000000060050000000000000000000000000000000000000000001a000004000200000002ffffffff0000000000000000000000000000000000000e0000020000000000000000000000000000000000000000000000000000000018000002000200000002050000000000000000000000000000000000000000000e0000000004000000610a0000000000000000000000000000000000000000000e0000020000000000600700000000000000000000000000000000000000000004020000000000000000000000000000000000000000000000000000000000000a0000000000000000045a114a110000000000000000000000000000000000000e0000080000000000600900000000000000000000000000000000000000000018000008000400000000050000000000000000000000000000000000000000000e000004000000000060080000000000000000000000000000000000000000000e0000000002000000610a000000000000000000000000000000000000000000020200040001000000000000000000000000000000000000000000000000000007000000000000000003fc2b00000000000000000000000000000000000000000e000000000800000061090000000000000000000000000000000000000000000c000002000200000001200000000000000000000000000000000000000000000c000002000200000000000000000000000000000000000000000000000000000e0000000004000000610800000000000000000000000000000000000000000008040002000200000000000000000000000000000000000000000000000000000e0200010000000000000100000000000000000000000000000000000000000002000008000800000000010000000000000000000000000000000000000000000e0000000002000000610700000000000000000000000000000000000000000004080002000000000000000000000000000000000000000000000000000000000a0000000000000000024a115a110000000000000000000000000000000000000e0000000002000000610600000000000000000000000000000000000000000004020000000000000000000000000000000000000000000000000000000000000a00000000000000000475115d110000000000000000000000000000000000000e000000000200000061050000000000000000000000000000000000000000001a000002000400000002e0ffffff0000000000000000000000000000000000000e000004000000000060090000000000000000000000000000000000000000000e0000000002000000610a000000000000000000000000000000000000000000020200040001000000000000000000000000000000000000000000000000000007000000000000000003fc2b00000000000000000000000000000000000000000c000002000200000001200000000000000000000000000000000000000000000c000002000200000000000000000000000000000000000000000000000000000e0000000004000000610900000000000000000000000000000000000000000008040002000200000000000000000000000000000000000000000000000000000e0000000004000000610600000000000000000000000000000000000000000018000004000400000000030000000000000000000000000000000000000000000c000008000800000001ffffffffffffffffffffffffffffffff0000000000000c000008000800000000ffffffffffffffffffffffffffffffff00000000000018040008001000000002000000000000000000000000000000000000000000000e020000002000000001010000000000000000000000000000000000000000001a200010001000000002000000000000000000000000000000000000000000000c000020002000000001000100000000000000000000000000000000000000000c00002000200000000000000000000000000000000000000000000000000000042000040004000000000000000000000000000000000000000000000000000018040008000400000000000000000000000000000000000000000000000000001a010004000400000002000000000000000000000000000000000000000000001a040010000400000004000000000000000000000000000000000000000000000e020004000000000000010000000000000000000000000000000000000000000e0000000000000000e10900000000000000000000000000000000000000000007000000000000000004000000000000000000000000000000000000000000000e0000000000000000e00200000000000000000000000000000000000000000004010000000000000000000000000000000000000000000000000000000000000a0000000000000000047c117a110000000000000000000000000000000000000e0000000000000000e10200000000000000000000000000000000000000000007000000000000000000000000000000000000000000000000000000000000000c000001000100000001000000000000000000000000000000000000000000000c000001000100000000000000000000000000000000a079c3080000000000000e000000000200000021020000000000000000000000000000000000000000000e0000020000000000600100000000000000000000000000000000000000000007000000000000000003242c00000000000000000000000000000000000000000e0000000002000000610100000000000000000000000000000000000000000002000002000200000000040000000000000000000000000000000000000000000c000001000100000001200000000000000000000000000000000000000000000c0000010001000000000000000000000000000000000000000000000000000007000000000000000003242c00000000000000000000000000000000000000000e0000000002000000610100000000000000000000000000000000000000000002000002000200000000240000000000000000000000000000000000000000000c000001000100000001290000000000000000000000000000000000000000000c0000010001000000000000000000000000000000000000000000000000000007000000000000000003242c00000000000000000000000000000000000000000e0000000002000000610100000000000000000000000000000000000000000002000002000200000000440000000000000000000000000000000000000000000c0000010001000000014944495551494c5f544e4549434946460000000000000c00000100010000000055534e49203a7269615070617773584400000000000007000000000000000003242c00000000000000000000000000000000000000000e0000000002000000610100000000000000000000000000000000000000000002000002000200000000640000000000000000000000000000000000000000000c000001000100000001000000000000000000000000000000000000000000000c000001000100000000000000000000004445544e494d5f595400000000000007000000000000000003242c00000000000000000000000000000000000000000c000002000200000001840000000000000000000000000000000000000000000c000002000200000000000000000000000000000000000000000000000000000e000002000000000000000000000000000000000000000000000000000000000c000002000200000001000000000000000000000000000000000000000000000c000002000200000000000000000000000000000000000000000000000000000e0000020000000000600300000000000000000000000000000000000000000018000002000400000000050000000000000000000000000000000000000000000e000004000000000060020000000000000000000000000000000000000000000e00000000020000006101000000000000000000000000000000000000000000020200040001000000000000000000000000000000000000000000000000000007000000000000000003fc2b00000000000000000000000000000000000000000c000002000200000001200000000000000000000000000000000000000000000c000002000200000000000000000000000000000000000000000000000000000e0000000004000000610200000000000000000000000000000000000000000008040002000200000000000000000000000000000000000000000000000000000e020001000000000000010000000000000000000000000000000000000000000e0000000002000000610300000000000000000000000000000000000000000002000002000200000000010000000000000000000000000000000000000000000c000004000400000001040000000000000000000000000000000000000000000c0000040004000000000000000000000000000000000000000000000000000004020004000000000000000000000000000000000000000000000000000000000a0000000000000000029a11ab110000000000000000000000000000000000000e00000000020000006101000000000000000000000000000000000000000000020000020001000000008000000000000000000000000000000000000000000007000000000000000003fc2b00000000000000000000000000000000000000000c000002000200000001ffffffffffffffffffffffffffffffff0000000000000c000002000200000000ffffffffffffffffffffffff000000000000000000000e000000000400000001050000000000000000000000000000000000000000001a040002000200000002000000000000000000000000000000000000000000000c000004000400000001000000000000000000000000000000000000000000000c000004000400000000000000000000000000000000ffffffff0000000000001a010004000400000002000000000000000000000000000000000000000000001a040002000200000004000000000000000000000000000000000000000000000e000002000000000000050000000000000000000000000000000000000000000e0000000000000000e10200000000000000000000000000000000000000000007000000000000000004000000000000000000000000000000000000000000000e0000000000000000e0020000000000000000000000000000000000000000000c000002000200000001000000000000000000000000000000000000000000000c000002000200000000000000000000000000000000000000000000000000000502000000010000000100000000000000000000000000000000000000000000070000000000000000031e2a00000000000000000000000000000000000000000a000000000000000002bf11c0110000000000000000000000000000000000000a000000000000000001291229120000000000000000000000000000000000000c000020002000000001000000000000000000000000000000000000000000000c0000200020000000000000000000000000000000000000000000000000000005200001000000000000000000000000000000000000000000000000000000000e000020000000000020000000000000000000000000000000000000000000000c000002000200000001010000000000000000000000000000000000000000000c000002000200000000000000000000000000000000000000000000000000000e0000020000000000200100000000000000000000000000000000000000000010000000000000000000000000000000000000000000000000000000000000000c000002000200000001400000000000000000000000000000000000000000000c000002000200000000000000000000000000000000000000000000000000000e000002000000000040000000000000000000000000000000000000000000000c000002000200000001200000000000000000000000000000000000000000000c000002000200000000000000000000000000000000000000000000000000000c000004000400000001020000000000000000000000000000000000000000000c00000400040000000000000000000000000000000000000000000000000000180000200008000000000500000000000000000000000000000000000000000008080002000800000000000000000000000000000000000000000000000000000e080000001000000021000000000000000000000000000000000000000000000e08001000000000004001000000000000000000000000000000000000000000020000200020000000000100000000000000000000000000000000000000000004200004000000000000000000000000000000000000000000000000000000000a000000000000000002cf11d6110000000000000000000000000000000000000c00000100010000000100000000ff03000000000000000000000000000000000c0000010001000000000000000000000000000000000000000000000000000007000000000000000003432c00000000000000000000000000000000000000000e000000000200000041010000000000000000000000000000000000000000000502000000010000000100000000000000000000000000000000000000000000070000000000000000031e2a00000000000000000000000000000000000000000a000000000000000002dd11de110000000000000000000000000000000000000a000000000000000001291229120000000000000000000000000000000000000e000001000000000060030000000000000000000000000000000000000000000c000002000200000001000000000000000000000000000000000000000000000c000002000200000000000000000000000000000000000000000000000000000e000002000000000020000000000000000000000000000000000000000000000c000004000400000001010000000000000000000000000000000000000000000c000004000400000000000000000000000000000000000000000000000000000e0000040000000000200100000000000000000000000000000000000000000010000000000000000000000000000000000000000000000000000000000000000c000004000400000001400000000000000000000000000000000000000000000c000004000400000000000000000000000000000000000000000000000000000e000004000000000040000000000000000000000000000000000000000000000c000004000400000001200000000000000000000000000000000000000000000c000004000400000000000000000000000000000000000000000000000000000c000008000800000001020000000000000000000000000000000000000000000c00000800080000000000000000000000000000000000000000000000000000180000020010000000000500000000000000000000000000000000000000000008100004001000000000000000000000000000000000000000000000000000000e100000002000000021000000000000000000000000000000000000000000000e10002000000000004001000000000000000000000000000000000000000000020000020002000000000100000000000000000000000000000000000000000004020008000000000000000000000000000000000000000000000000000000000a000000000000000002ed11f4110000000000000000000000000000000000000c00000100010000000100000000ff03000000000000000000000000000000000c0000010001000000000000000000000000000000000000000000000000000007000000000000000003432c00000000000000000000000000000000000000000e000000000200000041010000000000000000000000000000000000000000000e0000000004000000610300000000000000000000000000000000000000000005020004000000000000000000000000000000000000000000000000000000000c000001000100000001e80300000000000000000000000000000000000000000c000001000100000000000000000000000000000000000000000000000000000e000000000200000021020000000000000000000000000000000000000000000e0000020000000000600300000000000000000000000000000000000000000007000000000000000003242c00000000000000000000000000000000000000000e000000000800000061030000000000000000000000000000000000000000000c000002000200000001efb323f54d5af52816a1c463f1a72b950000000000000c000002000200000000aa8d37fc68b0c2699bc8e21bad52f2dd0000000000000c000004000400000001030000002000000000000000000000000000000000000c000004000400000000000000000000000000000000000000000000000000000504000200000000000a000000000000000000000000000000000000000000000c000002000200000001000000000000000000000000000000000000000000000c00000200020000000000000000000000000000000000000000000000000000050200020000000000020000000000000000000000000000000000000000000002000008001000000000200000000000000000000000000000000000000000000c000002000200000001e0ffffffffffffffffffffffffffffff0000000000000c000002000200000000ffffffffffffffffffffffffffffffff0000000000000e0000100000000000600200000000000000000000000000000000000000000004080002000000000000000000000000000000000000000000000000000000000a00000000000000000c0e1216120000000000000000000000000000000000000e0000000000000000e10200000000000000000000000000000000000000000007000000000000000000000000000000000000000000000000000000000000000c000002000200000001000000000000000000000000000000000000000000000c000002000200000000000000000000000000000000000000000000000000000520000200000000000200000000000000000000000000000000000000000000020000080008000000004000000000000000000000000000000000000000000004100008000000000000000000000000000000000000000000000000000000000a00000000000000000816120e120000000000000000000000000000000000000e00000800000000006003000000000000000000000000000000000000000000020800000001000000000000000000000000000000000000000000000000000007000000000000000003fc2b00000000000000000000000000000000000000000e000000001000000061020000000000000000000000000000000000000000000e00000000080000006103000000000000000000000000000000000000000000041000080002000000000000000000000000000000000000000000000000000002010000002000000000000000000000000000000000000000000000000000000c0000040004000000013f0000000000000000000000000000000000000000000c0000040004000000000000000000000000000000000000000000000000000004020004000000000000000000000000000000000000000000000000000000000a0000000000000000082112101200000000000000000000000000000000000002000008000100000000200000000000000000000000000000000000000000000e0000200000000000600100000000000000000000000000000000000000000007000000000000000003fc2b00000000000000000000000000000000000000000e000000001000000061020000000000000000000000000000000000000000000e000000000800000061030000000000000000000000000000000000000000000e0000000002000000610100000000000000000000000000000000000000000005020001000000000002000000000000000000000000000000000000000000000a000000000000000001131213120000000000000000000000000000000000000e0000000000000000e10200000000000000000000000000000000000000000007000000000000000004000000000000000000000000000000000000000000000e0000000000000000e0020000000000000000000000000000000000000000000e000001000000000060030000000000000000000000000000000000000000000c000004000400000001000000000000000000000000000000000000000000000c0000040004000000000000000000000000000000000000000000000000000005040000000100000001000000000000000000000000000000000000000000000e00000200000000006002000000000000000000000000000000000000000000070000000000000000034e2a00000000000000000000000000000000000000000a000000000000000002331234120000000000000000000000000000000000000a000000000000000001a412a4120000000000000000000000000000000000000c000020002000000001000000000000000000000000000000000000000000000c0000200020000000000000000000000000000000000000000000000000000005200001000000000000000000000000000000000000000000000000000000000c000002000200000001ffffffffffffffffffffffffffffffff0000000000000c000002000200000000ffffffff0000000000000000000000000000000000000e000000000400000061030000000000000000000000000000000000000000001a040002000200000002000000000000000000000000000000000000000000000e000002000000000060010000000000000000000000000000000000000000000e000002000000000020000000000000000000000000000000000000000000000c000002000200000001010000000000000000000000000000000000000000000c000002000200000000000000000000000000000000000000000000000000000e0000020000000000200100000000000000000000000000000000000000000010000000000000000000000000000000000000000000000000000000000000000c000002000200000001400000000000000000000000000000000000000000000c000002000200000000000000000000000000000000000000000000000000000e000002000000000040000000000000000000000000000000000000000000000c000002000200000001200000000000000000000000000000000000000000000c000002000200000000000000000000000000000000000000000000000000000c000004000400000001020000000000000000000000000000000000000000000c00000400040000000000000000000000000000000000000000000000000000180000200008000000000500000000000000000000000000000000000000000008080002000800000000000000000000000000000000000000000000000000000e080000001000000021000000000000000000000000000000000000000000000e08001000000000004001000000000000000000000000000000000000000000020000200020000000000100000000000000000000000000000000000000000004200004000000000000000000000000000000000000000000000000000000000a00000000000000000248124f120000000000000000000000000000000000000c00000100010000000100000000ff03000000000000000000000000000000000c0000010001000000000000000000000000000000000000000000000000000007000000000000000003432c00000000000000000000000000000000000000000e0000000002000000410100000000000000000000000000000000000000000005020000000100000001000000000000000000000000000000000000000000000e00000000020000006102000000000000000000000000000000000000000000070000000000000000034e2a00000000000000000000000000000000000000000a000000000000000002571258120000000000000000000000000000000000000a000000000000000001a412a4120000000000000000000000000000000000000e000001000000000060030000000000000000000000000000000000000000000e000000000200000061010000000000000000000000000000000000000000000e000002000000000020000000000000000000000000000000000000000000000c000002000200000001010000000000000000000000000000000000000000000c000002000200000000000000000000000000000000000000000000000000000e0000020000000000200100000000000000000000000000000000000000000010000000000000000000000000000000000000000000000000000000000000000c000002000200000001400000000000000000000000000000000000000000000c000002000200000000000000000000000000000000000000000000000000000e000002000000000040000000000000000000000000000000000000000000000c000002000200000001000000000000000000000000000000000000000000000c000002000200000000000000000000000000000000000000000000000000000c000004000400000001200000000000000000000000000000000000000000000c000004000400000000000000000000000000000000000000000000000000000c000008000800000001020000000000000000000000000000000000000000000c00000800080000000000000000000000000000000000000000000000000000180000020010000000000500000000000000000000000000000000000000000008100004001000000000000000000000000000000000000000000000000000000e100000002000000021000000000000000000000000000000000000000000000e10002000000000004001000000000000000000000000000000000000000000020000020002000000000100000000000000000000000000000000000000000004020008000000000000000000000000000000000000000000000000000000000a00000000000000000268126f120000000000000000000000000000000000000c00000100010000000100000000ff03000000000000000000000000000000000c0000010001000000000000000000000000000000000000000000000000000007000000000000000003432c00000000000000000000000000000000000000000e000000000200000041010000000000000000000000000000000000000000000e0000000004000000610300000000000000000000000000000000000000000005020004000000000000000000000000000000000000000000000000000000000e000000000200000021020000000000000000000000000000000000000000000e000002000000000060030000000000000000000000000000000000000000000e0000000001000000610200000000000000000000000000000000000000000007000000000000000003242c00000000000000000000000000000000000000000e000000000800000061030000000000000000000000000000000000000000000c000002000200000001efb323f54d5af52816a1c463f1a72b950000000000000c000002000200000000aa8d37fc68b0c2699bc8e21bad52f2dd0000000000000c000004000400000001030000002000000000000000000000000000000000000c000004000400000000000000000000000000000000000000000000000000000504000200000000000a000000000000000000000000000000000000000000000c000002000200000001000000000000000000000000000000000000000000000c000002000200000000000000000000000000000000000000000000000000000e00000000040000006101000000000000000000000000000000000000000000050200040000000000020000000000000000000000000000000000000000000002000008001000000000200000000000000000000000000000000000000000000c000002000200000001e0ffffffffffffffffffffffffffffff0000000000000c000002000200000000ffffffffffffffffffffffffffffffff0000000000000e0000100000000000600200000000000000000000000000000000000000000004080002000000000000000000000000000000000000000000000000000000000a00000000000000000c891291120000000000000000000000000000000000000e0000000000000000e10200000000000000000000000000000000000000000007000000000000000000000000000000000000000000000000000000000000000c000002000200000001000000000000000000000000000000000000000000000c000002000200000000000000000000000000000000000000000000000000000520000200000000000200000000000000000000000000000000000000000000020000080008000000004000000000000000000000000000000000000000000004100008000000000000000000000000000000000000000000000000000000000a000000000000000008911289120000000000000000000000000000000000000e00000800000000006003000000000000000000000000000000000000000000020800000001000000000000000000000000000000000000000000000000000007000000000000000003fc2b00000000000000000000000000000000000000000e000000001000000061020000000000000000000000000000000000000000000e00000000080000006103000000000000000000000000000000000000000000041000080002000000000000000000000000000000000000000000000000000002010000002000000000000000000000000000000000000000000000000000000c0000040004000000013f0000000000000000000000000000000000000000000c0000040004000000000000000000000000000000000000000000000000000004020004000000000000000000000000000000000000000000000000000000000a0000000000000000089c128b1200000000000000000000000000000000000002000008000100000000200000000000000000000000000000000000000000000e0000200000000000600100000000000000000000000000000000000000000007000000000000000003fc2b00000000000000000000000000000000000000000e000000001000000061020000000000000000000000000000000000000000000e000000000800000061030000000000000000000000000000000000000000000e0000000002000000610100000000000000000000000000000000000000000005020001000000000002000000000000000000000000000000000000000000000a0000000000000000018e128e120000000000000000000000000000000000000e0000000000000000e10200000000000000000000000000000000000000000007000000000000000004000000000000000000000000000000000000000000000e0000000000000000e00200000000000000000000000000000000000000000004010000000000000000000000000000000000000000000000000000000000000a000000000000000004ab12a9120000000000000000000000000000000000000e0000000000000000e10200000000000000000000000000000000000000000007000000000000000000000000000000000000000000000000000000000000000c000001000100000001000000000000000000000000000000000000000000000c000001000100000000000000000000000000000000a079c3080000000000000e000000000200000021020000000000000000000000000000000000000000000e0000020000000000600100000000000000000000000000000000000000000007000000000000000003242c00000000000000000000000000000000000000000e0000000002000000610100000000000000000000000000000000000000000002000002000200000000040000000000000000000000000000000000000000000c000001000100000001200000000000000000000000000000000000000000000c0000010001000000000000000000000000000000000000000000000000000007000000000000000003242c00000000000000000000000000000000000000000e0000000002000000610100000000000000000000000000000000000000000002000002000200000000240000000000000000000000000000000000000000000c000001000100000001140000000000000000000000000000000000000000000c0000010001000000000000000000000000000000000000000000000000000007000000000000000003242c00000000000000000000000000000000000000000e0000000002000000610100000000000000000000000000000000000000000002000002000200000000440000000000000000000000000000000000000000000c000001000100000001000000000000000000000000574f4c460000000000000c0000010001000000005245564f203a7269615070617773584400000000000007000000000000000003242c00000000000000000000000000000000000000000c000002000200000001640000000000000000000000000000000000000000000c000002000200000000000000000000000000000000000000000000000000000e000002000000000000000000000000000000000000000000000000000000000c000002000200000001000000000000000000000000000000000000000000000c000002000200000000000000000000000000000000000000000000000000000e0000020000000000600300000000000000000000000000000000000000000018000002000400000000050000000000000000000000000000000000000000000e000004000000000060020000000000000000000000000000000000000000000e00000000020000006101000000000000000000000000000000000000000000020200040001000000000000000000000000000000000000000000000000000007000000000000000003fc2b00000000000000000000000000000000000000000c000002000200000001200000000000000000000000000000000000000000000c000002000200000000000000000000000000000000000000000000000000000e0000000004000000610200000000000000000000000000000000000000000008040002000200000000000000000000000000000000000000000000000000000e020001000000000000010000000000000000000000000000000000000000000e0000000002000000610300000000000000000000000000000000000000000002000002000200000000010000000000000000000000000000000000000000000c000004000400000001030000000000000000000000000000000000000000000c0000040004000000000000000000000000000000000000000000000000000004020004000000000000000000000000000000000000000000000000000000000a000000000000000002c412d5120000000000000000000000000000000000000e00000000020000006101000000000000000000000000000000000000000000020000020001000000006000000000000000000000000000000000000000000007000000000000000003fc2b00000000000000000000000000000000000000000c000002000200000001ffffffffffffffffffffffffffffffff0000000000000c000002000200000000ffffffffffffffffffffffff000000000000000000000e000000000400000001040000000000000000000000000000000000000000001a040002000200000002000000000000000000000000000000000000000000000c000004000400000001000000000000000000000000000000000000000000000c000004000400000000000000000000000000000000ffffffff0000000000001a010004000400000002000000000000000000000000000000000000000000001a040002000200000004000000000000000000000000000000000000000000000e000002000000000000040000000000000000000000000000000000000000000e0000000000000000e10200000000000000000000000000000000000000000007000000000000000004000000000000000000000000000000000000000000000e0000000000000000e0030000000000000000000000000000000000000000000e000008000000000060010000000000000000000000000000000000000000000e0000040000000000600200000000000000000000000000000000000000000002010000002000000000000000000000000000000000000000000000000000000c0000080008000000016e0000000000000000000000000000000000000000000c000008000800000000000000000000000000000000000000000000000000000c000010001000000001010000000000000000000000000000000000000000000c000010001000000000000000000000000000000000000000000000000000000c000004000400000001010000000000000000000000000000000000000000000c000004000400000000000000000000000000000000000000000000000000000e0000020000000000600300000000000000000000000000000000000000000004020008000000000000000000000000000000000000000000000000000000000a000000000000000002f212f0120000000000000000000000000000000000000c000004000400000001000000000000000000000000000000000000000000000c000004000400000000000000000000000000000000000000000000000000000e0000200000000000600400000000000000000000000000000000000000000004200008000000000000000000000000000000000000000000000000000000000a000000000000000002f712f5120000000000000000000000000000000000000c000010001000000001000000000000000000000000000000000000000000000c000010001000000000000000000000000000000000000000000000000000001a100004000200000002000000000000000000000000000000000000000000001a0000020001000000020100000000000000000000000000000000000000000007000000000000000003a61200000000000000000000000000000000000000000a000000000000000002fb12fc120000000000000000000000000000000000000a0000000000000000010014001400000000000000000000000000000000000014000000000200000000020000000000000000000000000000000000000000001a000002000800000002ffffffff0000000000000000000000000000000000000c000004000400000001080000000000000000000000000000000000000000000c00000400040000000000000000000000000000000000000000000000000000050400000004000000010000000000000000000000000000000000000000000018000004000400000002e000000000000000000000000000000000000000000004080004000000000000000000000000000000000000000000000000000000000a0000000000000000028313041300000000000000000000000000000000000004020004000400000000000000000000000000000000000000000000000000001a000004000400000002ffffffff0000000000000000000000000000000000000e0000000000010000610400000000000000000000000000000000000000000004040000000000000000000000000000000000000000000000000000000000000a000000000000000004331309130000000000000000000000000000000000000e000000000800000061020000000000000000000000000000000000000000001a000008001000000002ffffffffffffffffffffffffffff000000000000000004100000000000000000000000000000000000000000000000000000000000000a00000000000000000433130d130000000000000000000000000000000000000e000000000800000061010000000000000000000000000000000000000000001a000008000800000002ffffffffffffffffffffffffffff000000000000000004080000000000000000000000000000000000000000000000000000000000000a000000000000000004331311130000000000000000000000000000000000000e0000000020000000610100000000000000000000000000000000000000000018000020002000000000700000000000000000000000000000000000000000000c0000400040000000010000000000000000000000000000ffff0000000000000c000040004000000000ffffffffffffffffffffffff000000000000000000001a20004000200000000200000000000000000000000000000000000000000000082000100010000000000000000000000000000000000000000000000000000006100004001000000000000000000000000000000000000000000000000000000c000020002000000001ffffffffffffffffffffffffffffffff0000000000000c000020002000000000ffffffffffffffffffffffffffffffff0000000000001a100020008000000008000000000000000000000000000000000000000000000c000020002000000001090000000000000000000000000000000000000000000c00002000200000000000000000000000000000000000000000000000000000052000000040000000010000000000000000000000000000000000000000000004400080000000000000000000000000000000000000000000000000000000000a000000000000000008ad132013000000000000000000000000000000000000021000400010000000000000000000000000000000000000000000000000000005200010000000000000000000000000000000000000000000000000000000000e0000000010000000610200000000000000000000000000000000000000000018000010001000000000700000000000000000000000000000000000000000000c0000200020000000010000000000000000000000000000ffff0000000000000c000020002000000000ffffffffffffffffffffffff000000000000000000001a10002000100000000200000000000000000000000000000000000000000000081000080008000000000000000000000000000000000000000000000000000006080004000400000000000000000000000000000000000000000000000000000c000008000800000001ffffffffffffffffffffffffffffffff0000000000000c000008000800000000ffffffffffffffffffffffffffffffff0000000000001a040008002000000008000000000000000000000000000000000000000000000c0000080008000000010a0000000000000000000000000000000000000000000c00000800080000000000000000000000000000000000000000000000000000050800000010000000010000000000000000000000000000000000000000000004100020000000000000000000000000000000000000000000000000000000000a000000000000000008cc133113000000000000000000000000000000000000020400100004000000000000000000000000000000000000000000000000000005080004000000000000000000000000000000000000000000000000000000000c000004000400000001080000000000000000000000000000000000000000000c0000040004000000000000000000000000000000000000000000000000000005040000000800000001000000000000000000000000000000000000000000000c0000100010000000010000000000000000000000000000ffff0000000000000c000010001000000000ffffffffffffffffffffffffffffffff0000000000001a080010000800000002000000000000000000000000000000000000000000001a000000011000000002ffffffffffffffffffffffffffff00000000000000001a0800100008000000040000000000000000000000000000000000000000000005040008000000000000000000000000000000000000000000000000000000000e0000000008000000610300000000000000000000000000000000000000000018000008000800000000700000000000000000000000000000000000000000000c0000100010000000010000000000000000000000000000ffff0000000000000c000010001000000000ffffffffffffffffffffffff000000000000000000001a0800100008000000020000000000000000000000000000000000000000000005040000001000000001000000000000000000000000000000000000000000000c000020002000000001ffffffffffffffffffffffffffff00000000000000000c000020002000000000000000000000000000000000ffffffff0000000000001a100020001000000002000000000000000000000000000000000000000000001a1000080008000000040000000000000000000000000000000000000000000005040008000000000000000000000000000000000000000000000000000000000c000004000400000001080000000000000000000000000000000000000000000c0000040004000000000000000000000000000000000000000000000000000005040000000800000001000000000000000000000000000000000000000000000c000010001000000001ffffffffffffffffffffffffffffffff0000000000000c000010001000000000ffffffffffffffffffffffff000000000000000000001a0800100008000000020000000000000000000000000000000000000000000018000002000200000000e00000000000000000000000000000000000000000001a08000200020000000400000000000000000000000000000000000000000000050400020000000000000000000000000000000000000000000000000000000005040000000200000001000000000000000000000000000000000000000000000e000002000000000060030000000000000000000000000000000000000000001a000002000100000002ffffffffffffffffffffffffffff00000000000000000e000000000200000021020000000000000000000000000000000000000000000e0000020000000000600400000000000000000000000000000000000000000007000000000000000003242c00000000000000000000000000000000000000000e0000000002000000610300000000000000000000000000000000000000000018000002000200000002700000000000000000000000000000000000000000001a000002000100000002ffffffffffffffffffffffffffff00000000000000000e00000000020000006104000000000000000000000000000000000000000000020000020002000000002000000000000000000000000000000000000000000007000000000000000003242c00000000000000000000000000000000000000000e000000000800000061040000000000000000000000000000000000000000000c000002000200000001d1bafbffa9032b060ee58bc7b4cae3890000000000000c000002000200000000ae176b72f7212f1c2471e0969a1e411c0000000000000c000004000400000001010000004000000000000000000000000000000000000c000004000400000000000000000000000000000000000000000000000000000504000200000000000a0000000000000000000000000000000000000000000002000008001000000000400000000000000000000000000000000000000000000c000002000200000001c0ffffffffffffffffffffffffffffff0000000000000c000002000200000000ffffffffffffffffffffffffffffffff0000000000000e0000100000000000600300000000000000000000000000000000000000000004080002000000000000000000000000000000000000000000000000000000000a00000000000000000c681370130000000000000000000000000000000000000e0000000000000000e10300000000000000000000000000000000000000000007000000000000000000000000000000000000000000000000000000000000000c000002000200000001000000000000000000000000000000000000000000000c000002000200000000000000000000000000000000000000000000000000000520000200000000000200000000000000000000000000000000000000000000020000080008000000004000000000000000000000000000000000000000000004100008000000000000000000000000000000000000000000000000000000000a000000000000000008701368130000000000000000000000000000000000000e00000800000000006004000000000000000000000000000000000000000000020800000001000000000000000000000000000000000000000000000000000007000000000000000003fc2b00000000000000000000000000000000000000000e000000001000000061030000000000000000000000000000000000000000000e00000000080000006104000000000000000000000000000000000000000000041000080002000000000000000000000000000000000000000000000000000002010000002000000000000000000000000000000000000000000000000000000c0000040004000000013f0000000000000000000000000000000000000000000c0000040004000000000000000000000000000000000000000000000000000004020004000000000000000000000000000000000000000000000000000000000a0000000000000000087b136a1300000000000000000000000000000000000002000008000100000000200000000000000000000000000000000000000000000e0000200000000000600200000000000000000000000000000000000000000007000000000000000003fc2b00000000000000000000000000000000000000000e000000001000000061030000000000000000000000000000000000000000000e000000000800000061040000000000000000000000000000000000000000000e0000000002000000610200000000000000000000000000000000000000000005020001000000000002000000000000000000000000000000000000000000000a0000000000000000016d136d130000000000000000000000000000000000000c000002000200000001000000000000000000000000000000000000000000000c000002000200000000000000000000000000000000717b484e0000000000000e000002000000000020000000000000000000000000000000000000000000000c000001000100000001110000000000000000000000000000000000000000000c000001000100000000000000000000000000000000000000000000000000000c000002000200000001040000000000000000000000000000000000000000000c0000020002000000000000000000000000000000000000000000000000000007000000000000000003242c00000000000000000000000000000000000000000c000002000200000001240000000000000000000000000000000000000000000c000002000200000000000000000000000000000000000000000000000000000e000002000000000000000000000000000000000000000000000000000000000c000004000400000001000000000000000000000000000000000000000000000c000004000400000000000000000000000000000000000000000000000000000c000002000200000001200000000000000000000000000000000000000000000c000002000200000000000000000000000000000000000000000000000000000a00000000000000000196139613000000000000000000000000000000000000020800000004000000000000000000000000000000000000000000000000000004100000000000000000000000000000000000000000000000000000000000000a00000000000000000a9613a213000000000000000000000000000000000000180000040008000000000500000000000000000000000000000000000000000008080002000800000000000000000000000000000000000000000000000000000e080000001000000021000000000000000000000000000000000000000000000e0800100000000000000100000000000000000000000000000000000000000002000004000800000000010000000000000000000000000000000000000000000c000010001000000001010000000000000000000000000000000000000000000c0000100010000000000000000000000000000000000000000000000000000004080004000000000000000000000000000000000000000000000000000000000a00000000000000000293139f130000000000000000000000000000000000000c000010001000000001000000000000000000000000000000000000000000000c000010001000000000000000000000000000000000000000000000000000000a000000000000000001931393130000000000000000000000000000000000000c000002000200000001ffffffffffffffffffffffffffffffff0000000000000c000002000200000000ffffffffffffffffffffffff000000000000000000000e000000000400000001020000000000000000000000000000000000000000001a040002000200000002000000000000000000000000000000000000000000000c000004000400000001000000000000000000000000000000000000000000000c000004000400000000000000000000000000000000ffffffff0000000000000e000000000800000021010000000000000000000000000000000000000000001a080004000400000002000000000000000000000000000000000000000000001a040002000200000004000000000000000000000000000000000000000000000e000002000000000000020000000000000000000000000000000000000000000a000000000000000001001400140000000000000000000000000000000000000c000002000200000001000000000000000000000000000000000000000000000c000002000200000000000000000000000000000000717b484e0000000000000e000002000000000020000000000000000000000000000000000000000000000c000001000100000001110000000000000000000000000000000000000000000c000001000100000000000000000000000000000000000000000000000000000c000002000200000001040000000000000000000000000000000000000000000c0000020002000000000000000000000000000000000000000000000000000007000000000000000003242c00000000000000000000000000000000000000000c000002000200000001240000000000000000000000000000000000000000000c000002000200000000000000000000000000000000000000000000000000000e000002000000000000000000000000000000000000000000000000000000000c000004000400000001000000000000000000000000000000000000000000000c000004000400000000000000000000000000000000000000000000000000000c000002000200000001200000000000000000000000000000000000000000000c000002000200000000000000000000000000000000000000000000000000000a000000000000000001c013c013000000000000000000000000000000000000020800000004000000000000000000000000000000000000000000000000000004100000000000000000000000000000000000000000000000000000000000000a00000000000000000ac013eb13000000000000000000000000000000000000180000040008000000000500000000000000000000000000000000000000000008080002000800000000000000000000000000000000000000000000000000000e080000001000000021000000000000000000000000000000000000000000000e0800100000000000000100000000000000000000000000000000000000000002000004000800000000010000000000000000000000000000000000000000000c000010001000000001010000000000000000000000000000000000000000000c0000100010000000000000000000000000000000000000000000000000000004080004000000000000000000000000000000000000000000000000000000000a000000000000000002bd13c9130000000000000000000000000000000000000c000010001000000001000000000000000000000000000000000000000000000c000010001000000000000000000000000000000000000000000000000000000a000000000000000001bd13bd130000000000000000000000000000000000000c000002000200000001000000000000000000000000000000000000000000000c000002000200000000000000000000000000000000717b484e0000000000000e000002000000000020000000000000000000000000000000000000000000000c000001000100000001110000000000000000000000000000000000000000000c000001000100000000000000000000000000000000000000000000000000000c000002000200000001040000000000000000000000000000000000000000000c0000020002000000000000000000000000000000000000000000000000000007000000000000000003242c00000000000000000000000000000000000000000c000002000200000001240000000000000000000000000000000000000000000c000002000200000000000000000000000000000000000000000000000000000e000002000000000000000000000000000000000000000000000000000000000c000004000400000001000000000000000000000000000000000000000000000c000004000400000000000000000000000000000000000000000000000000000c000002000200000001200000000000000000000000000000000000000000000c000002000200000000000000000000000000000000000000000000000000000a000000000000000001df13df13000000000000000000000000000000000000020800000004000000000000000000000000000000000000000000000000000004100000000000000000000000000000000000000000000000000000000000000a00000000000000000adf13f613000000000000000000000000000000000000180000040008000000000500000000000000000000000000000000000000000008080002000800000000000000000000000000000000000000000000000000000e080000001000000021000000000000000000000000000000000000000000000e0800100000000000000100000000000000000000000000000000000000000002000004000800000000010000000000000000000000000000000000000000000c000010001000000001010000000000000000000000000000000000000000000c0000100010000000000000000000000000000000000000000000000000000004080004000000000000000000000000000000000000000000000000000000000a000000000000000002dc13e8130000000000000000000000000000000000000c000010001000000001000000000000000000000000000000000000000000000c000010001000000000000000000000000000000000000000000000000000000a000000000000000001dc13dc130000000000000000000000000000000000000c000002000200000001ffffffffffffffffffffffffffffffff0000000000000c000002000200000000ffffffffffffffffffffffff000000000000000000000e000000000400000001020000000000000000000000000000000000000000001a040002000200000002000000000000000000000000000000000000000000000c000004000400000001000000000000000000000000000000000000000000000c000004000400000000000000000000000000000000ffffffff0000000000000e000000000800000021010000000000000000000000000000000000000000001a080004000400000002000000000000000000000000000000000000000000001a040002000200000004000000000000000000000000000000000000000000000e000002000000000000020000000000000000000000000000000000000000000a000000000000000001001400140000000000000000000000000000000000000c000002000200000001ffffffffffffffffffffffffffffffff0000000000000c000002000200000000ffffffffffffffffffffffff000000000000000000000e000000000400000001020000000000000000000000000000000000000000001a040002000200000002000000000000000000000000000000000000000000000c000004000400000001000000000000000000000000000000000000000000000c000004000400000000000000000000000000000000ffffffff0000000000000e000000000800000021010000000000000000000000000000000000000000001a080004000400000002000000000000000000000000000000000000000000001a040002000200000004000000000000000000000000000000000000000000000e000002000000000000020000000000000000000000000000000000000000000e0000000000000000e103000000000000000000000000000000000000000000070000000000000000040000000000000000000000000000000000000000000004020001000800000000000000000000000000000000000000000000000000000c000010001000000001200000000000000000000000000000000000000000000c000010001000000000000000000000000000000000000000000000000000000c000004000400000001000000000000000000000000000000000000000000000c000004000400000000000000000000000000000000000000800000000000000c000002000200000001000000000000000000000000000000000000000000000c0000020002000000000000000000000000000000000000008000000000000004080010000000000000000000000000000000000000000000000000000000000a0000000000000000020d140b140000000000000000000000000000000000000c000002000200000001000000000000000000000000000000000000000000000c000002000200000000000000000000000000000000000000000000000000001a080004001000000002000000000000000000000000000000000000000000000c000008000800000001000000000000000000000000000000000000000000000c0000080008000000000000000000000000000000000000008000000000000004100000000000000000000000000000000000000000000000000000000000000a000000000000000008141412140000000000000000000000000000000000000c000008000800000001000000000000000000000000000000000000000000000c0000080008000000000000000000000000000000000000000000000000000004100004000000000000000000000000000000000000000000000000000000000a00000000000000000417141614000000000000000000000000000000000000020200000008000000000000000000000000000000000000000000000000000004080000000000000000000000000000000000000000000000000000000000000a00000000000000000a1f14191400000000000000000000000000000000000007000000000000000003fc2b00000000000000000000000000000000000000000c000002000200000001ffffffffffffffffffffffffffffffff0000000000000c000002000200000000ffffffff00000000000000000000000000000000000004010002000000000000000000000000000000000000000000000000000000000a0000000000000000061e14231400000000000000000000000000000000000007000000000000000000000000000000000000000000000000000000000000000c000002000200000001000000000000000000000000000000000000000000000c000002000200000000000000000000000000000000000000000000000000000e0000020000000000000000000000000000000000000000000000000000000007000000000000000004000000000000000000000000000000000000000000000c000002000200000001000000000000000000000000000000000000000000000c000002000200000000000000000000000000000000000000000000000000000e00000200000000000000000000000000000000000000000000000000000000070000000000000000040000000000000000000000000000000000000000000004020001000800000000000000000000000000000000000000000000000000000c000010001000000001200000000000000000000000000000000000000000000c000010001000000000000000000000000000000000000000000000000000000c000004000400000001000000000000000000000000000000000000000000000c000004000400000000000000000000000000000000000000800000000000000c000002000200000001000000000000000000000000000000000000000000000c0000020002000000000000000000000000000000000000008000000000000004080010000000000000000000000000000000000000000000000000000000000a000000000000000002321430140000000000000000000000000000000000000c000002000200000001000000000000000000000000000000000000000000000c000002000200000000000000000000000000000000000000000000000000001a080004001000000002000000000000000000000000000000000000000000000c000008000800000001000000000000000000000000000000000000000000000c0000080008000000000000000000000000000000000000008000000000000004100000000000000000000000000000000000000000000000000000000000000a000000000000000008391437140000000000000000000000000000000000000c000008000800000001000000000000000000000000000000000000000000000c0000080008000000000000000000000000000000000000000000000000000004100004000000000000000000000000000000000000000000000000000000000a0000000000000000043c143b14000000000000000000000000000000000000020200000008000000000000000000000000000000000000000000000000000004080000000000000000000000000000000000000000000000000000000000000a00000000000000000a44143e1400000000000000000000000000000000000007000000000000000003fc2b00000000000000000000000000000000000000000c000002000200000001ff0000000000000000000000000000000000000000000c0000020002000000000000000000000000000000000000000000000000000004010002000000000000000000000000000000000000000000000000000000000a0000000000000000064314481400000000000000000000000000000000000007000000000000000000000000000000000000000000000000000000000000000c000002000200000001000000000000000000000000000000000000000000000c000002000200000000000000000000000000000000000000000000000000000e0000020000000000000000000000000000000000000000000000000000000007000000000000000004000000000000000000000000000000000000000000000c000002000200000001000000000000000000000000000000000000000000000c000002000200000000000000000000000000000000000000000000000000000e0000020000000000000000000000000000000000000000000000000000000007000000000000000004000000000000000000000000000000000000000000000e0000000000000000e0060000000000000000000000000000000000000000000e000002000000000060030000000000000000000000000000000000000000000e000001000000000060020000000000000000000000000000000000000000000c000002000200000001050000000000000000000000000000000000000000000c0000020002000000000000000000000000000000000000000000000000000005020000000200000001000000000000000000000000000000000000000000000e000002000000000060070000000000000000000000000000000000000000000e000000000200000021020000000000000000000000000000000000000000000e000002000000000060060000000000000000000000000000000000000000000c000001000100000001000000000000000000000000000000000000000000000c000001000100000000000000000000000000000000587e7e0100000000000007000000000000000003242c00000000000000000000000000000000000000000e000000001000000061060000000000000000000000000000000000000000000c000002000200000001ffffffffffffffffffffffffffffffff0000000000000c000002000200000000ffffffff0000000000000000000000000000000000000e000000000400000061070000000000000000000000000000000000000000001a040002000400000002000000000000000000000000000000000000000000000c000002000200000001040000000000000000000000000000000000000000000c000002000200000000000000000000000000000000000000000000000000000e0000040000000000600500000000000000000000000000000000000000000004040002000000000000000000000000000000000000000000000000000000000a0000000000000000048e14621400000000000000000000000000000000000010000000000000000000000000000000000000000000000000000000000000000e00000200000000004000000000000000000000000000000000000000000000021000000001000000000000000000000000000000000000000000000000000007000000000000000003fc2b00000000000000000000000000000000000000000c000002000200000001ffffffffffffffffffffffffffffffff0000000000000c000002000200000000ffffffffffffffffffffffff000000000000000000000e000000000400000041010000000000000000000000000000000000000000001a040002000200000002000000000000000000000000000000000000000000000c000004000400000001000000000000000000000000000000000000000000000c000004000400000000000000000000000000000000ffffffff0000000000001a010004000400000002000000000000000000000000000000000000000000001a040002000200000004000000000000000000000000000000000000000000000e000002000000000040010000000000000000000000000000000000000000000e00000000020000006105000000000000000000000000000000000000000000180000020001000000002000000000000000000000000000000000000000000007000000000000000003432c00000000000000000000000000000000000000000e000000001000000061060000000000000000000000000000000000000000000c000002000200000001000000000000000000000000000000000000000000000c000002000200000000000000000000000000000000000000000000000000000e000001000000000060040000000000000000000000000000000000000000000a0000000000000000017a147a140000000000000000000000000000000000000e0000000010000000610600000000000000000000000000000000000000000004040000000000000000000000000000000000000000000000000000000000000a00000000000000000a7a148b140000000000000000000000000000000000000e00000200000000006007000000000000000000000000000000000000000000180000020004000000000500000000000000000000000000000000000000000002100004000200000000000000000000000000000000000000000000000000000c000008000800000001200000000000000000000000000000000000000000000c0000080008000000000000000000000000000000000000000000000000000008040008000400000000000000000000000000000000000000000000000000000e0400000001000000410100000000000000000000000000000000000000000007000000000000000003242c00000000000000000000000000000000000000000e0000000008000000610700000000000000000000000000000000000000000002000008000200000000010000000000000000000000000000000000000000000c000004000400000001010000000000000000000000000000000000000000000c0000040004000000000000000000000000000000000000000000000000000004020008000000000000000000000000000000000000000000000000000000000a000000000000000002771488140000000000000000000000000000000000000c000004000400000001000000000000000000000000000000000000000000000c000004000400000000000000000000000000000000000000000000000000000a000000000000000001771477140000000000000000000000000000000000000e0000000002000000610400000000000000000000000000000000000000000004020000000000000000000000000000000000000000000000000000000000000a000000000000000004a9158e140000000000000000000000000000000000000e000000000200000041000000000000000000000000000000000000000000001a000002000200000002ffffffff000000000000000000000000000000000000020000020002000000001f0000000000000000000000000000000000000000001a000002000800000002e0ffffff01000000000000000000000000000000000002080010000200000000000000000000000000000000000000000000000000000c000004000400000001010000000000000000000000000000000000000000000c0000040004000000000000000000000000000000000000000000000000000004020008000000000000000000000000000000000000000000000000000000000a000000000000000002991497140000000000000000000000000000000000000c000004000400000001000000000000000000000000000000000000000000000c000004000400000000000000000000000000000000000000000000000000000c000008000800000001ffffffffffffffff00000000000000000000000000000c0000080008000000000000000000000000000000000000000000000000000004020008000000000000000000000000000000000000000000000000000000000a00000000000000000854159d1400000000000000000000000000000000000004040000000000000000000000000000000000000000000000000000000000000a00000000000000000a54159f140000000000000000000000000000000000000e000002000000000020020000000000000000000000000000000000000000000e000000000200000041000000000000000000000000000000000000000000001a000002000200000002ffffffff0000000000000000000000000000000000000202001000020000000000000000000000000000000000000000000000000000021000000001000000000000000000000000000000000000000000000000000007000000000000000003021400000000000000000000000000000000000000000a000000000000000002a614a8140000000000000000000000000000000000000e000001000000000060040000000000000000000000000000000000000000000a000000000000000001a715a7150000000000000000000000000000000000000e000001000000000060040000000000000000000000000000000000000000000c000001000100000001000000000000000000000000000000000000000000000c0000010001000000000000000000000000000000002a04f72f0000000000000e000000000200000021020000000000000000000000000000000000000000000e0000020000000000600600000000000000000000000000000000000000000007000000000000000003242c00000000000000000000000000000000000000000e000000001000000061060000000000000000000000000000000000000000000c000002000200000001040000000000000000000000000000000000000000000c000002000200000000000000000000000000000000000000000000000000000e0000000004000000610500000000000000000000000000000000000000000004040002000000000000000000000000000000000000000000000000000000000a000000000000000004e014b41400000000000000000000000000000000000010000000000000000000000000000000000000000000000000000000000000000e00000200000000004000000000000000000000000000000000000000000000021000000001000000000000000000000000000000000000000000000000000007000000000000000003fc2b00000000000000000000000000000000000000000c000002000200000001ffffffffffffffffffffffffffffffff0000000000000c000002000200000000ffffffffffffffffffffffff000000000000000000000e000000000400000041010000000000000000000000000000000000000000001a040002000200000002000000000000000000000000000000000000000000000c000004000400000001000000000000000000000000000000000000000000000c000004000400000000000000000000000000000000ffffffff0000000000001a010004000400000002000000000000000000000000000000000000000000001a040002000200000004000000000000000000000000000000000000000000000e000002000000000040010000000000000000000000000000000000000000000e00000000020000006105000000000000000000000000000000000000000000180000020001000000002000000000000000000000000000000000000000000007000000000000000003432c00000000000000000000000000000000000000000e000000001000000061060000000000000000000000000000000000000000000c000002000200000001000000000000000000000000000000000000000000000c000002000200000000000000000000000000000000000000000000000000000e000001000000000060050000000000000000000000000000000000000000000a000000000000000001cc14cc140000000000000000000000000000000000000e0000000010000000610600000000000000000000000000000000000000000004040000000000000000000000000000000000000000000000000000000000000a00000000000000000acc14dd140000000000000000000000000000000000000e00000200000000006007000000000000000000000000000000000000000000180000020004000000000500000000000000000000000000000000000000000002100004000200000000000000000000000000000000000000000000000000000c000008000800000001200000000000000000000000000000000000000000000c0000080008000000000000000000000000000000000000000000000000000008040008000400000000000000000000000000000000000000000000000000000e0400000001000000410100000000000000000000000000000000000000000007000000000000000003242c00000000000000000000000000000000000000000e0000000008000000610700000000000000000000000000000000000000000002000008000200000000010000000000000000000000000000000000000000000c000004000400000001010000000000000000000000000000000000000000000c0000040004000000000000000000000000000000000000000000000000000004020008000000000000000000000000000000000000000000000000000000000a000000000000000002c914da140000000000000000000000000000000000000c000004000400000001000000000000000000000000000000000000000000000c000004000400000000000000000000000000000000000000000000000000000a000000000000000001c914c9140000000000000000000000000000000000000e0000000002000000610500000000000000000000000000000000000000000004020000000000000000000000000000000000000000000000000000000000000a0000000000000000041d16e0140000000000000000000000000000000000000e000000000200000041000000000000000000000000000000000000000000001a000002000200000002ffffffff000000000000000000000000000000000000020000020002000000001f0000000000000000000000000000000000000000001a000002000800000002e0ffffff01000000000000000000000000000000000002080010000200000000000000000000000000000000000000000000000000000c000004000400000001010000000000000000000000000000000000000000000c0000040004000000000000000000000000000000000000000000000000000004020008000000000000000000000000000000000000000000000000000000000a000000000000000002eb14e9140000000000000000000000000000000000000c000004000400000001000000000000000000000000000000000000000000000c000004000400000000000000000000000000000000000000000000000000000c000008000800000001ffffffffffffffff00000000000000000000000000000c0000080008000000000000000000000000000000000000000000000000000004020008000000000000000000000000000000000000000000000000000000000a0000000000000000087315ef1400000000000000000000000000000000000004040000000000000000000000000000000000000000000000000000000000000a00000000000000000a7315f1140000000000000000000000000000000000000e000002000000000020020000000000000000000000000000000000000000000e000000000200000041000000000000000000000000000000000000000000001a000002000200000002ffffffff0000000000000000000000000000000000000202001000020000000000000000000000000000000000000000000000000000021000000001000000000000000000000000000000000000000000000000000007000000000000000003271400000000000000000000000000000000000000000a000000000000000002f814fa140000000000000000000000000000000000000e000001000000000060060000000000000000000000000000000000000000000a000000000000000001a715a7150000000000000000000000000000000000000e000001000000000060060000000000000000000000000000000000000000000c000002000200000001ffffffffffffffffffffffffffffffff0000000000000c000002000200000000ffffffff0000000000000000000000000000000000000e000000000400000061040000000000000000000000000000000000000000001a040002000400000002000000000000000000000000000000000000000000000c0000020002000000010b0000000000000000000000000000000000000000000c0000020002000000000000000000000000000000000000000000000000000005020000000200000001000000000000000000000000000000000000000000000e0000040000000000600700000000000000000000000000000000000000000004040000000000000000000000000000000000000000000000000000000000000a000000000000000004431505150000000000000000000000000000000000000e0000020000000000600100000000000000000000000000000000000000000004020000000000000000000000000000000000000000000000000000000000000a0000000000000000044a1508150000000000000000000000000000000000000e000000000200000061020000000000000000000000000000000000000000001a000002000100000002ffffffffffffffffffffffffffff00000000000000000e000000000200000061030000000000000000000000000000000000000000001a000002000200000002ffffffffffffffffffffffffffff000000000000000007000000000000000003862b00000000000000000000000000000000000000000a0000000000000000020e150f150000000000000000000000000000000000000a000000000000000001a715a71500000000000000000000000000000000000007000000000000000003aa2900000000000000000000000000000000000000000a000000000000000002111513150000000000000000000000000000000000000e000001000000000060050000000000000000000000000000000000000000000a000000000000000001a715a7150000000000000000000000000000000000000e000001000000000060050000000000000000000000000000000000000000000e0000000001000000610100000000000000000000000000000000000000000007000000000000000003aa2900000000000000000000000000000000000000000a000000000000000002171518150000000000000000000000000000000000000a000000000000000001a715a71500000000000000000000000000000000000002010000000400000000000000000000000000000000000000000000000000000e000000000200000061050000000000000000000000000000000000000000000e0000040000000000600300000000000000000000000000000000000000000004020004000000000000000000000000000000000000000000000000000000000a0000000000000000064a151d150000000000000000000000000000000000000c000002000200000001000000000000000000000000000000000000000000000c0000020002000000000000000000000000000000000000000000000000000005020000000200000001000000000000000000000000000000000000000000000e000002000000000060020000000000000000000000000000000000000000000e000000000100000061050000000000000000000000000000000000000000000e0000000002000000610300000000000000000000000000000000000000000007000000000000000003f82a00000000000000000000000000000000000000000a000000000000000002251526150000000000000000000000000000000000000a000000000000000001a715a71500000000000000000000000000000000000002010000000200000000000000000000000000000000000000000000000000000e0000000001000000610200000000000000000000000000000000000000000007000000000000000003862b00000000000000000000000000000000000000000a0000000000000000022a152c150000000000000000000000000000000000000e000001000000000060020000000000000000000000000000000000000000000a000000000000000001a715a7150000000000000000000000000000000000000e000001000000000060020000000000000000000000000000000000000000000e000000000200000061060000000000000000000000000000000000000000001a000002000200000002ff0000000000000000000000000000000000000000000e0000000001000000610500000000000000000000000000000000000000000007000000000000000003862b00000000000000000000000000000000000000000a000000000000000002321533150000000000000000000000000000000000000a000000000000000001a715a7150000000000000000000000000000000000000e00000000020000006103000000000000000000000000000000000000000000070000000000000000034e2a00000000000000000000000000000000000000000a000000000000000002361537150000000000000000000000000000000000000a000000000000000001a715a71500000000000000000000000000000000000004010000000000000000000000000000000000000000000000000000000000000a000000000000000004911639150000000000000000000000000000000000000e0000000002000000610200000000000000000000000000000000000000000004010002000000000000000000000000000000000000000000000000000000000a0000000000000000084a153c150000000000000000000000000000000000000e0000000002000000610200000000000000000000000000000000000000000008020001000200000000000000000000000000000000000000000000000000000e00000000010000006104000000000000000000000000000000000000000000070000000000000000032b1200000000000000000000000000000000000000000a000000000000000002411542150000000000000000000000000000000000000a000000000000000001a715a7150000000000000000000000000000000000000a0000000000000000014a154a1500000000000000000000000000000000000004020000000000000000000000000000000000000000000000000000000000000a0000000000000000044a1545150000000000000000000000000000000000000c0000020002000000010b0000000000000000000000000000000000000000000c000002000200000000000000000000000000000000000000000000000000000c000004000400000001000000000000000000000000000000000000000000000c0000040004000000000000000000000000000000000000000000000000000005020004000000000000000000000000000000000000000000000000000000000c000002000200000001010000000000000000000000000000000000000000000c000002000200000000000000000000000000000000000000000000000000000e0000000004000000610700000000000000000000000000000000000000000004040000000000000000000000000000000000000000000000000000000000000a00000000000000000a51154f150000000000000000000000000000000000000c000002000200000001000000000000000000000000000000000000000000000c000002000200000000000000000000000000000000000000000000000000001a000002000100000002010000000000000000000000000000000000000000000e0000000000000000e10600000000000000000000000000000000000000000007000000000000000000000000000000000000000000000000000000000000000c000002000200000001000000000000000000000000000000000000000000000c000002000200000000000000000000000000000000717b484e0000000000000e000002000000000020000000000000000000000000000000000000000000000c000001000100000001410000000000000000000000000000000000000000000c000001000100000000000000000000000000000000000000000000000000000c000002000200000001040000000000000000000000000000000000000000000c0000020002000000000000000000000000000000000000000000000000000007000000000000000003242c00000000000000000000000000000000000000000c000002000200000001240000000000000000000000000000000000000000000c000002000200000000000000000000000000000000000000000000000000000e000002000000000000000000000000000000000000000000000000000000000c000004000400000001000000000000000000000000000000000000000000000c000004000400000000000000000000000000000000000000000000000000000c000002000200000001200000000000000000000000000000000000000000000c000002000200000000000000000000000000000000000000000000000000000a00000000000000000167156715000000000000000000000000000000000000020800000004000000000000000000000000000000000000000000000000000004100000000000000000000000000000000000000000000000000000000000000a00000000000000000a67159215000000000000000000000000000000000000180000040008000000000500000000000000000000000000000000000000000008080002000800000000000000000000000000000000000000000000000000000e080000001000000021000000000000000000000000000000000000000000000e0800100000000000000100000000000000000000000000000000000000000002000004000800000000010000000000000000000000000000000000000000000c000010001000000001010000000000000000000000000000000000000000000c0000100010000000000000000000000000000000000000000000000000000004080004000000000000000000000000000000000000000000000000000000000a000000000000000002641570150000000000000000000000000000000000000c000010001000000001000000000000000000000000000000000000000000000c000010001000000000000000000000000000000000000000000000000000000a000000000000000001641564150000000000000000000000000000000000000c000002000200000001000000000000000000000000000000000000000000000c000002000200000000000000000000000000000000717b484e0000000000000e000002000000000020000000000000000000000000000000000000000000000c000001000100000001410000000000000000000000000000000000000000000c000001000100000000000000000000000000000000000000000000000000000c000002000200000001040000000000000000000000000000000000000000000c0000020002000000000000000000000000000000000000000000000000000007000000000000000003242c00000000000000000000000000000000000000000c000002000200000001240000000000000000000000000000000000000000000c000002000200000000000000000000000000000000000000000000000000000e000002000000000000000000000000000000000000000000000000000000000c000004000400000001000000000000000000000000000000000000000000000c000004000400000000000000000000000000000000000000000000000000000c000002000200000001200000000000000000000000000000000000000000000c000002000200000000000000000000000000000000000000000000000000000a00000000000000000186158615000000000000000000000000000000000000020800000004000000000000000000000000000000000000000000000000000004100000000000000000000000000000000000000000000000000000000000000a00000000000000000a86159d15000000000000000000000000000000000000180000040008000000000500000000000000000000000000000000000000000008080002000800000000000000000000000000000000000000000000000000000e080000001000000021000000000000000000000000000000000000000000000e0800100000000000000100000000000000000000000000000000000000000002000004000800000000010000000000000000000000000000000000000000000c000010001000000001010000000000000000000000000000000000000000000c0000100010000000000000000000000000000000000000000000000000000004080004000000000000000000000000000000000000000000000000000000000a00000000000000000283158f150000000000000000000000000000000000000c000010001000000001000000000000000000000000000000000000000000000c000010001000000000000000000000000000000000000000000000000000000a000000000000000001831583150000000000000000000000000000000000000c000002000200000001ffffffffffffffffffffffffffffffff0000000000000c000002000200000000ffffffffffffffffffffffff000000000000000000000e000000000400000001020000000000000000000000000000000000000000001a040002000200000002000000000000000000000000000000000000000000000c000004000400000001000000000000000000000000000000000000000000000c000004000400000000000000000000000000000000ffffffff0000000000000e000000000800000021010000000000000000000000000000000000000000001a080004000400000002000000000000000000000000000000000000000000001a040002000200000004000000000000000000000000000000000000000000000e000002000000000000020000000000000000000000000000000000000000000a000000000000000001a715a7150000000000000000000000000000000000000c000002000200000001ffffffffffffffffffffffffffffffff0000000000000c000002000200000000ffffffffffffffffffffffff000000000000000000000e000000000400000001020000000000000000000000000000000000000000001a040002000200000002000000000000000000000000000000000000000000000c000004000400000001000000000000000000000000000000000000000000000c000004000400000000000000000000000000000000ffffffff0000000000000e000000000800000021010000000000000000000000000000000000000000001a080004000400000002000000000000000000000000000000000000000000001a040002000200000004000000000000000000000000000000000000000000000e000002000000000000020000000000000000000000000000000000000000000e0000000000000000e10600000000000000000000000000000000000000000007000000000000000004000000000000000000000000000000000000000000000c000008000800000001000000000000000000000000000000000000000000000c000008000800000000000000000000000000000000000000000000000000000e000000000200000021020000000000000000000000000000000000000000000e000002000000000060070000000000000000000000000000000000000000000e000000000200000041000000000000000000000000000000000000000000001a0000020004000000021f0000000000000000000000000000000000000000000e000004000000000060040000000000000000000000000000000000000000001a000002000200000002e0ffffff0000000000000000000000000000000000000e0000020000000000600300000000000000000000000000000000000000000018000002000200000002050000000000000000000000000000000000000000000e0000020000000000600500000000000000000000000000000000000000000004020000000000000000000000000000000000000000000000000000000000000a000000000000000004c415b6150000000000000000000000000000000000000e0000080000000000600600000000000000000000000000000000000000000018000008000400000000050000000000000000000000000000000000000000000e0000000002000000610700000000000000000000000000000000000000000002020004000200000000000000000000000000000000000000000000000000000c000008000800000001200000000000000000000000000000000000000000000c0000080008000000000000000000000000000000000000000000000000000008040008000400000000000000000000000000000000000000000000000000000e0400000001000000410100000000000000000000000000000000000000000007000000000000000003242c00000000000000000000000000000000000000000e0000000008000000610600000000000000000000000000000000000000000002000008000800000000010000000000000000000000000000000000000000000e0000000002000000610500000000000000000000000000000000000000000004080002000000000000000000000000000000000000000000000000000000000a000000000000000002b615c4150000000000000000000000000000000000000e000000000200000061070000000000000000000000000000000000000000000e0000000002000000610400000000000000000000000000000000000000000004020000000000000000000000000000000000000000000000000000000000000a000000000000000004e415c8150000000000000000000000000000000000000e0000000002000000610400000000000000000000000000000000000000000018000002000200000000030000000000000000000000000000000000000000000c000004000400000001000100000000000000000000000000000000000000000c0000040004000000000000000000000000000000000000000000000000000004040002000400000000000000000000000000000000000000000000000000000c000008000800000001ffffffffffffffffffffffffffffffff0000000000000c000008000800000000ffffffffffffffffffffffffffffffff00000000000018040008000400000000000000000000000000000000000000000000000000000c000010001000000001200000000000000000000000000000000000000000000c000010001000000000000000000000000000000000000000000000000000000e0000000020000000610300000000000000000000000000000000000000000008200010001000000000000000000000000000000000000000000000000000000e100000001000000041010000000000000000000000000000000000000000001a100004000400000002000000000000000000000000000000000000000000000e0000040000000000600600000000000000000000000000000000000000000018020008000200000002000000000000000000000000000000000000000000000e000002000000000060040000000000000000000000000000000000000000000e0000000002000000610700000000000000000000000000000000000000000002020020000200000000000000000000000000000000000000000000000000000e00000200000000006005000000000000000000000000000000000000000000020200000001000000000000000000000000000000000000000000000000000007000000000000000003fc2b00000000000000000000000000000000000000000e000000000200000061040000000000000000000000000000000000000000001a010002000200000002000000000000000000000000000000000000000000000e000000000400000061060000000000000000000000000000000000000000001a040002000100000004000000000000000000000000000000000000000000000e0000000002000000610500000000000000000000000000000000000000000007000000000000000003242c00000000000000000000000000000000000000000c000008000800000001000000000000000000000000000000000000000000000c000008000800000000000000000000000000000000000000000000000000000e000000000400000041000000000000000000000000000000000000000000001a0000040002000000021f0000000000000000000000000000000000000000000e000002000000000060030000000000000000000000000000000000000000000e000004000000000060020000000000000000000000000000000000000000001a000004000200000002ffffffff0000000000000000000000000000000000000e0000020000000000000000000000000000000000000000000000000000000018000002000200000002050000000000000000000000000000000000000000000e000000000400000061070000000000000000000000000000000000000000000e0000020000000000600400000000000000000000000000000000000000000004020000000000000000000000000000000000000000000000000000000000000a0000000000000000040116f1150000000000000000000000000000000000000e0000080000000000600600000000000000000000000000000000000000000018000008000400000000050000000000000000000000000000000000000000000e000004000000000060050000000000000000000000000000000000000000000e00000000020000006107000000000000000000000000000000000000000000020200040001000000000000000000000000000000000000000000000000000007000000000000000003fc2b00000000000000000000000000000000000000000e000000000800000061060000000000000000000000000000000000000000000c000002000200000001200000000000000000000000000000000000000000000c000002000200000000000000000000000000000000000000000000000000000e0000000004000000610500000000000000000000000000000000000000000008040002000200000000000000000000000000000000000000000000000000000e0200010000000000000100000000000000000000000000000000000000000002000008000800000000010000000000000000000000000000000000000000000e0000000002000000610400000000000000000000000000000000000000000004080002000000000000000000000000000000000000000000000000000000000a000000000000000002f11501160000000000000000000000000000000000000e0000000002000000610300000000000000000000000000000000000000000004020000000000000000000000000000000000000000000000000000000000000a000000000000000004a71504160000000000000000000000000000000000000e000000000200000061020000000000000000000000000000000000000000001a000002000400000002e0ffffff0000000000000000000000000000000000000e000004000000000060060000000000000000000000000000000000000000000e00000000020000006107000000000000000000000000000000000000000000020200040001000000000000000000000000000000000000000000000000000007000000000000000003fc2b00000000000000000000000000000000000000000c000002000200000001200000000000000000000000000000000000000000000c000002000200000000000000000000000000000000000000000000000000000e0000000004000000610600000000000000000000000000000000000000000008040002000200000000000000000000000000000000000000000000000000000e0000000004000000610300000000000000000000000000000000000000000018000004000400000000030000000000000000000000000000000000000000000c000008000800000001ffffffffffffffffffffffffffffffff0000000000000c000008000800000000ffffffffffffffffffffffffffffffff00000000000018040008001000000002000000000000000000000000000000000000000000000e020000002000000001010000000000000000000000000000000000000000001a200010001000000002000000000000000000000000000000000000000000000c000020002000000001000100000000000000000000000000000000000000000c00002000200000000000000000000000000000000000000000000000000000042000040004000000000000000000000000000000000000000000000000000018040008000400000000000000000000000000000000000000000000000000001a010004000400000002000000000000000000000000000000000000000000001a040010000400000004000000000000000000000000000000000000000000000e020004000000000000010000000000000000000000000000000000000000000a000000000000000001a715a7150000000000000000000000000000000000000c000008000800000001000000000000000000000000000000000000000000000c000008000800000000000000000000000000000000000000000000000000000e000000000200000021020000000000000000000000000000000000000000000e000002000000000060070000000000000000000000000000000000000000000e000000000200000041000000000000000000000000000000000000000000001a0000020004000000021f0000000000000000000000000000000000000000000e000004000000000060040000000000000000000000000000000000000000001a000002000200000002e0ffffff0000000000000000000000000000000000000e0000020000000000600300000000000000000000000000000000000000000018000002000200000002050000000000000000000000000000000000000000000e0000020000000000600500000000000000000000000000000000000000000004020000000000000000000000000000000000000000000000000000000000000a00000000000000000438162a160000000000000000000000000000000000000e0000080000000000600600000000000000000000000000000000000000000018000008000400000000050000000000000000000000000000000000000000000e0000000002000000610700000000000000000000000000000000000000000002020004000200000000000000000000000000000000000000000000000000000c000008000800000001200000000000000000000000000000000000000000000c0000080008000000000000000000000000000000000000000000000000000008040008000400000000000000000000000000000000000000000000000000000e0400000001000000410100000000000000000000000000000000000000000007000000000000000003242c00000000000000000000000000000000000000000e0000000008000000610600000000000000000000000000000000000000000002000008000800000000010000000000000000000000000000000000000000000e0000000002000000610500000000000000000000000000000000000000000004080002000000000000000000000000000000000000000000000000000000000a0000000000000000022a1638160000000000000000000000000000000000000e000000000200000061070000000000000000000000000000000000000000000e0000000002000000610400000000000000000000000000000000000000000004020000000000000000000000000000000000000000000000000000000000000a00000000000000000458163c160000000000000000000000000000000000000e0000000002000000610400000000000000000000000000000000000000000018000002000200000000030000000000000000000000000000000000000000000c000004000400000001000100000000000000000000000000000000000000000c0000040004000000000000000000000000000000000000000000000000000004040002000400000000000000000000000000000000000000000000000000000c000008000800000001ffffffffffffffffffffffffffffffff0000000000000c000008000800000000ffffffffffffffffffffffffffffffff00000000000018040008000400000000000000000000000000000000000000000000000000000c000010001000000001200000000000000000000000000000000000000000000c000010001000000000000000000000000000000000000000000000000000000e0000000020000000610300000000000000000000000000000000000000000008200010001000000000000000000000000000000000000000000000000000000e100000001000000041010000000000000000000000000000000000000000001a100004000400000002000000000000000000000000000000000000000000000e0000040000000000600600000000000000000000000000000000000000000018020008000200000002000000000000000000000000000000000000000000000e000002000000000060040000000000000000000000000000000000000000000e0000000002000000610700000000000000000000000000000000000000000002020020000200000000000000000000000000000000000000000000000000000e00000200000000006005000000000000000000000000000000000000000000020200000001000000000000000000000000000000000000000000000000000007000000000000000003fc2b00000000000000000000000000000000000000000e000000000200000061040000000000000000000000000000000000000000001a010002000200000002000000000000000000000000000000000000000000000e000000000400000061060000000000000000000000000000000000000000001a040002000100000004000000000000000000000000000000000000000000000e0000000002000000610500000000000000000000000000000000000000000007000000000000000003242c00000000000000000000000000000000000000000c000008000800000001000000000000000000000000000000000000000000000c000008000800000000000000000000000000000000000000000000000000000e000000000400000041000000000000000000000000000000000000000000001a0000040002000000021f0000000000000000000000000000000000000000000e000002000000000060030000000000000000000000000000000000000000000e000004000000000060020000000000000000000000000000000000000000001a000004000200000002ffffffff0000000000000000000000000000000000000e0000020000000000000000000000000000000000000000000000000000000018000002000200000002050000000000000000000000000000000000000000000e000000000400000061070000000000000000000000000000000000000000000e0000020000000000600400000000000000000000000000000000000000000004020000000000000000000000000000000000000000000000000000000000000a000000000000000004751665160000000000000000000000000000000000000e0000080000000000600600000000000000000000000000000000000000000018000008000400000000050000000000000000000000000000000000000000000e000004000000000060050000000000000000000000000000000000000000000e00000000020000006107000000000000000000000000000000000000000000020200040001000000000000000000000000000000000000000000000000000007000000000000000003fc2b00000000000000000000000000000000000000000e000000000800000061060000000000000000000000000000000000000000000c000002000200000001200000000000000000000000000000000000000000000c000002000200000000000000000000000000000000000000000000000000000e0000000004000000610500000000000000000000000000000000000000000008040002000200000000000000000000000000000000000000000000000000000e0200010000000000000100000000000000000000000000000000000000000002000008000800000000010000000000000000000000000000000000000000000e0000000002000000610400000000000000000000000000000000000000000004080002000000000000000000000000000000000000000000000000000000000a000000000000000002651675160000000000000000000000000000000000000e0000000002000000610300000000000000000000000000000000000000000004020000000000000000000000000000000000000000000000000000000000000a000000000000000004a71578160000000000000000000000000000000000000e000000000200000061020000000000000000000000000000000000000000001a000002000400000002e0ffffff0000000000000000000000000000000000000e000004000000000060060000000000000000000000000000000000000000000e00000000020000006107000000000000000000000000000000000000000000020200040001000000000000000000000000000000000000000000000000000007000000000000000003fc2b00000000000000000000000000000000000000000c000002000200000001200000000000000000000000000000000000000000000c000002000200000000000000000000000000000000000000000000000000000e0000000004000000610600000000000000000000000000000000000000000008040002000200000000000000000000000000000000000000000000000000000e0000000004000000610300000000000000000000000000000000000000000018000004000400000000030000000000000000000000000000000000000000000c000008000800000001ffffffffffffffffffffffffffffffff0000000000000c000008000800000000ffffffffffffffffffffffffffffffff00000000000018040008001000000002000000000000000000000000000000000000000000000e020000002000000001010000000000000000000000000000000000000000001a200010001000000002000000000000000000000000000000000000000000000c000020002000000001000100000000000000000000000000000000000000000c00002000200000000000000000000000000000000000000000000000000000042000040004000000000000000000000000000000000000000000000000000018040008000400000000000000000000000000000000000000000000000000001a010004000400000002000000000000000000000000000000000000000000001a040010000400000004000000000000000000000000000000000000000000000e020004000000000000010000000000000000000000000000000000000000000a000000000000000001a715a7150000000000000000000000000000000000000c000002000200000001000000000000000000000000000000000000000000000c000002000200000000000000000000000000000000717b484e0000000000000e000002000000000020000000000000000000000000000000000000000000000c000001000100000001120000000000000000000000000000000000000000000c000001000100000000000000000000000000000000000000000000000000000c000002000200000001040000000000000000000000000000000000000000000c0000020002000000000000000000000000000000000000000000000000000007000000000000000003242c00000000000000000000000000000000000000000c000002000200000001240000000000000000000000000000000000000000000c000002000200000000000000000000000000000000000000000000000000000e000002000000000000000000000000000000000000000000000000000000000c000004000400000001000000000000000000000000000000000000000000000c000004000400000000000000000000000000000000000000000000000000000c000002000200000001200000000000000000000000000000000000000000000c000002000200000000000000000000000000000000000000000000000000000a000000000000000001a416a416000000000000000000000000000000000000020800000004000000000000000000000000000000000000000000000000000004100000000000000000000000000000000000000000000000000000000000000a00000000000000000aa416b016000000000000000000000000000000000000180000040008000000000500000000000000000000000000000000000000000008080002000800000000000000000000000000000000000000000000000000000e080000001000000021000000000000000000000000000000000000000000000e0800100000000000000100000000000000000000000000000000000000000002000004000800000000010000000000000000000000000000000000000000000c000010001000000001010000000000000000000000000000000000000000000c0000100010000000000000000000000000000000000000000000000000000004080004000000000000000000000000000000000000000000000000000000000a000000000000000002a116ad160000000000000000000000000000000000000c000010001000000001000000000000000000000000000000000000000000000c000010001000000000000000000000000000000000000000000000000000000a000000000000000001a116a1160000000000000000000000000000000000000c000002000200000001ffffffffffffffffffffffffffffffff0000000000000c000002000200000000ffffffffffffffffffffffff000000000000000000000e000000000400000001020000000000000000000000000000000000000000001a040002000200000002000000000000000000000000000000000000000000000c000004000400000001000000000000000000000000000000000000000000000c000004000400000000000000000000000000000000ffffffff0000000000000e000000000800000021010000000000000000000000000000000000000000001a080004000400000002000000000000000000000000000000000000000000001a040002000200000004000000000000000000000000000000000000000000000e000002000000000000020000000000000000000000000000000000000000000a000000000000000001a715a7150000000000000000000000000000000000000e0000000000000000e00e0000000000000000000000000000000000000000000e000002000000000060090000000000000000000000000000000000000000000e0000010000000000600f0000000000000000000000000000000000000000000c0000020002000000010d0000000000000000000000000000000000000000000c0000020002000000000000000000000000000000000000000000000000000005020000000400000001000000000000000000000000000000000000000000000c000002000200000001010000000000000000000000000000000000000000000c0000020002000000000000000000000000000000000000000000000000000004040002000000000000000000000000000000000000000000000000000000000a000000000000000004c716c5160000000000000000000000000000000000000c000002000200000001000000000000000000000000000000000000000000000c000002000200000000000000000000000000000000000000000000000000001a0000020001000000020100000000000000000000000000000000000000000007000000000000000003f60d00000000000000000000000000000000000000000a000000000000000002ca16ce160000000000000000000000000000000000000e0000000002000000610f00000000000000000000000000000000000000000002000002000200000000e00100000000000000000000000000000000000000000e000002000000000060080000000000000000000000000000000000000000000a000000000000000001151c151c0000000000000000000000000000000000000e0000000002000000610f00000000000000000000000000000000000000000002000002000200000000e00100000000000000000000000000000000000000000e000002000000000060080000000000000000000000000000000000000000000c0000020002000000010d0000000000000000000000000000000000000000000c000002000200000000000000000000000000000000000000000000000000000c000004000400000001000000000000000000000000000000000000000000000c0000040004000000000000000000000000000000000000000000000000000005020004000000000000000000000000000000000000000000000000000000000c000002000200000001080000000000000000000000000000000000000000000c0000020002000000000000000000000000000000000000000000000000000005020000000200000001000000000000000000000000000000000000000000000e000002000000000060070000000000000000000000000000000000000000000c000002000200000001060000000000000000000000000000000000000000000c0000020002000000000000000000000000000000000000000000000000000005020000000200000001000000000000000000000000000000000000000000000e0000020000000000600e0000000000000000000000000000000000000000000c000002000200000001070000000000000000000000000000000000000000000c0000020002000000000000000000000000000000000000000000000000000005020000000200000001000000000000000000000000000000000000000000000e0000020000000000600b0000000000000000000000000000000000000000000e000000000200000021020000000000000000000000000000000000000000000e0000020000000000600f0000000000000000000000000000000000000000000c000001000100000001000000000000000000000000000000000000000000000c0000010001000000000000000000000000000000003182a07000000000000007000000000000000003242c00000000000000000000000000000000000000000c000004000400000001ffffffffffffffffffffffffffffffff0000000000000c000004000400000000ffffffff00000000000000000000000000000000000014000000000200000000050000000000000000000000000000000000000000000e000002000000000060040000000000000000000000000000000000000000001a020004000400000002000000000000000000000000000000000000000000000e0000000002000000610f00000000000000000000000000000000000000000002000002000200000000040000000000000000000000000000000000000000000e0000040000000000600c000000000000000000000000000000000000000000020400000001000000000000000000000000000000000000000000000000000007000000000000000003242c00000000000000000000000000000000000000000e0000000002000000610e0000000000000000000000000000000000000000000c000004000400000001ffffffffffffffffffffffffffffffff0000000000000c000004000400000000ffffffff0000000000000000000000000000000000001a020004000400000002000000000000000000000000000000000000000000000c000002000200000001040000000000000000000000000000000000000000000c000002000200000000000000000000000000000000000000000000000000000e0000040000000000600a00000000000000000000000000000000000000000004040002000000000000000000000000000000000000000000000000000000000a0000000000000000044117fa1600000000000000000000000000000000000010000000000000000000000000000000000000000000000000000000000000000c000002000200000001240000000000000000000000000000000000000000000c000002000200000000000000000000000000000000000000000000000000000e000002000000000040000000000000000000000000000000000000000000000c000002000200000001000000000000000000000000000000000000000000000c000002000200000000000000000000000000000000000000000000000000000a0000000000000000010317031700000000000000000000000000000000000004040000000000000000000000000000000000000000000000000000000000000a00000000000000000a031717170000000000000000000000000000000000000e0000020000000000600e00000000000000000000000000000000000000000018000002000400000000050000000000000000000000000000000000000000000e0000040000000000600d0000000000000000000000000000000000000000000e0000000002000000610f000000000000000000000000000000000000000000020200040001000000000000000000000000000000000000000000000000000007000000000000000003fc2b00000000000000000000000000000000000000000c000002000200000001200000000000000000000000000000000000000000000c000002000200000000000000000000000000000000000000000000000000000e0000000004000000610d00000000000000000000000000000000000000000008040002000200000000000000000000000000000000000000000000000000000e020001000000000040010000000000000000000000000000000000000000000e0000000008000000610e00000000000000000000000000000000000000000002000008000200000000010000000000000000000000000000000000000000000c000004000400000001010000000000000000000000000000000000000000000c0000040004000000000000000000000000000000000000000000000000000004020008000000000000000000000000000000000000000000000000000000000a000000000000000002011714170000000000000000000000000000000000000c000004000400000001000000000000000000000000000000000000000000000c000004000400000000000000000000000000000000000000000000000000000a000000000000000001011701170000000000000000000000000000000000000e0000000002000000610f000000000000000000000000000000000000000000020000020001000000002000000000000000000000000000000000000000000007000000000000000003fc2b00000000000000000000000000000000000000000c000002000200000001ffffffffffffffffffffffffffffffff0000000000000c000002000200000000ffffffffffffffffffffffff000000000000000000000e000000000400000041020000000000000000000000000000000000000000001a040002000200000002000000000000000000000000000000000000000000000c000004000400000001000000000000000000000000000000000000000000000c000004000400000000000000000000000000000000ffffffff0000000000001a010004000400000002000000000000000000000000000000000000000000001a040002000200000004000000000000000000000000000000000000000000000e000002000000000040020000000000000000000000000000000000000000000e0000000002000000610a000000000000000000000000000000000000000000180000020001000000002000000000000000000000000000000000000000000007000000000000000003432c00000000000000000000000000000000000000000c000002000200000001000000000000000000000000000000000000000000000c000002000200000000000000000000000000000000000000000000000000000e0000010000000000600d0000000000000000000000000000000000000000000a0000000000000000012c172c1700000000000000000000000000000000000004040000000000000000000000000000000000000000000000000000000000000a00000000000000000a2c173e170000000000000000000000000000000000000e0000020000000000600e00000000000000000000000000000000000000000018000002000400000000050000000000000000000000000000000000000000000e0000000002000000610f00000000000000000000000000000000000000000002020004000200000000000000000000000000000000000000000000000000000c000008000800000001200000000000000000000000000000000000000000000c0000080008000000000000000000000000000000000000000000000000000008040008000400000000000000000000000000000000000000000000000000000e0400000001000000410100000000000000000000000000000000000000000007000000000000000003242c00000000000000000000000000000000000000000e0000000008000000610e00000000000000000000000000000000000000000002000008000200000000010000000000000000000000000000000000000000000c000004000400000001010000000000000000000000000000000000000000000c0000040004000000000000000000000000000000000000000000000000000004020008000000000000000000000000000000000000000000000000000000000a0000000000000000022a173b170000000000000000000000000000000000000c000004000400000001000000000000000000000000000000000000000000000c000004000400000000000000000000000000000000000000000000000000000a0000000000000000012a172a170000000000000000000000000000000000000e0000000002000000610d00000000000000000000000000000000000000000004020000000000000000000000000000000000000000000000000000000000000a000000000000000004461a41170000000000000000000000000000000000000e000000000200000041000000000000000000000000000000000000000000001a000002000200000002ffffffff000000000000000000000000000000000000020000020002000000001f0000000000000000000000000000000000000000001a000002000400000002e0ffffff0100000000000000000000000000000000000e0000000002000000610f00000000000000000000000000000000000000000002040002000800000000000000000000000000000000000000000000000000000c000002000200000001010000000000000000000000000000000000000000000c0000020002000000000000000000000000000000000000000000000000000004080004000000000000000000000000000000000000000000000000000000000a0000000000000000024d174b170000000000000000000000000000000000000c000002000200000001000000000000000000000000000000000000000000000c000002000200000000000000000000000000000000000000000000000000000c000004000400000001ffffffffffffffff00000000000000000000000000000c0000040004000000000000000000000000000000000000000000000000000004080004000000000000000000000000000000000000000000000000000000000a0000000000000000086419511700000000000000000000000000000000000004020000000000000000000000000000000000000000000000000000000000000a00000000000000000a641953170000000000000000000000000000000000000e000008000000000020020000000000000000000000000000000000000000000e000000000200000041000000000000000000000000000000000000000000001a000002000200000002e0ffffff0000000000000000000000000000000000000e0000080000000000600e00000000000000000000000000000000000000000004020000000000000000000000000000000000000000000000000000000000000a000000000000000004831959170000000000000000000000000000000000000e0000000002000000610b0000000000000000000000000000000000000000000c000004000400000001ffffffffffffffffffffffffffffffff0000000000000c000004000400000000ffffffff0000000000000000000000000000000000001a020004000200000002000000000000000000000000000000000000000000000e0000020000000000600b0000000000000000000000000000000000000000000e0000000001000000610f00000000000000000000000000000000000000000007000000000000000003fc2b00000000000000000000000000000000000000000e000001000000000060050000000000000000000000000000000000000000000c000001000100000001000000000000000000000000000000000000000000000c0000010001000000000000000000000000000000003182a0700000000000000e0000000002000000610e00000000000000000000000000000000000000000007000000000000000003242c00000000000000000000000000000000000000000e0000000002000000610e00000000000000000000000000000000000000000002000002000200000000040000000000000000000000000000000000000000000e0000000001000000610c00000000000000000000000000000000000000000007000000000000000003242c00000000000000000000000000000000000000000c000002000200000001040000000000000000000000000000000000000000000c000002000200000000000000000000000000000000000000000000000000000e0000000004000000610b0000000000000000000000000000000000000000000e0000000020000000610e00000000000000000000000000000000000000000004040002000000000000000000000000000000000000000000000000000000000a000000000000000004b6176f1700000000000000000000000000000000000010000000000000000000000000000000000000000000000000000000000000000c000002000200000001240000000000000000000000000000000000000000000c000002000200000000000000000000000000000000000000000000000000000e000002000000000040000000000000000000000000000000000000000000000c000002000200000001000000000000000000000000000000000000000000000c000002000200000000000000000000000000000000000000000000000000000a000000000000000001791779170000000000000000000000000000000000000e0000000020000000610e00000000000000000000000000000000000000000004040000000000000000000000000000000000000000000000000000000000000a00000000000000000a79178c170000000000000000000000000000000000000e0000020000000000600f00000000000000000000000000000000000000000018000002000200000000050000000000000000000000000000000000000000000e0000020000000000600d000000000000000000000000000000000000000000022000020001000000000000000000000000000000000000000000000000000007000000000000000003fc2b00000000000000000000000000000000000000000c000002000200000001200000000000000000000000000000000000000000000c000002000200000000000000000000000000000000000000000000000000000e0000000004000000610d00000000000000000000000000000000000000000008040002000200000000000000000000000000000000000000000000000000000e020001000000000040010000000000000000000000000000000000000000000e0000000008000000610f00000000000000000000000000000000000000000002000008000200000000010000000000000000000000000000000000000000000c000004000400000001010000000000000000000000000000000000000000000c0000040004000000000000000000000000000000000000000000000000000004020008000000000000000000000000000000000000000000000000000000000a000000000000000002761789170000000000000000000000000000000000000c000004000400000001000000000000000000000000000000000000000000000c000004000400000000000000000000000000000000000000000000000000000a00000000000000000176177617000000000000000000000000000000000000020000200001000000002000000000000000000000000000000000000000000007000000000000000003fc2b00000000000000000000000000000000000000000c000002000200000001ffffffffffffffffffffffffffffffff0000000000000c000002000200000000ffffffffffffffffffffffff000000000000000000000e000000000400000041020000000000000000000000000000000000000000001a040002000200000002000000000000000000000000000000000000000000000c000004000400000001000000000000000000000000000000000000000000000c000004000400000000000000000000000000000000ffffffff0000000000001a010004000400000002000000000000000000000000000000000000000000001a040002000200000004000000000000000000000000000000000000000000000e000002000000000040020000000000000000000000000000000000000000000e0000000002000000610b000000000000000000000000000000000000000000180000020001000000002000000000000000000000000000000000000000000007000000000000000003432c00000000000000000000000000000000000000000e0000000020000000610e0000000000000000000000000000000000000000000c000002000200000001000000000000000000000000000000000000000000000c000002000200000000000000000000000000000000000000000000000000000e0000010000000000600d0000000000000000000000000000000000000000000a000000000000000001a217a2170000000000000000000000000000000000000e0000000020000000610e00000000000000000000000000000000000000000004040000000000000000000000000000000000000000000000000000000000000a00000000000000000aa217b3170000000000000000000000000000000000000e0000020000000000600f000000000000000000000000000000000000000000180000020004000000000500000000000000000000000000000000000000000002200004000200000000000000000000000000000000000000000000000000000c000008000800000001200000000000000000000000000000000000000000000c0000080008000000000000000000000000000000000000000000000000000008040008000400000000000000000000000000000000000000000000000000000e0400000001000000410100000000000000000000000000000000000000000007000000000000000003242c00000000000000000000000000000000000000000e0000000008000000610f00000000000000000000000000000000000000000002000008000200000000010000000000000000000000000000000000000000000c000004000400000001010000000000000000000000000000000000000000000c0000040004000000000000000000000000000000000000000000000000000004020008000000000000000000000000000000000000000000000000000000000a0000000000000000029f17b0170000000000000000000000000000000000000c000004000400000001000000000000000000000000000000000000000000000c000004000400000000000000000000000000000000000000000000000000000a0000000000000000019f179f170000000000000000000000000000000000000e0000000002000000610d00000000000000000000000000000000000000000004020000000000000000000000000000000000000000000000000000000000000a000000000000000004ba1ab6170000000000000000000000000000000000000e000000000200000041000000000000000000000000000000000000000000001a000002000200000002ffffffff000000000000000000000000000000000000020000020002000000001f0000000000000000000000000000000000000000001a000002000200000002e0ffffff01000000000000000000000000000000000002020020000200000000000000000000000000000000000000000000000000000c000004000400000001ffffffffffffffff00000000000000000000000000000c000004000400000000000000000000000000000000000000000000000000000e0000000008000000610800000000000000000000000000000000000000000004020004000000000000000000000000000000000000000000000000000000000a0000000000000000088719c0170000000000000000000000000000000000000e000002000000000020020000000000000000000000000000000000000000000e000000000200000041000000000000000000000000000000000000000000001a000002000200000002e0ffffff00000000000000000000000000000000000004020000000000000000000000000000000000000000000000000000000000000a000000000000000004a619c5170000000000000000000000000000000000000e00000000100000006107000000000000000000000000000000000000000000180000100002000000027000000000000000000000000000000000000000000002000008000400000000200000000000000000000000000000000000000000000e000004000000000060010000000000000000000000000000000000000000001a000010000400000002ffffffffffffffffffffffffffff00000000000000000e000004000000000060070000000000000000000000000000000000000000001a000002000200000002ffffffffffffffffffffffffffff00000000000000000e00000200000000006006000000000000000000000000000000000000000000022000000001000000000000000000000000000000000000000000000000000007000000000000000003fc2b00000000000000000000000000000000000000000e0000000002000000610c0000000000000000000000000000000000000000000e000002000000000020000000000000000000000000000000000000000000000c000002000200000001010000000000000000000000000000000000000000000c000002000200000000000000000000000000000000000000000000000000000e0000020000000000200100000000000000000000000000000000000000000010000000000000000000000000000000000000000000000000000000000000000c000002000200000001400000000000000000000000000000000000000000000c000002000200000000000000000000000000000000000000000000000000000e000002000000000040000000000000000000000000000000000000000000000c000002000200000001000000000000000000000000000000000000000000000c000002000200000000000000000000000000000000000000000000000000000e000001000000000060030000000000000000000000000000000000000000000c000004000400000001200000000000000000000000000000000000000000000c000004000400000000000000000000000000000000000000000000000000000c000008000800000001020000000000000000000000000000000000000000000c00000800080000000000000000000000000000000000000000000000000000180000020010000000000500000000000000000000000000000000000000000008100004001000000000000000000000000000000000000000000000000000000e100000002000000021000000000000000000000000000000000000000000000e10002000000000004001000000000000000000000000000000000000000000020000020002000000000100000000000000000000000000000000000000000004020008000000000000000000000000000000000000000000000000000000000a000000000000000002df17e6170000000000000000000000000000000000000c00000100010000000100000000ff03000000000000000000000000000000000c0000010001000000000000000000000000000000000000000000000000000007000000000000000003432c00000000000000000000000000000000000000000e0000000002000000410100000000000000000000000000000000000000000005020000000200000001000000000000000000000000000000000000000000000e0000020000000000600e0000000000000000000000000000000000000000000e000000000100000061070000000000000000000000000000000000000000000e00000000020000006106000000000000000000000000000000000000000000070000000000000000034c1400000000000000000000000000000000000000000a000000000000000002f017f2170000000000000000000000000000000000000e000001000000000060020000000000000000000000000000000000000000000a000000000000000001151c151c0000000000000000000000000000000000000e000001000000000060020000000000000000000000000000000000000000000c000002000200000001000000000000000000000000000000000000000000000c0000020002000000000000000000000000000000000000000000000000000005020000000200000001000000000000000000000000000000000000000000000e0000020000000000600f0000000000000000000000000000000000000000000e0000000001000000610e0000000000000000000000000000000000000000000e0000000002000000610500000000000000000000000000000000000000000007000000000000000003862b00000000000000000000000000000000000000000a000000000000000002fb17fd170000000000000000000000000000000000000e0000010000000000600d0000000000000000000000000000000000000000000a000000000000000001151c151c0000000000000000000000000000000000000e0000010000000000600d0000000000000000000000000000000000000000000e0000000002000000610f00000000000000000000000000000000000000000004020000000000000000000000000000000000000000000000000000000000000a000000000000000004aa1901180000000000000000000000000000000000000e0000000001000000610e0000000000000000000000000000000000000000000e0000000002000000610300000000000000000000000000000000000000000007000000000000000003862b00000000000000000000000000000000000000000a000000000000000002051807180000000000000000000000000000000000000e000001000000000060050000000000000000000000000000000000000000000a000000000000000001151c151c0000000000000000000000000000000000000e000001000000000060050000000000000000000000000000000000000000000c000002000200000001010000000000000000000000000000000000000000000c000002000200000000000000000000000000000000000000000000000000000c000004000400000001010000000000000000000000000000000000000000000c000004000400000000000000000000000000000000000000000000000000000e0000000008000000610f0000000000000000000000000000000000000000000e0000000010000000610d00000000000000000000000000000000000000000004080010000000000000000000000000000000000000000000000000000000000a000000000000000006121810180000000000000000000000000000000000000c000004000400000001000000000000000000000000000000000000000000000c000004000400000000000000000000000000000000000000000000000000000e0000000008000000610f0000000000000000000000000000000000000000000e0000000010000000610500000000000000000000000000000000000000000004080010000000000000000000000000000000000000000000000000000000000a000000000000000006181816180000000000000000000000000000000000000c000002000200000001000000000000000000000000000000000000000000000c000002000200000000000000000000000000000000000000000000000000001a040002000200000002000000000000000000000000000000000000000000001a0000020001000000020100000000000000000000000000000000000000000007000000000000000003171c00000000000000000000000000000000000000000a0000000000000000021c181d180000000000000000000000000000000000000a000000000000000001151c151c0000000000000000000000000000000000000e000000000100000061040000000000000000000000000000000000000000000e0000000002000000610e00000000000000000000000000000000000000000007000000000000000003591c00000000000000000000000000000000000000000a000000000000000002211822180000000000000000000000000000000000000a000000000000000001151c151c0000000000000000000000000000000000000e0000000002000000610f0000000000000000000000000000000000000000000e0000000004000000610d00000000000000000000000000000000000000000008040002000400000000000000000000000000000000000000000000000000000e0000000001000000610a0000000000000000000000000000000000000000000e000000000200000061090000000000000000000000000000000000000000000e0000040000000000600400000000000000000000000000000000000000000007000000000000000003121d00000000000000000000000000000000000000000a0000000000000000022a182b180000000000000000000000000000000000000a000000000000000001151c151c0000000000000000000000000000000000000e0000000002000000610f0000000000000000000000000000000000000000000e0000000004000000610500000000000000000000000000000000000000000008040002000400000000000000000000000000000000000000000000000000000e0000000001000000610b0000000000000000000000000000000000000000000e000000000200000061090000000000000000000000000000000000000000000e0000040000000000600500000000000000000000000000000000000000000007000000000000000003121d00000000000000000000000000000000000000000a000000000000000002331834180000000000000000000000000000000000000a000000000000000001151c151c0000000000000000000000000000000000000c000001000100000001000000000000000000000000000000000000000000000c0000010001000000000000000000000000000000003182a0700000000000000e000000000200000021020000000000000000000000000000000000000000000e0000020000000000600f00000000000000000000000000000000000000000007000000000000000003242c00000000000000000000000000000000000000000e0000000002000000610f00000000000000000000000000000000000000000002000002000200000000040000000000000000000000000000000000000000000e0000000001000000610c00000000000000000000000000000000000000000007000000000000000003242c00000000000000000000000000000000000000000c000002000200000001040000000000000000000000000000000000000000000c000002000200000000000000000000000000000000000000000000000000000e0000000004000000610a00000000000000000000000000000000000000000004040002000000000000000000000000000000000000000000000000000000000a0000000000000000048918421800000000000000000000000000000000000010000000000000000000000000000000000000000000000000000000000000000c000002000200000001240000000000000000000000000000000000000000000c000002000200000000000000000000000000000000000000000000000000000e000002000000000040000000000000000000000000000000000000000000000c000002000200000001000000000000000000000000000000000000000000000c000002000200000000000000000000000000000000000000000000000000000a0000000000000000014b184b1800000000000000000000000000000000000004040000000000000000000000000000000000000000000000000000000000000a00000000000000000a4b185f180000000000000000000000000000000000000e0000020000000000600e00000000000000000000000000000000000000000018000002000400000000050000000000000000000000000000000000000000000e0000040000000000600d0000000000000000000000000000000000000000000e0000000002000000610f000000000000000000000000000000000000000000020200040001000000000000000000000000000000000000000000000000000007000000000000000003fc2b00000000000000000000000000000000000000000c000002000200000001200000000000000000000000000000000000000000000c000002000200000000000000000000000000000000000000000000000000000e0000000004000000610d00000000000000000000000000000000000000000008040002000200000000000000000000000000000000000000000000000000000e020001000000000040010000000000000000000000000000000000000000000e0000000008000000610e00000000000000000000000000000000000000000002000008000200000000010000000000000000000000000000000000000000000c000004000400000001010000000000000000000000000000000000000000000c0000040004000000000000000000000000000000000000000000000000000004020008000000000000000000000000000000000000000000000000000000000a00000000000000000249185c180000000000000000000000000000000000000c000004000400000001000000000000000000000000000000000000000000000c000004000400000000000000000000000000000000000000000000000000000a000000000000000001491849180000000000000000000000000000000000000e0000000002000000610f000000000000000000000000000000000000000000020000020001000000002000000000000000000000000000000000000000000007000000000000000003fc2b00000000000000000000000000000000000000000c000002000200000001ffffffffffffffffffffffffffffffff0000000000000c000002000200000000ffffffffffffffffffffffff000000000000000000000e000000000400000041020000000000000000000000000000000000000000001a040002000200000002000000000000000000000000000000000000000000000c000004000400000001000000000000000000000000000000000000000000000c000004000400000000000000000000000000000000ffffffff0000000000001a010004000400000002000000000000000000000000000000000000000000001a040002000200000004000000000000000000000000000000000000000000000e000002000000000040020000000000000000000000000000000000000000000e0000000002000000610a000000000000000000000000000000000000000000180000020001000000002000000000000000000000000000000000000000000007000000000000000003432c00000000000000000000000000000000000000000c000002000200000001000000000000000000000000000000000000000000000c000002000200000000000000000000000000000000000000000000000000000e0000010000000000600d0000000000000000000000000000000000000000000a0000000000000000017418741800000000000000000000000000000000000004040000000000000000000000000000000000000000000000000000000000000a00000000000000000a741886180000000000000000000000000000000000000e0000020000000000600e00000000000000000000000000000000000000000018000002000400000000050000000000000000000000000000000000000000000e0000000002000000610f00000000000000000000000000000000000000000002020004000200000000000000000000000000000000000000000000000000000c000008000800000001200000000000000000000000000000000000000000000c0000080008000000000000000000000000000000000000000000000000000008040008000400000000000000000000000000000000000000000000000000000e0400000001000000410100000000000000000000000000000000000000000007000000000000000003242c00000000000000000000000000000000000000000e0000000008000000610e00000000000000000000000000000000000000000002000008000200000000010000000000000000000000000000000000000000000c000004000400000001010000000000000000000000000000000000000000000c0000040004000000000000000000000000000000000000000000000000000004020008000000000000000000000000000000000000000000000000000000000a000000000000000002721883180000000000000000000000000000000000000c000004000400000001000000000000000000000000000000000000000000000c000004000400000000000000000000000000000000000000000000000000000a000000000000000001721872180000000000000000000000000000000000000e0000000002000000610d00000000000000000000000000000000000000000004020000000000000000000000000000000000000000000000000000000000000a0000000000000000042e1b89180000000000000000000000000000000000000e000000000200000041000000000000000000000000000000000000000000001a000002000200000002ffffffff000000000000000000000000000000000000020000020002000000001f0000000000000000000000000000000000000000001a000002000400000002e0ffffff0100000000000000000000000000000000000e0000000002000000610f00000000000000000000000000000000000000000002040002000800000000000000000000000000000000000000000000000000000c000002000200000001010000000000000000000000000000000000000000000c0000020002000000000000000000000000000000000000000000000000000004080004000000000000000000000000000000000000000000000000000000000a000000000000000002951893180000000000000000000000000000000000000c000002000200000001000000000000000000000000000000000000000000000c000002000200000000000000000000000000000000000000000000000000000c000004000400000001ffffffffffffffff00000000000000000000000000000c0000040004000000000000000000000000000000000000000000000000000004080004000000000000000000000000000000000000000000000000000000000a000000000000000008c919991800000000000000000000000000000000000004020000000000000000000000000000000000000000000000000000000000000a00000000000000000ac9199b180000000000000000000000000000000000000e000008000000000020020000000000000000000000000000000000000000000e000000000200000041000000000000000000000000000000000000000000001a000002000200000002e0ffffff0000000000000000000000000000000000000e0000080000000000600e00000000000000000000000000000000000000000004020000000000000000000000000000000000000000000000000000000000000a000000000000000004e819a1180000000000000000000000000000000000000e0000000001000000610f00000000000000000000000000000000000000000007000000000000000003fc2b00000000000000000000000000000000000000000e0000010000000000600a0000000000000000000000000000000000000000000c000001000100000001000000000000000000000000000000000000000000000c0000010001000000000000000000000000000000003182a0700000000000000e0000000002000000610e00000000000000000000000000000000000000000007000000000000000003242c00000000000000000000000000000000000000000e0000000002000000610e00000000000000000000000000000000000000000002000002000200000000040000000000000000000000000000000000000000000e0000000001000000610c00000000000000000000000000000000000000000007000000000000000003242c00000000000000000000000000000000000000000c000002000200000001040000000000000000000000000000000000000000000c000002000200000000000000000000000000000000000000000000000000000e0000000004000000610b0000000000000000000000000000000000000000000e0000000008000000610e00000000000000000000000000000000000000000004040002000000000000000000000000000000000000000000000000000000000a000000000000000004f918b21800000000000000000000000000000000000010000000000000000000000000000000000000000000000000000000000000000c000002000200000001240000000000000000000000000000000000000000000c000002000200000000000000000000000000000000000000000000000000000e000002000000000040000000000000000000000000000000000000000000000c000002000200000001000000000000000000000000000000000000000000000c000002000200000000000000000000000000000000000000000000000000000a000000000000000001bc18bc180000000000000000000000000000000000000e0000000008000000610e00000000000000000000000000000000000000000004040000000000000000000000000000000000000000000000000000000000000a00000000000000000abc18cf180000000000000000000000000000000000000e0000020000000000600f00000000000000000000000000000000000000000018000002000200000000050000000000000000000000000000000000000000000e0000020000000000600d000000000000000000000000000000000000000000020800020001000000000000000000000000000000000000000000000000000007000000000000000003fc2b00000000000000000000000000000000000000000c000002000200000001200000000000000000000000000000000000000000000c000002000200000000000000000000000000000000000000000000000000000e0000000004000000610d00000000000000000000000000000000000000000008040002000200000000000000000000000000000000000000000000000000000e020001000000000040010000000000000000000000000000000000000000000e0000000008000000610f00000000000000000000000000000000000000000002000008000200000000010000000000000000000000000000000000000000000c000004000400000001010000000000000000000000000000000000000000000c0000040004000000000000000000000000000000000000000000000000000004020008000000000000000000000000000000000000000000000000000000000a000000000000000002b918cc180000000000000000000000000000000000000c000004000400000001000000000000000000000000000000000000000000000c000004000400000000000000000000000000000000000000000000000000000a000000000000000001b918b918000000000000000000000000000000000000020000080001000000002000000000000000000000000000000000000000000007000000000000000003fc2b00000000000000000000000000000000000000000c000002000200000001ffffffffffffffffffffffffffffffff0000000000000c000002000200000000ffffffffffffffffffffffff000000000000000000000e000000000400000041020000000000000000000000000000000000000000001a040002000200000002000000000000000000000000000000000000000000000c000004000400000001000000000000000000000000000000000000000000000c000004000400000000000000000000000000000000ffffffff0000000000001a010004000400000002000000000000000000000000000000000000000000001a040002000200000004000000000000000000000000000000000000000000000e000002000000000040020000000000000000000000000000000000000000000e0000000002000000610b000000000000000000000000000000000000000000180000020001000000002000000000000000000000000000000000000000000007000000000000000003432c00000000000000000000000000000000000000000e0000000008000000610e0000000000000000000000000000000000000000000c000002000200000001000000000000000000000000000000000000000000000c000002000200000000000000000000000000000000000000000000000000000e0000010000000000600d0000000000000000000000000000000000000000000a000000000000000001e518e5180000000000000000000000000000000000000e0000000008000000610e00000000000000000000000000000000000000000004040000000000000000000000000000000000000000000000000000000000000a00000000000000000ae518f6180000000000000000000000000000000000000e0000020000000000600f000000000000000000000000000000000000000000180000020004000000000500000000000000000000000000000000000000000002080004000200000000000000000000000000000000000000000000000000000c000008000800000001200000000000000000000000000000000000000000000c0000080008000000000000000000000000000000000000000000000000000008040008000400000000000000000000000000000000000000000000000000000e0400000001000000410100000000000000000000000000000000000000000007000000000000000003242c00000000000000000000000000000000000000000e0000000008000000610f00000000000000000000000000000000000000000002000008000200000000010000000000000000000000000000000000000000000c000004000400000001010000000000000000000000000000000000000000000c0000040004000000000000000000000000000000000000000000000000000004020008000000000000000000000000000000000000000000000000000000000a000000000000000002e218f3180000000000000000000000000000000000000c000004000400000001000000000000000000000000000000000000000000000c000004000400000000000000000000000000000000000000000000000000000a000000000000000001e218e2180000000000000000000000000000000000000e0000000002000000610d00000000000000000000000000000000000000000004020000000000000000000000000000000000000000000000000000000000000a000000000000000004a21bf9180000000000000000000000000000000000000e000000000200000041000000000000000000000000000000000000000000001a000002000200000002ffffffff000000000000000000000000000000000000020000020002000000001f0000000000000000000000000000000000000000001a000002000200000002e0ffffff01000000000000000000000000000000000002020008000200000000000000000000000000000000000000000000000000000c000004000400000001ffffffffffffffff00000000000000000000000000000c0000040004000000000000000000000000000000000000000000000000000004020004000000000000000000000000000000000000000000000000000000000a000000000000000008181a02190000000000000000000000000000000000000e000002000000000020020000000000000000000000000000000000000000000e000000000200000041000000000000000000000000000000000000000000001a000002000200000002e0ffffff00000000000000000000000000000000000004020000000000000000000000000000000000000000000000000000000000000a000000000000000004371a0719000000000000000000000000000000000000020800000001000000000000000000000000000000000000000000000000000007000000000000000003fc2b000000000000000000000000000000000000000002010000000200000000000000000000000000000000000000000000000000000e0000000001000000610a0000000000000000000000000000000000000000000e000000000400000061070000000000000000000000000000000000000000000e0000000008000000610600000000000000000000000000000000000000000007000000000000000003e31200000000000000000000000000000000000000000a0000000000000000020f1910190000000000000000000000000000000000000a000000000000000001151c151c0000000000000000000000000000000000000e0000000002000000610200000000000000000000000000000000000000000004020000000000000000000000000000000000000000000000000000000000000a0000000000000000041f1913190000000000000000000000000000000000000c000002000200000001080000000000000000000000000000000000000000000c0000020002000000000000000000000000000000000000000000000000000005020000000200000001000000000000000000000000000000000000000000001a000002000100000002ffffffffffffffffffffffffffff000000000000000018000002000200000002700000000000000000000000000000000000000000001a000002000200000002ffffffffffffffffffffffffffff000000000000000007000000000000000003862b00000000000000000000000000000000000000000a0000000000000000021b191c190000000000000000000000000000000000000a000000000000000001151c151c0000000000000000000000000000000000000c0000020002000000010b0000000000000000000000000000000000000000000c0000020002000000000000000000000000000000000000000000000000000005020001000000000000000000000000000000000000000000000000000000000e000000000200000021020000000000000000000000000000000000000000000e0000020000000000600f0000000000000000000000000000000000000000000e0000000001000000610400000000000000000000000000000000000000000007000000000000000003242c00000000000000000000000000000000000000000e0000000002000000610f00000000000000000000000000000000000000000002000002000200000000200000000000000000000000000000000000000000000e0000000001000000610500000000000000000000000000000000000000000007000000000000000003242c00000000000000000000000000000000000000000e0000000008000000610f0000000000000000000000000000000000000000000c000002000200000001966493816d6e9789f7f4b32b891226a40000000000000c0000020002000000004c22930b33fdb19c8152120b2f41cddc0000000000000c000004000400000001030000004000000000000000000000000000000000000c000004000400000000000000000000000000000000000000000000000000000504000200000000000a000000000000000000000000000000000000000000000c000002000200000001ffffffffffffffffffffffffffffffff0000000000000c000002000200000000ffffffff0000000000000000000000000000000000000e000000000400000061090000000000000000000000000000000000000000001a040002000200000002000000000000000000000000000000000000000000001400000000040000000000000000000000000000000000000000000000000000050400020000000000020000000000000000000000000000000000000000000002000008001000000000400000000000000000000000000000000000000000000c000002000200000001c0ffffffffffffffffffffffffffffff0000000000000c000002000200000000ffffffffffffffffffffffffffffffff0000000000000e0000100000000000600e00000000000000000000000000000000000000000004080002000000000000000000000000000000000000000000000000000000000a00000000000000000c391951190000000000000000000000000000000000000c000002000200000001200000000000000000000000000000000000000000000c000002000200000000000000000000000000000000000000000000000000000e0000000008000000610800000000000000000000000000000000000000000008080002000400000000000000000000000000000000000000000000000000000e000000001000000061040000000000000000000000000000000000000000000e040010000000000060010000000000000000000000000000000000000000000e0000000004000000610100000000000000000000000000000000000000000008040002000200000000000000000000000000000000000000000000000000000e000000000400000061050000000000000000000000000000000000000000000e020004000000000060010000000000000000000000000000000000000000000c0000020002000000010d0000000000000000000000000000000000000000000c000002000200000000000000000000000000000000000000000000000000000c000004000400000001010000000000000000000000000000000000000000000c00000400040000000000000000000000000000000000000000000000000000050200040000000000000000000000000000000000000000000000000000000004000008000100000001e00100000000000000000000000000000000000000000e0000000000000000e10e00000000000000000000000000000000000000000007000000000000000000000000000000000000000000000000000000000000000c000002000200000001000000000000000000000000000000000000000000000c000002000200000000000000000000000000000000000000000000000000000520000200000000000200000000000000000000000000000000000000000000020000080008000000004000000000000000000000000000000000000000000004100008000000000000000000000000000000000000000000000000000000000a000000000000000008511939190000000000000000000000000000000000000e0000080000000000600f000000000000000000000000000000000000000000020800000001000000000000000000000000000000000000000000000000000007000000000000000003fc2b00000000000000000000000000000000000000000e0000000010000000610e0000000000000000000000000000000000000000000e0000000008000000610f000000000000000000000000000000000000000000041000080002000000000000000000000000000000000000000000000000000002010000002000000000000000000000000000000000000000000000000000000c0000040004000000013f0000000000000000000000000000000000000000000c0000040004000000000000000000000000000000000000000000000000000004020004000000000000000000000000000000000000000000000000000000000a0000000000000000085c194b1900000000000000000000000000000000000002000008000100000000200000000000000000000000000000000000000000000e0000200000000000600d00000000000000000000000000000000000000000007000000000000000003fc2b00000000000000000000000000000000000000000e0000000010000000610e0000000000000000000000000000000000000000000e0000000008000000610f0000000000000000000000000000000000000000000e0000000002000000610d00000000000000000000000000000000000000000005020001000000000002000000000000000000000000000000000000000000000a0000000000000000014e194e190000000000000000000000000000000000000c000002000200000001000000000000000000000000000000000000000000000c000002000200000000000000000000000000000000717b484e0000000000000e000002000000000020000000000000000000000000000000000000000000000c000001000100000001410000000000000000000000000000000000000000000c000001000100000000000000000000000000000000000000000000000000000c000002000200000001040000000000000000000000000000000000000000000c0000020002000000000000000000000000000000000000000000000000000007000000000000000003242c00000000000000000000000000000000000000000c000002000200000001240000000000000000000000000000000000000000000c000002000200000000000000000000000000000000000000000000000000000e000002000000000000000000000000000000000000000000000000000000000c000004000400000001000000000000000000000000000000000000000000000c000004000400000000000000000000000000000000000000000000000000000c000002000200000001200000000000000000000000000000000000000000000c000002000200000000000000000000000000000000000000000000000000000a00000000000000000177197719000000000000000000000000000000000000020800000004000000000000000000000000000000000000000000000000000004100000000000000000000000000000000000000000000000000000000000000a00000000000000000a7719ec19000000000000000000000000000000000000180000040008000000000500000000000000000000000000000000000000000008080002000800000000000000000000000000000000000000000000000000000e080000001000000021000000000000000000000000000000000000000000000e0800100000000000000100000000000000000000000000000000000000000002000004000800000000010000000000000000000000000000000000000000000c000010001000000001010000000000000000000000000000000000000000000c0000100010000000000000000000000000000000000000000000000000000004080004000000000000000000000000000000000000000000000000000000000a000000000000000002741980190000000000000000000000000000000000000c000010001000000001000000000000000000000000000000000000000000000c000010001000000000000000000000000000000000000000000000000000000a000000000000000001741974190000000000000000000000000000000000000c000002000200000001000000000000000000000000000000000000000000000c000002000200000000000000000000000000000000000000000000000000000e000002000000000000000000000000000000000000000000000000000000000a000000000000000001151c151c0000000000000000000000000000000000000c000002000200000001000000000000000000000000000000000000000000000c000002000200000000000000000000000000000000717b484e0000000000000e000002000000000020000000000000000000000000000000000000000000000c000001000100000001410000000000000000000000000000000000000000000c000001000100000000000000000000000000000000000000000000000000000c000002000200000001040000000000000000000000000000000000000000000c0000020002000000000000000000000000000000000000000000000000000007000000000000000003242c00000000000000000000000000000000000000000c000002000200000001240000000000000000000000000000000000000000000c000002000200000000000000000000000000000000000000000000000000000e000002000000000000000000000000000000000000000000000000000000000c000004000400000001000000000000000000000000000000000000000000000c000004000400000000000000000000000000000000000000000000000000000c000002000200000001200000000000000000000000000000000000000000000c000002000200000000000000000000000000000000000000000000000000000a0000000000000000019a199a19000000000000000000000000000000000000020800000004000000000000000000000000000000000000000000000000000004100000000000000000000000000000000000000000000000000000000000000a00000000000000000a9a19f719000000000000000000000000000000000000180000040008000000000500000000000000000000000000000000000000000008080002000800000000000000000000000000000000000000000000000000000e080000001000000021000000000000000000000000000000000000000000000e0800100000000000000100000000000000000000000000000000000000000002000004000800000000010000000000000000000000000000000000000000000c000010001000000001010000000000000000000000000000000000000000000c0000100010000000000000000000000000000000000000000000000000000004080004000000000000000000000000000000000000000000000000000000000a0000000000000000029719a3190000000000000000000000000000000000000c000010001000000001000000000000000000000000000000000000000000000c000010001000000000000000000000000000000000000000000000000000000a000000000000000001971997190000000000000000000000000000000000000c000002000200000001000000000000000000000000000000000000000000000c000002000200000000000000000000000000000000000000000000000000000e000002000000000000000000000000000000000000000000000000000000000a000000000000000001151c151c0000000000000000000000000000000000000c000002000200000001000000000000000000000000000000000000000000000c000002000200000000000000000000000000000000717b484e0000000000000e000002000000000020000000000000000000000000000000000000000000000c000001000100000001120000000000000000000000000000000000000000000c000001000100000000000000000000000000000000000000000000000000000c000002000200000001040000000000000000000000000000000000000000000c0000020002000000000000000000000000000000000000000000000000000007000000000000000003242c00000000000000000000000000000000000000000c000002000200000001240000000000000000000000000000000000000000000c000002000200000000000000000000000000000000000000000000000000000e000002000000000000000000000000000000000000000000000000000000000c000004000400000001000000000000000000000000000000000000000000000c000004000400000000000000000000000000000000000000000000000000000c000002000200000001200000000000000000000000000000000000000000000c000002000200000000000000000000000000000000000000000000000000000a000000000000000001bd19bd19000000000000000000000000000000000000020800000004000000000000000000000000000000000000000000000000000004100000000000000000000000000000000000000000000000000000000000000a00000000000000000abd19021a000000000000000000000000000000000000180000040008000000000500000000000000000000000000000000000000000008080002000800000000000000000000000000000000000000000000000000000e080000001000000021000000000000000000000000000000000000000000000e0800100000000000000100000000000000000000000000000000000000000002000004000800000000010000000000000000000000000000000000000000000c000010001000000001010000000000000000000000000000000000000000000c0000100010000000000000000000000000000000000000000000000000000004080004000000000000000000000000000000000000000000000000000000000a000000000000000002ba19c6190000000000000000000000000000000000000c000010001000000001000000000000000000000000000000000000000000000c000010001000000000000000000000000000000000000000000000000000000a000000000000000001ba19ba190000000000000000000000000000000000000c000002000200000001000000000000000000000000000000000000000000000c000002000200000000000000000000000000000000717b484e0000000000000e000002000000000020000000000000000000000000000000000000000000000c000001000100000001410000000000000000000000000000000000000000000c000001000100000000000000000000000000000000000000000000000000000c000002000200000001040000000000000000000000000000000000000000000c0000020002000000000000000000000000000000000000000000000000000007000000000000000003242c00000000000000000000000000000000000000000c000002000200000001240000000000000000000000000000000000000000000c000002000200000000000000000000000000000000000000000000000000000e000002000000000000000000000000000000000000000000000000000000000c000004000400000001000000000000000000000000000000000000000000000c000004000400000000000000000000000000000000000000000000000000000c000002000200000001200000000000000000000000000000000000000000000c000002000200000000000000000000000000000000000000000000000000000a000000000000000001dc19dc19000000000000000000000000000000000000020800000004000000000000000000000000000000000000000000000000000004100000000000000000000000000000000000000000000000000000000000000a00000000000000000adc190d1a000000000000000000000000000000000000180000040008000000000500000000000000000000000000000000000000000008080002000800000000000000000000000000000000000000000000000000000e080000001000000021000000000000000000000000000000000000000000000e0800100000000000000100000000000000000000000000000000000000000002000004000800000000010000000000000000000000000000000000000000000c000010001000000001010000000000000000000000000000000000000000000c0000100010000000000000000000000000000000000000000000000000000004080004000000000000000000000000000000000000000000000000000000000a000000000000000002d919e5190000000000000000000000000000000000000c000010001000000001000000000000000000000000000000000000000000000c000010001000000000000000000000000000000000000000000000000000000a000000000000000001d919d9190000000000000000000000000000000000000c000002000200000001000000000000000000000000000000000000000000000c000002000200000000000000000000000000000000000000000000000000000e000002000000000000000000000000000000000000000000000000000000000a000000000000000001151c151c0000000000000000000000000000000000000c000002000200000001ffffffffffffffffffffffffffffffff0000000000000c000002000200000000ffffffffffffffffffffffff000000000000000000000e000000000400000001020000000000000000000000000000000000000000001a040002000200000002000000000000000000000000000000000000000000000c000004000400000001000000000000000000000000000000000000000000000c000004000400000000000000000000000000000000ffffffff0000000000000e000000000800000021010000000000000000000000000000000000000000001a080004000400000002000000000000000000000000000000000000000000001a040002000200000004000000000000000000000000000000000000000000000e000002000000000000020000000000000000000000000000000000000000000a000000000000000001151c151c0000000000000000000000000000000000000c000002000200000001ffffffffffffffffffffffffffffffff0000000000000c000002000200000000ffffffffffffffffffffffff000000000000000000000e000000000400000001020000000000000000000000000000000000000000001a040002000200000002000000000000000000000000000000000000000000000c000004000400000001000000000000000000000000000000000000000000000c000004000400000000000000000000000000000000ffffffff0000000000000e000000000800000021010000000000000000000000000000000000000000001a080004000400000002000000000000000000000000000000000000000000001a040002000200000004000000000000000000000000000000000000000000000e000002000000000000020000000000000000000000000000000000000000000a000000000000000001151c151c0000000000000000000000000000000000000c000002000200000001ffffffffffffffffffffffffffffffff0000000000000c000002000200000000ffffffffffffffffffffffff000000000000000000000e000000000400000001020000000000000000000000000000000000000000001a040002000200000002000000000000000000000000000000000000000000000c000004000400000001000000000000000000000000000000000000000000000c000004000400000000000000000000000000000000ffffffff0000000000000e000000000800000021010000000000000000000000000000000000000000001a080004000400000002000000000000000000000000000000000000000000001a040002000200000004000000000000000000000000000000000000000000000e000002000000000000020000000000000000000000000000000000000000000a000000000000000001151c151c0000000000000000000000000000000000000c000002000200000001ffffffffffffffffffffffffffffffff0000000000000c000002000200000000ffffffffffffffffffffffff000000000000000000000e000000000400000001020000000000000000000000000000000000000000001a040002000200000002000000000000000000000000000000000000000000000c000004000400000001000000000000000000000000000000000000000000000c000004000400000000000000000000000000000000ffffffff0000000000000e000000000800000021010000000000000000000000000000000000000000001a080004000400000002000000000000000000000000000000000000000000001a040002000200000004000000000000000000000000000000000000000000000e000002000000000000020000000000000000000000000000000000000000000a000000000000000001151c151c0000000000000000000000000000000000000c000002000200000001000000000000000000000000000000000000000000000c000002000200000000000000000000000000000000717b484e0000000000000e000002000000000020000000000000000000000000000000000000000000000c000001000100000001410000000000000000000000000000000000000000000c000001000100000000000000000000000000000000000000000000000000000c000002000200000001040000000000000000000000000000000000000000000c0000020002000000000000000000000000000000000000000000000000000007000000000000000003242c00000000000000000000000000000000000000000c000002000200000001240000000000000000000000000000000000000000000c000002000200000000000000000000000000000000000000000000000000000e000002000000000000000000000000000000000000000000000000000000000c000004000400000001000000000000000000000000000000000000000000000c000004000400000000000000000000000000000000000000000000000000000c000002000200000001200000000000000000000000000000000000000000000c000002000200000000000000000000000000000000000000000000000000000a0000000000000000012b1a2b1a000000000000000000000000000000000000020800000004000000000000000000000000000000000000000000000000000004100000000000000000000000000000000000000000000000000000000000000a00000000000000000a2b1a3b1a000000000000000000000000000000000000180000040008000000000500000000000000000000000000000000000000000008080002000800000000000000000000000000000000000000000000000000000e080000001000000021000000000000000000000000000000000000000000000e0800100000000000000100000000000000000000000000000000000000000002000004000800000000010000000000000000000000000000000000000000000c000010001000000001010000000000000000000000000000000000000000000c0000100010000000000000000000000000000000000000000000000000000004080004000000000000000000000000000000000000000000000000000000000a000000000000000002281a341a0000000000000000000000000000000000000c000010001000000001000000000000000000000000000000000000000000000c000010001000000000000000000000000000000000000000000000000000000a000000000000000001281a281a0000000000000000000000000000000000000c000002000200000001000000000000000000000000000000000000000000000c000002000200000000000000000000000000000000000000000000000000000e000002000000000000000000000000000000000000000000000000000000000a000000000000000001151c151c0000000000000000000000000000000000000c000002000200000001ffffffffffffffffffffffffffffffff0000000000000c000002000200000000ffffffffffffffffffffffff000000000000000000000e000000000400000001020000000000000000000000000000000000000000001a040002000200000002000000000000000000000000000000000000000000000c000004000400000001000000000000000000000000000000000000000000000c000004000400000000000000000000000000000000ffffffff0000000000000e000000000800000021010000000000000000000000000000000000000000001a080004000400000002000000000000000000000000000000000000000000001a040002000200000004000000000000000000000000000000000000000000000e000002000000000000020000000000000000000000000000000000000000000a000000000000000001151c151c0000000000000000000000000000000000000c000008000800000001000000000000000000000000000000000000000000000c000008000800000000000000000000000000000000000000000000000000000e000000000200000021020000000000000000000000000000000000000000000e0000020000000000600f0000000000000000000000000000000000000000000e000000000200000041000000000000000000000000000000000000000000001a0000020004000000021f0000000000000000000000000000000000000000000e0000040000000000600c0000000000000000000000000000000000000000001a000002000200000002e0ffffff0000000000000000000000000000000000000e0000020000000000600b00000000000000000000000000000000000000000018000002000200000002050000000000000000000000000000000000000000000e0000020000000000600d00000000000000000000000000000000000000000004020000000000000000000000000000000000000000000000000000000000000a000000000000000004611a531a0000000000000000000000000000000000000e0000080000000000600e00000000000000000000000000000000000000000018000008000400000000050000000000000000000000000000000000000000000e0000000002000000610f00000000000000000000000000000000000000000002020004000200000000000000000000000000000000000000000000000000000c000008000800000001200000000000000000000000000000000000000000000c0000080008000000000000000000000000000000000000000000000000000008040008000400000000000000000000000000000000000000000000000000000e0400000001000000410100000000000000000000000000000000000000000007000000000000000003242c00000000000000000000000000000000000000000e0000000008000000610e00000000000000000000000000000000000000000002000008000800000000010000000000000000000000000000000000000000000e0000000002000000610d00000000000000000000000000000000000000000004080002000000000000000000000000000000000000000000000000000000000a000000000000000002531a611a0000000000000000000000000000000000000e0000000002000000610f0000000000000000000000000000000000000000000e0000000002000000610c00000000000000000000000000000000000000000004020000000000000000000000000000000000000000000000000000000000000a000000000000000004811a651a0000000000000000000000000000000000000e0000000002000000610c00000000000000000000000000000000000000000018000002000200000000030000000000000000000000000000000000000000000c000004000400000001000100000000000000000000000000000000000000000c0000040004000000000000000000000000000000000000000000000000000004040002000400000000000000000000000000000000000000000000000000000c000008000800000001ffffffffffffffffffffffffffffffff0000000000000c000008000800000000ffffffffffffffffffffffffffffffff00000000000018040008000400000000000000000000000000000000000000000000000000000c000010001000000001200000000000000000000000000000000000000000000c000010001000000000000000000000000000000000000000000000000000000e0000000020000000610b00000000000000000000000000000000000000000008200010001000000000000000000000000000000000000000000000000000000e100000001000000041010000000000000000000000000000000000000000001a100004000400000002000000000000000000000000000000000000000000000e0000040000000000600e00000000000000000000000000000000000000000018020008000200000002000000000000000000000000000000000000000000000e0000020000000000600c0000000000000000000000000000000000000000000e0000000002000000610f00000000000000000000000000000000000000000002020020000200000000000000000000000000000000000000000000000000000e0000020000000000600d000000000000000000000000000000000000000000020200000001000000000000000000000000000000000000000000000000000007000000000000000003fc2b00000000000000000000000000000000000000000e0000000002000000610c0000000000000000000000000000000000000000001a010002000200000002000000000000000000000000000000000000000000000e0000000004000000610e0000000000000000000000000000000000000000001a040002000100000004000000000000000000000000000000000000000000000e0000000002000000610d00000000000000000000000000000000000000000007000000000000000003242c00000000000000000000000000000000000000000c000008000800000001000000000000000000000000000000000000000000000c000008000800000000000000000000000000000000000000000000000000000e000000000400000041000000000000000000000000000000000000000000001a0000040002000000021f0000000000000000000000000000000000000000000e0000020000000000600b0000000000000000000000000000000000000000000e0000040000000000600a0000000000000000000000000000000000000000001a000004000200000002ffffffff0000000000000000000000000000000000000e0000020000000000000000000000000000000000000000000000000000000018000002000200000002050000000000000000000000000000000000000000000e0000000004000000610f0000000000000000000000000000000000000000000e0000020000000000600c00000000000000000000000000000000000000000004020000000000000000000000000000000000000000000000000000000000000a0000000000000000049e1a8e1a0000000000000000000000000000000000000e0000080000000000600e00000000000000000000000000000000000000000018000008000400000000050000000000000000000000000000000000000000000e0000040000000000600d0000000000000000000000000000000000000000000e0000000002000000610f000000000000000000000000000000000000000000020200040001000000000000000000000000000000000000000000000000000007000000000000000003fc2b00000000000000000000000000000000000000000e0000000008000000610e0000000000000000000000000000000000000000000c000002000200000001200000000000000000000000000000000000000000000c000002000200000000000000000000000000000000000000000000000000000e0000000004000000610d00000000000000000000000000000000000000000008040002000200000000000000000000000000000000000000000000000000000e0200010000000000000100000000000000000000000000000000000000000002000008000800000000010000000000000000000000000000000000000000000e0000000002000000610c00000000000000000000000000000000000000000004080002000000000000000000000000000000000000000000000000000000000a0000000000000000028e1a9e1a0000000000000000000000000000000000000e0000000002000000610b00000000000000000000000000000000000000000004020000000000000000000000000000000000000000000000000000000000000a000000000000000004151ca11a0000000000000000000000000000000000000e0000000002000000610a0000000000000000000000000000000000000000001a000002000400000002e0ffffff0000000000000000000000000000000000000e0000040000000000600e0000000000000000000000000000000000000000000e0000000002000000610f000000000000000000000000000000000000000000020200040001000000000000000000000000000000000000000000000000000007000000000000000003fc2b00000000000000000000000000000000000000000c000002000200000001200000000000000000000000000000000000000000000c000002000200000000000000000000000000000000000000000000000000000e0000000004000000610e00000000000000000000000000000000000000000008040002000200000000000000000000000000000000000000000000000000000e0000000004000000610b00000000000000000000000000000000000000000018000004000400000000030000000000000000000000000000000000000000000c000008000800000001ffffffffffffffffffffffffffffffff0000000000000c000008000800000000ffffffffffffffffffffffffffffffff00000000000018040008001000000002000000000000000000000000000000000000000000000e020000002000000001010000000000000000000000000000000000000000001a200010001000000002000000000000000000000000000000000000000000000c000020002000000001000100000000000000000000000000000000000000000c00002000200000000000000000000000000000000000000000000000000000042000040004000000000000000000000000000000000000000000000000000018040008000400000000000000000000000000000000000000000000000000001a010004000400000002000000000000000000000000000000000000000000001a040010000400000004000000000000000000000000000000000000000000000e020004000000000000010000000000000000000000000000000000000000000a000000000000000001151c151c0000000000000000000000000000000000000c000008000800000001000000000000000000000000000000000000000000000c000008000800000000000000000000000000000000000000000000000000000e000000000200000021020000000000000000000000000000000000000000000e0000020000000000600f0000000000000000000000000000000000000000000e000000000200000041000000000000000000000000000000000000000000001a0000020004000000021f0000000000000000000000000000000000000000000e0000040000000000600c0000000000000000000000000000000000000000001a000002000200000002e0ffffff0000000000000000000000000000000000000e0000020000000000600b00000000000000000000000000000000000000000018000002000200000002050000000000000000000000000000000000000000000e0000020000000000600d00000000000000000000000000000000000000000004020000000000000000000000000000000000000000000000000000000000000a000000000000000004d51ac71a0000000000000000000000000000000000000e0000080000000000600e00000000000000000000000000000000000000000018000008000400000000050000000000000000000000000000000000000000000e0000000002000000610f00000000000000000000000000000000000000000002020004000200000000000000000000000000000000000000000000000000000c000008000800000001200000000000000000000000000000000000000000000c0000080008000000000000000000000000000000000000000000000000000008040008000400000000000000000000000000000000000000000000000000000e0400000001000000410100000000000000000000000000000000000000000007000000000000000003242c00000000000000000000000000000000000000000e0000000008000000610e00000000000000000000000000000000000000000002000008000800000000010000000000000000000000000000000000000000000e0000000002000000610d00000000000000000000000000000000000000000004080002000000000000000000000000000000000000000000000000000000000a000000000000000002c71ad51a0000000000000000000000000000000000000e0000000002000000610f0000000000000000000000000000000000000000000e0000000002000000610c00000000000000000000000000000000000000000004020000000000000000000000000000000000000000000000000000000000000a000000000000000004f51ad91a0000000000000000000000000000000000000e0000000002000000610c00000000000000000000000000000000000000000018000002000200000000030000000000000000000000000000000000000000000c000004000400000001000100000000000000000000000000000000000000000c0000040004000000000000000000000000000000000000000000000000000004040002000400000000000000000000000000000000000000000000000000000c000008000800000001ffffffffffffffffffffffffffffffff0000000000000c000008000800000000ffffffffffffffffffffffffffffffff00000000000018040008000400000000000000000000000000000000000000000000000000000c000010001000000001200000000000000000000000000000000000000000000c000010001000000000000000000000000000000000000000000000000000000e0000000020000000610b00000000000000000000000000000000000000000008200010001000000000000000000000000000000000000000000000000000000e100000001000000041010000000000000000000000000000000000000000001a100004000400000002000000000000000000000000000000000000000000000e0000040000000000600e00000000000000000000000000000000000000000018020008000200000002000000000000000000000000000000000000000000000e0000020000000000600c0000000000000000000000000000000000000000000e0000000002000000610f00000000000000000000000000000000000000000002020020000200000000000000000000000000000000000000000000000000000e0000020000000000600d000000000000000000000000000000000000000000020200000001000000000000000000000000000000000000000000000000000007000000000000000003fc2b00000000000000000000000000000000000000000e0000000002000000610c0000000000000000000000000000000000000000001a010002000200000002000000000000000000000000000000000000000000000e0000000004000000610e0000000000000000000000000000000000000000001a040002000100000004000000000000000000000000000000000000000000000e0000000002000000610d00000000000000000000000000000000000000000007000000000000000003242c00000000000000000000000000000000000000000c000008000800000001000000000000000000000000000000000000000000000c000008000800000000000000000000000000000000000000000000000000000e000000000400000041000000000000000000000000000000000000000000001a0000040002000000021f0000000000000000000000000000000000000000000e0000020000000000600b0000000000000000000000000000000000000000000e0000040000000000600a0000000000000000000000000000000000000000001a000004000200000002ffffffff0000000000000000000000000000000000000e0000020000000000000000000000000000000000000000000000000000000018000002000200000002050000000000000000000000000000000000000000000e0000000004000000610f0000000000000000000000000000000000000000000e0000020000000000600c00000000000000000000000000000000000000000004020000000000000000000000000000000000000000000000000000000000000a000000000000000004121b021b0000000000000000000000000000000000000e0000080000000000600e00000000000000000000000000000000000000000018000008000400000000050000000000000000000000000000000000000000000e0000040000000000600d0000000000000000000000000000000000000000000e0000000002000000610f000000000000000000000000000000000000000000020200040001000000000000000000000000000000000000000000000000000007000000000000000003fc2b00000000000000000000000000000000000000000e0000000008000000610e0000000000000000000000000000000000000000000c000002000200000001200000000000000000000000000000000000000000000c000002000200000000000000000000000000000000000000000000000000000e0000000004000000610d00000000000000000000000000000000000000000008040002000200000000000000000000000000000000000000000000000000000e0200010000000000000100000000000000000000000000000000000000000002000008000800000000010000000000000000000000000000000000000000000e0000000002000000610c00000000000000000000000000000000000000000004080002000000000000000000000000000000000000000000000000000000000a000000000000000002021b121b0000000000000000000000000000000000000e0000000002000000610b00000000000000000000000000000000000000000004020000000000000000000000000000000000000000000000000000000000000a000000000000000004151c151b0000000000000000000000000000000000000e0000000002000000610a0000000000000000000000000000000000000000001a000002000400000002e0ffffff0000000000000000000000000000000000000e0000040000000000600e0000000000000000000000000000000000000000000e0000000002000000610f000000000000000000000000000000000000000000020200040001000000000000000000000000000000000000000000000000000007000000000000000003fc2b00000000000000000000000000000000000000000c000002000200000001200000000000000000000000000000000000000000000c000002000200000000000000000000000000000000000000000000000000000e0000000004000000610e00000000000000000000000000000000000000000008040002000200000000000000000000000000000000000000000000000000000e0000000004000000610b00000000000000000000000000000000000000000018000004000400000000030000000000000000000000000000000000000000000c000008000800000001ffffffffffffffffffffffffffffffff0000000000000c000008000800000000ffffffffffffffffffffffffffffffff00000000000018040008001000000002000000000000000000000000000000000000000000000e020000002000000001010000000000000000000000000000000000000000001a200010001000000002000000000000000000000000000000000000000000000c000020002000000001000100000000000000000000000000000000000000000c00002000200000000000000000000000000000000000000000000000000000042000040004000000000000000000000000000000000000000000000000000018040008000400000000000000000000000000000000000000000000000000001a010004000400000002000000000000000000000000000000000000000000001a040010000400000004000000000000000000000000000000000000000000000e020004000000000000010000000000000000000000000000000000000000000a000000000000000001151c151c0000000000000000000000000000000000000c000008000800000001000000000000000000000000000000000000000000000c000008000800000000000000000000000000000000000000000000000000000e000000000200000021020000000000000000000000000000000000000000000e0000020000000000600f0000000000000000000000000000000000000000000e000000000200000041000000000000000000000000000000000000000000001a0000020004000000021f0000000000000000000000000000000000000000000e0000040000000000600c0000000000000000000000000000000000000000001a000002000200000002e0ffffff0000000000000000000000000000000000000e0000020000000000600b00000000000000000000000000000000000000000018000002000200000002050000000000000000000000000000000000000000000e0000020000000000600d00000000000000000000000000000000000000000004020000000000000000000000000000000000000000000000000000000000000a000000000000000004491b3b1b0000000000000000000000000000000000000e0000080000000000600e00000000000000000000000000000000000000000018000008000400000000050000000000000000000000000000000000000000000e0000000002000000610f00000000000000000000000000000000000000000002020004000200000000000000000000000000000000000000000000000000000c000008000800000001200000000000000000000000000000000000000000000c0000080008000000000000000000000000000000000000000000000000000008040008000400000000000000000000000000000000000000000000000000000e0400000001000000410100000000000000000000000000000000000000000007000000000000000003242c00000000000000000000000000000000000000000e0000000008000000610e00000000000000000000000000000000000000000002000008000800000000010000000000000000000000000000000000000000000e0000000002000000610d00000000000000000000000000000000000000000004080002000000000000000000000000000000000000000000000000000000000a0000000000000000023b1b491b0000000000000000000000000000000000000e0000000002000000610f0000000000000000000000000000000000000000000e0000000002000000610c00000000000000000000000000000000000000000004020000000000000000000000000000000000000000000000000000000000000a000000000000000004691b4d1b0000000000000000000000000000000000000e0000000002000000610c00000000000000000000000000000000000000000018000002000200000000030000000000000000000000000000000000000000000c000004000400000001000100000000000000000000000000000000000000000c0000040004000000000000000000000000000000000000000000000000000004040002000400000000000000000000000000000000000000000000000000000c000008000800000001ffffffffffffffffffffffffffffffff0000000000000c000008000800000000ffffffffffffffffffffffffffffffff00000000000018040008000400000000000000000000000000000000000000000000000000000c000010001000000001200000000000000000000000000000000000000000000c000010001000000000000000000000000000000000000000000000000000000e0000000020000000610b00000000000000000000000000000000000000000008200010001000000000000000000000000000000000000000000000000000000e100000001000000041010000000000000000000000000000000000000000001a100004000400000002000000000000000000000000000000000000000000000e0000040000000000600e00000000000000000000000000000000000000000018020008000200000002000000000000000000000000000000000000000000000e0000020000000000600c0000000000000000000000000000000000000000000e0000000002000000610f00000000000000000000000000000000000000000002020020000200000000000000000000000000000000000000000000000000000e0000020000000000600d000000000000000000000000000000000000000000020200000001000000000000000000000000000000000000000000000000000007000000000000000003fc2b00000000000000000000000000000000000000000e0000000002000000610c0000000000000000000000000000000000000000001a010002000200000002000000000000000000000000000000000000000000000e0000000004000000610e0000000000000000000000000000000000000000001a040002000100000004000000000000000000000000000000000000000000000e0000000002000000610d00000000000000000000000000000000000000000007000000000000000003242c00000000000000000000000000000000000000000c000008000800000001000000000000000000000000000000000000000000000c000008000800000000000000000000000000000000000000000000000000000e000000000400000041000000000000000000000000000000000000000000001a0000040002000000021f0000000000000000000000000000000000000000000e0000020000000000600b0000000000000000000000000000000000000000000e0000040000000000600a0000000000000000000000000000000000000000001a000004000200000002ffffffff0000000000000000000000000000000000000e0000020000000000000000000000000000000000000000000000000000000018000002000200000002050000000000000000000000000000000000000000000e0000000004000000610f0000000000000000000000000000000000000000000e0000020000000000600c00000000000000000000000000000000000000000004020000000000000000000000000000000000000000000000000000000000000a000000000000000004861b761b0000000000000000000000000000000000000e0000080000000000600e00000000000000000000000000000000000000000018000008000400000000050000000000000000000000000000000000000000000e0000040000000000600d0000000000000000000000000000000000000000000e0000000002000000610f000000000000000000000000000000000000000000020200040001000000000000000000000000000000000000000000000000000007000000000000000003fc2b00000000000000000000000000000000000000000e0000000008000000610e0000000000000000000000000000000000000000000c000002000200000001200000000000000000000000000000000000000000000c000002000200000000000000000000000000000000000000000000000000000e0000000004000000610d00000000000000000000000000000000000000000008040002000200000000000000000000000000000000000000000000000000000e0200010000000000000100000000000000000000000000000000000000000002000008000800000000010000000000000000000000000000000000000000000e0000000002000000610c00000000000000000000000000000000000000000004080002000000000000000000000000000000000000000000000000000000000a000000000000000002761b861b0000000000000000000000000000000000000e0000000002000000610b00000000000000000000000000000000000000000004020000000000000000000000000000000000000000000000000000000000000a000000000000000004151c891b0000000000000000000000000000000000000e0000000002000000610a0000000000000000000000000000000000000000001a000002000400000002e0ffffff0000000000000000000000000000000000000e0000040000000000600e0000000000000000000000000000000000000000000e0000000002000000610f000000000000000000000000000000000000000000020200040001000000000000000000000000000000000000000000000000000007000000000000000003fc2b00000000000000000000000000000000000000000c000002000200000001200000000000000000000000000000000000000000000c000002000200000000000000000000000000000000000000000000000000000e0000000004000000610e00000000000000000000000000000000000000000008040002000200000000000000000000000000000000000000000000000000000e0000000004000000610b00000000000000000000000000000000000000000018000004000400000000030000000000000000000000000000000000000000000c000008000800000001ffffffffffffffffffffffffffffffff0000000000000c000008000800000000ffffffffffffffffffffffffffffffff00000000000018040008001000000002000000000000000000000000000000000000000000000e020000002000000001010000000000000000000000000000000000000000001a200010001000000002000000000000000000000000000000000000000000000c000020002000000001000100000000000000000000000000000000000000000c00002000200000000000000000000000000000000000000000000000000000042000040004000000000000000000000000000000000000000000000000000018040008000400000000000000000000000000000000000000000000000000001a010004000400000002000000000000000000000000000000000000000000001a040010000400000004000000000000000000000000000000000000000000000e020004000000000000010000000000000000000000000000000000000000000a000000000000000001151c151c0000000000000000000000000000000000000c000008000800000001000000000000000000000000000000000000000000000c000008000800000000000000000000000000000000000000000000000000000e000000000200000021020000000000000000000000000000000000000000000e0000020000000000600f0000000000000000000000000000000000000000000e000000000200000041000000000000000000000000000000000000000000001a0000020004000000021f0000000000000000000000000000000000000000000e0000040000000000600c0000000000000000000000000000000000000000001a000002000200000002e0ffffff0000000000000000000000000000000000000e0000020000000000600b00000000000000000000000000000000000000000018000002000200000002050000000000000000000000000000000000000000000e0000020000000000600d00000000000000000000000000000000000000000004020000000000000000000000000000000000000000000000000000000000000a000000000000000004bd1baf1b0000000000000000000000000000000000000e0000080000000000600e00000000000000000000000000000000000000000018000008000400000000050000000000000000000000000000000000000000000e0000000002000000610f00000000000000000000000000000000000000000002020004000200000000000000000000000000000000000000000000000000000c000008000800000001200000000000000000000000000000000000000000000c0000080008000000000000000000000000000000000000000000000000000008040008000400000000000000000000000000000000000000000000000000000e0400000001000000410100000000000000000000000000000000000000000007000000000000000003242c00000000000000000000000000000000000000000e0000000008000000610e00000000000000000000000000000000000000000002000008000800000000010000000000000000000000000000000000000000000e0000000002000000610d00000000000000000000000000000000000000000004080002000000000000000000000000000000000000000000000000000000000a000000000000000002af1bbd1b0000000000000000000000000000000000000e0000000002000000610f0000000000000000000000000000000000000000000e0000000002000000610c00000000000000000000000000000000000000000004020000000000000000000000000000000000000000000000000000000000000a000000000000000004dd1bc11b0000000000000000000000000000000000000e0000000002000000610c00000000000000000000000000000000000000000018000002000200000000030000000000000000000000000000000000000000000c000004000400000001000100000000000000000000000000000000000000000c0000040004000000000000000000000000000000000000000000000000000004040002000400000000000000000000000000000000000000000000000000000c000008000800000001ffffffffffffffffffffffffffffffff0000000000000c000008000800000000ffffffffffffffffffffffffffffffff00000000000018040008000400000000000000000000000000000000000000000000000000000c000010001000000001200000000000000000000000000000000000000000000c000010001000000000000000000000000000000000000000000000000000000e0000000020000000610b00000000000000000000000000000000000000000008200010001000000000000000000000000000000000000000000000000000000e100000001000000041010000000000000000000000000000000000000000001a100004000400000002000000000000000000000000000000000000000000000e0000040000000000600e00000000000000000000000000000000000000000018020008000200000002000000000000000000000000000000000000000000000e0000020000000000600c0000000000000000000000000000000000000000000e0000000002000000610f00000000000000000000000000000000000000000002020020000200000000000000000000000000000000000000000000000000000e0000020000000000600d000000000000000000000000000000000000000000020200000001000000000000000000000000000000000000000000000000000007000000000000000003fc2b00000000000000000000000000000000000000000e0000000002000000610c0000000000000000000000000000000000000000001a010002000200000002000000000000000000000000000000000000000000000e0000000004000000610e0000000000000000000000000000000000000000001a040002000100000004000000000000000000000000000000000000000000000e0000000002000000610d00000000000000000000000000000000000000000007000000000000000003242c00000000000000000000000000000000000000000c000008000800000001000000000000000000000000000000000000000000000c000008000800000000000000000000000000000000000000000000000000000e000000000400000041000000000000000000000000000000000000000000001a0000040002000000021f0000000000000000000000000000000000000000000e0000020000000000600b0000000000000000000000000000000000000000000e0000040000000000600a0000000000000000000000000000000000000000001a000004000200000002ffffffff0000000000000000000000000000000000000e0000020000000000000000000000000000000000000000000000000000000018000002000200000002050000000000000000000000000000000000000000000e0000000004000000610f0000000000000000000000000000000000000000000e0000020000000000600c00000000000000000000000000000000000000000004020000000000000000000000000000000000000000000000000000000000000a000000000000000004fa1bea1b0000000000000000000000000000000000000e0000080000000000600e00000000000000000000000000000000000000000018000008000400000000050000000000000000000000000000000000000000000e0000040000000000600d0000000000000000000000000000000000000000000e0000000002000000610f000000000000000000000000000000000000000000020200040001000000000000000000000000000000000000000000000000000007000000000000000003fc2b00000000000000000000000000000000000000000e0000000008000000610e0000000000000000000000000000000000000000000c000002000200000001200000000000000000000000000000000000000000000c000002000200000000000000000000000000000000000000000000000000000e0000000004000000610d00000000000000000000000000000000000000000008040002000200000000000000000000000000000000000000000000000000000e0200010000000000000100000000000000000000000000000000000000000002000008000800000000010000000000000000000000000000000000000000000e0000000002000000610c00000000000000000000000000000000000000000004080002000000000000000000000000000000000000000000000000000000000a000000000000000002ea1bfa1b0000000000000000000000000000000000000e0000000002000000610b00000000000000000000000000000000000000000004020000000000000000000000000000000000000000000000000000000000000a000000000000000004151cfd1b0000000000000000000000000000000000000e0000000002000000610a0000000000000000000000000000000000000000001a000002000400000002e0ffffff0000000000000000000000000000000000000e0000040000000000600e0000000000000000000000000000000000000000000e0000000002000000610f000000000000000000000000000000000000000000020200040001000000000000000000000000000000000000000000000000000007000000000000000003fc2b00000000000000000000000000000000000000000c000002000200000001200000000000000000000000000000000000000000000c000002000200000000000000000000000000000000000000000000000000000e0000000004000000610e00000000000000000000000000000000000000000008040002000200000000000000000000000000000000000000000000000000000e0000000004000000610b00000000000000000000000000000000000000000018000004000400000000030000000000000000000000000000000000000000000c000008000800000001ffffffffffffffffffffffffffffffff0000000000000c000008000800000000ffffffffffffffffffffffffffffffff00000000000018040008001000000002000000000000000000000000000000000000000000000e020000002000000001010000000000000000000000000000000000000000001a200010001000000002000000000000000000000000000000000000000000000c000020002000000001000100000000000000000000000000000000000000000c00002000200000000000000000000000000000000000000000000000000000042000040004000000000000000000000000000000000000000000000000000018040008000400000000000000000000000000000000000000000000000000001a010004000400000002000000000000000000000000000000000000000000001a040010000400000004000000000000000000000000000000000000000000000e020004000000000000010000000000000000000000000000000000000000000e0000000000000000e10e00000000000000000000000000000000000000000007000000000000000004000000000000000000000000000000000000000000000e0000000000000000e00200000000000000000000000000000000000000000004010000000000000000000000000000000000000000000000000000000000000a0000000000000000041c1c1a1c0000000000000000000000000000000000000e0000000000000000e10200000000000000000000000000000000000000000007000000000000000000000000000000000000000000000000000000000000000c000001000100000001000000000000000000000000000000000000000000000c000001000100000000000000000000000000000000a079c3080000000000000e000000000200000021020000000000000000000000000000000000000000000e0000020000000000600100000000000000000000000000000000000000000007000000000000000003242c00000000000000000000000000000000000000000e0000000002000000610100000000000000000000000000000000000000000002000002000200000000040000000000000000000000000000000000000000000c000001000100000001200000000000000000000000000000000000000000000c0000010001000000000000000000000000000000000000000000000000000007000000000000000003242c00000000000000000000000000000000000000000e0000000002000000610100000000000000000000000000000000000000000002000002000200000000240000000000000000000000000000000000000000000c000001000100000001290000000000000000000000000000000000000000000c0000010001000000000000000000000000000000000000000000000000000007000000000000000003242c00000000000000000000000000000000000000000e0000000002000000610100000000000000000000000000000000000000000002000002000200000000440000000000000000000000000000000000000000000c0000010001000000014944495551494c5f544e4549434946460000000000000c00000100010000000055534e49203a7269615070617773584400000000000007000000000000000003242c00000000000000000000000000000000000000000e0000000002000000610100000000000000000000000000000000000000000002000002000200000000640000000000000000000000000000000000000000000c000001000100000001000000000000000000000000000000000000000000000c0000010001000000000000000000000044454e5255425f595400000000000007000000000000000003242c00000000000000000000000000000000000000000c000002000200000001840000000000000000000000000000000000000000000c000002000200000000000000000000000000000000000000000000000000000e000002000000000000000000000000000000000000000000000000000000000c000002000200000001000000000000000000000000000000000000000000000c000002000200000000000000000000000000000000000000000000000000000e0000020000000000600300000000000000000000000000000000000000000018000002000400000000050000000000000000000000000000000000000000000e000004000000000060020000000000000000000000000000000000000000000e00000000020000006101000000000000000000000000000000000000000000020200040001000000000000000000000000000000000000000000000000000007000000000000000003fc2b00000000000000000000000000000000000000000c000002000200000001200000000000000000000000000000000000000000000c000002000200000000000000000000000000000000000000000000000000000e0000000004000000610200000000000000000000000000000000000000000008040002000200000000000000000000000000000000000000000000000000000e020001000000000000010000000000000000000000000000000000000000000e0000000002000000610300000000000000000000000000000000000000000002000002000200000000010000000000000000000000000000000000000000000c000004000400000001040000000000000000000000000000000000000000000c0000040004000000000000000000000000000000000000000000000000000004020004000000000000000000000000000000000000000000000000000000000a0000000000000000023a1c4b1c0000000000000000000000000000000000000e00000000020000006101000000000000000000000000000000000000000000020000020001000000008000000000000000000000000000000000000000000007000000000000000003fc2b00000000000000000000000000000000000000000c000002000200000001ffffffffffffffffffffffffffffffff0000000000000c000002000200000000ffffffffffffffffffffffff000000000000000000000e000000000400000001050000000000000000000000000000000000000000001a040002000200000002000000000000000000000000000000000000000000000c000004000400000001000000000000000000000000000000000000000000000c000004000400000000000000000000000000000000ffffffff0000000000001a010004000400000002000000000000000000000000000000000000000000001a040002000200000004000000000000000000000000000000000000000000000e000002000000000000050000000000000000000000000000000000000000000e0000000000000000e10200000000000000000000000000000000000000000007000000000000000004000000000000000000000000000000000000000000000e0000000000000000e0020000000000000000000000000000000000000000000e000002000000000060020000000000000000000000000000000000000000000c000002000200000001ffffffffffffffffffffffffffffffff0000000000000c000002000200000000ffffffff0000000000000000000000000000000000001a010002000200000002000000000000000000000000000000000000000000000e000002000000000060010000000000000000000000000000000000000000000e000002000000000020000000000000000000000000000000000000000000000c000002000200000001010000000000000000000000000000000000000000000c000002000200000000000000000000000000000000000000000000000000000e0000020000000000200100000000000000000000000000000000000000000010000000000000000000000000000000000000000000000000000000000000000c000002000200000001400000000000000000000000000000000000000000000c000002000200000000000000000000000000000000000000000000000000000e000002000000000040000000000000000000000000000000000000000000000c000002000200000001000000000000000000000000000000000000000000000c000002000200000000000000000000000000000000000000000000000000000c000004000400000001200000000000000000000000000000000000000000000c000004000400000000000000000000000000000000000000000000000000000c000008000800000001020000000000000000000000000000000000000000000c00000800080000000000000000000000000000000000000000000000000000180000020010000000000500000000000000000000000000000000000000000008100004001000000000000000000000000000000000000000000000000000000e100000002000000021000000000000000000000000000000000000000000000e10002000000000004001000000000000000000000000000000000000000000020000020002000000000100000000000000000000000000000000000000000004020008000000000000000000000000000000000000000000000000000000000a0000000000000000026d1c741c0000000000000000000000000000000000000c00000100010000000100000000ff03000000000000000000000000000000000c0000010001000000000000000000000000000000000000000000000000000007000000000000000003432c00000000000000000000000000000000000000000e0000000002000000410100000000000000000000000000000000000000000005020000000100000001000000000000000000000000000000000000000000000e0000000002000000610200000000000000000000000000000000000000000007000000000000000003f82a00000000000000000000000000000000000000000a0000000000000000027c1c7d1c0000000000000000000000000000000000000a000000000000000001d31cd31c0000000000000000000000000000000000000e000001000000000060030000000000000000000000000000000000000000000e000000000200000061010000000000000000000000000000000000000000000e000002000000000020000000000000000000000000000000000000000000000c000002000200000001010000000000000000000000000000000000000000000c000002000200000000000000000000000000000000000000000000000000000e0000020000000000200100000000000000000000000000000000000000000010000000000000000000000000000000000000000000000000000000000000000c000002000200000001400000000000000000000000000000000000000000000c000002000200000000000000000000000000000000000000000000000000000e000002000000000040000000000000000000000000000000000000000000000c000002000200000001000000000000000000000000000000000000000000000c000002000200000000000000000000000000000000000000000000000000000c000004000400000001200000000000000000000000000000000000000000000c000004000400000000000000000000000000000000000000000000000000000c000008000800000001020000000000000000000000000000000000000000000c00000800080000000000000000000000000000000000000000000000000000180000020010000000000500000000000000000000000000000000000000000008100004001000000000000000000000000000000000000000000000000000000e100000002000000021000000000000000000000000000000000000000000000e10002000000000004001000000000000000000000000000000000000000000020000020002000000000100000000000000000000000000000000000000000004020008000000000000000000000000000000000000000000000000000000000a0000000000000000028d1c941c0000000000000000000000000000000000000c00000100010000000100000000ff03000000000000000000000000000000000c0000010001000000000000000000000000000000000000000000000000000007000000000000000003432c00000000000000000000000000000000000000000e000000000200000041010000000000000000000000000000000000000000000e0000000004000000610300000000000000000000000000000000000000000005020004000000000000000000000000000000000000000000000000000000000c000002000200000001000000000000000000000000000000000000000000000c0000020002000000000000000000000000000000000000000000000000000005020000000100000001000000000000000000000000000000000000000000000e0000000002000000610200000000000000000000000000000000000000000007000000000000000003f82a00000000000000000000000000000000000000000a000000000000000002a01ca11c0000000000000000000000000000000000000a000000000000000001d31cd31c0000000000000000000000000000000000000c000002000200000001000000000000000000000000000000000000000000000c0000020002000000000000000000000000000000000000000000000000000005020001000000000000000000000000000000000000000000000000000000000e000000000200000021020000000000000000000000000000000000000000000e000002000000000060030000000000000000000000000000000000000000000e0000000001000000610200000000000000000000000000000000000000000007000000000000000003242c00000000000000000000000000000000000000000e000000000800000061030000000000000000000000000000000000000000000c000002000200000001efb323f54d5af52816a1c463f1a72b950000000000000c000002000200000000aa8d37fc68b0c2699bc8e21bad52f2dd0000000000000c000004000400000001030000002000000000000000000000000000000000000c000004000400000000000000000000000000000000000000000000000000000504000200000000000a000000000000000000000000000000000000000000000e000000000200000061010000000000000000000000000000000000000000000c000004000400000001000000000000000000000000000000000000000000000c00000400040000000000000000000000000000000000000000000000000000050200040000000000020000000000000000000000000000000000000000000002000008001000000000200000000000000000000000000000000000000000000c000002000200000001e0ffffffffffffffffffffffffffffff0000000000000c000002000200000000ffffffffffffffffffffffffffffffff0000000000000e0000100000000000600200000000000000000000000000000000000000000004080002000000000000000000000000000000000000000000000000000000000a00000000000000000cb81cc01c0000000000000000000000000000000000000e0000000000000000e10200000000000000000000000000000000000000000007000000000000000000000000000000000000000000000000000000000000000c000002000200000001000000000000000000000000000000000000000000000c000002000200000000000000000000000000000000000000000000000000000520000200000000000200000000000000000000000000000000000000000000020000080008000000004000000000000000000000000000000000000000000004100008000000000000000000000000000000000000000000000000000000000a000000000000000008c01cb81c0000000000000000000000000000000000000e00000800000000006003000000000000000000000000000000000000000000020800000001000000000000000000000000000000000000000000000000000007000000000000000003fc2b00000000000000000000000000000000000000000e000000001000000061020000000000000000000000000000000000000000000e00000000080000006103000000000000000000000000000000000000000000041000080002000000000000000000000000000000000000000000000000000002010000002000000000000000000000000000000000000000000000000000000c0000040004000000013f0000000000000000000000000000000000000000000c0000040004000000000000000000000000000000000000000000000000000004020004000000000000000000000000000000000000000000000000000000000a000000000000000008cb1cba1c00000000000000000000000000000000000002000008000100000000200000000000000000000000000000000000000000000e0000200000000000600100000000000000000000000000000000000000000007000000000000000003fc2b00000000000000000000000000000000000000000e000000001000000061020000000000000000000000000000000000000000000e000000000800000061030000000000000000000000000000000000000000000e0000000002000000610100000000000000000000000000000000000000000005020001000000000002000000000000000000000000000000000000000000000a000000000000000001bd1cbd1c0000000000000000000000000000000000000e0000000000000000e10200000000000000000000000000000000000000000007000000000000000004000000000000000000000000000000000000000000000e0000000000000000e00200000000000000000000000000000000000000000004010000000000000000000000000000000000000000000000000000000000000a000000000000000004da1cd81c0000000000000000000000000000000000000e0000000000000000e10200000000000000000000000000000000000000000007000000000000000000000000000000000000000000000000000000000000000c000001000100000001000000000000000000000000000000000000000000000c000001000100000000000000000000000000000000a079c3080000000000000e000000000200000021020000000000000000000000000000000000000000000e0000020000000000600100000000000000000000000000000000000000000007000000000000000003242c00000000000000000000000000000000000000000e0000000002000000610100000000000000000000000000000000000000000002000002000200000000040000000000000000000000000000000000000000000c000001000100000001200000000000000000000000000000000000000000000c0000010001000000000000000000000000000000000000000000000000000007000000000000000003242c00000000000000000000000000000000000000000e0000000002000000610100000000000000000000000000000000000000000002000002000200000000240000000000000000000000000000000000000000000c0000010001000000011b0000000000000000000000000000000000000000000c0000010001000000000000000000000000000000000000000000000000000007000000000000000003242c00000000000000000000000000000000000000000e0000000002000000610100000000000000000000000000000000000000000002000002000200000000440000000000000000000000000000000000000000000c000001000100000001000000000044454c4941465f524546530000000000000c0000010001000000004e415254203a7269615070617773584400000000000007000000000000000003242c00000000000000000000000000000000000000000c000002000200000001640000000000000000000000000000000000000000000c000002000200000000000000000000000000000000000000000000000000000e000002000000000000000000000000000000000000000000000000000000000c000002000200000001000000000000000000000000000000000000000000000c000002000200000000000000000000000000000000000000000000000000000e0000020000000000600300000000000000000000000000000000000000000018000002000400000000050000000000000000000000000000000000000000000e000004000000000060020000000000000000000000000000000000000000000e00000000020000006101000000000000000000000000000000000000000000020200040001000000000000000000000000000000000000000000000000000007000000000000000003fc2b00000000000000000000000000000000000000000c000002000200000001200000000000000000000000000000000000000000000c000002000200000000000000000000000000000000000000000000000000000e0000000004000000610200000000000000000000000000000000000000000008040002000200000000000000000000000000000000000000000000000000000e020001000000000000010000000000000000000000000000000000000000000e0000000002000000610300000000000000000000000000000000000000000002000002000200000000010000000000000000000000000000000000000000000c000004000400000001030000000000000000000000000000000000000000000c0000040004000000000000000000000000000000000000000000000000000004020004000000000000000000000000000000000000000000000000000000000a000000000000000002f31c041d0000000000000000000000000000000000000e00000000020000006101000000000000000000000000000000000000000000020000020001000000006000000000000000000000000000000000000000000007000000000000000003fc2b00000000000000000000000000000000000000000c000002000200000001ffffffffffffffffffffffffffffffff0000000000000c000002000200000000ffffffffffffffffffffffff000000000000000000000e000000000400000001040000000000000000000000000000000000000000001a040002000200000002000000000000000000000000000000000000000000000c000004000400000001000000000000000000000000000000000000000000000c000004000400000000000000000000000000000000ffffffff0000000000001a010004000400000002000000000000000000000000000000000000000000001a040002000200000004000000000000000000000000000000000000000000000e000002000000000000040000000000000000000000000000000000000000000e0000000000000000e10200000000000000000000000000000000000000000007000000000000000004000000000000000000000000000000000000000000000e0000000000000000e0060000000000000000000000000000000000000000000e000004000000000060060000000000000000000000000000000000000000000e000002000000000060040000000000000000000000000000000000000000000e000001000000000060030000000000000000000000000000000000000000000e000000000200000021020000000000000000000000000000000000000000000c000004000400000001bfffffffffffffffffffffffffffffff0000000000000c000004000400000000ffffffffffffffffffffffffffffffff00000000000004020004000000000000000000000000000000000000000000000000000000000a0000000000000000081e1e1b1d00000000000000000000000000000000000002000002000800000000400000000000000000000000000000000000000000000c000004000400000001ffffffffffffffff00000000000000000000000000000c0000040004000000000000000000000000000000000000000000000000000004080004000000000000000000000000000000000000000000000000000000000a0000000000000000081e1e201d0000000000000000000000000000000000000e000008000000000020020000000000000000000000000000000000000000000c000001000100000001190000000000000000000000000000000000000000000c000001000100000000000000000000000000000000000000000000000000000e0000020000000000600700000000000000000000000000000000000000000007000000000000000003242c00000000000000000000000000000000000000000e0000000002000000610700000000000000000000000000000000000000000002000002000200000000200000000000000000000000000000000000000000000c0000010001000000010000000000000029363532746e69752c0000000000000c0000010001000000007373657264646128726566736e61727400000000000007000000000000000003242c00000000000000000000000000000000000000000e000000000200000021020000000000000000000000000000000000000000000e0000020000000000600700000000000000000000000000000000000000000002000002000200000000200000000000000000000000000000000000000000000c000001000100000001000000000000000000000000000000000000000000000c000001000100000000000000000000000000000000bb9c05a90000000000000e0000020000000000600500000000000000000000000000000000000000000007000000000000000003242c00000000000000000000000000000000000000000c000002000200000001ffffffffffffffffffffffffffffffff0000000000000c000002000200000000ffffffff0000000000000000000000000000000000000e000000000400000061040000000000000000000000000000000000000000001a040002000100000002000000000000000000000000000000000000000000000e00000000020000006107000000000000000000000000000000000000000000020000020002000000002400000000000000000000000000000000000000000007000000000000000003242c00000000000000000000000000000000000000000e0000000002000000610700000000000000000000000000000000000000000002000002000200000000440000000000000000000000000000000000000000000e0000000001000000610600000000000000000000000000000000000000000007000000000000000003242c00000000000000000000000000000000000000000c000001000100000001440000000000000000000000000000000000000000000c000001000100000000000000000000000000000000000000000000000000000e0000000002000000610700000000000000000000000000000000000000000007000000000000000003242c00000000000000000000000000000000000000000e000000000800000061070000000000000000000000000000000000000000000c0000020002000000017fffffffffffffffffffffffffffffff0000000000000c000002000200000000ffffffffffffffffffffffffffffffff00000000000004080002000000000000000000000000000000000000000000000000000000000a0000000000000000083d1e451d00000000000000000000000000000000000002000008000200000000800000000000000000000000000000000000000000000c000004000400000001ffffffffffffffff00000000000000000000000000000c0000040004000000000000000000000000000000000000000000000000000004020004000000000000000000000000000000000000000000000000000000000a0000000000000000083d1e4a1d0000000000000000000000000000000000000e00000200000000002002000000000000000000000000000000000000000000020800000001000000000000000000000000000000000000000000000000000007000000000000000003fc2b00000000000000000000000000000000000000000c000008000800000001010000000000000000000000000000000000000000000c0000080008000000000000000000000000000000000000000000000000000002010000001000000000000000000000000000000000000000000000000000000c000002000200000001040000000000000000000000000000000000000000000c000002000200000000000000000000000000000000000000000000000000000e0000000004000000610300000000000000000000000000000000000000000004040002000000000000000000000000000000000000000000000000000000000a000000000000000004921d551d0000000000000000000000000000000000000c000004000400000001000000000000000000000000000000000000000000000c000004000400000000000000000000000000000000000000000000000000001a0000100002000000021f0000000000000000000000000000000000000000000e0000020000000000600200000000000000000000000000000000000000000010000000000000000000000000000000000000000000000000000000000000000e000010000000000040000000000000000000000000000000000000000000000e0000100000000000600100000000000000000000000000000000000000000018000010000200000002050000000000000000000000000000000000000000000e000000000800000061050000000000000000000000000000000000000000000e0000020000000000600400000000000000000000000000000000000000000004020000000000000000000000000000000000000000000000000000000000000a000000000000000004711d611d0000000000000000000000000000000000000e0000040000000000600700000000000000000000000000000000000000000018000004000400000000050000000000000000000000000000000000000000000e000004000000000060060000000000000000000000000000000000000000000e00000000020000006105000000000000000000000000000000000000000000020200040001000000000000000000000000000000000000000000000000000007000000000000000003fc2b00000000000000000000000000000000000000000e000000000400000061070000000000000000000000000000000000000000000c000002000200000001200000000000000000000000000000000000000000000c000002000200000000000000000000000000000000000000000000000000000e0000000008000000610600000000000000000000000000000000000000000008080002000200000000000000000000000000000000000000000000000000000e0200010000000000400100000000000000000000000000000000000000000002000004000400000000010000000000000000000000000000000000000000000e0000000002000000610400000000000000000000000000000000000000000004040002000000000000000000000000000000000000000000000000000000000a000000000000000002611d711d0000000000000000000000000000000000000e000000000400000061050000000000000000000000000000000000000000000e0000000002000000610200000000000000000000000000000000000000000004020000000000000000000000000000000000000000000000000000000000000a0000000000000000048e1d751d0000000000000000000000000000000000000c000002000200000001e0ffffffffffffffffffffffffffffff0000000000000c000002000200000000ffffffffffffffffffffffffffffffff0000000000000e000000000800000061010000000000000000000000000000000000000000001a080002000200000002000000000000000000000000000000000000000000000e00000200000000006007000000000000000000000000000000000000000000020400020001000000000000000000000000000000000000000000000000000007000000000000000003fc2b00000000000000000000000000000000000000000c000002000200000001200000000000000000000000000000000000000000000c000002000200000000000000000000000000000000000000000000000000000e0000000004000000610700000000000000000000000000000000000000000008040002000200000000000000000000000000000000000000000000000000000e0000000004000000610200000000000000000000000000000000000000000018000004000400000000030000000000000000000000000000000000000000000c000008000800000001ffffffffffffffffffffffffffffffff0000000000000c000008000800000000ffffffffffffffffffffffffffffffff00000000000018040008001000000002000000000000000000000000000000000000000000000e020000002000000041010000000000000000000000000000000000000000001a200010001000000002000000000000000000000000000000000000000000000c000020002000000001000100000000000000000000000000000000000000000c00002000200000000000000000000000000000000000000000000000000000042000040004000000000000000000000000000000000000000000000000000018040008000400000000000000000000000000000000000000000000000000001a010004000400000002000000000000000000000000000000000000000000001a040010000400000004000000000000000000000000000000000000000000000e020004000000000040010000000000000000000000000000000000000000000e000000000200000061030000000000000000000000000000000000000000001800000200010000000020000000000000000000000000000000000000000000070000000000000000034b2c000000000000000000000000000000000000000002010000000800000000000000000000000000000000000000000000000000000e000008000000000060030000000000000000000000000000000000000000000c000002000200000001600000000000000000000000000000000000000000000c000002000200000000000000000000000000000000000000000000000000000e000002000000000060040000000000000000000000000000000000000000000e000000000200000041000000000000000000000000000000000000000000001a000002000200000002ffffffff00000000000000000000000000000000000004020000000000000000000000000000000000000000000000000000000000000a000000000000000004ea1d9a1d000000000000000000000000000000000000020000020004000000001f0000000000000000000000000000000000000000001a000004000400000002e0ffffff010000000000000000000000000000000000020000040004000000003f0000000000000000000000000000000000000000001a000004000400000002e0ffffff0300000000000000000000000000000000000e0000000010000000210200000000000000000000000000000000000000000002100004000400000000000000000000000000000000000000000000000000000c000008000800000001010000000000000000000000000000000000000000000c000008000800000000000000000000000000000000000000000000000000000e0000100000000000600400000000000000000000000000000000000000000004040010000000000000000000000000000000000000000000000000000000000a000000000000000002a71da51d0000000000000000000000000000000000000c000008000800000001000000000000000000000000000000000000000000000c000008000800000000000000000000000000000000000000000000000000000c000010001000000001ffffffffffffffff00000000000000000000000000000c0000100010000000000000000000000000000000000000000000000000000004040010000000000000000000000000000000000000000000000000000000000a000000000000000008761eab1d00000000000000000000000000000000000004080000000000000000000000000000000000000000000000000000000000000a00000000000000000a761ead1d0000000000000000000000000000000000000e0000040000000000200200000000000000000000000000000000000000000002020000000100000000000000000000000000000000000000000000000000000e0000000002000000610400000000000000000000000000000000000000000007000000000000000003242c00000000000000000000000000000000000000000c000008000800000001000000000000000000000000000000000000000000000c000008000800000000000000000000000000000000000000000000000000000e0000000002000000610400000000000000000000000000000000000000000002000002002000000000200000000000000000000000000000000000000000000e000000000200000041000000000000000000000000000000000000000000001a0000020004000000021f0000000000000000000000000000000000000000000e000004000000000060020000000000000000000000000000000000000000001a000002000200000002e0ffffff0000000000000000000000000000000000000e0000020000000000600100000000000000000000000000000000000000000018000002000200000002050000000000000000000000000000000000000000000e000002000000000060050000000000000000000000000000000000000000000e0000200000000000600600000000000000000000000000000000000000000004020000000000000000000000000000000000000000000000000000000000000a000000000000000004cd1dbf1d0000000000000000000000000000000000000e00000800000000006007000000000000000000000000000000000000000000180000080004000000000500000000000000000000000000000000000000000002200004000200000000000000000000000000000000000000000000000000000c000008000800000001200000000000000000000000000000000000000000000c0000080008000000000000000000000000000000000000000000000000000008040008000400000000000000000000000000000000000000000000000000000e0400000001000000410100000000000000000000000000000000000000000007000000000000000003242c00000000000000000000000000000000000000000e000000000800000061070000000000000000000000000000000000000000000e0000000020000000610600000000000000000000000000000000000000000002000008000800000000010000000000000000000000000000000000000000000e0000000002000000610500000000000000000000000000000000000000000004080002000000000000000000000000000000000000000000000000000000000a000000000000000002bf1dcd1d0000000000000000000000000000000000000e0000000002000000610200000000000000000000000000000000000000000004020000000000000000000000000000000000000000000000000000000000000a000000000000000004ea1dd01d00000000000000000000000000000000000018000002000200000000030000000000000000000000000000000000000000000c000004000400000001000100000000000000000000000000000000000000000c0000040004000000000000000000000000000000000000000000000000000004040002000400000000000000000000000000000000000000000000000000000c000008000800000001ffffffffffffffffffffffffffffffff0000000000000c000008000800000000ffffffffffffffffffffffffffffffff00000000000018040008000400000000000000000000000000000000000000000000000000000c000010001000000001200000000000000000000000000000000000000000000c000010001000000000000000000000000000000000000000000000000000000e0000000040000000610100000000000000000000000000000000000000000008400010001000000000000000000000000000000000000000000000000000000e100000001000000041010000000000000000000000000000000000000000001a100004000400000002000000000000000000000000000000000000000000000e0000040000000000600700000000000000000000000000000000000000000018020008000200000002000000000000000000000000000000000000000000000e0000020000000000600500000000000000000000000000000000000000000002200040000200000000000000000000000000000000000000000000000000000e00000200000000006006000000000000000000000000000000000000000000020200000001000000000000000000000000000000000000000000000000000007000000000000000003fc2b00000000000000000000000000000000000000000e000000000200000061050000000000000000000000000000000000000000001a010002000200000002000000000000000000000000000000000000000000000e000000000400000061070000000000000000000000000000000000000000001a040002000100000004000000000000000000000000000000000000000000000e0000000002000000610600000000000000000000000000000000000000000007000000000000000003242c00000000000000000000000000000000000000000c000002000200000001000000000000000000000000000000000000000000000c000002000200000000000000000000000000000000000000000000000000000e0000000004000000610300000000000000000000000000000000000000000004040000000000000000000000000000000000000000000000000000000000000a000000000000000004181eef1d0000000000000000000000000000000000000e0000000001000000610400000000000000000000000000000000000000000007000000000000000003fc2b00000000000000000000000000000000000000000c000002000200000001010000000000000000000000000000000000000000000c0000020002000000000000000000000000000000000000000000000000000004010000000000000000000000000000000000000000000000000000000000000a000000000000000004181ef51d0000000000000000000000000000000000000c000008000800000001200000000000000000000000000000000000000000000c000008000800000000000000000000000000000000000000000000000000000c000004000400000001000000000000000000000000000000000000000000000c000004000400000000000000000000000000000000000000800000000000000c000002000200000001000000000000000000000000000000000000000000000c0000020002000000000000000000000000000000000000008000000000000004010008000000000000000000000000000000000000000000000000000000000a00000000000000000cff1dfd1d0000000000000000000000000000000000000c000002000200000001000000000000000000000000000000000000000000000c000002000200000000000000000000000000000000000000000000000000001a010004001000000002000000000000000000000000000000000000000000000c000008000800000001000000000000000000000000000000000000000000000c0000080008000000000000000000000000000000000000008000000000000004100000000000000000000000000000000000000000000000000000000000000a000000000000000002061e041e0000000000000000000000000000000000000c000008000800000001000000000000000000000000000000000000000000000c0000080008000000000000000000000000000000000000000000000000000004100004000000000000000000000000000000000000000000000000000000000a000000000000000004091e081e000000000000000000000000000000000000020200000008000000000000000000000000000000000000000000000000000004080000000000000000000000000000000000000000000000000000000000000a00000000000000000a0b1e721e0000000000000000000000000000000000000e00000000020000006104000000000000000000000000000000000000000000020000020001000000002000000000000000000000000000000000000000000007000000000000000003fc2b000000000000000000000000000000000000000002010000000200000000000000000000000000000000000000000000000000000c000004000400000001010000000000000000000000000000000000000000000c0000040004000000000000000000000000000000000000000000000000000004020000000000000000000000000000000000000000000000000000000000000a00000000000000000a151e131e0000000000000000000000000000000000000c000004000400000001000000000000000000000000000000000000000000000c000004000400000000000000000000000000000000000000000000000000001a0000040004000000020100000000000000000000000000000000000000000004020004000000000000000000000000000000000000000000000000000000000a000000000000000004181e721e000000000000000000000000000000000000020200000001000000000000000000000000000000000000000000000000000007000000000000000003d51c00000000000000000000000000000000000000000a0000000000000000021b1e1c1e0000000000000000000000000000000000000a0000000000000000019f1e9f1e0000000000000000000000000000000000000e0000000000000000e10600000000000000000000000000000000000000000007000000000000000000000000000000000000000000000000000000000000000c000002000200000001000000000000000000000000000000000000000000000c000002000200000000000000000000000000000000717b484e0000000000000e000002000000000020000000000000000000000000000000000000000000000c000001000100000001410000000000000000000000000000000000000000000c000001000100000000000000000000000000000000000000000000000000000c000002000200000001040000000000000000000000000000000000000000000c0000020002000000000000000000000000000000000000000000000000000007000000000000000003242c00000000000000000000000000000000000000000c000002000200000001240000000000000000000000000000000000000000000c000002000200000000000000000000000000000000000000000000000000000e000002000000000000000000000000000000000000000000000000000000000c000004000400000001000000000000000000000000000000000000000000000c000004000400000000000000000000000000000000000000000000000000000c000002000200000001200000000000000000000000000000000000000000000c000002000200000000000000000000000000000000000000000000000000000a000000000000000001311e311e000000000000000000000000000000000000020800000004000000000000000000000000000000000000000000000000000004100000000000000000000000000000000000000000000000000000000000000a00000000000000000a311e5c1e000000000000000000000000000000000000180000040008000000000500000000000000000000000000000000000000000008080002000800000000000000000000000000000000000000000000000000000e080000001000000021000000000000000000000000000000000000000000000e0800100000000000000100000000000000000000000000000000000000000002000004000800000000010000000000000000000000000000000000000000000c000010001000000001010000000000000000000000000000000000000000000c0000100010000000000000000000000000000000000000000000000000000004080004000000000000000000000000000000000000000000000000000000000a0000000000000000022e1e3a1e0000000000000000000000000000000000000c000010001000000001000000000000000000000000000000000000000000000c000010001000000000000000000000000000000000000000000000000000000a0000000000000000012e1e2e1e0000000000000000000000000000000000000c000002000200000001000000000000000000000000000000000000000000000c000002000200000000000000000000000000000000717b484e0000000000000e000002000000000020000000000000000000000000000000000000000000000c000001000100000001410000000000000000000000000000000000000000000c000001000100000000000000000000000000000000000000000000000000000c000002000200000001040000000000000000000000000000000000000000000c0000020002000000000000000000000000000000000000000000000000000007000000000000000003242c00000000000000000000000000000000000000000c000002000200000001240000000000000000000000000000000000000000000c000002000200000000000000000000000000000000000000000000000000000e000002000000000000000000000000000000000000000000000000000000000c000004000400000001000000000000000000000000000000000000000000000c000004000400000000000000000000000000000000000000000000000000000c000002000200000001200000000000000000000000000000000000000000000c000002000200000000000000000000000000000000000000000000000000000a000000000000000001501e501e000000000000000000000000000000000000020800000004000000000000000000000000000000000000000000000000000004100000000000000000000000000000000000000000000000000000000000000a00000000000000000a501e671e000000000000000000000000000000000000180000040008000000000500000000000000000000000000000000000000000008080002000800000000000000000000000000000000000000000000000000000e080000001000000021000000000000000000000000000000000000000000000e0800100000000000000100000000000000000000000000000000000000000002000004000800000000010000000000000000000000000000000000000000000c000010001000000001010000000000000000000000000000000000000000000c0000100010000000000000000000000000000000000000000000000000000004080004000000000000000000000000000000000000000000000000000000000a0000000000000000024d1e591e0000000000000000000000000000000000000c000010001000000001000000000000000000000000000000000000000000000c000010001000000000000000000000000000000000000000000000000000000a0000000000000000014d1e4d1e0000000000000000000000000000000000000c000002000200000001ffffffffffffffffffffffffffffffff0000000000000c000002000200000000ffffffffffffffffffffffff000000000000000000000e000000000400000001020000000000000000000000000000000000000000001a040002000200000002000000000000000000000000000000000000000000000c000004000400000001000000000000000000000000000000000000000000000c000004000400000000000000000000000000000000ffffffff0000000000000e000000000800000021010000000000000000000000000000000000000000001a080004000400000002000000000000000000000000000000000000000000001a040002000200000004000000000000000000000000000000000000000000000e000002000000000000020000000000000000000000000000000000000000000a0000000000000000019f1e9f1e0000000000000000000000000000000000000c000002000200000001ffffffffffffffffffffffffffffffff0000000000000c000002000200000000ffffffffffffffffffffffff000000000000000000000e000000000400000001020000000000000000000000000000000000000000001a040002000200000002000000000000000000000000000000000000000000000c000004000400000001000000000000000000000000000000000000000000000c000004000400000000000000000000000000000000ffffffff0000000000000e000000000800000021010000000000000000000000000000000000000000001a080004000400000002000000000000000000000000000000000000000000001a040002000200000004000000000000000000000000000000000000000000000e000002000000000000020000000000000000000000000000000000000000000a0000000000000000019f1e9f1e0000000000000000000000000000000000000c000002000200000001000000000000000000000000000000000000000000000c000002000200000000000000000000000000000000000000000000000000000e000002000000000000000000000000000000000000000000000000000000000a0000000000000000019f1e9f1e0000000000000000000000000000000000000c000002000200000001000000000000000000000000000000000000000000000c000002000200000000000000000000000000000000717b484e0000000000000e000002000000000020000000000000000000000000000000000000000000000c000001000100000001410000000000000000000000000000000000000000000c000001000100000000000000000000000000000000000000000000000000000c000002000200000001040000000000000000000000000000000000000000000c0000020002000000000000000000000000000000000000000000000000000007000000000000000003242c00000000000000000000000000000000000000000c000002000200000001240000000000000000000000000000000000000000000c000002000200000000000000000000000000000000000000000000000000000e000002000000000000000000000000000000000000000000000000000000000c000004000400000001000000000000000000000000000000000000000000000c000004000400000000000000000000000000000000000000000000000000000c000002000200000001200000000000000000000000000000000000000000000c000002000200000000000000000000000000000000000000000000000000000a000000000000000001891e891e000000000000000000000000000000000000020800000004000000000000000000000000000000000000000000000000000004100000000000000000000000000000000000000000000000000000000000000a00000000000000000a891e951e000000000000000000000000000000000000180000040008000000000500000000000000000000000000000000000000000008080002000800000000000000000000000000000000000000000000000000000e080000001000000021000000000000000000000000000000000000000000000e0800100000000000000100000000000000000000000000000000000000000002000004000800000000010000000000000000000000000000000000000000000c000010001000000001010000000000000000000000000000000000000000000c0000100010000000000000000000000000000000000000000000000000000004080004000000000000000000000000000000000000000000000000000000000a000000000000000002861e921e0000000000000000000000000000000000000c000010001000000001000000000000000000000000000000000000000000000c000010001000000000000000000000000000000000000000000000000000000a000000000000000001861e861e0000000000000000000000000000000000000c000002000200000001ffffffffffffffffffffffffffffffff0000000000000c000002000200000000ffffffffffffffffffffffff000000000000000000000e000000000400000001020000000000000000000000000000000000000000001a040002000200000002000000000000000000000000000000000000000000000c000004000400000001000000000000000000000000000000000000000000000c000004000400000000000000000000000000000000ffffffff0000000000000e000000000800000021010000000000000000000000000000000000000000001a080004000400000002000000000000000000000000000000000000000000001a040002000200000004000000000000000000000000000000000000000000000e000002000000000000020000000000000000000000000000000000000000000e0000000000000000e10600000000000000000000000000000000000000000007000000000000000004000000000000000000000000000000000000000000000e0000000000000000e00e0000000000000000000000000000000000000000000e000010000000000060060000000000000000000000000000000000000000000e0000080000000000600e0000000000000000000000000000000000000000000e0000040000000000600f0000000000000000000000000000000000000000000e000002000000000060090000000000000000000000000000000000000000000e000001000000000060080000000000000000000000000000000000000000000c0000020002000000010d0000000000000000000000000000000000000000000c0000020002000000000000000000000000000000000000000000000000000005020000000400000001000000000000000000000000000000000000000000000c000002000200000001010000000000000000000000000000000000000000000c0000020002000000000000000000000000000000000000000000000000000004040002000000000000000000000000000000000000000000000000000000000a000000000000000004b01eae1e0000000000000000000000000000000000000c000002000200000001000000000000000000000000000000000000000000000c000002000200000000000000000000000000000000000000000000000000001a0000020001000000020100000000000000000000000000000000000000000007000000000000000003f60d00000000000000000000000000000000000000000a000000000000000002b31eb41e0000000000000000000000000000000000000a000000000000000001a723a7230000000000000000000000000000000000000c0000020002000000010d0000000000000000000000000000000000000000000c000002000200000000000000000000000000000000000000000000000000000c000004000400000001000000000000000000000000000000000000000000000c0000040004000000000000000000000000000000000000000000000000000005020004000000000000000000000000000000000000000000000000000000000e000000000200000061090000000000000000000000000000000000000000000e000000000400000061080000000000000000000000000000000000000000001a040002000400000004000000000000000000000000000000000000000000000c000002000200000001010000000000000000000000000000000000000000000c0000020002000000000000000000000000000000000000000000000000000004040000000000000000000000000000000000000000000000000000000000000a00000000000000000ac21ec01e0000000000000000000000000000000000000c000002000200000001000000000000000000000000000000000000000000000c000002000200000000000000000000000000000000000000000000000000001a0000020001000000020100000000000000000000000000000000000000000007000000000000000003a92300000000000000000000000000000000000000000a000000000000000002c51ec61e0000000000000000000000000000000000000a000000000000000001a723a7230000000000000000000000000000000000000c000002000200000001080000000000000000000000000000000000000000000c0000020002000000000000000000000000000000000000000000000000000005020000000800000001000000000000000000000000000000000000000000001a000008002000000002ffffffffffffffffffffffffffff00000000000000000c000002000200000001010000000000000000000000000000000000000000000c000002000200000000000000000000000000000000000000000000000000000c000004000400000001010000000000000000000000000000000000000000000c000004000400000000000000000000000000000000000000000000000000000e000000001000000061080000000000000000000000000000000000000000000e0000200000000000600400000000000000000000000000000000000000000004200010000000000000000000000000000000000000000000000000000000000a000000000000000008d41ed21e0000000000000000000000000000000000000c000004000400000001000000000000000000000000000000000000000000000c0000040004000000000000000000000000000000000000000000000000000018000008000800000002700000000000000000000000000000000000000000001a000008001000000002ffffffffffffffffffffffffffff00000000000000000e000000000800000061090000000000000000000000000000000000000000000e0000100000000000600700000000000000000000000000000000000000000004100008000000000000000000000000000000000000000000000000000000000a000000000000000008dc1eda1e0000000000000000000000000000000000000c000002000200000001000000000000000000000000000000000000000000000c000002000200000000000000000000000000000000000000000000000000001a040002000200000002000000000000000000000000000000000000000000001a0000020001000000020100000000000000000000000000000000000000000007000000000000000003eb2300000000000000000000000000000000000000000a000000000000000002e01ee11e0000000000000000000000000000000000000a000000000000000001a723a7230000000000000000000000000000000000000c000002000200000001060000000000000000000000000000000000000000000c0000020002000000000000000000000000000000000000000000000000000005020000000200000001000000000000000000000000000000000000000000000c000004000400000001ffffffffffffffffffffffffffffffff0000000000000c000004000400000000ffffffff0000000000000000000000000000000000001a020004000200000002000000000000000000000000000000000000000000000e000002000000000060050000000000000000000000000000000000000000000e0000000002000000610f0000000000000000000000000000000000000000001a020004000800000002000000000000000000000000000000000000000000000c000002000200000001070000000000000000000000000000000000000000000c0000020002000000000000000000000000000000000000000000000000000005020000000200000001000000000000000000000000000000000000000000001a020004001000000002000000000000000000000000000000000000000000000c000002000200000001010000000000000000000000000000000000000000000c000002000200000000000000000000000000000000000000000000000000000c000004000400000001010000000000000000000000000000000000000000000c000004000400000000000000000000000000000000000000000000000000000e000008000000000060030000000000000000000000000000000000000000000e0000100000000000600200000000000000000000000000000000000000000004080010000000000000000000000000000000000000000000000000000000000a00000000000000000af81ef61e0000000000000000000000000000000000000c000004000400000001000000000000000000000000000000000000000000000c000004000400000000000000000000000000000000000000000000000000000e000000000800000061030000000000000000000000000000000000000000000e0000000010000000610500000000000000000000000000000000000000000004080010000000000000000000000000000000000000000000000000000000000a00000000000000000afe1efc1e0000000000000000000000000000000000000c000002000200000001000000000000000000000000000000000000000000000c000002000200000000000000000000000000000000000000000000000000001a020004000200000002000000000000000000000000000000000000000000001a00000200010000000201000000000000000000000000000000000000000000070000000000000000032d2400000000000000000000000000000000000000000a000000000000000002021f031f0000000000000000000000000000000000000a000000000000000001a723a7230000000000000000000000000000000000000e0000000002000000610800000000000000000000000000000000000000000004020000000000000000000000000000000000000000000000000000000000000a0000000000000000040d1f061f0000000000000000000000000000000000000e000000000100000061050000000000000000000000000000000000000000000e0000000002000000610f0000000000000000000000000000000000000000000e0000000004000000610800000000000000000000000000000000000000000007000000000000000003121d00000000000000000000000000000000000000000a0000000000000000020b1f0c1f0000000000000000000000000000000000000a000000000000000001a723a7230000000000000000000000000000000000000a0000000000000000010d1f0d1f0000000000000000000000000000000000000e0000000002000000610900000000000000000000000000000000000000000004020000000000000000000000000000000000000000000000000000000000000a000000000000000004171f101f0000000000000000000000000000000000000e000000000100000061020000000000000000000000000000000000000000000e0000000002000000610f0000000000000000000000000000000000000000000e0000000004000000610900000000000000000000000000000000000000000007000000000000000003121d00000000000000000000000000000000000000000a000000000000000002151f161f0000000000000000000000000000000000000a000000000000000001a723a7230000000000000000000000000000000000000a000000000000000001171f171f0000000000000000000000000000000000000e000000000200000021020000000000000000000000000000000000000000000e0000000004000000610600000000000000000000000000000000000000000004040000000000000000000000000000000000000000000000000000000000000a000000000000000004d91f1b1f0000000000000000000000000000000000000c000001000100000001000000000000000000000000000000000000000000000c000001000100000000000000000000000000000000e64ab9780000000000000e0000020000000000600f00000000000000000000000000000000000000000007000000000000000003242c00000000000000000000000000000000000000000c000002000200000001ffffffffffffffffffffffffffffffff0000000000000c000002000200000000ffffffff00000000000000000000000000000000000014000000000400000000000000000000000000000000000000000000000000001a040002000100000002000000000000000000000000000000000000000000000e0000000002000000610f000000000000000000000000000000000000000000020000020002000000000400000000000000000000000000000000000000000007000000000000000003242c00000000000000000000000000000000000000000e0000000002000000610f00000000000000000000000000000000000000000002000002000200000000240000000000000000000000000000000000000000000e0000000001000000610800000000000000000000000000000000000000000007000000000000000003242c00000000000000000000000000000000000000000e0000000002000000610f00000000000000000000000000000000000000000002000002000200000000440000000000000000000000000000000000000000000e0000000001000000610900000000000000000000000000000000000000000007000000000000000003242c00000000000000000000000000000000000000000e0000000002000000610f00000000000000000000000000000000000000000002000002000200000000640000000000000000000000000000000000000000000c000001000100000001800000000000000000000000000000000000000000000c0000010001000000000000000000000000000000000000000000000000000007000000000000000003242c00000000000000000000000000000000000000000e0000000002000000610f00000000000000000000000000000000000000000002000002000200000000840000000000000000000000000000000000000000000e0000000001000000610600000000000000000000000000000000000000000007000000000000000003242c00000000000000000000000000000000000000000c000010001000000001000000000000000000000000000000000000000000000c000010001000000000000000000000000000000000000000000000000000000e000000000400000061060000000000000000000000000000000000000000001a0000040002000000021f0000000000000000000000000000000000000000000e000002000000000060010000000000000000000000000000000000000000000e0000000002000000610e00000000000000000000000000000000000000000002000002000800000000200000000000000000000000000000000000000000000e0000000002000000610f00000000000000000000000000000000000000000002000002000200000000a40000000000000000000000000000000000000000000e0000020000000000600c00000000000000000000000000000000000000000018000004000200000002050000000000000000000000000000000000000000000e0000020000000000600a0000000000000000000000000000000000000000000e0000080000000000600b00000000000000000000000000000000000000000004020000000000000000000000000000000000000000000000000000000000000a000000000000000004551f461f0000000000000000000000000000000000000e0000100000000000600e00000000000000000000000000000000000000000018000010000200000000050000000000000000000000000000000000000000000e0000020000000000600d000000000000000000000000000000000000000000020800020001000000000000000000000000000000000000000000000000000007000000000000000003102c00000000000000000000000000000000000000000e0000000002000000610c0000000000000000000000000000000000000000000e0000000004000000610d000000000000000000000000000000000000000000020200040002000000000000000000000000000000000000000000000000000007000000000000000003242c00000000000000000000000000000000000000000e0000000010000000610e0000000000000000000000000000000000000000000e0000000008000000610b00000000000000000000000000000000000000000002000010001000000000010000000000000000000000000000000000000000000e0000000002000000610a00000000000000000000000000000000000000000004100002000000000000000000000000000000000000000000000000000000000a000000000000000002461f551f0000000000000000000000000000000000000e000000000400000061060000000000000000000000000000000000000000000e0000000002000000610100000000000000000000000000000000000000000004020000000000000000000000000000000000000000000000000000000000000a000000000000000004781f591f0000000000000000000000000000000000000c000002000200000001e0ffffffffffffffffffffffffffffff0000000000000c000002000200000000ffffffffffffffffffffffffffffffff0000000000001a040002000200000002000000000000000000000000000000000000000000000e0000020000000000600e000000000000000000000000000000000000000000020800020001000000000000000000000000000000000000000000000000000007000000000000000003102c00000000000000000000000000000000000000000e0000000002000000610100000000000000000000000000000000000000000018000002000200000000030000000000000000000000000000000000000000000c000004000400000001000100000000000000000000000000000000000000000c0000040004000000000000000000000000000000000000000000000000000004040002000400000000000000000000000000000000000000000000000000000c000008000800000001ffffffffffffffffffffffffffffffff0000000000000c000008000800000000ffffffffffffffffffffffffffffffff00000000000018040008000400000000000000000000000000000000000000000000000000001a010004000400000002000000000000000000000000000000000000000000000e0000040000000000600d00000000000000000000000000000000000000000018020008000200000002000000000000000000000000000000000000000000000e0000020000000000600b0000000000000000000000000000000000000000000e0000000002000000610c0000000000000000000000000000000000000000000e0000000004000000610e00000000000000000000000000000000000000000002020004000200000000000000000000000000000000000000000000000000000e0000020000000000600e000000000000000000000000000000000000000000020200000001000000000000000000000000000000000000000000000000000007000000000000000003fc2b00000000000000000000000000000000000000000e0000000002000000610b0000000000000000000000000000000000000000001a010002000200000002000000000000000000000000000000000000000000000e0000000004000000610d0000000000000000000000000000000000000000001a040002000100000004000000000000000000000000000000000000000000000e0000000002000000610e00000000000000000000000000000000000000000007000000000000000003242c00000000000000000000000000000000000000000e000000000400000061060000000000000000000000000000000000000000000e0000000002000000610c00000000000000000000000000000000000000000002020004000200000000000000000000000000000000000000000000000000000c000001000100000001000000000000000000000000000000000000000000000c0000010001000000000000000000000000000000000000000000000000000007000000000000000003242c00000000000000000000000000000000000000000c000002000200000001040000000000000000000000000000000000000000000c000002000200000000000000000000000000000000000000000000000000000e0000000004000000610300000000000000000000000000000000000000000004040002000000000000000000000000000000000000000000000000000000000a000000000000000004c61f821f0000000000000000000000000000000000000e00000000020000006106000000000000000000000000000000000000000000020000020002000000001f0000000000000000000000000000000000000000000c000004000400000001e0ffffffffffffffffffffffffffffff0000000000000c000004000400000000ffffffffffffffffffffffffffffffff0000000000001a0200040002000000020000000000000000000000000000000000000000000002000002000400000000a40000000000000000000000000000000000000000001a0000040002000000021f0000000000000000000000000000000000000000000e0000020000000000600b00000000000000000000000000000000000000000010000000000000000000000000000000000000000000000000000000000000000e000004000000000040000000000000000000000000000000000000000000000e0000040000000000600a00000000000000000000000000000000000000000018000004000400000002050000000000000000000000000000000000000000000e0000000002000000610f0000000000000000000000000000000000000000000c000002000200000001000000000000000000000000000000000000000000000c000002000200000000000000000000000000000000000000000000000000000e0000040000000000600c00000000000000000000000000000000000000000004040000000000000000000000000000000000000000000000000000000000000a000000000000000004a41f941f0000000000000000000000000000000000000e0000020000000000600e00000000000000000000000000000000000000000018000002000400000000050000000000000000000000000000000000000000000e0000040000000000600d0000000000000000000000000000000000000000000e0000000002000000610f000000000000000000000000000000000000000000020200040001000000000000000000000000000000000000000000000000000007000000000000000003fc2b00000000000000000000000000000000000000000c000002000200000001200000000000000000000000000000000000000000000c000002000200000000000000000000000000000000000000000000000000000e0000000004000000610d00000000000000000000000000000000000000000008040002000200000000000000000000000000000000000000000000000000000e020001000000000040010000000000000000000000000000000000000000000e0000000002000000610e00000000000000000000000000000000000000000002000002000200000000010000000000000000000000000000000000000000000e0000000004000000610c00000000000000000000000000000000000000000004020004000000000000000000000000000000000000000000000000000000000a000000000000000002941fa41f0000000000000000000000000000000000000e0000000002000000610b00000000000000000000000000000000000000000004020000000000000000000000000000000000000000000000000000000000000a000000000000000004c11fa71f0000000000000000000000000000000000000c000004000400000001e0ffffffffffffffffffffffffffffff0000000000000c000004000400000000ffffffffffffffffffffffffffffffff0000000000000e0000000008000000610a0000000000000000000000000000000000000000001a080004000400000002000000000000000000000000000000000000000000000e0000040000000000600e0000000000000000000000000000000000000000000e0000000002000000610f000000000000000000000000000000000000000000020200040001000000000000000000000000000000000000000000000000000007000000000000000003fc2b00000000000000000000000000000000000000000c000002000200000001200000000000000000000000000000000000000000000c000002000200000000000000000000000000000000000000000000000000000e0000000004000000610e00000000000000000000000000000000000000000008040002000200000000000000000000000000000000000000000000000000000e0000000004000000610b00000000000000000000000000000000000000000018000004000400000000030000000000000000000000000000000000000000000c000008000800000001ffffffffffffffffffffffffffffffff0000000000000c000008000800000000ffffffffffffffffffffffffffffffff00000000000018040008001000000002000000000000000000000000000000000000000000000e020000002000000041010000000000000000000000000000000000000000001a200010001000000002000000000000000000000000000000000000000000000c000020002000000001000100000000000000000000000000000000000000000c00002000200000000000000000000000000000000000000000000000000000042000040004000000000000000000000000000000000000000000000000000018040008000400000000000000000000000000000000000000000000000000001a010004000400000002000000000000000000000000000000000000000000001a040010000400000004000000000000000000000000000000000000000000000e020004000000000040010000000000000000000000000000000000000000000e000000000200000061030000000000000000000000000000000000000000001800000200010000000020000000000000000000000000000000000000000000070000000000000000034b2c000000000000000000000000000000000000000004010000000000000000000000000000000000000000000000000000000000000a0000000000000000043423c61f0000000000000000000000000000000000000e000000000200000041000000000000000000000000000000000000000000001a000002000200000002ffffffff000000000000000000000000000000000000020000020002000000001f0000000000000000000000000000000000000000001a000002000400000002e0ffffff0100000000000000000000000000000000000e0000000002000000610f00000000000000000000000000000000000000000002040002000200000000000000000000000000000000000000000000000000000c000008000800000001010000000000000000000000000000000000000000000c0000080008000000000000000000000000000000000000000000000000000004020004000000000000000000000000000000000000000000000000000000000a000000000000000002d21fd01f0000000000000000000000000000000000000c000008000800000001000000000000000000000000000000000000000000000c000008000800000000000000000000000000000000000000000000000000000c000004000400000001ffffffffffffffff00000000000000000000000000000c0000040004000000000000000000000000000000000000000000000000000004020004000000000000000000000000000000000000000000000000000000000a0000000000000000082222d61f00000000000000000000000000000000000004080000000000000000000000000000000000000000000000000000000000000a00000000000000000a2222d81f0000000000000000000000000000000000000e000002000000000020020000000000000000000000000000000000000000000e0000020000000000600f0000000000000000000000000000000000000000000c000001000100000001000000000000000000000000000000000000000000000c0000010001000000000000000000000000000000003182a07000000000000007000000000000000003242c00000000000000000000000000000000000000000c000002000200000001ffffffffffffffffffffffffffffffff0000000000000c000002000200000000ffffffff00000000000000000000000000000000000014000000000400000000050000000000000000000000000000000000000000001a040002000400000002000000000000000000000000000000000000000000000e0000000002000000610f00000000000000000000000000000000000000000002000002000200000000040000000000000000000000000000000000000000000e0000040000000000600b000000000000000000000000000000000000000000020400000001000000000000000000000000000000000000000000000000000007000000000000000003242c00000000000000000000000000000000000000000e0000000008000000610f0000000000000000000000000000000000000000000c000002000200000001040000000000000000000000000000000000000000000c000002000200000000000000000000000000000000000000000000000000000e0000000004000000610500000000000000000000000000000000000000000004040002000000000000000000000000000000000000000000000000000000000a0000000000000000043320ec1f00000000000000000000000000000000000010000000000000000000000000000000000000000000000000000000000000000c000002000200000001240000000000000000000000000000000000000000000c000002000200000000000000000000000000000000000000000000000000000e000002000000000040000000000000000000000000000000000000000000000c000002000200000001000000000000000000000000000000000000000000000c000002000200000000000000000000000000000000000000000000000000000a000000000000000001f61ff61f0000000000000000000000000000000000000e0000000008000000610f00000000000000000000000000000000000000000004040000000000000000000000000000000000000000000000000000000000000a00000000000000000af61f09200000000000000000000000000000000000000e0000020000000000600e00000000000000000000000000000000000000000018000002000200000000050000000000000000000000000000000000000000000e0000020000000000600d000000000000000000000000000000000000000000020800020001000000000000000000000000000000000000000000000000000007000000000000000003fc2b00000000000000000000000000000000000000000c000002000200000001200000000000000000000000000000000000000000000c000002000200000000000000000000000000000000000000000000000000000e0000000004000000610d00000000000000000000000000000000000000000008040002000200000000000000000000000000000000000000000000000000000e020001000000000040010000000000000000000000000000000000000000000e0000000008000000610e00000000000000000000000000000000000000000002000008000200000000010000000000000000000000000000000000000000000c000004000400000001010000000000000000000000000000000000000000000c0000040004000000000000000000000000000000000000000000000000000004020008000000000000000000000000000000000000000000000000000000000a000000000000000002f31f06200000000000000000000000000000000000000c000004000400000001000000000000000000000000000000000000000000000c000004000400000000000000000000000000000000000000000000000000000a000000000000000001f31ff31f000000000000000000000000000000000000020000080001000000002000000000000000000000000000000000000000000007000000000000000003fc2b00000000000000000000000000000000000000000c000002000200000001ffffffffffffffffffffffffffffffff0000000000000c000002000200000000ffffffffffffffffffffffff000000000000000000000e000000000400000041020000000000000000000000000000000000000000001a040002000200000002000000000000000000000000000000000000000000000c000004000400000001000000000000000000000000000000000000000000000c000004000400000000000000000000000000000000ffffffff0000000000001a010004000400000002000000000000000000000000000000000000000000001a040002000200000004000000000000000000000000000000000000000000000e000002000000000040020000000000000000000000000000000000000000000e00000000020000006105000000000000000000000000000000000000000000180000020001000000002000000000000000000000000000000000000000000007000000000000000003432c00000000000000000000000000000000000000000e0000000008000000610f0000000000000000000000000000000000000000000c000002000200000001000000000000000000000000000000000000000000000c000002000200000000000000000000000000000000000000000000000000000e0000010000000000600d0000000000000000000000000000000000000000000a0000000000000000011f201f200000000000000000000000000000000000000e0000000008000000610f00000000000000000000000000000000000000000004040000000000000000000000000000000000000000000000000000000000000a00000000000000000a1f2030200000000000000000000000000000000000000e0000020000000000600e000000000000000000000000000000000000000000180000020004000000000500000000000000000000000000000000000000000002080004000200000000000000000000000000000000000000000000000000000c000008000800000001200000000000000000000000000000000000000000000c0000080008000000000000000000000000000000000000000000000000000008040008000400000000000000000000000000000000000000000000000000000e0400000001000000410100000000000000000000000000000000000000000007000000000000000003242c00000000000000000000000000000000000000000e0000000008000000610e00000000000000000000000000000000000000000002000008000200000000010000000000000000000000000000000000000000000c000004000400000001010000000000000000000000000000000000000000000c0000040004000000000000000000000000000000000000000000000000000004020008000000000000000000000000000000000000000000000000000000000a0000000000000000021c202d200000000000000000000000000000000000000c000004000400000001000000000000000000000000000000000000000000000c000004000400000000000000000000000000000000000000000000000000000a0000000000000000011c201c200000000000000000000000000000000000000e0000000002000000610d00000000000000000000000000000000000000000004020000000000000000000000000000000000000000000000000000000000000a0000000000000000044c2233200000000000000000000000000000000000000e000000000200000041000000000000000000000000000000000000000000001a000002000200000002ffffffff000000000000000000000000000000000000020000020002000000001f0000000000000000000000000000000000000000001a000002000400000002e0ffffff01000000000000000000000000000000000002040008001000000000000000000000000000000000000000000000000000000c000002000200000001010000000000000000000000000000000000000000000c0000020002000000000000000000000000000000000000000000000000000004100004000000000000000000000000000000000000000000000000000000000a0000000000000000023e203c200000000000000000000000000000000000000c000002000200000001000000000000000000000000000000000000000000000c000002000200000000000000000000000000000000000000000000000000000c000004000400000001ffffffffffffffff00000000000000000000000000000c0000040004000000000000000000000000000000000000000000000000000004100004000000000000000000000000000000000000000000000000000000000a0000000000000000087221422000000000000000000000000000000000000004020000000000000000000000000000000000000000000000000000000000000a00000000000000000a722144200000000000000000000000000000000000000e000010000000000020020000000000000000000000000000000000000000000e000000000200000041000000000000000000000000000000000000000000001a000002000200000002e0ffffff0000000000000000000000000000000000000e0000100000000000600e00000000000000000000000000000000000000000004020000000000000000000000000000000000000000000000000000000000000a00000000000000000491214a20000000000000000000000000000000000000020800000001000000000000000000000000000000000000000000000000000007000000000000000003fc2b00000000000000000000000000000000000000000e0000010000000000600c0000000000000000000000000000000000000000000c000001000100000001000000000000000000000000000000000000000000000c0000010001000000000000000000000000000000003182a0700000000000000e0000000002000000610e00000000000000000000000000000000000000000007000000000000000003242c00000000000000000000000000000000000000000e0000000002000000610e00000000000000000000000000000000000000000002000002000200000000040000000000000000000000000000000000000000000e0000000001000000610b00000000000000000000000000000000000000000007000000000000000003242c00000000000000000000000000000000000000000c000002000200000001040000000000000000000000000000000000000000000c000002000200000000000000000000000000000000000000000000000000000e000000000400000061020000000000000000000000000000000000000000000e0000000008000000610e00000000000000000000000000000000000000000004040002000000000000000000000000000000000000000000000000000000000a000000000000000004a2205b2000000000000000000000000000000000000010000000000000000000000000000000000000000000000000000000000000000c000002000200000001240000000000000000000000000000000000000000000c000002000200000000000000000000000000000000000000000000000000000e000002000000000040000000000000000000000000000000000000000000000c000002000200000001000000000000000000000000000000000000000000000c000002000200000000000000000000000000000000000000000000000000000a000000000000000001652065200000000000000000000000000000000000000e0000000008000000610e00000000000000000000000000000000000000000004040000000000000000000000000000000000000000000000000000000000000a00000000000000000a652078200000000000000000000000000000000000000e0000020000000000600f00000000000000000000000000000000000000000018000002000200000000050000000000000000000000000000000000000000000e0000020000000000600d000000000000000000000000000000000000000000020800020001000000000000000000000000000000000000000000000000000007000000000000000003fc2b00000000000000000000000000000000000000000c000002000200000001200000000000000000000000000000000000000000000c000002000200000000000000000000000000000000000000000000000000000e0000000004000000610d00000000000000000000000000000000000000000008040002000200000000000000000000000000000000000000000000000000000e020001000000000040010000000000000000000000000000000000000000000e0000000008000000610f00000000000000000000000000000000000000000002000008000200000000010000000000000000000000000000000000000000000c000004000400000001010000000000000000000000000000000000000000000c0000040004000000000000000000000000000000000000000000000000000004020008000000000000000000000000000000000000000000000000000000000a000000000000000002622075200000000000000000000000000000000000000c000004000400000001000000000000000000000000000000000000000000000c000004000400000000000000000000000000000000000000000000000000000a00000000000000000162206220000000000000000000000000000000000000020000080001000000002000000000000000000000000000000000000000000007000000000000000003fc2b00000000000000000000000000000000000000000c000002000200000001ffffffffffffffffffffffffffffffff0000000000000c000002000200000000ffffffffffffffffffffffff000000000000000000000e000000000400000041020000000000000000000000000000000000000000001a040002000200000002000000000000000000000000000000000000000000000c000004000400000001000000000000000000000000000000000000000000000c000004000400000000000000000000000000000000ffffffff0000000000001a010004000400000002000000000000000000000000000000000000000000001a040002000200000004000000000000000000000000000000000000000000000e000002000000000040020000000000000000000000000000000000000000000e00000000020000006102000000000000000000000000000000000000000000180000020001000000002000000000000000000000000000000000000000000007000000000000000003432c00000000000000000000000000000000000000000e0000000008000000610e0000000000000000000000000000000000000000000c000002000200000001000000000000000000000000000000000000000000000c000002000200000000000000000000000000000000000000000000000000000e0000010000000000600d0000000000000000000000000000000000000000000a0000000000000000018e208e200000000000000000000000000000000000000e0000000008000000610e00000000000000000000000000000000000000000004040000000000000000000000000000000000000000000000000000000000000a00000000000000000a8e209f200000000000000000000000000000000000000e0000020000000000600f000000000000000000000000000000000000000000180000020004000000000500000000000000000000000000000000000000000002080004000200000000000000000000000000000000000000000000000000000c000008000800000001200000000000000000000000000000000000000000000c0000080008000000000000000000000000000000000000000000000000000008040008000400000000000000000000000000000000000000000000000000000e0400000001000000410100000000000000000000000000000000000000000007000000000000000003242c00000000000000000000000000000000000000000e0000000008000000610f00000000000000000000000000000000000000000002000008000200000000010000000000000000000000000000000000000000000c000004000400000001010000000000000000000000000000000000000000000c0000040004000000000000000000000000000000000000000000000000000004020008000000000000000000000000000000000000000000000000000000000a0000000000000000028b209c200000000000000000000000000000000000000c000004000400000001000000000000000000000000000000000000000000000c000004000400000000000000000000000000000000000000000000000000000a0000000000000000018b208b200000000000000000000000000000000000000e0000000002000000610d00000000000000000000000000000000000000000004020000000000000000000000000000000000000000000000000000000000000a000000000000000004c022a2200000000000000000000000000000000000000e000000000200000041000000000000000000000000000000000000000000001a000002000200000002ffffffff000000000000000000000000000000000000020000020002000000001f0000000000000000000000000000000000000000001a000002000200000002e0ffffff01000000000000000000000000000000000002020008000200000000000000000000000000000000000000000000000000000c000004000400000001ffffffffffffffff00000000000000000000000000000c0000040004000000000000000000000000000000000000000000000000000004020004000000000000000000000000000000000000000000000000000000000a0000000000000000089521ab200000000000000000000000000000000000000e000002000000000020020000000000000000000000000000000000000000000e000000000200000041000000000000000000000000000000000000000000001a000002000200000002e0ffffff00000000000000000000000000000000000004020000000000000000000000000000000000000000000000000000000000000a000000000000000004b421b020000000000000000000000000000000000000020800000001000000000000000000000000000000000000000000000000000007000000000000000003fc2b00000000000000000000000000000000000000000e000000000200000061080000000000000000000000000000000000000000000e0000000004000000610400000000000000000000000000000000000000000004040002000000000000000000000000000000000000000000000000000000000a000000000000000002b821b62000000000000000000000000000000000000004040002000400000000000000000000000000000000000000000000000000000e0000000010000000610c00000000000000000000000000000000000000000004100004000200000000000000000000000000000000000000000000000000000c000008000800000001000000000000000000000000000000000000000000000c000008000800000000000000000000000000000000000000000000000000000e0000080000000000600e0000000000000000000000000000000000000000000c000008000800000001010000000000000000000000000000000000000000000c0000080008000000000000000000000000000000000000000000000000000004020010000000000000000000000000000000000000000000000000000000000a000000000000000008c220c0200000000000000000000000000000000000000c000008000800000001000000000000000000000000000000000000000000000c0000080008000000000000000000000000000000000000000000000000000004080000000000000000000000000000000000000000000000000000000000000a00000000000000000ac520c4200000000000000000000000000000000000000e0000020000000000600e0000000000000000000000000000000000000000000e000000000200000061090000000000000000000000000000000000000000000e0000000008000000610700000000000000000000000000000000000000000004080002000000000000000000000000000000000000000000000000000000000a000000000000000002d721c92000000000000000000000000000000000000002010000002000000000000000000000000000000000000000000000000000000c000002000200000001000000000000000000000000000000000000000000000c000002000200000000000000000000000000000000000000000000000000000e0000020000000000600d0000000000000000000000000000000000000000000c000008000800000001010000000000000000000000000000000000000000000c000008000800000000000000000000000000000000000000000000000000000c000002000200000001010000000000000000000000000000000000000000000c000002000200000000000000000000000000000000000000000000000000000e0000000010000000610c00000000000000000000000000000000000000000004100004000000000000000000000000000000000000000000000000000000000a000000000000000008d620d4200000000000000000000000000000000000000c000002000200000001000000000000000000000000000000000000000000000c000002000200000000000000000000000000000000000000000000000000000e000000000400000061090000000000000000000000000000000000000000000e0000000010000000610700000000000000000000000000000000000000000004100004001000000000000000000000000000000000000000000000000000000c000004000400000001010000000000000000000000000000000000000000000c0000040004000000000000000000000000000000000000000000000000000004200010000000000000000000000000000000000000000000000000000000000a000000000000000008df20dd200000000000000000000000000000000000000c000004000400000001000000000000000000000000000000000000000000000c00000400040000000000000000000000000000000000000000000000000000040100100010000000000000000000000000000000000000000000000000000004100020000000000000000000000000000000000000000000000000000000000a000000000000000008e420e2200000000000000000000000000000000000000c000008000800000001000000000000000000000000000000000000000000000c000008000800000000000000000000000000000000000000000000000000000e0000200000000000600f00000000000000000000000000000000000000000004080000000000000000000000000000000000000000000000000000000000000a00000000000000000ae820e7200000000000000000000000000000000000000e0000100000000000600d0000000000000000000000000000000000000000001a020004000200000004000000000000000000000000000000000000000000001a00000200010000000201000000000000000000000000000000000000000000070000000000000000036a2400000000000000000000000000000000000000000a000000000000000002ec20ed200000000000000000000000000000000000000a000000000000000001a723a7230000000000000000000000000000000000000e0000000001000000610c00000000000000000000000000000000000000000007000000000000000003262b00000000000000000000000000000000000000000a000000000000000002f020f2200000000000000000000000000000000000000e0000010000000000600b0000000000000000000000000000000000000000000a000000000000000001a723a7230000000000000000000000000000000000000e0000010000000000600b0000000000000000000000000000000000000000000c0000020002000000010c0000000000000000000000000000000000000000000c0000020002000000000000000000000000000000000000000000000000000005020000000200000001000000000000000000000000000000000000000000001a000002000200000002ffffffff0000000000000000000000000000000000000e0000000001000000610e0000000000000000000000000000000000000000000e0000020000000000600a00000000000000000000000000000000000000000007000000000000000003862b00000000000000000000000000000000000000000a000000000000000002fb20fc200000000000000000000000000000000000000a000000000000000001a723a72300000000000000000000000000000000000002010000000200000000000000000000000000000000000000000000000000000e0000000001000000610b00000000000000000000000000000000000000000007000000000000000003f82a00000000000000000000000000000000000000000a000000000000000002002102210000000000000000000000000000000000000e0000010000000000600b0000000000000000000000000000000000000000000a000000000000000001a723a7230000000000000000000000000000000000000e0000010000000000600b0000000000000000000000000000000000000000000e0000000001000000610f00000000000000000000000000000000000000000007000000000000000003262b00000000000000000000000000000000000000000a000000000000000002062108210000000000000000000000000000000000000e000001000000000060060000000000000000000000000000000000000000000a000000000000000001a723a7230000000000000000000000000000000000000e000001000000000060060000000000000000000000000000000000000000000e0000000001000000610d0000000000000000000000000000000000000000000e0000000002000000610a00000000000000000000000000000000000000000007000000000000000003862b00000000000000000000000000000000000000000a0000000000000000020d210e210000000000000000000000000000000000000a000000000000000001a723a72300000000000000000000000000000000000002010000000200000000000000000000000000000000000000000000000000000e0000000001000000610600000000000000000000000000000000000000000007000000000000000003f82a00000000000000000000000000000000000000000a000000000000000002122113210000000000000000000000000000000000000a000000000000000001a723a72300000000000000000000000000000000000002010000000200000000000000000000000000000000000000000000000000000e0000000001000000610b00000000000000000000000000000000000000000007000000000000000003862b00000000000000000000000000000000000000000a000000000000000002172119210000000000000000000000000000000000000e0000010000000000600b0000000000000000000000000000000000000000000a000000000000000001a723a7230000000000000000000000000000000000000e0000010000000000600b0000000000000000000000000000000000000000000e000000000100000061040000000000000000000000000000000000000000000e0000000002000000610700000000000000000000000000000000000000000007000000000000000003862b00000000000000000000000000000000000000000a0000000000000000021e211f210000000000000000000000000000000000000a000000000000000001a723a72300000000000000000000000000000000000007000000000000000003562b00000000000000000000000000000000000000000a000000000000000002a72321210000000000000000000000000000000000000c000002000200000001010000000000000000000000000000000000000000000c000002000200000000000000000000000000000000000000000000000000000e0000000004000000610b00000000000000000000000000000000000000000004040001000000000000000000000000000000000000000000000000000000000a00000000000000000c282126210000000000000000000000000000000000000c000002000200000001000000000000000000000000000000000000000000000c000002000200000000000000000000000000000000000000000000000000001a0000020001000000020100000000000000000000000000000000000000000007000000000000000003ac2400000000000000000000000000000000000000000a0000000000000000022b212c210000000000000000000000000000000000000a000000000000000001a723a7230000000000000000000000000000000000000e0000000001000000610c0000000000000000000000000000000000000000000e0000000002000000610f0000000000000000000000000000000000000000000e000000000400000061040000000000000000000000000000000000000000000e0000000008000000610700000000000000000000000000000000000000000007000000000000000003e31200000000000000000000000000000000000000000a000000000000000002322133210000000000000000000000000000000000000a000000000000000001a723a7230000000000000000000000000000000000000e000000000200000021020000000000000000000000000000000000000000000e0000020000000000600f0000000000000000000000000000000000000000000e0000000001000000610e00000000000000000000000000000000000000000007000000000000000003242c00000000000000000000000000000000000000000e0000000002000000610f00000000000000000000000000000000000000000002000002000200000000200000000000000000000000000000000000000000000e0000000001000000610d00000000000000000000000000000000000000000007000000000000000003242c00000000000000000000000000000000000000000e0000000002000000610f00000000000000000000000000000000000000000002000002000200000000400000000000000000000000000000000000000000000e0000000001000000610800000000000000000000000000000000000000000007000000000000000003242c00000000000000000000000000000000000000000e0000000002000000610f00000000000000000000000000000000000000000002000002000200000000600000000000000000000000000000000000000000000e0000000001000000610900000000000000000000000000000000000000000007000000000000000003242c00000000000000000000000000000000000000000e0000000008000000610f0000000000000000000000000000000000000000000c00000200020000000122d859018430d1e3d5b87f6537ce13e60000000000000c0000020002000000005f27fc85dad051654b996ca45fd98ad70000000000000c000004000400000001030000008000000000000000000000000000000000000c000004000400000000000000000000000000000000000000000000000000000504000200000000000a0000000000000000000000000000000000000000000014000000000200000000000000000000000000000000000000000000000000000e00000000040000006103000000000000000000000000000000000000000000050200040000000000020000000000000000000000000000000000000000000002000008001000000000800000000000000000000000000000000000000000000c00000200020000000180ffffffffffffffffffffffffffffff0000000000000c000002000200000000ffffffffffffffffffffffffffffffff0000000000000e0000100000000000600e00000000000000000000000000000000000000000004080002000000000000000000000000000000000000000000000000000000000a00000000000000000c52215f210000000000000000000000000000000000000c0000020002000000010d0000000000000000000000000000000000000000000c000002000200000000000000000000000000000000000000000000000000000c000004000400000001010000000000000000000000000000000000000000000c0000040004000000000000000000000000000000000000000000000000000005020004000000000000000000000000000000000000000000000000000000000e0000000000000000e10e00000000000000000000000000000000000000000007000000000000000000000000000000000000000000000000000000000000000c000002000200000001000000000000000000000000000000000000000000000c000002000200000000000000000000000000000000000000000000000000000520000200000000000200000000000000000000000000000000000000000000020000080008000000004000000000000000000000000000000000000000000004100008000000000000000000000000000000000000000000000000000000000a0000000000000000085f2152210000000000000000000000000000000000000e0000080000000000600f000000000000000000000000000000000000000000020800000001000000000000000000000000000000000000000000000000000007000000000000000003fc2b00000000000000000000000000000000000000000e0000000010000000610e0000000000000000000000000000000000000000000e0000000008000000610f000000000000000000000000000000000000000000041000080002000000000000000000000000000000000000000000000000000002010000002000000000000000000000000000000000000000000000000000000c0000040004000000013f0000000000000000000000000000000000000000000c0000040004000000000000000000000000000000000000000000000000000004020004000000000000000000000000000000000000000000000000000000000a0000000000000000086a21592100000000000000000000000000000000000002000008000100000000200000000000000000000000000000000000000000000e0000200000000000600d00000000000000000000000000000000000000000007000000000000000003fc2b00000000000000000000000000000000000000000e0000000010000000610e0000000000000000000000000000000000000000000e0000000008000000610f0000000000000000000000000000000000000000000e0000000002000000610d00000000000000000000000000000000000000000005020001000000000002000000000000000000000000000000000000000000000a0000000000000000015c215c210000000000000000000000000000000000000c000002000200000001000000000000000000000000000000000000000000000c000002000200000000000000000000000000000000717b484e0000000000000e000002000000000020000000000000000000000000000000000000000000000c000001000100000001410000000000000000000000000000000000000000000c000001000100000000000000000000000000000000000000000000000000000c000002000200000001040000000000000000000000000000000000000000000c0000020002000000000000000000000000000000000000000000000000000007000000000000000003242c00000000000000000000000000000000000000000c000002000200000001240000000000000000000000000000000000000000000c000002000200000000000000000000000000000000000000000000000000000e000002000000000000000000000000000000000000000000000000000000000c000004000400000001000000000000000000000000000000000000000000000c000004000400000000000000000000000000000000000000000000000000000c000002000200000001200000000000000000000000000000000000000000000c000002000200000000000000000000000000000000000000000000000000000a00000000000000000185218521000000000000000000000000000000000000020800000004000000000000000000000000000000000000000000000000000004100000000000000000000000000000000000000000000000000000000000000a00000000000000000a8521f621000000000000000000000000000000000000180000040008000000000500000000000000000000000000000000000000000008080002000800000000000000000000000000000000000000000000000000000e080000001000000021000000000000000000000000000000000000000000000e0800100000000000000100000000000000000000000000000000000000000002000004000800000000010000000000000000000000000000000000000000000c000010001000000001010000000000000000000000000000000000000000000c0000100010000000000000000000000000000000000000000000000000000004080004000000000000000000000000000000000000000000000000000000000a00000000000000000282218e210000000000000000000000000000000000000c000010001000000001000000000000000000000000000000000000000000000c000010001000000000000000000000000000000000000000000000000000000a000000000000000001822182210000000000000000000000000000000000000c000002000200000001000000000000000000000000000000000000000000000c000002000200000000000000000000000000000000000000000000000000000e000002000000000000000000000000000000000000000000000000000000000a000000000000000001a723a7230000000000000000000000000000000000000c000002000200000001000000000000000000000000000000000000000000000c000002000200000000000000000000000000000000717b484e0000000000000e000002000000000020000000000000000000000000000000000000000000000c000001000100000001410000000000000000000000000000000000000000000c000001000100000000000000000000000000000000000000000000000000000c000002000200000001040000000000000000000000000000000000000000000c0000020002000000000000000000000000000000000000000000000000000007000000000000000003242c00000000000000000000000000000000000000000c000002000200000001240000000000000000000000000000000000000000000c000002000200000000000000000000000000000000000000000000000000000e000002000000000000000000000000000000000000000000000000000000000c000004000400000001000000000000000000000000000000000000000000000c000004000400000000000000000000000000000000000000000000000000000c000002000200000001200000000000000000000000000000000000000000000c000002000200000000000000000000000000000000000000000000000000000a000000000000000001a821a821000000000000000000000000000000000000020800000004000000000000000000000000000000000000000000000000000004100000000000000000000000000000000000000000000000000000000000000a00000000000000000aa8210122000000000000000000000000000000000000180000040008000000000500000000000000000000000000000000000000000008080002000800000000000000000000000000000000000000000000000000000e080000001000000021000000000000000000000000000000000000000000000e0800100000000000000100000000000000000000000000000000000000000002000004000800000000010000000000000000000000000000000000000000000c000010001000000001010000000000000000000000000000000000000000000c0000100010000000000000000000000000000000000000000000000000000004080004000000000000000000000000000000000000000000000000000000000a000000000000000002a521b1210000000000000000000000000000000000000c000010001000000001000000000000000000000000000000000000000000000c000010001000000000000000000000000000000000000000000000000000000a000000000000000001a521a5210000000000000000000000000000000000000c000002000200000001000000000000000000000000000000000000000000000c000002000200000000000000000000000000000000000000000000000000000e000002000000000000000000000000000000000000000000000000000000000a000000000000000001a723a7230000000000000000000000000000000000000c000002000200000001000000000000000000000000000000000000000000000c000002000200000000000000000000000000000000717b484e0000000000000e000002000000000020000000000000000000000000000000000000000000000c000001000100000001110000000000000000000000000000000000000000000c000001000100000000000000000000000000000000000000000000000000000c000002000200000001040000000000000000000000000000000000000000000c0000020002000000000000000000000000000000000000000000000000000007000000000000000003242c00000000000000000000000000000000000000000c000002000200000001240000000000000000000000000000000000000000000c000002000200000000000000000000000000000000000000000000000000000e000002000000000000000000000000000000000000000000000000000000000c000004000400000001000000000000000000000000000000000000000000000c000004000400000000000000000000000000000000000000000000000000000c000002000200000001200000000000000000000000000000000000000000000c000002000200000000000000000000000000000000000000000000000000000a000000000000000001cb21cb21000000000000000000000000000000000000020800000004000000000000000000000000000000000000000000000000000004100000000000000000000000000000000000000000000000000000000000000a00000000000000000acb210c22000000000000000000000000000000000000180000040008000000000500000000000000000000000000000000000000000008080002000800000000000000000000000000000000000000000000000000000e080000001000000021000000000000000000000000000000000000000000000e0800100000000000000100000000000000000000000000000000000000000002000004000800000000010000000000000000000000000000000000000000000c000010001000000001010000000000000000000000000000000000000000000c0000100010000000000000000000000000000000000000000000000000000004080004000000000000000000000000000000000000000000000000000000000a000000000000000002c821d4210000000000000000000000000000000000000c000010001000000001000000000000000000000000000000000000000000000c000010001000000000000000000000000000000000000000000000000000000a000000000000000001c821c8210000000000000000000000000000000000000c000002000200000001000000000000000000000000000000000000000000000c000002000200000000000000000000000000000000717b484e0000000000000e000002000000000020000000000000000000000000000000000000000000000c000001000100000001110000000000000000000000000000000000000000000c000001000100000000000000000000000000000000000000000000000000000c000002000200000001040000000000000000000000000000000000000000000c0000020002000000000000000000000000000000000000000000000000000007000000000000000003242c00000000000000000000000000000000000000000c000002000200000001240000000000000000000000000000000000000000000c000002000200000000000000000000000000000000000000000000000000000e000002000000000000000000000000000000000000000000000000000000000c000004000400000001000000000000000000000000000000000000000000000c000004000400000000000000000000000000000000000000000000000000000c000002000200000001200000000000000000000000000000000000000000000c000002000200000000000000000000000000000000000000000000000000000a000000000000000001ea21ea21000000000000000000000000000000000000020800000004000000000000000000000000000000000000000000000000000004100000000000000000000000000000000000000000000000000000000000000a00000000000000000aea211722000000000000000000000000000000000000180000040008000000000500000000000000000000000000000000000000000008080002000800000000000000000000000000000000000000000000000000000e080000001000000021000000000000000000000000000000000000000000000e0800100000000000000100000000000000000000000000000000000000000002000004000800000000010000000000000000000000000000000000000000000c000010001000000001010000000000000000000000000000000000000000000c0000100010000000000000000000000000000000000000000000000000000004080004000000000000000000000000000000000000000000000000000000000a000000000000000002e721f3210000000000000000000000000000000000000c000010001000000001000000000000000000000000000000000000000000000c000010001000000000000000000000000000000000000000000000000000000a000000000000000001e721e7210000000000000000000000000000000000000c000002000200000001ffffffffffffffffffffffffffffffff0000000000000c000002000200000000ffffffffffffffffffffffff000000000000000000000e000000000400000001020000000000000000000000000000000000000000001a040002000200000002000000000000000000000000000000000000000000000c000004000400000001000000000000000000000000000000000000000000000c000004000400000000000000000000000000000000ffffffff0000000000000e000000000800000021010000000000000000000000000000000000000000001a080004000400000002000000000000000000000000000000000000000000001a040002000200000004000000000000000000000000000000000000000000000e000002000000000000020000000000000000000000000000000000000000000a000000000000000001a723a7230000000000000000000000000000000000000c000002000200000001ffffffffffffffffffffffffffffffff0000000000000c000002000200000000ffffffffffffffffffffffff000000000000000000000e000000000400000001020000000000000000000000000000000000000000001a040002000200000002000000000000000000000000000000000000000000000c000004000400000001000000000000000000000000000000000000000000000c000004000400000000000000000000000000000000ffffffff0000000000000e000000000800000021010000000000000000000000000000000000000000001a080004000400000002000000000000000000000000000000000000000000001a040002000200000004000000000000000000000000000000000000000000000e000002000000000000020000000000000000000000000000000000000000000a000000000000000001a723a7230000000000000000000000000000000000000c000002000200000001ffffffffffffffffffffffffffffffff0000000000000c000002000200000000ffffffffffffffffffffffff000000000000000000000e000000000400000001020000000000000000000000000000000000000000001a040002000200000002000000000000000000000000000000000000000000000c000004000400000001000000000000000000000000000000000000000000000c000004000400000000000000000000000000000000ffffffff0000000000000e000000000800000021010000000000000000000000000000000000000000001a080004000400000002000000000000000000000000000000000000000000001a040002000200000004000000000000000000000000000000000000000000000e000002000000000000020000000000000000000000000000000000000000000a000000000000000001a723a7230000000000000000000000000000000000000c000002000200000001ffffffffffffffffffffffffffffffff0000000000000c000002000200000000ffffffffffffffffffffffff000000000000000000000e000000000400000001020000000000000000000000000000000000000000001a040002000200000002000000000000000000000000000000000000000000000c000004000400000001000000000000000000000000000000000000000000000c000004000400000000000000000000000000000000ffffffff0000000000000e000000000800000021010000000000000000000000000000000000000000001a080004000400000002000000000000000000000000000000000000000000001a040002000200000004000000000000000000000000000000000000000000000e000002000000000000020000000000000000000000000000000000000000000a000000000000000001a723a7230000000000000000000000000000000000000c000002000200000001000000000000000000000000000000000000000000000c000002000200000000000000000000000000000000717b484e0000000000000e000002000000000020000000000000000000000000000000000000000000000c000001000100000001410000000000000000000000000000000000000000000c000001000100000000000000000000000000000000000000000000000000000c000002000200000001040000000000000000000000000000000000000000000c0000020002000000000000000000000000000000000000000000000000000007000000000000000003242c00000000000000000000000000000000000000000c000002000200000001240000000000000000000000000000000000000000000c000002000200000000000000000000000000000000000000000000000000000e000002000000000000000000000000000000000000000000000000000000000c000004000400000001000000000000000000000000000000000000000000000c000004000400000000000000000000000000000000000000000000000000000c000002000200000001200000000000000000000000000000000000000000000c000002000200000000000000000000000000000000000000000000000000000a00000000000000000135223522000000000000000000000000000000000000020800000004000000000000000000000000000000000000000000000000000004100000000000000000000000000000000000000000000000000000000000000a00000000000000000a35224122000000000000000000000000000000000000180000040008000000000500000000000000000000000000000000000000000008080002000800000000000000000000000000000000000000000000000000000e080000001000000021000000000000000000000000000000000000000000000e0800100000000000000100000000000000000000000000000000000000000002000004000800000000010000000000000000000000000000000000000000000c000010001000000001010000000000000000000000000000000000000000000c0000100010000000000000000000000000000000000000000000000000000004080004000000000000000000000000000000000000000000000000000000000a00000000000000000232223e220000000000000000000000000000000000000c000010001000000001000000000000000000000000000000000000000000000c000010001000000000000000000000000000000000000000000000000000000a000000000000000001322232220000000000000000000000000000000000000c000002000200000001ffffffffffffffffffffffffffffffff0000000000000c000002000200000000ffffffffffffffffffffffff000000000000000000000e000000000400000001020000000000000000000000000000000000000000001a040002000200000002000000000000000000000000000000000000000000000c000004000400000001000000000000000000000000000000000000000000000c000004000400000000000000000000000000000000ffffffff0000000000000e000000000800000021010000000000000000000000000000000000000000001a080004000400000002000000000000000000000000000000000000000000001a040002000200000004000000000000000000000000000000000000000000000e000002000000000000020000000000000000000000000000000000000000000a000000000000000001a723a7230000000000000000000000000000000000000c000008000800000001000000000000000000000000000000000000000000000c000008000800000000000000000000000000000000000000000000000000000e000000000200000021020000000000000000000000000000000000000000000e0000020000000000600f0000000000000000000000000000000000000000000e000000000200000041000000000000000000000000000000000000000000001a0000020004000000021f0000000000000000000000000000000000000000000e0000040000000000600c0000000000000000000000000000000000000000001a000002000200000002e0ffffff0000000000000000000000000000000000000e0000020000000000600b00000000000000000000000000000000000000000018000002000200000002050000000000000000000000000000000000000000000e0000020000000000600d00000000000000000000000000000000000000000004020000000000000000000000000000000000000000000000000000000000000a000000000000000004672259220000000000000000000000000000000000000e0000080000000000600e00000000000000000000000000000000000000000018000008000400000000050000000000000000000000000000000000000000000e0000000002000000610f00000000000000000000000000000000000000000002020004000200000000000000000000000000000000000000000000000000000c000008000800000001200000000000000000000000000000000000000000000c0000080008000000000000000000000000000000000000000000000000000008040008000400000000000000000000000000000000000000000000000000000e0400000001000000410100000000000000000000000000000000000000000007000000000000000003242c00000000000000000000000000000000000000000e0000000008000000610e00000000000000000000000000000000000000000002000008000800000000010000000000000000000000000000000000000000000e0000000002000000610d00000000000000000000000000000000000000000004080002000000000000000000000000000000000000000000000000000000000a000000000000000002592267220000000000000000000000000000000000000e0000000002000000610f0000000000000000000000000000000000000000000e0000000002000000610c00000000000000000000000000000000000000000004020000000000000000000000000000000000000000000000000000000000000a00000000000000000487226b220000000000000000000000000000000000000e0000000002000000610c00000000000000000000000000000000000000000018000002000200000000030000000000000000000000000000000000000000000c000004000400000001000100000000000000000000000000000000000000000c0000040004000000000000000000000000000000000000000000000000000004040002000400000000000000000000000000000000000000000000000000000c000008000800000001ffffffffffffffffffffffffffffffff0000000000000c000008000800000000ffffffffffffffffffffffffffffffff00000000000018040008000400000000000000000000000000000000000000000000000000000c000010001000000001200000000000000000000000000000000000000000000c000010001000000000000000000000000000000000000000000000000000000e0000000020000000610b00000000000000000000000000000000000000000008200010001000000000000000000000000000000000000000000000000000000e100000001000000041010000000000000000000000000000000000000000001a100004000400000002000000000000000000000000000000000000000000000e0000040000000000600e00000000000000000000000000000000000000000018020008000200000002000000000000000000000000000000000000000000000e0000020000000000600c0000000000000000000000000000000000000000000e0000000002000000610f00000000000000000000000000000000000000000002020020000200000000000000000000000000000000000000000000000000000e0000020000000000600d000000000000000000000000000000000000000000020200000001000000000000000000000000000000000000000000000000000007000000000000000003fc2b00000000000000000000000000000000000000000e0000000002000000610c0000000000000000000000000000000000000000001a010002000200000002000000000000000000000000000000000000000000000e0000000004000000610e0000000000000000000000000000000000000000001a040002000100000004000000000000000000000000000000000000000000000e0000000002000000610d00000000000000000000000000000000000000000007000000000000000003242c00000000000000000000000000000000000000000c000008000800000001000000000000000000000000000000000000000000000c000008000800000000000000000000000000000000000000000000000000000e000000000400000041000000000000000000000000000000000000000000001a0000040002000000021f0000000000000000000000000000000000000000000e0000020000000000600b0000000000000000000000000000000000000000000e0000040000000000600a0000000000000000000000000000000000000000001a000004000200000002ffffffff0000000000000000000000000000000000000e0000020000000000000000000000000000000000000000000000000000000018000002000200000002050000000000000000000000000000000000000000000e0000000004000000610f0000000000000000000000000000000000000000000e0000020000000000600c00000000000000000000000000000000000000000004020000000000000000000000000000000000000000000000000000000000000a000000000000000004a42294220000000000000000000000000000000000000e0000080000000000600e00000000000000000000000000000000000000000018000008000400000000050000000000000000000000000000000000000000000e0000040000000000600d0000000000000000000000000000000000000000000e0000000002000000610f000000000000000000000000000000000000000000020200040001000000000000000000000000000000000000000000000000000007000000000000000003fc2b00000000000000000000000000000000000000000e0000000008000000610e0000000000000000000000000000000000000000000c000002000200000001200000000000000000000000000000000000000000000c000002000200000000000000000000000000000000000000000000000000000e0000000004000000610d00000000000000000000000000000000000000000008040002000200000000000000000000000000000000000000000000000000000e0200010000000000000100000000000000000000000000000000000000000002000008000800000000010000000000000000000000000000000000000000000e0000000002000000610c00000000000000000000000000000000000000000004080002000000000000000000000000000000000000000000000000000000000a0000000000000000029422a4220000000000000000000000000000000000000e0000000002000000610b00000000000000000000000000000000000000000004020000000000000000000000000000000000000000000000000000000000000a000000000000000004a723a7220000000000000000000000000000000000000e0000000002000000610a0000000000000000000000000000000000000000001a000002000400000002e0ffffff0000000000000000000000000000000000000e0000040000000000600e0000000000000000000000000000000000000000000e0000000002000000610f000000000000000000000000000000000000000000020200040001000000000000000000000000000000000000000000000000000007000000000000000003fc2b00000000000000000000000000000000000000000c000002000200000001200000000000000000000000000000000000000000000c000002000200000000000000000000000000000000000000000000000000000e0000000004000000610e00000000000000000000000000000000000000000008040002000200000000000000000000000000000000000000000000000000000e0000000004000000610b00000000000000000000000000000000000000000018000004000400000000030000000000000000000000000000000000000000000c000008000800000001ffffffffffffffffffffffffffffffff0000000000000c000008000800000000ffffffffffffffffffffffffffffffff00000000000018040008001000000002000000000000000000000000000000000000000000000e020000002000000001010000000000000000000000000000000000000000001a200010001000000002000000000000000000000000000000000000000000000c000020002000000001000100000000000000000000000000000000000000000c00002000200000000000000000000000000000000000000000000000000000042000040004000000000000000000000000000000000000000000000000000018040008000400000000000000000000000000000000000000000000000000001a010004000400000002000000000000000000000000000000000000000000001a040010000400000004000000000000000000000000000000000000000000000e020004000000000000010000000000000000000000000000000000000000000a000000000000000001a723a7230000000000000000000000000000000000000c000008000800000001000000000000000000000000000000000000000000000c000008000800000000000000000000000000000000000000000000000000000e000000000200000021020000000000000000000000000000000000000000000e0000020000000000600f0000000000000000000000000000000000000000000e000000000200000041000000000000000000000000000000000000000000001a0000020004000000021f0000000000000000000000000000000000000000000e0000040000000000600c0000000000000000000000000000000000000000001a000002000200000002e0ffffff0000000000000000000000000000000000000e0000020000000000600b00000000000000000000000000000000000000000018000002000200000002050000000000000000000000000000000000000000000e0000020000000000600d00000000000000000000000000000000000000000004020000000000000000000000000000000000000000000000000000000000000a000000000000000004db22cd220000000000000000000000000000000000000e0000080000000000600e00000000000000000000000000000000000000000018000008000400000000050000000000000000000000000000000000000000000e0000000002000000610f00000000000000000000000000000000000000000002020004000200000000000000000000000000000000000000000000000000000c000008000800000001200000000000000000000000000000000000000000000c0000080008000000000000000000000000000000000000000000000000000008040008000400000000000000000000000000000000000000000000000000000e0400000001000000410100000000000000000000000000000000000000000007000000000000000003242c00000000000000000000000000000000000000000e0000000008000000610e00000000000000000000000000000000000000000002000008000800000000010000000000000000000000000000000000000000000e0000000002000000610d00000000000000000000000000000000000000000004080002000000000000000000000000000000000000000000000000000000000a000000000000000002cd22db220000000000000000000000000000000000000e0000000002000000610f0000000000000000000000000000000000000000000e0000000002000000610c00000000000000000000000000000000000000000004020000000000000000000000000000000000000000000000000000000000000a000000000000000004fb22df220000000000000000000000000000000000000e0000000002000000610c00000000000000000000000000000000000000000018000002000200000000030000000000000000000000000000000000000000000c000004000400000001000100000000000000000000000000000000000000000c0000040004000000000000000000000000000000000000000000000000000004040002000400000000000000000000000000000000000000000000000000000c000008000800000001ffffffffffffffffffffffffffffffff0000000000000c000008000800000000ffffffffffffffffffffffffffffffff00000000000018040008000400000000000000000000000000000000000000000000000000000c000010001000000001200000000000000000000000000000000000000000000c000010001000000000000000000000000000000000000000000000000000000e0000000020000000610b00000000000000000000000000000000000000000008200010001000000000000000000000000000000000000000000000000000000e100000001000000041010000000000000000000000000000000000000000001a100004000400000002000000000000000000000000000000000000000000000e0000040000000000600e00000000000000000000000000000000000000000018020008000200000002000000000000000000000000000000000000000000000e0000020000000000600c0000000000000000000000000000000000000000000e0000000002000000610f00000000000000000000000000000000000000000002020020000200000000000000000000000000000000000000000000000000000e0000020000000000600d000000000000000000000000000000000000000000020200000001000000000000000000000000000000000000000000000000000007000000000000000003fc2b00000000000000000000000000000000000000000e0000000002000000610c0000000000000000000000000000000000000000001a010002000200000002000000000000000000000000000000000000000000000e0000000004000000610e0000000000000000000000000000000000000000001a040002000100000004000000000000000000000000000000000000000000000e0000000002000000610d00000000000000000000000000000000000000000007000000000000000003242c00000000000000000000000000000000000000000c000008000800000001000000000000000000000000000000000000000000000c000008000800000000000000000000000000000000000000000000000000000e000000000400000041000000000000000000000000000000000000000000001a0000040002000000021f0000000000000000000000000000000000000000000e0000020000000000600b0000000000000000000000000000000000000000000e0000040000000000600a0000000000000000000000000000000000000000001a000004000200000002ffffffff0000000000000000000000000000000000000e0000020000000000000000000000000000000000000000000000000000000018000002000200000002050000000000000000000000000000000000000000000e0000000004000000610f0000000000000000000000000000000000000000000e0000020000000000600c00000000000000000000000000000000000000000004020000000000000000000000000000000000000000000000000000000000000a000000000000000004182308230000000000000000000000000000000000000e0000080000000000600e00000000000000000000000000000000000000000018000008000400000000050000000000000000000000000000000000000000000e0000040000000000600d0000000000000000000000000000000000000000000e0000000002000000610f000000000000000000000000000000000000000000020200040001000000000000000000000000000000000000000000000000000007000000000000000003fc2b00000000000000000000000000000000000000000e0000000008000000610e0000000000000000000000000000000000000000000c000002000200000001200000000000000000000000000000000000000000000c000002000200000000000000000000000000000000000000000000000000000e0000000004000000610d00000000000000000000000000000000000000000008040002000200000000000000000000000000000000000000000000000000000e0200010000000000000100000000000000000000000000000000000000000002000008000800000000010000000000000000000000000000000000000000000e0000000002000000610c00000000000000000000000000000000000000000004080002000000000000000000000000000000000000000000000000000000000a000000000000000002082318230000000000000000000000000000000000000e0000000002000000610b00000000000000000000000000000000000000000004020000000000000000000000000000000000000000000000000000000000000a000000000000000004a7231b230000000000000000000000000000000000000e0000000002000000610a0000000000000000000000000000000000000000001a000002000400000002e0ffffff0000000000000000000000000000000000000e0000040000000000600e0000000000000000000000000000000000000000000e0000000002000000610f000000000000000000000000000000000000000000020200040001000000000000000000000000000000000000000000000000000007000000000000000003fc2b00000000000000000000000000000000000000000c000002000200000001200000000000000000000000000000000000000000000c000002000200000000000000000000000000000000000000000000000000000e0000000004000000610e00000000000000000000000000000000000000000008040002000200000000000000000000000000000000000000000000000000000e0000000004000000610b00000000000000000000000000000000000000000018000004000400000000030000000000000000000000000000000000000000000c000008000800000001ffffffffffffffffffffffffffffffff0000000000000c000008000800000000ffffffffffffffffffffffffffffffff00000000000018040008001000000002000000000000000000000000000000000000000000000e020000002000000001010000000000000000000000000000000000000000001a200010001000000002000000000000000000000000000000000000000000000c000020002000000001000100000000000000000000000000000000000000000c00002000200000000000000000000000000000000000000000000000000000042000040004000000000000000000000000000000000000000000000000000018040008000400000000000000000000000000000000000000000000000000001a010004000400000002000000000000000000000000000000000000000000001a040010000400000004000000000000000000000000000000000000000000000e020004000000000000010000000000000000000000000000000000000000000a000000000000000001a723a7230000000000000000000000000000000000000c000008000800000001000000000000000000000000000000000000000000000c000008000800000000000000000000000000000000000000000000000000000e000000000200000021020000000000000000000000000000000000000000000e0000020000000000600f0000000000000000000000000000000000000000000e000000000200000041000000000000000000000000000000000000000000001a0000020004000000021f0000000000000000000000000000000000000000000e0000040000000000600c0000000000000000000000000000000000000000001a000002000200000002e0ffffff0000000000000000000000000000000000000e0000020000000000600b00000000000000000000000000000000000000000018000002000200000002050000000000000000000000000000000000000000000e0000020000000000600d00000000000000000000000000000000000000000004020000000000000000000000000000000000000000000000000000000000000a0000000000000000044f2341230000000000000000000000000000000000000e0000080000000000600e00000000000000000000000000000000000000000018000008000400000000050000000000000000000000000000000000000000000e0000000002000000610f00000000000000000000000000000000000000000002020004000200000000000000000000000000000000000000000000000000000c000008000800000001200000000000000000000000000000000000000000000c0000080008000000000000000000000000000000000000000000000000000008040008000400000000000000000000000000000000000000000000000000000e0400000001000000410100000000000000000000000000000000000000000007000000000000000003242c00000000000000000000000000000000000000000e0000000008000000610e00000000000000000000000000000000000000000002000008000800000000010000000000000000000000000000000000000000000e0000000002000000610d00000000000000000000000000000000000000000004080002000000000000000000000000000000000000000000000000000000000a00000000000000000241234f230000000000000000000000000000000000000e0000000002000000610f0000000000000000000000000000000000000000000e0000000002000000610c00000000000000000000000000000000000000000004020000000000000000000000000000000000000000000000000000000000000a0000000000000000046f2353230000000000000000000000000000000000000e0000000002000000610c00000000000000000000000000000000000000000018000002000200000000030000000000000000000000000000000000000000000c000004000400000001000100000000000000000000000000000000000000000c0000040004000000000000000000000000000000000000000000000000000004040002000400000000000000000000000000000000000000000000000000000c000008000800000001ffffffffffffffffffffffffffffffff0000000000000c000008000800000000ffffffffffffffffffffffffffffffff00000000000018040008000400000000000000000000000000000000000000000000000000000c000010001000000001200000000000000000000000000000000000000000000c000010001000000000000000000000000000000000000000000000000000000e0000000020000000610b00000000000000000000000000000000000000000008200010001000000000000000000000000000000000000000000000000000000e100000001000000041010000000000000000000000000000000000000000001a100004000400000002000000000000000000000000000000000000000000000e0000040000000000600e00000000000000000000000000000000000000000018020008000200000002000000000000000000000000000000000000000000000e0000020000000000600c0000000000000000000000000000000000000000000e0000000002000000610f00000000000000000000000000000000000000000002020020000200000000000000000000000000000000000000000000000000000e0000020000000000600d000000000000000000000000000000000000000000020200000001000000000000000000000000000000000000000000000000000007000000000000000003fc2b00000000000000000000000000000000000000000e0000000002000000610c0000000000000000000000000000000000000000001a010002000200000002000000000000000000000000000000000000000000000e0000000004000000610e0000000000000000000000000000000000000000001a040002000100000004000000000000000000000000000000000000000000000e0000000002000000610d00000000000000000000000000000000000000000007000000000000000003242c00000000000000000000000000000000000000000c000008000800000001000000000000000000000000000000000000000000000c000008000800000000000000000000000000000000000000000000000000000e000000000400000041000000000000000000000000000000000000000000001a0000040002000000021f0000000000000000000000000000000000000000000e0000020000000000600b0000000000000000000000000000000000000000000e0000040000000000600a0000000000000000000000000000000000000000001a000004000200000002ffffffff0000000000000000000000000000000000000e0000020000000000000000000000000000000000000000000000000000000018000002000200000002050000000000000000000000000000000000000000000e0000000004000000610f0000000000000000000000000000000000000000000e0000020000000000600c00000000000000000000000000000000000000000004020000000000000000000000000000000000000000000000000000000000000a0000000000000000048c237c230000000000000000000000000000000000000e0000080000000000600e00000000000000000000000000000000000000000018000008000400000000050000000000000000000000000000000000000000000e0000040000000000600d0000000000000000000000000000000000000000000e0000000002000000610f000000000000000000000000000000000000000000020200040001000000000000000000000000000000000000000000000000000007000000000000000003fc2b00000000000000000000000000000000000000000e0000000008000000610e0000000000000000000000000000000000000000000c000002000200000001200000000000000000000000000000000000000000000c000002000200000000000000000000000000000000000000000000000000000e0000000004000000610d00000000000000000000000000000000000000000008040002000200000000000000000000000000000000000000000000000000000e0200010000000000000100000000000000000000000000000000000000000002000008000800000000010000000000000000000000000000000000000000000e0000000002000000610c00000000000000000000000000000000000000000004080002000000000000000000000000000000000000000000000000000000000a0000000000000000027c238c230000000000000000000000000000000000000e0000000002000000610b00000000000000000000000000000000000000000004020000000000000000000000000000000000000000000000000000000000000a000000000000000004a7238f230000000000000000000000000000000000000e0000000002000000610a0000000000000000000000000000000000000000001a000002000400000002e0ffffff0000000000000000000000000000000000000e0000040000000000600e0000000000000000000000000000000000000000000e0000000002000000610f000000000000000000000000000000000000000000020200040001000000000000000000000000000000000000000000000000000007000000000000000003fc2b00000000000000000000000000000000000000000c000002000200000001200000000000000000000000000000000000000000000c000002000200000000000000000000000000000000000000000000000000000e0000000004000000610e00000000000000000000000000000000000000000008040002000200000000000000000000000000000000000000000000000000000e0000000004000000610b00000000000000000000000000000000000000000018000004000400000000030000000000000000000000000000000000000000000c000008000800000001ffffffffffffffffffffffffffffffff0000000000000c000008000800000000ffffffffffffffffffffffffffffffff00000000000018040008001000000002000000000000000000000000000000000000000000000e020000002000000001010000000000000000000000000000000000000000001a200010001000000002000000000000000000000000000000000000000000000c000020002000000001000100000000000000000000000000000000000000000c00002000200000000000000000000000000000000000000000000000000000042000040004000000000000000000000000000000000000000000000000000018040008000400000000000000000000000000000000000000000000000000001a010004000400000002000000000000000000000000000000000000000000001a040010000400000004000000000000000000000000000000000000000000000e020004000000000000010000000000000000000000000000000000000000000e0000000000000000e10e00000000000000000000000000000000000000000007000000000000000004000000000000000000000000000000000000000000000e0000000000000000e00200000000000000000000000000000000000000000004010000000000000000000000000000000000000000000000000000000000000a000000000000000004ae23ac230000000000000000000000000000000000000e0000000000000000e10200000000000000000000000000000000000000000007000000000000000000000000000000000000000000000000000000000000000c000001000100000001000000000000000000000000000000000000000000000c000001000100000000000000000000000000000000a079c3080000000000000e000000000200000021020000000000000000000000000000000000000000000e0000020000000000600100000000000000000000000000000000000000000007000000000000000003242c00000000000000000000000000000000000000000e0000000002000000610100000000000000000000000000000000000000000002000002000200000000040000000000000000000000000000000000000000000c000001000100000001200000000000000000000000000000000000000000000c0000010001000000000000000000000000000000000000000000000000000007000000000000000003242c00000000000000000000000000000000000000000e0000000002000000610100000000000000000000000000000000000000000002000002000200000000240000000000000000000000000000000000000000000c000001000100000001260000000000000000000000000000000000000000000c0000010001000000000000000000000000000000000000000000000000000007000000000000000003242c00000000000000000000000000000000000000000e0000000002000000610100000000000000000000000000000000000000000002000002000200000000440000000000000000000000000000000000000000000c0000010001000000015f54555054554f5f544e4549434946460000000000000c00000100010000000055534e49203a7269615070617773584400000000000007000000000000000003242c00000000000000000000000000000000000000000e0000000002000000610100000000000000000000000000000000000000000002000002000200000000640000000000000000000000000000000000000000000c000001000100000001000000000000000000000000000000000000000000000c00000100010000000000000000000000000000544e554f4d4100000000000007000000000000000003242c00000000000000000000000000000000000000000c000002000200000001840000000000000000000000000000000000000000000c000002000200000000000000000000000000000000000000000000000000000e000002000000000000000000000000000000000000000000000000000000000c000002000200000001000000000000000000000000000000000000000000000c000002000200000000000000000000000000000000000000000000000000000e0000020000000000600300000000000000000000000000000000000000000018000002000400000000050000000000000000000000000000000000000000000e000004000000000060020000000000000000000000000000000000000000000e00000000020000006101000000000000000000000000000000000000000000020200040001000000000000000000000000000000000000000000000000000007000000000000000003fc2b00000000000000000000000000000000000000000c000002000200000001200000000000000000000000000000000000000000000c000002000200000000000000000000000000000000000000000000000000000e0000000004000000610200000000000000000000000000000000000000000008040002000200000000000000000000000000000000000000000000000000000e020001000000000000010000000000000000000000000000000000000000000e0000000002000000610300000000000000000000000000000000000000000002000002000200000000010000000000000000000000000000000000000000000c000004000400000001040000000000000000000000000000000000000000000c0000040004000000000000000000000000000000000000000000000000000004020004000000000000000000000000000000000000000000000000000000000a000000000000000002cc23dd230000000000000000000000000000000000000e00000000020000006101000000000000000000000000000000000000000000020000020001000000008000000000000000000000000000000000000000000007000000000000000003fc2b00000000000000000000000000000000000000000c000002000200000001ffffffffffffffffffffffffffffffff0000000000000c000002000200000000ffffffffffffffffffffffff000000000000000000000e000000000400000001050000000000000000000000000000000000000000001a040002000200000002000000000000000000000000000000000000000000000c000004000400000001000000000000000000000000000000000000000000000c000004000400000000000000000000000000000000ffffffff0000000000001a010004000400000002000000000000000000000000000000000000000000001a040002000200000004000000000000000000000000000000000000000000000e000002000000000000050000000000000000000000000000000000000000000e0000000000000000e10200000000000000000000000000000000000000000007000000000000000004000000000000000000000000000000000000000000000e0000000000000000e00200000000000000000000000000000000000000000004010000000000000000000000000000000000000000000000000000000000000a000000000000000004f023ee230000000000000000000000000000000000000e0000000000000000e10200000000000000000000000000000000000000000007000000000000000000000000000000000000000000000000000000000000000c000001000100000001000000000000000000000000000000000000000000000c000001000100000000000000000000000000000000a079c3080000000000000e000000000200000021020000000000000000000000000000000000000000000e0000020000000000600100000000000000000000000000000000000000000007000000000000000003242c00000000000000000000000000000000000000000e0000000002000000610100000000000000000000000000000000000000000002000002000200000000040000000000000000000000000000000000000000000c000001000100000001200000000000000000000000000000000000000000000c0000010001000000000000000000000000000000000000000000000000000007000000000000000003242c00000000000000000000000000000000000000000e0000000002000000610100000000000000000000000000000000000000000002000002000200000000240000000000000000000000000000000000000000000c000001000100000001220000000000000000000000000000000000000000000c0000010001000000000000000000000000000000000000000000000000000007000000000000000003242c00000000000000000000000000000000000000000e0000000002000000610100000000000000000000000000000000000000000002000002000200000000440000000000000000000000000000000000000000000c0000010001000000014944495551494c5f544e4549434946460000000000000c00000100010000000055534e49203a7269615070617773584400000000000007000000000000000003242c00000000000000000000000000000000000000000e0000000002000000610100000000000000000000000000000000000000000002000002000200000000640000000000000000000000000000000000000000000c000001000100000001000000000000000000000000000000000000000000000c0000010001000000000000000000000000000000000000595400000000000007000000000000000003242c00000000000000000000000000000000000000000c000002000200000001840000000000000000000000000000000000000000000c000002000200000000000000000000000000000000000000000000000000000e000002000000000000000000000000000000000000000000000000000000000c000002000200000001000000000000000000000000000000000000000000000c000002000200000000000000000000000000000000000000000000000000000e0000020000000000600300000000000000000000000000000000000000000018000002000400000000050000000000000000000000000000000000000000000e000004000000000060020000000000000000000000000000000000000000000e00000000020000006101000000000000000000000000000000000000000000020200040001000000000000000000000000000000000000000000000000000007000000000000000003fc2b00000000000000000000000000000000000000000c000002000200000001200000000000000000000000000000000000000000000c000002000200000000000000000000000000000000000000000000000000000e0000000004000000610200000000000000000000000000000000000000000008040002000200000000000000000000000000000000000000000000000000000e020001000000000000010000000000000000000000000000000000000000000e0000000002000000610300000000000000000000000000000000000000000002000002000200000000010000000000000000000000000000000000000000000c000004000400000001040000000000000000000000000000000000000000000c0000040004000000000000000000000000000000000000000000000000000004020004000000000000000000000000000000000000000000000000000000000a0000000000000000020e241f240000000000000000000000000000000000000e00000000020000006101000000000000000000000000000000000000000000020000020001000000008000000000000000000000000000000000000000000007000000000000000003fc2b00000000000000000000000000000000000000000c000002000200000001ffffffffffffffffffffffffffffffff0000000000000c000002000200000000ffffffffffffffffffffffff000000000000000000000e000000000400000001050000000000000000000000000000000000000000001a040002000200000002000000000000000000000000000000000000000000000c000004000400000001000000000000000000000000000000000000000000000c000004000400000000000000000000000000000000ffffffff0000000000001a010004000400000002000000000000000000000000000000000000000000001a040002000200000004000000000000000000000000000000000000000000000e000002000000000000050000000000000000000000000000000000000000000e0000000000000000e10200000000000000000000000000000000000000000007000000000000000004000000000000000000000000000000000000000000000e0000000000000000e00200000000000000000000000000000000000000000004010000000000000000000000000000000000000000000000000000000000000a000000000000000004322430240000000000000000000000000000000000000e0000000000000000e10200000000000000000000000000000000000000000007000000000000000000000000000000000000000000000000000000000000000c000001000100000001000000000000000000000000000000000000000000000c000001000100000000000000000000000000000000a079c3080000000000000e000000000200000021020000000000000000000000000000000000000000000e0000020000000000600100000000000000000000000000000000000000000007000000000000000003242c00000000000000000000000000000000000000000e0000000002000000610100000000000000000000000000000000000000000002000002000200000000040000000000000000000000000000000000000000000c000001000100000001200000000000000000000000000000000000000000000c0000010001000000000000000000000000000000000000000000000000000007000000000000000003242c00000000000000000000000000000000000000000e0000000002000000610100000000000000000000000000000000000000000002000002000200000000240000000000000000000000000000000000000000000c000001000100000001160000000000000000000000000000000000000000000c0000010001000000000000000000000000000000000000000000000000000007000000000000000003242c00000000000000000000000000000000000000000e0000000002000000610100000000000000000000000000000000000000000002000002000200000000440000000000000000000000000000000000000000000c000001000100000001000000000000000000004f545f44494c0000000000000c00000100010000000041564e49203a7269615070617773584400000000000007000000000000000003242c00000000000000000000000000000000000000000c000002000200000001640000000000000000000000000000000000000000000c000002000200000000000000000000000000000000000000000000000000000e000002000000000000000000000000000000000000000000000000000000000c000002000200000001000000000000000000000000000000000000000000000c000002000200000000000000000000000000000000000000000000000000000e0000020000000000600300000000000000000000000000000000000000000018000002000400000000050000000000000000000000000000000000000000000e000004000000000060020000000000000000000000000000000000000000000e00000000020000006101000000000000000000000000000000000000000000020200040001000000000000000000000000000000000000000000000000000007000000000000000003fc2b00000000000000000000000000000000000000000c000002000200000001200000000000000000000000000000000000000000000c000002000200000000000000000000000000000000000000000000000000000e0000000004000000610200000000000000000000000000000000000000000008040002000200000000000000000000000000000000000000000000000000000e020001000000000000010000000000000000000000000000000000000000000e0000000002000000610300000000000000000000000000000000000000000002000002000200000000010000000000000000000000000000000000000000000c000004000400000001030000000000000000000000000000000000000000000c0000040004000000000000000000000000000000000000000000000000000004020004000000000000000000000000000000000000000000000000000000000a0000000000000000024b245c240000000000000000000000000000000000000e00000000020000006101000000000000000000000000000000000000000000020000020001000000006000000000000000000000000000000000000000000007000000000000000003fc2b00000000000000000000000000000000000000000c000002000200000001ffffffffffffffffffffffffffffffff0000000000000c000002000200000000ffffffffffffffffffffffff000000000000000000000e000000000400000001040000000000000000000000000000000000000000001a040002000200000002000000000000000000000000000000000000000000000c000004000400000001000000000000000000000000000000000000000000000c000004000400000000000000000000000000000000ffffffff0000000000001a010004000400000002000000000000000000000000000000000000000000001a040002000200000004000000000000000000000000000000000000000000000e000002000000000000040000000000000000000000000000000000000000000e0000000000000000e10200000000000000000000000000000000000000000007000000000000000004000000000000000000000000000000000000000000000e0000000000000000e00200000000000000000000000000000000000000000004010000000000000000000000000000000000000000000000000000000000000a0000000000000000046f246d240000000000000000000000000000000000000e0000000000000000e10200000000000000000000000000000000000000000007000000000000000000000000000000000000000000000000000000000000000c000001000100000001000000000000000000000000000000000000000000000c000001000100000000000000000000000000000000a079c3080000000000000e000000000200000021020000000000000000000000000000000000000000000e0000020000000000600100000000000000000000000000000000000000000007000000000000000003242c00000000000000000000000000000000000000000e0000000002000000610100000000000000000000000000000000000000000002000002000200000000040000000000000000000000000000000000000000000c000001000100000001200000000000000000000000000000000000000000000c0000010001000000000000000000000000000000000000000000000000000007000000000000000003242c00000000000000000000000000000000000000000e0000000002000000610100000000000000000000000000000000000000000002000002000200000000240000000000000000000000000000000000000000000c000001000100000001250000000000000000000000000000000000000000000c0000010001000000000000000000000000000000000000000000000000000007000000000000000003242c00000000000000000000000000000000000000000e0000000002000000610100000000000000000000000000000000000000000002000002000200000000440000000000000000000000000000000000000000000c000001000100000001415f5455504e495f544e4549434946460000000000000c00000100010000000055534e49203a7269615070617773584400000000000007000000000000000003242c00000000000000000000000000000000000000000e0000000002000000610100000000000000000000000000000000000000000002000002000200000000640000000000000000000000000000000000000000000c000001000100000001000000000000000000000000000000000000000000000c0000010001000000000000000000000000000000544e554f4d00000000000007000000000000000003242c00000000000000000000000000000000000000000c000002000200000001840000000000000000000000000000000000000000000c000002000200000000000000000000000000000000000000000000000000000e000002000000000000000000000000000000000000000000000000000000000c000002000200000001000000000000000000000000000000000000000000000c000002000200000000000000000000000000000000000000000000000000000e0000020000000000600300000000000000000000000000000000000000000018000002000400000000050000000000000000000000000000000000000000000e000004000000000060020000000000000000000000000000000000000000000e00000000020000006101000000000000000000000000000000000000000000020200040001000000000000000000000000000000000000000000000000000007000000000000000003fc2b00000000000000000000000000000000000000000c000002000200000001200000000000000000000000000000000000000000000c000002000200000000000000000000000000000000000000000000000000000e0000000004000000610200000000000000000000000000000000000000000008040002000200000000000000000000000000000000000000000000000000000e020001000000000000010000000000000000000000000000000000000000000e0000000002000000610300000000000000000000000000000000000000000002000002000200000000010000000000000000000000000000000000000000000c000004000400000001040000000000000000000000000000000000000000000c0000040004000000000000000000000000000000000000000000000000000004020004000000000000000000000000000000000000000000000000000000000a0000000000000000028d249e240000000000000000000000000000000000000e00000000020000006101000000000000000000000000000000000000000000020000020001000000008000000000000000000000000000000000000000000007000000000000000003fc2b00000000000000000000000000000000000000000c000002000200000001ffffffffffffffffffffffffffffffff0000000000000c000002000200000000ffffffffffffffffffffffff000000000000000000000e000000000400000001050000000000000000000000000000000000000000001a040002000200000002000000000000000000000000000000000000000000000c000004000400000001000000000000000000000000000000000000000000000c000004000400000000000000000000000000000000ffffffff0000000000001a010004000400000002000000000000000000000000000000000000000000001a040002000200000004000000000000000000000000000000000000000000000e000002000000000000050000000000000000000000000000000000000000000e0000000000000000e10200000000000000000000000000000000000000000007000000000000000004000000000000000000000000000000000000000000000e0000000000000000e00200000000000000000000000000000000000000000004010000000000000000000000000000000000000000000000000000000000000a000000000000000004b124af240000000000000000000000000000000000000e0000000000000000e10200000000000000000000000000000000000000000007000000000000000000000000000000000000000000000000000000000000000c000001000100000001000000000000000000000000000000000000000000000c000001000100000000000000000000000000000000a079c3080000000000000e000000000200000021020000000000000000000000000000000000000000000e0000020000000000600100000000000000000000000000000000000000000007000000000000000003242c00000000000000000000000000000000000000000e0000000002000000610100000000000000000000000000000000000000000002000002000200000000040000000000000000000000000000000000000000000c000001000100000001200000000000000000000000000000000000000000000c0000010001000000000000000000000000000000000000000000000000000007000000000000000003242c00000000000000000000000000000000000000000e0000000002000000610100000000000000000000000000000000000000000002000002000200000000240000000000000000000000000000000000000000000c0000010001000000010d0000000000000000000000000000000000000000000c0000010001000000000000000000000000000000000000000000000000000007000000000000000003242c00000000000000000000000000000000000000000e0000000002000000610100000000000000000000000000000000000000000002000002000200000000440000000000000000000000000000000000000000000c000001000100000001000000000000000000000000000000000000000000000c0000010001000000000000004b203a7269615070617773584400000000000007000000000000000003242c00000000000000000000000000000000000000000c000002000200000001640000000000000000000000000000000000000000000c000002000200000000000000000000000000000000000000000000000000000e000002000000000000000000000000000000000000000000000000000000000c000002000200000001000000000000000000000000000000000000000000000c000002000200000000000000000000000000000000000000000000000000000e0000020000000000600300000000000000000000000000000000000000000018000002000400000000050000000000000000000000000000000000000000000e000004000000000060020000000000000000000000000000000000000000000e00000000020000006101000000000000000000000000000000000000000000020200040001000000000000000000000000000000000000000000000000000007000000000000000003fc2b00000000000000000000000000000000000000000c000002000200000001200000000000000000000000000000000000000000000c000002000200000000000000000000000000000000000000000000000000000e0000000004000000610200000000000000000000000000000000000000000008040002000200000000000000000000000000000000000000000000000000000e020001000000000000010000000000000000000000000000000000000000000e0000000002000000610300000000000000000000000000000000000000000002000002000200000000010000000000000000000000000000000000000000000c000004000400000001030000000000000000000000000000000000000000000c0000040004000000000000000000000000000000000000000000000000000004020004000000000000000000000000000000000000000000000000000000000a000000000000000002ca24db240000000000000000000000000000000000000e00000000020000006101000000000000000000000000000000000000000000020000020001000000006000000000000000000000000000000000000000000007000000000000000003fc2b00000000000000000000000000000000000000000c000002000200000001ffffffffffffffffffffffffffffffff0000000000000c000002000200000000ffffffffffffffffffffffff000000000000000000000e000000000400000001040000000000000000000000000000000000000000001a040002000200000002000000000000000000000000000000000000000000000c000004000400000001000000000000000000000000000000000000000000000c000004000400000000000000000000000000000000ffffffff0000000000001a010004000400000002000000000000000000000000000000000000000000001a040002000200000004000000000000000000000000000000000000000000000e000002000000000000040000000000000000000000000000000000000000000e0000000000000000e10200000000000000000000000000000000000000000007000000000000000004000000000000000000000000000000000000000000000e0000000000000000e0060000000000000000000000000000000000000000000e000001000000000060030000000000000000000000000000000000000000000c0000020002000000010d0000000000000000000000000000000000000000000c0000020002000000000000000000000000000000000000000000000000000005020000000400000001000000000000000000000000000000000000000000000c000002000200000001010000000000000000000000000000000000000000000c0000020002000000000000000000000000000000000000000000000000000004040002000000000000000000000000000000000000000000000000000000000a000000000000000004f424f2240000000000000000000000000000000000000c000002000200000001000000000000000000000000000000000000000000000c000002000200000000000000000000000000000000000000000000000000001a0000020001000000020100000000000000000000000000000000000000000007000000000000000003f60d00000000000000000000000000000000000000000a000000000000000002f724f8240000000000000000000000000000000000000a000000000000000001542754270000000000000000000000000000000000000c0000020002000000010d0000000000000000000000000000000000000000000c000002000200000000000000000000000000000000000000000000000000000c000004000400000001000000000000000000000000000000000000000000000c0000040004000000000000000000000000000000000000000000000000000005020004000000000000000000000000000000000000000000000000000000000c000002000200000001060000000000000000000000000000000000000000000c0000020002000000000000000000000000000000000000000000000000000005020000000200000001000000000000000000000000000000000000000000000e000002000000000060060000000000000000000000000000000000000000000c000002000200000001070000000000000000000000000000000000000000000c0000020002000000000000000000000000000000000000000000000000000005020000000200000001000000000000000000000000000000000000000000000e000002000000000060020000000000000000000000000000000000000000000e000000000200000021020000000000000000000000000000000000000000000e000002000000000060070000000000000000000000000000000000000000000c000001000100000001000000000000000000000000000000000000000000000c0000010001000000000000000000000000000000003182a07000000000000007000000000000000003242c00000000000000000000000000000000000000000c000004000400000001ffffffffffffffffffffffffffffffff0000000000000c000004000400000000ffffffff00000000000000000000000000000000000014000000000200000000050000000000000000000000000000000000000000001a020004000400000002000000000000000000000000000000000000000000000e0000000002000000610700000000000000000000000000000000000000000002000002000200000000040000000000000000000000000000000000000000000e00000400000000006001000000000000000000000000000000000000000000020400000001000000000000000000000000000000000000000000000000000007000000000000000003242c00000000000000000000000000000000000000000e000000000200000061060000000000000000000000000000000000000000000c000004000400000001ffffffffffffffffffffffffffffffff0000000000000c000004000400000000ffffffff0000000000000000000000000000000000001a020004000400000002000000000000000000000000000000000000000000000c000002000200000001040000000000000000000000000000000000000000000c000002000200000000000000000000000000000000000000000000000000000e0000040000000000600400000000000000000000000000000000000000000004040002000000000000000000000000000000000000000000000000000000000a00000000000000000463251c2500000000000000000000000000000000000010000000000000000000000000000000000000000000000000000000000000000c000002000200000001240000000000000000000000000000000000000000000c000002000200000000000000000000000000000000000000000000000000000e000002000000000040000000000000000000000000000000000000000000000c000002000200000001000000000000000000000000000000000000000000000c000002000200000000000000000000000000000000000000000000000000000a0000000000000000012525252500000000000000000000000000000000000004040000000000000000000000000000000000000000000000000000000000000a00000000000000000a252539250000000000000000000000000000000000000e0000020000000000600600000000000000000000000000000000000000000018000002000400000000050000000000000000000000000000000000000000000e000004000000000060050000000000000000000000000000000000000000000e00000000020000006107000000000000000000000000000000000000000000020200040001000000000000000000000000000000000000000000000000000007000000000000000003fc2b00000000000000000000000000000000000000000c000002000200000001200000000000000000000000000000000000000000000c000002000200000000000000000000000000000000000000000000000000000e0000000004000000610500000000000000000000000000000000000000000008040002000200000000000000000000000000000000000000000000000000000e020001000000000040010000000000000000000000000000000000000000000e0000000008000000610600000000000000000000000000000000000000000002000008000200000000010000000000000000000000000000000000000000000c000004000400000001010000000000000000000000000000000000000000000c0000040004000000000000000000000000000000000000000000000000000004020008000000000000000000000000000000000000000000000000000000000a000000000000000002232536250000000000000000000000000000000000000c000004000400000001000000000000000000000000000000000000000000000c000004000400000000000000000000000000000000000000000000000000000a000000000000000001232523250000000000000000000000000000000000000e00000000020000006107000000000000000000000000000000000000000000020000020001000000002000000000000000000000000000000000000000000007000000000000000003fc2b00000000000000000000000000000000000000000c000002000200000001ffffffffffffffffffffffffffffffff0000000000000c000002000200000000ffffffffffffffffffffffff000000000000000000000e000000000400000041020000000000000000000000000000000000000000001a040002000200000002000000000000000000000000000000000000000000000c000004000400000001000000000000000000000000000000000000000000000c000004000400000000000000000000000000000000ffffffff0000000000001a010004000400000002000000000000000000000000000000000000000000001a040002000200000004000000000000000000000000000000000000000000000e000002000000000040020000000000000000000000000000000000000000000e00000000020000006104000000000000000000000000000000000000000000180000020001000000002000000000000000000000000000000000000000000007000000000000000003432c00000000000000000000000000000000000000000c000002000200000001000000000000000000000000000000000000000000000c000002000200000000000000000000000000000000000000000000000000000e000001000000000060050000000000000000000000000000000000000000000a0000000000000000014e254e2500000000000000000000000000000000000004040000000000000000000000000000000000000000000000000000000000000a00000000000000000a4e2560250000000000000000000000000000000000000e0000020000000000600600000000000000000000000000000000000000000018000002000400000000050000000000000000000000000000000000000000000e0000000002000000610700000000000000000000000000000000000000000002020004000200000000000000000000000000000000000000000000000000000c000008000800000001200000000000000000000000000000000000000000000c0000080008000000000000000000000000000000000000000000000000000008040008000400000000000000000000000000000000000000000000000000000e0400000001000000410100000000000000000000000000000000000000000007000000000000000003242c00000000000000000000000000000000000000000e0000000008000000610600000000000000000000000000000000000000000002000008000200000000010000000000000000000000000000000000000000000c000004000400000001010000000000000000000000000000000000000000000c0000040004000000000000000000000000000000000000000000000000000004020008000000000000000000000000000000000000000000000000000000000a0000000000000000024c255d250000000000000000000000000000000000000c000004000400000001000000000000000000000000000000000000000000000c000004000400000000000000000000000000000000000000000000000000000a0000000000000000014c254c250000000000000000000000000000000000000e0000000002000000610500000000000000000000000000000000000000000004020000000000000000000000000000000000000000000000000000000000000a0000000000000000046d2663250000000000000000000000000000000000000e000000000200000041000000000000000000000000000000000000000000001a000002000200000002ffffffff000000000000000000000000000000000000020000020002000000001f0000000000000000000000000000000000000000001a000002000800000002e0ffffff0100000000000000000000000000000000000e0000000002000000610700000000000000000000000000000000000000000002080002000200000000000000000000000000000000000000000000000000000c000004000400000001010000000000000000000000000000000000000000000c0000040004000000000000000000000000000000000000000000000000000004020008000000000000000000000000000000000000000000000000000000000a0000000000000000026f256d250000000000000000000000000000000000000c000004000400000001000000000000000000000000000000000000000000000c000004000400000000000000000000000000000000000000000000000000000c000008000800000001ffffffffffffffff00000000000000000000000000000c0000080008000000000000000000000000000000000000000000000000000004020008000000000000000000000000000000000000000000000000000000000a0000000000000000081126732500000000000000000000000000000000000004040000000000000000000000000000000000000000000000000000000000000a00000000000000000a112675250000000000000000000000000000000000000e000002000000000020020000000000000000000000000000000000000000000e000000000200000041000000000000000000000000000000000000000000001a000002000200000002e0ffffff00000000000000000000000000000000000004020000000000000000000000000000000000000000000000000000000000000a00000000000000000430267a250000000000000000000000000000000000000e0000000001000000610700000000000000000000000000000000000000000007000000000000000003fc2b00000000000000000000000000000000000000000c000002000200000001080000000000000000000000000000000000000000000c0000020002000000000000000000000000000000000000000000000000000005020000000200000001000000000000000000000000000000000000000000001a000002000200000002ffffffffffffffffffffffffffff000000000000000007000000000000000003f82a00000000000000000000000000000000000000000a000000000000000002822583250000000000000000000000000000000000000a0000000000000000015427542700000000000000000000000000000000000002010000000400000000000000000000000000000000000000000000000000000e000000000100000061040000000000000000000000000000000000000000000e0000000002000000610300000000000000000000000000000000000000000007000000000000000003121d00000000000000000000000000000000000000000a000000000000000002882589250000000000000000000000000000000000000a000000000000000001542754270000000000000000000000000000000000000e000000000200000061020000000000000000000000000000000000000000000c000004000400000001ffffffffffffffffffffffffffffffff0000000000000c000004000400000000ffffffff0000000000000000000000000000000000001a020004000200000002000000000000000000000000000000000000000000000e000002000000000060040000000000000000000000000000000000000000000c000001000100000001000000000000000000000000000000000000000000000c0000010001000000000000000000000000000000003182a0700000000000000e000000000200000021020000000000000000000000000000000000000000000e0000020000000000600700000000000000000000000000000000000000000007000000000000000003242c00000000000000000000000000000000000000000e0000000002000000610700000000000000000000000000000000000000000002000002000200000000040000000000000000000000000000000000000000000e0000000001000000610100000000000000000000000000000000000000000007000000000000000003242c00000000000000000000000000000000000000000c000002000200000001040000000000000000000000000000000000000000000c000002000200000000000000000000000000000000000000000000000000000e0000000004000000610400000000000000000000000000000000000000000004040002000000000000000000000000000000000000000000000000000000000a000000000000000004e3259c2500000000000000000000000000000000000010000000000000000000000000000000000000000000000000000000000000000c000002000200000001240000000000000000000000000000000000000000000c000002000200000000000000000000000000000000000000000000000000000e000002000000000040000000000000000000000000000000000000000000000c000002000200000001000000000000000000000000000000000000000000000c000002000200000000000000000000000000000000000000000000000000000a000000000000000001a525a52500000000000000000000000000000000000004040000000000000000000000000000000000000000000000000000000000000a00000000000000000aa525b9250000000000000000000000000000000000000e0000020000000000600600000000000000000000000000000000000000000018000002000400000000050000000000000000000000000000000000000000000e000004000000000060050000000000000000000000000000000000000000000e00000000020000006107000000000000000000000000000000000000000000020200040001000000000000000000000000000000000000000000000000000007000000000000000003fc2b00000000000000000000000000000000000000000c000002000200000001200000000000000000000000000000000000000000000c000002000200000000000000000000000000000000000000000000000000000e0000000004000000610500000000000000000000000000000000000000000008040002000200000000000000000000000000000000000000000000000000000e020001000000000040010000000000000000000000000000000000000000000e0000000008000000610600000000000000000000000000000000000000000002000008000200000000010000000000000000000000000000000000000000000c000004000400000001010000000000000000000000000000000000000000000c0000040004000000000000000000000000000000000000000000000000000004020008000000000000000000000000000000000000000000000000000000000a000000000000000002a325b6250000000000000000000000000000000000000c000004000400000001000000000000000000000000000000000000000000000c000004000400000000000000000000000000000000000000000000000000000a000000000000000001a325a3250000000000000000000000000000000000000e00000000020000006107000000000000000000000000000000000000000000020000020001000000002000000000000000000000000000000000000000000007000000000000000003fc2b00000000000000000000000000000000000000000c000002000200000001ffffffffffffffffffffffffffffffff0000000000000c000002000200000000ffffffffffffffffffffffff000000000000000000000e000000000400000041020000000000000000000000000000000000000000001a040002000200000002000000000000000000000000000000000000000000000c000004000400000001000000000000000000000000000000000000000000000c000004000400000000000000000000000000000000ffffffff0000000000001a010004000400000002000000000000000000000000000000000000000000001a040002000200000004000000000000000000000000000000000000000000000e000002000000000040020000000000000000000000000000000000000000000e00000000020000006104000000000000000000000000000000000000000000180000020001000000002000000000000000000000000000000000000000000007000000000000000003432c00000000000000000000000000000000000000000c000002000200000001000000000000000000000000000000000000000000000c000002000200000000000000000000000000000000000000000000000000000e000001000000000060050000000000000000000000000000000000000000000a000000000000000001ce25ce2500000000000000000000000000000000000004040000000000000000000000000000000000000000000000000000000000000a00000000000000000ace25e0250000000000000000000000000000000000000e0000020000000000600600000000000000000000000000000000000000000018000002000400000000050000000000000000000000000000000000000000000e0000000002000000610700000000000000000000000000000000000000000002020004000200000000000000000000000000000000000000000000000000000c000008000800000001200000000000000000000000000000000000000000000c0000080008000000000000000000000000000000000000000000000000000008040008000400000000000000000000000000000000000000000000000000000e0400000001000000410100000000000000000000000000000000000000000007000000000000000003242c00000000000000000000000000000000000000000e0000000008000000610600000000000000000000000000000000000000000002000008000200000000010000000000000000000000000000000000000000000c000004000400000001010000000000000000000000000000000000000000000c0000040004000000000000000000000000000000000000000000000000000004020008000000000000000000000000000000000000000000000000000000000a000000000000000002cc25dd250000000000000000000000000000000000000c000004000400000001000000000000000000000000000000000000000000000c000004000400000000000000000000000000000000000000000000000000000a000000000000000001cc25cc250000000000000000000000000000000000000e0000000002000000610500000000000000000000000000000000000000000004020000000000000000000000000000000000000000000000000000000000000a000000000000000004e126e3250000000000000000000000000000000000000e000000000200000041000000000000000000000000000000000000000000001a000002000200000002ffffffff000000000000000000000000000000000000020000020002000000001f0000000000000000000000000000000000000000001a000002000800000002e0ffffff0100000000000000000000000000000000000e0000000002000000610700000000000000000000000000000000000000000002080002000200000000000000000000000000000000000000000000000000000c000004000400000001010000000000000000000000000000000000000000000c0000040004000000000000000000000000000000000000000000000000000004020008000000000000000000000000000000000000000000000000000000000a000000000000000002ef25ed250000000000000000000000000000000000000c000004000400000001000000000000000000000000000000000000000000000c000004000400000000000000000000000000000000000000000000000000000c000008000800000001ffffffffffffffff00000000000000000000000000000c0000080008000000000000000000000000000000000000000000000000000004020008000000000000000000000000000000000000000000000000000000000a0000000000000000083f26f32500000000000000000000000000000000000004040000000000000000000000000000000000000000000000000000000000000a00000000000000000a3f26f5250000000000000000000000000000000000000e000002000000000020020000000000000000000000000000000000000000000e000000000200000041000000000000000000000000000000000000000000001a000002000200000002e0ffffff00000000000000000000000000000000000004020000000000000000000000000000000000000000000000000000000000000a0000000000000000045e26fa250000000000000000000000000000000000000e0000000001000000610700000000000000000000000000000000000000000007000000000000000003fc2b00000000000000000000000000000000000000000c000002000200000001080000000000000000000000000000000000000000000c00000200020000000000000000000000000000000000000000000000000000050200000002000000010000000000000000000000000000000000000000000018000002000200000002700000000000000000000000000000000000000000001a000002000200000002ffffffffffffffffffffffffffff000000000000000007000000000000000003f82a00000000000000000000000000000000000000000a000000000000000002032604260000000000000000000000000000000000000a0000000000000000015427542700000000000000000000000000000000000002010000000400000000000000000000000000000000000000000000000000000e000000000100000061040000000000000000000000000000000000000000000e0000000002000000610300000000000000000000000000000000000000000007000000000000000003121d00000000000000000000000000000000000000000a00000000000000000209260a260000000000000000000000000000000000000a000000000000000001542754270000000000000000000000000000000000000c0000020002000000010d0000000000000000000000000000000000000000000c000002000200000000000000000000000000000000000000000000000000000c000004000400000001010000000000000000000000000000000000000000000c0000040004000000000000000000000000000000000000000000000000000005020004000000000000000000000000000000000000000000000000000000000e0000000000000000e10600000000000000000000000000000000000000000007000000000000000000000000000000000000000000000000000000000000000c000002000200000001000000000000000000000000000000000000000000000c000002000200000000000000000000000000000000717b484e0000000000000e000002000000000020000000000000000000000000000000000000000000000c000001000100000001410000000000000000000000000000000000000000000c000001000100000000000000000000000000000000000000000000000000000c000002000200000001040000000000000000000000000000000000000000000c0000020002000000000000000000000000000000000000000000000000000007000000000000000003242c00000000000000000000000000000000000000000c000002000200000001240000000000000000000000000000000000000000000c000002000200000000000000000000000000000000000000000000000000000e000002000000000000000000000000000000000000000000000000000000000c000004000400000001000000000000000000000000000000000000000000000c000004000400000000000000000000000000000000000000000000000000000c000002000200000001200000000000000000000000000000000000000000000c000002000200000000000000000000000000000000000000000000000000000a00000000000000000124262426000000000000000000000000000000000000020800000004000000000000000000000000000000000000000000000000000004100000000000000000000000000000000000000000000000000000000000000a00000000000000000a24263426000000000000000000000000000000000000180000040008000000000500000000000000000000000000000000000000000008080002000800000000000000000000000000000000000000000000000000000e080000001000000021000000000000000000000000000000000000000000000e0800100000000000000100000000000000000000000000000000000000000002000004000800000000010000000000000000000000000000000000000000000c000010001000000001010000000000000000000000000000000000000000000c0000100010000000000000000000000000000000000000000000000000000004080004000000000000000000000000000000000000000000000000000000000a00000000000000000221262d260000000000000000000000000000000000000c000010001000000001000000000000000000000000000000000000000000000c000010001000000000000000000000000000000000000000000000000000000a000000000000000001212621260000000000000000000000000000000000000c000002000200000001000000000000000000000000000000000000000000000c000002000200000000000000000000000000000000000000000000000000000e000002000000000000000000000000000000000000000000000000000000000a000000000000000001542754270000000000000000000000000000000000000c000002000200000001ffffffffffffffffffffffffffffffff0000000000000c000002000200000000ffffffffffffffffffffffff000000000000000000000e000000000400000001020000000000000000000000000000000000000000001a040002000200000002000000000000000000000000000000000000000000000c000004000400000001000000000000000000000000000000000000000000000c000004000400000000000000000000000000000000ffffffff0000000000000e000000000800000021010000000000000000000000000000000000000000001a080004000400000002000000000000000000000000000000000000000000001a040002000200000004000000000000000000000000000000000000000000000e000002000000000000020000000000000000000000000000000000000000000a000000000000000001542754270000000000000000000000000000000000000c000002000200000001000000000000000000000000000000000000000000000c000002000200000000000000000000000000000000717b484e0000000000000e000002000000000020000000000000000000000000000000000000000000000c000001000100000001410000000000000000000000000000000000000000000c000001000100000000000000000000000000000000000000000000000000000c000002000200000001040000000000000000000000000000000000000000000c0000020002000000000000000000000000000000000000000000000000000007000000000000000003242c00000000000000000000000000000000000000000c000002000200000001240000000000000000000000000000000000000000000c000002000200000000000000000000000000000000000000000000000000000e000002000000000000000000000000000000000000000000000000000000000c000004000400000001000000000000000000000000000000000000000000000c000004000400000000000000000000000000000000000000000000000000000c000002000200000001200000000000000000000000000000000000000000000c000002000200000000000000000000000000000000000000000000000000000a00000000000000000152265226000000000000000000000000000000000000020800000004000000000000000000000000000000000000000000000000000004100000000000000000000000000000000000000000000000000000000000000a00000000000000000a52266226000000000000000000000000000000000000180000040008000000000500000000000000000000000000000000000000000008080002000800000000000000000000000000000000000000000000000000000e080000001000000021000000000000000000000000000000000000000000000e0800100000000000000100000000000000000000000000000000000000000002000004000800000000010000000000000000000000000000000000000000000c000010001000000001010000000000000000000000000000000000000000000c0000100010000000000000000000000000000000000000000000000000000004080004000000000000000000000000000000000000000000000000000000000a0000000000000000024f265b260000000000000000000000000000000000000c000010001000000001000000000000000000000000000000000000000000000c000010001000000000000000000000000000000000000000000000000000000a0000000000000000014f264f260000000000000000000000000000000000000c000002000200000001000000000000000000000000000000000000000000000c000002000200000000000000000000000000000000000000000000000000000e000002000000000000000000000000000000000000000000000000000000000a000000000000000001542754270000000000000000000000000000000000000c000002000200000001ffffffffffffffffffffffffffffffff0000000000000c000002000200000000ffffffffffffffffffffffff000000000000000000000e000000000400000001020000000000000000000000000000000000000000001a040002000200000002000000000000000000000000000000000000000000000c000004000400000001000000000000000000000000000000000000000000000c000004000400000000000000000000000000000000ffffffff0000000000000e000000000800000021010000000000000000000000000000000000000000001a080004000400000002000000000000000000000000000000000000000000001a040002000200000004000000000000000000000000000000000000000000000e000002000000000000020000000000000000000000000000000000000000000a000000000000000001542754270000000000000000000000000000000000000c000008000800000001000000000000000000000000000000000000000000000c000008000800000000000000000000000000000000000000000000000000000e000000000200000021020000000000000000000000000000000000000000000e000002000000000060070000000000000000000000000000000000000000000e000000000200000041000000000000000000000000000000000000000000001a0000020004000000021f0000000000000000000000000000000000000000000e000004000000000060040000000000000000000000000000000000000000001a000002000200000002e0ffffff0000000000000000000000000000000000000e0000020000000000600300000000000000000000000000000000000000000018000002000200000002050000000000000000000000000000000000000000000e0000020000000000600500000000000000000000000000000000000000000004020000000000000000000000000000000000000000000000000000000000000a00000000000000000488267a260000000000000000000000000000000000000e0000080000000000600600000000000000000000000000000000000000000018000008000400000000050000000000000000000000000000000000000000000e0000000002000000610700000000000000000000000000000000000000000002020004000200000000000000000000000000000000000000000000000000000c000008000800000001200000000000000000000000000000000000000000000c0000080008000000000000000000000000000000000000000000000000000008040008000400000000000000000000000000000000000000000000000000000e0400000001000000410100000000000000000000000000000000000000000007000000000000000003242c00000000000000000000000000000000000000000e0000000008000000610600000000000000000000000000000000000000000002000008000800000000010000000000000000000000000000000000000000000e0000000002000000610500000000000000000000000000000000000000000004080002000000000000000000000000000000000000000000000000000000000a0000000000000000027a2688260000000000000000000000000000000000000e000000000200000061070000000000000000000000000000000000000000000e0000000002000000610400000000000000000000000000000000000000000004020000000000000000000000000000000000000000000000000000000000000a000000000000000004a8268c260000000000000000000000000000000000000e0000000002000000610400000000000000000000000000000000000000000018000002000200000000030000000000000000000000000000000000000000000c000004000400000001000100000000000000000000000000000000000000000c0000040004000000000000000000000000000000000000000000000000000004040002000400000000000000000000000000000000000000000000000000000c000008000800000001ffffffffffffffffffffffffffffffff0000000000000c000008000800000000ffffffffffffffffffffffffffffffff00000000000018040008000400000000000000000000000000000000000000000000000000000c000010001000000001200000000000000000000000000000000000000000000c000010001000000000000000000000000000000000000000000000000000000e0000000020000000610300000000000000000000000000000000000000000008200010001000000000000000000000000000000000000000000000000000000e100000001000000041010000000000000000000000000000000000000000001a100004000400000002000000000000000000000000000000000000000000000e0000040000000000600600000000000000000000000000000000000000000018020008000200000002000000000000000000000000000000000000000000000e000002000000000060040000000000000000000000000000000000000000000e0000000002000000610700000000000000000000000000000000000000000002020020000200000000000000000000000000000000000000000000000000000e00000200000000006005000000000000000000000000000000000000000000020200000001000000000000000000000000000000000000000000000000000007000000000000000003fc2b00000000000000000000000000000000000000000e000000000200000061040000000000000000000000000000000000000000001a010002000200000002000000000000000000000000000000000000000000000e000000000400000061060000000000000000000000000000000000000000001a040002000100000004000000000000000000000000000000000000000000000e0000000002000000610500000000000000000000000000000000000000000007000000000000000003242c00000000000000000000000000000000000000000c000008000800000001000000000000000000000000000000000000000000000c000008000800000000000000000000000000000000000000000000000000000e000000000400000041000000000000000000000000000000000000000000001a0000040002000000021f0000000000000000000000000000000000000000000e000002000000000060030000000000000000000000000000000000000000000e000004000000000060020000000000000000000000000000000000000000001a000004000200000002ffffffff0000000000000000000000000000000000000e0000020000000000000000000000000000000000000000000000000000000018000002000200000002050000000000000000000000000000000000000000000e000000000400000061070000000000000000000000000000000000000000000e0000020000000000600400000000000000000000000000000000000000000004020000000000000000000000000000000000000000000000000000000000000a000000000000000004c526b5260000000000000000000000000000000000000e0000080000000000600600000000000000000000000000000000000000000018000008000400000000050000000000000000000000000000000000000000000e000004000000000060050000000000000000000000000000000000000000000e00000000020000006107000000000000000000000000000000000000000000020200040001000000000000000000000000000000000000000000000000000007000000000000000003fc2b00000000000000000000000000000000000000000e000000000800000061060000000000000000000000000000000000000000000c000002000200000001200000000000000000000000000000000000000000000c000002000200000000000000000000000000000000000000000000000000000e0000000004000000610500000000000000000000000000000000000000000008040002000200000000000000000000000000000000000000000000000000000e0200010000000000000100000000000000000000000000000000000000000002000008000800000000010000000000000000000000000000000000000000000e0000000002000000610400000000000000000000000000000000000000000004080002000000000000000000000000000000000000000000000000000000000a000000000000000002b526c5260000000000000000000000000000000000000e0000000002000000610300000000000000000000000000000000000000000004020000000000000000000000000000000000000000000000000000000000000a0000000000000000045427c8260000000000000000000000000000000000000e000000000200000061020000000000000000000000000000000000000000001a000002000400000002e0ffffff0000000000000000000000000000000000000e000004000000000060060000000000000000000000000000000000000000000e00000000020000006107000000000000000000000000000000000000000000020200040001000000000000000000000000000000000000000000000000000007000000000000000003fc2b00000000000000000000000000000000000000000c000002000200000001200000000000000000000000000000000000000000000c000002000200000000000000000000000000000000000000000000000000000e0000000004000000610600000000000000000000000000000000000000000008040002000200000000000000000000000000000000000000000000000000000e0000000004000000610300000000000000000000000000000000000000000018000004000400000000030000000000000000000000000000000000000000000c000008000800000001ffffffffffffffffffffffffffffffff0000000000000c000008000800000000ffffffffffffffffffffffffffffffff00000000000018040008001000000002000000000000000000000000000000000000000000000e020000002000000001010000000000000000000000000000000000000000001a200010001000000002000000000000000000000000000000000000000000000c000020002000000001000100000000000000000000000000000000000000000c00002000200000000000000000000000000000000000000000000000000000042000040004000000000000000000000000000000000000000000000000000018040008000400000000000000000000000000000000000000000000000000001a010004000400000002000000000000000000000000000000000000000000001a040010000400000004000000000000000000000000000000000000000000000e020004000000000000010000000000000000000000000000000000000000000a000000000000000001542754270000000000000000000000000000000000000c000008000800000001000000000000000000000000000000000000000000000c000008000800000000000000000000000000000000000000000000000000000e000000000200000021020000000000000000000000000000000000000000000e000002000000000060070000000000000000000000000000000000000000000e000000000200000041000000000000000000000000000000000000000000001a0000020004000000021f0000000000000000000000000000000000000000000e000004000000000060040000000000000000000000000000000000000000001a000002000200000002e0ffffff0000000000000000000000000000000000000e0000020000000000600300000000000000000000000000000000000000000018000002000200000002050000000000000000000000000000000000000000000e0000020000000000600500000000000000000000000000000000000000000004020000000000000000000000000000000000000000000000000000000000000a000000000000000004fc26ee260000000000000000000000000000000000000e0000080000000000600600000000000000000000000000000000000000000018000008000400000000050000000000000000000000000000000000000000000e0000000002000000610700000000000000000000000000000000000000000002020004000200000000000000000000000000000000000000000000000000000c000008000800000001200000000000000000000000000000000000000000000c0000080008000000000000000000000000000000000000000000000000000008040008000400000000000000000000000000000000000000000000000000000e0400000001000000410100000000000000000000000000000000000000000007000000000000000003242c00000000000000000000000000000000000000000e0000000008000000610600000000000000000000000000000000000000000002000008000800000000010000000000000000000000000000000000000000000e0000000002000000610500000000000000000000000000000000000000000004080002000000000000000000000000000000000000000000000000000000000a000000000000000002ee26fc260000000000000000000000000000000000000e000000000200000061070000000000000000000000000000000000000000000e0000000002000000610400000000000000000000000000000000000000000004020000000000000000000000000000000000000000000000000000000000000a0000000000000000041c2700270000000000000000000000000000000000000e0000000002000000610400000000000000000000000000000000000000000018000002000200000000030000000000000000000000000000000000000000000c000004000400000001000100000000000000000000000000000000000000000c0000040004000000000000000000000000000000000000000000000000000004040002000400000000000000000000000000000000000000000000000000000c000008000800000001ffffffffffffffffffffffffffffffff0000000000000c000008000800000000ffffffffffffffffffffffffffffffff00000000000018040008000400000000000000000000000000000000000000000000000000000c000010001000000001200000000000000000000000000000000000000000000c000010001000000000000000000000000000000000000000000000000000000e0000000020000000610300000000000000000000000000000000000000000008200010001000000000000000000000000000000000000000000000000000000e100000001000000041010000000000000000000000000000000000000000001a100004000400000002000000000000000000000000000000000000000000000e0000040000000000600600000000000000000000000000000000000000000018020008000200000002000000000000000000000000000000000000000000000e000002000000000060040000000000000000000000000000000000000000000e0000000002000000610700000000000000000000000000000000000000000002020020000200000000000000000000000000000000000000000000000000000e00000200000000006005000000000000000000000000000000000000000000020200000001000000000000000000000000000000000000000000000000000007000000000000000003fc2b00000000000000000000000000000000000000000e000000000200000061040000000000000000000000000000000000000000001a010002000200000002000000000000000000000000000000000000000000000e000000000400000061060000000000000000000000000000000000000000001a040002000100000004000000000000000000000000000000000000000000000e0000000002000000610500000000000000000000000000000000000000000007000000000000000003242c00000000000000000000000000000000000000000c000008000800000001000000000000000000000000000000000000000000000c000008000800000000000000000000000000000000000000000000000000000e000000000400000041000000000000000000000000000000000000000000001a0000040002000000021f0000000000000000000000000000000000000000000e000002000000000060030000000000000000000000000000000000000000000e000004000000000060020000000000000000000000000000000000000000001a000004000200000002ffffffff0000000000000000000000000000000000000e0000020000000000000000000000000000000000000000000000000000000018000002000200000002050000000000000000000000000000000000000000000e000000000400000061070000000000000000000000000000000000000000000e0000020000000000600400000000000000000000000000000000000000000004020000000000000000000000000000000000000000000000000000000000000a000000000000000004392729270000000000000000000000000000000000000e0000080000000000600600000000000000000000000000000000000000000018000008000400000000050000000000000000000000000000000000000000000e000004000000000060050000000000000000000000000000000000000000000e00000000020000006107000000000000000000000000000000000000000000020200040001000000000000000000000000000000000000000000000000000007000000000000000003fc2b00000000000000000000000000000000000000000e000000000800000061060000000000000000000000000000000000000000000c000002000200000001200000000000000000000000000000000000000000000c000002000200000000000000000000000000000000000000000000000000000e0000000004000000610500000000000000000000000000000000000000000008040002000200000000000000000000000000000000000000000000000000000e0200010000000000000100000000000000000000000000000000000000000002000008000800000000010000000000000000000000000000000000000000000e0000000002000000610400000000000000000000000000000000000000000004080002000000000000000000000000000000000000000000000000000000000a000000000000000002292739270000000000000000000000000000000000000e0000000002000000610300000000000000000000000000000000000000000004020000000000000000000000000000000000000000000000000000000000000a00000000000000000454273c270000000000000000000000000000000000000e000000000200000061020000000000000000000000000000000000000000001a000002000400000002e0ffffff0000000000000000000000000000000000000e000004000000000060060000000000000000000000000000000000000000000e00000000020000006107000000000000000000000000000000000000000000020200040001000000000000000000000000000000000000000000000000000007000000000000000003fc2b00000000000000000000000000000000000000000c000002000200000001200000000000000000000000000000000000000000000c000002000200000000000000000000000000000000000000000000000000000e0000000004000000610600000000000000000000000000000000000000000008040002000200000000000000000000000000000000000000000000000000000e0000000004000000610300000000000000000000000000000000000000000018000004000400000000030000000000000000000000000000000000000000000c000008000800000001ffffffffffffffffffffffffffffffff0000000000000c000008000800000000ffffffffffffffffffffffffffffffff00000000000018040008001000000002000000000000000000000000000000000000000000000e020000002000000001010000000000000000000000000000000000000000001a200010001000000002000000000000000000000000000000000000000000000c000020002000000001000100000000000000000000000000000000000000000c00002000200000000000000000000000000000000000000000000000000000042000040004000000000000000000000000000000000000000000000000000018040008000400000000000000000000000000000000000000000000000000001a010004000400000002000000000000000000000000000000000000000000001a040010000400000004000000000000000000000000000000000000000000000e020004000000000000010000000000000000000000000000000000000000000e0000000000000000e10600000000000000000000000000000000000000000007000000000000000004000000000000000000000000000000000000000000000e0000000000000000e0050000000000000000000000000000000000000000000c0000020002000000010d0000000000000000000000000000000000000000000c0000020002000000000000000000000000000000000000000000000000000005020000000400000001000000000000000000000000000000000000000000000c000002000200000001010000000000000000000000000000000000000000000c0000020002000000000000000000000000000000000000000000000000000004040002000000000000000000000000000000000000000000000000000000000a00000000000000000460275e270000000000000000000000000000000000000c000002000200000001000000000000000000000000000000000000000000000c000002000200000000000000000000000000000000000000000000000000001a0000020001000000020100000000000000000000000000000000000000000007000000000000000003f60d00000000000000000000000000000000000000000a000000000000000002632764270000000000000000000000000000000000000a000000000000000001a829a8290000000000000000000000000000000000000c0000020002000000010d0000000000000000000000000000000000000000000c000002000200000000000000000000000000000000000000000000000000000c000004000400000001000000000000000000000000000000000000000000000c0000040004000000000000000000000000000000000000000000000000000005020004000000000000000000000000000000000000000000000000000000000c000002000200000001060000000000000000000000000000000000000000000c0000020002000000000000000000000000000000000000000000000000000005020000000200000001000000000000000000000000000000000000000000000e000002000000000060050000000000000000000000000000000000000000000e000000000200000021020000000000000000000000000000000000000000000e000002000000000060060000000000000000000000000000000000000000000c000001000100000001000000000000000000000000000000000000000000000c0000010001000000000000000000000000000000003182a07000000000000007000000000000000003242c00000000000000000000000000000000000000000c000004000400000001ffffffffffffffffffffffffffffffff0000000000000c000004000400000000ffffffff00000000000000000000000000000000000014000000000200000000050000000000000000000000000000000000000000001a020004000400000002000000000000000000000000000000000000000000000e0000000002000000610600000000000000000000000000000000000000000002000002000200000000040000000000000000000000000000000000000000000e00000400000000006003000000000000000000000000000000000000000000020400000001000000000000000000000000000000000000000000000000000007000000000000000003242c00000000000000000000000000000000000000000e000000000200000061050000000000000000000000000000000000000000000c000004000400000001ffffffffffffffffffffffffffffffff0000000000000c000004000400000000ffffffff0000000000000000000000000000000000001a020004000400000002000000000000000000000000000000000000000000000c000002000200000001040000000000000000000000000000000000000000000c0000020002000000000000000000000000000000000000000000000000000004040002000000000000000000000000000000000000000000000000000000000a000000000000000004cb2783270000000000000000000000000000000000000e0000040000000000600200000000000000000000000000000000000000000010000000000000000000000000000000000000000000000000000000000000000c000002000200000001240000000000000000000000000000000000000000000c000002000200000000000000000000000000000000000000000000000000000e000002000000000040000000000000000000000000000000000000000000000c000002000200000001000000000000000000000000000000000000000000000c000002000200000000000000000000000000000000000000000000000000000a0000000000000000018d278d2700000000000000000000000000000000000004040000000000000000000000000000000000000000000000000000000000000a00000000000000000a8d27a1270000000000000000000000000000000000000e0000020000000000600500000000000000000000000000000000000000000018000002000400000000050000000000000000000000000000000000000000000e000004000000000060040000000000000000000000000000000000000000000e00000000020000006106000000000000000000000000000000000000000000020200040001000000000000000000000000000000000000000000000000000007000000000000000003fc2b00000000000000000000000000000000000000000c000002000200000001200000000000000000000000000000000000000000000c000002000200000000000000000000000000000000000000000000000000000e0000000004000000610400000000000000000000000000000000000000000008040002000200000000000000000000000000000000000000000000000000000e020001000000000040010000000000000000000000000000000000000000000e0000000008000000610500000000000000000000000000000000000000000002000008000200000000010000000000000000000000000000000000000000000c000004000400000001010000000000000000000000000000000000000000000c0000040004000000000000000000000000000000000000000000000000000004020008000000000000000000000000000000000000000000000000000000000a0000000000000000028b279e270000000000000000000000000000000000000c000004000400000001000000000000000000000000000000000000000000000c000004000400000000000000000000000000000000000000000000000000000a0000000000000000018b278b270000000000000000000000000000000000000e00000000020000006106000000000000000000000000000000000000000000020000020001000000002000000000000000000000000000000000000000000007000000000000000003fc2b00000000000000000000000000000000000000000c000002000200000001ffffffffffffffffffffffffffffffff0000000000000c000002000200000000ffffffffffffffffffffffff000000000000000000000e000000000400000041020000000000000000000000000000000000000000001a040002000200000002000000000000000000000000000000000000000000000c000004000400000001000000000000000000000000000000000000000000000c000004000400000000000000000000000000000000ffffffff0000000000001a010004000400000002000000000000000000000000000000000000000000001a040002000200000004000000000000000000000000000000000000000000000e000002000000000040020000000000000000000000000000000000000000000e00000000020000006102000000000000000000000000000000000000000000180000020001000000002000000000000000000000000000000000000000000007000000000000000003432c00000000000000000000000000000000000000000c000002000200000001000000000000000000000000000000000000000000000c000002000200000000000000000000000000000000000000000000000000000e000001000000000060040000000000000000000000000000000000000000000a000000000000000001b627b62700000000000000000000000000000000000004040000000000000000000000000000000000000000000000000000000000000a00000000000000000ab627c8270000000000000000000000000000000000000e0000020000000000600500000000000000000000000000000000000000000018000002000400000000050000000000000000000000000000000000000000000e0000000002000000610600000000000000000000000000000000000000000002020004000200000000000000000000000000000000000000000000000000000c000008000800000001200000000000000000000000000000000000000000000c0000080008000000000000000000000000000000000000000000000000000008040008000400000000000000000000000000000000000000000000000000000e0400000001000000410100000000000000000000000000000000000000000007000000000000000003242c00000000000000000000000000000000000000000e0000000008000000610500000000000000000000000000000000000000000002000008000200000000010000000000000000000000000000000000000000000c000004000400000001010000000000000000000000000000000000000000000c0000040004000000000000000000000000000000000000000000000000000004020008000000000000000000000000000000000000000000000000000000000a000000000000000002b427c5270000000000000000000000000000000000000c000004000400000001000000000000000000000000000000000000000000000c000004000400000000000000000000000000000000000000000000000000000a000000000000000001b427b4270000000000000000000000000000000000000e0000000002000000610400000000000000000000000000000000000000000004020000000000000000000000000000000000000000000000000000000000000a000000000000000004c128cb270000000000000000000000000000000000000e000000000200000041000000000000000000000000000000000000000000001a000002000200000002ffffffff000000000000000000000000000000000000020000020002000000001f0000000000000000000000000000000000000000001a000002000400000002e0ffffff0100000000000000000000000000000000000e0000000002000000610600000000000000000000000000000000000000000002040002000800000000000000000000000000000000000000000000000000000c000002000200000001010000000000000000000000000000000000000000000c0000020002000000000000000000000000000000000000000000000000000004080004000000000000000000000000000000000000000000000000000000000a000000000000000002d727d5270000000000000000000000000000000000000c000002000200000001000000000000000000000000000000000000000000000c000002000200000000000000000000000000000000000000000000000000000c000004000400000001ffffffffffffffff00000000000000000000000000000c0000040004000000000000000000000000000000000000000000000000000004080004000000000000000000000000000000000000000000000000000000000a0000000000000000086528db2700000000000000000000000000000000000004020000000000000000000000000000000000000000000000000000000000000a00000000000000000a6528dd270000000000000000000000000000000000000e000008000000000020020000000000000000000000000000000000000000000e000000000200000041000000000000000000000000000000000000000000001a000002000200000002e0ffffff0000000000000000000000000000000000000e0000080000000000600500000000000000000000000000000000000000000004020000000000000000000000000000000000000000000000000000000000000a0000000000000000048428e3270000000000000000000000000000000000000e0000000001000000610600000000000000000000000000000000000000000007000000000000000003fc2b00000000000000000000000000000000000000000e000001000000000060020000000000000000000000000000000000000000000c000002000200000001070000000000000000000000000000000000000000000c0000020002000000000000000000000000000000000000000000000000000005020000000200000001000000000000000000000000000000000000000000000e000002000000000060060000000000000000000000000000000000000000000c000001000100000001000000000000000000000000000000000000000000000c0000010001000000000000000000000000000000003182a0700000000000000e0000000002000000610500000000000000000000000000000000000000000007000000000000000003242c00000000000000000000000000000000000000000e0000000002000000610500000000000000000000000000000000000000000002000002000200000000040000000000000000000000000000000000000000000e0000000001000000610300000000000000000000000000000000000000000007000000000000000003242c00000000000000000000000000000000000000000c000002000200000001ffffffffffffffffffffffffffffffff0000000000000c000002000200000000ffffffff0000000000000000000000000000000000000e000000000400000061060000000000000000000000000000000000000000001a040002000400000002000000000000000000000000000000000000000000000c000002000200000001040000000000000000000000000000000000000000000c000002000200000000000000000000000000000000000000000000000000000e0000000008000000610500000000000000000000000000000000000000000004040002000000000000000000000000000000000000000000000000000000000a0000000000000000044328fb270000000000000000000000000000000000000e0000040000000000600300000000000000000000000000000000000000000010000000000000000000000000000000000000000000000000000000000000000c000002000200000001240000000000000000000000000000000000000000000c000002000200000000000000000000000000000000000000000000000000000e000002000000000040000000000000000000000000000000000000000000000c000002000200000001000000000000000000000000000000000000000000000c000002000200000000000000000000000000000000000000000000000000000a000000000000000001062806280000000000000000000000000000000000000e0000000008000000610500000000000000000000000000000000000000000004040000000000000000000000000000000000000000000000000000000000000a00000000000000000a062819280000000000000000000000000000000000000e0000020000000000600600000000000000000000000000000000000000000018000002000200000000050000000000000000000000000000000000000000000e00000200000000006004000000000000000000000000000000000000000000020800020001000000000000000000000000000000000000000000000000000007000000000000000003fc2b00000000000000000000000000000000000000000c000002000200000001200000000000000000000000000000000000000000000c000002000200000000000000000000000000000000000000000000000000000e0000000004000000610400000000000000000000000000000000000000000008040002000200000000000000000000000000000000000000000000000000000e020001000000000040010000000000000000000000000000000000000000000e0000000008000000610600000000000000000000000000000000000000000002000008000200000000010000000000000000000000000000000000000000000c000004000400000001010000000000000000000000000000000000000000000c0000040004000000000000000000000000000000000000000000000000000004020008000000000000000000000000000000000000000000000000000000000a000000000000000002032816280000000000000000000000000000000000000c000004000400000001000000000000000000000000000000000000000000000c000004000400000000000000000000000000000000000000000000000000000a00000000000000000103280328000000000000000000000000000000000000020000080001000000002000000000000000000000000000000000000000000007000000000000000003fc2b00000000000000000000000000000000000000000c000002000200000001ffffffffffffffffffffffffffffffff0000000000000c000002000200000000ffffffffffffffffffffffff000000000000000000000e000000000400000041020000000000000000000000000000000000000000001a040002000200000002000000000000000000000000000000000000000000000c000004000400000001000000000000000000000000000000000000000000000c000004000400000000000000000000000000000000ffffffff0000000000001a010004000400000002000000000000000000000000000000000000000000001a040002000200000004000000000000000000000000000000000000000000000e000002000000000040020000000000000000000000000000000000000000000e00000000020000006103000000000000000000000000000000000000000000180000020001000000002000000000000000000000000000000000000000000007000000000000000003432c00000000000000000000000000000000000000000e000000000800000061050000000000000000000000000000000000000000000c000002000200000001000000000000000000000000000000000000000000000c000002000200000000000000000000000000000000000000000000000000000e000001000000000060040000000000000000000000000000000000000000000a0000000000000000012f282f280000000000000000000000000000000000000e0000000008000000610500000000000000000000000000000000000000000004040000000000000000000000000000000000000000000000000000000000000a00000000000000000a2f2840280000000000000000000000000000000000000e00000200000000006006000000000000000000000000000000000000000000180000020004000000000500000000000000000000000000000000000000000002080004000200000000000000000000000000000000000000000000000000000c000008000800000001200000000000000000000000000000000000000000000c0000080008000000000000000000000000000000000000000000000000000008040008000400000000000000000000000000000000000000000000000000000e0400000001000000410100000000000000000000000000000000000000000007000000000000000003242c00000000000000000000000000000000000000000e0000000008000000610600000000000000000000000000000000000000000002000008000200000000010000000000000000000000000000000000000000000c000004000400000001010000000000000000000000000000000000000000000c0000040004000000000000000000000000000000000000000000000000000004020008000000000000000000000000000000000000000000000000000000000a0000000000000000022c283d280000000000000000000000000000000000000c000004000400000001000000000000000000000000000000000000000000000c000004000400000000000000000000000000000000000000000000000000000a0000000000000000012c282c280000000000000000000000000000000000000e0000000002000000610400000000000000000000000000000000000000000004020000000000000000000000000000000000000000000000000000000000000a000000000000000004352943280000000000000000000000000000000000000e000000000200000041000000000000000000000000000000000000000000001a000002000200000002ffffffff000000000000000000000000000000000000020000020002000000001f0000000000000000000000000000000000000000001a000002000200000002e0ffffff01000000000000000000000000000000000002020008000200000000000000000000000000000000000000000000000000000c000004000400000001ffffffffffffffff00000000000000000000000000000c0000040004000000000000000000000000000000000000000000000000000004020004000000000000000000000000000000000000000000000000000000000a00000000000000000893284c280000000000000000000000000000000000000e000002000000000020020000000000000000000000000000000000000000000e000000000200000041000000000000000000000000000000000000000000001a000002000200000002e0ffffff00000000000000000000000000000000000004020000000000000000000000000000000000000000000000000000000000000a000000000000000004b2285128000000000000000000000000000000000000020800000001000000000000000000000000000000000000000000000000000007000000000000000003fc2b000000000000000000000000000000000000000002010000000200000000000000000000000000000000000000000000000000000c000004000400000001080000000000000000000000000000000000000000000c0000040004000000000000000000000000000000000000000000000000000005040000000800000001000000000000000000000000000000000000000000001a000008000400000002ffffffffffffffffffffffffffff000000000000000018000008000800000002700000000000000000000000000000000000000000001a000008000800000002ffffffffffffffffffffffffffff00000000000000000e0000000001000000610200000000000000000000000000000000000000000007000000000000000003e31200000000000000000000000000000000000000000a0000000000000000025d285e280000000000000000000000000000000000000a000000000000000001a829a8290000000000000000000000000000000000000c0000020002000000010d0000000000000000000000000000000000000000000c000002000200000000000000000000000000000000000000000000000000000c000004000400000001010000000000000000000000000000000000000000000c0000040004000000000000000000000000000000000000000000000000000005020004000000000000000000000000000000000000000000000000000000000e0000000000000000e10500000000000000000000000000000000000000000007000000000000000000000000000000000000000000000000000000000000000c000002000200000001000000000000000000000000000000000000000000000c000002000200000000000000000000000000000000717b484e0000000000000e000002000000000020000000000000000000000000000000000000000000000c000001000100000001410000000000000000000000000000000000000000000c000001000100000000000000000000000000000000000000000000000000000c000002000200000001040000000000000000000000000000000000000000000c0000020002000000000000000000000000000000000000000000000000000007000000000000000003242c00000000000000000000000000000000000000000c000002000200000001240000000000000000000000000000000000000000000c000002000200000000000000000000000000000000000000000000000000000e000002000000000000000000000000000000000000000000000000000000000c000004000400000001000000000000000000000000000000000000000000000c000004000400000000000000000000000000000000000000000000000000000c000002000200000001200000000000000000000000000000000000000000000c000002000200000000000000000000000000000000000000000000000000000a00000000000000000178287828000000000000000000000000000000000000020800000004000000000000000000000000000000000000000000000000000004100000000000000000000000000000000000000000000000000000000000000a00000000000000000a78288828000000000000000000000000000000000000180000040008000000000500000000000000000000000000000000000000000008080002000800000000000000000000000000000000000000000000000000000e080000001000000021000000000000000000000000000000000000000000000e0800100000000000000100000000000000000000000000000000000000000002000004000800000000010000000000000000000000000000000000000000000c000010001000000001010000000000000000000000000000000000000000000c0000100010000000000000000000000000000000000000000000000000000004080004000000000000000000000000000000000000000000000000000000000a000000000000000002752881280000000000000000000000000000000000000c000010001000000001000000000000000000000000000000000000000000000c000010001000000000000000000000000000000000000000000000000000000a000000000000000001752875280000000000000000000000000000000000000c000002000200000001000000000000000000000000000000000000000000000c000002000200000000000000000000000000000000000000000000000000000e000002000000000000000000000000000000000000000000000000000000000a000000000000000001a829a8290000000000000000000000000000000000000c000002000200000001ffffffffffffffffffffffffffffffff0000000000000c000002000200000000ffffffffffffffffffffffff000000000000000000000e000000000400000001020000000000000000000000000000000000000000001a040002000200000002000000000000000000000000000000000000000000000c000004000400000001000000000000000000000000000000000000000000000c000004000400000000000000000000000000000000ffffffff0000000000000e000000000800000021010000000000000000000000000000000000000000001a080004000400000002000000000000000000000000000000000000000000001a040002000200000004000000000000000000000000000000000000000000000e000002000000000000020000000000000000000000000000000000000000000a000000000000000001a829a8290000000000000000000000000000000000000c000002000200000001000000000000000000000000000000000000000000000c000002000200000000000000000000000000000000717b484e0000000000000e000002000000000020000000000000000000000000000000000000000000000c000001000100000001410000000000000000000000000000000000000000000c000001000100000000000000000000000000000000000000000000000000000c000002000200000001040000000000000000000000000000000000000000000c0000020002000000000000000000000000000000000000000000000000000007000000000000000003242c00000000000000000000000000000000000000000c000002000200000001240000000000000000000000000000000000000000000c000002000200000000000000000000000000000000000000000000000000000e000002000000000000000000000000000000000000000000000000000000000c000004000400000001000000000000000000000000000000000000000000000c000004000400000000000000000000000000000000000000000000000000000c000002000200000001200000000000000000000000000000000000000000000c000002000200000000000000000000000000000000000000000000000000000a000000000000000001a628a628000000000000000000000000000000000000020800000004000000000000000000000000000000000000000000000000000004100000000000000000000000000000000000000000000000000000000000000a00000000000000000aa628b628000000000000000000000000000000000000180000040008000000000500000000000000000000000000000000000000000008080002000800000000000000000000000000000000000000000000000000000e080000001000000021000000000000000000000000000000000000000000000e0800100000000000000100000000000000000000000000000000000000000002000004000800000000010000000000000000000000000000000000000000000c000010001000000001010000000000000000000000000000000000000000000c0000100010000000000000000000000000000000000000000000000000000004080004000000000000000000000000000000000000000000000000000000000a000000000000000002a328af280000000000000000000000000000000000000c000010001000000001000000000000000000000000000000000000000000000c000010001000000000000000000000000000000000000000000000000000000a000000000000000001a328a3280000000000000000000000000000000000000c000002000200000001000000000000000000000000000000000000000000000c000002000200000000000000000000000000000000000000000000000000000e000002000000000000000000000000000000000000000000000000000000000a000000000000000001a829a8290000000000000000000000000000000000000c000002000200000001ffffffffffffffffffffffffffffffff0000000000000c000002000200000000ffffffffffffffffffffffff000000000000000000000e000000000400000001020000000000000000000000000000000000000000001a040002000200000002000000000000000000000000000000000000000000000c000004000400000001000000000000000000000000000000000000000000000c000004000400000000000000000000000000000000ffffffff0000000000000e000000000800000021010000000000000000000000000000000000000000001a080004000400000002000000000000000000000000000000000000000000001a040002000200000004000000000000000000000000000000000000000000000e000002000000000000020000000000000000000000000000000000000000000a000000000000000001a829a8290000000000000000000000000000000000000c000008000800000001000000000000000000000000000000000000000000000c000008000800000000000000000000000000000000000000000000000000000e000000000200000021020000000000000000000000000000000000000000000e000002000000000060060000000000000000000000000000000000000000000e000000000200000041000000000000000000000000000000000000000000001a0000020004000000021f0000000000000000000000000000000000000000000e000004000000000060030000000000000000000000000000000000000000001a000002000200000002e0ffffff0000000000000000000000000000000000000e0000020000000000600200000000000000000000000000000000000000000018000002000200000002050000000000000000000000000000000000000000000e0000020000000000600400000000000000000000000000000000000000000004020000000000000000000000000000000000000000000000000000000000000a000000000000000004dc28ce280000000000000000000000000000000000000e0000080000000000600500000000000000000000000000000000000000000018000008000400000000050000000000000000000000000000000000000000000e0000000002000000610600000000000000000000000000000000000000000002020004000200000000000000000000000000000000000000000000000000000c000008000800000001200000000000000000000000000000000000000000000c0000080008000000000000000000000000000000000000000000000000000008040008000400000000000000000000000000000000000000000000000000000e0400000001000000410100000000000000000000000000000000000000000007000000000000000003242c00000000000000000000000000000000000000000e0000000008000000610500000000000000000000000000000000000000000002000008000800000000010000000000000000000000000000000000000000000e0000000002000000610400000000000000000000000000000000000000000004080002000000000000000000000000000000000000000000000000000000000a000000000000000002ce28dc280000000000000000000000000000000000000e000000000200000061060000000000000000000000000000000000000000000e0000000002000000610300000000000000000000000000000000000000000004020000000000000000000000000000000000000000000000000000000000000a000000000000000004fc28e0280000000000000000000000000000000000000e0000000002000000610300000000000000000000000000000000000000000018000002000200000000030000000000000000000000000000000000000000000c000004000400000001000100000000000000000000000000000000000000000c0000040004000000000000000000000000000000000000000000000000000004040002000400000000000000000000000000000000000000000000000000000c000008000800000001ffffffffffffffffffffffffffffffff0000000000000c000008000800000000ffffffffffffffffffffffffffffffff00000000000018040008000400000000000000000000000000000000000000000000000000000c000010001000000001200000000000000000000000000000000000000000000c000010001000000000000000000000000000000000000000000000000000000e0000000020000000610200000000000000000000000000000000000000000008200010001000000000000000000000000000000000000000000000000000000e100000001000000041010000000000000000000000000000000000000000001a100004000400000002000000000000000000000000000000000000000000000e0000040000000000600500000000000000000000000000000000000000000018020008000200000002000000000000000000000000000000000000000000000e000002000000000060030000000000000000000000000000000000000000000e0000000002000000610600000000000000000000000000000000000000000002020020000200000000000000000000000000000000000000000000000000000e00000200000000006004000000000000000000000000000000000000000000020200000001000000000000000000000000000000000000000000000000000007000000000000000003fc2b00000000000000000000000000000000000000000e000000000200000061030000000000000000000000000000000000000000001a010002000200000002000000000000000000000000000000000000000000000e000000000400000061050000000000000000000000000000000000000000001a040002000100000004000000000000000000000000000000000000000000000e0000000002000000610400000000000000000000000000000000000000000007000000000000000003242c00000000000000000000000000000000000000000c000008000800000001000000000000000000000000000000000000000000000c000008000800000000000000000000000000000000000000000000000000000e000000000400000041000000000000000000000000000000000000000000001a0000040002000000021f0000000000000000000000000000000000000000000e000002000000000060020000000000000000000000000000000000000000000e000004000000000060010000000000000000000000000000000000000000001a000004000200000002ffffffff0000000000000000000000000000000000000e0000020000000000000000000000000000000000000000000000000000000018000002000200000002050000000000000000000000000000000000000000000e000000000400000061060000000000000000000000000000000000000000000e0000020000000000600300000000000000000000000000000000000000000004020000000000000000000000000000000000000000000000000000000000000a000000000000000004192909290000000000000000000000000000000000000e0000080000000000600500000000000000000000000000000000000000000018000008000400000000050000000000000000000000000000000000000000000e000004000000000060040000000000000000000000000000000000000000000e00000000020000006106000000000000000000000000000000000000000000020200040001000000000000000000000000000000000000000000000000000007000000000000000003fc2b00000000000000000000000000000000000000000e000000000800000061050000000000000000000000000000000000000000000c000002000200000001200000000000000000000000000000000000000000000c000002000200000000000000000000000000000000000000000000000000000e0000000004000000610400000000000000000000000000000000000000000008040002000200000000000000000000000000000000000000000000000000000e0200010000000000000100000000000000000000000000000000000000000002000008000800000000010000000000000000000000000000000000000000000e0000000002000000610300000000000000000000000000000000000000000004080002000000000000000000000000000000000000000000000000000000000a000000000000000002092919290000000000000000000000000000000000000e0000000002000000610200000000000000000000000000000000000000000004020000000000000000000000000000000000000000000000000000000000000a000000000000000004a8291c290000000000000000000000000000000000000e000000000200000061010000000000000000000000000000000000000000001a000002000400000002e0ffffff0000000000000000000000000000000000000e000004000000000060050000000000000000000000000000000000000000000e00000000020000006106000000000000000000000000000000000000000000020200040001000000000000000000000000000000000000000000000000000007000000000000000003fc2b00000000000000000000000000000000000000000c000002000200000001200000000000000000000000000000000000000000000c000002000200000000000000000000000000000000000000000000000000000e0000000004000000610500000000000000000000000000000000000000000008040002000200000000000000000000000000000000000000000000000000000e0000000004000000610200000000000000000000000000000000000000000018000004000400000000030000000000000000000000000000000000000000000c000008000800000001ffffffffffffffffffffffffffffffff0000000000000c000008000800000000ffffffffffffffffffffffffffffffff00000000000018040008001000000002000000000000000000000000000000000000000000000e020000002000000001010000000000000000000000000000000000000000001a200010001000000002000000000000000000000000000000000000000000000c000020002000000001000100000000000000000000000000000000000000000c00002000200000000000000000000000000000000000000000000000000000042000040004000000000000000000000000000000000000000000000000000018040008000400000000000000000000000000000000000000000000000000001a010004000400000002000000000000000000000000000000000000000000001a040010000400000004000000000000000000000000000000000000000000000e020004000000000000010000000000000000000000000000000000000000000a000000000000000001a829a8290000000000000000000000000000000000000c000008000800000001000000000000000000000000000000000000000000000c000008000800000000000000000000000000000000000000000000000000000e000000000200000021020000000000000000000000000000000000000000000e000002000000000060060000000000000000000000000000000000000000000e000000000200000041000000000000000000000000000000000000000000001a0000020004000000021f0000000000000000000000000000000000000000000e000004000000000060030000000000000000000000000000000000000000001a000002000200000002e0ffffff0000000000000000000000000000000000000e0000020000000000600200000000000000000000000000000000000000000018000002000200000002050000000000000000000000000000000000000000000e0000020000000000600400000000000000000000000000000000000000000004020000000000000000000000000000000000000000000000000000000000000a000000000000000004502942290000000000000000000000000000000000000e0000080000000000600500000000000000000000000000000000000000000018000008000400000000050000000000000000000000000000000000000000000e0000000002000000610600000000000000000000000000000000000000000002020004000200000000000000000000000000000000000000000000000000000c000008000800000001200000000000000000000000000000000000000000000c0000080008000000000000000000000000000000000000000000000000000008040008000400000000000000000000000000000000000000000000000000000e0400000001000000410100000000000000000000000000000000000000000007000000000000000003242c00000000000000000000000000000000000000000e0000000008000000610500000000000000000000000000000000000000000002000008000800000000010000000000000000000000000000000000000000000e0000000002000000610400000000000000000000000000000000000000000004080002000000000000000000000000000000000000000000000000000000000a000000000000000002422950290000000000000000000000000000000000000e000000000200000061060000000000000000000000000000000000000000000e0000000002000000610300000000000000000000000000000000000000000004020000000000000000000000000000000000000000000000000000000000000a000000000000000004702954290000000000000000000000000000000000000e0000000002000000610300000000000000000000000000000000000000000018000002000200000000030000000000000000000000000000000000000000000c000004000400000001000100000000000000000000000000000000000000000c0000040004000000000000000000000000000000000000000000000000000004040002000400000000000000000000000000000000000000000000000000000c000008000800000001ffffffffffffffffffffffffffffffff0000000000000c000008000800000000ffffffffffffffffffffffffffffffff00000000000018040008000400000000000000000000000000000000000000000000000000000c000010001000000001200000000000000000000000000000000000000000000c000010001000000000000000000000000000000000000000000000000000000e0000000020000000610200000000000000000000000000000000000000000008200010001000000000000000000000000000000000000000000000000000000e100000001000000041010000000000000000000000000000000000000000001a100004000400000002000000000000000000000000000000000000000000000e0000040000000000600500000000000000000000000000000000000000000018020008000200000002000000000000000000000000000000000000000000000e000002000000000060030000000000000000000000000000000000000000000e0000000002000000610600000000000000000000000000000000000000000002020020000200000000000000000000000000000000000000000000000000000e00000200000000006004000000000000000000000000000000000000000000020200000001000000000000000000000000000000000000000000000000000007000000000000000003fc2b00000000000000000000000000000000000000000e000000000200000061030000000000000000000000000000000000000000001a010002000200000002000000000000000000000000000000000000000000000e000000000400000061050000000000000000000000000000000000000000001a040002000100000004000000000000000000000000000000000000000000000e0000000002000000610400000000000000000000000000000000000000000007000000000000000003242c00000000000000000000000000000000000000000c000008000800000001000000000000000000000000000000000000000000000c000008000800000000000000000000000000000000000000000000000000000e000000000400000041000000000000000000000000000000000000000000001a0000040002000000021f0000000000000000000000000000000000000000000e000002000000000060020000000000000000000000000000000000000000000e000004000000000060010000000000000000000000000000000000000000001a000004000200000002ffffffff0000000000000000000000000000000000000e0000020000000000000000000000000000000000000000000000000000000018000002000200000002050000000000000000000000000000000000000000000e000000000400000061060000000000000000000000000000000000000000000e0000020000000000600300000000000000000000000000000000000000000004020000000000000000000000000000000000000000000000000000000000000a0000000000000000048d297d290000000000000000000000000000000000000e0000080000000000600500000000000000000000000000000000000000000018000008000400000000050000000000000000000000000000000000000000000e000004000000000060040000000000000000000000000000000000000000000e00000000020000006106000000000000000000000000000000000000000000020200040001000000000000000000000000000000000000000000000000000007000000000000000003fc2b00000000000000000000000000000000000000000e000000000800000061050000000000000000000000000000000000000000000c000002000200000001200000000000000000000000000000000000000000000c000002000200000000000000000000000000000000000000000000000000000e0000000004000000610400000000000000000000000000000000000000000008040002000200000000000000000000000000000000000000000000000000000e0200010000000000000100000000000000000000000000000000000000000002000008000800000000010000000000000000000000000000000000000000000e0000000002000000610300000000000000000000000000000000000000000004080002000000000000000000000000000000000000000000000000000000000a0000000000000000027d298d290000000000000000000000000000000000000e0000000002000000610200000000000000000000000000000000000000000004020000000000000000000000000000000000000000000000000000000000000a000000000000000004a82990290000000000000000000000000000000000000e000000000200000061010000000000000000000000000000000000000000001a000002000400000002e0ffffff0000000000000000000000000000000000000e000004000000000060050000000000000000000000000000000000000000000e00000000020000006106000000000000000000000000000000000000000000020200040001000000000000000000000000000000000000000000000000000007000000000000000003fc2b00000000000000000000000000000000000000000c000002000200000001200000000000000000000000000000000000000000000c000002000200000000000000000000000000000000000000000000000000000e0000000004000000610500000000000000000000000000000000000000000008040002000200000000000000000000000000000000000000000000000000000e0000000004000000610200000000000000000000000000000000000000000018000004000400000000030000000000000000000000000000000000000000000c000008000800000001ffffffffffffffffffffffffffffffff0000000000000c000008000800000000ffffffffffffffffffffffffffffffff00000000000018040008001000000002000000000000000000000000000000000000000000000e020000002000000001010000000000000000000000000000000000000000001a200010001000000002000000000000000000000000000000000000000000000c000020002000000001000100000000000000000000000000000000000000000c00002000200000000000000000000000000000000000000000000000000000042000040004000000000000000000000000000000000000000000000000000018040008000400000000000000000000000000000000000000000000000000001a010004000400000002000000000000000000000000000000000000000000001a040010000400000004000000000000000000000000000000000000000000000e020004000000000000010000000000000000000000000000000000000000000e0000000000000000e10500000000000000000000000000000000000000000007000000000000000004000000000000000000000000000000000000000000000c000002000200000001040000000000000000000000000000000000000000000c0000020002000000000000000000000000000000000000000000000000000004010002000000000000000000000000000000000000000000000000000000000a000000000000000002ae29b6290000000000000000000000000000000000000c000002000200000001010000000000000000000000000000000000000000000c0000020002000000000000000000000000000000000000000000000000000004010000000000000000000000000000000000000000000000000000000000000a00000000000000000ab429b2290000000000000000000000000000000000000c000002000200000001000000000000000000000000000000000000000000000c000002000200000000000000000000000000000000000000000000000000001a000002000200000002010000000000000000000000000000000000000000000a000000000000000001c829c82900000000000000000000000000000000000018000001000200000002010000000000000000000000000000000000000000000200000200040000000001000000000000000000000000000000000000000000020100000002000000000000000000000000000000000000000000000000000004040001000000000000000000000000000000000000000000000000000000000a00000000000000000cc829bb29000000000000000000000000000000000000020400000002000000000000000000000000000000000000000000000000000004020000000000000000000000000000000000000000000000000000000000000a000000000000000004ca29be290000000000000000000000000000000000000c000004000400000001ffffffffffffffffffffffffffffffff0000000000000c000004000400000000ffffffffffffffffffffffffffffffff0000000000001a02000400080000000800000000000000000000000000000000000000000000080100020004000000000000000000000000000000000000000000000000000004040008000000000000000000000000000000000000000000000000000000000a000000000000000008e929c4290000000000000000000000000000000000000204000200040000000000000000000000000000000000000000000000000000180000040004000000020100000000000000000000000000000000000000000004040002000000000000000000000000000000000000000000000000000000000a000000000000000002bb29c829000000000000000000000000000000000000020200000001000000000000000000000000000000000000000000000000000007000000000000000000000000000000000000000000000000000000000000000c000002000200000001000000000000000000000000000000000000000000000c000002000200000000000000000000000000000000717b484e0000000000000e000002000000000020000000000000000000000000000000000000000000000c000001000100000001120000000000000000000000000000000000000000000c000001000100000000000000000000000000000000000000000000000000000c000002000200000001040000000000000000000000000000000000000000000c0000020002000000000000000000000000000000000000000000000000000007000000000000000003242c00000000000000000000000000000000000000000c000002000200000001240000000000000000000000000000000000000000000c000002000200000000000000000000000000000000000000000000000000000e000002000000000000000000000000000000000000000000000000000000000c000004000400000001000000000000000000000000000000000000000000000c000004000400000000000000000000000000000000000000000000000000000c000002000200000001200000000000000000000000000000000000000000000c000002000200000000000000000000000000000000000000000000000000000a000000000000000001dd29dd29000000000000000000000000000000000000020800000004000000000000000000000000000000000000000000000000000004100000000000000000000000000000000000000000000000000000000000000a00000000000000000add29082a000000000000000000000000000000000000180000040008000000000500000000000000000000000000000000000000000008080002000800000000000000000000000000000000000000000000000000000e080000001000000021000000000000000000000000000000000000000000000e0800100000000000000100000000000000000000000000000000000000000002000004000800000000010000000000000000000000000000000000000000000c000010001000000001010000000000000000000000000000000000000000000c0000100010000000000000000000000000000000000000000000000000000004080004000000000000000000000000000000000000000000000000000000000a000000000000000002da29e6290000000000000000000000000000000000000c000010001000000001000000000000000000000000000000000000000000000c000010001000000000000000000000000000000000000000000000000000000a000000000000000001da29da290000000000000000000000000000000000000c000002000200000001000000000000000000000000000000000000000000000c000002000200000000000000000000000000000000717b484e0000000000000e000002000000000020000000000000000000000000000000000000000000000c000001000100000001110000000000000000000000000000000000000000000c000001000100000000000000000000000000000000000000000000000000000c000002000200000001040000000000000000000000000000000000000000000c0000020002000000000000000000000000000000000000000000000000000007000000000000000003242c00000000000000000000000000000000000000000c000002000200000001240000000000000000000000000000000000000000000c000002000200000000000000000000000000000000000000000000000000000e000002000000000000000000000000000000000000000000000000000000000c000004000400000001000000000000000000000000000000000000000000000c000004000400000000000000000000000000000000000000000000000000000c000002000200000001200000000000000000000000000000000000000000000c000002000200000000000000000000000000000000000000000000000000000a000000000000000001fc29fc29000000000000000000000000000000000000020800000004000000000000000000000000000000000000000000000000000004100000000000000000000000000000000000000000000000000000000000000a00000000000000000afc29132a000000000000000000000000000000000000180000040008000000000500000000000000000000000000000000000000000008080002000800000000000000000000000000000000000000000000000000000e080000001000000021000000000000000000000000000000000000000000000e0800100000000000000100000000000000000000000000000000000000000002000004000800000000010000000000000000000000000000000000000000000c000010001000000001010000000000000000000000000000000000000000000c0000100010000000000000000000000000000000000000000000000000000004080004000000000000000000000000000000000000000000000000000000000a000000000000000002f929052a0000000000000000000000000000000000000c000010001000000001000000000000000000000000000000000000000000000c000010001000000000000000000000000000000000000000000000000000000a000000000000000001f929f9290000000000000000000000000000000000000c000002000200000001ffffffffffffffffffffffffffffffff0000000000000c000002000200000000ffffffffffffffffffffffff000000000000000000000e000000000400000001020000000000000000000000000000000000000000001a040002000200000002000000000000000000000000000000000000000000000c000004000400000001000000000000000000000000000000000000000000000c000004000400000000000000000000000000000000ffffffff0000000000000e000000000800000021010000000000000000000000000000000000000000001a080004000400000002000000000000000000000000000000000000000000001a040002000200000004000000000000000000000000000000000000000000000e000002000000000000020000000000000000000000000000000000000000000a0000000000000000011d2a1d2a0000000000000000000000000000000000000c000002000200000001ffffffffffffffffffffffffffffffff0000000000000c000002000200000000ffffffffffffffffffffffff000000000000000000000e000000000400000001020000000000000000000000000000000000000000001a040002000200000002000000000000000000000000000000000000000000000c000004000400000001000000000000000000000000000000000000000000000c000004000400000000000000000000000000000000ffffffff0000000000000e000000000800000021010000000000000000000000000000000000000000001a080004000400000002000000000000000000000000000000000000000000001a040002000200000004000000000000000000000000000000000000000000000e0000020000000000000200000000000000000000000000000000000000000007000000000000000004000000000000000000000000000000000000000000000c00000200020000000117fcffffffffffffffffffffffffffff0000000000000c000002000200000000ffffffffffffffffffffffffffffffff00000000000004010002000000000000000000000000000000000000000000000000000000000a000000000000000008242a222a00000000000000000000000000000000000002000001000100000000e803000000000000000000000000000000000000000007000000000000000000000000000000000000000000000000000000000000000c000002000200000001000000000000000000000000000000000000000000000c000002000200000000000000000000000000000000717b484e0000000000000e000002000000000020000000000000000000000000000000000000000000000c000001000100000001110000000000000000000000000000000000000000000c000001000100000000000000000000000000000000000000000000000000000c000002000200000001040000000000000000000000000000000000000000000c0000020002000000000000000000000000000000000000000000000000000007000000000000000003242c00000000000000000000000000000000000000000c000002000200000001240000000000000000000000000000000000000000000c000002000200000000000000000000000000000000000000000000000000000e000002000000000000000000000000000000000000000000000000000000000c000004000400000001000000000000000000000000000000000000000000000c000004000400000000000000000000000000000000000000000000000000000c000002000200000001200000000000000000000000000000000000000000000c000002000200000000000000000000000000000000000000000000000000000a000000000000000001372a372a000000000000000000000000000000000000020800000004000000000000000000000000000000000000000000000000000004100000000000000000000000000000000000000000000000000000000000000a00000000000000000a372a432a000000000000000000000000000000000000180000040008000000000500000000000000000000000000000000000000000008080002000800000000000000000000000000000000000000000000000000000e080000001000000021000000000000000000000000000000000000000000000e0800100000000000000100000000000000000000000000000000000000000002000004000800000000010000000000000000000000000000000000000000000c000010001000000001010000000000000000000000000000000000000000000c0000100010000000000000000000000000000000000000000000000000000004080004000000000000000000000000000000000000000000000000000000000a000000000000000002342a402a0000000000000000000000000000000000000c000010001000000001000000000000000000000000000000000000000000000c000010001000000000000000000000000000000000000000000000000000000a000000000000000001342a342a0000000000000000000000000000000000000c000002000200000001ffffffffffffffffffffffffffffffff0000000000000c000002000200000000ffffffffffffffffffffffff000000000000000000000e000000000400000001020000000000000000000000000000000000000000001a040002000200000002000000000000000000000000000000000000000000000c000004000400000001000000000000000000000000000000000000000000000c000004000400000000000000000000000000000000ffffffff0000000000000e000000000800000021010000000000000000000000000000000000000000001a080004000400000002000000000000000000000000000000000000000000001a040002000200000004000000000000000000000000000000000000000000000e0000020000000000000200000000000000000000000000000000000000000007000000000000000004000000000000000000000000000000000000000000000e0000000000000000e0020000000000000000000000000000000000000000000c000004000400000001ffffffffffffffffffffffffffffffff0000000000000c000004000400000000ffffffffffffffffffffffffffffffff0000000000001a0200040004000000080000000000000000000000000000000000000000000004040001000000000000000000000000000000000000000000000000000000000a000000000000000002632a542a00000000000000000000000000000000000002020001000400000000000000000000000000000000000000000000000000000c000008000800000001010000000000000000000000000000000000000000000c000008000800000000000000000000000000000000000000000000000000000c000010001000000001010000000000000000000000000000000000000000000c0000100010000000000000000000000000000000000000000000000000000004040002000000000000000000000000000000000000000000000000000000000a0000000000000000025d2a5b2a0000000000000000000000000000000000000c000010001000000001000000000000000000000000000000000000000000000c000010001000000000000000000000000000000000000000000000000000001a0000100002000000020100000000000000000000000000000000000000000004020008000000000000000000000000000000000000000000000000000000000a000000000000000004822a602a00000000000000000000000000000000000002040000000100000000000000000000000000000000000000000000000000000e0000000000000000e10200000000000000000000000000000000000000000007000000000000000000000000000000000000000000000000000000000000000c000002000200000001000000000000000000000000000000000000000000000c000002000200000000000000000000000000000000717b484e0000000000000e000002000000000020000000000000000000000000000000000000000000000c000001000100000001110000000000000000000000000000000000000000000c000001000100000000000000000000000000000000000000000000000000000c000002000200000001040000000000000000000000000000000000000000000c0000020002000000000000000000000000000000000000000000000000000007000000000000000003242c00000000000000000000000000000000000000000c000002000200000001240000000000000000000000000000000000000000000c000002000200000000000000000000000000000000000000000000000000000e000002000000000000000000000000000000000000000000000000000000000c000004000400000001000000000000000000000000000000000000000000000c000004000400000000000000000000000000000000000000000000000000000c000002000200000001200000000000000000000000000000000000000000000c000002000200000000000000000000000000000000000000000000000000000a000000000000000001762a762a000000000000000000000000000000000000020800000004000000000000000000000000000000000000000000000000000004100000000000000000000000000000000000000000000000000000000000000a00000000000000000a762aba2a000000000000000000000000000000000000180000040008000000000500000000000000000000000000000000000000000008080002000800000000000000000000000000000000000000000000000000000e080000001000000021000000000000000000000000000000000000000000000e0800100000000000000100000000000000000000000000000000000000000002000004000800000000010000000000000000000000000000000000000000000c000010001000000001010000000000000000000000000000000000000000000c0000100010000000000000000000000000000000000000000000000000000004080004000000000000000000000000000000000000000000000000000000000a000000000000000002732a7f2a0000000000000000000000000000000000000c000010001000000001000000000000000000000000000000000000000000000c000010001000000000000000000000000000000000000000000000000000000a000000000000000001732a732a0000000000000000000000000000000000000c000001000100000001000000000000000000000000000000000000000000000c000001000100000000000000000000000000000000a079c3080000000000000e000000000200000021020000000000000000000000000000000000000000000e0000020000000000600100000000000000000000000000000000000000000007000000000000000003242c00000000000000000000000000000000000000000e0000000002000000610100000000000000000000000000000000000000000002000002000200000000040000000000000000000000000000000000000000000c000001000100000001200000000000000000000000000000000000000000000c0000010001000000000000000000000000000000000000000000000000000007000000000000000003242c00000000000000000000000000000000000000000e0000000002000000610100000000000000000000000000000000000000000002000002000200000000240000000000000000000000000000000000000000000c000001000100000001140000000000000000000000000000000000000000000c0000010001000000000000000000000000000000000000000000000000000007000000000000000003242c00000000000000000000000000000000000000000e0000000002000000610100000000000000000000000000000000000000000002000002000200000000440000000000000000000000000000000000000000000c000001000100000001000000000000000000000000776f6c660000000000000c0000010001000000007265766f2d6464612d6874616d2d736400000000000007000000000000000003242c00000000000000000000000000000000000000000c000002000200000001640000000000000000000000000000000000000000000c000002000200000000000000000000000000000000000000000000000000000e000002000000000000000000000000000000000000000000000000000000000c000002000200000001000000000000000000000000000000000000000000000c000002000200000000000000000000000000000000000000000000000000000e0000020000000000600300000000000000000000000000000000000000000018000002000400000000050000000000000000000000000000000000000000000e000004000000000060020000000000000000000000000000000000000000000e00000000020000006101000000000000000000000000000000000000000000020200040001000000000000000000000000000000000000000000000000000007000000000000000003fc2b00000000000000000000000000000000000000000c000002000200000001200000000000000000000000000000000000000000000c000002000200000000000000000000000000000000000000000000000000000e0000000004000000610200000000000000000000000000000000000000000008040002000200000000000000000000000000000000000000000000000000000e020001000000000000010000000000000000000000000000000000000000000e0000000002000000610300000000000000000000000000000000000000000002000002000200000000010000000000000000000000000000000000000000000c000004000400000001030000000000000000000000000000000000000000000c0000040004000000000000000000000000000000000000000000000000000004020004000000000000000000000000000000000000000000000000000000000a0000000000000000029b2aac2a0000000000000000000000000000000000000e00000000020000006101000000000000000000000000000000000000000000020000020001000000006000000000000000000000000000000000000000000007000000000000000003fc2b00000000000000000000000000000000000000000c000002000200000001ffffffffffffffffffffffffffffffff0000000000000c000002000200000000ffffffffffffffffffffffff000000000000000000000e000000000400000001040000000000000000000000000000000000000000001a040002000200000002000000000000000000000000000000000000000000000c000004000400000001000000000000000000000000000000000000000000000c000004000400000000000000000000000000000000ffffffff0000000000001a010004000400000002000000000000000000000000000000000000000000001a040002000200000004000000000000000000000000000000000000000000000e000002000000000000040000000000000000000000000000000000000000000e0000000000000000e10200000000000000000000000000000000000000000007000000000000000004000000000000000000000000000000000000000000000c000002000200000001ffffffffffffffffffffffffffffffff0000000000000c000002000200000000ffffffffffffffffffffffff000000000000000000000e000000000400000001020000000000000000000000000000000000000000001a040002000200000002000000000000000000000000000000000000000000000c000004000400000001000000000000000000000000000000000000000000000c000004000400000000000000000000000000000000ffffffff0000000000000e000000000800000021010000000000000000000000000000000000000000001a080004000400000002000000000000000000000000000000000000000000001a040002000200000004000000000000000000000000000000000000000000000e000002000000000000020000000000000000000000000000000000000000000e0000000000000000e10200000000000000000000000000000000000000000007000000000000000004000000000000000000000000000000000000000000000c000002000200000001e80300000000000000000000000000000000000000000c0000020002000000000000000000000000000000000000000000000000000004010002000000000000000000000000000000000000000000000000000000000a000000000000000002ce2aca2a0000000000000000000000000000000000000c00000200020000000118fcffffffffffffffffffffffffffff0000000000000c000002000200000000ffffffffffffffffffffffffffffffff000000000000020100020001000000000000000000000000000000000000000000000000000007000000000000000000000000000000000000000000000000000000000000000c000002000200000001000000000000000000000000000000000000000000000c000002000200000000000000000000000000000000717b484e0000000000000e000002000000000020000000000000000000000000000000000000000000000c000001000100000001110000000000000000000000000000000000000000000c000001000100000000000000000000000000000000000000000000000000000c000002000200000001040000000000000000000000000000000000000000000c0000020002000000000000000000000000000000000000000000000000000007000000000000000003242c00000000000000000000000000000000000000000c000002000200000001240000000000000000000000000000000000000000000c000002000200000000000000000000000000000000000000000000000000000e000002000000000000000000000000000000000000000000000000000000000c000004000400000001000000000000000000000000000000000000000000000c000004000400000000000000000000000000000000000000000000000000000c000002000200000001200000000000000000000000000000000000000000000c000002000200000000000000000000000000000000000000000000000000000a000000000000000001e12ae12a000000000000000000000000000000000000020800000004000000000000000000000000000000000000000000000000000004100000000000000000000000000000000000000000000000000000000000000a00000000000000000ae12aed2a000000000000000000000000000000000000180000040008000000000500000000000000000000000000000000000000000008080002000800000000000000000000000000000000000000000000000000000e080000001000000021000000000000000000000000000000000000000000000e0800100000000000000100000000000000000000000000000000000000000002000004000800000000010000000000000000000000000000000000000000000c000010001000000001010000000000000000000000000000000000000000000c0000100010000000000000000000000000000000000000000000000000000004080004000000000000000000000000000000000000000000000000000000000a000000000000000002de2aea2a0000000000000000000000000000000000000c000010001000000001000000000000000000000000000000000000000000000c000010001000000000000000000000000000000000000000000000000000000a000000000000000001de2ade2a0000000000000000000000000000000000000c000002000200000001ffffffffffffffffffffffffffffffff0000000000000c000002000200000000ffffffffffffffffffffffff000000000000000000000e000000000400000001020000000000000000000000000000000000000000001a040002000200000002000000000000000000000000000000000000000000000c000004000400000001000000000000000000000000000000000000000000000c000004000400000000000000000000000000000000ffffffff0000000000000e000000000800000021010000000000000000000000000000000000000000001a080004000400000002000000000000000000000000000000000000000000001a040002000200000004000000000000000000000000000000000000000000000e00000200000000000002000000000000000000000000000000000000000000070000000000000000040000000000000000000000000000000000000000000004010002000000000000000000000000000000000000000000000000000000000a000000000000000002fc2afa2a000000000000000000000000000000000000040100020001000000000000000000000000000000000000000000000000000007000000000000000000000000000000000000000000000000000000000000000c000002000200000001000000000000000000000000000000000000000000000c000002000200000000000000000000000000000000717b484e0000000000000e000002000000000020000000000000000000000000000000000000000000000c000001000100000001110000000000000000000000000000000000000000000c000001000100000000000000000000000000000000000000000000000000000c000002000200000001040000000000000000000000000000000000000000000c0000020002000000000000000000000000000000000000000000000000000007000000000000000003242c00000000000000000000000000000000000000000c000002000200000001240000000000000000000000000000000000000000000c000002000200000000000000000000000000000000000000000000000000000e000002000000000000000000000000000000000000000000000000000000000c000004000400000001000000000000000000000000000000000000000000000c000004000400000000000000000000000000000000000000000000000000000c000002000200000001200000000000000000000000000000000000000000000c000002000200000000000000000000000000000000000000000000000000000a0000000000000000010f2b0f2b000000000000000000000000000000000000020800000004000000000000000000000000000000000000000000000000000004100000000000000000000000000000000000000000000000000000000000000a00000000000000000a0f2b1b2b000000000000000000000000000000000000180000040008000000000500000000000000000000000000000000000000000008080002000800000000000000000000000000000000000000000000000000000e080000001000000021000000000000000000000000000000000000000000000e0800100000000000000100000000000000000000000000000000000000000002000004000800000000010000000000000000000000000000000000000000000c000010001000000001010000000000000000000000000000000000000000000c0000100010000000000000000000000000000000000000000000000000000004080004000000000000000000000000000000000000000000000000000000000a0000000000000000020c2b182b0000000000000000000000000000000000000c000010001000000001000000000000000000000000000000000000000000000c000010001000000000000000000000000000000000000000000000000000000a0000000000000000010c2b0c2b0000000000000000000000000000000000000c000002000200000001ffffffffffffffffffffffffffffffff0000000000000c000002000200000000ffffffffffffffffffffffff000000000000000000000e000000000400000001020000000000000000000000000000000000000000001a040002000200000002000000000000000000000000000000000000000000000c000004000400000001000000000000000000000000000000000000000000000c000004000400000000000000000000000000000000ffffffff0000000000000e000000000800000021010000000000000000000000000000000000000000001a080004000400000002000000000000000000000000000000000000000000001a040002000200000004000000000000000000000000000000000000000000000e0000020000000000000200000000000000000000000000000000000000000007000000000000000004000000000000000000000000000000000000000000000c00000200020000000143faedebc039234a7b832f4ca60a46250000000000000c00000200020000000075029a081b9e5e29cb10c7bab88d060000000000000004010002000000000000000000000000000000000000000000000000000000000a0000000000000000082c2b2a2b000000000000000000000000000000000000060000010001000000001027000000000000000000000000000000000000000007000000000000000000000000000000000000000000000000000000000000000c000002000200000001000000000000000000000000000000000000000000000c000002000200000000000000000000000000000000717b484e0000000000000e000002000000000020000000000000000000000000000000000000000000000c000001000100000001110000000000000000000000000000000000000000000c000001000100000000000000000000000000000000000000000000000000000c000002000200000001040000000000000000000000000000000000000000000c0000020002000000000000000000000000000000000000000000000000000007000000000000000003242c00000000000000000000000000000000000000000c000002000200000001240000000000000000000000000000000000000000000c000002000200000000000000000000000000000000000000000000000000000e000002000000000000000000000000000000000000000000000000000000000c000004000400000001000000000000000000000000000000000000000000000c000004000400000000000000000000000000000000000000000000000000000c000002000200000001200000000000000000000000000000000000000000000c000002000200000000000000000000000000000000000000000000000000000a0000000000000000013f2b3f2b000000000000000000000000000000000000020800000004000000000000000000000000000000000000000000000000000004100000000000000000000000000000000000000000000000000000000000000a00000000000000000a3f2b4b2b000000000000000000000000000000000000180000040008000000000500000000000000000000000000000000000000000008080002000800000000000000000000000000000000000000000000000000000e080000001000000021000000000000000000000000000000000000000000000e0800100000000000000100000000000000000000000000000000000000000002000004000800000000010000000000000000000000000000000000000000000c000010001000000001010000000000000000000000000000000000000000000c0000100010000000000000000000000000000000000000000000000000000004080004000000000000000000000000000000000000000000000000000000000a0000000000000000023c2b482b0000000000000000000000000000000000000c000010001000000001000000000000000000000000000000000000000000000c000010001000000000000000000000000000000000000000000000000000000a0000000000000000013c2b3c2b0000000000000000000000000000000000000c000002000200000001ffffffffffffffffffffffffffffffff0000000000000c000002000200000000ffffffffffffffffffffffff000000000000000000000e000000000400000001020000000000000000000000000000000000000000001a040002000200000002000000000000000000000000000000000000000000000c000004000400000001000000000000000000000000000000000000000000000c000004000400000000000000000000000000000000ffffffff0000000000000e000000000800000021010000000000000000000000000000000000000000001a080004000400000002000000000000000000000000000000000000000000001a040002000200000004000000000000000000000000000000000000000000000e0000020000000000000200000000000000000000000000000000000000000007000000000000000004000000000000000000000000000000000000000000000c0000020002000000011bed3c1a1c5f5a58605d4f534f0f9fae0000000000000c000002000200000000cd4a83703fbf731861c41df32a00000000000000000004010002000000000000000000000000000000000000000000000000000000000a0000000000000000085c2b5a2b0000000000000000000000000000000000000600000100010000000000e1f50500000000000000000000000000000000000007000000000000000000000000000000000000000000000000000000000000000c000002000200000001000000000000000000000000000000000000000000000c000002000200000000000000000000000000000000717b484e0000000000000e000002000000000020000000000000000000000000000000000000000000000c000001000100000001110000000000000000000000000000000000000000000c000001000100000000000000000000000000000000000000000000000000000c000002000200000001040000000000000000000000000000000000000000000c0000020002000000000000000000000000000000000000000000000000000007000000000000000003242c00000000000000000000000000000000000000000c000002000200000001240000000000000000000000000000000000000000000c000002000200000000000000000000000000000000000000000000000000000e000002000000000000000000000000000000000000000000000000000000000c000004000400000001000000000000000000000000000000000000000000000c000004000400000000000000000000000000000000000000000000000000000c000002000200000001200000000000000000000000000000000000000000000c000002000200000000000000000000000000000000000000000000000000000a0000000000000000016f2b6f2b000000000000000000000000000000000000020800000004000000000000000000000000000000000000000000000000000004100000000000000000000000000000000000000000000000000000000000000a00000000000000000a6f2b7b2b000000000000000000000000000000000000180000040008000000000500000000000000000000000000000000000000000008080002000800000000000000000000000000000000000000000000000000000e080000001000000021000000000000000000000000000000000000000000000e0800100000000000000100000000000000000000000000000000000000000002000004000800000000010000000000000000000000000000000000000000000c000010001000000001010000000000000000000000000000000000000000000c0000100010000000000000000000000000000000000000000000000000000004080004000000000000000000000000000000000000000000000000000000000a0000000000000000026c2b782b0000000000000000000000000000000000000c000010001000000001000000000000000000000000000000000000000000000c000010001000000000000000000000000000000000000000000000000000000a0000000000000000016c2b6c2b0000000000000000000000000000000000000c000002000200000001ffffffffffffffffffffffffffffffff0000000000000c000002000200000000ffffffffffffffffffffffff000000000000000000000e000000000400000001020000000000000000000000000000000000000000001a040002000200000002000000000000000000000000000000000000000000000c000004000400000001000000000000000000000000000000000000000000000c000004000400000000000000000000000000000000ffffffff0000000000000e000000000800000021010000000000000000000000000000000000000000001a080004000400000002000000000000000000000000000000000000000000001a040002000200000004000000000000000000000000000000000000000000000e0000020000000000000200000000000000000000000000000000000000000007000000000000000004000000000000000000000000000000000000000000000e0000000000000000e0020000000000000000000000000000000000000000000c000004000400000001000000000000000000000000000000000000000000000c0000040004000000000000000000000000000000000000000000000000000004020000000000000000000000000000000000000000000000000000000000000a000000000000000004962b8b2b00000000000000000000000000000000000004010000000000000000000000000000000000000000000000000000000000000a000000000000000004922b8d2b0000000000000000000000000000000000000c000004000400000001ffffffffffffffffffffffffffffffff0000000000000c000004000400000000ffffffffffffffffffffffffffffffff000000000000080400010004000000000000000000000000000000000000000000000000000004040002000000000000000000000000000000000000000000000000000000000a00000000000000000c922bd12b0000000000000000000000000000000000000602000100040000000000000000000000000000000000000000000000000000080400020002000000000000000000000000000000000000000000000000000004020001000000000000000000000000000000000000000000000000000000000a000000000000000004962b992b00000000000000000000000000000000000002040000000100000000000000000000000000000000000000000000000000000e0000000000000000e10200000000000000000000000000000000000000000007000000000000000000000000000000000000000000000000000000000000000c000001000100000001000000000000000000000000000000000000000000000c000001000100000000000000000000000000000000a079c3080000000000000e000000000200000021020000000000000000000000000000000000000000000e0000020000000000600100000000000000000000000000000000000000000007000000000000000003242c00000000000000000000000000000000000000000e0000000002000000610100000000000000000000000000000000000000000002000002000200000000040000000000000000000000000000000000000000000c000001000100000001200000000000000000000000000000000000000000000c0000010001000000000000000000000000000000000000000000000000000007000000000000000003242c00000000000000000000000000000000000000000e0000000002000000610100000000000000000000000000000000000000000002000002000200000000240000000000000000000000000000000000000000000c000001000100000001140000000000000000000000000000000000000000000c0000010001000000000000000000000000000000000000000000000000000007000000000000000003242c00000000000000000000000000000000000000000e0000000002000000610100000000000000000000000000000000000000000002000002000200000000440000000000000000000000000000000000000000000c000001000100000001000000000000000000000000776f6c660000000000000c0000010001000000007265766f2d6c756d2d6874616d2d736400000000000007000000000000000003242c00000000000000000000000000000000000000000c000002000200000001640000000000000000000000000000000000000000000c000002000200000000000000000000000000000000000000000000000000000e000002000000000000000000000000000000000000000000000000000000000c000002000200000001000000000000000000000000000000000000000000000c000002000200000000000000000000000000000000000000000000000000000e0000020000000000600300000000000000000000000000000000000000000018000002000400000000050000000000000000000000000000000000000000000e000004000000000060020000000000000000000000000000000000000000000e00000000020000006101000000000000000000000000000000000000000000020200040001000000000000000000000000000000000000000000000000000007000000000000000003fc2b00000000000000000000000000000000000000000c000002000200000001200000000000000000000000000000000000000000000c000002000200000000000000000000000000000000000000000000000000000e0000000004000000610200000000000000000000000000000000000000000008040002000200000000000000000000000000000000000000000000000000000e020001000000000000010000000000000000000000000000000000000000000e0000000002000000610300000000000000000000000000000000000000000002000002000200000000010000000000000000000000000000000000000000000c000004000400000001030000000000000000000000000000000000000000000c0000040004000000000000000000000000000000000000000000000000000004020004000000000000000000000000000000000000000000000000000000000a000000000000000002b22bc32b0000000000000000000000000000000000000e00000000020000006101000000000000000000000000000000000000000000020000020001000000006000000000000000000000000000000000000000000007000000000000000003fc2b00000000000000000000000000000000000000000c000002000200000001ffffffffffffffffffffffffffffffff0000000000000c000002000200000000ffffffffffffffffffffffff000000000000000000000e000000000400000001040000000000000000000000000000000000000000001a040002000200000002000000000000000000000000000000000000000000000c000004000400000001000000000000000000000000000000000000000000000c000004000400000000000000000000000000000000ffffffff0000000000001a010004000400000002000000000000000000000000000000000000000000001a040002000200000004000000000000000000000000000000000000000000000e000002000000000000040000000000000000000000000000000000000000000e0000000000000000e10200000000000000000000000000000000000000000007000000000000000004000000000000000000000000000000000000000000000c000002000200000001000000000000000000000000000000000000000000000c000002000200000000000000000000000000000000717b484e0000000000000e000002000000000020000000000000000000000000000000000000000000000c000001000100000001110000000000000000000000000000000000000000000c000001000100000000000000000000000000000000000000000000000000000c000002000200000001040000000000000000000000000000000000000000000c0000020002000000000000000000000000000000000000000000000000000007000000000000000003242c00000000000000000000000000000000000000000c000002000200000001240000000000000000000000000000000000000000000c000002000200000000000000000000000000000000000000000000000000000e000002000000000000000000000000000000000000000000000000000000000c000004000400000001000000000000000000000000000000000000000000000c000004000400000000000000000000000000000000000000000000000000000c000002000200000001200000000000000000000000000000000000000000000c000002000200000000000000000000000000000000000000000000000000000a000000000000000001e42be42b000000000000000000000000000000000000020800000004000000000000000000000000000000000000000000000000000004100000000000000000000000000000000000000000000000000000000000000a00000000000000000ae42bf02b000000000000000000000000000000000000180000040008000000000500000000000000000000000000000000000000000008080002000800000000000000000000000000000000000000000000000000000e080000001000000021000000000000000000000000000000000000000000000e0800100000000000000100000000000000000000000000000000000000000002000004000800000000010000000000000000000000000000000000000000000c000010001000000001010000000000000000000000000000000000000000000c0000100010000000000000000000000000000000000000000000000000000004080004000000000000000000000000000000000000000000000000000000000a000000000000000002e12bed2b0000000000000000000000000000000000000c000010001000000001000000000000000000000000000000000000000000000c000010001000000000000000000000000000000000000000000000000000000a000000000000000001e12be12b0000000000000000000000000000000000000c000002000200000001ffffffffffffffffffffffffffffffff0000000000000c000002000200000000ffffffffffffffffffffffff000000000000000000000e000000000400000001020000000000000000000000000000000000000000001a040002000200000002000000000000000000000000000000000000000000000c000004000400000001000000000000000000000000000000000000000000000c000004000400000000000000000000000000000000ffffffff0000000000000e000000000800000021010000000000000000000000000000000000000000001a080004000400000002000000000000000000000000000000000000000000001a040002000200000004000000000000000000000000000000000000000000000e000002000000000000020000000000000000000000000000000000000000000e0000000000000000e10200000000000000000000000000000000000000000007000000000000000004000000000000000000000000000000000000000000000c000002000200000001e0ffffffffffffffffffffffffffffff0000000000000c000002000200000000ffffffffffffffffffffffffffffffff0000000000001a010002000200000002000000000000000000000000000000000000000000000c000004000400000001200000000000000000000000000000000000000000000c0000040004000000000000000000000000000000000000000000000000000008020004000400000000000000000000000000000000000000000000000000001a0000010002000000021f00000000000000000000000000000000000000000018000002000800000000030000000000000000000000000000000000000000000e0400000002000000210000000000000000000000000000000000000000000004080000000000000000000000000000000000000000000000000000000000000a0000000000000000040e2c072c0000000000000000000000000000000000000c000010001000000001000100000000000000000000000000000000000000000c0000100010000000000000000000000000000000000000000000000000000004100008001000000000000000000000000000000000000000000000000000000e04000000040000002101000000000000000000000000000000000000000000181000040004000000020000000000000000000000000000000000000000000018080002000200000000000000000000000000000000000000000000000000001a04000200020000000400000000000000000000000000000000000000000000020200000001000000000000000000000000000000000000000000000000000007000000000000000000000000000000000000000000000000000000000000000c000002000200000001e0ffffffffffffffffffffffffffffff0000000000000c000002000200000000ffffffffffffffffffffffffffffffff0000000000001a010002000200000002000000000000000000000000000000000000000000000c000004000400000001200000000000000000000000000000000000000000000c0000040004000000000000000000000000000000000000000000000000000008020004000400000000000000000000000000000000000000000000000000001a0000010002000000021f00000000000000000000000000000000000000000018000002000800000000030000000000000000000000000000000000000000000e0400000002000000010000000000000000000000000000000000000000000004080000000000000000000000000000000000000000000000000000000000000a000000000000000004222c1b2c0000000000000000000000000000000000000c000010001000000001000100000000000000000000000000000000000000000c0000100010000000000000000000000000000000000000000000000000000004100008001000000000000000000000000000000000000000000000000000000e04000000040000000101000000000000000000000000000000000000000000181000040004000000020000000000000000000000000000000000000000000018080002000200000000000000000000000000000000000000000000000000001a04000200020000000400000000000000000000000000000000000000000000020200000001000000000000000000000000000000000000000000000000000007000000000000000000000000000000000000000000000000000000000000000c000004000400000001e0ffffffffffffffffffffffffffffff0000000000000c000004000400000000ffffffffffffffffffffffffffffffff0000000000001a020004000400000002000000000000000000000000000000000000000000000c000008000800000001200000000000000000000000000000000000000000000c0000080008000000000000000000000000000000000000000000000000000008040008000400000000000000000000000000000000000000000000000000001a0000020002000000021f00000000000000000000000000000000000000000018000002000200000000030000000000000000000000000000000000000000000c000008000800000001000100000000000000000000000000000000000000000c0000080008000000000000000000000000000000000000000000000000000004080002001000000000000000000000000000000000000000000000000000000c000020002000000001ffffffffffffffffffffffffffffffff0000000000000c000020002000000000ffffffffffffffffffffffffffffffff000000000000020100000008000000000000000000000000000000000000000000000000000004020000000000000000000000000000000000000000000000000000000000000a000000000000000004392c342c00000000000000000000000000000000000018100020000800000000000000000000000000000000000000000000000000000e040000004000000021000000000000000000000000000000000000000000001a4000080008000000020000000000000000000000000000000000000000000018020001004000000002000000000000000000000000000000000000000000001a400008000800000004000000000000000000000000000000000000000000000e0400000040000000210100000000000000000000000000000000000000000004020000000000000000000000000000000000000000000000000000000000000a000000000000000004402c3c2c000000000000000000000000000000000000181000010010000000000000000000000000000000000000000000000000000018020020000200000002000000000000000000000000000000000000000000001a400002000200000002000000000000000000000000000000000000000000001a100002004000000004000000000000000000000000000000000000000000000e040040000000000020010000000000000000000000000000000000000000000e04000800000000002000000000000000000000000000000000000000000000070000000000000000000000000000000000000000000000000000000000000007010000000000000005000000000000000000000000000000000000000000000a000000000000000002452c482c0000000000000000000000000000000000000c000001000100000001000000000000000000000000000000000000000000000c0000010001000000000000000000000000000000000000000000000000000007000000000000000000000000000000000000000000000000000000000000000c000001000100000001010000000000000000000000000000000000000000000c00000100010000000000000000000000000000000000000000000000000000070000000000000000000000000000000000000000000000000000000000000007010000000000000001000000000000000000000000000000000000000000000a0000000000000000024d2c502c0000000000000000000000000000000000000c000001000100000001000000000000000000000000000000000000000000000c0000010001000000000000000000000000000000000000000000000000000007000000000000000000000000000000000000000000000000000000000000000c000001000100000001010000000000000000000000000000000000000000000c000001000100000000000000000000000000000000000000000000000000000700000000000000000000000000000000000000000000000000000000000000"
        }
      },
      "factoryDependencies": {},
      "hash": "ca7a8393cd26dfcfc298537679e852e22ad8082bf550813c126e3e7aeacb8d04"
    }
  }
}