{
  "contracts/DXswapFeeReceiver.sol": {
    "DXswapFeeReceiver": {
      "abi": [
        {
          "inputs": [
            {
              "internalType": "address",
              "name": "_owner",
              "type": "address"
            },
            {
              "internalType": "address",
              "name": "_factory",
              "type": "address"
            },
            {
              "internalType": "address",
              "name": "_WETH",
              "type": "address"
            },
            {
              "internalType": "address",
              "name": "_ethReceiver",
              "type": "address"
            },
            {
              "internalType": "address",
              "name": "_fallbackReceiver",
              "type": "address"
            }
          ],
          "stateMutability": "nonpayable",
          "type": "constructor"
        },
        {
          "stateMutability": "payable",
          "type": "fallback"
        },
        {
          "inputs": [],
          "name": "WETH",
          "outputs": [
            {
              "internalType": "address",
              "name": "",
              "type": "address"
            }
          ],
          "stateMutability": "view",
          "type": "function"
        },
        {
          "inputs": [
            {
              "internalType": "address",
              "name": "_ethReceiver",
              "type": "address"
            },
            {
              "internalType": "address",
              "name": "_fallbackReceiver",
              "type": "address"
            }
          ],
          "name": "changeReceivers",
          "outputs": [],
          "stateMutability": "nonpayable",
          "type": "function"
        },
        {
          "inputs": [],
          "name": "ethReceiver",
          "outputs": [
            {
              "internalType": "address",
              "name": "",
              "type": "address"
            }
          ],
          "stateMutability": "view",
          "type": "function"
        },
        {
          "inputs": [],
          "name": "factory",
          "outputs": [
            {
              "internalType": "contract IDXswapFactory",
              "name": "",
              "type": "address"
            }
          ],
          "stateMutability": "view",
          "type": "function"
        },
        {
          "inputs": [],
          "name": "fallbackReceiver",
          "outputs": [
            {
              "internalType": "address",
              "name": "",
              "type": "address"
            }
          ],
          "stateMutability": "view",
          "type": "function"
        },
        {
          "inputs": [],
          "name": "owner",
          "outputs": [
            {
              "internalType": "address",
              "name": "",
              "type": "address"
            }
          ],
          "stateMutability": "view",
          "type": "function"
        },
        {
          "inputs": [
            {
              "internalType": "contract IDXswapPair[]",
              "name": "pairs",
              "type": "address[]"
            }
          ],
          "name": "takeProtocolFee",
          "outputs": [],
          "stateMutability": "nonpayable",
          "type": "function"
        },
        {
          "inputs": [
            {
              "internalType": "address",
              "name": "newOwner",
              "type": "address"
            }
          ],
          "name": "transferOwnership",
          "outputs": [],
          "stateMutability": "nonpayable",
          "type": "function"
        }
      ],
      "evm": {
        "bytecode": {
          "object": "0c0000040004000000010000000000000000ffffffffffffffff0000000000000c000004000400000000ffffffffffffffffffffffffffffffff0000000000000e000000000200000001000000000000000000000000000000000000000000001a020004000800000002000000000000000000000000000000000000000000000c000010001000000001000000000000000001000000000000000000000000000c000010001000000000000000000000000000000000000000000000000000000c000020002000000001010000000000000000000000000000000000000000000c000020002000000000000000000000000000000000000000000000000000000c000004000400000001010000000000000000000000000000000000000000000c0000040004000000000000000000000000000000000000000000000000000004080010000000000000000000000000000000000000000000000000000000000a0000000000000000040e000c000000000000000000000000000000000000000c000004000400000001000000000000000000000000000000000000000000000c000004000400000000000000000000000000000000000000000000000000000c0000100010000000017c7ee91ae51bb0ed9b9e413333bf74f70000000000000c000010001000000000b75ee1170f6b7c3ce4583c65d82198c400000000000005100000004000000001000000000000000000000000000000000000000000000c000010001000000001010000000000000000000000000000000000000000000c0000100010000000000000000000000000000000000000000000000000000004400000000000000000000000000000000000000000000000000000000000000a000000000000000004170015000000000000000000000000000000000000000c000010001000000001000000000000000000000000000000000000000000000c0000100010000000000000000000000000000000000000000000000000000004400020000000000000000000000000000000000000000000000000000000000a00000000000000000419001f000000000000000000000000000000000000000c000020002000000001000000000000000000000000000000000000000000000c00002000200000000000000000000000000000000083bbcae30000000000000c000080008000000001000000000000000001000000000000000000000000000c0000800080000000000000000000000000000000000000000000000000000004080080000000000000000000000000000000000000000000000000000000000a00000000000000000427001f0000000000000000000000000000000000000004400000000000000000000000000000000000000000000000000000000000000a000000000000000004210031000000000000000000000000000000000000000c000020002000000001000000000000000000000000000000000000000000000c000020002000000000000000000000000000000000c9a6bc8e0000000000000c000008000800000001000000000000000001000000000000000000000000000c0000080008000000000000000000000000000000000000000000000000000004020008000000000000000000000000000000000000000000000000000000000a000000000000000002270031000000000000000000000000000000000000000c000002000200000001040000000000000000000000000000000000000000000c000002000200000000000000000000000000000000000000000000000000000e000002000000000000000000000000000000000000000000000000000000000e000020000000000000010000000000000000000000000000000000000000000c000002000200000001010000000000000000000000000000000000000000000c000002000200000000000000000000000000000000000000000000000000000e0000000004000000210300000000000000000000000000000000000000000004040002000000000000000000000000000000000000000000000000000000000a0000000000000000043000470000000000000000000000000000000000000007000000000000000000000000000000000000000000000000000000000000001a100004000200000002000000000000000000000000000000000000000000001a000002000200000002010000000000000000000000000000000000000000000c000004000400000001010000000000000000000000000000000000000000000c0000040004000000000000000000000000000000000000000000000000000004020004000000000000000000000000000000000000000000000000000000000a00000000000000000437003f0000000000000000000000000000000000000007000000000000000003480000000000000000000000000000000000000000000a000000000000000002410039000000000000000000000000000000000000000c0000020002000000017c7ee91ae51bb0ed9b9e413333bf74f70000000000000c000002000200000000b75ee1170f6b7c3ce4583c65d82198c40000000000000c000004000400000001010000000000000000000000000000000000000000000c0000040004000000000000000000000000000000000000000000000000000005020004000000000000000000000000000000000000000000000000000000000a0000000000000000013000300000000000000000000000000000000000000007000000000000000003cd0000000000000000000000000000000000000000000a000000000000000002410030000000000000000000000000000000000000000c000002000200000001010000000000000000000000000000000000000000000c000002000200000000000000000000000000000000000000000000000000000e0000000004000000210300000000000000000000000000000000000000000004040002000000000000000000000000000000000000000000000000000000000a00000000000000000430004600000000000000000000000000000000000000070000000000000000040000000000000000000000000000000000000000000007000000000000000004000000000000000000000000000000000000000000000c000002000200000001800000000000000000000000000000000000000000000c000002000200000000000000000000000000000000000000000000000000000e000002000000000020020000000000000000000000000000000000000000000e000000000400000001000000000000000000000000000000000000000000001a000004000200000002ffffffff000000000000000000000000000000000000020000020008000000001f0000000000000000000000000000000000000000001a000008000800000002e0ffffff01000000000000000000000000000000000002000008000800000000800000000000000000000000000000000000000000000e000008000000000020020000000000000000000000000000000000000000000c000010001000000001000000000000000000000000000000000000000000000c000010001000000000000000000000000000000000000000000000000000001a0000040008000000021f000000000000000000000000000000000000000000180000020020000000020500000000000000000000000000000000000000000004200000000000000000000000000000000000000000000000000000000000000a0000000000000000046000570000000000000000000000000000000000000018000010004000000000050000000000000000000000000000000000000000000c000080008000000001200000000000000000000000000000000000000000000c0000800080000000000000000000000000000000000000000000000000000008400080004000000000000000000000000000000000000000000000000000000e400000008000000001010000000000000000000000000000000000000000000e40008000000000002004000000000000000000000000000000000000000000020000100010000000000100000000000000000000000000000000000000000004100020000000000000000000000000000000000000000000000000000000000a0000000000000000025700600000000000000000000000000000000000000004080000000000000000000000000000000000000000000000000000000000000a000000000000000004740062000000000000000000000000000000000000001a000004000400000002e0ffffff0000000000000000000000000000000000000c000010001000000001200000000000000000000000000000000000000000000c00001000100000000000000000000000000000000000000000000000000000080400100004000000000000000000000000000000000000000000000000000018000008000800000000030000000000000000000000000000000000000000000c000010001000000001ffffffffffffffffffffffffffffffff0000000000000c000010001000000000ffffffffffffffffffffffffffffffff00000000000018080010002000000002000000000000000000000000000000000000000000000e040000004000000021040000000000000000000000000000000000000000001a400020002000000002000000000000000000000000000000000000000000000c000040004000000001000100000000000000000000000000000000000000000c00004000400000000000000000000000000000000000000000000000000000044000080008000000000000000000000000000000000000000000000000000018080010000800000000000000000000000000000000000000000000000000000e040000001000000001010000000000000000000000000000000000000000001a100008000800000002000000000000000000000000000000000000000000001a080020000800000004000000000000000000000000000000000000000000000e040008000000000020040000000000000000000000000000000000000000000c000004000400000001a00000000000000000000000000000000000000000000c0000040004000000000000000000000000000000000000000000000000000004020004000000000000000000000000000000000000000000000000000000000a00000000000000000c7800b5000000000000000000000000000000000000000e000000002000000021040000000000000000000000000000000000000000000c000002000200000001ffffffffffffffffffffffffffffffff0000000000000c000002000200000000ffffffff00000000000000000000000000000000000004200002000000000000000000000000000000000000000000000000000000000a0000000000000000067d00b9000000000000000000000000000000000000000e0000000010000000210500000000000000000000000000000000000000000004100002000000000000000000000000000000000000000000000000000000000a0000000000000000068000bd000000000000000000000000000000000000000e000000000800000021060000000000000000000000000000000000000000000c000002000200000001ffffffffffffffffffffffffffffffff0000000000000c000002000200000000ffffffff00000000000000000000000000000000000004080002000000000000000000000000000000000000000000000000000000000a0000000000000000068500c1000000000000000000000000000000000000000e0000000004000000210700000000000000000000000000000000000000000004040002000000000000000000000000000000000000000000000000000000000a0000000000000000068800c5000000000000000000000000000000000000000e000000000200000021080000000000000000000000000000000000000000000c000040004000000001ffffffffffffffffffffffffffffffff0000000000000c000040004000000000ffffffff00000000000000000000000000000000000004020040000000000000000000000000000000000000000000000000000000000a0000000000000000068d00c9000000000000000000000000000000000000000c000080008000000001000000000000000000000000000000000000000000000c0000800080000000000000000000000000000000000000000000000000000005800000000001000001000000000000000000000000000000000000000000000c000040004000000001000000000000000000000000000000000000000000000c00004000400000000000000000ffffffffffffffffffffffff0000000000001a000140000001000002000000000000000000000000000000000000000000001a0001200020000000040000000000000000000000000000000000000000000005800020000000000000000000000000000000000000000000000000000000000c000020002000000001010000000000000000000000000000000000000000000c0000200020000000000000000000000000000000000000000000000000000005200000008000000001000000000000000000000000000000000000000000001a800040004000000002000000000000000000000000000000000000000000001a4000100010000000040000000000000000000000000000000000000000000005200010000000000000000000000000000000000000000000000000000000000c000020002000000001020000000000000000000000000000000000000000000c0000200020000000000000000000000000000000000000000000000000000005200000004000000001000000000000000000000000000000000000000000000c000010001000000001000000000000000000000000000000000000000000000c00001000100000000000000000ffffffffffffffffffffffff0000000000001a400010004000000002000000000000000000000000000000000000000000001a4000080008000000040000000000000000000000000000000000000000000005200008000000000000000000000000000000000000000000000000000000000c000008000800000001030000000000000000000000000000000000000000000c0000080008000000000000000000000000000000000000000000000000000005080000002000000001000000000000000000000000000000000000000000001a200010001000000002000000000000000000000000000000000000000000001a1000040004000000040000000000000000000000000000000000000000000005080004000000000000000000000000000000000000000000000000000000000c000004000400000001040000000000000000000000000000000000000000000c0000040004000000000000000000000000000000000000000000000000000005040000000800000001000000000000000000000000000000000000000000000c000010001000000001000000000000000000000000000000000000000000000c00001000100000000000000000ffffffffffffffffffffffff0000000000001a080010000800000002000000000000000000000000000000000000000000001a0800020002000000040000000000000000000000000000000000000000000005040002000000000000000000000000000000000000000000000000000000000c000002000200000001000000000000000000000000000000000000000000000c000002000200000000000000000000000000000000000000000000000000000e0000020000000000000000000000000000000000000000000000000000000007000000000000000000000000000000000000000000000000000000000000000c000002000200000001000000000000000000000000000000000000000000000c000002000200000000000000000000000000000000000000000000000000000e0000020000000000000000000000000000000000000000000000000000000007000000000000000004000000000000000000000000000000000000000000000c000002000200000001000000000000000000000000000000000000000000000c000002000200000000000000000000000000000000000000000000000000000e000002000000000000000000000000000000000000000000000000000000000a000000000000000001cc00cc000000000000000000000000000000000000000c000002000200000001000000000000000000000000000000000000000000000c000002000200000000000000000000000000000000000000000000000000000e000002000000000000000000000000000000000000000000000000000000000a000000000000000001cc00cc000000000000000000000000000000000000000c000002000200000001000000000000000000000000000000000000000000000c000002000200000000000000000000000000000000000000000000000000000e000002000000000000000000000000000000000000000000000000000000000a000000000000000001cc00cc000000000000000000000000000000000000000c000002000200000001000000000000000000000000000000000000000000000c000002000200000000000000000000000000000000000000000000000000000e000002000000000000000000000000000000000000000000000000000000000a000000000000000001cc00cc000000000000000000000000000000000000000c000002000200000001000000000000000000000000000000000000000000000c000002000200000000000000000000000000000000000000000000000000000e0000020000000000000000000000000000000000000000000000000000000007000000000000000004000000000000000000000000000000000000000000000e0000000000000000e0050000000000000000000000000000000000000000000c000002000200000001800000000000000000000000000000000000000000000c000002000200000000000000000000000000000000000000000000000000000e000002000000000020020000000000000000000000000000000000000000000e000000000200000001000000000000000000000000000000000000000000001a000002000400000002fcffffff00000000000000000000000000000000000004040000000000000000000000000000000000000000000000000000000000000a000000000000000004db01d5000000000000000000000000000000000000001a000002000200000002ffffffff0000000000000000000000000000000000000c000004000400000001000000000000000000000000000000000000000000000c000004000400000000000000000000000000000000ffffffff0000000000000e000000000800000001010000000000000000000000000000000000000000001a080004000400000002000000000000000000000000000000000000000000000c000008000800000001000000000000000000000000000000000000000000000c000008000800000000000000000000000000000000ecc4b95c00000000000004040008000000000000000000000000000000000000000000000000000000000a000000000000000004de00f6000000000000000000000000000000000000000c000004000400000001000000000000000000000000000000000000000000000c000004000400000000000000000000000000000000000000000000000000000e000004000000000060060000000000000000000000000000000000000000000e000004000000000060050000000000000000000000000000000000000000000c000000000400000001800000000000000000000000000000000000000000000e00000400000000006002000000000000000000000000000000000000000000020400000001000000000000000000000000000000000000000000000000000007000000000000000003e20100000000000000000000000000000000000000000a000000000000000002e700e8000000000000000000000000000000000000000a000000000000000001e001e0010000000000000000000000000000000000000e0000000002000000610200000000000000000000000000000000000000000002000002000200000000200000000000000000000000000000000000000000000c000004000400000001200000000000000000000000000000000000000000000c0000040004000000000000000000000000000000000000000000000000000008020004000200000000000000000000000000000000000000000000000000000e020000000200000061010000000000000000000000000000000000000000000e0000000001000000610500000000000000000000000000000000000000000007000000000000000003350300000000000000000000000000000000000000000a000000000000000002f100f2000000000000000000000000000000000000000a000000000000000001e001e0010000000000000000000000000000000000000c000002000200000001000000000000000000000000000000000000000000000c000002000200000000000000000000000000000000000000000000000000000e000002000000000000000000000000000000000000000000000000000000000a000000000000000001de01de010000000000000000000000000000000000000c000008000800000001000000000000000000000000000000000000000000000c0000080008000000000000000000000000000000005bcba58d00000000000004040008000000000000000000000000000000000000000000000000000000000a000000000000000004fa0014010000000000000000000000000000000000000c000004000400000001000000000000000000000000000000000000000000000c0000040004000000000000000000000000000000000000000000000000000005040000000200000001000000000000000000000000000000000000000000000c000008000800000001ffffffffffffffffffffffffffffffff0000000000000c000008000800000000ffffffff0000000000000000000000000000000000001a020008000200000002000000000000000000000000000000000000000000000e000002000000000020040000000000000000000000000000000000000000000c000002000200000001200000000000000000000000000000000000000000000c000002000200000000000000000000000000000000000000000000000000000e000002000000000000000000000000000000000000000000000000000000000a00000000000000000108010801000000000000000000000000000000000000020800000004000000000000000000000000000000000000000000000000000004100000000000000000000000000000000000000000000000000000000000000a00000000000000000a0801de01000000000000000000000000000000000000180000040008000000000500000000000000000000000000000000000000000008080002000800000000000000000000000000000000000000000000000000000e080000001000000021040000000000000000000000000000000000000000000e0800100000000000000100000000000000000000000000000000000000000002000004000800000000010000000000000000000000000000000000000000000c000010001000000001010000000000000000000000000000000000000000000c0000100010000000000000000000000000000000000000000000000000000004080004000000000000000000000000000000000000000000000000000000000a000000000000000002050111010000000000000000000000000000000000000c000010001000000001000000000000000000000000000000000000000000000c000010001000000000000000000000000000000000000000000000000000000a000000000000000001050105010000000000000000000000000000000000000c000008000800000001000000000000000000000000000000000000000000000c00000800080000000000000000000000000000000048465cad00000000000004040008000000000000000000000000000000000000000000000000000000000a000000000000000004180134010000000000000000000000000000000000000c000002000200000001020000000000000000000000000000000000000000000c0000020002000000000000000000000000000000000000000000000000000005020000000200000001000000000000000000000000000000000000000000000c000004000400000001ffffffffffffffffffffffffffffffff0000000000000c000004000400000000ffffffff0000000000000000000000000000000000001a020004000200000002000000000000000000000000000000000000000000000e000002000000000020040000000000000000000000000000000000000000000c000002000200000001200000000000000000000000000000000000000000000c000002000200000000000000000000000000000000000000000000000000000e000002000000000000000000000000000000000000000000000000000000000c000004000400000001000000000000000000000000000000000000000000000c000004000400000000000000000000000000000000000000000000000000000a00000000000000000128012801000000000000000000000000000000000000020800000004000000000000000000000000000000000000000000000000000004100000000000000000000000000000000000000000000000000000000000000a00000000000000000a2801de01000000000000000000000000000000000000180000040008000000000500000000000000000000000000000000000000000008080002000800000000000000000000000000000000000000000000000000000e080000001000000021040000000000000000000000000000000000000000000e0800100000000000000100000000000000000000000000000000000000000002000004000800000000010000000000000000000000000000000000000000000c000010001000000001010000000000000000000000000000000000000000000c0000100010000000000000000000000000000000000000000000000000000004080004000000000000000000000000000000000000000000000000000000000a000000000000000002250131010000000000000000000000000000000000000c000010001000000001000000000000000000000000000000000000000000000c000010001000000000000000000000000000000000000000000000000000000a000000000000000001250125010000000000000000000000000000000000000c000008000800000001000000000000000000000000000000000000000000000c000008000800000000000000000000000000000000728488b900000000000004040008000000000000000000000000000000000000000000000000000000000a000000000000000004380154010000000000000000000000000000000000000c000002000200000001030000000000000000000000000000000000000000000c0000020002000000000000000000000000000000000000000000000000000005020000000200000001000000000000000000000000000000000000000000000c000004000400000001ffffffffffffffffffffffffffffffff0000000000000c000004000400000000ffffffff0000000000000000000000000000000000001a020004000200000002000000000000000000000000000000000000000000000e000002000000000020040000000000000000000000000000000000000000000c000002000200000001200000000000000000000000000000000000000000000c000002000200000000000000000000000000000000000000000000000000000e000002000000000000000000000000000000000000000000000000000000000c000004000400000001000000000000000000000000000000000000000000000c000004000400000000000000000000000000000000000000000000000000000a00000000000000000148014801000000000000000000000000000000000000020800000004000000000000000000000000000000000000000000000000000004100000000000000000000000000000000000000000000000000000000000000a00000000000000000a4801de01000000000000000000000000000000000000180000040008000000000500000000000000000000000000000000000000000008080002000800000000000000000000000000000000000000000000000000000e080000001000000021040000000000000000000000000000000000000000000e0800100000000000000100000000000000000000000000000000000000000002000004000800000000010000000000000000000000000000000000000000000c000010001000000001010000000000000000000000000000000000000000000c0000100010000000000000000000000000000000000000000000000000000004080004000000000000000000000000000000000000000000000000000000000a000000000000000002450151010000000000000000000000000000000000000c000010001000000001000000000000000000000000000000000000000000000c000010001000000000000000000000000000000000000000000000000000000a000000000000000001450145010000000000000000000000000000000000000c000008000800000001000000000000000000000000000000000000000000000c0000080008000000000000000000000000000000001d38f4c100000000000004040008000000000000000000000000000000000000000000000000000000000a000000000000000004580170010000000000000000000000000000000000000c000004000400000001000000000000000000000000000000000000000000000c000004000400000000000000000000000000000000000000000000000000000e000004000000000060040000000000000000000000000000000000000000000e000004000000000060030000000000000000000000000000000000000000000c000000000400000001400000000000000000000000000000000000000000000e000004000000000060020000000000000000000000000000000000000000000204000000010000000000000000000000000000000000000000000000000000070000000000000000033b0200000000000000000000000000000000000000000a000000000000000002610162010000000000000000000000000000000000000a000000000000000001e001e0010000000000000000000000000000000000000e0000000002000000610200000000000000000000000000000000000000000002000002000200000000200000000000000000000000000000000000000000000c000004000400000001200000000000000000000000000000000000000000000c0000040004000000000000000000000000000000000000000000000000000008020004000200000000000000000000000000000000000000000000000000000e020000000200000061010000000000000000000000000000000000000000000e0000000001000000610300000000000000000000000000000000000000000007000000000000000003e50200000000000000000000000000000000000000000a0000000000000000026b016c010000000000000000000000000000000000000a000000000000000001e001e0010000000000000000000000000000000000000c000002000200000001000000000000000000000000000000000000000000000c000002000200000000000000000000000000000000000000000000000000000e000002000000000000000000000000000000000000000000000000000000000a000000000000000001de01de010000000000000000000000000000000000000c000008000800000001000000000000000000000000000000000000000000000c00000800080000000000000000000000000000000055015ac400000000000004040008000000000000000000000000000000000000000000000000000000000a000000000000000004740190010000000000000000000000000000000000000c000002000200000001010000000000000000000000000000000000000000000c0000020002000000000000000000000000000000000000000000000000000005020000000200000001000000000000000000000000000000000000000000000c000004000400000001ffffffffffffffffffffffffffffffff0000000000000c000004000400000000ffffffff0000000000000000000000000000000000001a020004000200000002000000000000000000000000000000000000000000000e000002000000000020040000000000000000000000000000000000000000000c000002000200000001200000000000000000000000000000000000000000000c000002000200000000000000000000000000000000000000000000000000000e000002000000000000000000000000000000000000000000000000000000000c000004000400000001000000000000000000000000000000000000000000000c000004000400000000000000000000000000000000000000000000000000000a00000000000000000184018401000000000000000000000000000000000000020800000004000000000000000000000000000000000000000000000000000004100000000000000000000000000000000000000000000000000000000000000a00000000000000000a8401de01000000000000000000000000000000000000180000040008000000000500000000000000000000000000000000000000000008080002000800000000000000000000000000000000000000000000000000000e080000001000000021040000000000000000000000000000000000000000000e0800100000000000000100000000000000000000000000000000000000000002000004000800000000010000000000000000000000000000000000000000000c000010001000000001010000000000000000000000000000000000000000000c0000100010000000000000000000000000000000000000000000000000000004080004000000000000000000000000000000000000000000000000000000000a00000000000000000281018d010000000000000000000000000000000000000c000010001000000001000000000000000000000000000000000000000000000c000010001000000000000000000000000000000000000000000000000000000a000000000000000001810181010000000000000000000000000000000000000c000008000800000001000000000000000000000000000000000000000000000c000008000800000000000000000000000000000000219526f200000000000004040008000000000000000000000000000000000000000000000000000000000a0000000000000000049401b0010000000000000000000000000000000000000c000002000200000001040000000000000000000000000000000000000000000c0000020002000000000000000000000000000000000000000000000000000005020000000200000001000000000000000000000000000000000000000000000c000004000400000001ffffffffffffffffffffffffffffffff0000000000000c000004000400000000ffffffff0000000000000000000000000000000000001a020004000200000002000000000000000000000000000000000000000000000e000002000000000020040000000000000000000000000000000000000000000c000002000200000001200000000000000000000000000000000000000000000c000002000200000000000000000000000000000000000000000000000000000e000002000000000000000000000000000000000000000000000000000000000c000004000400000001000000000000000000000000000000000000000000000c000004000400000000000000000000000000000000000000000000000000000a000000000000000001a401a401000000000000000000000000000000000000020800000004000000000000000000000000000000000000000000000000000004100000000000000000000000000000000000000000000000000000000000000a00000000000000000aa401de01000000000000000000000000000000000000180000040008000000000500000000000000000000000000000000000000000008080002000800000000000000000000000000000000000000000000000000000e080000001000000021040000000000000000000000000000000000000000000e0800100000000000000100000000000000000000000000000000000000000002000004000800000000010000000000000000000000000000000000000000000c000010001000000001010000000000000000000000000000000000000000000c0000100010000000000000000000000000000000000000000000000000000004080004000000000000000000000000000000000000000000000000000000000a000000000000000002a101ad010000000000000000000000000000000000000c000010001000000001000000000000000000000000000000000000000000000c000010001000000000000000000000000000000000000000000000000000000a000000000000000001a101a1010000000000000000000000000000000000000c000008000800000001000000000000000000000000000000000000000000000c0000080008000000000000000000000000000000008be3fdf200000000000004040008000000000000000000000000000000000000000000000000000000000a000000000000000004b401db010000000000000000000000000000000000000202000000010000000000000000000000000000000000000000000000000000070000000000000000037f0200000000000000000000000000000000000000000a000000000000000002b701b90100000000000000000000000000000000000002010000000200000000000000000000000000000000000000000000000000000a000000000000000001e001e00100000000000000000000000000000000000002010000000200000000000000000000000000000000000000000000000000000e000002000000000060020000000000000000000000000000000000000000000c000002000200000001000000000000000000000000000000000000000000000c0000020002000000000000000000000000000000000000000000000000000005020000000400000001000000000000000000000000000000000000000000000c000002000200000001ffffffffffffffffffffffffffffffff0000000000000c000002000200000000ffffffff0000000000000000000000000000000000000e000004000000000060010000000000000000000000000000000000000000001a0400020004000000020000000000000000000000000000000000000000000014000000000800000000000000000000000000000000000000000000000000000c000002000200000001010000000000000000000000000000000000000000000c0000020002000000000000000000000000000000000000000000000000000004080004000000000000000000000000000000000000000000000000000000000a000000000000000004c901c7010000000000000000000000000000000000000c000002000200000001000000000000000000000000000000000000000000000c000002000200000000000000000000000000000000000000000000000000001a0000020001000000020100000000000000000000000000000000000000000007000000000000000003a80200000000000000000000000000000000000000000a000000000000000002cc01cd010000000000000000000000000000000000000a000000000000000001e001e0010000000000000000000000000000000000000c000002000200000001ffffffffffffffffffffffffffffffff0000000000000c000002000200000000ffffffff0000000000000000000000000000000000000e000000000400000061020000000000000000000000000000000000000000001a040002000200000002000000000000000000000000000000000000000000000c000004000400000001000000000000000000000000000000000000000000000c00000400040000000000000000ffffffffffffffffffffffff0000000000000e000000000800000061010000000000000000000000000000000000000000001a080004000400000002000000000000000000000000000000000000000000001a040002000400000004000000000000000000000000000000000000000000000c000002000200000001000000000000000000000000000000000000000000000c0000020002000000000000000000000000000000000000000000000000000005020004000000000000000000000000000000000000000000000000000000000e000002000000000000000000000000000000000000000000000000000000000a000000000000000001de01de010000000000000000000000000000000000000c000002000200000001000000000000000000000000000000000000000000000c000002000200000000000000000000000000000000000000000000000000000e000002000000000000000000000000000000000000000000000000000000000e0000000000000000e10500000000000000000000000000000000000000000007000000000000000000000000000000000000000000000000000000000000000e0000000000000000e10500000000000000000000000000000000000000000007000000000000000004000000000000000000000000000000000000000000000e0000000000000000e0020000000000000000000000000000000000000000000c000004000400000001fcffffffffffffffffffffffffffffff0000000000000c000004000400000000ffffffffffffffffffffffffffffffff0000000000000e0000020000000000600300000000000000000000000000000000000000000002020004000800000000000000000000000000000000000000000000000000000c000010001000000001200000000000000000000000000000000000000000000c000010001000000000000000000000000000000000000000000000000000000c000004000400000001000000000000000000000000000000000000000000000c000004000400000000000000000000000000000000000000800000000000000c000002000200000001000000000000000000000000000000000000000000000c0000020002000000000000000000000000000000000000008000000000000004080010000000000000000000000000000000000000000000000000000000000a00000000000000000cf101ef010000000000000000000000000000000000000c000002000200000001000000000000000000000000000000000000000000000c000002000200000000000000000000000000000000000000000000000000001a080004001000000002000000000000000000000000000000000000000000000c000008000800000001000000000000000000000000000000000000000000000c0000080008000000000000000000000000000000000000008000000000000004100000000000000000000000000000000000000000000000000000000000000a000000000000000002f801f6010000000000000000000000000000000000000c000008000800000001000000000000000000000000000000000000000000000c0000080008000000000000000000000000000000000000000000000000000004100004000000000000000000000000000000000000000000000000000000000a000000000000000004fb01fa01000000000000000000000000000000000000020200000008000000000000000000000000000000000000000000000000000002000001000200000000600000000000000000000000000000000000000000000e0000020000000000600200000000000000000000000000000000000000000004080000000000000000000000000000000000000000000000000000000000000a00000000000000000aff0136020000000000000000000000000000000000000c000001000100000001240000000000000000000000000000000000000000000c0000010001000000000000000000000000000000000000000000000000000007000000000000000003601400000000000000000000000000000000000000000c000002000200000001000000000000000001000000000000000000000000000c0000020002000000000000000000000000000000000000000000000000000004010002000000000000000000000000000000000000000000000000000000000a00000000000000000c3602060200000000000000000000000000000000000002000001000800000000230000000000000000000000000000000000000000000c000004000400000001000000000000000000000000000000000000000000000c000004000400000000000000000000000000000000000000800000000000000c000002000200000001000000000000000000000000000000000000000000000c000002000200000000000000000000000000000000000000800000000000000e0000000010000000610300000000000000000000000000000000000000000004080010000000000000000000000000000000000000000000000000000000000a00000000000000000c10020e020000000000000000000000000000000000000c000002000200000001000000000000000000000000000000000000000000000c000002000200000000000000000000000000000000000000000000000000000e000000001000000061030000000000000000000000000000000000000000001a100004001000000002000000000000000000000000000000000000000000001a080004002000000002000000000000000000000000000000000000000000000c000008000800000001000000000000000000000000000000000000000000000c0000080008000000000000000000000000000000000000008000000000000004200010000000000000000000000000000000000000000000000000000000000a000000000000000002190217020000000000000000000000000000000000000c000008000800000001000000000000000000000000000000000000000000000c000008000800000000000000000000000000000000000000000000000000001a2000100010000000080000000000000000000000000000000000000000000004100004000000000000000000000000000000000000000000000000000000000a0000000000000000041d021c02000000000000000000000000000000000000020200000008000000000000000000000000000000000000000000000000000004080000000000000000000000000000000000000000000000000000000000000a00000000000000000a36021f0200000000000000000000000000000000000002000001000200000000240000000000000000000000000000000000000000000e00000200000000006001000000000000000000000000000000000000000000020200000001000000000000000000000000000000000000000000000000000007000000000000000003601400000000000000000000000000000000000000000e000000000800000061010000000000000000000000000000000000000000000c000002000200000001ffffffffffffffff00000000000000000000000000000c0000020002000000000000000000000000000000000000000000000000000004010002000000000000000000000000000000000000000000000000000000000a00000000000000000836022802000000000000000000000000000000000000180000010002000000000500000000000000000000000000000000000000000002080002000200000000000000000000000000000000000000000000000000000e0000000004000000610300000000000000000000000000000000000000000004020004000000000000000000000000000000000000000000000000000000000a00000000000000000836022d020000000000000000000000000000000000000c000002000200000001200000000000000000000000000000000000000000000c000002000200000000000000000000000000000000000000000000000000000e0000000004000000610200000000000000000000000000000000000000000008040002000200000000000000000000000000000000000000000000000000000e020001000000000060020000000000000000000000000000000000000000000e0200080000000000600100000000000000000000000000000000000000000004000004000100000001600000000000000000000000000000000000000000000e0000000000000000e10200000000000000000000000000000000000000000007000000000000000000000000000000000000000000000000000000000000000c000002000200000001000000000000000000000000000000000000000000000c000002000200000000000000000000000000000000000000000000000000000e000002000000000000000000000000000000000000000000000000000000000e0000000000000000e10200000000000000000000000000000000000000000007000000000000000004000000000000000000000000000000000000000000000e0000000000000000e0010000000000000000000000000000000000000000000c000004000400000001fcffffffffffffffffffffffffffffff0000000000000c000004000400000000ffffffffffffffffffffffffffffffff00000000000002020004000800000000000000000000000000000000000000000000000000000c000010001000000001400000000000000000000000000000000000000000000c000010001000000000000000000000000000000000000000000000000000000c000004000400000001000000000000000000000000000000000000000000000c000004000400000000000000000000000000000000000000800000000000000c000002000200000001000000000000000000000000000000000000000000000c0000020002000000000000000000000000000000000000008000000000000004080010000000000000000000000000000000000000000000000000000000000a000000000000000002490247020000000000000000000000000000000000000c000002000200000001000000000000000000000000000000000000000000000c000002000200000000000000000000000000000000000000000000000000001a080004001000000002000000000000000000000000000000000000000000000c000008000800000001000000000000000000000000000000000000000000000c0000080008000000000000000000000000000000000000008000000000000004100000000000000000000000000000000000000000000000000000000000000a00000000000000000850024e020000000000000000000000000000000000000c000008000800000001000000000000000000000000000000000000000000000c0000080008000000000000000000000000000000000000000000000000000004100004000000000000000000000000000000000000000000000000000000000a00000000000000000453025202000000000000000000000000000000000000020200000008000000000000000000000000000000000000000000000000000002000001000200000000400000000000000000000000000000000000000000000e0000020000000000600200000000000000000000000000000000000000000004080000000000000000000000000000000000000000000000000000000000000a00000000000000000a710257020000000000000000000000000000000000000c000001000100000001240000000000000000000000000000000000000000000c0000010001000000000000000000000000000000000000000000000000000007000000000000000003601400000000000000000000000000000000000000000c000002000200000001ffffffffffffffffffffffffffffffff0000000000000c000002000200000000ffffffff00000000000000000000000000000000000004010002000000000000000000000000000000000000000000000000000000000a0000000000000000065e0276020000000000000000000000000000000000000c000002000200000001200000000000000000000000000000000000000000000c000002000200000000000000000000000000000000000000000000000000000e0000000004000000610200000000000000000000000000000000000000000008040002000200000000000000000000000000000000000000000000000000000e000002000000000060010000000000000000000000000000000000000000000e020001000000000060010000000000000000000000000000000000000000000c000001000100000001440000000000000000000000000000000000000000000c0000010001000000000000000000000000000000000000000000000000000007000000000000000003601400000000000000000000000000000000000000000c000002000200000001ffffffffffffffffffffffffffffffff0000000000000c000002000200000000ffffffff00000000000000000000000000000000000004010002000000000000000000000000000000000000000000000000000000000a0000000000000000066b027a020000000000000000000000000000000000000e000000000200000061010000000000000000000000000000000000000000000e020001000000000060020000000000000000000000000000000000000000000e0000000002000000610200000000000000000000000000000000000000000004000002000100000001400000000000000000000000000000000000000000000e0000000000000000e10100000000000000000000000000000000000000000007000000000000000000000000000000000000000000000000000000000000000c000002000200000001000000000000000000000000000000000000000000000c000002000200000000000000000000000000000000000000000000000000000e000002000000000000000000000000000000000000000000000000000000000e0000000000000000e10100000000000000000000000000000000000000000007000000000000000004000000000000000000000000000000000000000000000c000002000200000001000000000000000000000000000000000000000000000c000002000200000000000000000000000000000000000000000000000000000e000002000000000000000000000000000000000000000000000000000000000a0000000000000000017d027d020000000000000000000000000000000000000c000002000200000001000000000000000000000000000000000000000000000c000002000200000000000000000000000000000000000000000000000000000e000002000000000000000000000000000000000000000000000000000000000e0000000000000000e10100000000000000000000000000000000000000000007000000000000000004000000000000000000000000000000000000000000000c000002000200000001fcffffffffffffffffffffffffffffff0000000000000c000002000200000000ffffffffffffffffffffffffffffffff00000000000002010002000800000000000000000000000000000000000000000000000000000c000010001000000001200000000000000000000000000000000000000000000c000010001000000000000000000000000000000000000000000000000000000c000004000400000001000000000000000000000000000000000000000000000c000004000400000000000000000000000000000000000000800000000000000c000002000200000001000000000000000000000000000000000000000000000c0000020002000000000000000000000000000000000000008000000000000004080010000000000000000000000000000000000000000000000000000000000a0000000000000000028c028a020000000000000000000000000000000000000c000002000200000001000000000000000000000000000000000000000000000c000002000200000000000000000000000000000000000000000000000000001a080004001000000002000000000000000000000000000000000000000000000c000008000800000001000000000000000000000000000000000000000000000c0000080008000000000000000000000000000000000000008000000000000004100000000000000000000000000000000000000000000000000000000000000a000000000000000008930291020000000000000000000000000000000000000c000008000800000001000000000000000000000000000000000000000000000c0000080008000000000000000000000000000000000000000000000000000004100004000000000000000000000000000000000000000000000000000000000a00000000000000000496029502000000000000000000000000000000000000020200000008000000000000000000000000000000000000000000000000000004080000000000000000000000000000000000000000000000000000000000000a00000000000000000aa00298020000000000000000000000000000000000000c000001000100000001240000000000000000000000000000000000000000000c0000010001000000000000000000000000000000000000000000000000000007000000000000000003601400000000000000000000000000000000000000000c000002000200000001ffffffffffffffffffffffffffffffff0000000000000c000002000200000000ffffffff00000000000000000000000000000000000004010002000000000000000000000000000000000000000000000000000000000a0000000000000000069f02a40200000000000000000000000000000000000007000000000000000000000000000000000000000000000000000000000000000c000002000200000001000000000000000000000000000000000000000000000c000002000200000000000000000000000000000000000000000000000000000e0000020000000000000000000000000000000000000000000000000000000007000000000000000004000000000000000000000000000000000000000000000c000002000200000001000000000000000000000000000000000000000000000c000002000200000000000000000000000000000000000000000000000000000e0000020000000000000000000000000000000000000000000000000000000007000000000000000004000000000000000000000000000000000000000000000e0000000000000000e00200000000000000000000000000000000000000000004010000000000000000000000000000000000000000000000000000000000000a000000000000000004ad02ab020000000000000000000000000000000000000e0000000000000000e10200000000000000000000000000000000000000000007000000000000000000000000000000000000000000000000000000000000000c000001000100000001000000000000000000000000000000000000000000000c000001000100000000000000000000000000000000a079c3080000000000000e000000000200000021020000000000000000000000000000000000000000000e0000020000000000600100000000000000000000000000000000000000000007000000000000000003741400000000000000000000000000000000000000000e0000000002000000610100000000000000000000000000000000000000000002000002000200000000040000000000000000000000000000000000000000000c000001000100000001200000000000000000000000000000000000000000000c0000010001000000000000000000000000000000000000000000000000000007000000000000000003741400000000000000000000000000000000000000000e0000000002000000610100000000000000000000000000000000000000000002000002000200000000240000000000000000000000000000000000000000000c0000010001000000011c0000000000000000000000000000000000000000000c0000010001000000000000000000000000000000000000000000000000000007000000000000000003741400000000000000000000000000000000000000000e0000000002000000610100000000000000000000000000000000000000000002000002000200000000440000000000000000000000000000000000000000000c000001000100000001000000004e4544444942524f46203a720000000000000c0000010001000000006576696563655265654670617773584400000000000007000000000000000003741400000000000000000000000000000000000000000c000002000200000001640000000000000000000000000000000000000000000c000002000200000000000000000000000000000000000000000000000000000e000002000000000000000000000000000000000000000000000000000000000c000002000200000001000000000000000000000000000000000000000000000c000002000200000000000000000000000000000000000000000000000000000e0000020000000000600300000000000000000000000000000000000000000018000002000400000000050000000000000000000000000000000000000000000e000004000000000060020000000000000000000000000000000000000000000e000000000200000061010000000000000000000000000000000000000000000202000400010000000000000000000000000000000000000000000000000000070000000000000000034c1400000000000000000000000000000000000000000c000002000200000001200000000000000000000000000000000000000000000c000002000200000000000000000000000000000000000000000000000000000e0000000004000000610200000000000000000000000000000000000000000008040002000200000000000000000000000000000000000000000000000000000e020001000000000000010000000000000000000000000000000000000000000e0000000002000000610300000000000000000000000000000000000000000002000002000200000000010000000000000000000000000000000000000000000c000004000400000001030000000000000000000000000000000000000000000c0000040004000000000000000000000000000000000000000000000000000004020004000000000000000000000000000000000000000000000000000000000a000000000000000002c602d7020000000000000000000000000000000000000e000000000200000061010000000000000000000000000000000000000000000200000200010000000060000000000000000000000000000000000000000000070000000000000000034c1400000000000000000000000000000000000000000c000002000200000001ffffffffffffffffffffffffffffffff0000000000000c000002000200000000ffffffffffffffffffffffff000000000000000000000e000000000400000001040000000000000000000000000000000000000000001a040002000200000002000000000000000000000000000000000000000000000c000004000400000001000000000000000000000000000000000000000000000c000004000400000000000000000000000000000000ffffffff0000000000001a010004000400000002000000000000000000000000000000000000000000001a040002000200000004000000000000000000000000000000000000000000000e000002000000000000040000000000000000000000000000000000000000000e0000000000000000e10200000000000000000000000000000000000000000007000000000000000004000000000000000000000000000000000000000000000e0000000000000000e0010000000000000000000000000000000000000000000e000002000000000060020000000000000000000000000000000000000000000e000001000000000060010000000000000000000000000000000000000000000c000002000200000001000000000000000000000000000000000000000000000c0000020002000000000000000000000000000000000000000000000000000005020000000200000001000000000000000000000000000000000000000000000c000004000400000001ffffffffffffffffffffffffffffffff0000000000000c000004000400000000ffffffff0000000000000000000000000000000000001a0200040004000000020000000000000000000000000000000000000000000014000000000800000000000000000000000000000000000000000000000000000c000002000200000001010000000000000000000000000000000000000000000c0000020002000000000000000000000000000000000000000000000000000004080004000000000000000000000000000000000000000000000000000000000a000000000000000004f502f3020000000000000000000000000000000000000c000002000200000001000000000000000000000000000000000000000000000c000002000200000000000000000000000000000000000000000000000000001a0000020001000000020100000000000000000000000000000000000000000007000000000000000003a80200000000000000000000000000000000000000000a0000000000000000020e03f8020000000000000000000000000000000000000c000002000200000001ffffffffffffffffffffffffffffffff0000000000000c000002000200000000ffffffff0000000000000000000000000000000000000e000000000400000061010000000000000000000000000000000000000000001a040002000400000002000000000000000000000000000000000000000000000c000008000800000001030000000000000000000000000000000000000000000c0000080008000000000000000000000000000000000000000000000000000005080000001000000001000000000000000000000000000000000000000000000c000020002000000001000000000000000000000000000000000000000000000c00002000200000000000000000ffffffffffffffffffffffff0000000000001a100020001000000002000000000000000000000000000000000000000000001a1000040004000000040000000000000000000000000000000000000000000005080004000000000000000000000000000000000000000000000000000000000e000000000400000061020000000000000000000000000000000000000000001a040002000200000002000000000000000000000000000000000000000000000c000004000400000001040000000000000000000000000000000000000000000c0000040004000000000000000000000000000000000000000000000000000005040000000800000001000000000000000000000000000000000000000000001a080020000800000002000000000000000000000000000000000000000000001a0800020002000000040000000000000000000000000000000000000000000005040002000000000000000000000000000000000000000000000000000000000e0000000000000000e10100000000000000000000000000000000000000000007000000000000000000000000000000000000000000000000000000000000000e0000000000000000e101000000000000000000000000000000000000000000070000000000000000040000000000000000000000000000000000000000000004020001000800000000000000000000000000000000000000000000000000000c000010001000000001200000000000000000000000000000000000000000000c000010001000000000000000000000000000000000000000000000000000000c000004000400000001000000000000000000000000000000000000000000000c000004000400000000000000000000000000000000000000800000000000000c000002000200000001000000000000000000000000000000000000000000000c0000020002000000000000000000000000000000000000008000000000000004080010000000000000000000000000000000000000000000000000000000000a0000000000000000021b0319030000000000000000000000000000000000000c000002000200000001000000000000000000000000000000000000000000000c000002000200000000000000000000000000000000000000000000000000001a080004001000000002000000000000000000000000000000000000000000000c000008000800000001000000000000000000000000000000000000000000000c0000080008000000000000000000000000000000000000008000000000000004100000000000000000000000000000000000000000000000000000000000000a000000000000000008220320030000000000000000000000000000000000000c000008000800000001000000000000000000000000000000000000000000000c0000080008000000000000000000000000000000000000000000000000000004100004000000000000000000000000000000000000000000000000000000000a00000000000000000425032403000000000000000000000000000000000000020200000008000000000000000000000000000000000000000000000000000004080000000000000000000000000000000000000000000000000000000000000a00000000000000000a2d032703000000000000000000000000000000000000070000000000000000034c1400000000000000000000000000000000000000000c000002000200000001ffffffffffffffffffffffffffffffff0000000000000c000002000200000000ffffffff00000000000000000000000000000000000004010002000000000000000000000000000000000000000000000000000000000a0000000000000000062c03310300000000000000000000000000000000000007000000000000000000000000000000000000000000000000000000000000000c000002000200000001000000000000000000000000000000000000000000000c000002000200000000000000000000000000000000000000000000000000000e0000020000000000000000000000000000000000000000000000000000000007000000000000000004000000000000000000000000000000000000000000000c000002000200000001000000000000000000000000000000000000000000000c000002000200000000000000000000000000000000000000000000000000000e0000020000000000000000000000000000000000000000000000000000000007000000000000000004000000000000000000000000000000000000000000000e0000000000000000e00a0000000000000000000000000000000000000000000c000004000400000001000000000000000000000000000000000000000000000c0000040004000000000000000000000000000000000000000000000000000002000001000800000000200000000000000000000000000000000000000000000e000008000000000060020000000000000000000000000000000000000000000e0000020000000000600100000000000000000000000000000000000000000004020000000000000000000000000000000000000000000000000000000000000a0000000000000000043d0344030000000000000000000000000000000000000e0000000000000000e10a00000000000000000000000000000000000000000007000000000000000000000000000000000000000000000000000000000000000e0000000004000000610600000000000000000000000000000000000000000002000004000400000000010000000000000000000000000000000000000000000e0000000002000000610100000000000000000000000000000000000000000004040002000000000000000000000000000000000000000000000000000000000a00000000000000000244033d030000000000000000000000000000000000000e0000040000000000600600000000000000000000000000000000000000000018000004000200000000050000000000000000000000000000000000000000000e0000000004000000610200000000000000000000000000000000000000000002040002000200000000000000000000000000000000000000000000000000000e000002000000000060070000000000000000000000000000000000000000000202000000010000000000000000000000000000000000000000000000000000070000000000000000036014000000000000000000000000000000000000000002010000000400000000000000000000000000000000000000000000000000000c000002000200000001ffffffffffffffffffffffffffffffff0000000000000c000002000200000000ffffffff0000000000000000000000000000000000000e0000040000000000600b00000000000000000000000000000000000000000004040002000000000000000000000000000000000000000000000000000000000a00000000000000000651036d050000000000000000000000000000000000000c000001000100000001000000000000000000000000000000000000000000000c0000010001000000000000000000000000000000008116fe0d0000000000000e000000000200000021020000000000000000000000000000000000000000000e0000020000000000600a00000000000000000000000000000000000000000007000000000000000003741400000000000000000000000000000000000000000e0000000010000000610a0000000000000000000000000000000000000000000c000002000200000001040000000000000000000000000000000000000000000c000002000200000000000000000000000000000000000000000000000000000e0000000004000000610b00000000000000000000000000000000000000000004040002000000000000000000000000000000000000000000000000000000000a00000000000000000488035c0300000000000000000000000000000000000010000000000000000000000000000000000000000000000000000000000000000e000002000000000040000000000000000000000000000000000000000000000210000000010000000000000000000000000000000000000000000000000000070000000000000000034c1400000000000000000000000000000000000000000c000002000200000001ffffffffffffffffffffffffffffffff0000000000000c000002000200000000ffffffffffffffffffffffff000000000000000000000e000000000400000041010000000000000000000000000000000000000000001a040002000200000002000000000000000000000000000000000000000000000c000004000400000001000000000000000000000000000000000000000000000c000004000400000000000000000000000000000000ffffffff0000000000001a010004000400000002000000000000000000000000000000000000000000001a040002000200000004000000000000000000000000000000000000000000000e000002000000000040010000000000000000000000000000000000000000000e0000000002000000610b000000000000000000000000000000000000000000180000020001000000002000000000000000000000000000000000000000000007000000000000000003931400000000000000000000000000000000000000000e0000000010000000610a0000000000000000000000000000000000000000000c000002000200000001000000000000000000000000000000000000000000000c000002000200000000000000000000000000000000000000000000000000000e000001000000000060090000000000000000000000000000000000000000000a000000000000000001740374030000000000000000000000000000000000000e0000000010000000610a00000000000000000000000000000000000000000004040000000000000000000000000000000000000000000000000000000000000a00000000000000000a740385030000000000000000000000000000000000000e0000020000000000600b000000000000000000000000000000000000000000180000020004000000000500000000000000000000000000000000000000000002100004000200000000000000000000000000000000000000000000000000000c000008000800000001200000000000000000000000000000000000000000000c0000080008000000000000000000000000000000000000000000000000000008040008000400000000000000000000000000000000000000000000000000000e0400000001000000410100000000000000000000000000000000000000000007000000000000000003741400000000000000000000000000000000000000000e0000000008000000610b00000000000000000000000000000000000000000002000008000200000000010000000000000000000000000000000000000000000c000004000400000001010000000000000000000000000000000000000000000c0000040004000000000000000000000000000000000000000000000000000004020008000000000000000000000000000000000000000000000000000000000a000000000000000002710382030000000000000000000000000000000000000c000004000400000001000000000000000000000000000000000000000000000c000004000400000000000000000000000000000000000000000000000000000a000000000000000001710371030000000000000000000000000000000000000e0000000002000000610900000000000000000000000000000000000000000004020000000000000000000000000000000000000000000000000000000000000a000000000000000004570688030000000000000000000000000000000000000e000000000200000041000000000000000000000000000000000000000000001a000002000200000002ffffffff000000000000000000000000000000000000020000020002000000001f0000000000000000000000000000000000000000001a000002000800000002e0ffffff01000000000000000000000000000000000002080010000200000000000000000000000000000000000000000000000000000c000004000400000001010000000000000000000000000000000000000000000c0000040004000000000000000000000000000000000000000000000000000004020008000000000000000000000000000000000000000000000000000000000a000000000000000002930391030000000000000000000000000000000000000c000004000400000001000000000000000000000000000000000000000000000c000004000400000000000000000000000000000000000000000000000000000c000008000800000001ffffffffffffffff00000000000000000000000000000c0000080008000000000000000000000000000000000000000000000000000004020008000000000000000000000000000000000000000000000000000000000a0000000000000000087105970300000000000000000000000000000000000004040000000000000000000000000000000000000000000000000000000000000a00000000000000000a710599030000000000000000000000000000000000000e000002000000000020020000000000000000000000000000000000000000000e000000000200000041000000000000000000000000000000000000000000001a000002000200000002ffffffff0000000000000000000000000000000000000202001000020000000000000000000000000000000000000000000000000000021000000001000000000000000000000000000000000000000000000000000007000000000000000003100300000000000000000000000000000000000000000a000000000000000002a003a2030000000000000000000000000000000000000e000001000000000060040000000000000000000000000000000000000000000a0000000000000000019a089a080000000000000000000000000000000000000e000001000000000060040000000000000000000000000000000000000000000e00000000010000006107000000000000000000000000000000000000000000070000000000000000036014000000000000000000000000000000000000000002010000000400000000000000000000000000000000000000000000000000000c000002000200000001ffffffffffffffffffffffffffffffff0000000000000c000002000200000000ffffffff0000000000000000000000000000000000000e0000040000000000600b00000000000000000000000000000000000000000004040002000000000000000000000000000000000000000000000000000000000a000000000000000006ab0390050000000000000000000000000000000000000c000001000100000001000000000000000000000000000000000000000000000c000001000100000000000000000000000000000000a72012d20000000000000e000000000200000021020000000000000000000000000000000000000000000e0000020000000000600a00000000000000000000000000000000000000000007000000000000000003741400000000000000000000000000000000000000000e0000000010000000610a0000000000000000000000000000000000000000000c000002000200000001040000000000000000000000000000000000000000000c000002000200000000000000000000000000000000000000000000000000000e0000000004000000610b00000000000000000000000000000000000000000004040002000000000000000000000000000000000000000000000000000000000a000000000000000004e203b60300000000000000000000000000000000000010000000000000000000000000000000000000000000000000000000000000000e000002000000000040000000000000000000000000000000000000000000000210000000010000000000000000000000000000000000000000000000000000070000000000000000034c1400000000000000000000000000000000000000000c000002000200000001ffffffffffffffffffffffffffffffff0000000000000c000002000200000000ffffffffffffffffffffffff000000000000000000000e000000000400000041010000000000000000000000000000000000000000001a040002000200000002000000000000000000000000000000000000000000000c000004000400000001000000000000000000000000000000000000000000000c000004000400000000000000000000000000000000ffffffff0000000000001a010004000400000002000000000000000000000000000000000000000000001a040002000200000004000000000000000000000000000000000000000000000e000002000000000040010000000000000000000000000000000000000000000e0000000002000000610b000000000000000000000000000000000000000000180000020001000000002000000000000000000000000000000000000000000007000000000000000003931400000000000000000000000000000000000000000e0000000010000000610a0000000000000000000000000000000000000000000c000002000200000001000000000000000000000000000000000000000000000c000002000200000000000000000000000000000000000000000000000000000e000001000000000060090000000000000000000000000000000000000000000a000000000000000001ce03ce030000000000000000000000000000000000000e0000000010000000610a00000000000000000000000000000000000000000004040000000000000000000000000000000000000000000000000000000000000a00000000000000000ace03df030000000000000000000000000000000000000e0000020000000000600b000000000000000000000000000000000000000000180000020004000000000500000000000000000000000000000000000000000002100004000200000000000000000000000000000000000000000000000000000c000008000800000001200000000000000000000000000000000000000000000c0000080008000000000000000000000000000000000000000000000000000008040008000400000000000000000000000000000000000000000000000000000e0400000001000000410100000000000000000000000000000000000000000007000000000000000003741400000000000000000000000000000000000000000e0000000008000000610b00000000000000000000000000000000000000000002000008000200000000010000000000000000000000000000000000000000000c000004000400000001010000000000000000000000000000000000000000000c0000040004000000000000000000000000000000000000000000000000000004020008000000000000000000000000000000000000000000000000000000000a000000000000000002cb03dc030000000000000000000000000000000000000c000004000400000001000000000000000000000000000000000000000000000c000004000400000000000000000000000000000000000000000000000000000a000000000000000001cb03cb030000000000000000000000000000000000000e0000000002000000610900000000000000000000000000000000000000000004020000000000000000000000000000000000000000000000000000000000000a0000000000000000042708e2030000000000000000000000000000000000000e000000000200000041000000000000000000000000000000000000000000001a000002000200000002ffffffff000000000000000000000000000000000000020000020002000000001f0000000000000000000000000000000000000000001a000002000800000002e0ffffff01000000000000000000000000000000000002080010000200000000000000000000000000000000000000000000000000000c000004000400000001010000000000000000000000000000000000000000000c0000040004000000000000000000000000000000000000000000000000000004020008000000000000000000000000000000000000000000000000000000000a000000000000000002ed03eb030000000000000000000000000000000000000c000004000400000001000000000000000000000000000000000000000000000c000004000400000000000000000000000000000000000000000000000000000c000008000800000001ffffffffffffffff00000000000000000000000000000c0000080008000000000000000000000000000000000000000000000000000004020008000000000000000000000000000000000000000000000000000000000a0000000000000000089405f10300000000000000000000000000000000000004040000000000000000000000000000000000000000000000000000000000000a00000000000000000a9405f3030000000000000000000000000000000000000e000002000000000020020000000000000000000000000000000000000000000e000000000200000041000000000000000000000000000000000000000000001a000002000200000002ffffffff0000000000000000000000000000000000000202001000020000000000000000000000000000000000000000000000000000021000000001000000000000000000000000000000000000000000000000000007000000000000000003100300000000000000000000000000000000000000000a000000000000000002fa03fc030000000000000000000000000000000000000e000001000000000060030000000000000000000000000000000000000000000a0000000000000000019a089a080000000000000000000000000000000000000e000001000000000060030000000000000000000000000000000000000000000e00000000010000006107000000000000000000000000000000000000000000070000000000000000036014000000000000000000000000000000000000000002010000000200000000000000000000000000000000000000000000000000000c000004000400000001ffffffffffffffffffffffffffffffff0000000000000c000004000400000000ffffffff0000000000000000000000000000000000000e0000020000000000600800000000000000000000000000000000000000000004020004000000000000000000000000000000000000000000000000000000000a0000000000000000060504b3050000000000000000000000000000000000000c000001000100000001000000000000000000000000000000000000000000000c0000010001000000000000000000000000000000003182a0700000000000000e000000000200000021020000000000000000000000000000000000000000000e0000020000000000600a000000000000000000000000000000000000000000070000000000000000037414000000000000000000000000000000000000000014000000000200000000050000000000000000000000000000000000000000000c000004000400000001ffffffffffffffffffffffffffffffff0000000000000c000004000400000000ffffffff0000000000000000000000000000000000001a020004000400000002000000000000000000000000000000000000000000000e0000000002000000610a00000000000000000000000000000000000000000002000002000200000000040000000000000000000000000000000000000000000e00000400000000006005000000000000000000000000000000000000000000020400000001000000000000000000000000000000000000000000000000000007000000000000000003741400000000000000000000000000000000000000000c000002000200000001040000000000000000000000000000000000000000000c000002000200000000000000000000000000000000000000000000000000000e0000000004000000610800000000000000000000000000000000000000000004040002000000000000000000000000000000000000000000000000000000000a0000000000000000045f04180400000000000000000000000000000000000010000000000000000000000000000000000000000000000000000000000000000c000002000200000001240000000000000000000000000000000000000000000c000002000200000000000000000000000000000000000000000000000000000e000002000000000040000000000000000000000000000000000000000000000c000002000200000001000000000000000000000000000000000000000000000c000002000200000000000000000000000000000000000000000000000000000a0000000000000000012104210400000000000000000000000000000000000004040000000000000000000000000000000000000000000000000000000000000a00000000000000000a210435040000000000000000000000000000000000000e0000020000000000600b00000000000000000000000000000000000000000018000002000400000000050000000000000000000000000000000000000000000e000004000000000060090000000000000000000000000000000000000000000e0000000002000000610a0000000000000000000000000000000000000000000202000400010000000000000000000000000000000000000000000000000000070000000000000000034c1400000000000000000000000000000000000000000c000002000200000001200000000000000000000000000000000000000000000c000002000200000000000000000000000000000000000000000000000000000e0000000004000000610900000000000000000000000000000000000000000008040002000200000000000000000000000000000000000000000000000000000e020001000000000040010000000000000000000000000000000000000000000e0000000008000000610b00000000000000000000000000000000000000000002000008000200000000010000000000000000000000000000000000000000000c000004000400000001010000000000000000000000000000000000000000000c0000040004000000000000000000000000000000000000000000000000000004020008000000000000000000000000000000000000000000000000000000000a0000000000000000021f0432040000000000000000000000000000000000000c000004000400000001000000000000000000000000000000000000000000000c000004000400000000000000000000000000000000000000000000000000000a0000000000000000011f041f040000000000000000000000000000000000000e0000000002000000610a0000000000000000000000000000000000000000000200000200010000000020000000000000000000000000000000000000000000070000000000000000034c1400000000000000000000000000000000000000000c000002000200000001ffffffffffffffffffffffffffffffff0000000000000c000002000200000000ffffffffffffffffffffffff000000000000000000000e000000000400000041020000000000000000000000000000000000000000001a040002000200000002000000000000000000000000000000000000000000000c000004000400000001000000000000000000000000000000000000000000000c000004000400000000000000000000000000000000ffffffff0000000000001a010004000400000002000000000000000000000000000000000000000000001a040002000200000004000000000000000000000000000000000000000000000e000002000000000040020000000000000000000000000000000000000000000e00000000020000006108000000000000000000000000000000000000000000180000020001000000002000000000000000000000000000000000000000000007000000000000000003931400000000000000000000000000000000000000000c000002000200000001000000000000000000000000000000000000000000000c000002000200000000000000000000000000000000000000000000000000000e000001000000000060090000000000000000000000000000000000000000000a0000000000000000014a044a0400000000000000000000000000000000000004040000000000000000000000000000000000000000000000000000000000000a00000000000000000a4a045c040000000000000000000000000000000000000e0000020000000000600b00000000000000000000000000000000000000000018000002000400000000050000000000000000000000000000000000000000000e0000000002000000610a00000000000000000000000000000000000000000002020004000200000000000000000000000000000000000000000000000000000c000008000800000001200000000000000000000000000000000000000000000c0000080008000000000000000000000000000000000000000000000000000008040008000400000000000000000000000000000000000000000000000000000e0400000001000000410100000000000000000000000000000000000000000007000000000000000003741400000000000000000000000000000000000000000e0000000008000000610b00000000000000000000000000000000000000000002000008000200000000010000000000000000000000000000000000000000000c000004000400000001010000000000000000000000000000000000000000000c0000040004000000000000000000000000000000000000000000000000000004020008000000000000000000000000000000000000000000000000000000000a000000000000000002480459040000000000000000000000000000000000000c000004000400000001000000000000000000000000000000000000000000000c000004000400000000000000000000000000000000000000000000000000000a000000000000000001480448040000000000000000000000000000000000000e0000000002000000610900000000000000000000000000000000000000000004020000000000000000000000000000000000000000000000000000000000000a000000000000000004cb065f040000000000000000000000000000000000000e000000000200000041000000000000000000000000000000000000000000001a000002000200000002ffffffff000000000000000000000000000000000000020000020002000000001f0000000000000000000000000000000000000000001a000002000400000002e0ffffff0100000000000000000000000000000000000e0000000002000000610a00000000000000000000000000000000000000000002040002000800000000000000000000000000000000000000000000000000000c000002000200000001010000000000000000000000000000000000000000000c0000020002000000000000000000000000000000000000000000000000000004080004000000000000000000000000000000000000000000000000000000000a0000000000000000026b0469040000000000000000000000000000000000000c000002000200000001000000000000000000000000000000000000000000000c000002000200000000000000000000000000000000000000000000000000000c000004000400000001ffffffffffffffff00000000000000000000000000000c0000040004000000000000000000000000000000000000000000000000000004080004000000000000000000000000000000000000000000000000000000000a000000000000000008b7056f0400000000000000000000000000000000000004020000000000000000000000000000000000000000000000000000000000000a00000000000000000ab70571040000000000000000000000000000000000000e000008000000000020020000000000000000000000000000000000000000000e000000000200000041000000000000000000000000000000000000000000001a000002000200000002e0ffffff0000000000000000000000000000000000000e0000080000000000600b00000000000000000000000000000000000000000004020000000000000000000000000000000000000000000000000000000000000a000000000000000004d60577040000000000000000000000000000000000000e0000000001000000610a000000000000000000000000000000000000000000070000000000000000034c1400000000000000000000000000000000000000000e0000010000000000600a0000000000000000000000000000000000000000000c000001000100000001000000000000000000000000000000000000000000000c000001000100000000000000000000000000000000bb9c05a90000000000000e0000000002000000610b00000000000000000000000000000000000000000007000000000000000003741400000000000000000000000000000000000000000e0000000002000000610b00000000000000000000000000000000000000000002000002000200000000040000000000000000000000000000000000000000000e00000000040000006108000000000000000000000000000000000000000000020400000001000000000000000000000000000000000000000000000000000007000000000000000003741400000000000000000000000000000000000000000e0000000002000000610b00000000000000000000000000000000000000000002000002000200000000240000000000000000000000000000000000000000000e0000000001000000610a00000000000000000000000000000000000000000007000000000000000003741400000000000000000000000000000000000000000c000002000200000001040000000000000000000000000000000000000000000c000002000200000000000000000000000000000000000000000000000000000e0000000008000000610b0000000000000000000000000000000000000000000e0000000004000000610800000000000000000000000000000000000000000004040002000000000000000000000000000000000000000000000000000000000a000000000000000004ce048d0400000000000000000000000000000000000010000000000000000000000000000000000000000000000000000000000000000c000002000200000001440000000000000000000000000000000000000000000c000002000200000000000000000000000000000000000000000000000000000e000002000000000040000000000000000000000000000000000000000000000c000004000400000001000000000000000000000000000000000000000000000c000004000400000000000000000000000000000000000000000000000000000e0000040000000000600a00000000000000000000000000000000000000000018000004000200000000050000000000000000000000000000000000000000000e000002000000000060090000000000000000000000000000000000000000000208000200010000000000000000000000000000000000000000000000000000070000000000000000034c1400000000000000000000000000000000000000000e0000000004000000610a0000000000000000000000000000000000000000000e0000000008000000610b0000000000000000000000000000000000000000000c000002000200000001200000000000000000000000000000000000000000000c000002000200000000000000000000000000000000000000000000000000000e0000000010000000610900000000000000000000000000000000000000000008100002000200000000000000000000000000000000000000000000000000000e0200010000000000400100000000000000000000000000000000000000000002000004000400000000010000000000000000000000000000000000000000000c000002000200000001020000000000000000000000000000000000000000000c0000020002000000000000000000000000000000000000000000000000000004040002000000000000000000000000000000000000000000000000000000000a0000000000000000029304a4040000000000000000000000000000000000000200000800010000000040000000000000000000000000000000000000000000070000000000000000034c1400000000000000000000000000000000000000000c000002000200000001ffffffffffffffffffffffffffffffff0000000000000c000002000200000000ffffffffffffffffffffffff000000000000000000000e000000000400000041030000000000000000000000000000000000000000001a040002000200000002000000000000000000000000000000000000000000000c000004000400000001000000000000000000000000000000000000000000000c000004000400000000000000000000000000000000ffffffff0000000000001a010004000400000002000000000000000000000000000000000000000000001a040002000200000004000000000000000000000000000000000000000000000e000002000000000040030000000000000000000000000000000000000000000e000000000200000061080000000000000000000000000000000000000000001800000200010000000020000000000000000000000000000000000000000000070000000000000000039b1400000000000000000000000000000000000000000e0000000008000000610b0000000000000000000000000000000000000000000c000002000200000001000000000000000000000000000000000000000000000c000002000200000000000000000000000000000000000000000000000000000e000001000000000060090000000000000000000000000000000000000000000a000000000000000001ba04ba040000000000000000000000000000000000000e0000000008000000610b00000000000000000000000000000000000000000004040000000000000000000000000000000000000000000000000000000000000a00000000000000000aba04cb040000000000000000000000000000000000000e0000020000000000600a000000000000000000000000000000000000000000180000020004000000000500000000000000000000000000000000000000000002080004000200000000000000000000000000000000000000000000000000000c000008000800000001200000000000000000000000000000000000000000000c0000080008000000000000000000000000000000000000000000000000000008040008000400000000000000000000000000000000000000000000000000000e0400000001000000410100000000000000000000000000000000000000000007000000000000000003741400000000000000000000000000000000000000000e0000000008000000610a00000000000000000000000000000000000000000002000008000200000000010000000000000000000000000000000000000000000c000004000400000001010000000000000000000000000000000000000000000c0000040004000000000000000000000000000000000000000000000000000004020008000000000000000000000000000000000000000000000000000000000a000000000000000002b704c8040000000000000000000000000000000000000c000004000400000001000000000000000000000000000000000000000000000c000004000400000000000000000000000000000000000000000000000000000a000000000000000001b704b7040000000000000000000000000000000000000e0000000002000000610900000000000000000000000000000000000000000004020000000000000000000000000000000000000000000000000000000000000a0000000000000000043f07ce040000000000000000000000000000000000000e000000000200000041000000000000000000000000000000000000000000001a000002000200000002ffffffff000000000000000000000000000000000000020000020002000000001f0000000000000000000000000000000000000000001a000002000200000002e0ffffff01000000000000000000000000000000000002020008000400000000000000000000000000000000000000000000000000000c000002000200000001ffffffffffffffff00000000000000000000000000000c0000020002000000000000000000000000000000000000000000000000000004040002000000000000000000000000000000000000000000000000000000000a000000000000000008da05d7040000000000000000000000000000000000000e0000040000000000600a0000000000000000000000000000000000000000000e000004000000000020020000000000000000000000000000000000000000000e000000000200000041000000000000000000000000000000000000000000001a000002000200000002e0ffffff00000000000000000000000000000000000004020000000000000000000000000000000000000000000000000000000000000a0000000000000000046905dd040000000000000000000000000000000000000208000000010000000000000000000000000000000000000000000000000000070000000000000000034c1400000000000000000000000000000000000000000c000002000200000001010000000000000000000000000000000000000000000c0000020002000000000000000000000000000000000000000000000000000004010000000000000000000000000000000000000000000000000000000000000a00000000000000000ae504e3040000000000000000000000000000000000000c000002000200000001000000000000000000000000000000000000000000000c000002000200000000000000000000000000000000000000000000000000001a0000020002000000020100000000000000000000000000000000000000000004010002000000000000000000000000000000000000000000000000000000000a000000000000000004e80469050000000000000000000000000000000000000e00000000010000006107000000000000000000000000000000000000000000070000000000000000036014000000000000000000000000000000000000000002010000000400000000000000000000000000000000000000000000000000000c000002000200000001ffffffffffffffffffffffffffffffff0000000000000c000002000200000000ffffffff0000000000000000000000000000000000000e0000040000000000600800000000000000000000000000000000000000000004040002000000000000000000000000000000000000000000000000000000000a000000000000000006f004f9050000000000000000000000000000000000000c000001000100000001000000000000000000000000000000000000000000000c00000100010000000000000000000000000000000044cbaf890000000000000e0000000002000000610a00000000000000000000000000000000000000000007000000000000000003741400000000000000000000000000000000000000000e0000000002000000610a00000000000000000000000000000000000000000002000002000200000000040000000000000000000000000000000000000000000e0000000001000000610500000000000000000000000000000000000000000007000000000000000003741400000000000000000000000000000000000000000e0000000008000000610a0000000000000000000000000000000000000000000c000002000200000001040000000000000000000000000000000000000000000c0000020002000000000000000000000000000000000000000000000000000002000008000400000000200000000000000000000000000000000000000000000e000004000000000060070000000000000000000000000000000000000000000e0000000004000000610800000000000000000000000000000000000000000004040002000000000000000000000000000000000000000000000000000000000a0000000000000000044205000500000000000000000000000000000000000010000000000000000000000000000000000000000000000000000000000000000c000002000200000001240000000000000000000000000000000000000000000c000002000200000000000000000000000000000000000000000000000000000e000002000000000040000000000000000000000000000000000000000000000c000002000200000001000000000000000000000000000000000000000000000c000002000200000000000000000000000000000000000000000000000000000a0000000000000000010a050a050000000000000000000000000000000000000e0000000008000000610a00000000000000000000000000000000000000000004040000000000000000000000000000000000000000000000000000000000000a00000000000000000a0a051d050000000000000000000000000000000000000e0000020000000000600b00000000000000000000000000000000000000000018000002000200000000050000000000000000000000000000000000000000000e000002000000000060090000000000000000000000000000000000000000000208000200010000000000000000000000000000000000000000000000000000070000000000000000034c1400000000000000000000000000000000000000000c000002000200000001200000000000000000000000000000000000000000000c000002000200000000000000000000000000000000000000000000000000000e0000000004000000610900000000000000000000000000000000000000000008040002000200000000000000000000000000000000000000000000000000000e020001000000000040010000000000000000000000000000000000000000000e0000000008000000610b00000000000000000000000000000000000000000002000008000200000000010000000000000000000000000000000000000000000c000004000400000001010000000000000000000000000000000000000000000c0000040004000000000000000000000000000000000000000000000000000004020008000000000000000000000000000000000000000000000000000000000a00000000000000000207051a050000000000000000000000000000000000000c000004000400000001000000000000000000000000000000000000000000000c000004000400000000000000000000000000000000000000000000000000000a000000000000000001070507050000000000000000000000000000000000000e00000000010000006107000000000000000000000000000000000000000000070000000000000000034c1400000000000000000000000000000000000000000c000002000200000001ffffffffffffffffffffffffffffffff0000000000000c000002000200000000ffffffffffffffffffffffff000000000000000000000e000000000400000041020000000000000000000000000000000000000000001a040002000200000002000000000000000000000000000000000000000000000c000004000400000001000000000000000000000000000000000000000000000c000004000400000000000000000000000000000000ffffffff0000000000001a010004000400000002000000000000000000000000000000000000000000001a040002000200000004000000000000000000000000000000000000000000000e000002000000000040020000000000000000000000000000000000000000000e000000000200000061080000000000000000000000000000000000000000001800000200010000000020000000000000000000000000000000000000000000070000000000000000039b1400000000000000000000000000000000000000000c000004000400000001000000000000000000000000000000000000000000000c000004000400000000000000000000000000000000000000000000000000000e000001000000000060090000000000000000000000000000000000000000000e0000040000000000600b0000000000000000000000000000000000000000000e0000000002000000610b00000000000000000000000000000000000000000018000002000400000000050000000000000000000000000000000000000000000e0000000002000000610a00000000000000000000000000000000000000000002020004000200000000000000000000000000000000000000000000000000000c000008000800000001200000000000000000000000000000000000000000000c0000080008000000000000000000000000000000000000000000000000000008040008000400000000000000000000000000000000000000000000000000000e0400000001000000410100000000000000000000000000000000000000000007000000000000000003741400000000000000000000000000000000000000000e0000000004000000610b00000000000000000000000000000000000000000002000004000400000000010000000000000000000000000000000000000000000c000002000200000001020000000000000000000000000000000000000000000c0000020002000000000000000000000000000000000000000000000000000004040002000000000000000000000000000000000000000000000000000000000a0000000000000000022e053e050000000000000000000000000000000000000e0000000008000000610a0000000000000000000000000000000000000000000e0000000002000000610900000000000000000000000000000000000000000004020000000000000000000000000000000000000000000000000000000000000a000000000000000004b30742050000000000000000000000000000000000000e000000000200000041000000000000000000000000000000000000000000001a000002000200000002ffffffff000000000000000000000000000000000000020000020002000000001f0000000000000000000000000000000000000000001a000002000200000002e0ffffff01000000000000000000000000000000000002020008000200000000000000000000000000000000000000000000000000000c000004000400000001ffffffffffffffff00000000000000000000000000000c0000040004000000000000000000000000000000000000000000000000000004020004000000000000000000000000000000000000000000000000000000000a000000000000000008fd054b050000000000000000000000000000000000000e000002000000000020020000000000000000000000000000000000000000000e000000000200000041000000000000000000000000000000000000000000001a000002000200000002c0ffffff00000000000000000000000000000000000004020000000000000000000000000000000000000000000000000000000000000a000000000000000004530650050000000000000000000000000000000000000208000000010000000000000000000000000000000000000000000000000000070000000000000000034c1400000000000000000000000000000000000000000e0000010000000000600b0000000000000000000000000000000000000000000e00000000010000006107000000000000000000000000000000000000000000070000000000000000034c1400000000000000000000000000000000000000000e0000000004000000610b000000000000000000000000000000000000000000020100000002000000000000000000000000000000000000000000000000000004040000000000000000000000000000000000000000000000000000000000000a000000000000000004620559050000000000000000000000000000000000000e000000000100000061040000000000000000000000000000000000000000000e0000020000000000600a0000000000000000000000000000000000000000000204000000020000000000000000000000000000000000000000000000000000070000000000000000039c0800000000000000000000000000000000000000000a0000000000000000025e0560050000000000000000000000000000000000000e0000000002000000610a0000000000000000000000000000000000000000000a0000000000000000019a089a080000000000000000000000000000000000000e0000000002000000610a0000000000000000000000000000000000000000000a0000000000000000016205620500000000000000000000000000000000000004020000000000000000000000000000000000000000000000000000000000000a0000000000000000043f0364050000000000000000000000000000000000000e00000000010000006103000000000000000000000000000000000000000000070000000000000000039c0800000000000000000000000000000000000000000a000000000000000002670568050000000000000000000000000000000000000a0000000000000000019a089a080000000000000000000000000000000000000a0000000000000000013f033f030000000000000000000000000000000000000c000002000200000001000000000000000000000000000000000000000000000c000002000200000000000000000000000000000000000000000000000000000e000002000000000000000000000000000000000000000000000000000000000a0000000000000000019a089a080000000000000000000000000000000000000c000002000200000001000000000000000000000000000000000000000000000c000002000200000000000000000000000000000000000000000000000000000e000002000000000000000000000000000000000000000000000000000000000a0000000000000000019a089a080000000000000000000000000000000000000c000002000200000001000000000000000000000000000000000000000000000c000002000200000000000000000000000000000000717b484e0000000000000e000002000000000020000000000000000000000000000000000000000000000c000001000100000001410000000000000000000000000000000000000000000c000001000100000000000000000000000000000000000000000000000000000c000002000200000001040000000000000000000000000000000000000000000c0000020002000000000000000000000000000000000000000000000000000007000000000000000003741400000000000000000000000000000000000000000c000002000200000001240000000000000000000000000000000000000000000c000002000200000000000000000000000000000000000000000000000000000e000002000000000000000000000000000000000000000000000000000000000c000004000400000001000000000000000000000000000000000000000000000c000004000400000000000000000000000000000000000000000000000000000c000002000200000001200000000000000000000000000000000000000000000c000002000200000000000000000000000000000000000000000000000000000a00000000000000000184058405000000000000000000000000000000000000020800000004000000000000000000000000000000000000000000000000000004100000000000000000000000000000000000000000000000000000000000000a00000000000000000a84051c06000000000000000000000000000000000000180000040008000000000500000000000000000000000000000000000000000008080002000800000000000000000000000000000000000000000000000000000e080000001000000021000000000000000000000000000000000000000000000e0800100000000000000100000000000000000000000000000000000000000002000004000800000000010000000000000000000000000000000000000000000c000010001000000001010000000000000000000000000000000000000000000c0000100010000000000000000000000000000000000000000000000000000004080004000000000000000000000000000000000000000000000000000000000a00000000000000000281058d050000000000000000000000000000000000000c000010001000000001000000000000000000000000000000000000000000000c000010001000000000000000000000000000000000000000000000000000000a000000000000000001810581050000000000000000000000000000000000000c000002000200000001000000000000000000000000000000000000000000000c000002000200000000000000000000000000000000000000000000000000000e000002000000000000000000000000000000000000000000000000000000000a0000000000000000019a089a080000000000000000000000000000000000000c000002000200000001000000000000000000000000000000000000000000000c000002000200000000000000000000000000000000717b484e0000000000000e000002000000000020000000000000000000000000000000000000000000000c000001000100000001410000000000000000000000000000000000000000000c000001000100000000000000000000000000000000000000000000000000000c000002000200000001040000000000000000000000000000000000000000000c0000020002000000000000000000000000000000000000000000000000000007000000000000000003741400000000000000000000000000000000000000000c000002000200000001240000000000000000000000000000000000000000000c000002000200000000000000000000000000000000000000000000000000000e000002000000000000000000000000000000000000000000000000000000000c000004000400000001000000000000000000000000000000000000000000000c000004000400000000000000000000000000000000000000000000000000000c000002000200000001200000000000000000000000000000000000000000000c000002000200000000000000000000000000000000000000000000000000000a000000000000000001a705a705000000000000000000000000000000000000020800000004000000000000000000000000000000000000000000000000000004100000000000000000000000000000000000000000000000000000000000000a00000000000000000aa7052706000000000000000000000000000000000000180000040008000000000500000000000000000000000000000000000000000008080002000800000000000000000000000000000000000000000000000000000e080000001000000021000000000000000000000000000000000000000000000e0800100000000000000100000000000000000000000000000000000000000002000004000800000000010000000000000000000000000000000000000000000c000010001000000001010000000000000000000000000000000000000000000c0000100010000000000000000000000000000000000000000000000000000004080004000000000000000000000000000000000000000000000000000000000a000000000000000002a405b0050000000000000000000000000000000000000c000010001000000001000000000000000000000000000000000000000000000c000010001000000000000000000000000000000000000000000000000000000a000000000000000001a405a4050000000000000000000000000000000000000c000002000200000001000000000000000000000000000000000000000000000c000002000200000000000000000000000000000000000000000000000000000e000002000000000000000000000000000000000000000000000000000000000a0000000000000000019a089a080000000000000000000000000000000000000c000002000200000001000000000000000000000000000000000000000000000c000002000200000000000000000000000000000000717b484e0000000000000e000002000000000020000000000000000000000000000000000000000000000c000001000100000001410000000000000000000000000000000000000000000c000001000100000000000000000000000000000000000000000000000000000c000002000200000001040000000000000000000000000000000000000000000c0000020002000000000000000000000000000000000000000000000000000007000000000000000003741400000000000000000000000000000000000000000c000002000200000001240000000000000000000000000000000000000000000c000002000200000000000000000000000000000000000000000000000000000e000002000000000000000000000000000000000000000000000000000000000c000004000400000001000000000000000000000000000000000000000000000c000004000400000000000000000000000000000000000000000000000000000c000002000200000001200000000000000000000000000000000000000000000c000002000200000000000000000000000000000000000000000000000000000a000000000000000001ca05ca05000000000000000000000000000000000000020800000004000000000000000000000000000000000000000000000000000004100000000000000000000000000000000000000000000000000000000000000a00000000000000000aca053206000000000000000000000000000000000000180000040008000000000500000000000000000000000000000000000000000008080002000800000000000000000000000000000000000000000000000000000e080000001000000021000000000000000000000000000000000000000000000e0800100000000000000100000000000000000000000000000000000000000002000004000800000000010000000000000000000000000000000000000000000c000010001000000001010000000000000000000000000000000000000000000c0000100010000000000000000000000000000000000000000000000000000004080004000000000000000000000000000000000000000000000000000000000a000000000000000002c705d3050000000000000000000000000000000000000c000010001000000001000000000000000000000000000000000000000000000c000010001000000000000000000000000000000000000000000000000000000a000000000000000001c705c7050000000000000000000000000000000000000c000002000200000001000000000000000000000000000000000000000000000c000002000200000000000000000000000000000000000000000000000000000e000002000000000000000000000000000000000000000000000000000000000a0000000000000000019a089a080000000000000000000000000000000000000c000002000200000001000000000000000000000000000000000000000000000c000002000200000000000000000000000000000000717b484e0000000000000e000002000000000020000000000000000000000000000000000000000000000c000001000100000001410000000000000000000000000000000000000000000c000001000100000000000000000000000000000000000000000000000000000c000002000200000001040000000000000000000000000000000000000000000c0000020002000000000000000000000000000000000000000000000000000007000000000000000003741400000000000000000000000000000000000000000c000002000200000001240000000000000000000000000000000000000000000c000002000200000000000000000000000000000000000000000000000000000e000002000000000000000000000000000000000000000000000000000000000c000004000400000001000000000000000000000000000000000000000000000c000004000400000000000000000000000000000000000000000000000000000c000002000200000001200000000000000000000000000000000000000000000c000002000200000000000000000000000000000000000000000000000000000a000000000000000001ed05ed05000000000000000000000000000000000000020800000004000000000000000000000000000000000000000000000000000004100000000000000000000000000000000000000000000000000000000000000a00000000000000000aed053d06000000000000000000000000000000000000180000040008000000000500000000000000000000000000000000000000000008080002000800000000000000000000000000000000000000000000000000000e080000001000000021000000000000000000000000000000000000000000000e0800100000000000000100000000000000000000000000000000000000000002000004000800000000010000000000000000000000000000000000000000000c000010001000000001010000000000000000000000000000000000000000000c0000100010000000000000000000000000000000000000000000000000000004080004000000000000000000000000000000000000000000000000000000000a000000000000000002ea05f6050000000000000000000000000000000000000c000010001000000001000000000000000000000000000000000000000000000c000010001000000000000000000000000000000000000000000000000000000a000000000000000001ea05ea050000000000000000000000000000000000000c000002000200000001000000000000000000000000000000000000000000000c000002000200000000000000000000000000000000000000000000000000000e000002000000000000000000000000000000000000000000000000000000000a0000000000000000019a089a080000000000000000000000000000000000000c000002000200000001000000000000000000000000000000000000000000000c000002000200000000000000000000000000000000717b484e0000000000000e000002000000000020000000000000000000000000000000000000000000000c000001000100000001410000000000000000000000000000000000000000000c000001000100000000000000000000000000000000000000000000000000000c000002000200000001040000000000000000000000000000000000000000000c0000020002000000000000000000000000000000000000000000000000000007000000000000000003741400000000000000000000000000000000000000000c000002000200000001240000000000000000000000000000000000000000000c000002000200000000000000000000000000000000000000000000000000000e000002000000000000000000000000000000000000000000000000000000000c000004000400000001000000000000000000000000000000000000000000000c000004000400000000000000000000000000000000000000000000000000000c000002000200000001200000000000000000000000000000000000000000000c000002000200000000000000000000000000000000000000000000000000000a00000000000000000110061006000000000000000000000000000000000000020800000004000000000000000000000000000000000000000000000000000004100000000000000000000000000000000000000000000000000000000000000a00000000000000000a10064806000000000000000000000000000000000000180000040008000000000500000000000000000000000000000000000000000008080002000800000000000000000000000000000000000000000000000000000e080000001000000021000000000000000000000000000000000000000000000e0800100000000000000100000000000000000000000000000000000000000002000004000800000000010000000000000000000000000000000000000000000c000010001000000001010000000000000000000000000000000000000000000c0000100010000000000000000000000000000000000000000000000000000004080004000000000000000000000000000000000000000000000000000000000a0000000000000000020d0619060000000000000000000000000000000000000c000010001000000001000000000000000000000000000000000000000000000c000010001000000000000000000000000000000000000000000000000000000a0000000000000000010d060d060000000000000000000000000000000000000c000002000200000001ffffffffffffffffffffffffffffffff0000000000000c000002000200000000ffffffffffffffffffffffff000000000000000000000e000000000400000001020000000000000000000000000000000000000000001a040002000200000002000000000000000000000000000000000000000000000c000004000400000001000000000000000000000000000000000000000000000c000004000400000000000000000000000000000000ffffffff0000000000000e000000000800000021010000000000000000000000000000000000000000001a080004000400000002000000000000000000000000000000000000000000001a040002000200000004000000000000000000000000000000000000000000000e000002000000000000020000000000000000000000000000000000000000000a0000000000000000019a089a080000000000000000000000000000000000000c000002000200000001ffffffffffffffffffffffffffffffff0000000000000c000002000200000000ffffffffffffffffffffffff000000000000000000000e000000000400000001020000000000000000000000000000000000000000001a040002000200000002000000000000000000000000000000000000000000000c000004000400000001000000000000000000000000000000000000000000000c000004000400000000000000000000000000000000ffffffff0000000000000e000000000800000021010000000000000000000000000000000000000000001a080004000400000002000000000000000000000000000000000000000000001a040002000200000004000000000000000000000000000000000000000000000e000002000000000000020000000000000000000000000000000000000000000a0000000000000000019a089a080000000000000000000000000000000000000c000002000200000001ffffffffffffffffffffffffffffffff0000000000000c000002000200000000ffffffffffffffffffffffff000000000000000000000e000000000400000001020000000000000000000000000000000000000000001a040002000200000002000000000000000000000000000000000000000000000c000004000400000001000000000000000000000000000000000000000000000c000004000400000000000000000000000000000000ffffffff0000000000000e000000000800000021010000000000000000000000000000000000000000001a080004000400000002000000000000000000000000000000000000000000001a040002000200000004000000000000000000000000000000000000000000000e000002000000000000020000000000000000000000000000000000000000000a0000000000000000019a089a080000000000000000000000000000000000000c000002000200000001ffffffffffffffffffffffffffffffff0000000000000c000002000200000000ffffffffffffffffffffffff000000000000000000000e000000000400000001020000000000000000000000000000000000000000001a040002000200000002000000000000000000000000000000000000000000000c000004000400000001000000000000000000000000000000000000000000000c000004000400000000000000000000000000000000ffffffff0000000000000e000000000800000021010000000000000000000000000000000000000000001a080004000400000002000000000000000000000000000000000000000000001a040002000200000004000000000000000000000000000000000000000000000e000002000000000000020000000000000000000000000000000000000000000a0000000000000000019a089a080000000000000000000000000000000000000c000002000200000001ffffffffffffffffffffffffffffffff0000000000000c000002000200000000ffffffffffffffffffffffff000000000000000000000e000000000400000001020000000000000000000000000000000000000000001a040002000200000002000000000000000000000000000000000000000000000c000004000400000001000000000000000000000000000000000000000000000c000004000400000000000000000000000000000000ffffffff0000000000000e000000000800000021010000000000000000000000000000000000000000001a080004000400000002000000000000000000000000000000000000000000001a040002000200000004000000000000000000000000000000000000000000000e000002000000000000020000000000000000000000000000000000000000000a0000000000000000019a089a080000000000000000000000000000000000000c000002000200000001000000000000000000000000000000000000000000000c000002000200000000000000000000000000000000000000000000000000000e000002000000000000000000000000000000000000000000000000000000000a0000000000000000019a089a080000000000000000000000000000000000000c000008000800000001000000000000000000000000000000000000000000000c000008000800000000000000000000000000000000000000000000000000000e000000000200000021020000000000000000000000000000000000000000000e0000020000000000600b0000000000000000000000000000000000000000000e000000000200000041000000000000000000000000000000000000000000001a0000020004000000021f0000000000000000000000000000000000000000000e000004000000000060080000000000000000000000000000000000000000001a000002000200000002e0ffffff0000000000000000000000000000000000000e0000020000000000600700000000000000000000000000000000000000000018000002000200000002050000000000000000000000000000000000000000000e0000020000000000600900000000000000000000000000000000000000000004020000000000000000000000000000000000000000000000000000000000000a000000000000000004720664060000000000000000000000000000000000000e0000080000000000600a00000000000000000000000000000000000000000018000008000400000000050000000000000000000000000000000000000000000e0000000002000000610b00000000000000000000000000000000000000000002020004000200000000000000000000000000000000000000000000000000000c000008000800000001200000000000000000000000000000000000000000000c0000080008000000000000000000000000000000000000000000000000000008040008000400000000000000000000000000000000000000000000000000000e0400000001000000410100000000000000000000000000000000000000000007000000000000000003741400000000000000000000000000000000000000000e0000000008000000610a00000000000000000000000000000000000000000002000008000800000000010000000000000000000000000000000000000000000e0000000002000000610900000000000000000000000000000000000000000004080002000000000000000000000000000000000000000000000000000000000a000000000000000002640672060000000000000000000000000000000000000e0000000002000000610b0000000000000000000000000000000000000000000e0000000002000000610800000000000000000000000000000000000000000004020000000000000000000000000000000000000000000000000000000000000a000000000000000004920676060000000000000000000000000000000000000e0000000002000000610800000000000000000000000000000000000000000018000002000200000000030000000000000000000000000000000000000000000c000004000400000001000100000000000000000000000000000000000000000c0000040004000000000000000000000000000000000000000000000000000004040002000400000000000000000000000000000000000000000000000000000c000008000800000001ffffffffffffffffffffffffffffffff0000000000000c000008000800000000ffffffffffffffffffffffffffffffff00000000000018040008000400000000000000000000000000000000000000000000000000000c000010001000000001200000000000000000000000000000000000000000000c000010001000000000000000000000000000000000000000000000000000000e0000000020000000610700000000000000000000000000000000000000000008200010001000000000000000000000000000000000000000000000000000000e100000001000000041010000000000000000000000000000000000000000001a100004000400000002000000000000000000000000000000000000000000000e0000040000000000600a00000000000000000000000000000000000000000018020008000200000002000000000000000000000000000000000000000000000e000002000000000060080000000000000000000000000000000000000000000e0000000002000000610b00000000000000000000000000000000000000000002020020000200000000000000000000000000000000000000000000000000000e000002000000000060090000000000000000000000000000000000000000000202000000010000000000000000000000000000000000000000000000000000070000000000000000034c1400000000000000000000000000000000000000000e000000000200000061080000000000000000000000000000000000000000001a010002000200000002000000000000000000000000000000000000000000000e0000000004000000610a0000000000000000000000000000000000000000001a040002000100000004000000000000000000000000000000000000000000000e0000000002000000610900000000000000000000000000000000000000000007000000000000000003741400000000000000000000000000000000000000000c000008000800000001000000000000000000000000000000000000000000000c000008000800000000000000000000000000000000000000000000000000000e000000000400000041000000000000000000000000000000000000000000001a0000040002000000021f0000000000000000000000000000000000000000000e000002000000000060070000000000000000000000000000000000000000000e000004000000000060060000000000000000000000000000000000000000001a000004000200000002ffffffff0000000000000000000000000000000000000e0000020000000000000000000000000000000000000000000000000000000018000002000200000002050000000000000000000000000000000000000000000e0000000004000000610b0000000000000000000000000000000000000000000e0000020000000000600800000000000000000000000000000000000000000004020000000000000000000000000000000000000000000000000000000000000a000000000000000004af069f060000000000000000000000000000000000000e0000080000000000600a00000000000000000000000000000000000000000018000008000400000000050000000000000000000000000000000000000000000e000004000000000060090000000000000000000000000000000000000000000e0000000002000000610b0000000000000000000000000000000000000000000202000400010000000000000000000000000000000000000000000000000000070000000000000000034c1400000000000000000000000000000000000000000e0000000008000000610a0000000000000000000000000000000000000000000c000002000200000001200000000000000000000000000000000000000000000c000002000200000000000000000000000000000000000000000000000000000e0000000004000000610900000000000000000000000000000000000000000008040002000200000000000000000000000000000000000000000000000000000e0200010000000000000100000000000000000000000000000000000000000002000008000800000000010000000000000000000000000000000000000000000e0000000002000000610800000000000000000000000000000000000000000004080002000000000000000000000000000000000000000000000000000000000a0000000000000000029f06af060000000000000000000000000000000000000e0000000002000000610700000000000000000000000000000000000000000004020000000000000000000000000000000000000000000000000000000000000a0000000000000000049a08b2060000000000000000000000000000000000000e000000000200000061060000000000000000000000000000000000000000001a000002000400000002e0ffffff0000000000000000000000000000000000000e0000040000000000600a0000000000000000000000000000000000000000000e0000000002000000610b0000000000000000000000000000000000000000000202000400010000000000000000000000000000000000000000000000000000070000000000000000034c1400000000000000000000000000000000000000000c000002000200000001200000000000000000000000000000000000000000000c000002000200000000000000000000000000000000000000000000000000000e0000000004000000610a00000000000000000000000000000000000000000008040002000200000000000000000000000000000000000000000000000000000e0000000004000000610700000000000000000000000000000000000000000018000004000400000000030000000000000000000000000000000000000000000c000008000800000001ffffffffffffffffffffffffffffffff0000000000000c000008000800000000ffffffffffffffffffffffffffffffff00000000000018040008001000000002000000000000000000000000000000000000000000000e020000002000000001010000000000000000000000000000000000000000001a200010001000000002000000000000000000000000000000000000000000000c000020002000000001000100000000000000000000000000000000000000000c00002000200000000000000000000000000000000000000000000000000000042000040004000000000000000000000000000000000000000000000000000018040008000400000000000000000000000000000000000000000000000000001a010004000400000002000000000000000000000000000000000000000000001a040010000400000004000000000000000000000000000000000000000000000e020004000000000000010000000000000000000000000000000000000000000a0000000000000000019a089a080000000000000000000000000000000000000c000008000800000001000000000000000000000000000000000000000000000c000008000800000000000000000000000000000000000000000000000000000e000000000200000021020000000000000000000000000000000000000000000e0000020000000000600b0000000000000000000000000000000000000000000e000000000200000041000000000000000000000000000000000000000000001a0000020004000000021f0000000000000000000000000000000000000000000e000004000000000060080000000000000000000000000000000000000000001a000002000200000002e0ffffff0000000000000000000000000000000000000e0000020000000000600700000000000000000000000000000000000000000018000002000200000002050000000000000000000000000000000000000000000e0000020000000000600900000000000000000000000000000000000000000004020000000000000000000000000000000000000000000000000000000000000a000000000000000004e606d8060000000000000000000000000000000000000e0000080000000000600a00000000000000000000000000000000000000000018000008000400000000050000000000000000000000000000000000000000000e0000000002000000610b00000000000000000000000000000000000000000002020004000200000000000000000000000000000000000000000000000000000c000008000800000001200000000000000000000000000000000000000000000c0000080008000000000000000000000000000000000000000000000000000008040008000400000000000000000000000000000000000000000000000000000e0400000001000000410100000000000000000000000000000000000000000007000000000000000003741400000000000000000000000000000000000000000e0000000008000000610a00000000000000000000000000000000000000000002000008000800000000010000000000000000000000000000000000000000000e0000000002000000610900000000000000000000000000000000000000000004080002000000000000000000000000000000000000000000000000000000000a000000000000000002d806e6060000000000000000000000000000000000000e0000000002000000610b0000000000000000000000000000000000000000000e0000000002000000610800000000000000000000000000000000000000000004020000000000000000000000000000000000000000000000000000000000000a0000000000000000040607ea060000000000000000000000000000000000000e0000000002000000610800000000000000000000000000000000000000000018000002000200000000030000000000000000000000000000000000000000000c000004000400000001000100000000000000000000000000000000000000000c0000040004000000000000000000000000000000000000000000000000000004040002000400000000000000000000000000000000000000000000000000000c000008000800000001ffffffffffffffffffffffffffffffff0000000000000c000008000800000000ffffffffffffffffffffffffffffffff00000000000018040008000400000000000000000000000000000000000000000000000000000c000010001000000001200000000000000000000000000000000000000000000c000010001000000000000000000000000000000000000000000000000000000e0000000020000000610700000000000000000000000000000000000000000008200010001000000000000000000000000000000000000000000000000000000e100000001000000041010000000000000000000000000000000000000000001a100004000400000002000000000000000000000000000000000000000000000e0000040000000000600a00000000000000000000000000000000000000000018020008000200000002000000000000000000000000000000000000000000000e000002000000000060080000000000000000000000000000000000000000000e0000000002000000610b00000000000000000000000000000000000000000002020020000200000000000000000000000000000000000000000000000000000e000002000000000060090000000000000000000000000000000000000000000202000000010000000000000000000000000000000000000000000000000000070000000000000000034c1400000000000000000000000000000000000000000e000000000200000061080000000000000000000000000000000000000000001a010002000200000002000000000000000000000000000000000000000000000e0000000004000000610a0000000000000000000000000000000000000000001a040002000100000004000000000000000000000000000000000000000000000e0000000002000000610900000000000000000000000000000000000000000007000000000000000003741400000000000000000000000000000000000000000c000008000800000001000000000000000000000000000000000000000000000c000008000800000000000000000000000000000000000000000000000000000e000000000400000041000000000000000000000000000000000000000000001a0000040002000000021f0000000000000000000000000000000000000000000e000002000000000060070000000000000000000000000000000000000000000e000004000000000060060000000000000000000000000000000000000000001a000004000200000002ffffffff0000000000000000000000000000000000000e0000020000000000000000000000000000000000000000000000000000000018000002000200000002050000000000000000000000000000000000000000000e0000000004000000610b0000000000000000000000000000000000000000000e0000020000000000600800000000000000000000000000000000000000000004020000000000000000000000000000000000000000000000000000000000000a000000000000000004230713070000000000000000000000000000000000000e0000080000000000600a00000000000000000000000000000000000000000018000008000400000000050000000000000000000000000000000000000000000e000004000000000060090000000000000000000000000000000000000000000e0000000002000000610b0000000000000000000000000000000000000000000202000400010000000000000000000000000000000000000000000000000000070000000000000000034c1400000000000000000000000000000000000000000e0000000008000000610a0000000000000000000000000000000000000000000c000002000200000001200000000000000000000000000000000000000000000c000002000200000000000000000000000000000000000000000000000000000e0000000004000000610900000000000000000000000000000000000000000008040002000200000000000000000000000000000000000000000000000000000e0200010000000000000100000000000000000000000000000000000000000002000008000800000000010000000000000000000000000000000000000000000e0000000002000000610800000000000000000000000000000000000000000004080002000000000000000000000000000000000000000000000000000000000a000000000000000002130723070000000000000000000000000000000000000e0000000002000000610700000000000000000000000000000000000000000004020000000000000000000000000000000000000000000000000000000000000a0000000000000000049a0826070000000000000000000000000000000000000e000000000200000061060000000000000000000000000000000000000000001a000002000400000002e0ffffff0000000000000000000000000000000000000e0000040000000000600a0000000000000000000000000000000000000000000e0000000002000000610b0000000000000000000000000000000000000000000202000400010000000000000000000000000000000000000000000000000000070000000000000000034c1400000000000000000000000000000000000000000c000002000200000001200000000000000000000000000000000000000000000c000002000200000000000000000000000000000000000000000000000000000e0000000004000000610a00000000000000000000000000000000000000000008040002000200000000000000000000000000000000000000000000000000000e0000000004000000610700000000000000000000000000000000000000000018000004000400000000030000000000000000000000000000000000000000000c000008000800000001ffffffffffffffffffffffffffffffff0000000000000c000008000800000000ffffffffffffffffffffffffffffffff00000000000018040008001000000002000000000000000000000000000000000000000000000e020000002000000001010000000000000000000000000000000000000000001a200010001000000002000000000000000000000000000000000000000000000c000020002000000001000100000000000000000000000000000000000000000c00002000200000000000000000000000000000000000000000000000000000042000040004000000000000000000000000000000000000000000000000000018040008000400000000000000000000000000000000000000000000000000001a010004000400000002000000000000000000000000000000000000000000001a040010000400000004000000000000000000000000000000000000000000000e020004000000000000010000000000000000000000000000000000000000000a0000000000000000019a089a080000000000000000000000000000000000000c000008000800000001000000000000000000000000000000000000000000000c000008000800000000000000000000000000000000000000000000000000000e000000000200000021020000000000000000000000000000000000000000000e0000020000000000600b0000000000000000000000000000000000000000000e000000000200000041000000000000000000000000000000000000000000001a0000020004000000021f0000000000000000000000000000000000000000000e000004000000000060080000000000000000000000000000000000000000001a000002000200000002e0ffffff0000000000000000000000000000000000000e0000020000000000600700000000000000000000000000000000000000000018000002000200000002050000000000000000000000000000000000000000000e0000020000000000600900000000000000000000000000000000000000000004020000000000000000000000000000000000000000000000000000000000000a0000000000000000045a074c070000000000000000000000000000000000000e0000080000000000600a00000000000000000000000000000000000000000018000008000400000000050000000000000000000000000000000000000000000e0000000002000000610b00000000000000000000000000000000000000000002020004000200000000000000000000000000000000000000000000000000000c000008000800000001200000000000000000000000000000000000000000000c0000080008000000000000000000000000000000000000000000000000000008040008000400000000000000000000000000000000000000000000000000000e0400000001000000410100000000000000000000000000000000000000000007000000000000000003741400000000000000000000000000000000000000000e0000000008000000610a00000000000000000000000000000000000000000002000008000800000000010000000000000000000000000000000000000000000e0000000002000000610900000000000000000000000000000000000000000004080002000000000000000000000000000000000000000000000000000000000a0000000000000000024c075a070000000000000000000000000000000000000e0000000002000000610b0000000000000000000000000000000000000000000e0000000002000000610800000000000000000000000000000000000000000004020000000000000000000000000000000000000000000000000000000000000a0000000000000000047a075e070000000000000000000000000000000000000e0000000002000000610800000000000000000000000000000000000000000018000002000200000000030000000000000000000000000000000000000000000c000004000400000001000100000000000000000000000000000000000000000c0000040004000000000000000000000000000000000000000000000000000004040002000400000000000000000000000000000000000000000000000000000c000008000800000001ffffffffffffffffffffffffffffffff0000000000000c000008000800000000ffffffffffffffffffffffffffffffff00000000000018040008000400000000000000000000000000000000000000000000000000000c000010001000000001200000000000000000000000000000000000000000000c000010001000000000000000000000000000000000000000000000000000000e0000000020000000610700000000000000000000000000000000000000000008200010001000000000000000000000000000000000000000000000000000000e100000001000000041010000000000000000000000000000000000000000001a100004000400000002000000000000000000000000000000000000000000000e0000040000000000600a00000000000000000000000000000000000000000018020008000200000002000000000000000000000000000000000000000000000e000002000000000060080000000000000000000000000000000000000000000e0000000002000000610b00000000000000000000000000000000000000000002020020000200000000000000000000000000000000000000000000000000000e000002000000000060090000000000000000000000000000000000000000000202000000010000000000000000000000000000000000000000000000000000070000000000000000034c1400000000000000000000000000000000000000000e000000000200000061080000000000000000000000000000000000000000001a010002000200000002000000000000000000000000000000000000000000000e0000000004000000610a0000000000000000000000000000000000000000001a040002000100000004000000000000000000000000000000000000000000000e0000000002000000610900000000000000000000000000000000000000000007000000000000000003741400000000000000000000000000000000000000000c000008000800000001000000000000000000000000000000000000000000000c000008000800000000000000000000000000000000000000000000000000000e000000000400000041000000000000000000000000000000000000000000001a0000040002000000021f0000000000000000000000000000000000000000000e000002000000000060070000000000000000000000000000000000000000000e000004000000000060060000000000000000000000000000000000000000001a000004000200000002ffffffff0000000000000000000000000000000000000e0000020000000000000000000000000000000000000000000000000000000018000002000200000002050000000000000000000000000000000000000000000e0000000004000000610b0000000000000000000000000000000000000000000e0000020000000000600800000000000000000000000000000000000000000004020000000000000000000000000000000000000000000000000000000000000a000000000000000004970787070000000000000000000000000000000000000e0000080000000000600a00000000000000000000000000000000000000000018000008000400000000050000000000000000000000000000000000000000000e000004000000000060090000000000000000000000000000000000000000000e0000000002000000610b0000000000000000000000000000000000000000000202000400010000000000000000000000000000000000000000000000000000070000000000000000034c1400000000000000000000000000000000000000000e0000000008000000610a0000000000000000000000000000000000000000000c000002000200000001200000000000000000000000000000000000000000000c000002000200000000000000000000000000000000000000000000000000000e0000000004000000610900000000000000000000000000000000000000000008040002000200000000000000000000000000000000000000000000000000000e0200010000000000000100000000000000000000000000000000000000000002000008000800000000010000000000000000000000000000000000000000000e0000000002000000610800000000000000000000000000000000000000000004080002000000000000000000000000000000000000000000000000000000000a000000000000000002870797070000000000000000000000000000000000000e0000000002000000610700000000000000000000000000000000000000000004020000000000000000000000000000000000000000000000000000000000000a0000000000000000049a089a070000000000000000000000000000000000000e000000000200000061060000000000000000000000000000000000000000001a000002000400000002e0ffffff0000000000000000000000000000000000000e0000040000000000600a0000000000000000000000000000000000000000000e0000000002000000610b0000000000000000000000000000000000000000000202000400010000000000000000000000000000000000000000000000000000070000000000000000034c1400000000000000000000000000000000000000000c000002000200000001200000000000000000000000000000000000000000000c000002000200000000000000000000000000000000000000000000000000000e0000000004000000610a00000000000000000000000000000000000000000008040002000200000000000000000000000000000000000000000000000000000e0000000004000000610700000000000000000000000000000000000000000018000004000400000000030000000000000000000000000000000000000000000c000008000800000001ffffffffffffffffffffffffffffffff0000000000000c000008000800000000ffffffffffffffffffffffffffffffff00000000000018040008001000000002000000000000000000000000000000000000000000000e020000002000000001010000000000000000000000000000000000000000001a200010001000000002000000000000000000000000000000000000000000000c000020002000000001000100000000000000000000000000000000000000000c00002000200000000000000000000000000000000000000000000000000000042000040004000000000000000000000000000000000000000000000000000018040008000400000000000000000000000000000000000000000000000000001a010004000400000002000000000000000000000000000000000000000000001a040010000400000004000000000000000000000000000000000000000000000e020004000000000000010000000000000000000000000000000000000000000a0000000000000000019a089a080000000000000000000000000000000000000c000008000800000001000000000000000000000000000000000000000000000c000008000800000000000000000000000000000000000000000000000000000e000000000200000021020000000000000000000000000000000000000000000e0000020000000000600b0000000000000000000000000000000000000000000e000000000200000041000000000000000000000000000000000000000000001a0000020004000000021f0000000000000000000000000000000000000000000e000004000000000060080000000000000000000000000000000000000000001a000002000200000002e0ffffff0000000000000000000000000000000000000e0000020000000000600700000000000000000000000000000000000000000018000002000200000002050000000000000000000000000000000000000000000e0000020000000000600900000000000000000000000000000000000000000004020000000000000000000000000000000000000000000000000000000000000a000000000000000004ce07c0070000000000000000000000000000000000000e0000080000000000600a00000000000000000000000000000000000000000018000008000400000000050000000000000000000000000000000000000000000e0000000002000000610b00000000000000000000000000000000000000000002020004000200000000000000000000000000000000000000000000000000000c000008000800000001200000000000000000000000000000000000000000000c0000080008000000000000000000000000000000000000000000000000000008040008000400000000000000000000000000000000000000000000000000000e0400000001000000410100000000000000000000000000000000000000000007000000000000000003741400000000000000000000000000000000000000000e0000000008000000610a00000000000000000000000000000000000000000002000008000800000000010000000000000000000000000000000000000000000e0000000002000000610900000000000000000000000000000000000000000004080002000000000000000000000000000000000000000000000000000000000a000000000000000002c007ce070000000000000000000000000000000000000e0000000002000000610b0000000000000000000000000000000000000000000e0000000002000000610800000000000000000000000000000000000000000004020000000000000000000000000000000000000000000000000000000000000a000000000000000004ee07d2070000000000000000000000000000000000000e0000000002000000610800000000000000000000000000000000000000000018000002000200000000030000000000000000000000000000000000000000000c000004000400000001000100000000000000000000000000000000000000000c0000040004000000000000000000000000000000000000000000000000000004040002000400000000000000000000000000000000000000000000000000000c000008000800000001ffffffffffffffffffffffffffffffff0000000000000c000008000800000000ffffffffffffffffffffffffffffffff00000000000018040008000400000000000000000000000000000000000000000000000000000c000010001000000001200000000000000000000000000000000000000000000c000010001000000000000000000000000000000000000000000000000000000e0000000020000000610700000000000000000000000000000000000000000008200010001000000000000000000000000000000000000000000000000000000e100000001000000041010000000000000000000000000000000000000000001a100004000400000002000000000000000000000000000000000000000000000e0000040000000000600a00000000000000000000000000000000000000000018020008000200000002000000000000000000000000000000000000000000000e000002000000000060080000000000000000000000000000000000000000000e0000000002000000610b00000000000000000000000000000000000000000002020020000200000000000000000000000000000000000000000000000000000e000002000000000060090000000000000000000000000000000000000000000202000000010000000000000000000000000000000000000000000000000000070000000000000000034c1400000000000000000000000000000000000000000e000000000200000061080000000000000000000000000000000000000000001a010002000200000002000000000000000000000000000000000000000000000e0000000004000000610a0000000000000000000000000000000000000000001a040002000100000004000000000000000000000000000000000000000000000e0000000002000000610900000000000000000000000000000000000000000007000000000000000003741400000000000000000000000000000000000000000c000008000800000001000000000000000000000000000000000000000000000c000008000800000000000000000000000000000000000000000000000000000e000000000400000041000000000000000000000000000000000000000000001a0000040002000000021f0000000000000000000000000000000000000000000e000002000000000060070000000000000000000000000000000000000000000e000004000000000060060000000000000000000000000000000000000000001a000004000200000002ffffffff0000000000000000000000000000000000000e0000020000000000000000000000000000000000000000000000000000000018000002000200000002050000000000000000000000000000000000000000000e0000000004000000610b0000000000000000000000000000000000000000000e0000020000000000600800000000000000000000000000000000000000000004020000000000000000000000000000000000000000000000000000000000000a0000000000000000040b08fb070000000000000000000000000000000000000e0000080000000000600a00000000000000000000000000000000000000000018000008000400000000050000000000000000000000000000000000000000000e000004000000000060090000000000000000000000000000000000000000000e0000000002000000610b0000000000000000000000000000000000000000000202000400010000000000000000000000000000000000000000000000000000070000000000000000034c1400000000000000000000000000000000000000000e0000000008000000610a0000000000000000000000000000000000000000000c000002000200000001200000000000000000000000000000000000000000000c000002000200000000000000000000000000000000000000000000000000000e0000000004000000610900000000000000000000000000000000000000000008040002000200000000000000000000000000000000000000000000000000000e0200010000000000000100000000000000000000000000000000000000000002000008000800000000010000000000000000000000000000000000000000000e0000000002000000610800000000000000000000000000000000000000000004080002000000000000000000000000000000000000000000000000000000000a000000000000000002fb070b080000000000000000000000000000000000000e0000000002000000610700000000000000000000000000000000000000000004020000000000000000000000000000000000000000000000000000000000000a0000000000000000049a080e080000000000000000000000000000000000000e000000000200000061060000000000000000000000000000000000000000001a000002000400000002e0ffffff0000000000000000000000000000000000000e0000040000000000600a0000000000000000000000000000000000000000000e0000000002000000610b0000000000000000000000000000000000000000000202000400010000000000000000000000000000000000000000000000000000070000000000000000034c1400000000000000000000000000000000000000000c000002000200000001200000000000000000000000000000000000000000000c000002000200000000000000000000000000000000000000000000000000000e0000000004000000610a00000000000000000000000000000000000000000008040002000200000000000000000000000000000000000000000000000000000e0000000004000000610700000000000000000000000000000000000000000018000004000400000000030000000000000000000000000000000000000000000c000008000800000001ffffffffffffffffffffffffffffffff0000000000000c000008000800000000ffffffffffffffffffffffffffffffff00000000000018040008001000000002000000000000000000000000000000000000000000000e020000002000000001010000000000000000000000000000000000000000001a200010001000000002000000000000000000000000000000000000000000000c000020002000000001000100000000000000000000000000000000000000000c00002000200000000000000000000000000000000000000000000000000000042000040004000000000000000000000000000000000000000000000000000018040008000400000000000000000000000000000000000000000000000000001a010004000400000002000000000000000000000000000000000000000000001a040010000400000004000000000000000000000000000000000000000000000e020004000000000000010000000000000000000000000000000000000000000a0000000000000000019a089a080000000000000000000000000000000000000c000008000800000001000000000000000000000000000000000000000000000c000008000800000000000000000000000000000000000000000000000000000e000000000200000021020000000000000000000000000000000000000000000e0000020000000000600b0000000000000000000000000000000000000000000e000000000200000041000000000000000000000000000000000000000000001a0000020004000000021f0000000000000000000000000000000000000000000e000004000000000060080000000000000000000000000000000000000000001a000002000200000002e0ffffff0000000000000000000000000000000000000e0000020000000000600700000000000000000000000000000000000000000018000002000200000002050000000000000000000000000000000000000000000e0000020000000000600900000000000000000000000000000000000000000004020000000000000000000000000000000000000000000000000000000000000a000000000000000004420834080000000000000000000000000000000000000e0000080000000000600a00000000000000000000000000000000000000000018000008000400000000050000000000000000000000000000000000000000000e0000000002000000610b00000000000000000000000000000000000000000002020004000200000000000000000000000000000000000000000000000000000c000008000800000001200000000000000000000000000000000000000000000c0000080008000000000000000000000000000000000000000000000000000008040008000400000000000000000000000000000000000000000000000000000e0400000001000000410100000000000000000000000000000000000000000007000000000000000003741400000000000000000000000000000000000000000e0000000008000000610a00000000000000000000000000000000000000000002000008000800000000010000000000000000000000000000000000000000000e0000000002000000610900000000000000000000000000000000000000000004080002000000000000000000000000000000000000000000000000000000000a000000000000000002340842080000000000000000000000000000000000000e0000000002000000610b0000000000000000000000000000000000000000000e0000000002000000610800000000000000000000000000000000000000000004020000000000000000000000000000000000000000000000000000000000000a000000000000000004620846080000000000000000000000000000000000000e0000000002000000610800000000000000000000000000000000000000000018000002000200000000030000000000000000000000000000000000000000000c000004000400000001000100000000000000000000000000000000000000000c0000040004000000000000000000000000000000000000000000000000000004040002000400000000000000000000000000000000000000000000000000000c000008000800000001ffffffffffffffffffffffffffffffff0000000000000c000008000800000000ffffffffffffffffffffffffffffffff00000000000018040008000400000000000000000000000000000000000000000000000000000c000010001000000001200000000000000000000000000000000000000000000c000010001000000000000000000000000000000000000000000000000000000e0000000020000000610700000000000000000000000000000000000000000008200010001000000000000000000000000000000000000000000000000000000e100000001000000041010000000000000000000000000000000000000000001a100004000400000002000000000000000000000000000000000000000000000e0000040000000000600a00000000000000000000000000000000000000000018020008000200000002000000000000000000000000000000000000000000000e000002000000000060080000000000000000000000000000000000000000000e0000000002000000610b00000000000000000000000000000000000000000002020020000200000000000000000000000000000000000000000000000000000e000002000000000060090000000000000000000000000000000000000000000202000000010000000000000000000000000000000000000000000000000000070000000000000000034c1400000000000000000000000000000000000000000e000000000200000061080000000000000000000000000000000000000000001a010002000200000002000000000000000000000000000000000000000000000e0000000004000000610a0000000000000000000000000000000000000000001a040002000100000004000000000000000000000000000000000000000000000e0000000002000000610900000000000000000000000000000000000000000007000000000000000003741400000000000000000000000000000000000000000c000008000800000001000000000000000000000000000000000000000000000c000008000800000000000000000000000000000000000000000000000000000e000000000400000041000000000000000000000000000000000000000000001a0000040002000000021f0000000000000000000000000000000000000000000e000002000000000060070000000000000000000000000000000000000000000e000004000000000060060000000000000000000000000000000000000000001a000004000200000002ffffffff0000000000000000000000000000000000000e0000020000000000000000000000000000000000000000000000000000000018000002000200000002050000000000000000000000000000000000000000000e0000000004000000610b0000000000000000000000000000000000000000000e0000020000000000600800000000000000000000000000000000000000000004020000000000000000000000000000000000000000000000000000000000000a0000000000000000047f086f080000000000000000000000000000000000000e0000080000000000600a00000000000000000000000000000000000000000018000008000400000000050000000000000000000000000000000000000000000e000004000000000060090000000000000000000000000000000000000000000e0000000002000000610b0000000000000000000000000000000000000000000202000400010000000000000000000000000000000000000000000000000000070000000000000000034c1400000000000000000000000000000000000000000e0000000008000000610a0000000000000000000000000000000000000000000c000002000200000001200000000000000000000000000000000000000000000c000002000200000000000000000000000000000000000000000000000000000e0000000004000000610900000000000000000000000000000000000000000008040002000200000000000000000000000000000000000000000000000000000e0200010000000000000100000000000000000000000000000000000000000002000008000800000000010000000000000000000000000000000000000000000e0000000002000000610800000000000000000000000000000000000000000004080002000000000000000000000000000000000000000000000000000000000a0000000000000000026f087f080000000000000000000000000000000000000e0000000002000000610700000000000000000000000000000000000000000004020000000000000000000000000000000000000000000000000000000000000a0000000000000000049a0882080000000000000000000000000000000000000e000000000200000061060000000000000000000000000000000000000000001a000002000400000002e0ffffff0000000000000000000000000000000000000e0000040000000000600a0000000000000000000000000000000000000000000e0000000002000000610b0000000000000000000000000000000000000000000202000400010000000000000000000000000000000000000000000000000000070000000000000000034c1400000000000000000000000000000000000000000c000002000200000001200000000000000000000000000000000000000000000c000002000200000000000000000000000000000000000000000000000000000e0000000004000000610a00000000000000000000000000000000000000000008040002000200000000000000000000000000000000000000000000000000000e0000000004000000610700000000000000000000000000000000000000000018000004000400000000030000000000000000000000000000000000000000000c000008000800000001ffffffffffffffffffffffffffffffff0000000000000c000008000800000000ffffffffffffffffffffffffffffffff00000000000018040008001000000002000000000000000000000000000000000000000000000e020000002000000001010000000000000000000000000000000000000000001a200010001000000002000000000000000000000000000000000000000000000c000020002000000001000100000000000000000000000000000000000000000c00002000200000000000000000000000000000000000000000000000000000042000040004000000000000000000000000000000000000000000000000000018040008000400000000000000000000000000000000000000000000000000001a010004000400000002000000000000000000000000000000000000000000001a040010000400000004000000000000000000000000000000000000000000000e020004000000000000010000000000000000000000000000000000000000000e0000000000000000e10a00000000000000000000000000000000000000000007000000000000000004000000000000000000000000000000000000000000000e0000000000000000e005000000000000000000000000000000000000000000020200000010000000000000000000000000000000000000000000000000000002010000002000000000000000000000000000000000000000000000000000000c000002000200000001020000000000000000000000000000000000000000000c0000020002000000000000000000000000000000000000000000000000000005020000000200000001000000000000000000000000000000000000000000001a020020000400000008000000000000000000000000000000000000000000000c000008000800000001ffffffffffffffffffffffffffffffff0000000000000c000008000800000000ffffffff0000000000000000000000000000000000001a040008000400000002000000000000000000000000000000000000000000001a020008000800000002000000000000000000000000000000000000000000000e0000100000000000600300000000000000000000000000000000000000000004040000000000000000000000000000000000000000000000000000000000000a000000000000000004b608aa080000000000000000000000000000000000000e000020000000000060060000000000000000000000000000000000000000000220000000010000000000000000000000000000000000000000000000000000020800000002000000000000000000000000000000000000000000000000000007000000000000000003b40900000000000000000000000000000000000000000a000000000000000002af08b0080000000000000000000000000000000000000a000000000000000001b209b2090000000000000000000000000000000000000e000000000100000061030000000000000000000000000000000000000000000e0000000002000000610600000000000000000000000000000000000000000007000000000000000003df0b00000000000000000000000000000000000000000a000000000000000002b408b5080000000000000000000000000000000000000a000000000000000001b209b2090000000000000000000000000000000000000a000000000000000001130913090000000000000000000000000000000000000c000001000100000001000000000000000000000000000000000000000000000c0000010001000000000000000000000000000000004d7d1a2e0000000000000e000000000200000021020000000000000000000000000000000000000000000e000002000000000060040000000000000000000000000000000000000000000e0000080000000000600200000000000000000000000000000000000000000007000000000000000003741400000000000000000000000000000000000000000e0000000002000000610400000000000000000000000000000000000000000002000002000200000000040000000000000000000000000000000000000000000e00000000040000006103000000000000000000000000000000000000000000020400000001000000000000000000000000000000000000000000000000000007000000000000000003741400000000000000000000000000000000000000000c000002000200000001040000000000000000000000000000000000000000000c000002000200000000000000000000000000000000000000000000000000000e0000000004000000610200000000000000000000000000000000000000000004040002000000000000000000000000000000000000000000000000000000000a000000000000000004f508c60800000000000000000000000000000000000010000000000000000000000000000000000000000000000000000000000000000c000002000200000001240000000000000000000000000000000000000000000c000002000200000000000000000000000000000000000000000000000000000e000002000000000040000000000000000000000000000000000000000000000c000008000800000001000000000000000000000000000000000000000000000c000008000800000000000000000000000000000000000000000000000000000e000000000200000061040000000000000000000000000000000000000000000a000000000000000001d208d20800000000000000000000000000000000000002020000000800000000000000000000000000000000000000000000000000000e0000000002000000610400000000000000000000000000000000000000000004040000000000000000000000000000000000000000000000000000000000000a00000000000000000ad208e5080000000000000000000000000000000000000e0000080000000000600600000000000000000000000000000000000000000018000008000400000000050000000000000000000000000000000000000000000e000004000000000060050000000000000000000000000000000000000000000202000400010000000000000000000000000000000000000000000000000000070000000000000000034c1400000000000000000000000000000000000000000c000002000200000001200000000000000000000000000000000000000000000c000002000200000000000000000000000000000000000000000000000000000e0000000004000000610500000000000000000000000000000000000000000008040002000200000000000000000000000000000000000000000000000000000e020001000000000040010000000000000000000000000000000000000000000e0000000008000000610600000000000000000000000000000000000000000002000008000200000000010000000000000000000000000000000000000000000c000004000400000001010000000000000000000000000000000000000000000c0000040004000000000000000000000000000000000000000000000000000004020008000000000000000000000000000000000000000000000000000000000a000000000000000002ce08e2080000000000000000000000000000000000000c000004000400000001000000000000000000000000000000000000000000000c000004000400000000000000000000000000000000000000000000000000000a000000000000000001ce08ce080000000000000000000000000000000000000200000200010000000020000000000000000000000000000000000000000000070000000000000000034c1400000000000000000000000000000000000000000c000002000200000001ffffffffffffffffffffffffffffffff0000000000000c000002000200000000ffffffffffffffffffffffff000000000000000000000e000000000400000041020000000000000000000000000000000000000000001a040002000200000002000000000000000000000000000000000000000000000c000004000400000001000000000000000000000000000000000000000000000c000004000400000000000000000000000000000000ffffffff0000000000001a010004000400000002000000000000000000000000000000000000000000001a040002000200000004000000000000000000000000000000000000000000000e000002000000000040020000000000000000000000000000000000000000000e000000000200000061020000000000000000000000000000000000000000001800000200010000000020000000000000000000000000000000000000000000070000000000000000039b14000000000000000000000000000000000000000004010000000000000000000000000000000000000000000000000000000000000a0000000000000000043f09f5080000000000000000000000000000000000000e000000000200000041000000000000000000000000000000000000000000001a000002000200000002ffffffff000000000000000000000000000000000000020000020002000000001f0000000000000000000000000000000000000000001a000002000800000002e0ffffff0100000000000000000000000000000000000e0000000002000000610400000000000000000000000000000000000000000002080002001000000000000000000000000000000000000000000000000000000c000004000400000001010000000000000000000000000000000000000000000c0000040004000000000000000000000000000000000000000000000000000004100008000000000000000000000000000000000000000000000000000000000a0000000000000000020109ff080000000000000000000000000000000000000c000004000400000001000000000000000000000000000000000000000000000c000004000400000000000000000000000000000000000000000000000000000c000008000800000001ffffffffffffffff00000000000000000000000000000c000008000800000000000000000000000000000000000000000000000000000e0000000002000000610300000000000000000000000000000000000000000004100008000000000000000000000000000000000000000000000000000000000a0000000000000000081509060900000000000000000000000000000000000004040000000000000000000000000000000000000000000000000000000000000a00000000000000000a150908090000000000000000000000000000000000000e000010000000000020020000000000000000000000000000000000000000000c000004000400000001030000000000000000000000000000000000000000000c0000040004000000000000000000000000000000000000000000000000000005040000000800000001000000000000000000000000000000000000000000000c000004000400000001ffffffffffffffffffffffffffffffff0000000000000c000004000400000000ffffffff0000000000000000000000000000000000001a0800040001000000020000000000000000000000000000000000000000000007000000000000000003b21300000000000000000000000000000000000000000a000000000000000002110912090000000000000000000000000000000000000a000000000000000001b209b2090000000000000000000000000000000000000a000000000000000001130913090000000000000000000000000000000000000e0000000000000000e10500000000000000000000000000000000000000000007000000000000000000000000000000000000000000000000000000000000000c000002000200000001000000000000000000000000000000000000000000000c000002000200000000000000000000000000000000717b484e0000000000000e000002000000000020000000000000000000000000000000000000000000000c000001000100000001410000000000000000000000000000000000000000000c000001000100000000000000000000000000000000000000000000000000000c000002000200000001040000000000000000000000000000000000000000000c0000020002000000000000000000000000000000000000000000000000000007000000000000000003741400000000000000000000000000000000000000000c000002000200000001240000000000000000000000000000000000000000000c000002000200000000000000000000000000000000000000000000000000000e000002000000000000000000000000000000000000000000000000000000000c000004000400000001000000000000000000000000000000000000000000000c000004000400000000000000000000000000000000000000000000000000000c000002000200000001200000000000000000000000000000000000000000000c000002000200000000000000000000000000000000000000000000000000000a00000000000000000128092809000000000000000000000000000000000000020800000004000000000000000000000000000000000000000000000000000004100000000000000000000000000000000000000000000000000000000000000a00000000000000000a28093409000000000000000000000000000000000000180000040008000000000500000000000000000000000000000000000000000008080002000800000000000000000000000000000000000000000000000000000e080000001000000021000000000000000000000000000000000000000000000e0800100000000000000100000000000000000000000000000000000000000002000004000800000000010000000000000000000000000000000000000000000c000010001000000001010000000000000000000000000000000000000000000c0000100010000000000000000000000000000000000000000000000000000004080004000000000000000000000000000000000000000000000000000000000a000000000000000002250931090000000000000000000000000000000000000c000010001000000001000000000000000000000000000000000000000000000c000010001000000000000000000000000000000000000000000000000000000a000000000000000001250925090000000000000000000000000000000000000c000002000200000001ffffffffffffffffffffffffffffffff0000000000000c000002000200000000ffffffffffffffffffffffff000000000000000000000e000000000400000001020000000000000000000000000000000000000000001a040002000200000002000000000000000000000000000000000000000000000c000004000400000001000000000000000000000000000000000000000000000c000004000400000000000000000000000000000000ffffffff0000000000000e000000000800000021010000000000000000000000000000000000000000001a080004000400000002000000000000000000000000000000000000000000001a040002000200000004000000000000000000000000000000000000000000000e000002000000000000020000000000000000000000000000000000000000000a000000000000000001b209b2090000000000000000000000000000000000000c000008000800000001000000000000000000000000000000000000000000000c000008000800000000000000000000000000000000000000000000000000000e000000000200000021020000000000000000000000000000000000000000000e000002000000000060060000000000000000000000000000000000000000000e000000000200000041000000000000000000000000000000000000000000001a0000020004000000021f0000000000000000000000000000000000000000000e000004000000000060030000000000000000000000000000000000000000001a000002000200000002e0ffffff0000000000000000000000000000000000000e0000020000000000600200000000000000000000000000000000000000000018000002000200000002050000000000000000000000000000000000000000000e0000020000000000600400000000000000000000000000000000000000000004020000000000000000000000000000000000000000000000000000000000000a0000000000000000045a094c090000000000000000000000000000000000000e0000080000000000600500000000000000000000000000000000000000000018000008000400000000050000000000000000000000000000000000000000000e0000000002000000610600000000000000000000000000000000000000000002020004000200000000000000000000000000000000000000000000000000000c000008000800000001200000000000000000000000000000000000000000000c0000080008000000000000000000000000000000000000000000000000000008040008000400000000000000000000000000000000000000000000000000000e0400000001000000410100000000000000000000000000000000000000000007000000000000000003741400000000000000000000000000000000000000000e0000000008000000610500000000000000000000000000000000000000000002000008000800000000010000000000000000000000000000000000000000000e0000000002000000610400000000000000000000000000000000000000000004080002000000000000000000000000000000000000000000000000000000000a0000000000000000024c095a090000000000000000000000000000000000000e000000000200000061060000000000000000000000000000000000000000000e0000000002000000610300000000000000000000000000000000000000000004020000000000000000000000000000000000000000000000000000000000000a0000000000000000047a095e090000000000000000000000000000000000000e0000000002000000610300000000000000000000000000000000000000000018000002000200000000030000000000000000000000000000000000000000000c000004000400000001000100000000000000000000000000000000000000000c0000040004000000000000000000000000000000000000000000000000000004040002000400000000000000000000000000000000000000000000000000000c000008000800000001ffffffffffffffffffffffffffffffff0000000000000c000008000800000000ffffffffffffffffffffffffffffffff00000000000018040008000400000000000000000000000000000000000000000000000000000c000010001000000001200000000000000000000000000000000000000000000c000010001000000000000000000000000000000000000000000000000000000e0000000020000000610200000000000000000000000000000000000000000008200010001000000000000000000000000000000000000000000000000000000e100000001000000041010000000000000000000000000000000000000000001a100004000400000002000000000000000000000000000000000000000000000e0000040000000000600500000000000000000000000000000000000000000018020008000200000002000000000000000000000000000000000000000000000e000002000000000060030000000000000000000000000000000000000000000e0000000002000000610600000000000000000000000000000000000000000002020020000200000000000000000000000000000000000000000000000000000e000002000000000060040000000000000000000000000000000000000000000202000000010000000000000000000000000000000000000000000000000000070000000000000000034c1400000000000000000000000000000000000000000e000000000200000061030000000000000000000000000000000000000000001a010002000200000002000000000000000000000000000000000000000000000e000000000400000061050000000000000000000000000000000000000000001a040002000100000004000000000000000000000000000000000000000000000e0000000002000000610400000000000000000000000000000000000000000007000000000000000003741400000000000000000000000000000000000000000c000008000800000001000000000000000000000000000000000000000000000c000008000800000000000000000000000000000000000000000000000000000e000000000400000041000000000000000000000000000000000000000000001a0000040002000000021f0000000000000000000000000000000000000000000e000002000000000060020000000000000000000000000000000000000000000e000004000000000060010000000000000000000000000000000000000000001a000004000200000002ffffffff0000000000000000000000000000000000000e0000020000000000000000000000000000000000000000000000000000000018000002000200000002050000000000000000000000000000000000000000000e000000000400000061060000000000000000000000000000000000000000000e0000020000000000600300000000000000000000000000000000000000000004020000000000000000000000000000000000000000000000000000000000000a000000000000000004970987090000000000000000000000000000000000000e0000080000000000600500000000000000000000000000000000000000000018000008000400000000050000000000000000000000000000000000000000000e000004000000000060040000000000000000000000000000000000000000000e000000000200000061060000000000000000000000000000000000000000000202000400010000000000000000000000000000000000000000000000000000070000000000000000034c1400000000000000000000000000000000000000000e000000000800000061050000000000000000000000000000000000000000000c000002000200000001200000000000000000000000000000000000000000000c000002000200000000000000000000000000000000000000000000000000000e0000000004000000610400000000000000000000000000000000000000000008040002000200000000000000000000000000000000000000000000000000000e0200010000000000000100000000000000000000000000000000000000000002000008000800000000010000000000000000000000000000000000000000000e0000000002000000610300000000000000000000000000000000000000000004080002000000000000000000000000000000000000000000000000000000000a000000000000000002870997090000000000000000000000000000000000000e0000000002000000610200000000000000000000000000000000000000000004020000000000000000000000000000000000000000000000000000000000000a000000000000000004b2099a090000000000000000000000000000000000000e000000000200000061010000000000000000000000000000000000000000001a000002000400000002e0ffffff0000000000000000000000000000000000000e000004000000000060050000000000000000000000000000000000000000000e000000000200000061060000000000000000000000000000000000000000000202000400010000000000000000000000000000000000000000000000000000070000000000000000034c1400000000000000000000000000000000000000000c000002000200000001200000000000000000000000000000000000000000000c000002000200000000000000000000000000000000000000000000000000000e0000000004000000610500000000000000000000000000000000000000000008040002000200000000000000000000000000000000000000000000000000000e0000000004000000610200000000000000000000000000000000000000000018000004000400000000030000000000000000000000000000000000000000000c000008000800000001ffffffffffffffffffffffffffffffff0000000000000c000008000800000000ffffffffffffffffffffffffffffffff00000000000018040008001000000002000000000000000000000000000000000000000000000e020000002000000001010000000000000000000000000000000000000000001a200010001000000002000000000000000000000000000000000000000000000c000020002000000001000100000000000000000000000000000000000000000c00002000200000000000000000000000000000000000000000000000000000042000040004000000000000000000000000000000000000000000000000000018040008000400000000000000000000000000000000000000000000000000001a010004000400000002000000000000000000000000000000000000000000001a040010000400000004000000000000000000000000000000000000000000000e020004000000000000010000000000000000000000000000000000000000000e0000000000000000e10500000000000000000000000000000000000000000007000000000000000004000000000000000000000000000000000000000000000e0000000000000000e00600000000000000000000000000000000000000000002010000000800000000000000000000000000000000000000000000000000000c000004000400000001ffffffffffffffffffffffffffffffff0000000000000c000004000400000000ffffffff0000000000000000000000000000000000001a080004001000000002000000000000000000000000000000000000000000000e000002000000000060060000000000000000000000000000000000000000001a0200040004000000020000000000000000000000000000000000000000000004100004000000000000000000000000000000000000000000000000000000000a000000000000000004a00abd09000000000000000000000000000000000000021000000002000000000000000000000000000000000000000000000000000004100004000000000000000000000000000000000000000000000000000000000a000000000000000002c109c00900000000000000000000000000000000000002040000000200000000000000000000000000000000000000000000000000000e000004000000000060040000000000000000000000000000000000000000000e000010000000000060050000000000000000000000000000000000000000000e000008000000000060070000000000000000000000000000000000000000000c000004000400000001010000000000000000000000000000000000000000000c0000040004000000000000000000000000000000000000000000000000000004020000000000000000000000000000000000000000000000000000000000000a00000000000000000aca09c8090000000000000000000000000000000000000c000004000400000001000000000000000000000000000000000000000000000c000004000400000000000000000000000000000000000000000000000000001a0000040001000000020100000000000000000000000000000000000000000007000000000000000003320b00000000000000000000000000000000000000000a000000000000000002cd09ce090000000000000000000000000000000000000a000000000000000001300b300b0000000000000000000000000000000000000e0000000004000000610700000000000000000000000000000000000000000002040000000200000000000000000000000000000000000000000000000000000e000000000800000061050000000000000000000000000000000000000000000e0000000010000000610400000000000000000000000000000000000000000004080010000000000000000000000000000000000000000000000000000000000a000000000000000002d509d4090000000000000000000000000000000000000e0000000002000000610600000000000000000000000000000000000000000004080010000000000000000000000000000000000000000000000000000000000a000000000000000002d809d7090000000000000000000000000000000000000e0000040000000000600600000000000000000000000000000000000000000018000002000100000000600000000000000000000000000000000000000000000c000002000200000001010000000000000000000000000000000000000000000c0000020002000000000000000000000000000000000000000000000000000005020000000200000001000000000000000000000000000000000000000000000e000002000000000060020000000000000000000000000000000000000000000e000000000200000021020000000000000000000000000000000000000000000e0000020000000000600700000000000000000000000000000000000000000002000002000200000000200000000000000000000000000000000000000000000e0000020000000000600500000000000000000000000000000000000000000007000000000000000003741400000000000000000000000000000000000000000e0000000002000000610600000000000000000000000000000000000000000018000002000100000000600000000000000000000000000000000000000000000e00000000020000006107000000000000000000000000000000000000000000020000020002000000003400000000000000000000000000000000000000000007000000000000000003741400000000000000000000000000000000000000000c000001000100000001280000000000000000000000000000000000000000000c000001000100000000000000000000000000000000000000000000000000000e0000000002000000610700000000000000000000000000000000000000000007000000000000000003741400000000000000000000000000000000000000000e000000000800000061070000000000000000000000000000000000000000000c0000020002000000019fffffffffffffffffffffffffffffff0000000000000c000002000200000000ffffffffffffffffffffffffffffffff00000000000004080002000000000000000000000000000000000000000000000000000000000a000000000000000008dd0af00900000000000000000000000000000000000002000008000200000000600000000000000000000000000000000000000000000c000004000400000001ffffffffffffffff00000000000000000000000000000c0000040004000000000000000000000000000000000000000000000000000004020004000000000000000000000000000000000000000000000000000000000a000000000000000008dd0af5090000000000000000000000000000000000000e000002000000000020020000000000000000000000000000000000000000000208000000010000000000000000000000000000000000000000000000000000070000000000000000034c1400000000000000000000000000000000000000000c000008000800000001000000000000000000000000000000000000000000000c0000080008000000000000000000000000000000000000000000000000000002010000000400000000000000000000000000000000000000000000000000001a0000040002000000021f0000000000000000000000000000000000000000000e0000020000000000600300000000000000000000000000000000000000000010000000000000000000000000000000000000000000000000000000000000000e000004000000000040000000000000000000000000000000000000000000000e0000040000000000600100000000000000000000000000000000000000000018000004000200000002050000000000000000000000000000000000000000000e000000000400000061050000000000000000000000000000000000000000000e0000020000000000600400000000000000000000000000000000000000000004020000000000000000000000000000000000000000000000000000000000000a000000000000000004150a050a0000000000000000000000000000000000000e0000080000000000600700000000000000000000000000000000000000000018000008000400000000050000000000000000000000000000000000000000000e000004000000000060060000000000000000000000000000000000000000000e000000000200000061050000000000000000000000000000000000000000000202000400010000000000000000000000000000000000000000000000000000070000000000000000034c1400000000000000000000000000000000000000000e000000000800000061070000000000000000000000000000000000000000000c000002000200000001200000000000000000000000000000000000000000000c000002000200000000000000000000000000000000000000000000000000000e0000000004000000610600000000000000000000000000000000000000000008040002000200000000000000000000000000000000000000000000000000000e0200010000000000400100000000000000000000000000000000000000000002000008000800000000010000000000000000000000000000000000000000000e0000000002000000610400000000000000000000000000000000000000000004080002000000000000000000000000000000000000000000000000000000000a000000000000000002050a150a0000000000000000000000000000000000000e000000000400000061050000000000000000000000000000000000000000000e0000000002000000610300000000000000000000000000000000000000000004020000000000000000000000000000000000000000000000000000000000000a000000000000000004320a190a0000000000000000000000000000000000000c000002000200000001e0ffffffffffffffffffffffffffffff0000000000000c000002000200000000ffffffffffffffffffffffffffffffff0000000000000e000000000800000061010000000000000000000000000000000000000000001a080002000200000002000000000000000000000000000000000000000000000e000002000000000060070000000000000000000000000000000000000000000204000200010000000000000000000000000000000000000000000000000000070000000000000000034c1400000000000000000000000000000000000000000c000002000200000001200000000000000000000000000000000000000000000c000002000200000000000000000000000000000000000000000000000000000e0000000004000000610700000000000000000000000000000000000000000008040002000200000000000000000000000000000000000000000000000000000e0000000004000000610300000000000000000000000000000000000000000018000004000400000000030000000000000000000000000000000000000000000c000008000800000001ffffffffffffffffffffffffffffffff0000000000000c000008000800000000ffffffffffffffffffffffffffffffff00000000000018040008001000000002000000000000000000000000000000000000000000000e020000002000000041010000000000000000000000000000000000000000001a200010001000000002000000000000000000000000000000000000000000000c000020002000000001000100000000000000000000000000000000000000000c00002000200000000000000000000000000000000000000000000000000000042000040004000000000000000000000000000000000000000000000000000018040008000400000000000000000000000000000000000000000000000000001a010004000400000002000000000000000000000000000000000000000000001a040010000400000004000000000000000000000000000000000000000000000e020004000000000040010000000000000000000000000000000000000000000c00000100010000000100000000ff03000000000000000000000000000000000c0000010001000000000000000000000000000000000000000000000000000007000000000000000003931400000000000000000000000000000000000000000e000000000200000021020000000000000000000000000000000000000000000e0000020000000000600700000000000000000000000000000000000000000002000002000200000000200000000000000000000000000000000000000000000e000000000400000041010000000000000000000000000000000000000000000e000004000000000060060000000000000000000000000000000000000000000c000001000100000001000000000000000000000000000000000000000000000c000001000100000000000000000000000000000000000000ff0000000000000e0000020000000000600500000000000000000000000000000000000000000007000000000000000003741400000000000000000000000000000000000000000e0000000002000000610200000000000000000000000000000000000000000018000002000100000000600000000000000000000000000000000000000000000e00000000020000006107000000000000000000000000000000000000000000020000020002000000002100000000000000000000000000000000000000000007000000000000000003741400000000000000000000000000000000000000000e0000000002000000610700000000000000000000000000000000000000000002000002000200000000350000000000000000000000000000000000000000000e0000000001000000610600000000000000000000000000000000000000000007000000000000000003741400000000000000000000000000000000000000000e0000000002000000610700000000000000000000000000000000000000000002000002000200000000550000000000000000000000000000000000000000000c000001000100000001761757503aa46d14fa90d8bb9901e0450000000000000c0000010001000000004aca139e72cc49ee95925b7548a506d300000000000007000000000000000003741400000000000000000000000000000000000000000c000001000100000001550000000000000000000000000000000000000000000c000001000100000000000000000000000000000000000000000000000000000e0000000002000000610700000000000000000000000000000000000000000007000000000000000003741400000000000000000000000000000000000000000e000000000800000061070000000000000000000000000000000000000000000c0000020002000000017fffffffffffffffffffffffffffffff0000000000000c000002000200000000ffffffffffffffffffffffffffffffff00000000000004080002000000000000000000000000000000000000000000000000000000000a000000000000000008070b550a00000000000000000000000000000000000002000008000200000000800000000000000000000000000000000000000000000c000004000400000001ffffffffffffffff00000000000000000000000000000c0000040004000000000000000000000000000000000000000000000000000004020004000000000000000000000000000000000000000000000000000000000a000000000000000008070b5a0a0000000000000000000000000000000000000e000002000000000020020000000000000000000000000000000000000000000208000000010000000000000000000000000000000000000000000000000000070000000000000000034c1400000000000000000000000000000000000000000c000008000800000001000000000000000000000000000000000000000000000c0000080008000000000000000000000000000000000000000000000000000002010000000400000000000000000000000000000000000000000000000000001a0000040002000000021f0000000000000000000000000000000000000000000e0000020000000000600300000000000000000000000000000000000000000010000000000000000000000000000000000000000000000000000000000000000e000004000000000040000000000000000000000000000000000000000000000e0000040000000000600200000000000000000000000000000000000000000018000004000200000002050000000000000000000000000000000000000000000e000000000400000061050000000000000000000000000000000000000000000e0000020000000000600400000000000000000000000000000000000000000004020000000000000000000000000000000000000000000000000000000000000a0000000000000000047a0a6a0a0000000000000000000000000000000000000e0000080000000000600700000000000000000000000000000000000000000018000008000400000000050000000000000000000000000000000000000000000e000004000000000060060000000000000000000000000000000000000000000e000000000200000061050000000000000000000000000000000000000000000202000400010000000000000000000000000000000000000000000000000000070000000000000000034c1400000000000000000000000000000000000000000e000000000800000061070000000000000000000000000000000000000000000c000002000200000001200000000000000000000000000000000000000000000c000002000200000000000000000000000000000000000000000000000000000e0000000004000000610600000000000000000000000000000000000000000008040002000200000000000000000000000000000000000000000000000000000e0200010000000000400100000000000000000000000000000000000000000002000008000800000000010000000000000000000000000000000000000000000e0000000002000000610400000000000000000000000000000000000000000004080002000000000000000000000000000000000000000000000000000000000a0000000000000000026a0a7a0a0000000000000000000000000000000000000e000000000400000061050000000000000000000000000000000000000000000e0000000002000000610300000000000000000000000000000000000000000004020000000000000000000000000000000000000000000000000000000000000a000000000000000004970a7e0a0000000000000000000000000000000000000c000002000200000001e0ffffffffffffffffffffffffffffff0000000000000c000002000200000000ffffffffffffffffffffffffffffffff0000000000000e000000000800000061020000000000000000000000000000000000000000001a080002000200000002000000000000000000000000000000000000000000000e000002000000000060070000000000000000000000000000000000000000000204000200010000000000000000000000000000000000000000000000000000070000000000000000034c1400000000000000000000000000000000000000000c000002000200000001200000000000000000000000000000000000000000000c000002000200000000000000000000000000000000000000000000000000000e0000000004000000610700000000000000000000000000000000000000000008040002000200000000000000000000000000000000000000000000000000000e0000000004000000610300000000000000000000000000000000000000000018000004000400000000030000000000000000000000000000000000000000000c000008000800000001ffffffffffffffffffffffffffffffff0000000000000c000008000800000000ffffffffffffffffffffffffffffffff00000000000018040008001000000002000000000000000000000000000000000000000000000e020000002000000041010000000000000000000000000000000000000000001a200010001000000002000000000000000000000000000000000000000000000c000020002000000001000100000000000000000000000000000000000000000c00002000200000000000000000000000000000000000000000000000000000042000040004000000000000000000000000000000000000000000000000000018040008000400000000000000000000000000000000000000000000000000001a010004000400000002000000000000000000000000000000000000000000001a040010000400000004000000000000000000000000000000000000000000000e020004000000000040010000000000000000000000000000000000000000000c00000100010000000100000000ff03000000000000000000000000000000000c0000010001000000000000000000000000000000000000000000000000000007000000000000000003931400000000000000000000000000000000000000000c000002000200000001ffffffffffffffffffffffffffffffff0000000000000c000002000200000000ffffffff0000000000000000000000000000000000000e000000000400000041010000000000000000000000000000000000000000001a040002000100000002000000000000000000000000000000000000000000000e0000000000000000e10600000000000000000000000000000000000000000007000000000000000000000000000000000000000000000000000000000000000c000001000100000001000000000000000000000000000000000000000000000c000001000100000000000000000000000000000000a079c3080000000000000e000000000200000021020000000000000000000000000000000000000000000e0000020000000000600500000000000000000000000000000000000000000007000000000000000003741400000000000000000000000000000000000000000e0000000002000000610500000000000000000000000000000000000000000002000002000200000000040000000000000000000000000000000000000000000c000001000100000001200000000000000000000000000000000000000000000c0000010001000000000000000000000000000000000000000000000000000007000000000000000003741400000000000000000000000000000000000000000e0000000002000000610500000000000000000000000000000000000000000002000002000200000000240000000000000000000000000000000000000000000c000001000100000001260000000000000000000000000000000000000000000c0000010001000000000000000000000000000000000000000000000000000007000000000000000003741400000000000000000000000000000000000000000e0000000002000000610500000000000000000000000000000000000000000002000002000200000000440000000000000000000000000000000000000000000c0000010001000000014444415f4c414349544e454449203a720000000000000c0000010001000000006576696563655265654670617773584400000000000007000000000000000003741400000000000000000000000000000000000000000e0000000002000000610500000000000000000000000000000000000000000002000002000200000000640000000000000000000000000000000000000000000c000001000100000001000000000000000000000000000000000000000000000c0000010001000000000000000000000000000053455353455200000000000007000000000000000003741400000000000000000000000000000000000000000c000002000200000001840000000000000000000000000000000000000000000c000002000200000000000000000000000000000000000000000000000000000e000002000000000000000000000000000000000000000000000000000000000c000002000200000001000000000000000000000000000000000000000000000c000002000200000000000000000000000000000000000000000000000000000e0000020000000000600700000000000000000000000000000000000000000018000002000400000000050000000000000000000000000000000000000000000e000004000000000060060000000000000000000000000000000000000000000e000000000200000061050000000000000000000000000000000000000000000202000400010000000000000000000000000000000000000000000000000000070000000000000000034c1400000000000000000000000000000000000000000c000002000200000001200000000000000000000000000000000000000000000c000002000200000000000000000000000000000000000000000000000000000e0000000004000000610600000000000000000000000000000000000000000008040002000200000000000000000000000000000000000000000000000000000e020001000000000000010000000000000000000000000000000000000000000e0000000002000000610700000000000000000000000000000000000000000002000002000200000000010000000000000000000000000000000000000000000c000004000400000001040000000000000000000000000000000000000000000c0000040004000000000000000000000000000000000000000000000000000004020004000000000000000000000000000000000000000000000000000000000a000000000000000002be0acf0a0000000000000000000000000000000000000e000000000200000061050000000000000000000000000000000000000000000200000200010000000080000000000000000000000000000000000000000000070000000000000000034c1400000000000000000000000000000000000000000c000002000200000001ffffffffffffffffffffffffffffffff0000000000000c000002000200000000ffffffffffffffffffffffff000000000000000000000e000000000400000001050000000000000000000000000000000000000000001a040002000200000002000000000000000000000000000000000000000000000c000004000400000001000000000000000000000000000000000000000000000c000004000400000000000000000000000000000000ffffffff0000000000001a010004000400000002000000000000000000000000000000000000000000001a040002000200000004000000000000000000000000000000000000000000000e000002000000000000050000000000000000000000000000000000000000000e0000000000000000e10600000000000000000000000000000000000000000007000000000000000004000000000000000000000000000000000000000000000c000002000200000001000000000000000000000000000000000000000000000c000002000200000000000000000000000000000000717b484e0000000000000e000002000000000020000000000000000000000000000000000000000000000c000001000100000001410000000000000000000000000000000000000000000c000001000100000000000000000000000000000000000000000000000000000c000002000200000001040000000000000000000000000000000000000000000c0000020002000000000000000000000000000000000000000000000000000007000000000000000003741400000000000000000000000000000000000000000c000002000200000001240000000000000000000000000000000000000000000c000002000200000000000000000000000000000000000000000000000000000e000002000000000000000000000000000000000000000000000000000000000c000004000400000001000000000000000000000000000000000000000000000c000004000400000000000000000000000000000000000000000000000000000c000002000200000001200000000000000000000000000000000000000000000c000002000200000000000000000000000000000000000000000000000000000a000000000000000001f00af00a000000000000000000000000000000000000020800000004000000000000000000000000000000000000000000000000000004100000000000000000000000000000000000000000000000000000000000000a00000000000000000af00afc0a000000000000000000000000000000000000180000040008000000000500000000000000000000000000000000000000000008080002000800000000000000000000000000000000000000000000000000000e080000001000000021000000000000000000000000000000000000000000000e0800100000000000000100000000000000000000000000000000000000000002000004000800000000010000000000000000000000000000000000000000000c000010001000000001010000000000000000000000000000000000000000000c0000100010000000000000000000000000000000000000000000000000000004080004000000000000000000000000000000000000000000000000000000000a000000000000000002ed0af90a0000000000000000000000000000000000000c000010001000000001000000000000000000000000000000000000000000000c000010001000000000000000000000000000000000000000000000000000000a000000000000000001ed0aed0a0000000000000000000000000000000000000c000002000200000001ffffffffffffffffffffffffffffffff0000000000000c000002000200000000ffffffffffffffffffffffff000000000000000000000e000000000400000001020000000000000000000000000000000000000000001a040002000200000002000000000000000000000000000000000000000000000c000004000400000001000000000000000000000000000000000000000000000c000004000400000000000000000000000000000000ffffffff0000000000000e000000000800000021010000000000000000000000000000000000000000001a080004000400000002000000000000000000000000000000000000000000001a040002000200000004000000000000000000000000000000000000000000000e000002000000000000020000000000000000000000000000000000000000000a000000000000000001300b300b0000000000000000000000000000000000000c000002000200000001000000000000000000000000000000000000000000000c000002000200000000000000000000000000000000717b484e0000000000000e000002000000000020000000000000000000000000000000000000000000000c000001000100000001410000000000000000000000000000000000000000000c000001000100000000000000000000000000000000000000000000000000000c000002000200000001040000000000000000000000000000000000000000000c0000020002000000000000000000000000000000000000000000000000000007000000000000000003741400000000000000000000000000000000000000000c000002000200000001240000000000000000000000000000000000000000000c000002000200000000000000000000000000000000000000000000000000000e000002000000000000000000000000000000000000000000000000000000000c000004000400000001000000000000000000000000000000000000000000000c000004000400000000000000000000000000000000000000000000000000000c000002000200000001200000000000000000000000000000000000000000000c000002000200000000000000000000000000000000000000000000000000000a0000000000000000011a0b1a0b000000000000000000000000000000000000020800000004000000000000000000000000000000000000000000000000000004100000000000000000000000000000000000000000000000000000000000000a00000000000000000a1a0b260b000000000000000000000000000000000000180000040008000000000500000000000000000000000000000000000000000008080002000800000000000000000000000000000000000000000000000000000e080000001000000021000000000000000000000000000000000000000000000e0800100000000000000100000000000000000000000000000000000000000002000004000800000000010000000000000000000000000000000000000000000c000010001000000001010000000000000000000000000000000000000000000c0000100010000000000000000000000000000000000000000000000000000004080004000000000000000000000000000000000000000000000000000000000a000000000000000002170b230b0000000000000000000000000000000000000c000010001000000001000000000000000000000000000000000000000000000c000010001000000000000000000000000000000000000000000000000000000a000000000000000001170b170b0000000000000000000000000000000000000c000002000200000001ffffffffffffffffffffffffffffffff0000000000000c000002000200000000ffffffffffffffffffffffff000000000000000000000e000000000400000001020000000000000000000000000000000000000000001a040002000200000002000000000000000000000000000000000000000000000c000004000400000001000000000000000000000000000000000000000000000c000004000400000000000000000000000000000000ffffffff0000000000000e000000000800000021010000000000000000000000000000000000000000001a080004000400000002000000000000000000000000000000000000000000001a040002000200000004000000000000000000000000000000000000000000000e000002000000000000020000000000000000000000000000000000000000000e0000000000000000e10600000000000000000000000000000000000000000007000000000000000004000000000000000000000000000000000000000000000e0000000000000000e00200000000000000000000000000000000000000000004010000000000000000000000000000000000000000000000000000000000000a000000000000000004370b350b0000000000000000000000000000000000000e0000000000000000e10200000000000000000000000000000000000000000007000000000000000000000000000000000000000000000000000000000000000c000001000100000001000000000000000000000000000000000000000000000c000001000100000000000000000000000000000000a079c3080000000000000e000000000200000021020000000000000000000000000000000000000000000e0000020000000000600100000000000000000000000000000000000000000007000000000000000003741400000000000000000000000000000000000000000e0000000002000000610100000000000000000000000000000000000000000002000002000200000000040000000000000000000000000000000000000000000c000001000100000001200000000000000000000000000000000000000000000c0000010001000000000000000000000000000000000000000000000000000007000000000000000003741400000000000000000000000000000000000000000e0000000002000000610100000000000000000000000000000000000000000002000002000200000000240000000000000000000000000000000000000000000c0000010001000000011f0000000000000000000000000000000000000000000c0000010001000000000000000000000000000000000000000000000000000007000000000000000003741400000000000000000000000000000000000000000e0000000002000000610100000000000000000000000000000000000000000002000002000200000000440000000000000000000000000000000000000000000c00000100010000000100535345524444415f4f52455a203a720000000000000c0000010001000000006576696563655265654670617773584400000000000007000000000000000003741400000000000000000000000000000000000000000c000002000200000001640000000000000000000000000000000000000000000c000002000200000000000000000000000000000000000000000000000000000e000002000000000000000000000000000000000000000000000000000000000c000002000200000001000000000000000000000000000000000000000000000c000002000200000000000000000000000000000000000000000000000000000e0000020000000000600300000000000000000000000000000000000000000018000002000400000000050000000000000000000000000000000000000000000e000004000000000060020000000000000000000000000000000000000000000e000000000200000061010000000000000000000000000000000000000000000202000400010000000000000000000000000000000000000000000000000000070000000000000000034c1400000000000000000000000000000000000000000c000002000200000001200000000000000000000000000000000000000000000c000002000200000000000000000000000000000000000000000000000000000e0000000004000000610200000000000000000000000000000000000000000008040002000200000000000000000000000000000000000000000000000000000e020001000000000000010000000000000000000000000000000000000000000e0000000002000000610300000000000000000000000000000000000000000002000002000200000000010000000000000000000000000000000000000000000c000004000400000001030000000000000000000000000000000000000000000c0000040004000000000000000000000000000000000000000000000000000004020004000000000000000000000000000000000000000000000000000000000a000000000000000002500b610b0000000000000000000000000000000000000e000000000200000061010000000000000000000000000000000000000000000200000200010000000060000000000000000000000000000000000000000000070000000000000000034c1400000000000000000000000000000000000000000c000002000200000001ffffffffffffffffffffffffffffffff0000000000000c000002000200000000ffffffffffffffffffffffff000000000000000000000e000000000400000001040000000000000000000000000000000000000000001a040002000200000002000000000000000000000000000000000000000000000c000004000400000001000000000000000000000000000000000000000000000c000004000400000000000000000000000000000000ffffffff0000000000001a010004000400000002000000000000000000000000000000000000000000001a040002000200000004000000000000000000000000000000000000000000000e000002000000000000040000000000000000000000000000000000000000000e0000000000000000e10200000000000000000000000000000000000000000007000000000000000004000000000000000000000000000000000000000000000e0000000000000000e00200000000000000000000000000000000000000000004010000000000000000000000000000000000000000000000000000000000000a000000000000000004740b720b0000000000000000000000000000000000000e0000000000000000e10200000000000000000000000000000000000000000007000000000000000000000000000000000000000000000000000000000000000c000001000100000001000000000000000000000000000000000000000000000c000001000100000000000000000000000000000000a079c3080000000000000e000000000200000021020000000000000000000000000000000000000000000e0000020000000000600100000000000000000000000000000000000000000007000000000000000003741400000000000000000000000000000000000000000e0000000002000000610100000000000000000000000000000000000000000002000002000200000000040000000000000000000000000000000000000000000c000001000100000001200000000000000000000000000000000000000000000c0000010001000000000000000000000000000000000000000000000000000007000000000000000003741400000000000000000000000000000000000000000e0000000002000000610100000000000000000000000000000000000000000002000002000200000000240000000000000000000000000000000000000000000c000001000100000001290000000000000000000000000000000000000000000c0000010001000000000000000000000000000000000000000000000000000007000000000000000003741400000000000000000000000000000000000000000e0000000002000000610100000000000000000000000000000000000000000002000002000200000000440000000000000000000000000000000000000000000c0000010001000000015f544e45494349464655534e49203a720000000000000c0000010001000000006576696563655265654670617773584400000000000007000000000000000003741400000000000000000000000000000000000000000e0000000002000000610100000000000000000000000000000000000000000002000002000200000000640000000000000000000000000000000000000000000c000001000100000001000000000000000000000000000000000000000000000c0000010001000000000000000000000059544944495551494c00000000000007000000000000000003741400000000000000000000000000000000000000000c000002000200000001840000000000000000000000000000000000000000000c000002000200000000000000000000000000000000000000000000000000000e000002000000000000000000000000000000000000000000000000000000000c000002000200000001000000000000000000000000000000000000000000000c000002000200000000000000000000000000000000000000000000000000000e0000020000000000600300000000000000000000000000000000000000000018000002000400000000050000000000000000000000000000000000000000000e000004000000000060020000000000000000000000000000000000000000000e000000000200000061010000000000000000000000000000000000000000000202000400010000000000000000000000000000000000000000000000000000070000000000000000034c1400000000000000000000000000000000000000000c000002000200000001200000000000000000000000000000000000000000000c000002000200000000000000000000000000000000000000000000000000000e0000000004000000610200000000000000000000000000000000000000000008040002000200000000000000000000000000000000000000000000000000000e020001000000000000010000000000000000000000000000000000000000000e0000000002000000610300000000000000000000000000000000000000000002000002000200000000010000000000000000000000000000000000000000000c000004000400000001040000000000000000000000000000000000000000000c0000040004000000000000000000000000000000000000000000000000000004020004000000000000000000000000000000000000000000000000000000000a000000000000000002920ba30b0000000000000000000000000000000000000e000000000200000061010000000000000000000000000000000000000000000200000200010000000080000000000000000000000000000000000000000000070000000000000000034c1400000000000000000000000000000000000000000c000002000200000001ffffffffffffffffffffffffffffffff0000000000000c000002000200000000ffffffffffffffffffffffff000000000000000000000e000000000400000001050000000000000000000000000000000000000000001a040002000200000002000000000000000000000000000000000000000000000c000004000400000001000000000000000000000000000000000000000000000c000004000400000000000000000000000000000000ffffffff0000000000001a010004000400000002000000000000000000000000000000000000000000001a040002000200000004000000000000000000000000000000000000000000000e000002000000000000050000000000000000000000000000000000000000000e0000000000000000e102000000000000000000000000000000000000000000070000000000000000040000000000000000000000000000000000000000000004020000000000000000000000000000000000000000000000000000000000000a000000000000000004b50bb30b000000000000000000000000000000000000080100020001000000000000000000000000000000000000000000000000000007000000000000000000000000000000000000000000000000000000000000000c000002000200000001000000000000000000000000000000000000000000000c000002000200000000000000000000000000000000717b484e0000000000000e000002000000000020000000000000000000000000000000000000000000000c000001000100000001120000000000000000000000000000000000000000000c000001000100000000000000000000000000000000000000000000000000000c000002000200000001040000000000000000000000000000000000000000000c0000020002000000000000000000000000000000000000000000000000000007000000000000000003741400000000000000000000000000000000000000000c000002000200000001240000000000000000000000000000000000000000000c000002000200000000000000000000000000000000000000000000000000000e000002000000000000000000000000000000000000000000000000000000000c000004000400000001000000000000000000000000000000000000000000000c000004000400000000000000000000000000000000000000000000000000000c000002000200000001200000000000000000000000000000000000000000000c000002000200000000000000000000000000000000000000000000000000000a000000000000000001c80bc80b000000000000000000000000000000000000020800000004000000000000000000000000000000000000000000000000000004100000000000000000000000000000000000000000000000000000000000000a00000000000000000ac80bd40b000000000000000000000000000000000000180000040008000000000500000000000000000000000000000000000000000008080002000800000000000000000000000000000000000000000000000000000e080000001000000021000000000000000000000000000000000000000000000e0800100000000000000100000000000000000000000000000000000000000002000004000800000000010000000000000000000000000000000000000000000c000010001000000001010000000000000000000000000000000000000000000c0000100010000000000000000000000000000000000000000000000000000004080004000000000000000000000000000000000000000000000000000000000a000000000000000002c50bd10b0000000000000000000000000000000000000c000010001000000001000000000000000000000000000000000000000000000c000010001000000000000000000000000000000000000000000000000000000a000000000000000001c50bc50b0000000000000000000000000000000000000c000002000200000001ffffffffffffffffffffffffffffffff0000000000000c000002000200000000ffffffffffffffffffffffff000000000000000000000e000000000400000001020000000000000000000000000000000000000000001a040002000200000002000000000000000000000000000000000000000000000c000004000400000001000000000000000000000000000000000000000000000c000004000400000000000000000000000000000000ffffffff0000000000000e000000000800000021010000000000000000000000000000000000000000001a080004000400000002000000000000000000000000000000000000000000001a040002000200000004000000000000000000000000000000000000000000000e0000020000000000000200000000000000000000000000000000000000000007000000000000000004000000000000000000000000000000000000000000000e0000000000000000e0080000000000000000000000000000000000000000000e000001000000000060050000000000000000000000000000000000000000000c000004000400000001020000000000000000000000000000000000000000000c0000040004000000000000000000000000000000000000000000000000000005040000000400000001000000000000000000000000000000000000000000000c000008000800000001ffffffffffffffffffffffffffffffff0000000000000c000008000800000000ffffffff0000000000000000000000000000000000001a040008000400000002000000000000000000000000000000000000000000000e0000020000000000600600000000000000000000000000000000000000000002020000000100000000000000000000000000000000000000000000000000000e00000400000000006003000000000000000000000000000000000000000000020400000002000000000000000000000000000000000000000000000000000007000000000000000003b40900000000000000000000000000000000000000000a000000000000000002ed0bef0b0000000000000000000000000000000000000e000001000000000060090000000000000000000000000000000000000000000a000000000000000001bf10bf100000000000000000000000000000000000000e000001000000000060090000000000000000000000000000000000000000000c000001000100000001000000000000000000000000000000000000000000000c000001000100000000000000000000000000000000acf102090000000000000e000000000200000021020000000000000000000000000000000000000000000e0000020000000000600800000000000000000000000000000000000000000007000000000000000003741400000000000000000000000000000000000000000e000000001000000061080000000000000000000000000000000000000000000c000002000200000001ffffffffffffffffffffffffffffffff0000000000000c000002000200000000ffffffff0000000000000000000000000000000000000e000000000400000061090000000000000000000000000000000000000000001a040002000400000002000000000000000000000000000000000000000000000c000002000200000001040000000000000000000000000000000000000000000c000002000200000000000000000000000000000000000000000000000000000e0000040000000000600400000000000000000000000000000000000000000004040002000000000000000000000000000000000000000000000000000000000a000000000000000004250cff0b00000000000000000000000000000000000010000000000000000000000000000000000000000000000000000000000000000e000002000000000040000000000000000000000000000000000000000000000210000000010000000000000000000000000000000000000000000000000000070000000000000000034c1400000000000000000000000000000000000000000c000002000200000001ffffffffffffffffffffffffffffffff0000000000000c000002000200000000ffffffffffffffffffffffff000000000000000000000e000000000400000041010000000000000000000000000000000000000000001a040002000200000002000000000000000000000000000000000000000000000c000004000400000001000000000000000000000000000000000000000000000c000004000400000000000000000000000000000000ffffffff0000000000001a010004000400000002000000000000000000000000000000000000000000001a040002000200000004000000000000000000000000000000000000000000000e000002000000000040010000000000000000000000000000000000000000000e00000000020000006104000000000000000000000000000000000000000000180000020001000000002000000000000000000000000000000000000000000007000000000000000003931400000000000000000000000000000000000000000c000002000200000001000000000000000000000000000000000000000000000c000002000200000000000000000000000000000000000000000000000000000e000001000000000060070000000000000000000000000000000000000000000e0000020000000000600900000000000000000000000000000000000000000018000002000400000000050000000000000000000000000000000000000000000e0000000002000000610800000000000000000000000000000000000000000002020004000200000000000000000000000000000000000000000000000000000c000008000800000001200000000000000000000000000000000000000000000c0000080008000000000000000000000000000000000000000000000000000008040008000400000000000000000000000000000000000000000000000000000e0400000001000000410100000000000000000000000000000000000000000007000000000000000003741400000000000000000000000000000000000000000e0000000002000000610900000000000000000000000000000000000000000002000002000200000000010000000000000000000000000000000000000000000c000004000400000001030000000000000000000000000000000000000000000c0000040004000000000000000000000000000000000000000000000000000004020004000000000000000000000000000000000000000000000000000000000a000000000000000002120c210c0000000000000000000000000000000000000e000000001000000061080000000000000000000000000000000000000000000e0000000002000000610700000000000000000000000000000000000000000004020000000000000000000000000000000000000000000000000000000000000a000000000000000004f00e250c0000000000000000000000000000000000000e000000000200000041000000000000000000000000000000000000000000001a000002000200000002ffffffff000000000000000000000000000000000000020000020002000000001f0000000000000000000000000000000000000000001a000002000800000002e0ffffff01000000000000000000000000000000000002080010000200000000000000000000000000000000000000000000000000000c000004000400000001010000000000000000000000000000000000000000000c0000040004000000000000000000000000000000000000000000000000000004020008000000000000000000000000000000000000000000000000000000000a000000000000000002300c2e0c0000000000000000000000000000000000000c000004000400000001000000000000000000000000000000000000000000000c000004000400000000000000000000000000000000000000000000000000000c000008000800000001ffffffffffffffff00000000000000000000000000000c0000080008000000000000000000000000000000000000000000000000000004020008000000000000000000000000000000000000000000000000000000000a000000000000000008060e340c00000000000000000000000000000000000004040000000000000000000000000000000000000000000000000000000000000a00000000000000000a060e360c0000000000000000000000000000000000000e000002000000000020020000000000000000000000000000000000000000000e000000000200000041000000000000000000000000000000000000000000001a000002000200000002e0ffffff0000000000000000000000000000000000000c000004000400000001600000000000000000000000000000000000000000000c0000040004000000000000000000000000000000000000000000000000000004020004000000000000000000000000000000000000000000000000000000000a000000000000000002250e3d0c0000000000000000000000000000000000000210000000010000000000000000000000000000000000000000000000000000070000000000000000034c14000000000000000000000000000000000000000002010000000200000000000000000000000000000000000000000000000000000c000004000400000001ffffffffffffffffffffffffffff00000000000000000c000004000400000000000000000000000000000000000000000000000000000e0000020000000000600900000000000000000000000000000000000000000004020004000000000000000000000000000000000000000000000000000000000a000000000000000006450c290e0000000000000000000000000000000000000e000000000200000061080000000000000000000000000000000000000000000200000200010000000020000000000000000000000000000000000000000000070000000000000000034c14000000000000000000000000000000000000000002010000000200000000000000000000000000000000000000000000000000000e000002000000000060070000000000000000000000000000000000000000000c000004000400000001ffffffffffffffffffffffffffff00000000000000000c0000040004000000000000000000000000000000000000000000000000000004020004000000000000000000000000000000000000000000000000000000000a0000000000000000064e0c2d0e0000000000000000000000000000000000000e000000000200000061080000000000000000000000000000000000000000000200000200010000000040000000000000000000000000000000000000000000070000000000000000034c1400000000000000000000000000000000000000000c000002000200000001ffffffff0000000000000000000000000000000000000c0000020002000000000000000000000000000000000000000000000000000004010002000000000000000000000000000000000000000000000000000000000a000000000000000006550c310e0000000000000000000000000000000000000c000002000200000001ffffffffffffffffffffffffffffffff0000000000000c000002000200000000ffffffff0000000000000000000000000000000000000e000000000400000061060000000000000000000000000000000000000000001a040002000200000002000000000000000000000000000000000000000000000e0000000008000000610900000000000000000000000000000000000000000002080000001000000000000000000000000000000000000000000000000000000e0000000004000000610300000000000000000000000000000000000000000004020004000000000000000000000000000000000000000000000000000000000a0000000000000000025f0c5e0c0000000000000000000000000000000000000e000000001000000061070000000000000000000000000000000000000000000e0000020000000000600200000000000000000000000000000000000000000004020004000000000000000000000000000000000000000000000000000000000a000000000000000002630c620c0000000000000000000000000000000000000e000008000000000060070000000000000000000000000000000000000000000c000002000200000001010000000000000000000000000000000000000000000c000002000200000000000000000000000000000000000000000000000000000c000004000400000001010000000000000000000000000000000000000000000c000004000400000000000000000000000000000000000000000000000000000e0000000008000000610700000000000000000000000000000000000000000004080000000000000000000000000000000000000000000000000000000000000a00000000000000000a6c0c6a0c0000000000000000000000000000000000000c000004000400000001000000000000000000000000000000000000000000000c000004000400000000000000000000000000000000000000000000000000000e0000100000000000600300000000000000000000000000000000000000000004100000000000000000000000000000000000000000000000000000000000000a00000000000000000a710c6f0c0000000000000000000000000000000000000c000002000200000001000000000000000000000000000000000000000000000c000002000200000000000000000000000000000000000000000000000000001a020004000200000002000000000000000000000000000000000000000000001a00000200010000000201000000000000000000000000000000000000000000070000000000000000036f0b00000000000000000000000000000000000000000a000000000000000002750c760c0000000000000000000000000000000000000a000000000000000001bf10bf100000000000000000000000000000000000000c000001000100000001000000000000000000000000000000000000000000000c000001000100000000000000000000000000000000eb2acf540000000000000e000000000200000021020000000000000000000000000000000000000000000e0000020000000000600800000000000000000000000000000000000000000007000000000000000003741400000000000000000000000000000000000000000e000000001000000061080000000000000000000000000000000000000000000c000002000200000001040000000000000000000000000000000000000000000c000002000200000000000000000000000000000000000000000000000000000e0000000004000000610400000000000000000000000000000000000000000004040002000000000000000000000000000000000000000000000000000000000a000000000000000004ad0c810c00000000000000000000000000000000000010000000000000000000000000000000000000000000000000000000000000000e000002000000000040000000000000000000000000000000000000000000000210000000010000000000000000000000000000000000000000000000000000070000000000000000034c1400000000000000000000000000000000000000000c000002000200000001ffffffffffffffffffffffffffffffff0000000000000c000002000200000000ffffffffffffffffffffffff000000000000000000000e000000000400000041010000000000000000000000000000000000000000001a040002000200000002000000000000000000000000000000000000000000000c000004000400000001000000000000000000000000000000000000000000000c000004000400000000000000000000000000000000ffffffff0000000000001a010004000400000002000000000000000000000000000000000000000000001a040002000200000004000000000000000000000000000000000000000000000e000002000000000040010000000000000000000000000000000000000000000e00000000020000006104000000000000000000000000000000000000000000180000020001000000002000000000000000000000000000000000000000000007000000000000000003931400000000000000000000000000000000000000000e000000001000000061080000000000000000000000000000000000000000000c000002000200000001000000000000000000000000000000000000000000000c000002000200000000000000000000000000000000000000000000000000000e000001000000000060010000000000000000000000000000000000000000000a000000000000000001990c990c0000000000000000000000000000000000000e0000000010000000610800000000000000000000000000000000000000000004040000000000000000000000000000000000000000000000000000000000000a00000000000000000a990caa0c0000000000000000000000000000000000000e00000200000000006009000000000000000000000000000000000000000000180000020004000000000500000000000000000000000000000000000000000002100004000200000000000000000000000000000000000000000000000000000c000008000800000001200000000000000000000000000000000000000000000c0000080008000000000000000000000000000000000000000000000000000008040008000400000000000000000000000000000000000000000000000000000e0400000001000000410100000000000000000000000000000000000000000007000000000000000003741400000000000000000000000000000000000000000e0000000008000000610900000000000000000000000000000000000000000002000008000200000000010000000000000000000000000000000000000000000c000004000400000001010000000000000000000000000000000000000000000c0000040004000000000000000000000000000000000000000000000000000004020008000000000000000000000000000000000000000000000000000000000a000000000000000002960ca70c0000000000000000000000000000000000000c000004000400000001000000000000000000000000000000000000000000000c000004000400000000000000000000000000000000000000000000000000000a000000000000000001960c960c0000000000000000000000000000000000000e0000000002000000610100000000000000000000000000000000000000000004020000000000000000000000000000000000000000000000000000000000000a000000000000000004640fad0c0000000000000000000000000000000000000e000000000200000041000000000000000000000000000000000000000000001a000002000200000002ffffffff000000000000000000000000000000000000020000020002000000001f0000000000000000000000000000000000000000001a000002000800000002e0ffffff01000000000000000000000000000000000002080010000200000000000000000000000000000000000000000000000000000c000004000400000001010000000000000000000000000000000000000000000c0000040004000000000000000000000000000000000000000000000000000004020008000000000000000000000000000000000000000000000000000000000a000000000000000002b80cb60c0000000000000000000000000000000000000c000004000400000001000000000000000000000000000000000000000000000c000004000400000000000000000000000000000000000000000000000000000c000008000800000001ffffffffffffffff00000000000000000000000000000c0000080008000000000000000000000000000000000000000000000000000004020008000000000000000000000000000000000000000000000000000000000a000000000000000008350ebc0c00000000000000000000000000000000000004040000000000000000000000000000000000000000000000000000000000000a00000000000000000a350ebe0c0000000000000000000000000000000000000e000002000000000020020000000000000000000000000000000000000000000e000000000200000041000000000000000000000000000000000000000000001a000002000200000002e0ffffff00000000000000000000000000000000000004020000000000000000000000000000000000000000000000000000000000000a000000000000000004540ec30c0000000000000000000000000000000000000210000000010000000000000000000000000000000000000000000000000000070000000000000000034c1400000000000000000000000000000000000000000c000002000200000001ffffffff0000000000000000000000000000000000000c0000020002000000000000000000000000000000000000000000000000000004010002000000000000000000000000000000000000000000000000000000000a000000000000000006c90c580e00000000000000000000000000000000000007000000000000000003391100000000000000000000000000000000000000000a000000000000000002bf10cb0c00000000000000000000000000000000000002010000000200000000000000000000000000000000000000000000000000000e0000000001000000610500000000000000000000000000000000000000000007000000000000000003a91100000000000000000000000000000000000000000a000000000000000002cf0cd00c0000000000000000000000000000000000000a000000000000000001bf10bf1000000000000000000000000000000000000002010000000200000000000000000000000000000000000000000000000000000e0000020000000000600900000000000000000000000000000000000000000002020000000100000000000000000000000000000000000000000000000000000e0000000002000000610700000000000000000000000000000000000000000007000000000000000003a91100000000000000000000000000000000000000000a000000000000000002d60cd80c0000000000000000000000000000000000000e000001000000000060080000000000000000000000000000000000000000000a000000000000000001bf10bf100000000000000000000000000000000000000e000001000000000060080000000000000000000000000000000000000000000e0000000001000000610300000000000000000000000000000000000000000007000000000000000003691100000000000000000000000000000000000000000a000000000000000002dc0cdd0c0000000000000000000000000000000000000a000000000000000001bf10bf100000000000000000000000000000000000000e0000000002000000610900000000000000000000000000000000000000000007000000000000000003c11000000000000000000000000000000000000000000a000000000000000002e00ce10c0000000000000000000000000000000000000a000000000000000001bf10bf1000000000000000000000000000000000000002010000000200000000000000000000000000000000000000000000000000000e0000000001000000610800000000000000000000000000000000000000000007000000000000000003b10b00000000000000000000000000000000000000000a000000000000000002e50ce70c0000000000000000000000000000000000000e000001000000000060030000000000000000000000000000000000000000000a000000000000000001bf10bf100000000000000000000000000000000000000e000001000000000060030000000000000000000000000000000000000000000e000000000100000061060000000000000000000000000000000000000000000e000000000200000061040000000000000000000000000000000000000000000e0000000004000000610500000000000000000000000000000000000000000007000000000000000003ab1200000000000000000000000000000000000000000a000000000000000002ed0cee0c0000000000000000000000000000000000000a000000000000000001bf10bf100000000000000000000000000000000000000c000002000200000001020000000000000000000000000000000000000000000c0000020002000000000000000000000000000000000000000000000000000005020000001000000001000000000000000000000000000000000000000000000e000000000200000021020000000000000000000000000000000000000000000c000004000400000001dfffffffffffffffffffffffffffffff0000000000000c000004000400000000ffffffffffffffffffffffffffffffff00000000000004020004000000000000000000000000000000000000000000000000000000000a0000000000000000085c0ef60c00000000000000000000000000000000000002000002000800000000200000000000000000000000000000000000000000000c000004000400000001ffffffffffffffff00000000000000000000000000000c0000040004000000000000000000000000000000000000000000000000000004080004000000000000000000000000000000000000000000000000000000000a0000000000000000085c0efb0c0000000000000000000000000000000000000c000004000400000001ffffffffffffffffffffffffffffffff0000000000000c000004000400000000ffffffff0000000000000000000000000000000000001a100004000400000002000000000000000000000000000000000000000000000e000004000000000060090000000000000000000000000000000000000000000e000008000000000060070000000000000000000000000000000000000000000e000008000000000020020000000000000000000000000000000000000000000c000001000100000001000000000000000000000000000000000000000000000c000001000100000000000000000000000000000000000000000000000000000e0000020000000000600800000000000000000000000000000000000000000007000000000000000003741400000000000000000000000000000000000000000c000001000100000001000000000000000000000000000000000000000000000c0000010001000000000000000000000000000000009f0d2c020000000000000e000000000200000021020000000000000000000000000000000000000000000e0000020000000000600500000000000000000000000000000000000000000007000000000000000003741400000000000000000000000000000000000000000c000004000400000001000000000000000000000000000000000000000000000c000004000400000000000000000000000000000000000000000000000000000e000000000200000061020000000000000000000000000000000000000000000e0000000008000000610900000000000000000000000000000000000000000004020008000000000000000000000000000000000000000000000000000000000a000000000000000002110d100d0000000000000000000000000000000000000e000000000400000061030000000000000000000000000000000000000000000e000000000200000061050000000000000000000000000000000000000000000200000200020000000004000000000000000000000000000000000000000000020400000001000000000000000000000000000000000000000000000000000007000000000000000003741400000000000000000000000000000000000000000e000000000400000061030000000000000000000000000000000000000000000e000000000200000061020000000000000000000000000000000000000000000e0000000008000000610900000000000000000000000000000000000000000004020008000000000000000000000000000000000000000000000000000000000a0000000000000000021c0d1a0d0000000000000000000000000000000000000c000004000400000001000000000000000000000000000000000000000000000c000004000400000000000000000000000000000000000000000000000000000e000000000200000061050000000000000000000000000000000000000000000200000200020000000024000000000000000000000000000000000000000000020400000001000000000000000000000000000000000000000000000000000007000000000000000003741400000000000000000000000000000000000000000c000002000200000001ffffffffffffffffffffffffffffffff0000000000000c000002000200000000ffffffff00000000000000000000000000000000000014000000000400000000050000000000000000000000000000000000000000001a040002000100000002000000000000000000000000000000000000000000000e00000000020000006105000000000000000000000000000000000000000000020000020002000000004400000000000000000000000000000000000000000007000000000000000003741400000000000000000000000000000000000000000e0000000002000000610500000000000000000000000000000000000000000002000002000200000000640000000000000000000000000000000000000000000c000001000100000001800000000000000000000000000000000000000000000c0000010001000000000000000000000000000000000000000000000000000007000000000000000003741400000000000000000000000000000000000000000e00000000010000006108000000000000000000000000000000000000000000070000000000000000034c1400000000000000000000000000000000000000000e000001000000000060080000000000000000000000000000000000000000000e00000000020000006105000000000000000000000000000000000000000000020000020002000000008400000000000000000000000000000000000000000007000000000000000003741400000000000000000000000000000000000000000e000000000800000061080000000000000000000000000000000000000000000e0000000002000000610500000000000000000000000000000000000000000002000002000200000000a40000000000000000000000000000000000000000000e000002000000000060060000000000000000000000000000000000000000000e000000000200000061070000000000000000000000000000000000000000000c000002000200000001000000000000000000000000000000000000000000000c0000020002000000000000000000000000000000000000000000000000000004080000000000000000000000000000000000000000000000000000000000000a000000000000000004500d3b0d0000000000000000000000000000000000000e000002000000000060090000000000000000000000000000000000000000000e000000000400000061070000000000000000000000000000000000000000000204000200010000000000000000000000000000000000000000000000000000070000000000000000034c1400000000000000000000000000000000000000000e000000000200000061090000000000000000000000000000000000000000000e00000000040000006106000000000000000000000000000000000000000000020400020002000000000000000000000000000000000000000000000000000007000000000000000003741400000000000000000000000000000000000000000e000000000800000061080000000000000000000000000000000000000000000e00000000020000006109000000000000000000000000000000000000000000020000020002000000002000000000000000000000000000000000000000000004020008000000000000000000000000000000000000000000000000000000000a0000000000000000023b0d480d00000000000000000000000000000000000004020008000000000000000000000000000000000000000000000000000000000a000000000000000006500d4a0d0000000000000000000000000000000000000e0000000002000000610600000000000000000000000000000000000000000002020008000200000000000000000000000000000000000000000000000000000c000001000100000001000000000000000000000000000000000000000000000c0000010001000000000000000000000000000000000000000000000000000007000000000000000003741400000000000000000000000000000000000000000e000000000800000061080000000000000000000000000000000000000000000c000002000200000001040000000000000000000000000000000000000000000c000002000200000000000000000000000000000000000000000000000000000e0000000004000000610400000000000000000000000000000000000000000004040002000000000000000000000000000000000000000000000000000000000a000000000000000004980d550d000000000000000000000000000000000000020000080002000000001f0000000000000000000000000000000000000000000c000004000400000001e0ffffffffffffffffffffffffffffff0000000000000c000004000400000000ffffffffffffffffffffffffffffffff0000000000001a0200040002000000020000000000000000000000000000000000000000000002000002000400000000a40000000000000000000000000000000000000000000c000008000800000001000000000000000000000000000000000000000000000c000008000800000000000000000000000000000000000000000000000000001a0000040002000000021f0000000000000000000000000000000000000000000e0000020000000000600600000000000000000000000000000000000000000010000000000000000000000000000000000000000000000000000000000000000e000004000000000040000000000000000000000000000000000000000000000e0000040000000000600200000000000000000000000000000000000000000018000004000200000002050000000000000000000000000000000000000000000e000000000400000061050000000000000000000000000000000000000000000e0000020000000000600700000000000000000000000000000000000000000004020000000000000000000000000000000000000000000000000000000000000a000000000000000004760d660d0000000000000000000000000000000000000e0000080000000000600900000000000000000000000000000000000000000018000008000400000000050000000000000000000000000000000000000000000e000004000000000060080000000000000000000000000000000000000000000e000000000200000061050000000000000000000000000000000000000000000202000400010000000000000000000000000000000000000000000000000000070000000000000000034c1400000000000000000000000000000000000000000e000000000800000061090000000000000000000000000000000000000000000c000002000200000001200000000000000000000000000000000000000000000c000002000200000000000000000000000000000000000000000000000000000e0000000004000000610800000000000000000000000000000000000000000008040002000200000000000000000000000000000000000000000000000000000e0200010000000000400100000000000000000000000000000000000000000002000008000800000000010000000000000000000000000000000000000000000e0000000002000000610700000000000000000000000000000000000000000004080002000000000000000000000000000000000000000000000000000000000a000000000000000002660d760d0000000000000000000000000000000000000e0000000002000000610600000000000000000000000000000000000000000004020000000000000000000000000000000000000000000000000000000000000a000000000000000004930d790d0000000000000000000000000000000000000c000004000400000001e0ffffffffffffffffffffffffffffff0000000000000c000004000400000000ffffffffffffffffffffffffffffffff0000000000000e000000000800000061020000000000000000000000000000000000000000001a080004000400000002000000000000000000000000000000000000000000000e000004000000000060090000000000000000000000000000000000000000000e000000000200000061050000000000000000000000000000000000000000000202000400010000000000000000000000000000000000000000000000000000070000000000000000034c1400000000000000000000000000000000000000000c000002000200000001200000000000000000000000000000000000000000000c000002000200000000000000000000000000000000000000000000000000000e0000000004000000610900000000000000000000000000000000000000000008040002000200000000000000000000000000000000000000000000000000000e0000000004000000610600000000000000000000000000000000000000000018000004000400000000030000000000000000000000000000000000000000000c000008000800000001ffffffffffffffffffffffffffffffff0000000000000c000008000800000000ffffffffffffffffffffffffffffffff00000000000018040008001000000002000000000000000000000000000000000000000000000e020000002000000041010000000000000000000000000000000000000000001a200010001000000002000000000000000000000000000000000000000000000c000020002000000001000100000000000000000000000000000000000000000c00002000200000000000000000000000000000000000000000000000000000042000040004000000000000000000000000000000000000000000000000000018040008000400000000000000000000000000000000000000000000000000001a010004000400000002000000000000000000000000000000000000000000001a040010000400000004000000000000000000000000000000000000000000000e020004000000000040010000000000000000000000000000000000000000000e000000000200000061040000000000000000000000000000000000000000001800000200010000000020000000000000000000000000000000000000000000070000000000000000039b14000000000000000000000000000000000000000004010000000000000000000000000000000000000000000000000000000000000a000000000000000004d80f980d0000000000000000000000000000000000000e000000000200000041000000000000000000000000000000000000000000001a000002000200000002ffffffff000000000000000000000000000000000000020000020002000000001f0000000000000000000000000000000000000000001a000002000400000002e0ffffff0100000000000000000000000000000000000e0000000002000000610500000000000000000000000000000000000000000002040002000200000000000000000000000000000000000000000000000000000c000008000800000001010000000000000000000000000000000000000000000c0000080008000000000000000000000000000000000000000000000000000004020004000000000000000000000000000000000000000000000000000000000a000000000000000002a40da20d0000000000000000000000000000000000000c000008000800000001000000000000000000000000000000000000000000000c000008000800000000000000000000000000000000000000000000000000000c000004000400000001ffffffffffffffff00000000000000000000000000000c0000040004000000000000000000000000000000000000000000000000000004020004000000000000000000000000000000000000000000000000000000000a0000000000000000087b0ea80d00000000000000000000000000000000000004080000000000000000000000000000000000000000000000000000000000000a00000000000000000a7b0eaa0d0000000000000000000000000000000000000e000002000000000020020000000000000000000000000000000000000000000c000004000400000001020000000000000000000000000000000000000000000c0000040004000000000000000000000000000000000000000000000000000005040000000400000001000000000000000000000000000000000000000000000e000004000000000060090000000000000000000000000000000000000000000c000001000100000001000000000000000000000000000000000000000000000c0000010001000000000000000000000000000000004d7d1a2e0000000000000e0000020000000000600700000000000000000000000000000000000000000007000000000000000003741400000000000000000000000000000000000000000e0000000002000000610700000000000000000000000000000000000000000002000002000200000000040000000000000000000000000000000000000000000e0000000001000000610300000000000000000000000000000000000000000007000000000000000003741400000000000000000000000000000000000000000c000002000200000001ffffffffffffffffffffffffffffffff0000000000000c000002000200000000ffffffff0000000000000000000000000000000000000e000000000400000061090000000000000000000000000000000000000000001a040002000400000002000000000000000000000000000000000000000000000c000002000200000001040000000000000000000000000000000000000000000c0000020002000000000000000000000000000000000000000000000000000004040002000000000000000000000000000000000000000000000000000000000a000000000000000004ef0dbf0d0000000000000000000000000000000000000e0000040000000000600600000000000000000000000000000000000000000010000000000000000000000000000000000000000000000000000000000000000c000002000200000001240000000000000000000000000000000000000000000c000002000200000000000000000000000000000000000000000000000000000e000002000000000040000000000000000000000000000000000000000000000c000008000800000001000000000000000000000000000000000000000000000c000008000800000000000000000000000000000000000000000000000000000e000000000200000061070000000000000000000000000000000000000000000a000000000000000001cc0dcc0d00000000000000000000000000000000000002020000000800000000000000000000000000000000000000000000000000000e0000000002000000610700000000000000000000000000000000000000000004040000000000000000000000000000000000000000000000000000000000000a00000000000000000acc0ddf0d0000000000000000000000000000000000000e0000080000000000600900000000000000000000000000000000000000000018000008000400000000050000000000000000000000000000000000000000000e000004000000000060080000000000000000000000000000000000000000000202000400010000000000000000000000000000000000000000000000000000070000000000000000034c1400000000000000000000000000000000000000000c000002000200000001200000000000000000000000000000000000000000000c000002000200000000000000000000000000000000000000000000000000000e0000000004000000610800000000000000000000000000000000000000000008040002000200000000000000000000000000000000000000000000000000000e020001000000000040010000000000000000000000000000000000000000000e0000000008000000610900000000000000000000000000000000000000000002000008000200000000010000000000000000000000000000000000000000000c000004000400000001010000000000000000000000000000000000000000000c0000040004000000000000000000000000000000000000000000000000000004020008000000000000000000000000000000000000000000000000000000000a000000000000000002c80ddc0d0000000000000000000000000000000000000c000004000400000001000000000000000000000000000000000000000000000c000004000400000000000000000000000000000000000000000000000000000a000000000000000001c80dc80d0000000000000000000000000000000000000200000200010000000020000000000000000000000000000000000000000000070000000000000000034c1400000000000000000000000000000000000000000c000002000200000001ffffffffffffffffffffffffffffffff0000000000000c000002000200000000ffffffffffffffffffffffff000000000000000000000e000000000400000041020000000000000000000000000000000000000000001a040002000200000002000000000000000000000000000000000000000000000c000004000400000001000000000000000000000000000000000000000000000c000004000400000000000000000000000000000000ffffffff0000000000001a010004000400000002000000000000000000000000000000000000000000001a040002000200000004000000000000000000000000000000000000000000000e000002000000000040020000000000000000000000000000000000000000000e000000000200000061060000000000000000000000000000000000000000001800000200010000000020000000000000000000000000000000000000000000070000000000000000039b14000000000000000000000000000000000000000004010000000000000000000000000000000000000000000000000000000000000a0000000000000000044c10ef0d0000000000000000000000000000000000000e000000000200000041000000000000000000000000000000000000000000001a000002000200000002ffffffff000000000000000000000000000000000000020000020002000000001f0000000000000000000000000000000000000000001a000002000200000002e0ffffff0100000000000000000000000000000000000e0000000004000000610700000000000000000000000000000000000000000002020004000200000000000000000000000000000000000000000000000000000c000004000400000001ffffffffffffffff00000000000000000000000000000c0000040004000000000000000000000000000000000000000000000000000004020004000000000000000000000000000000000000000000000000000000000a000000000000000008c60ef90d0000000000000000000000000000000000000e000002000000000020020000000000000000000000000000000000000000000c000002000200000001030000000000000000000000000000000000000000000c0000020002000000000000000000000000000000000000000000000000000005020000000200000001000000000000000000000000000000000000000000000c000004000400000001ffffffffffffffffffffffffffffffff0000000000000c000004000400000000ffffffff0000000000000000000000000000000000001a020004000100000002000000000000000000000000000000000000000000000e0000000002000000610300000000000000000000000000000000000000000007000000000000000003b21300000000000000000000000000000000000000000a000000000000000002030e040e0000000000000000000000000000000000000a000000000000000001bf10bf100000000000000000000000000000000000000e0000000000000000e10800000000000000000000000000000000000000000007000000000000000000000000000000000000000000000000000000000000000c000002000200000001000000000000000000000000000000000000000000000c000002000200000000000000000000000000000000717b484e0000000000000e000002000000000020000000000000000000000000000000000000000000000c000001000100000001410000000000000000000000000000000000000000000c000001000100000000000000000000000000000000000000000000000000000c000002000200000001040000000000000000000000000000000000000000000c0000020002000000000000000000000000000000000000000000000000000007000000000000000003741400000000000000000000000000000000000000000c000002000200000001240000000000000000000000000000000000000000000c000002000200000000000000000000000000000000000000000000000000000e000002000000000000000000000000000000000000000000000000000000000c000004000400000001000000000000000000000000000000000000000000000c000004000400000000000000000000000000000000000000000000000000000c000002000200000001200000000000000000000000000000000000000000000c000002000200000000000000000000000000000000000000000000000000000a000000000000000001190e190e000000000000000000000000000000000000020800000004000000000000000000000000000000000000000000000000000004100000000000000000000000000000000000000000000000000000000000000a00000000000000000a190e9a0e000000000000000000000000000000000000180000040008000000000500000000000000000000000000000000000000000008080002000800000000000000000000000000000000000000000000000000000e080000001000000021000000000000000000000000000000000000000000000e0800100000000000000100000000000000000000000000000000000000000002000004000800000000010000000000000000000000000000000000000000000c000010001000000001010000000000000000000000000000000000000000000c0000100010000000000000000000000000000000000000000000000000000004080004000000000000000000000000000000000000000000000000000000000a000000000000000002160e220e0000000000000000000000000000000000000c000010001000000001000000000000000000000000000000000000000000000c000010001000000000000000000000000000000000000000000000000000000a000000000000000001160e160e0000000000000000000000000000000000000c000002000200000001000000000000000000000000000000000000000000000c000002000200000000000000000000000000000000000000000000000000000e000002000000000000000000000000000000000000000000000000000000000a000000000000000001bf10bf100000000000000000000000000000000000000c000002000200000001000000000000000000000000000000000000000000000c000002000200000000000000000000000000000000000000000000000000000e000002000000000000000000000000000000000000000000000000000000000a000000000000000001bf10bf100000000000000000000000000000000000000c000002000200000001000000000000000000000000000000000000000000000c000002000200000000000000000000000000000000000000000000000000000e000002000000000000000000000000000000000000000000000000000000000a000000000000000001bf10bf100000000000000000000000000000000000000c000002000200000001000000000000000000000000000000000000000000000c000002000200000000000000000000000000000000000000000000000000000e000002000000000000000000000000000000000000000000000000000000000a000000000000000001bf10bf100000000000000000000000000000000000000c000002000200000001000000000000000000000000000000000000000000000c000002000200000000000000000000000000000000717b484e0000000000000e000002000000000020000000000000000000000000000000000000000000000c000001000100000001410000000000000000000000000000000000000000000c000001000100000000000000000000000000000000000000000000000000000c000002000200000001040000000000000000000000000000000000000000000c0000020002000000000000000000000000000000000000000000000000000007000000000000000003741400000000000000000000000000000000000000000c000002000200000001240000000000000000000000000000000000000000000c000002000200000000000000000000000000000000000000000000000000000e000002000000000000000000000000000000000000000000000000000000000c000004000400000001000000000000000000000000000000000000000000000c000004000400000000000000000000000000000000000000000000000000000c000002000200000001200000000000000000000000000000000000000000000c000002000200000000000000000000000000000000000000000000000000000a000000000000000001480e480e000000000000000000000000000000000000020800000004000000000000000000000000000000000000000000000000000004100000000000000000000000000000000000000000000000000000000000000a00000000000000000a480ea50e000000000000000000000000000000000000180000040008000000000500000000000000000000000000000000000000000008080002000800000000000000000000000000000000000000000000000000000e080000001000000021000000000000000000000000000000000000000000000e0800100000000000000100000000000000000000000000000000000000000002000004000800000000010000000000000000000000000000000000000000000c000010001000000001010000000000000000000000000000000000000000000c0000100010000000000000000000000000000000000000000000000000000004080004000000000000000000000000000000000000000000000000000000000a000000000000000002450e510e0000000000000000000000000000000000000c000010001000000001000000000000000000000000000000000000000000000c000010001000000000000000000000000000000000000000000000000000000a000000000000000001450e450e0000000000000000000000000000000000000c000002000200000001000000000000000000000000000000000000000000000c000002000200000000000000000000000000000000000000000000000000000e000002000000000000000000000000000000000000000000000000000000000a000000000000000001bf10bf100000000000000000000000000000000000000c000002000200000001000000000000000000000000000000000000000000000c000002000200000000000000000000000000000000000000000000000000000e000002000000000000000000000000000000000000000000000000000000000a000000000000000001bf10bf100000000000000000000000000000000000000c000002000200000001000000000000000000000000000000000000000000000c000002000200000000000000000000000000000000717b484e0000000000000e000002000000000020000000000000000000000000000000000000000000000c000001000100000001410000000000000000000000000000000000000000000c000001000100000000000000000000000000000000000000000000000000000c000002000200000001040000000000000000000000000000000000000000000c0000020002000000000000000000000000000000000000000000000000000007000000000000000003741400000000000000000000000000000000000000000c000002000200000001240000000000000000000000000000000000000000000c000002000200000000000000000000000000000000000000000000000000000e000002000000000000000000000000000000000000000000000000000000000c000004000400000001000000000000000000000000000000000000000000000c000004000400000000000000000000000000000000000000000000000000000c000002000200000001200000000000000000000000000000000000000000000c000002000200000000000000000000000000000000000000000000000000000a0000000000000000016f0e6f0e000000000000000000000000000000000000020800000004000000000000000000000000000000000000000000000000000004100000000000000000000000000000000000000000000000000000000000000a00000000000000000a6f0eb00e000000000000000000000000000000000000180000040008000000000500000000000000000000000000000000000000000008080002000800000000000000000000000000000000000000000000000000000e080000001000000021000000000000000000000000000000000000000000000e0800100000000000000100000000000000000000000000000000000000000002000004000800000000010000000000000000000000000000000000000000000c000010001000000001010000000000000000000000000000000000000000000c0000100010000000000000000000000000000000000000000000000000000004080004000000000000000000000000000000000000000000000000000000000a0000000000000000026c0e780e0000000000000000000000000000000000000c000010001000000001000000000000000000000000000000000000000000000c000010001000000000000000000000000000000000000000000000000000000a0000000000000000016c0e6c0e0000000000000000000000000000000000000c000002000200000001000000000000000000000000000000000000000000000c000002000200000000000000000000000000000000717b484e0000000000000e000002000000000020000000000000000000000000000000000000000000000c000001000100000001410000000000000000000000000000000000000000000c000001000100000000000000000000000000000000000000000000000000000c000002000200000001040000000000000000000000000000000000000000000c0000020002000000000000000000000000000000000000000000000000000007000000000000000003741400000000000000000000000000000000000000000c000002000200000001240000000000000000000000000000000000000000000c000002000200000000000000000000000000000000000000000000000000000e000002000000000000000000000000000000000000000000000000000000000c000004000400000001000000000000000000000000000000000000000000000c000004000400000000000000000000000000000000000000000000000000000c000002000200000001200000000000000000000000000000000000000000000c000002000200000000000000000000000000000000000000000000000000000a0000000000000000018e0e8e0e000000000000000000000000000000000000020800000004000000000000000000000000000000000000000000000000000004100000000000000000000000000000000000000000000000000000000000000a00000000000000000a8e0ebb0e000000000000000000000000000000000000180000040008000000000500000000000000000000000000000000000000000008080002000800000000000000000000000000000000000000000000000000000e080000001000000021000000000000000000000000000000000000000000000e0800100000000000000100000000000000000000000000000000000000000002000004000800000000010000000000000000000000000000000000000000000c000010001000000001010000000000000000000000000000000000000000000c0000100010000000000000000000000000000000000000000000000000000004080004000000000000000000000000000000000000000000000000000000000a0000000000000000028b0e970e0000000000000000000000000000000000000c000010001000000001000000000000000000000000000000000000000000000c000010001000000000000000000000000000000000000000000000000000000a0000000000000000018b0e8b0e0000000000000000000000000000000000000c000002000200000001ffffffffffffffffffffffffffffffff0000000000000c000002000200000000ffffffffffffffffffffffff000000000000000000000e000000000400000001020000000000000000000000000000000000000000001a040002000200000002000000000000000000000000000000000000000000000c000004000400000001000000000000000000000000000000000000000000000c000004000400000000000000000000000000000000ffffffff0000000000000e000000000800000021010000000000000000000000000000000000000000001a080004000400000002000000000000000000000000000000000000000000001a040002000200000004000000000000000000000000000000000000000000000e000002000000000000020000000000000000000000000000000000000000000a000000000000000001bf10bf100000000000000000000000000000000000000c000002000200000001ffffffffffffffffffffffffffffffff0000000000000c000002000200000000ffffffffffffffffffffffff000000000000000000000e000000000400000001020000000000000000000000000000000000000000001a040002000200000002000000000000000000000000000000000000000000000c000004000400000001000000000000000000000000000000000000000000000c000004000400000000000000000000000000000000ffffffff0000000000000e000000000800000021010000000000000000000000000000000000000000001a080004000400000002000000000000000000000000000000000000000000001a040002000200000004000000000000000000000000000000000000000000000e000002000000000000020000000000000000000000000000000000000000000a000000000000000001bf10bf100000000000000000000000000000000000000c000002000200000001ffffffffffffffffffffffffffffffff0000000000000c000002000200000000ffffffffffffffffffffffff000000000000000000000e000000000400000001020000000000000000000000000000000000000000001a040002000200000002000000000000000000000000000000000000000000000c000004000400000001000000000000000000000000000000000000000000000c000004000400000000000000000000000000000000ffffffff0000000000000e000000000800000021010000000000000000000000000000000000000000001a080004000400000002000000000000000000000000000000000000000000001a040002000200000004000000000000000000000000000000000000000000000e000002000000000000020000000000000000000000000000000000000000000a000000000000000001bf10bf100000000000000000000000000000000000000c000002000200000001ffffffffffffffffffffffffffffffff0000000000000c000002000200000000ffffffffffffffffffffffff000000000000000000000e000000000400000001020000000000000000000000000000000000000000001a040002000200000002000000000000000000000000000000000000000000000c000004000400000001000000000000000000000000000000000000000000000c000004000400000000000000000000000000000000ffffffff0000000000000e000000000800000021010000000000000000000000000000000000000000001a080004000400000002000000000000000000000000000000000000000000001a040002000200000004000000000000000000000000000000000000000000000e000002000000000000020000000000000000000000000000000000000000000a000000000000000001bf10bf100000000000000000000000000000000000000c000002000200000001000000000000000000000000000000000000000000000c000002000200000000000000000000000000000000717b484e0000000000000e000002000000000020000000000000000000000000000000000000000000000c000001000100000001410000000000000000000000000000000000000000000c000001000100000000000000000000000000000000000000000000000000000c000002000200000001040000000000000000000000000000000000000000000c0000020002000000000000000000000000000000000000000000000000000007000000000000000003741400000000000000000000000000000000000000000c000002000200000001240000000000000000000000000000000000000000000c000002000200000000000000000000000000000000000000000000000000000e000002000000000000000000000000000000000000000000000000000000000c000004000400000001000000000000000000000000000000000000000000000c000004000400000000000000000000000000000000000000000000000000000c000002000200000001200000000000000000000000000000000000000000000c000002000200000000000000000000000000000000000000000000000000000a000000000000000001d90ed90e000000000000000000000000000000000000020800000004000000000000000000000000000000000000000000000000000004100000000000000000000000000000000000000000000000000000000000000a00000000000000000ad90ee50e000000000000000000000000000000000000180000040008000000000500000000000000000000000000000000000000000008080002000800000000000000000000000000000000000000000000000000000e080000001000000021000000000000000000000000000000000000000000000e0800100000000000000100000000000000000000000000000000000000000002000004000800000000010000000000000000000000000000000000000000000c000010001000000001010000000000000000000000000000000000000000000c0000100010000000000000000000000000000000000000000000000000000004080004000000000000000000000000000000000000000000000000000000000a000000000000000002d60ee20e0000000000000000000000000000000000000c000010001000000001000000000000000000000000000000000000000000000c000010001000000000000000000000000000000000000000000000000000000a000000000000000001d60ed60e0000000000000000000000000000000000000c000002000200000001ffffffffffffffffffffffffffffffff0000000000000c000002000200000000ffffffffffffffffffffffff000000000000000000000e000000000400000001020000000000000000000000000000000000000000001a040002000200000002000000000000000000000000000000000000000000000c000004000400000001000000000000000000000000000000000000000000000c000004000400000000000000000000000000000000ffffffff0000000000000e000000000800000021010000000000000000000000000000000000000000001a080004000400000002000000000000000000000000000000000000000000001a040002000200000004000000000000000000000000000000000000000000000e000002000000000000020000000000000000000000000000000000000000000a000000000000000001bf10bf100000000000000000000000000000000000000c000008000800000001000000000000000000000000000000000000000000000c000008000800000000000000000000000000000000000000000000000000000e000000000200000021020000000000000000000000000000000000000000000e000002000000000060090000000000000000000000000000000000000000000e000000000200000041000000000000000000000000000000000000000000001a0000020004000000021f0000000000000000000000000000000000000000000e000004000000000060060000000000000000000000000000000000000000001a000002000200000002e0ffffff0000000000000000000000000000000000000e0000020000000000600500000000000000000000000000000000000000000018000002000200000002050000000000000000000000000000000000000000000e0000020000000000600700000000000000000000000000000000000000000004020000000000000000000000000000000000000000000000000000000000000a0000000000000000040b0ffd0e0000000000000000000000000000000000000e0000080000000000600800000000000000000000000000000000000000000018000008000400000000050000000000000000000000000000000000000000000e0000000002000000610900000000000000000000000000000000000000000002020004000200000000000000000000000000000000000000000000000000000c000008000800000001200000000000000000000000000000000000000000000c0000080008000000000000000000000000000000000000000000000000000008040008000400000000000000000000000000000000000000000000000000000e0400000001000000410100000000000000000000000000000000000000000007000000000000000003741400000000000000000000000000000000000000000e0000000008000000610800000000000000000000000000000000000000000002000008000800000000010000000000000000000000000000000000000000000e0000000002000000610700000000000000000000000000000000000000000004080002000000000000000000000000000000000000000000000000000000000a000000000000000002fd0e0b0f0000000000000000000000000000000000000e000000000200000061090000000000000000000000000000000000000000000e0000000002000000610600000000000000000000000000000000000000000004020000000000000000000000000000000000000000000000000000000000000a0000000000000000042b0f0f0f0000000000000000000000000000000000000e0000000002000000610600000000000000000000000000000000000000000018000002000200000000030000000000000000000000000000000000000000000c000004000400000001000100000000000000000000000000000000000000000c0000040004000000000000000000000000000000000000000000000000000004040002000400000000000000000000000000000000000000000000000000000c000008000800000001ffffffffffffffffffffffffffffffff0000000000000c000008000800000000ffffffffffffffffffffffffffffffff00000000000018040008000400000000000000000000000000000000000000000000000000000c000010001000000001200000000000000000000000000000000000000000000c000010001000000000000000000000000000000000000000000000000000000e0000000020000000610500000000000000000000000000000000000000000008200010001000000000000000000000000000000000000000000000000000000e100000001000000041010000000000000000000000000000000000000000001a100004000400000002000000000000000000000000000000000000000000000e0000040000000000600800000000000000000000000000000000000000000018020008000200000002000000000000000000000000000000000000000000000e000002000000000060060000000000000000000000000000000000000000000e0000000002000000610900000000000000000000000000000000000000000002020020000200000000000000000000000000000000000000000000000000000e000002000000000060070000000000000000000000000000000000000000000202000000010000000000000000000000000000000000000000000000000000070000000000000000034c1400000000000000000000000000000000000000000e000000000200000061060000000000000000000000000000000000000000001a010002000200000002000000000000000000000000000000000000000000000e000000000400000061080000000000000000000000000000000000000000001a040002000100000004000000000000000000000000000000000000000000000e0000000002000000610700000000000000000000000000000000000000000007000000000000000003741400000000000000000000000000000000000000000c000008000800000001000000000000000000000000000000000000000000000c000008000800000000000000000000000000000000000000000000000000000e000000000400000041000000000000000000000000000000000000000000001a0000040002000000021f0000000000000000000000000000000000000000000e000002000000000060050000000000000000000000000000000000000000000e000004000000000060040000000000000000000000000000000000000000001a000004000200000002ffffffff0000000000000000000000000000000000000e0000020000000000000000000000000000000000000000000000000000000018000002000200000002050000000000000000000000000000000000000000000e000000000400000061090000000000000000000000000000000000000000000e0000020000000000600600000000000000000000000000000000000000000004020000000000000000000000000000000000000000000000000000000000000a000000000000000004480f380f0000000000000000000000000000000000000e0000080000000000600800000000000000000000000000000000000000000018000008000400000000050000000000000000000000000000000000000000000e000004000000000060070000000000000000000000000000000000000000000e000000000200000061090000000000000000000000000000000000000000000202000400010000000000000000000000000000000000000000000000000000070000000000000000034c1400000000000000000000000000000000000000000e000000000800000061080000000000000000000000000000000000000000000c000002000200000001200000000000000000000000000000000000000000000c000002000200000000000000000000000000000000000000000000000000000e0000000004000000610700000000000000000000000000000000000000000008040002000200000000000000000000000000000000000000000000000000000e0200010000000000000100000000000000000000000000000000000000000002000008000800000000010000000000000000000000000000000000000000000e0000000002000000610600000000000000000000000000000000000000000004080002000000000000000000000000000000000000000000000000000000000a000000000000000002380f480f0000000000000000000000000000000000000e0000000002000000610500000000000000000000000000000000000000000004020000000000000000000000000000000000000000000000000000000000000a000000000000000004bf104b0f0000000000000000000000000000000000000e000000000200000061040000000000000000000000000000000000000000001a000002000400000002e0ffffff0000000000000000000000000000000000000e000004000000000060080000000000000000000000000000000000000000000e000000000200000061090000000000000000000000000000000000000000000202000400010000000000000000000000000000000000000000000000000000070000000000000000034c1400000000000000000000000000000000000000000c000002000200000001200000000000000000000000000000000000000000000c000002000200000000000000000000000000000000000000000000000000000e0000000004000000610800000000000000000000000000000000000000000008040002000200000000000000000000000000000000000000000000000000000e0000000004000000610500000000000000000000000000000000000000000018000004000400000000030000000000000000000000000000000000000000000c000008000800000001ffffffffffffffffffffffffffffffff0000000000000c000008000800000000ffffffffffffffffffffffffffffffff00000000000018040008001000000002000000000000000000000000000000000000000000000e020000002000000001010000000000000000000000000000000000000000001a200010001000000002000000000000000000000000000000000000000000000c000020002000000001000100000000000000000000000000000000000000000c00002000200000000000000000000000000000000000000000000000000000042000040004000000000000000000000000000000000000000000000000000018040008000400000000000000000000000000000000000000000000000000001a010004000400000002000000000000000000000000000000000000000000001a040010000400000004000000000000000000000000000000000000000000000e020004000000000000010000000000000000000000000000000000000000000a000000000000000001bf10bf100000000000000000000000000000000000000c000008000800000001000000000000000000000000000000000000000000000c000008000800000000000000000000000000000000000000000000000000000e000000000200000021020000000000000000000000000000000000000000000e000002000000000060090000000000000000000000000000000000000000000e000000000200000041000000000000000000000000000000000000000000001a0000020004000000021f0000000000000000000000000000000000000000000e000004000000000060060000000000000000000000000000000000000000001a000002000200000002e0ffffff0000000000000000000000000000000000000e0000020000000000600500000000000000000000000000000000000000000018000002000200000002050000000000000000000000000000000000000000000e0000020000000000600700000000000000000000000000000000000000000004020000000000000000000000000000000000000000000000000000000000000a0000000000000000047f0f710f0000000000000000000000000000000000000e0000080000000000600800000000000000000000000000000000000000000018000008000400000000050000000000000000000000000000000000000000000e0000000002000000610900000000000000000000000000000000000000000002020004000200000000000000000000000000000000000000000000000000000c000008000800000001200000000000000000000000000000000000000000000c0000080008000000000000000000000000000000000000000000000000000008040008000400000000000000000000000000000000000000000000000000000e0400000001000000410100000000000000000000000000000000000000000007000000000000000003741400000000000000000000000000000000000000000e0000000008000000610800000000000000000000000000000000000000000002000008000800000000010000000000000000000000000000000000000000000e0000000002000000610700000000000000000000000000000000000000000004080002000000000000000000000000000000000000000000000000000000000a000000000000000002710f7f0f0000000000000000000000000000000000000e000000000200000061090000000000000000000000000000000000000000000e0000000002000000610600000000000000000000000000000000000000000004020000000000000000000000000000000000000000000000000000000000000a0000000000000000049f0f830f0000000000000000000000000000000000000e0000000002000000610600000000000000000000000000000000000000000018000002000200000000030000000000000000000000000000000000000000000c000004000400000001000100000000000000000000000000000000000000000c0000040004000000000000000000000000000000000000000000000000000004040002000400000000000000000000000000000000000000000000000000000c000008000800000001ffffffffffffffffffffffffffffffff0000000000000c000008000800000000ffffffffffffffffffffffffffffffff00000000000018040008000400000000000000000000000000000000000000000000000000000c000010001000000001200000000000000000000000000000000000000000000c000010001000000000000000000000000000000000000000000000000000000e0000000020000000610500000000000000000000000000000000000000000008200010001000000000000000000000000000000000000000000000000000000e100000001000000041010000000000000000000000000000000000000000001a100004000400000002000000000000000000000000000000000000000000000e0000040000000000600800000000000000000000000000000000000000000018020008000200000002000000000000000000000000000000000000000000000e000002000000000060060000000000000000000000000000000000000000000e0000000002000000610900000000000000000000000000000000000000000002020020000200000000000000000000000000000000000000000000000000000e000002000000000060070000000000000000000000000000000000000000000202000000010000000000000000000000000000000000000000000000000000070000000000000000034c1400000000000000000000000000000000000000000e000000000200000061060000000000000000000000000000000000000000001a010002000200000002000000000000000000000000000000000000000000000e000000000400000061080000000000000000000000000000000000000000001a040002000100000004000000000000000000000000000000000000000000000e0000000002000000610700000000000000000000000000000000000000000007000000000000000003741400000000000000000000000000000000000000000c000008000800000001000000000000000000000000000000000000000000000c000008000800000000000000000000000000000000000000000000000000000e000000000400000041000000000000000000000000000000000000000000001a0000040002000000021f0000000000000000000000000000000000000000000e000002000000000060050000000000000000000000000000000000000000000e000004000000000060040000000000000000000000000000000000000000001a000004000200000002ffffffff0000000000000000000000000000000000000e0000020000000000000000000000000000000000000000000000000000000018000002000200000002050000000000000000000000000000000000000000000e000000000400000061090000000000000000000000000000000000000000000e0000020000000000600600000000000000000000000000000000000000000004020000000000000000000000000000000000000000000000000000000000000a000000000000000004bc0fac0f0000000000000000000000000000000000000e0000080000000000600800000000000000000000000000000000000000000018000008000400000000050000000000000000000000000000000000000000000e000004000000000060070000000000000000000000000000000000000000000e000000000200000061090000000000000000000000000000000000000000000202000400010000000000000000000000000000000000000000000000000000070000000000000000034c1400000000000000000000000000000000000000000e000000000800000061080000000000000000000000000000000000000000000c000002000200000001200000000000000000000000000000000000000000000c000002000200000000000000000000000000000000000000000000000000000e0000000004000000610700000000000000000000000000000000000000000008040002000200000000000000000000000000000000000000000000000000000e0200010000000000000100000000000000000000000000000000000000000002000008000800000000010000000000000000000000000000000000000000000e0000000002000000610600000000000000000000000000000000000000000004080002000000000000000000000000000000000000000000000000000000000a000000000000000002ac0fbc0f0000000000000000000000000000000000000e0000000002000000610500000000000000000000000000000000000000000004020000000000000000000000000000000000000000000000000000000000000a000000000000000004bf10bf0f0000000000000000000000000000000000000e000000000200000061040000000000000000000000000000000000000000001a000002000400000002e0ffffff0000000000000000000000000000000000000e000004000000000060080000000000000000000000000000000000000000000e000000000200000061090000000000000000000000000000000000000000000202000400010000000000000000000000000000000000000000000000000000070000000000000000034c1400000000000000000000000000000000000000000c000002000200000001200000000000000000000000000000000000000000000c000002000200000000000000000000000000000000000000000000000000000e0000000004000000610800000000000000000000000000000000000000000008040002000200000000000000000000000000000000000000000000000000000e0000000004000000610500000000000000000000000000000000000000000018000004000400000000030000000000000000000000000000000000000000000c000008000800000001ffffffffffffffffffffffffffffffff0000000000000c000008000800000000ffffffffffffffffffffffffffffffff00000000000018040008001000000002000000000000000000000000000000000000000000000e020000002000000001010000000000000000000000000000000000000000001a200010001000000002000000000000000000000000000000000000000000000c000020002000000001000100000000000000000000000000000000000000000c00002000200000000000000000000000000000000000000000000000000000042000040004000000000000000000000000000000000000000000000000000018040008000400000000000000000000000000000000000000000000000000001a010004000400000002000000000000000000000000000000000000000000001a040010000400000004000000000000000000000000000000000000000000000e020004000000000000010000000000000000000000000000000000000000000a000000000000000001bf10bf100000000000000000000000000000000000000c000008000800000001000000000000000000000000000000000000000000000c000008000800000000000000000000000000000000000000000000000000000e000000000200000021020000000000000000000000000000000000000000000e000002000000000060090000000000000000000000000000000000000000000e000000000200000041000000000000000000000000000000000000000000001a0000020004000000021f0000000000000000000000000000000000000000000e000004000000000060060000000000000000000000000000000000000000001a000002000200000002e0ffffff0000000000000000000000000000000000000e0000020000000000600500000000000000000000000000000000000000000018000002000200000002050000000000000000000000000000000000000000000e0000020000000000600700000000000000000000000000000000000000000004020000000000000000000000000000000000000000000000000000000000000a000000000000000004f30fe50f0000000000000000000000000000000000000e0000080000000000600800000000000000000000000000000000000000000018000008000400000000050000000000000000000000000000000000000000000e0000000002000000610900000000000000000000000000000000000000000002020004000200000000000000000000000000000000000000000000000000000c000008000800000001200000000000000000000000000000000000000000000c0000080008000000000000000000000000000000000000000000000000000008040008000400000000000000000000000000000000000000000000000000000e0400000001000000410100000000000000000000000000000000000000000007000000000000000003741400000000000000000000000000000000000000000e0000000008000000610800000000000000000000000000000000000000000002000008000800000000010000000000000000000000000000000000000000000e0000000002000000610700000000000000000000000000000000000000000004080002000000000000000000000000000000000000000000000000000000000a000000000000000002e50ff30f0000000000000000000000000000000000000e000000000200000061090000000000000000000000000000000000000000000e0000000002000000610600000000000000000000000000000000000000000004020000000000000000000000000000000000000000000000000000000000000a0000000000000000041310f70f0000000000000000000000000000000000000e0000000002000000610600000000000000000000000000000000000000000018000002000200000000030000000000000000000000000000000000000000000c000004000400000001000100000000000000000000000000000000000000000c0000040004000000000000000000000000000000000000000000000000000004040002000400000000000000000000000000000000000000000000000000000c000008000800000001ffffffffffffffffffffffffffffffff0000000000000c000008000800000000ffffffffffffffffffffffffffffffff00000000000018040008000400000000000000000000000000000000000000000000000000000c000010001000000001200000000000000000000000000000000000000000000c000010001000000000000000000000000000000000000000000000000000000e0000000020000000610500000000000000000000000000000000000000000008200010001000000000000000000000000000000000000000000000000000000e100000001000000041010000000000000000000000000000000000000000001a100004000400000002000000000000000000000000000000000000000000000e0000040000000000600800000000000000000000000000000000000000000018020008000200000002000000000000000000000000000000000000000000000e000002000000000060060000000000000000000000000000000000000000000e0000000002000000610900000000000000000000000000000000000000000002020020000200000000000000000000000000000000000000000000000000000e000002000000000060070000000000000000000000000000000000000000000202000000010000000000000000000000000000000000000000000000000000070000000000000000034c1400000000000000000000000000000000000000000e000000000200000061060000000000000000000000000000000000000000001a010002000200000002000000000000000000000000000000000000000000000e000000000400000061080000000000000000000000000000000000000000001a040002000100000004000000000000000000000000000000000000000000000e0000000002000000610700000000000000000000000000000000000000000007000000000000000003741400000000000000000000000000000000000000000c000008000800000001000000000000000000000000000000000000000000000c000008000800000000000000000000000000000000000000000000000000000e000000000400000041000000000000000000000000000000000000000000001a0000040002000000021f0000000000000000000000000000000000000000000e000002000000000060050000000000000000000000000000000000000000000e000004000000000060040000000000000000000000000000000000000000001a000004000200000002ffffffff0000000000000000000000000000000000000e0000020000000000000000000000000000000000000000000000000000000018000002000200000002050000000000000000000000000000000000000000000e000000000400000061090000000000000000000000000000000000000000000e0000020000000000600600000000000000000000000000000000000000000004020000000000000000000000000000000000000000000000000000000000000a000000000000000004301020100000000000000000000000000000000000000e0000080000000000600800000000000000000000000000000000000000000018000008000400000000050000000000000000000000000000000000000000000e000004000000000060070000000000000000000000000000000000000000000e000000000200000061090000000000000000000000000000000000000000000202000400010000000000000000000000000000000000000000000000000000070000000000000000034c1400000000000000000000000000000000000000000e000000000800000061080000000000000000000000000000000000000000000c000002000200000001200000000000000000000000000000000000000000000c000002000200000000000000000000000000000000000000000000000000000e0000000004000000610700000000000000000000000000000000000000000008040002000200000000000000000000000000000000000000000000000000000e0200010000000000000100000000000000000000000000000000000000000002000008000800000000010000000000000000000000000000000000000000000e0000000002000000610600000000000000000000000000000000000000000004080002000000000000000000000000000000000000000000000000000000000a000000000000000002201030100000000000000000000000000000000000000e0000000002000000610500000000000000000000000000000000000000000004020000000000000000000000000000000000000000000000000000000000000a000000000000000004bf1033100000000000000000000000000000000000000e000000000200000061040000000000000000000000000000000000000000001a000002000400000002e0ffffff0000000000000000000000000000000000000e000004000000000060080000000000000000000000000000000000000000000e000000000200000061090000000000000000000000000000000000000000000202000400010000000000000000000000000000000000000000000000000000070000000000000000034c1400000000000000000000000000000000000000000c000002000200000001200000000000000000000000000000000000000000000c000002000200000000000000000000000000000000000000000000000000000e0000000004000000610800000000000000000000000000000000000000000008040002000200000000000000000000000000000000000000000000000000000e0000000004000000610500000000000000000000000000000000000000000018000004000400000000030000000000000000000000000000000000000000000c000008000800000001ffffffffffffffffffffffffffffffff0000000000000c000008000800000000ffffffffffffffffffffffffffffffff00000000000018040008001000000002000000000000000000000000000000000000000000000e020000002000000001010000000000000000000000000000000000000000001a200010001000000002000000000000000000000000000000000000000000000c000020002000000001000100000000000000000000000000000000000000000c00002000200000000000000000000000000000000000000000000000000000042000040004000000000000000000000000000000000000000000000000000018040008000400000000000000000000000000000000000000000000000000001a010004000400000002000000000000000000000000000000000000000000001a040010000400000004000000000000000000000000000000000000000000000e020004000000000000010000000000000000000000000000000000000000000a000000000000000001bf10bf100000000000000000000000000000000000000c000008000800000001000000000000000000000000000000000000000000000c000008000800000000000000000000000000000000000000000000000000000e000000000200000021020000000000000000000000000000000000000000000e000002000000000060090000000000000000000000000000000000000000000e000000000200000041000000000000000000000000000000000000000000001a0000020004000000021f0000000000000000000000000000000000000000000e000004000000000060060000000000000000000000000000000000000000001a000002000200000002e0ffffff0000000000000000000000000000000000000e0000020000000000600500000000000000000000000000000000000000000018000002000200000002050000000000000000000000000000000000000000000e0000020000000000600700000000000000000000000000000000000000000004020000000000000000000000000000000000000000000000000000000000000a000000000000000004671059100000000000000000000000000000000000000e0000080000000000600800000000000000000000000000000000000000000018000008000400000000050000000000000000000000000000000000000000000e0000000002000000610900000000000000000000000000000000000000000002020004000200000000000000000000000000000000000000000000000000000c000008000800000001200000000000000000000000000000000000000000000c0000080008000000000000000000000000000000000000000000000000000008040008000400000000000000000000000000000000000000000000000000000e0400000001000000410100000000000000000000000000000000000000000007000000000000000003741400000000000000000000000000000000000000000e0000000008000000610800000000000000000000000000000000000000000002000008000800000000010000000000000000000000000000000000000000000e0000000002000000610700000000000000000000000000000000000000000004080002000000000000000000000000000000000000000000000000000000000a000000000000000002591067100000000000000000000000000000000000000e000000000200000061090000000000000000000000000000000000000000000e0000000002000000610600000000000000000000000000000000000000000004020000000000000000000000000000000000000000000000000000000000000a00000000000000000487106b100000000000000000000000000000000000000e0000000002000000610600000000000000000000000000000000000000000018000002000200000000030000000000000000000000000000000000000000000c000004000400000001000100000000000000000000000000000000000000000c0000040004000000000000000000000000000000000000000000000000000004040002000400000000000000000000000000000000000000000000000000000c000008000800000001ffffffffffffffffffffffffffffffff0000000000000c000008000800000000ffffffffffffffffffffffffffffffff00000000000018040008000400000000000000000000000000000000000000000000000000000c000010001000000001200000000000000000000000000000000000000000000c000010001000000000000000000000000000000000000000000000000000000e0000000020000000610500000000000000000000000000000000000000000008200010001000000000000000000000000000000000000000000000000000000e100000001000000041010000000000000000000000000000000000000000001a100004000400000002000000000000000000000000000000000000000000000e0000040000000000600800000000000000000000000000000000000000000018020008000200000002000000000000000000000000000000000000000000000e000002000000000060060000000000000000000000000000000000000000000e0000000002000000610900000000000000000000000000000000000000000002020020000200000000000000000000000000000000000000000000000000000e000002000000000060070000000000000000000000000000000000000000000202000000010000000000000000000000000000000000000000000000000000070000000000000000034c1400000000000000000000000000000000000000000e000000000200000061060000000000000000000000000000000000000000001a010002000200000002000000000000000000000000000000000000000000000e000000000400000061080000000000000000000000000000000000000000001a040002000100000004000000000000000000000000000000000000000000000e0000000002000000610700000000000000000000000000000000000000000007000000000000000003741400000000000000000000000000000000000000000c000008000800000001000000000000000000000000000000000000000000000c000008000800000000000000000000000000000000000000000000000000000e000000000400000041000000000000000000000000000000000000000000001a0000040002000000021f0000000000000000000000000000000000000000000e000002000000000060050000000000000000000000000000000000000000000e000004000000000060040000000000000000000000000000000000000000001a000004000200000002ffffffff0000000000000000000000000000000000000e0000020000000000000000000000000000000000000000000000000000000018000002000200000002050000000000000000000000000000000000000000000e000000000400000061090000000000000000000000000000000000000000000e0000020000000000600600000000000000000000000000000000000000000004020000000000000000000000000000000000000000000000000000000000000a000000000000000004a41094100000000000000000000000000000000000000e0000080000000000600800000000000000000000000000000000000000000018000008000400000000050000000000000000000000000000000000000000000e000004000000000060070000000000000000000000000000000000000000000e000000000200000061090000000000000000000000000000000000000000000202000400010000000000000000000000000000000000000000000000000000070000000000000000034c1400000000000000000000000000000000000000000e000000000800000061080000000000000000000000000000000000000000000c000002000200000001200000000000000000000000000000000000000000000c000002000200000000000000000000000000000000000000000000000000000e0000000004000000610700000000000000000000000000000000000000000008040002000200000000000000000000000000000000000000000000000000000e0200010000000000000100000000000000000000000000000000000000000002000008000800000000010000000000000000000000000000000000000000000e0000000002000000610600000000000000000000000000000000000000000004080002000000000000000000000000000000000000000000000000000000000a0000000000000000029410a4100000000000000000000000000000000000000e0000000002000000610500000000000000000000000000000000000000000004020000000000000000000000000000000000000000000000000000000000000a000000000000000004bf10a7100000000000000000000000000000000000000e000000000200000061040000000000000000000000000000000000000000001a000002000400000002e0ffffff0000000000000000000000000000000000000e000004000000000060080000000000000000000000000000000000000000000e000000000200000061090000000000000000000000000000000000000000000202000400010000000000000000000000000000000000000000000000000000070000000000000000034c1400000000000000000000000000000000000000000c000002000200000001200000000000000000000000000000000000000000000c000002000200000000000000000000000000000000000000000000000000000e0000000004000000610800000000000000000000000000000000000000000008040002000200000000000000000000000000000000000000000000000000000e0000000004000000610500000000000000000000000000000000000000000018000004000400000000030000000000000000000000000000000000000000000c000008000800000001ffffffffffffffffffffffffffffffff0000000000000c000008000800000000ffffffffffffffffffffffffffffffff00000000000018040008001000000002000000000000000000000000000000000000000000000e020000002000000001010000000000000000000000000000000000000000001a200010001000000002000000000000000000000000000000000000000000000c000020002000000001000100000000000000000000000000000000000000000c00002000200000000000000000000000000000000000000000000000000000042000040004000000000000000000000000000000000000000000000000000018040008000400000000000000000000000000000000000000000000000000001a010004000400000002000000000000000000000000000000000000000000001a040010000400000004000000000000000000000000000000000000000000000e020004000000000000010000000000000000000000000000000000000000000e0000000000000000e10800000000000000000000000000000000000000000007000000000000000004000000000000000000000000000000000000000000000e0000000000000000e0020000000000000000000000000000000000000000000c000004000400000001ffffffffffffffffffffffffffffffff0000000000000c000004000400000000ffffffffffffffffffffffffffffffff0000000000001a0200040004000000080000000000000000000000000000000000000000000004040001000000000000000000000000000000000000000000000000000000000a000000000000000002d610c71000000000000000000000000000000000000002020001000400000000000000000000000000000000000000000000000000000c000008000800000001010000000000000000000000000000000000000000000c000008000800000000000000000000000000000000000000000000000000000c000010001000000001010000000000000000000000000000000000000000000c0000100010000000000000000000000000000000000000000000000000000004040002000000000000000000000000000000000000000000000000000000000a000000000000000002d010ce100000000000000000000000000000000000000c000010001000000001000000000000000000000000000000000000000000000c000010001000000000000000000000000000000000000000000000000000001a0000100002000000020100000000000000000000000000000000000000000004020008000000000000000000000000000000000000000000000000000000000a000000000000000004f510d31000000000000000000000000000000000000002040000000100000000000000000000000000000000000000000000000000000e0000000000000000e10200000000000000000000000000000000000000000007000000000000000000000000000000000000000000000000000000000000000c000002000200000001000000000000000000000000000000000000000000000c000002000200000000000000000000000000000000717b484e0000000000000e000002000000000020000000000000000000000000000000000000000000000c000001000100000001110000000000000000000000000000000000000000000c000001000100000000000000000000000000000000000000000000000000000c000002000200000001040000000000000000000000000000000000000000000c0000020002000000000000000000000000000000000000000000000000000007000000000000000003741400000000000000000000000000000000000000000c000002000200000001240000000000000000000000000000000000000000000c000002000200000000000000000000000000000000000000000000000000000e000002000000000000000000000000000000000000000000000000000000000c000004000400000001000000000000000000000000000000000000000000000c000004000400000000000000000000000000000000000000000000000000000c000002000200000001200000000000000000000000000000000000000000000c000002000200000000000000000000000000000000000000000000000000000a000000000000000001e910e910000000000000000000000000000000000000020800000004000000000000000000000000000000000000000000000000000004100000000000000000000000000000000000000000000000000000000000000a00000000000000000ae9102d11000000000000000000000000000000000000180000040008000000000500000000000000000000000000000000000000000008080002000800000000000000000000000000000000000000000000000000000e080000001000000021000000000000000000000000000000000000000000000e0800100000000000000100000000000000000000000000000000000000000002000004000800000000010000000000000000000000000000000000000000000c000010001000000001010000000000000000000000000000000000000000000c0000100010000000000000000000000000000000000000000000000000000004080004000000000000000000000000000000000000000000000000000000000a000000000000000002e610f2100000000000000000000000000000000000000c000010001000000001000000000000000000000000000000000000000000000c000010001000000000000000000000000000000000000000000000000000000a000000000000000001e610e6100000000000000000000000000000000000000c000001000100000001000000000000000000000000000000000000000000000c000001000100000000000000000000000000000000a079c3080000000000000e000000000200000021020000000000000000000000000000000000000000000e0000020000000000600100000000000000000000000000000000000000000007000000000000000003741400000000000000000000000000000000000000000e0000000002000000610100000000000000000000000000000000000000000002000002000200000000040000000000000000000000000000000000000000000c000001000100000001200000000000000000000000000000000000000000000c0000010001000000000000000000000000000000000000000000000000000007000000000000000003741400000000000000000000000000000000000000000e0000000002000000610100000000000000000000000000000000000000000002000002000200000000240000000000000000000000000000000000000000000c000001000100000001140000000000000000000000000000000000000000000c0000010001000000000000000000000000000000000000000000000000000007000000000000000003741400000000000000000000000000000000000000000e0000000002000000610100000000000000000000000000000000000000000002000002000200000000440000000000000000000000000000000000000000000c000001000100000001000000000000000000000000776f6c660000000000000c0000010001000000007265766f2d6464612d6874616d2d736400000000000007000000000000000003741400000000000000000000000000000000000000000c000002000200000001640000000000000000000000000000000000000000000c000002000200000000000000000000000000000000000000000000000000000e000002000000000000000000000000000000000000000000000000000000000c000002000200000001000000000000000000000000000000000000000000000c000002000200000000000000000000000000000000000000000000000000000e0000020000000000600300000000000000000000000000000000000000000018000002000400000000050000000000000000000000000000000000000000000e000004000000000060020000000000000000000000000000000000000000000e000000000200000061010000000000000000000000000000000000000000000202000400010000000000000000000000000000000000000000000000000000070000000000000000034c1400000000000000000000000000000000000000000c000002000200000001200000000000000000000000000000000000000000000c000002000200000000000000000000000000000000000000000000000000000e0000000004000000610200000000000000000000000000000000000000000008040002000200000000000000000000000000000000000000000000000000000e020001000000000000010000000000000000000000000000000000000000000e0000000002000000610300000000000000000000000000000000000000000002000002000200000000010000000000000000000000000000000000000000000c000004000400000001030000000000000000000000000000000000000000000c0000040004000000000000000000000000000000000000000000000000000004020004000000000000000000000000000000000000000000000000000000000a0000000000000000020e111f110000000000000000000000000000000000000e000000000200000061010000000000000000000000000000000000000000000200000200010000000060000000000000000000000000000000000000000000070000000000000000034c1400000000000000000000000000000000000000000c000002000200000001ffffffffffffffffffffffffffffffff0000000000000c000002000200000000ffffffffffffffffffffffff000000000000000000000e000000000400000001040000000000000000000000000000000000000000001a040002000200000002000000000000000000000000000000000000000000000c000004000400000001000000000000000000000000000000000000000000000c000004000400000000000000000000000000000000ffffffff0000000000001a010004000400000002000000000000000000000000000000000000000000001a040002000200000004000000000000000000000000000000000000000000000e000002000000000000040000000000000000000000000000000000000000000e0000000000000000e10200000000000000000000000000000000000000000007000000000000000004000000000000000000000000000000000000000000000c000002000200000001ffffffffffffffffffffffffffffffff0000000000000c000002000200000000ffffffffffffffffffffffff000000000000000000000e000000000400000001020000000000000000000000000000000000000000001a040002000200000002000000000000000000000000000000000000000000000c000004000400000001000000000000000000000000000000000000000000000c000004000400000000000000000000000000000000ffffffff0000000000000e000000000800000021010000000000000000000000000000000000000000001a080004000400000002000000000000000000000000000000000000000000001a040002000200000004000000000000000000000000000000000000000000000e000002000000000000020000000000000000000000000000000000000000000e0000000000000000e10200000000000000000000000000000000000000000007000000000000000004000000000000000000000000000000000000000000000c000002000200000001102700000000000000000000000000000000000000000c0000020002000000000000000000000000000000000000000000000000000004010002000000000000000000000000000000000000000000000000000000000a0000000000000000083f113d11000000000000000000000000000000000000040200010001000000000000000000000000000000000000000000000000000007000000000000000000000000000000000000000000000000000000000000000c000002000200000001000000000000000000000000000000000000000000000c000002000200000000000000000000000000000000717b484e0000000000000e000002000000000020000000000000000000000000000000000000000000000c000001000100000001110000000000000000000000000000000000000000000c000001000100000000000000000000000000000000000000000000000000000c000002000200000001040000000000000000000000000000000000000000000c0000020002000000000000000000000000000000000000000000000000000007000000000000000003741400000000000000000000000000000000000000000c000002000200000001240000000000000000000000000000000000000000000c000002000200000000000000000000000000000000000000000000000000000e000002000000000000000000000000000000000000000000000000000000000c000004000400000001000000000000000000000000000000000000000000000c000004000400000000000000000000000000000000000000000000000000000c000002000200000001200000000000000000000000000000000000000000000c000002000200000000000000000000000000000000000000000000000000000a00000000000000000152115211000000000000000000000000000000000000020800000004000000000000000000000000000000000000000000000000000004100000000000000000000000000000000000000000000000000000000000000a00000000000000000a52115e11000000000000000000000000000000000000180000040008000000000500000000000000000000000000000000000000000008080002000800000000000000000000000000000000000000000000000000000e080000001000000021000000000000000000000000000000000000000000000e0800100000000000000100000000000000000000000000000000000000000002000004000800000000010000000000000000000000000000000000000000000c000010001000000001010000000000000000000000000000000000000000000c0000100010000000000000000000000000000000000000000000000000000004080004000000000000000000000000000000000000000000000000000000000a0000000000000000024f115b110000000000000000000000000000000000000c000010001000000001000000000000000000000000000000000000000000000c000010001000000000000000000000000000000000000000000000000000000a0000000000000000014f114f110000000000000000000000000000000000000c000002000200000001ffffffffffffffffffffffffffffffff0000000000000c000002000200000000ffffffffffffffffffffffff000000000000000000000e000000000400000001020000000000000000000000000000000000000000001a040002000200000002000000000000000000000000000000000000000000000c000004000400000001000000000000000000000000000000000000000000000c000004000400000000000000000000000000000000ffffffff0000000000000e000000000800000021010000000000000000000000000000000000000000001a080004000400000002000000000000000000000000000000000000000000001a040002000200000004000000000000000000000000000000000000000000000e0000020000000000000200000000000000000000000000000000000000000007000000000000000004000000000000000000000000000000000000000000000e0000000000000000e0020000000000000000000000000000000000000000000600000100020000000010270000000000000000000000000000000000000000080000020004000000011027000000000000000000000000000000000000000004040001000000000000000000000000000000000000000000000000000000000a0000000000000000046e11711100000000000000000000000000000000000002020000000100000000000000000000000000000000000000000000000000000e0000000000000000e10200000000000000000000000000000000000000000007000000000000000000000000000000000000000000000000000000000000000c000001000100000001000000000000000000000000000000000000000000000c000001000100000000000000000000000000000000a079c3080000000000000e000000000200000021020000000000000000000000000000000000000000000e0000020000000000600100000000000000000000000000000000000000000007000000000000000003741400000000000000000000000000000000000000000e0000000002000000610100000000000000000000000000000000000000000002000002000200000000040000000000000000000000000000000000000000000c000001000100000001200000000000000000000000000000000000000000000c0000010001000000000000000000000000000000000000000000000000000007000000000000000003741400000000000000000000000000000000000000000e0000000002000000610100000000000000000000000000000000000000000002000002000200000000240000000000000000000000000000000000000000000c000001000100000001140000000000000000000000000000000000000000000c0000010001000000000000000000000000000000000000000000000000000007000000000000000003741400000000000000000000000000000000000000000e0000000002000000610100000000000000000000000000000000000000000002000002000200000000440000000000000000000000000000000000000000000c000001000100000001000000000000000000000000776f6c660000000000000c0000010001000000007265766f2d6c756d2d6874616d2d736400000000000007000000000000000003741400000000000000000000000000000000000000000c000002000200000001640000000000000000000000000000000000000000000c000002000200000000000000000000000000000000000000000000000000000e000002000000000000000000000000000000000000000000000000000000000c000002000200000001000000000000000000000000000000000000000000000c000002000200000000000000000000000000000000000000000000000000000e0000020000000000600300000000000000000000000000000000000000000018000002000400000000050000000000000000000000000000000000000000000e000004000000000060020000000000000000000000000000000000000000000e000000000200000061010000000000000000000000000000000000000000000202000400010000000000000000000000000000000000000000000000000000070000000000000000034c1400000000000000000000000000000000000000000c000002000200000001200000000000000000000000000000000000000000000c000002000200000000000000000000000000000000000000000000000000000e0000000004000000610200000000000000000000000000000000000000000008040002000200000000000000000000000000000000000000000000000000000e020001000000000000010000000000000000000000000000000000000000000e0000000002000000610300000000000000000000000000000000000000000002000002000200000000010000000000000000000000000000000000000000000c000004000400000001030000000000000000000000000000000000000000000c0000040004000000000000000000000000000000000000000000000000000004020004000000000000000000000000000000000000000000000000000000000a0000000000000000028a119b110000000000000000000000000000000000000e000000000200000061010000000000000000000000000000000000000000000200000200010000000060000000000000000000000000000000000000000000070000000000000000034c1400000000000000000000000000000000000000000c000002000200000001ffffffffffffffffffffffffffffffff0000000000000c000002000200000000ffffffffffffffffffffffff000000000000000000000e000000000400000001040000000000000000000000000000000000000000001a040002000200000002000000000000000000000000000000000000000000000c000004000400000001000000000000000000000000000000000000000000000c000004000400000000000000000000000000000000ffffffff0000000000001a010004000400000002000000000000000000000000000000000000000000001a040002000200000004000000000000000000000000000000000000000000000e000002000000000000040000000000000000000000000000000000000000000e0000000000000000e10200000000000000000000000000000000000000000007000000000000000004000000000000000000000000000000000000000000000e0000000000000000e00200000000000000000000000000000000000000000002010000000800000000000000000000000000000000000000000000000000000c000004000400000001000000000000000000000000000000000000000000000c0000040004000000000000000000000000000000000000000000000000000004020000000000000000000000000000000000000000000000000000000000000a000000000000000004c111af1100000000000000000000000000000000000004080000000000000000000000000000000000000000000000000000000000000a000000000000000004b611b1110000000000000000000000000000000000000c000004000400000001ffffffffffffffffffffffffffffffff0000000000000c000004000400000000ffffffffffffffffffffffffffffffff000000000000080400080004000000000000000000000000000000000000000000000000000004040002000000000000000000000000000000000000000000000000000000000a00000000000000000cb611fc110000000000000000000000000000000000000e0000080000000000600300000000000000000000000000000000000000000006020008000400000000000000000000000000000000000000000000000000000e00000400000000006002000000000000000000000000000000000000000000020400000001000000000000000000000000000000000000000000000000000007000000000000000003b10b00000000000000000000000000000000000000000a000000000000000002bc11bd110000000000000000000000000000000000000a000000000000000001251225120000000000000000000000000000000000000e000000000200000061030000000000000000000000000000000000000000000e0000000004000000610200000000000000000000000000000000000000000004010002000000000000000000000000000000000000000000000000000000000a000000000000000004c111c41100000000000000000000000000000000000002040000000100000000000000000000000000000000000000000000000000000e0000000000000000e10200000000000000000000000000000000000000000007000000000000000000000000000000000000000000000000000000000000000c000001000100000001000000000000000000000000000000000000000000000c000001000100000000000000000000000000000000a079c3080000000000000e000000000200000021020000000000000000000000000000000000000000000e0000020000000000600100000000000000000000000000000000000000000007000000000000000003741400000000000000000000000000000000000000000e0000000002000000610100000000000000000000000000000000000000000002000002000200000000040000000000000000000000000000000000000000000c000001000100000001200000000000000000000000000000000000000000000c0000010001000000000000000000000000000000000000000000000000000007000000000000000003741400000000000000000000000000000000000000000e0000000002000000610100000000000000000000000000000000000000000002000002000200000000240000000000000000000000000000000000000000000c000001000100000001140000000000000000000000000000000000000000000c0000010001000000000000000000000000000000000000000000000000000007000000000000000003741400000000000000000000000000000000000000000e0000000002000000610100000000000000000000000000000000000000000002000002000200000000440000000000000000000000000000000000000000000c000001000100000001000000000000000000000000776f6c660000000000000c0000010001000000007265766f2d6c756d2d6874616d2d736400000000000007000000000000000003741400000000000000000000000000000000000000000c000002000200000001640000000000000000000000000000000000000000000c000002000200000000000000000000000000000000000000000000000000000e000002000000000000000000000000000000000000000000000000000000000c000002000200000001000000000000000000000000000000000000000000000c000002000200000000000000000000000000000000000000000000000000000e0000020000000000600300000000000000000000000000000000000000000018000002000400000000050000000000000000000000000000000000000000000e000004000000000060020000000000000000000000000000000000000000000e000000000200000061010000000000000000000000000000000000000000000202000400010000000000000000000000000000000000000000000000000000070000000000000000034c1400000000000000000000000000000000000000000c000002000200000001200000000000000000000000000000000000000000000c000002000200000000000000000000000000000000000000000000000000000e0000000004000000610200000000000000000000000000000000000000000008040002000200000000000000000000000000000000000000000000000000000e020001000000000000010000000000000000000000000000000000000000000e0000000002000000610300000000000000000000000000000000000000000002000002000200000000010000000000000000000000000000000000000000000c000004000400000001030000000000000000000000000000000000000000000c0000040004000000000000000000000000000000000000000000000000000004020004000000000000000000000000000000000000000000000000000000000a000000000000000002dd11ee110000000000000000000000000000000000000e000000000200000061010000000000000000000000000000000000000000000200000200010000000060000000000000000000000000000000000000000000070000000000000000034c1400000000000000000000000000000000000000000c000002000200000001ffffffffffffffffffffffffffffffff0000000000000c000002000200000000ffffffffffffffffffffffff000000000000000000000e000000000400000001040000000000000000000000000000000000000000001a040002000200000002000000000000000000000000000000000000000000000c000004000400000001000000000000000000000000000000000000000000000c000004000400000000000000000000000000000000ffffffff0000000000001a010004000400000002000000000000000000000000000000000000000000001a040002000200000004000000000000000000000000000000000000000000000e000002000000000000040000000000000000000000000000000000000000000e0000000000000000e10200000000000000000000000000000000000000000007000000000000000004000000000000000000000000000000000000000000000c000002000200000001000000000000000000000000000000000000000000000c000002000200000000000000000000000000000000717b484e0000000000000e000002000000000020000000000000000000000000000000000000000000000c000001000100000001110000000000000000000000000000000000000000000c000001000100000000000000000000000000000000000000000000000000000c000002000200000001040000000000000000000000000000000000000000000c0000020002000000000000000000000000000000000000000000000000000007000000000000000003741400000000000000000000000000000000000000000c000002000200000001240000000000000000000000000000000000000000000c000002000200000000000000000000000000000000000000000000000000000e000002000000000000000000000000000000000000000000000000000000000c000004000400000001000000000000000000000000000000000000000000000c000004000400000000000000000000000000000000000000000000000000000c000002000200000001200000000000000000000000000000000000000000000c000002000200000000000000000000000000000000000000000000000000000a0000000000000000010f120f12000000000000000000000000000000000000020800000004000000000000000000000000000000000000000000000000000004100000000000000000000000000000000000000000000000000000000000000a00000000000000000a0f121b12000000000000000000000000000000000000180000040008000000000500000000000000000000000000000000000000000008080002000800000000000000000000000000000000000000000000000000000e080000001000000021000000000000000000000000000000000000000000000e0800100000000000000100000000000000000000000000000000000000000002000004000800000000010000000000000000000000000000000000000000000c000010001000000001010000000000000000000000000000000000000000000c0000100010000000000000000000000000000000000000000000000000000004080004000000000000000000000000000000000000000000000000000000000a0000000000000000020c1218120000000000000000000000000000000000000c000010001000000001000000000000000000000000000000000000000000000c000010001000000000000000000000000000000000000000000000000000000a0000000000000000010c120c120000000000000000000000000000000000000c000002000200000001ffffffffffffffffffffffffffffffff0000000000000c000002000200000000ffffffffffffffffffffffff000000000000000000000e000000000400000001020000000000000000000000000000000000000000001a040002000200000002000000000000000000000000000000000000000000000c000004000400000001000000000000000000000000000000000000000000000c000004000400000000000000000000000000000000ffffffff0000000000000e000000000800000021010000000000000000000000000000000000000000001a080004000400000002000000000000000000000000000000000000000000001a040002000200000004000000000000000000000000000000000000000000000e000002000000000000020000000000000000000000000000000000000000000e0000000000000000e10200000000000000000000000000000000000000000007000000000000000004000000000000000000000000000000000000000000000e0000000000000000e0050000000000000000000000000000000000000000000c000002000200000001600000000000000000000000000000000000000000000c000002000200000000000000000000000000000000000000000000000000000e000002000000000060030000000000000000000000000000000000000000000e000000000200000041000000000000000000000000000000000000000000001a000002000200000002ffffffff00000000000000000000000000000000000004020000000000000000000000000000000000000000000000000000000000000a0000000000000000047d122f12000000000000000000000000000000000000020000020004000000003f0000000000000000000000000000000000000000001a000004000400000002e0ffffff0100000000000000000000000000000000000e0000000010000000210200000000000000000000000000000000000000000002100004000400000000000000000000000000000000000000000000000000000c000008000800000001010000000000000000000000000000000000000000000c000008000800000000000000000000000000000000000000000000000000000e0000100000000000600300000000000000000000000000000000000000000004040010000000000000000000000000000000000000000000000000000000000a0000000000000000023a1238120000000000000000000000000000000000000c000008000800000001000000000000000000000000000000000000000000000c000008000800000000000000000000000000000000000000000000000000000c000010001000000001ffffffffffffffff00000000000000000000000000000c0000100010000000000000000000000000000000000000000000000000000004040010000000000000000000000000000000000000000000000000000000000a00000000000000000880123e1200000000000000000000000000000000000004080000000000000000000000000000000000000000000000000000000000000a00000000000000000a801240120000000000000000000000000000000000000e0000040000000000200200000000000000000000000000000000000000000002020000000100000000000000000000000000000000000000000000000000000e0000000002000000610300000000000000000000000000000000000000000007000000000000000003741400000000000000000000000000000000000000000c000008000800000001000000000000000000000000000000000000000000000c000008000800000000000000000000000000000000000000000000000000000e0000000002000000610300000000000000000000000000000000000000000002000002002000000000200000000000000000000000000000000000000000000e000000000200000041000000000000000000000000000000000000000000001a0000020004000000021f0000000000000000000000000000000000000000000e000004000000000060020000000000000000000000000000000000000000001a000002000200000002e0ffffff0000000000000000000000000000000000000e0000020000000000600100000000000000000000000000000000000000000018000002000200000002050000000000000000000000000000000000000000000e000002000000000060040000000000000000000000000000000000000000000e0000200000000000600500000000000000000000000000000000000000000004020000000000000000000000000000000000000000000000000000000000000a000000000000000004601252120000000000000000000000000000000000000e00000800000000006006000000000000000000000000000000000000000000180000080004000000000500000000000000000000000000000000000000000002200004000200000000000000000000000000000000000000000000000000000c000008000800000001200000000000000000000000000000000000000000000c0000080008000000000000000000000000000000000000000000000000000008040008000400000000000000000000000000000000000000000000000000000e0400000001000000410100000000000000000000000000000000000000000007000000000000000003741400000000000000000000000000000000000000000e000000000800000061060000000000000000000000000000000000000000000e0000000020000000610500000000000000000000000000000000000000000002000008000800000000010000000000000000000000000000000000000000000e0000000002000000610400000000000000000000000000000000000000000004080002000000000000000000000000000000000000000000000000000000000a000000000000000002521260120000000000000000000000000000000000000e0000000002000000610200000000000000000000000000000000000000000004020000000000000000000000000000000000000000000000000000000000000a0000000000000000047d12631200000000000000000000000000000000000018000002000200000000030000000000000000000000000000000000000000000c000004000400000001000100000000000000000000000000000000000000000c0000040004000000000000000000000000000000000000000000000000000004040002000400000000000000000000000000000000000000000000000000000c000008000800000001ffffffffffffffffffffffffffffffff0000000000000c000008000800000000ffffffffffffffffffffffffffffffff00000000000018040008000400000000000000000000000000000000000000000000000000000c000010001000000001200000000000000000000000000000000000000000000c000010001000000000000000000000000000000000000000000000000000000e0000000040000000610100000000000000000000000000000000000000000008400010001000000000000000000000000000000000000000000000000000000e100000001000000041010000000000000000000000000000000000000000001a100004000400000002000000000000000000000000000000000000000000000e0000040000000000600600000000000000000000000000000000000000000018020008000200000002000000000000000000000000000000000000000000000e0000020000000000600400000000000000000000000000000000000000000002200040000200000000000000000000000000000000000000000000000000000e000002000000000060050000000000000000000000000000000000000000000202000000010000000000000000000000000000000000000000000000000000070000000000000000034c1400000000000000000000000000000000000000000e000000000200000061040000000000000000000000000000000000000000001a010002000200000002000000000000000000000000000000000000000000000e000000000400000061060000000000000000000000000000000000000000001a040002000100000004000000000000000000000000000000000000000000000e0000000002000000610500000000000000000000000000000000000000000007000000000000000003741400000000000000000000000000000000000000000e000000000100000061030000000000000000000000000000000000000000000e0000000000000000e10500000000000000000000000000000000000000000007000000000000000000000000000000000000000000000000000000000000000c000002000200000001000000000000000000000000000000000000000000000c000002000200000000000000000000000000000000717b484e0000000000000e000002000000000020000000000000000000000000000000000000000000000c000001000100000001410000000000000000000000000000000000000000000c000001000100000000000000000000000000000000000000000000000000000c000002000200000001040000000000000000000000000000000000000000000c0000020002000000000000000000000000000000000000000000000000000007000000000000000003741400000000000000000000000000000000000000000c000002000200000001240000000000000000000000000000000000000000000c000002000200000000000000000000000000000000000000000000000000000e000002000000000000000000000000000000000000000000000000000000000c000004000400000001000000000000000000000000000000000000000000000c000004000400000000000000000000000000000000000000000000000000000c000002000200000001200000000000000000000000000000000000000000000c000002000200000000000000000000000000000000000000000000000000000a00000000000000000193129312000000000000000000000000000000000000020800000004000000000000000000000000000000000000000000000000000004100000000000000000000000000000000000000000000000000000000000000a00000000000000000a93129f12000000000000000000000000000000000000180000040008000000000500000000000000000000000000000000000000000008080002000800000000000000000000000000000000000000000000000000000e080000001000000021000000000000000000000000000000000000000000000e0800100000000000000100000000000000000000000000000000000000000002000004000800000000010000000000000000000000000000000000000000000c000010001000000001010000000000000000000000000000000000000000000c0000100010000000000000000000000000000000000000000000000000000004080004000000000000000000000000000000000000000000000000000000000a00000000000000000290129c120000000000000000000000000000000000000c000010001000000001000000000000000000000000000000000000000000000c000010001000000000000000000000000000000000000000000000000000000a000000000000000001901290120000000000000000000000000000000000000c000002000200000001ffffffffffffffffffffffffffffffff0000000000000c000002000200000000ffffffffffffffffffffffff000000000000000000000e000000000400000001020000000000000000000000000000000000000000001a040002000200000002000000000000000000000000000000000000000000000c000004000400000001000000000000000000000000000000000000000000000c000004000400000000000000000000000000000000ffffffff0000000000000e000000000800000021010000000000000000000000000000000000000000001a080004000400000002000000000000000000000000000000000000000000001a040002000200000004000000000000000000000000000000000000000000000e000002000000000000020000000000000000000000000000000000000000000e0000000000000000e10500000000000000000000000000000000000000000007000000000000000004000000000000000000000000000000000000000000000e0000000000000000e0060000000000000000000000000000000000000000000e000004000000000060060000000000000000000000000000000000000000000e000002000000000060040000000000000000000000000000000000000000000e000001000000000060030000000000000000000000000000000000000000000e000000000200000021020000000000000000000000000000000000000000000e0000020000000000600700000000000000000000000000000000000000000002000002000200000000200000000000000000000000000000000000000000000c000001000100000001000000000000000000000000000000000000000000000c000001000100000000000000000000000000000000bb9c05a90000000000000e0000020000000000600500000000000000000000000000000000000000000007000000000000000003741400000000000000000000000000000000000000000c000002000200000001ffffffffffffffffffffffffffffffff0000000000000c000002000200000000ffffffff0000000000000000000000000000000000000e000000000400000061040000000000000000000000000000000000000000001a040002000100000002000000000000000000000000000000000000000000000e00000000020000006107000000000000000000000000000000000000000000020000020002000000002400000000000000000000000000000000000000000007000000000000000003741400000000000000000000000000000000000000000e0000000002000000610700000000000000000000000000000000000000000002000002000200000000440000000000000000000000000000000000000000000e0000000001000000610600000000000000000000000000000000000000000007000000000000000003741400000000000000000000000000000000000000000c000001000100000001440000000000000000000000000000000000000000000c000001000100000000000000000000000000000000000000000000000000000e0000000002000000610700000000000000000000000000000000000000000007000000000000000003741400000000000000000000000000000000000000000e000000000800000061070000000000000000000000000000000000000000000c0000020002000000017fffffffffffffffffffffffffffffff0000000000000c000002000200000000ffffffffffffffffffffffffffffffff00000000000004080002000000000000000000000000000000000000000000000000000000000a0000000000000000088713ca1200000000000000000000000000000000000002000008000200000000800000000000000000000000000000000000000000000c000004000400000001ffffffffffffffff00000000000000000000000000000c0000040004000000000000000000000000000000000000000000000000000004020004000000000000000000000000000000000000000000000000000000000a0000000000000000088713cf120000000000000000000000000000000000000e000002000000000020020000000000000000000000000000000000000000000208000000010000000000000000000000000000000000000000000000000000070000000000000000034c1400000000000000000000000000000000000000000c000010001000000001010000000000000000000000000000000000000000000c0000100010000000000000000000000000000000000000000000000000000002010000000800000000000000000000000000000000000000000000000000000c000002000200000001040000000000000000000000000000000000000000000c000002000200000000000000000000000000000000000000000000000000000e0000000004000000610300000000000000000000000000000000000000000004040002000000000000000000000000000000000000000000000000000000000a0000000000000000041713da120000000000000000000000000000000000000c000004000400000001000000000000000000000000000000000000000000000c000004000400000000000000000000000000000000000000000000000000001a0000080002000000021f0000000000000000000000000000000000000000000e0000020000000000600200000000000000000000000000000000000000000010000000000000000000000000000000000000000000000000000000000000000e000008000000000040000000000000000000000000000000000000000000000e0000080000000000600100000000000000000000000000000000000000000018000008000200000002050000000000000000000000000000000000000000000e000000000800000061050000000000000000000000000000000000000000000e0000020000000000600400000000000000000000000000000000000000000004020000000000000000000000000000000000000000000000000000000000000a000000000000000004f612e6120000000000000000000000000000000000000e0000040000000000600700000000000000000000000000000000000000000018000004000400000000050000000000000000000000000000000000000000000e000004000000000060060000000000000000000000000000000000000000000e000000000200000061050000000000000000000000000000000000000000000202000400010000000000000000000000000000000000000000000000000000070000000000000000034c1400000000000000000000000000000000000000000e000000000400000061070000000000000000000000000000000000000000000c000002000200000001200000000000000000000000000000000000000000000c000002000200000000000000000000000000000000000000000000000000000e0000000008000000610600000000000000000000000000000000000000000008080002000200000000000000000000000000000000000000000000000000000e0200010000000000400100000000000000000000000000000000000000000002000004000400000000010000000000000000000000000000000000000000000e0000000002000000610400000000000000000000000000000000000000000004040002000000000000000000000000000000000000000000000000000000000a000000000000000002e612f6120000000000000000000000000000000000000e000000000400000061050000000000000000000000000000000000000000000e0000000002000000610200000000000000000000000000000000000000000004020000000000000000000000000000000000000000000000000000000000000a0000000000000000041313fa120000000000000000000000000000000000000c000002000200000001e0ffffffffffffffffffffffffffffff0000000000000c000002000200000000ffffffffffffffffffffffffffffffff0000000000000e000000000800000061010000000000000000000000000000000000000000001a080002000200000002000000000000000000000000000000000000000000000e000002000000000060070000000000000000000000000000000000000000000204000200010000000000000000000000000000000000000000000000000000070000000000000000034c1400000000000000000000000000000000000000000c000002000200000001200000000000000000000000000000000000000000000c000002000200000000000000000000000000000000000000000000000000000e0000000004000000610700000000000000000000000000000000000000000008040002000200000000000000000000000000000000000000000000000000000e0000000004000000610200000000000000000000000000000000000000000018000004000400000000030000000000000000000000000000000000000000000c000008000800000001ffffffffffffffffffffffffffffffff0000000000000c000008000800000000ffffffffffffffffffffffffffffffff00000000000018040008001000000002000000000000000000000000000000000000000000000e020000002000000041010000000000000000000000000000000000000000001a200010001000000002000000000000000000000000000000000000000000000c000020002000000001000100000000000000000000000000000000000000000c00002000200000000000000000000000000000000000000000000000000000042000040004000000000000000000000000000000000000000000000000000018040008000400000000000000000000000000000000000000000000000000001a010004000400000002000000000000000000000000000000000000000000001a040010000400000004000000000000000000000000000000000000000000000e020004000000000040010000000000000000000000000000000000000000000e000000000200000061030000000000000000000000000000000000000000001800000200010000000020000000000000000000000000000000000000000000070000000000000000039b14000000000000000000000000000000000000000002010000001000000000000000000000000000000000000000000000000000000e0000100000000000600700000000000000000000000000000000000000000007000000000000000003271200000000000000000000000000000000000000000a0000000000000000021a131c1300000000000000000000000000000000000002010000000200000000000000000000000000000000000000000000000000000a000000000000000001b013b01300000000000000000000000000000000000002010000000200000000000000000000000000000000000000000000000000000e0000000004000000610700000000000000000000000000000000000000000004040000000000000000000000000000000000000000000000000000000000000a0000000000000000044b13201300000000000000000000000000000000000002020000000100000000000000000000000000000000000000000000000000000e00000200000000006007000000000000000000000000000000000000000000070000000000000000034c1400000000000000000000000000000000000000000e0000000020000000610700000000000000000000000000000000000000000004010000000000000000000000000000000000000000000000000000000000000a000000000000000004491326130000000000000000000000000000000000000c000008000800000001200000000000000000000000000000000000000000000c000008000800000000000000000000000000000000000000000000000000000c000004000400000001000000000000000000000000000000000000000000000c000004000400000000000000000000000000000000000000800000000000000c000002000200000001000000000000000000000000000000000000000000000c0000020002000000000000000000000000000000000000008000000000000004010008000000000000000000000000000000000000000000000000000000000a00000000000000000c30132e130000000000000000000000000000000000000c000002000200000001000000000000000000000000000000000000000000000c000002000200000000000000000000000000000000000000000000000000001a010004001000000002000000000000000000000000000000000000000000000c000008000800000001000000000000000000000000000000000000000000000c0000080008000000000000000000000000000000000000008000000000000004100000000000000000000000000000000000000000000000000000000000000a000000000000000002371335130000000000000000000000000000000000000c000008000800000001000000000000000000000000000000000000000000000c0000080008000000000000000000000000000000000000000000000000000004100004000000000000000000000000000000000000000000000000000000000a0000000000000000043a133913000000000000000000000000000000000000020200000008000000000000000000000000000000000000000000000000000004080000000000000000000000000000000000000000000000000000000000000a00000000000000000a3c1383130000000000000000000000000000000000000200002000010000000020000000000000000000000000000000000000000000070000000000000000034c1400000000000000000000000000000000000000000c000002000200000001010000000000000000000000000000000000000000000c0000020002000000000000000000000000000000000000000000000000000004010000000000000000000000000000000000000000000000000000000000000a00000000000000000a441342130000000000000000000000000000000000000c000002000200000001000000000000000000000000000000000000000000000c000002000200000000000000000000000000000000000000000000000000001a0000020002000000020100000000000000000000000000000000000000000004010002000000000000000000000000000000000000000000000000000000000a0000000000000000044713831300000000000000000000000000000000000004010000000000000000000000000000000000000000000000000000000000000a0000000000000000044b1349130000000000000000000000000000000000000e0000000000000000e10600000000000000000000000000000000000000000007000000000000000000000000000000000000000000000000000000000000000c000001000100000001000000000000000000000000000000000000000000000c000001000100000000000000000000000000000000a079c3080000000000000e000000000200000021020000000000000000000000000000000000000000000e0000020000000000600500000000000000000000000000000000000000000007000000000000000003741400000000000000000000000000000000000000000e0000000002000000610500000000000000000000000000000000000000000002000002000200000000040000000000000000000000000000000000000000000c000001000100000001200000000000000000000000000000000000000000000c0000010001000000000000000000000000000000000000000000000000000007000000000000000003741400000000000000000000000000000000000000000e0000000002000000610500000000000000000000000000000000000000000002000002000200000000240000000000000000000000000000000000000000000c0000010001000000011f0000000000000000000000000000000000000000000c0000010001000000000000000000000000000000000000000000000000000007000000000000000003741400000000000000000000000000000000000000000e0000000002000000610500000000000000000000000000000000000000000002000002000200000000440000000000000000000000000000000000000000000c0000010001000000010044454c4941465f524546534e4152540000000000000c000001000100000000203a7265706c6548726566736e61725400000000000007000000000000000003741400000000000000000000000000000000000000000c000002000200000001640000000000000000000000000000000000000000000c000002000200000000000000000000000000000000000000000000000000000e000002000000000000000000000000000000000000000000000000000000000c000002000200000001000000000000000000000000000000000000000000000c000002000200000000000000000000000000000000000000000000000000000e0000020000000000600700000000000000000000000000000000000000000018000002000400000000050000000000000000000000000000000000000000000e000004000000000060060000000000000000000000000000000000000000000e000000000200000061050000000000000000000000000000000000000000000202000400010000000000000000000000000000000000000000000000000000070000000000000000034c1400000000000000000000000000000000000000000c000002000200000001200000000000000000000000000000000000000000000c000002000200000000000000000000000000000000000000000000000000000e0000000004000000610600000000000000000000000000000000000000000008040002000200000000000000000000000000000000000000000000000000000e020001000000000000010000000000000000000000000000000000000000000e0000000002000000610700000000000000000000000000000000000000000002000002000200000000010000000000000000000000000000000000000000000c000004000400000001030000000000000000000000000000000000000000000c0000040004000000000000000000000000000000000000000000000000000004020004000000000000000000000000000000000000000000000000000000000a000000000000000002641375130000000000000000000000000000000000000e000000000200000061050000000000000000000000000000000000000000000200000200010000000060000000000000000000000000000000000000000000070000000000000000034c1400000000000000000000000000000000000000000c000002000200000001ffffffffffffffffffffffffffffffff0000000000000c000002000200000000ffffffffffffffffffffffff000000000000000000000e000000000400000001040000000000000000000000000000000000000000001a040002000200000002000000000000000000000000000000000000000000000c000004000400000001000000000000000000000000000000000000000000000c000004000400000000000000000000000000000000ffffffff0000000000001a010004000400000002000000000000000000000000000000000000000000001a040002000200000004000000000000000000000000000000000000000000000e000002000000000000040000000000000000000000000000000000000000000e0000000000000000e10600000000000000000000000000000000000000000007000000000000000004000000000000000000000000000000000000000000000c000002000200000001000000000000000000000000000000000000000000000c000002000200000000000000000000000000000000000000000000000000000e000002000000000000000000000000000000000000000000000000000000000a000000000000000001b013b0130000000000000000000000000000000000000c000002000200000001000000000000000000000000000000000000000000000c000002000200000000000000000000000000000000717b484e0000000000000e000002000000000020000000000000000000000000000000000000000000000c000001000100000001410000000000000000000000000000000000000000000c000001000100000000000000000000000000000000000000000000000000000c000002000200000001040000000000000000000000000000000000000000000c0000020002000000000000000000000000000000000000000000000000000007000000000000000003741400000000000000000000000000000000000000000c000002000200000001240000000000000000000000000000000000000000000c000002000200000000000000000000000000000000000000000000000000000e000002000000000000000000000000000000000000000000000000000000000c000004000400000001000000000000000000000000000000000000000000000c000004000400000000000000000000000000000000000000000000000000000c000002000200000001200000000000000000000000000000000000000000000c000002000200000000000000000000000000000000000000000000000000000a0000000000000000019a139a13000000000000000000000000000000000000020800000004000000000000000000000000000000000000000000000000000004100000000000000000000000000000000000000000000000000000000000000a00000000000000000a9a13a613000000000000000000000000000000000000180000040008000000000500000000000000000000000000000000000000000008080002000800000000000000000000000000000000000000000000000000000e080000001000000021000000000000000000000000000000000000000000000e0800100000000000000100000000000000000000000000000000000000000002000004000800000000010000000000000000000000000000000000000000000c000010001000000001010000000000000000000000000000000000000000000c0000100010000000000000000000000000000000000000000000000000000004080004000000000000000000000000000000000000000000000000000000000a0000000000000000029713a3130000000000000000000000000000000000000c000010001000000001000000000000000000000000000000000000000000000c000010001000000000000000000000000000000000000000000000000000000a000000000000000001971397130000000000000000000000000000000000000c000002000200000001ffffffffffffffffffffffffffffffff0000000000000c000002000200000000ffffffffffffffffffffffff000000000000000000000e000000000400000001020000000000000000000000000000000000000000001a040002000200000002000000000000000000000000000000000000000000000c000004000400000001000000000000000000000000000000000000000000000c000004000400000000000000000000000000000000ffffffff0000000000000e000000000800000021010000000000000000000000000000000000000000001a080004000400000002000000000000000000000000000000000000000000001a040002000200000004000000000000000000000000000000000000000000000e000002000000000000020000000000000000000000000000000000000000000e0000000000000000e10600000000000000000000000000000000000000000007000000000000000004000000000000000000000000000000000000000000000e0000000000000000e0020000000000000000000000000000000000000000000e000002000000000060030000000000000000000000000000000000000000000e000001000000000060020000000000000000000000000000000000000000000e000000000200000021020000000000000000000000000000000000000000000c000004000400000001dfffffffffffffffffffffffffffffff0000000000000c000004000400000000ffffffffffffffffffffffffffffffff00000000000004020004000000000000000000000000000000000000000000000000000000000a000000000000000008dd13ba1300000000000000000000000000000000000002000002000400000000200000000000000000000000000000000000000000000c000008000800000001ffffffffffffffff00000000000000000000000000000c0000080008000000000000000000000000000000000000000000000000000004040008000000000000000000000000000000000000000000000000000000000a000000000000000008dd13bf130000000000000000000000000000000000000e000004000000000020020000000000000000000000000000000000000000000c000001000100000001000000000000000000000000000000000000000000000c0000010001000000000000000000000000000000000000000000000000000007000000000000000003741400000000000000000000000000000000000000000e0000000002000000610300000000000000000000000000000000000000000004020000000000000000000000000000000000000000000000000000000000000a000000000000000004c613fc130000000000000000000000000000000000000c000008000800000001010000000000000000000000000000000000000000000c000008000800000000000000000000000000000000000000000000000000000c000002000200000001040000000000000000000000000000000000000000000c000002000200000000000000000000000000000000000000000000000000000e0000000004000000610200000000000000000000000000000000000000000004040002000000000000000000000000000000000000000000000000000000000a000000000000000004d413cd1300000000000000000000000000000000000010000000000000000000000000000000000000000000000000000000000000000c000002000200000001000000000000000000000000000000000000000000000c000002000200000000000000000000000000000000000000000000000000000e000002000000000040000000000000000000000000000000000000000000001800000400010000000020000000000000000000000000000000000000000000070000000000000000039b14000000000000000000000000000000000000000002010000000800000000000000000000000000000000000000000000000000000e0000080000000000600300000000000000000000000000000000000000000007000000000000000003271200000000000000000000000000000000000000000a000000000000000002d713d8130000000000000000000000000000000000000a0000000000000000014a144a140000000000000000000000000000000000000e0000000002000000610300000000000000000000000000000000000000000004020000000000000000000000000000000000000000000000000000000000000a0000000000000000040314db130000000000000000000000000000000000000e0000000000000000e10200000000000000000000000000000000000000000007000000000000000000000000000000000000000000000000000000000000000c000002000200000001000000000000000000000000000000000000000000000c000002000200000000000000000000000000000000717b484e0000000000000e000002000000000020000000000000000000000000000000000000000000000c000001000100000001410000000000000000000000000000000000000000000c000001000100000000000000000000000000000000000000000000000000000c000002000200000001040000000000000000000000000000000000000000000c0000020002000000000000000000000000000000000000000000000000000007000000000000000003741400000000000000000000000000000000000000000c000002000200000001240000000000000000000000000000000000000000000c000002000200000000000000000000000000000000000000000000000000000e000002000000000000000000000000000000000000000000000000000000000c000004000400000001000000000000000000000000000000000000000000000c000004000400000000000000000000000000000000000000000000000000000c000002000200000001200000000000000000000000000000000000000000000c000002000200000000000000000000000000000000000000000000000000000a000000000000000001f013f013000000000000000000000000000000000000020800000004000000000000000000000000000000000000000000000000000004100000000000000000000000000000000000000000000000000000000000000a00000000000000000af0134014000000000000000000000000000000000000180000040008000000000500000000000000000000000000000000000000000008080002000800000000000000000000000000000000000000000000000000000e080000001000000021000000000000000000000000000000000000000000000e0800100000000000000100000000000000000000000000000000000000000002000004000800000000010000000000000000000000000000000000000000000c000010001000000001010000000000000000000000000000000000000000000c0000100010000000000000000000000000000000000000000000000000000004080004000000000000000000000000000000000000000000000000000000000a000000000000000002ed13f9130000000000000000000000000000000000000c000010001000000001000000000000000000000000000000000000000000000c000010001000000000000000000000000000000000000000000000000000000a000000000000000001ed13ed130000000000000000000000000000000000000c000002000200000001040000000000000000000000000000000000000000000c000002000200000000000000000000000000000000000000000000000000000e000002000000000000000000000000000000000000000000000000000000000c000002000200000001000000000000000000000000000000000000000000000c0000020002000000000000000000000000000000004bd4c1320000000000000e000002000000000000010000000000000000000000000000000000000000000a0000000000000000013e143e140000000000000000000000000000000000000c000001000100000001000000000000000000000000000000000000000000000c000001000100000000000000000000000000000000a079c3080000000000000e000000000200000021020000000000000000000000000000000000000000000e0000020000000000600100000000000000000000000000000000000000000007000000000000000003741400000000000000000000000000000000000000000e0000000002000000610100000000000000000000000000000000000000000002000002000200000000040000000000000000000000000000000000000000000c000001000100000001200000000000000000000000000000000000000000000c0000010001000000000000000000000000000000000000000000000000000007000000000000000003741400000000000000000000000000000000000000000e0000000002000000610100000000000000000000000000000000000000000002000002000200000000240000000000000000000000000000000000000000000c000001000100000001230000000000000000000000000000000000000000000c0000010001000000000000000000000000000000000000000000000000000007000000000000000003741400000000000000000000000000000000000000000e0000000002000000610100000000000000000000000000000000000000000002000002000200000000440000000000000000000000000000000000000000000c0000010001000000014941465f524546534e4152545f4854450000000000000c000001000100000000203a7265706c6548726566736e61725400000000000007000000000000000003741400000000000000000000000000000000000000000e0000000002000000610100000000000000000000000000000000000000000002000002000200000000640000000000000000000000000000000000000000000c000001000100000001000000000000000000000000000000000000000000000c0000010001000000000000000000000000000000000044454c00000000000007000000000000000003741400000000000000000000000000000000000000000c000002000200000001840000000000000000000000000000000000000000000c000002000200000000000000000000000000000000000000000000000000000e000002000000000000000000000000000000000000000000000000000000000c000002000200000001000000000000000000000000000000000000000000000c000002000200000000000000000000000000000000000000000000000000000e0000020000000000600300000000000000000000000000000000000000000018000002000400000000050000000000000000000000000000000000000000000e000004000000000060020000000000000000000000000000000000000000000e000000000200000061010000000000000000000000000000000000000000000202000400010000000000000000000000000000000000000000000000000000070000000000000000034c1400000000000000000000000000000000000000000c000002000200000001200000000000000000000000000000000000000000000c000002000200000000000000000000000000000000000000000000000000000e0000000004000000610200000000000000000000000000000000000000000008040002000200000000000000000000000000000000000000000000000000000e020001000000000000010000000000000000000000000000000000000000000e0000000002000000610300000000000000000000000000000000000000000002000002000200000000010000000000000000000000000000000000000000000c000004000400000001040000000000000000000000000000000000000000000c0000040004000000000000000000000000000000000000000000000000000004020004000000000000000000000000000000000000000000000000000000000a000000000000000002211432140000000000000000000000000000000000000e000000000200000061010000000000000000000000000000000000000000000200000200010000000080000000000000000000000000000000000000000000070000000000000000034c1400000000000000000000000000000000000000000c000002000200000001ffffffffffffffffffffffffffffffff0000000000000c000002000200000000ffffffffffffffffffffffff000000000000000000000e000000000400000001050000000000000000000000000000000000000000001a040002000200000002000000000000000000000000000000000000000000000c000004000400000001000000000000000000000000000000000000000000000c000004000400000000000000000000000000000000ffffffff0000000000001a010004000400000002000000000000000000000000000000000000000000001a040002000200000004000000000000000000000000000000000000000000000e000002000000000000050000000000000000000000000000000000000000000e0000000000000000e10200000000000000000000000000000000000000000007000000000000000004000000000000000000000000000000000000000000000c000002000200000001ffffffffffffffffffffffffffffffff0000000000000c000002000200000000ffffffffffffffffffffffff000000000000000000000e000000000400000001020000000000000000000000000000000000000000001a040002000200000002000000000000000000000000000000000000000000000c000004000400000001000000000000000000000000000000000000000000000c000004000400000000000000000000000000000000ffffffff0000000000000e000000000800000021010000000000000000000000000000000000000000001a080004000400000002000000000000000000000000000000000000000000001a040002000200000004000000000000000000000000000000000000000000000e000002000000000000020000000000000000000000000000000000000000000e0000000000000000e10200000000000000000000000000000000000000000007000000000000000004000000000000000000000000000000000000000000000c000002000200000001e0ffffffffffffffffffffffffffffff0000000000000c000002000200000000ffffffffffffffffffffffffffffffff0000000000001a010002000200000002000000000000000000000000000000000000000000000c000004000400000001200000000000000000000000000000000000000000000c0000040004000000000000000000000000000000000000000000000000000008020004000400000000000000000000000000000000000000000000000000001a0000010002000000021f00000000000000000000000000000000000000000018000002000800000000030000000000000000000000000000000000000000000e0400000002000000210000000000000000000000000000000000000000000004080000000000000000000000000000000000000000000000000000000000000a0000000000000000045e1457140000000000000000000000000000000000000c000010001000000001000100000000000000000000000000000000000000000c0000100010000000000000000000000000000000000000000000000000000004100008001000000000000000000000000000000000000000000000000000000e04000000040000002101000000000000000000000000000000000000000000181000040004000000020000000000000000000000000000000000000000000018080002000200000000000000000000000000000000000000000000000000001a04000200020000000400000000000000000000000000000000000000000000020200000001000000000000000000000000000000000000000000000000000007000000000000000000000000000000000000000000000000000000000000000c000002000200000001e0ffffffffffffffffffffffffffffff0000000000000c000002000200000000ffffffffffffffffffffffffffffffff0000000000001a010002000200000002000000000000000000000000000000000000000000000c000004000400000001200000000000000000000000000000000000000000000c0000040004000000000000000000000000000000000000000000000000000008020004000400000000000000000000000000000000000000000000000000001a0000010002000000021f00000000000000000000000000000000000000000018000002000800000000030000000000000000000000000000000000000000000e0400000002000000010000000000000000000000000000000000000000000004080000000000000000000000000000000000000000000000000000000000000a00000000000000000472146b140000000000000000000000000000000000000c000010001000000001000100000000000000000000000000000000000000000c0000100010000000000000000000000000000000000000000000000000000004100008001000000000000000000000000000000000000000000000000000000e04000000040000000101000000000000000000000000000000000000000000181000040004000000020000000000000000000000000000000000000000000018080002000200000000000000000000000000000000000000000000000000001a04000200020000000400000000000000000000000000000000000000000000020200000001000000000000000000000000000000000000000000000000000007000000000000000000000000000000000000000000000000000000000000000c000004000400000001e0ffffffffffffffffffffffffffffff0000000000000c000004000400000000ffffffffffffffffffffffffffffffff0000000000001a020004000400000002000000000000000000000000000000000000000000000c000008000800000001200000000000000000000000000000000000000000000c0000080008000000000000000000000000000000000000000000000000000008040008000400000000000000000000000000000000000000000000000000001a0000020002000000021f00000000000000000000000000000000000000000018000002000200000000030000000000000000000000000000000000000000000c000008000800000001000100000000000000000000000000000000000000000c0000080008000000000000000000000000000000000000000000000000000004080002001000000000000000000000000000000000000000000000000000000c000020002000000001ffffffffffffffffffffffffffffffff0000000000000c000020002000000000ffffffffffffffffffffffffffffffff000000000000020100000008000000000000000000000000000000000000000000000000000004020000000000000000000000000000000000000000000000000000000000000a0000000000000000048914841400000000000000000000000000000000000018100020000800000000000000000000000000000000000000000000000000000e040000004000000021000000000000000000000000000000000000000000001a4000080008000000020000000000000000000000000000000000000000000018020001004000000002000000000000000000000000000000000000000000001a400008000800000004000000000000000000000000000000000000000000000e0400000040000000210100000000000000000000000000000000000000000004020000000000000000000000000000000000000000000000000000000000000a00000000000000000490148c14000000000000000000000000000000000000181000010010000000000000000000000000000000000000000000000000000018020020000200000002000000000000000000000000000000000000000000001a400002000200000002000000000000000000000000000000000000000000001a100002004000000004000000000000000000000000000000000000000000000e040040000000000020010000000000000000000000000000000000000000000e04000800000000002000000000000000000000000000000000000000000000070000000000000000000000000000000000000000000000000000000000000007010000000000000005000000000000000000000000000000000000000000000a000000000000000002951498140000000000000000000000000000000000000c000001000100000001000000000000000000000000000000000000000000000c0000010001000000000000000000000000000000000000000000000000000007000000000000000000000000000000000000000000000000000000000000000c000001000100000001010000000000000000000000000000000000000000000c00000100010000000000000000000000000000000000000000000000000000070000000000000000000000000000000000000000000000000000000000000007010000000000000001000000000000000000000000000000000000000000000a0000000000000000029d14a0140000000000000000000000000000000000000c000001000100000001000000000000000000000000000000000000000000000c0000010001000000000000000000000000000000000000000000000000000007000000000000000000000000000000000000000000000000000000000000000c000001000100000001010000000000000000000000000000000000000000000c000001000100000000000000000000000000000000000000000000000000000700000000000000000000000000000000000000000000000000000000000000"
        }
      },
      "factoryDependencies": {},
      "hash": "8c797cfebd349bec7751c0a9a276f65582f9a7f846b06f2595c919bad07538f3"
    }
  }
}